:10616000436F707972696768742028432920323040
:1061700030352D3720547261636B20537973746509
:106180006D7320546563686E6F6C6F676965732CFF
:10619000204C4C43000200FF000000C0C1C181013F
:1061A00040C30103C00280C241C60106C00780C7C8
:1061B000410500C5C1C4810440CC010CC00D80CD97
:1061C000410F00CFC1CE810E400A00CAC1CB810B66
:1061D00040C90109C00880C841D80118C01980D938
:1061E000411B00DBC1DA811A401E00DEC1DF811FC6
:1061F00040DD011DC01C80DC411400D4C1D58115D7
:1062000040D70117C01680D641D20112C01380D3E7
:10621000411100D1C1D0811040F00130C03180F176
:10622000413300F3C1F28132403600F6C1F78137C5
:1062300040F50135C03480F4413C00FCC1FD813D96
:1062400040FF013FC03E80FE41FA013AC03B80FB67
:10625000413900F9C1F88138402800E8C1E98129B5
:1062600040EB012BC02A80EA41EE012EC02F80EFC7
:10627000412D00EDC1EC812C40E40124C02580E5D6
:10628000412700E7C1E68126402200E2C1E38123E5
:1062900040E10121C02080E041A00160C06180A1F7
:1062A000416300A3C1A28162406600A6C1A78167C5
:1062B00040A50165C06480A4416C00ACC1AD816D96
:1062C00040AF016FC06E80AE41AA016AC06B80AB67
:1062D000416900A9C1A88168407800B8C1B9817935
:1062E00040BB017BC07A80BA41BE017EC07F80BFC7
:1062F000417D00BDC1BC817C40B40174C07580B5D6
:10630000417700B7C1B68176407200B2C1B38173E4
:1063100040B10171C07080B041500090C191815175
:1063200040930153C052809241960156C0578097C6
:1063300041550095C1948154409C015CC05D809D95
:10634000415F009FC19E815E405A009AC19B815B64
:1063500040990159C058809841880148C0498089B6
:10636000414B008BC18A814A404E008EC18F814FC4
:10637000408D014DC04C808C41440084C1858145D5
:1063800040870147C046808641820142C0438083E6
:0963900041410081C180814040BF
:1072B9005000140000000000000000000000000061
:1072C900000000430BEB000000410BEA00410C6E8B
:1072D9000A4100050002690000026500005000240F
:1072E9000000000000000000000000000000000095
:1072F900016D0041028100410C750042000200004D
:10730900410C71004202540000410C7000410C74A0
:1073190000420285000041000100410004004102D1
:10732900B400410BA400410C6F00026E000002671B
:1073390000004202880000410284004102B5004178
:077349000000004102B60440
:102FF80075840F75FFDE75FFAD1279E2127A8D5375
:10300800B0BF53B0DF53B0EF12720012005E7530DC
:103018000175310975320E7B017A0B79E812705609
:10302800900C6E7414F0E4900284F01278C97F005A
:103038007E96120026127DE3127C0DE490025BF06E
:1030480090026E7402F0900277744EF07B017A025F
:1030580079B790026A121ABA7A09791090027D1229
:103068001ABA7A0679F1900267121ABA7A0B79A518
:1030780090027A121ABAE490025AF090026D04F0A3
:10308800900264744EF0E490026FF0A3F090025C3A
:10309800F0A3F0900279F0900266F0900278F09038
:1030A8000265F01BFAF9900274121ABA90027112B2
:1030B8001ABA900261121ABA90025E121ABA0B7A00
:1030C80002795A7F007E847D037C001265D07B01E3
:1030D8007A02796D7F007EE17D007C001265D0D296
:1030E800AF43F880900281E0602CC3900019E0940F
:1030F800B8900018E0940B501D53B0F753B0BF536D
:10310800B0DF53B0EFE4F545F5467B937D037F02CE
:103118001269E7126D5890024EE0606F900252E01B
:10312800FEA3E0FFA3E0FCA3E0FD6F7002EC6E706D
:103138005A90024FE024FD603204704FED2428FEBF
:10314800E43C900252F0A3CEF090024F7403F0904A
:10315800024EE024FE600F1460092402702D43C85B
:1031680010802843C81043C820802090024F740460
:10317800F090024EE024FE600F1460092402700BE8
:1031880053C8EF800653C8EF53C8DF90025E121A87
:06319800B1E94A4B602B77
:10319E0090025E121AB18B2A8A2B892C7B007A0040
:1031AE00790090025E121ABAAB2AAA2BA92CE4FF60
:0B31BE00123EE3900C77EEF0A3EFF060
:1031C900900C70E070030232F9E4F09002B4E0FF71
:1031D90064F07027900BEAEFF0E4F56EF56F90005C
:1031E9000574FFF043B00843B04043B02043B0102A
:1031F900C2A853E7FD53E7BF0232F4EFB4F11390CD
:103209000BEAF053B0F753B0BF53B0DF53B0EF023E
:1032190032F4EF64F2702F900BEAEFF043B00843F9
:10322900B04043B02043B010900BE9E024FFFD907B
:103239000BE8E034FFFCE4FBFFFE1277EAE4F584D7
:1032490043EF010232F99002B4E0FFC3940440094C
:10325900EFD39419500343B0409002B4E0FFC394F4
:1032690004400CEFD3941D50067E007F0180047E3C
:10327900007F00900BEAE0FDC39404400CEDD39469
:103289001D50067C007D0180047C007D00ED6F707F
:1032990002EC6E605B9002B4E0FFC394044044EF1B
:1032A900D3941D503E900BEAEFF0124F9D1278C94E
:1032B9001200A6E4900C75F0900C6EE0FF74A08FDC
:1032C900F08475F00AA4FF900255E02401FD9002F4
:1032D90054E03400CD2FFEED35F0900002F0A3CE7E
:1032E900F08008E4900BEAF0126D58E49002B4F013
:1032F900900BEAE0FFC3940450030230ECEFD3943F
:103309001D40030230EC90025E121AB1E94A4B608B
:10331900030230EC900BEDE060030230EC900261A7
:10332900121AB1E94A4B60030230EC900281E07055
:103339000302360C900019E094B8900018E0940B41
:103349004007E4900281F080069002817401F0C385
:10335900E56A940AE5696480948040067569007598
:103369006A0990001AE0FEA3E0FFEF24FBFFEE34A8
:10337900EBFEE434FFFDE434FFFCE47BE87A03F977
:10338900F81217F9E47BE57A24F9F8127C9C90028B
:1033990080EFF0E024CEF0900016E0540FFD90008D
:1033A90014E0540FC4F854F0C8E4C4540F482DFF76
:1033B900906198E493FD3395E0FC90026775F013F2
:1033C900ED121A95EC75F013A42583F583121AB141
:1033D900900007EF12164490005275F033E56A1217
:1033E9001A95E56975F033A42583F58375F003E52E
:1033F90066121A95E56575F003A42583F583E0FF48
:10340900900014A3E0FEEF2EFF906198E4933395AA
:10341900E0FC90026775F013ED121A95EC75F01344
:10342900A42583F583121AB1900008EF121644906F
:10343900005375F033E56A121A95E56975F033A4FE
:103449002583F58375F003E566121A95E56575F030
:1034590003A42583F583E0FF900016A3E0FEEF2E79
:10346900FF906198E4933395E0FC90026775F0133F
:10347900ED121A95EC75F013A42583F583121AB190
:10348900900009EF121644E5D8F4FF90026775F031
:1034990013ED121A95EC75F013A42583F583121A0E
:1034A900B190000AEF121644900259E0FF900022F1
:1034B900E0FEA3E0A807088005CEC313CE13D8F910
:1034C900FF906198E493FD3395E0FC90026775F0F5
:1034D90013ED121A95EC75F013A42583F583121ACE
:1034E900B190000BEF121644900258E0FF900020B3
:1034F900E0FEA3E0A807088005CEC313CE13D8F9D0
:10350900FF906198E493FD3395E0FC90026775F0B4
:1035190013ED121A95EC75F013A42583F583121A8D
:10352900B190000CEF121644900257E0FF90001E74
:10353900E0FEA3E0A807088005CEC313CE13D8F98F
:10354900FF906198E493FD3395E0FC90026775F074
:1035590013ED121A95EC75F013A42583F583121A4D
:10356900B190000DEF121644900256E0FF90001C36
:10357900E0FEA3E0A807088005CEC313CE13D8F94F
:10358900FF906198E493FD3395E0FC90026775F034
:1035990013ED121A95EC75F013A42583F583121A0D
:1035A900B190000EEF12164490024CE0A3FF900276
:1035B9006775F013ED121A95EC75F013A42583F5D0
:1035C90083121AB190000FEF12164490024CA3E037
:1035D900FF90026775F013ED121A95EC75F013A4BC
:1035E9002583F583121AB1900010EF121644754520
:1035F9000075460A7B927D037F021269E7125F22FA
:0F3609000230EC900279E0FF900278E06F606D84
:10361800EF75F0DCA4FF90027D121AB1E92FF9EAE8
:1036280035F08B2AF52B892C900279E0FFB402043F
:103638007F008003EF04FF900279EFF0900280E0B2
:10364800FF90005075F033E56A121A95E56975F038
:1036580033A42583F583EFF0AE69AF6A7C007D3330
:10366800121666743C2FF974003E753001F53189E5
:0A36780032AB2AAA2BA92C1227C19D
:103682000230EC900C75E0FD7017900002E0FEA392
:10369200E0FF900254E06E7003A3E06F600302301B
:1036A200EC900C6EE0FC74A08CF08475F00AA4FF20
:1036B200900255E02401FB900254E03400CB2FFE2F
:1036C200EB35F0900002F0A3CEF0ED700E900C748A
:1036D200F090000274FFF5F01217039002B6E0FFBB
:1036E2006059900C75E070030237EA90024EE06078
:0136F20034A3
:1036F300EC900C76B428057406F080037404F09003
:103703000C76E0B5071E90024F7402F0A3E0FEA30F
:10371300E0FF900255E02FFF900254E03E900252EA
:04372300F0A3EFF030
:103727009002B6E014F060030237EAF565F566F536
:0637370069F56A0237EAA1
:10373D00900C74E0FF906198E493FD3395E0FC905C
:10374D00026775F013ED121A95EC75F013A425832D
:10375D00F583121AB1900007EF121644900285E01E
:10376D00A3FF90026775F013ED121A95EC75F01327
:10377D00A42583F583121AB1900008EF1216449018
:10378D000285A3E0FF90026775F013ED121A95EC18
:10379D0075F013A42583F583121AB1900009EF1269
:1037AD0016447545007546037B277D037F0212691C
:1037BD00E7E4F52AF52BD390090FE0952B90090E30
:1037CD00E0952A4018743C252BF5827400352AF5B6
:0D37DD0083E4F0052BE52B70DD052A80D973
:1037EA00E4900C75F09002B5F0900C74E0600863F8
:0D37FA00B020E4F00230EC53B0DF0230EC00
:0E6D580053B0BF53B0DF90024FE06403706D84
:106D6600900C79121A4000015F90E4FFFEFDFC9042
:106D76000C79121A18D31219314017900C79121A7D
:106D86000C74FFFBFAF9F81217DE900C79121A341C
:026D960080D8A3
:036D9800E4F5C857
:106D9B00900C7D121A4000020F58E4FFFEFDFC9090
:106DAB000C7D121A18D31219314017900C7D121A40
:106DBB000C74FFFBFAF9F81217DE900C7D121A34E3
:026DCB0080D86E
:106DCD0090024F7404F090024FE064046003026E71
:016DDD00CFE6
:106DDE00900C81121A4000015F90E4FFFEFDFC90C2
:106DEE000C81121A18D31219314017900C81121AF5
:106DFE000C74FFFBFAF9F81217DE900C81121A349C
:026E0E0080D82A
:106E100090024EE024FE6044146076240260030277
:056E20006ECF43C81015
:106E2500900C85121A400001B774E4FFFEFDFC903A
:106E35000C85121A18D31219314017900C85121AA5
:106E45000C74FFFBFAF9F81217DE900C85121A3450
:026E550080D8E3
:086E570053C8EF807343C8200B
:106E5F00900C89121A400001B774E4FFFEFDFC90FC
:106E6F000C89121A18D31219314052900C89121A28
:106E7F000C74FFFBFAF9F81217DE900C89121A3412
:026E8F0080D8A9
:066E910043C81043C820B5
:106E9700900C8D121A400001B774E4FFFEFDFC90C0
:106EA7000C8D121A18D31219314017900C8D121A23
:106EB7000C74FFFBFAF9F81217DE900C8D121A34D6
:026EC70080D871
:106EC90053C8EF53C8DF90024F7401F0E4F5C822AC
:104F9D00E4F569F56AF565F566900C74F0A3F0908B
:104FAD00090EE0FEA3E0FF7B017A00793C75470016
:104FBD007548011274B8900BA4E024FC601424020F
:104FCD007027900C6E7414F0900250E4F0A374F0FE
:104FDD008026900C6E7428F0900250E4F0A374A417
:104FED00F09002B67406F08016900C6E740AF09074
:104FFD0002507402F0A37434F09002B67404F09071
:10500D000C6FE0900284F0900282E0FCA3E0FD4C76
:10501D00700890000AF0A3F08067900287E0701E80
:10502D00121267A804A905AA06AB07E4FFFE7D7A54
:10503D007C481211471212A07C007DF0803890023E
:10504D0087E0B40F037410F0900282E0FCA3E0FD42
:10505D00E4121267A804A905AA06AB07E4FFFE7DBA
:10506D007A7C481211471212A0900287E0FD7478E5
:10507D008DF084FD7C0012166690000AEEF0A3EF11
:10508D00F0E5D820E008E4900284F00253B97B01EA
:10509D007A00793C7547007548037F107E021274C3
:1050AD00B8E4F52DF52E90005475F028E52E121A62
:1050BD0095E52D75F028A42583F583E024FB601577
:1050CD0024FB70227456252EF5827402352DF5833E
:1050DD007403F080207456252EF5827402352DF55B
:1050ED00837402F0800F7456252EF5827402352DCF
:1050FD00F5837404F0052EE52E7002052D6404452C
:10510D002D70A39001E2E0540F900006F09001E2A3
:10511D00E054F0C4540F900007F090024F7401F06A
:10512D00900006E0B40312A3E090024EB4030574A0
:10513D0003F080197401F08014900007E0B40308A7
:10514D0090024E7402F08005E490024EF0E4F52DCD
:10515D00F52E90006175F028E52E121A95E52D7546
:10516D00F028A42583F583E0FDE52E25E0FFE52D50
:10517D0033FE740D2FF58274003EF583EDF0900033
:10518D005575F028E52E121A95E52D75F028A425F4
:10519D0083F583121A1890005975F028E52E121A0E
:1051AD0095E52D75F028A42583F583121A0C120FA1
:1051BD0049C004C005C006C00790005575F028E52C
:1051CD002E121A95E52D75F028A42583F583121A54
:1051DD001890005D75F028E52E121A95E52D75F0E5
:1051ED0028A42583F583121A0C120F49D003D0027F
:1051FD00D001D000121147E4FBFAF9F81211E49036
:10520D00005575F02860054003025297E52E121ADD
:10521D0095E52D75F028A42583F583121A189000B5
:10522D005975F028E52E121A95E52D75F028A4254F
:10523D0083F583121A0C120F49C004C005C006C0B5
:10524D000790005575F028E52E121A95E52D75F08D
:10525D0028A42583F583121A1890005D75F028E5B2
:10526D002E121A95E52D75F028A42583F583121AB3
:10527D000C120F49D003D002D001D000121147C03B
:10528D0004C005C006C00702531DE52E121A95E590
:10529D002D75F028A42583F583121A1890005975E1
:1052AD00F028E52E121A95E52D75F028A42583F525
:1052BD0083121A0C120F49C004C005C006C0079016
:1052CD00005575F028E52E121A95E52D75F028A4D8
:1052DD002583F583121A1890005D75F028E52E12BE
:1052ED001A95E52D75F028A42583F583121A0C1255
:1052FD000F49D003D002D001D00012114712125124
:10530D00AB07AA06A905A804C000C001C002C003CE
:10531D0090006275F028E52E121A95E52D75F0288E
:10532D00A42583F583E0FF90006375F028E52E1228
:10533D001A95E52D75F028A42583F583E0C39FFD0F
:10534D00E49400FCE4121267D003D002D001D00027
:10535D0012103EC004C005C006C00790006275F073
:10536D0028E52E121A95E52D75F028A42583F583D1
:10537D00E0FCE412126CD003D002D001D000120F69
:10538D004D1212A0AD07E52E25E0FFE52D33FE747D
:10539D000C2FF58274003EF583EDF0052EE52E7091
:1053AD0002052D6404452D600302515F900284E0D7
:1053BD0030E7034403F0E4F52DF52ED390090FE00B
:1053CD00952E90090EE0952D4018743C252EF582F2
:1053DD007400352DF583E4F0052EE52E70DD052DD9
:0253ED0080D965
:0153EF00229B
:095F2200900284E0700302615F4B
:035F2B00752D06CB
:105F2E00AF2D900284E0FEA807088002C313D8FCB0
:105F3E0020E003026151E52D121B4C60C40060BBD2
:105F4E00015FAC025FAC035F6A045F6A055F6206C5
:105F5E0000006151E5D8F4F52E026151AF2DEF33FB
:105F6E0095E0FEEF25E0FFEE33FE74182FF58274F8
:105F7E00003EF583E0FEA3E0FFAD2DED3395E0FC92
:105F8E0074542DF58274023CF583E0FDEFA80508EC
:0E5F9E008005CEC313CE13D8F9F52E02615143
:105FAC00E4F52FAF2DEF3395E0FEEF25E0FFEE3358
:105FBC00FE74182FF58274003EF583E0FEA3E0FF1B
:105FCC00AD2DED3395E0FC74542DF58274023CF547
:105FDC0083E0FBEFA803088005CEC313CE13D8F9DA
:105FEC00F52E74042DF58274003CF583E064026098
:105FFC0003026151AF2DEF3395E0FEEF25E0FFEE8C
:10600C0033FE74092FF58274003EF583E06023049F
:10601C00604624FE706A74082FF58274003EF58386
:10602C00E0FFE52ED39F40047F0180027F008F2F7D
:10603C00804EAF2DEF3395E0FEEF25E0FFEE33FE03
:10604C0074082FF58274003EF583E0B52E047F01B1
:10605C0080027F008F2F8028AF2DEF3395E0FEEF6D
:10606C0025E0FFEE33FE74082FF58274003EF583B5
:10607C00E0FFE52EC39F50047F0180027F008F2F2D
:10608C00E52F6015E52D2402FF7401A80708800296
:10609C00C333D8FC42C8026151E52D2402FF7401C0
:0F60AC00A807088002C333D8FCF452C802615120
:0960BB0090024CE0F52E02615147
:1060C40090024CE0FEA3E0FFF52E90000AE0FCA352
:1060D400E0FD4C6078EF4E6074D3ED9FEC9E503839
:1060E400E4F52FF53074062530F5827400352FF56C
:1060F40083E0B40113E5302404FF7401A807088089
:1061040002C333D8FCF452C80530E5307002052FC1
:106114006402452F70CF8035E4F52FF530740625E1
:1061240030F5827400352FF583E0B40112E5302494
:1061340004FF7401A807088002C333D8FC42C805D1
:0D61440030E5307002052F6402452F70D049
:0E615100152DC3E52D648094804003025F2E5F
:01615F00221D
:10792D008B4B8A4C894DE92DF9EA3C8B4EF54F89ED
:10793D0050E4F551F552C3854F83855082E54D9541
:10794D0082E54C9583502F784BE475F001121AA106
:10795D001215B9FFE5526F25E0FFE433FE74992F40
:10796D00F58274613EF583E551FFE493F5517401A1
:0A797D00936FF55280C0AE51AF5277
:0179870022DD
:1073500002080001010C00020D0000420D2900008E
:04736000410D2B00B0
:067988008B518A52895365
:10798E00858454AB51AA52A95390000212175A453E
:10799E00F070F0AB51AA52A95390000D121AC3C049
:1079AE0003C002C001AB51AA52A953900007121A8C
:1079BE00F3AB51AA52A953900002EC8DF01217B1FD
:1079CE001215B97006F584D2998005758401D29985
:0379DE0085548449
:0179E1002283
:107DC300AE84E4F5848F9B30FFFDC2FFAF9B8E84AE
:017DD300228D
:1079E200AF8475840F759601758C67E4FDFC0DBD3F
:1079F20000010CE4B505F7ECB401F3E58C30E7FBCC
:107A0200759701E4F58A758905F58475B720758443
:107A12000F758D01758F01758E03FCFD0DBD000183
:107A22000CE4B505F7ECB401F3438902E58930E4CF
:067A3200FB7597028F8432
:017A3800222B
:0E65D0008B2D8A2E892F8F338E328D318C3099
:1065DE008584341215B914606F0460030267D0E429
:1065EE00F58475911590000A1215D224BB601824FB
:1065FE00F6601424EA601024F76007146009242161
:10660E00700875985080037598D0E4F58475C804A9
:10661E0075C908AB33AA32A931A830FFFE7D657C5F
:10662E0004121884E47B10FAF9F812188412192354
:10663E008ECB8FCA74FFF5CDF5CCD2CAE4F584C2E9
:10664E0099C298D2AC0267D0758401AB2DAA2EA93F
:10665E002F90000A1215D224BB601824F660142461
:10666E00EA601024F76007146009242170087598F9
:10667E00108003759890E4F58453890F438920ABFD
:10668E0033AA32A931A830FFFE7D657C041218842E
:10669E00E47B02FAF9F8121884E4FB7A01F9F81295
:1066AE001884E47B01FAF9F8D31219474026AB336C
:1066BE00AA32A931A830E4FFFE7D657C041218844D
:1066CE00E47B02FAF9F81218841219238F8D438E87
:1066DE00100267C1AB33AA32A931A830E4FFFE7DA8
:1066EE00657C04121884E47B02FAF9F8121884E42B
:1066FE00FB7A01F9F8121884E47B04FAF9F8D31244
:10670E0019474031AB33AA32A931A830E4FFFE7DE0
:10671E00657C04121884E47B02FAF9F8121884E4FA
:10672E007B04FAF9F81218841219238F8D538EEC0C
:10673E00438E01807EAB33AA32A931A830E4FFFE2E
:10674E007D657C04121884E47B02FAF9F812188431
:10675E00E4FB7A01F9F8121884E47B0CFAF9F8D309
:10676E00121947AB33AA32A931A830E4FFFE7D657A
:10677E007C04401F121884E47B02FAF9F812188484
:10678E00E47B0CFAF9F81218841219238F8D538EAC
:10679E00EC8020121884E47B02FAF9F8121884E4D3
:1067AE007B30FAF9F81218841219238F8D538EEC60
:1067BE00438E02858D8BD28E758401C299C2984309
:0567CE00E74085348462
:0167D30022A3
:10005E00AF84E4F584759D04759A70C2FFD2F88F53
:01006E00840D
:01006F00226E
:10002600AD84758401E4F5C8F5C9EF2408FFE43E04
:10003600FEC3E49FFFE49EF5CB8FCA74FFF5CDF5B2
:09004600CC43E70143C8048D849A
:01004F00228E
:030023000267D49D
:1067D400C0E0C0F0C083C082C0D075D000C000C08B
:0D67E40001C002C003C004C005C006C0070C
:1067F100E59820E00302696D8599225398FEE5082A
:106801006003026939E50924FE60631470030268BC
:10681100A014700302690524036003026939750D30
:1068210000750E00E5226416600302693990026565
:10683100E0FF7E007C027D1D12166690026A121A2C
:10684100B1E92FF9EA3E8B0FF5108911FA050EE532
:106851000EAE0D7002050D14F5828E83E52212161F
:1068610044E522620C750800750902026939AB0F13
:10687100AA10A911050EE50EAE0D7002050D14F555
:10688100828E83E522121644E522620CE50E64062F
:10689100450D6003026939F508750903026939ABD1
:1068A1000FAA10A911050EE50EAE0D7002050D140B
:1068B100F5828E83E522121644630CFFE50C6522F6
:1068C1007031AB0FAA10A9119000031215D2750AED
:1068D10000F50B750B00F50A9000041215D2250B7B
:1068E100F50BE4350AF50A450B6047750800750993
:1068F100048045750D00750E007508007509017558
:106901000C00803443B010AB0FAA10A911050EE59D
:106911000EAE0D7002050D14F5828E83E52212165E
:1069210044E50B2407FFE4350AFEEFB50E0AEEB588
:106931000D06750800750905E50964054508702C03
:1069410053B0EFF508750901F50DF50EF50C900240
:106951005E121AB1E94A4B7013AB0FAA10A911903C
:10696100025E121ABA900265E06401F0E59830E126
:106971004090025CE07002A3E0602443B0109002FA
:1069810061121AB11215B9F599900262E475F0011C
:1069910012170390025C74FFF5F0121703800F5376
:1069A100B0EF7B007A007900900261121ABA539815
:0169B100FDE8
:1069B200D007D006D005D004D003D002D001D00039
:0B69C200D0D0D082D083D0F0D0E032E3
:0300A3000263995C
:10639900C0E0C0F0C083C082C0D075D000C000C0CA
:0963A90001C002C003C006C007D8
:1063B200E59820E003026544859923900D2BE012B5
:1063C2001B4C63E30063F4016407026457036484B3
:1063D20004649D0564C4066505076516080000652A
:1063E20041E52364B56003026541900D2B04F00280
:1063F2006541E523900D2BB462067402F0026541FB
:10640200E4F0026541751800751700900D29E4F05B
:10641200A3F0900278E075F0DCA4FF90027D121ADE
:10642200B1E92FF9EA35F08B12F5138914FA900DC0
:1064320029E475F00112171985F082F583E523121C
:106442001644E5232517F5172518F518900D2B741A
:1064520003F0026541AB12AA13A914900D29E47549
:10646200F00112171985F082F583E523121644E52F
:10647200232517F5172518F518900D2B7404F00233
:106482006541751500852316E5232517F51725188F
:10649200F518900D2B7405F0026541E523FEE42505
:1064A20016F516EE3515F515E5232517F5172518FA
:1064B200F518E5164515900D2B700280417406F013
:1064C200807DAB12AA13A914900D29E475F0011274
:1064D200171985F082F583E523121644E523251763
:1064E200F5172518F518E5162402FFE43515FE9078
:1064F2000D29E06E7003A3E06F7044900D2B7407BA
:10650200F0803CE517900D2BB523057408F0802F21
:04651200E4F0802B06
:10651600900278E0FFB402067E007F008003EF045D
:10652600FF8F24E518B5230E900279E065246006F6
:0B653600900278E524F0900D2BE4F0BB
:106541005398FEE59830E17090026FE07002A3E08D
:106551006057900277E024BB601A24E0601624F6AD
:10656100600424207022900274121AB11215B930FD
:10657100E00E8011900274121AB11215B930E005C3
:1065810043980480035398FB900274121AB11215B8
:10659100B9F599900275E475F00112170390026F35
:1065A10074FFF5F0121703800C7B007A00790090DC
:0865B1000274121ABA5398FD9E
:1065B900D007D006D003D002D001D000D0D0D082ED
:0765C900D083D0F0D0E032D6
:0300730002766BA7
:10766B00C0E0C0F0C083C082C0D075D000C000C0E5
:03767B0006C0073F
:10767E0075840153C87F900254E475F0011217030C
:10768E00E4FFFE74EB2FF582E4340BF583E0600D1E
:10769E0074EB2FF582E4340BF583E014F00FBF008A
:1076AE00010EEF64034E70DB75840FE5E820E016E3
:1076BE00C3900289E094FF900288E094FF5007E4A3
:1076CE0075F00112170375840075BB00C2EDD2EC84
:1076DE00D007D006D000D0D0D082D083D0F0D0E06A
:0176EE003269
:10720000E4900CB9F07B017A0B79EE127A39900C8C
:1072100057E07004A3E064C8700C900C59E070044F
:10722000A3E064076018900C57E4F0A374C8F090D2
:107230000C59E4F0A37407F0900CB97401F0900CB1
:1072400040E0B46508900C3FE064016010900C4091
:107250007465F0900C3F7401F0900CB9F0900BEE57
:10726000E0FF127DD4400D900BEEE06007E4F0905B
:107270000CB904F0900C02E0FF127DD4400D900C8C
:1072800002E06007E4F0900CB904F0900C16E0FF07
:10729000127DD4400D900C16E06007E4F0900CB91C
:1072A00004F0900CB9E06010127D467B017A0B79F6
:0872B000EE7D807C0012785A8B
:0172B80022B3
:107D4600AF84E4F584781EF608F6A2AF33FEC2AF20
:107D560043B701758F0718E6FC08E6F5828C83E4C5
:0D7D6600F0F58F53B7FEEE24FF92AF8F842F
:017D730022ED
:0A785A008B3F8A4089418C428D4328
:10786400858444E4F584781EF608F6A2AF33FFC29B
:10787400AF43B701758F05E4F545F546C3E5469575
:1078840043E5426480F8E5456480985029783FE4F4
:1078940075F001121AA11215B9FE781E0806E61831
:1078A400860470010614F5828C83EEF00546E546E5
:1078B40070CA054580C6E4F58F53B7FEEF24FF92E6
:0478C400AF854484C4
:0178C800229D
:067A39008B3F8A408941E9
:107A3F00858442E4F543F544F584A2AF33F545C29E
:107A4F00AF758F04E4FFFE0544E544AC43700205B7
:107A5F004314F5828C83E493FD783FE475F00112B3
:107A6F001AA1ED1216320FBF00010EEF64804E7097
:0D7A7F00D6E4F58FE54524FF92AF854284E3
:017A8C0022D7
:0E7553008E468F478C488D498B4A8A4B894C57
:0A75610012007EEF30E7F953F8FD49
:10756B00E4F551F5520552E5527002055164404560
:03757B005170F25A
:10757E00E5476401454670047F8480027F87127D53
:10758E00C3E4FF127DC3E4FF127DC3E4FF127DC38B
:10759E00E4F54FF550C3E5509549E5486480F8E5AC
:1075AE004F648098501DAB4AAA4BA94C85508285DA
:1075BE004F831215D2FF127DC30550E55070D605CC
:1075CE004F80D243F802AD4EAC4DAF47AE46027778
:0175DE006D3F
:08776D008E538F548C558D568C
:1077750090090EE0FEA3E0FF12741C8F5712007EE5
:07778500EF30E7F953F8FDB6
:10778C00E4F558F5590559E559700205586440451A
:03779C005870F230
:10779F00E5576010E5546401455370047F838012F0
:1077AF007F86800EE5546401455370047F8280020A
:1077BF007F85127DC3E556AE557806CEA2E713CE70
:1077CF0013D8F8FF127DC3AF56EF25E025E0FF1267
:0A77DF007DC3E4FF127DC343F802EE
:0177E900227D
:03007E0053F8FD37
:10008100E4F563F5640564E5647002056364404565
:030091006370F2A7
:0D0094007FD7127DC3E4FF127DC343F80245
:0100A100223C
:0A74B8008E428F438B448A458946BB
:0A74C20012007EEF30E7F953F8FDE9
:1074CC00E4F54BF54C054CE54C7002054B6440451E
:0374DC004B70F200
:1074DF007FD2127DC3E548AE477806CEA2E713CE22
:1074EF0013D8F8FF127DC3AF48EF25E025E0FF1258
:1074FF007DC3E4FF127DC3E4FF127DC3E4FF127D61
:10750F00C3E4FF127DC3E4FF127DC3E4F549F54ADE
:10751F00C3E54A9543E5426480F8E5496480985095
:10752F001FE4FF127DC3AB44AA45A946854A828555
:10753F004983EF121644054AE54A70D4054980D0B5
:03754F0043F802FC
:017552002216
:08741C008E5A8F5B8C5C8D5DC4
:0D742400755E0112007EEF30E7F953F8FDB0
:10743100E4F561F5620562E562700205616440454B
:037441006170F285
:107444007FD2127DC3E55DAE5C7806CEA2E713CE93
:1074540013D8F8FF127DC3AF5DEF25E025E0FF12DE
:107464007DC3E4FF127DC3E4FF127DC3E4FF127DFC
:10747400C3E4FF127DC3E4FF127DC3E4F55FF5604E
:10748400C3E560955BE55A6480F8E55F64809850D5
:107494001DE4FF127DC3BFFF047F0180027F008FC4
:1074A4005EEF600A0560E56070D6055F80D243F840
:0374B40002AF5EC6
:0174B70022B2
:047B2D008E418F42B4
:0A7B310012007EEF30E7F953F8FD73
:107B3B00E4F543F5440544E54470020543644045D0
:037B4B004370F292
:107B4E007F50127DC3E542AE417806CEC313CE13ED
:107B5E00D8F9FF127DC3AF42EF25E025E0FF127D7D
:097B6E00C3E4FF127DC343F802D9
:017B770022EB
:047B78008E428F4367
:0A7B7C0012007EEF30E7F953F8FD28
:107B8600E4F544F5450545E5457002054464404580
:037B96004470F246
:107B99007F81127DC3E543AE427806CEC313CE136F
:107BA900D8F9FF127DC3AF43EF25E025E0FF127D31
:097BB900C3E4FF127DC343F8028E
:017BC20022A0
:0677EA008C3C8D3D8B3E3E
:1077F000E53E600353B0BF8E3F8F40D3E540953DDB
:10780000E53F953C504CE54054077035C3E53D9548
:1078100040FFE53C953FFEC3EF9408EE9400402105
:10782000E53E6009E540543F700363B040AF40AEB1
:107830003F127B2D74072540F540E4353FF53F802E
:1078400007AF40AE3F127B780540E54070AD053F85
:0978500080A9E53E600353B0BFBE
:01785900220C
:067056008B2D8A2E892F0C
:09705C0043F80143F80253F8FB6C
:10706500E4F533F5340534E5347002053364404501
:037075003370F283
:0370780043F804D6
:10707B00E4F533F5340534E53470020533644045EB
:03708B003370F26D
:10708E0012007EEF543C121B4C70B00C70BA147090
:10709E00C41C70CE2470E92C710434711F3C0000A6
:1070AE00713BAB2DAA2EA92F7402801CAB2DAA2EDC
:1070BE00A92F74048012AB2DAA2EA92F7408800854
:1070CE00AB2DAA2EA92F741075F000121792AB30AB
:1070DE00AA31A932740175F008804FAB2DAA2EA9E2
:1070EE002F741075F000121792AB30AA31A93274BA
:1070FE000275F0108034AB2DAA2EA92F742075F0D6
:10710E0000121792AB30AA31A932740275F01080BA
:10711E0019AB2DAA2EA92F742075F000121792AB61
:0D712E0030AA31A932740475F020121792B6
:01713B002231
:10575B00257300506C61636520756E697420666CEF
:10576B006174206F6E206C6576656C207375726644
:10577B006163652E00486F6C642076657274696393
:10578B00616C2C2047505320616E74656E6E6120E6
:10579B006A61636B2075702E00486F6C64207665B0
:1057AB0072746963616C2C2047505320616E746571
:1057BB006E6E61206A61636B20646F776E2E00538F
:1057CB0074616E64206F6E207269676874207369F0
:1057DB0064652E005374616E64206F6E206C656679
:1057EB007420736964652E00496E76657274696EF8
:1057FB006720582056616C75657300496E7665722B
:10580B0074696E6720592056616C756573002000B2
:10581B0043616C6962726174696F6E2056616C755D
:10582B0065733A2025752C202575004163747561CD
:10583B006C205A65726F20506F696E74733A2058E2
:10584B002025752C205920257500582052616E6734
:10585B00653A2025642C20256400592052616E671F
:10586B00653A2025642C2025640053746F72696E91
:10587B00672043616C6962726174696F6E20446169
:10588B00746120696E20466C6173682E0043616CF5
:10589B006962726174696F6E20436F6D706C6574B1
:1058AB00652E00547261716D61746520496E70755F
:1058BB0074205465737400444947494E3A200031B3
:1058CB00003000583A2025752C20593A20257500B8
:1058DB0035563A2025752C20543A20257500413039
:1058EB003A2025752C2041313A2025750041323A5A
:1058FB002025752C2041333A20257500496E707593
:10590B00745465737420436F6D706C6574652E00F1
:10591B00547261716D617465204F7574707574206C
:10592B005465737400626974202564004F7574703C
:10593B0075745465737420436F6D706C6574652E4C
:10594B000025752C25750043616C3A2025642C25A8
:10595B00640056616C3A2025752C257500582C2057
:10596B0059205A65726F6564204F75740046696ED5
:10597B00616C2043616C3A2025642C2564004669D8
:10598B006E616C2056616C3A2025752C2575004490
:10599B00617461666C6173682054657374002A2AA4
:1059AB002A2A2A2A20466C6173682057726974650B
:1059BB00204641494C4544202A2A2A2A2A2A2C20AF
:1059CB00706167652025642C2062797465256400FD
:1059DB00466C617368206F6B20706167652025646E
:1059EB000044617461666C61736854657374204321
:1059FB006F6D706C6574652E0001020408102040F9
:095A0B0080010204081020408013
:101C470085843C9000047401F075840FFB7A0B794E
:101C5700EE127A39E4900C3EF090619593900C3F28
:101C6700F0A37465F0900C57E4F0A374C8F0900CDF
:101C770059E4F0A37407F074FFFFFEFDFC900C41DC
:101C8700121A18C3121947700A900C41121A400011
:101C9700000000900C45E0B4FF037401F0900C467F
:101CA700E0B4FF037407F0900C5B74FFF0A3F090AF
:101CB7000C477408F0A3E4F0900C497408F0A3E40F
:101CC700F0900BEEF0900C02F0900C16F0900C5583
:101CD700F0A374A0F0900C53E4F0A374A0F0E49088
:101CE7000288F0A3F043B00843B04043B02043B0AC
:101CF7001090619693FF3395E0FE90026775F0139D
:101D0700EF121A95EE75F013A42583F583121AB115
:101D1700E92407F9E43AFA7545FF75465775475BB5
:101D27007548FF754957754A5E124B8A906196E46C
:101D370093FF3395E0FE90026775F013EF121A9543
:101D4700EE75F013A42583F583121AB1E92407F978
:101D5700E43AFA12000EEF2401F546E43EF5459009
:101D67006195E493FF7B737D011269E7125CC412EE
:0E1D770045A153B0F753B0BF53B0DF53B0EFE8
:101D8500900C85121A40000107ACE4FFFEFDFC90A3
:101D95000C85121A18D31219314017900C85121A96
:101DA5000C74FFFBFAF9F81217DE900C85121A3441
:021DB50080D8D4
:101DB700906196E493FF3395E0FE90026775F01308
:101DC700EF121A95EE75F013A42583F583121AB155
:101DD700E92407F9E43AFA7545FF75465775475BF5
:101DE7007548FF754957754A80124B8A906196E48A
:101DF70093FF3395E0FE90026775F013EF121A9583
:101E0700EE75F013A42583F583121AB1E92407F9B7
:101E1700E43AFA12000EEF2401F546E43EF5459048
:101E27006195E493FF7B737D011269E7125CC490AF
:101E37000D25E0FEA3E0FF900D22E02FFF900D217E
:101E4700E03EC313FEEF13FF900C4DEEF0A3EFF04F
:031E570043B0088D
:101E5A00900C89121A40000107ACE4FFFEFDFC90C9
:101E6A000C89121A18D31219314017900C89121AB8
:101E7A000C74FFFBFAF9F81217DE900C89121A3467
:021E8A0080D8FE
:101E8C00906196E493FF3395E0FE90026775F01332
:101E9C00EF121A95EE75F013A42583F583121AB17F
:101EAC00E92407F9E43AFA7545FF75465775475B1F
:101EBC007548FF754957754AA4124B8A906196E490
:101ECC0093FF3395E0FE90026775F013EF121A95AD
:101EDC00EE75F013A42583F583121AB1E92407F9E2
:101EEC00E43AFA12000EEF2401F546E43EF5459073
:101EFC006195E493FF7B737D011269E7125CC490DA
:101F0C000D25E0FEA3E0FF900D22E02FFF900D21A8
:101F1C00E03EC313FEEF13FF900C4BEEF0A3EFF07B
:031F2C0043B0407F
:101F2F00900C8D121A40000107ACE4FFFEFDFC90EF
:101F3F000C8D121A18D31219314017900C8D121ADA
:101F4F000C74FFFBFAF9F81217DE900C8D121A348D
:021F5F0080D828
:101F6100906196E493FF3395E0FE90026775F0135C
:101F7100EF121A95EE75F013A42583F583121AB1A9
:101F8100E92407F9E43AFA7545FF75465775475B49
:101F91007548FF754957754ACA124B8A906196E494
:101FA10093FF3395E0FE90026775F013EF121A95D7
:101FB100EE75F013A42583F583121AB1E92407F90C
:101FC100E43AFA12000EEF2401F546E43EF545909D
:101FD1006195E493FF7B737D011269E7125CC49004
:101FE1000D27E0FEA3E0FF900D24E02FFF900D23CD
:101FF100E03EC313FEEF13FF900C4FEEF0A3EFF0A2
:0320010043B020C9
:10200400900C91121A40000107ACE4FFFEFDFC9015
:102014000C91121A18D31219314017900C91121AFC
:102024000C74FFFBFAF9F81217DE900C91121A34B3
:0220340080D852
:10203600906196E493FF3395E0FE90026775F01386
:10204600EF121A95EE75F013A42583F583121AB1D3
:10205600E92407F9E43AFA7545FF75465775475B73
:102066007548FF754957754ADF124B8A906196E4A9
:1020760093FF3395E0FE90026775F013EF121A9501
:10208600EE75F013A42583F583121AB1E92407F936
:10209600E43AFA12000EEF2401F546E43EF54590C7
:1020A6006195E493FF7B737D011269E7125CC4902E
:1020B6000D27E0FEA3E0FF900D24E02FFF900D23F7
:1020C600E03EC313FEEF13FF900C51EEF0A3EFF0CA
:1020D60043B010900C4BE0FEA3E0FFC3900C4EE023
:0B20E6009F900C4DE09E40030221C2C1
:1020F100900C95121A40000107ACE4FFFEFDFC9024
:102101000C95121A18D31219314017900C95121A06
:102111000C74FFFBFAF9F81217DE900C95121A34C1
:0221210080D864
:10212300906196E493FF3395E0FE90026775F01398
:10213300EF121A95EE75F013A42583F583121AB1E5
:10214300E92407F9E43AFA7545FF75465775475B85
:102153007548FF754957754AF3124B8A906196E4A7
:1021630093FF3395E0FE90026775F013EF121A9513
:10217300EE75F013A42583F583121AB1E92407F948
:10218300E43AFA12000EEF2401F546E43EF54590D9
:102193006195E493FF7B737D011269E7900C4DE039
:1021A300F53DA3E0F53E900C4BE0FFA3E0900C4D12
:1021B300CFF0A3EFF0900C4BE53DF0A3E53EF0909C
:1021C3000C4FE0FEA3E0FFC3900C52E09F900C5134
:0721D300E09E40030222AB75
:1021DA00900C99121A40000107ACE4FFFEFDFC9036
:1021EA000C99121A18D31219314017900C99121A15
:1021FA000C74FFFBFAF9F81217DE900C99121A34D4
:02220A0080D87A
:10220C00906196E493FF3395E0FE90026775F013AE
:10221C00EF121A95EE75F013A42583F583121AB1FB
:10222C00E92407F9E43AFA7545FF75465775475B9B
:10223C007548FF754958754A06124B8A906196E4A9
:10224C0093FF3395E0FE90026775F013EF121A9529
:10225C00EE75F013A42583F583121AB1E92407F95E
:10226C00E43AFA12000EEF2401F546E43EF54590EF
:10227C006195E493FF7B737D011269E7900C51E04B
:10228C00F53DA3E0F53E900C4FE0FFA3E0900C5120
:0F229C00CFF0A3EFF0900C4FE53DF0A3E53EF03F
:1022AB00900C9D121A40000107ACE4FFFEFDFC9060
:1022BB000C9D121A18D31219314017900C9D121A3B
:1022CB000C74FFFBFAF9F81217DE900C9D121A34FE
:0222DB0080D8A9
:1022DD00906196E493FF3395E0FE90026775F013DD
:1022ED00EF121A95EE75F013A42583F583121AB12A
:1022FD00E92407F9E43AFA7545FF75465775475BCA
:10230D007548FF754958754A19124B8A906196E4C4
:10231D0093FF3395E0FE90026775F013EF121A9557
:10232D00EE75F013A42583F583121AB1E92407F98C
:10233D00E43AFA12000EEF2401F546E43EF545901D
:0C234D006195E493FF7B737D011269E74A
:10235900900CA1121A40000107ACE4FFFEFDFC90AD
:102369000CA1121A18D31219314017900CA1121A84
:102379000C74FFFBFAF9F81217DE900CA1121A344B
:0223890080D8FA
:10238B00906196E493FF3395E0FE90026775F0132E
:10239B00EF121A95EE75F013A42583F583121AB17B
:1023AB00E92407F9E43AFA7545FF75465875471B5A
:1023BB00900C53E0F548A3E0F549900C55E0F54A35
:1023CB00A3E0F54B124B8A906196E493FF3395E0B3
:1023DB00FE90026775F013EF121A95EE75F013A4C9
:1023EB002583F583121AB1E92407F9E43AFA1200AE
:1023FB000EEF2401F546E43EF545906195E493FF1D
:07240B007B737D011269E7FC
:10241200900CA5121A40000107ACE4FFFEFDFC90EF
:102422000CA5121A18D31219314017900CA5121AC2
:102432000C74FFFBFAF9F81217DE900CA5121A348D
:0224420080D840
:10244400906196E493FF3395E0FE90026775F01374
:10245400EF121A95EE75F013A42583F583121AB1C1
:10246400E92407F9E43AFA7545FF75465875473685
:10247400900C47E0F548A3E0F549900C49E0F54A93
:10248400A3E0F54B124B8A906196E493FF3395E0F9
:10249400FE90026775F013EF121A95EE75F013A40F
:1024A4002583F583121AB1E92407F9E43AFA1200F4
:1024B4000EEF2401F546E43EF545906195E493FF63
:0724C4007B737D011269E743
:1024CB00900CA9121A40000107ACE4FFFEFDFC9032
:1024DB000CA9121A18D31219314017900CA9121A01
:1024EB000C74FFFBFAF9F81217DE900CA9121A34D0
:0224FB0080D887
:1024FD00906196E493FF3395E0FE90026775F013BB
:10250D00EF121A95EE75F013A42583F583121AB107
:10251D00E92407F9E43AFA7545FF754658754755AC
:10252D00900C4BE0F548A3E0F549900C4DE0F54AD1
:10253D00A3E0F54B124B8A906196E493FF3395E03F
:10254D00FE90026775F013EF121A95EE75F013A455
:10255D002583F583121AB1E92407F9E43AFA12003A
:10256D000EEF2401F546E43EF545906195E493FFA9
:07257D007B737D011269E789
:10258400900CAD121A40000107ACE4FFFEFDFC9074
:102594000CAD121A18D31219314017900CAD121A3F
:1025A4000C74FFFBFAF9F81217DE900CAD121A3412
:0225B40080D8CD
:1025B600906196E493FF3395E0FE90026775F01301
:1025C600EF121A95EE75F013A42583F583121AB14E
:1025D600E92407F9E43AFA7545FF754658754765E3
:1025E600900C4FE0F548A3E0F549900C51E0F54A10
:1025F600A3E0F54B124B8A906196E493FF3395E086
:10260600FE90026775F013EF121A95EE75F013A49B
:102616002583F583121AB1E92407F9E43AFA120080
:102626000EEF2401F546E43EF545906195E493FFEF
:072636007B737D011269E7CF
:10263D00900CB1121A40000107ACE4FFFEFDFC90B6
:10264D000CB1121A18D31219314017900CB1121A7D
:10265D000C74FFFBFAF9F81217DE900CB1121A3454
:02266D0080D813
:10266F00906196E493FF3395E0FE90026775F01347
:10267F00EF121A95EE75F013A42583F583121AB194
:10268F00E92407F9E43AFA7545FF75465775475B34
:10269F007548FF754958754A75124B8A906196E4D3
:1026AF0093FF3395E0FE90026775F013EF121A95C2
:1026BF00EE75F013A42583F583121AB1E92407F9F7
:1026CF00E43AFA12000EEF2401F546E43EF5459088
:1026DF006195E493FF7B737D011269E7127D467B61
:0C26EF00017A0B79EE7D717C0012785AA4
:1026FB00900CB5121A40000107ACE4FFFEFDFC90F4
:10270B000CB5121A18D31219314017900CB5121AB6
:10271B000C74FFFBFAF9F81217DE900CB5121A3491
:02272B0080D854
:10272D00906196E493FF3395E0FE90026775F01388
:10273D00EF121A95EE75F013A42583F583121AB1D5
:10274D00E92407F9E43AFA7545FF75465775475B75
:10275D007548FF754958754A98124B8A906196E4F1
:10276D0093FF3395E0FE90026775F013EF121A9503
:10277D00EE75F013A42583F583121AB1E92407F938
:10278D00E43AFA12000EEF2401F546E43EF54590C9
:10279D006195E493FF7B737D011269E743B00853A4
:1027AD00B0BF53B0DF53B0EFE4900004F0127200ED
:0327BD00853C84D4
:0127C00022F6
:1038070085843C78A57C0C7D017BFF7A5A79047E00
:0C381700007F081215939000047401F06B
:10382300900C85121A40000107ACE4FFFEFDFC90EA
:103833000C85121A18D31219314017900C85121ADD
:103843000C74FFFBFAF9F81217DE900C85121A3488
:0238530080D81B
:10385500906196E493FF3395E0FE90026775F0134F
:10386500EF121A95EE75F013A42583F583121AB19C
:10387500E92407F9E43AFA7545FF75465775475B3C
:103885007548FF754958754AAE124B8A906196E4A2
:1038950093FF3395E0FE90026775F013EF121A95CA
:1038A500EE75F013A42583F583121AB1E92407F9FF
:1038B500E43AFA12000EEF2401F546E43EF5459090
:1038C5006195E493FF7B737D011269E7E4900288BB
:0338D500F0A3F06D
:1038D80075840FE5E830E019C3900289E0940990F7
:1038E8000288E094004003023E19E4900288F0A3A5
:0C38F800F0900281E060D9E4F085D83D3A
:10390400900C89121A400006DDD0E4FFFEFDFC9005
:103914000C89121A18D31219314017900C89121AF3
:103924000C74FFFBFAF9F81217DE900C89121A34A2
:0239340080D839
:10393600906196E493FF3395E0FE90026775F0136D
:10394600EF121A95EE75F013A42583F583121AB1BA
:10395600E92407F9E43AFA7545FF75465775475B5A
:103966007548FF754958754A19124B8A906196E455
:1039760093FF3395E0FE90026775F013EF121A95E8
:10398600EE75F013A42583F583121AB1E92407F91D
:10399600E43AFA12000EEF2401F546E43EF54590AE
:0C39A6006195E493FF7B737D011269E7DB
:1039B200900C8D121A40000107ACE4FFFEFDFC9052
:1039C2000C8D121A18D31219314017900C8D121A3D
:1039D2000C74FFFBFAF9F81217DE900C8D121A34F0
:0239E20080D88B
:1039E4007545FF7546587547C27B017A0C79AD124F
:1039F4004B8A753E00753F067B017A0C79AD120047
:103A04000E74AD2FF9740C3EFA7B01C003C002C0E2
:103A14000174A5253FF582740C353EF583E0553DD0
:103A24007BFF60067A5879CA80047A5879CC8B4532
:103A34008A468947D001D002D003124B8AE53F154C
:103A44003F7002153EC3E53E6480948050AA9061A5
:103A540096E493FF3395E0FE90026775F013EF123E
:103A64001A95EE75F013A42583F583121AB1E9248F
:103A740007F9E43AFA7545FF75465775475B75488B
:103A84000175490C754AAD124B8A906196E493FF17
:103A94003395E0FE90026775F013EF121A95EE75F8
:103AA400F013A42583F583121AB1E92407F9E43A43
:103AB400FA12000EEF2401F546E43EF545906195B7
:0A3AC400E493FF7B737D011269E7B4
:103ACE00900C91121A40000107ACE4FFFEFDFC9031
:103ADE000C91121A18D31219314017900C91121A18
:103AEE000C74FFFBFAF9F81217DE900C91121A34CF
:023AFE0080D86E
:103B00007545FF7546587547CE900014E0F548A3FB
:103B1000E0F549A3E0F54AA3E0F54B7B017A0C7987
:103B2000AD124B8A906196E493FF3395E0FE9002CC
:103B30006775F013EF121A95EE75F013A42583F54F
:103B400083121AB1E92407F9E43AFA7545FF75467C
:103B50005775475B75480175490C754AAD124B8A1C
:103B6000906196E493FF3395E0FE90026775F01341
:103B7000EF121A95EE75F013A42583F583121AB18E
:103B8000E92407F9E43AFA12000EEF2401F546E4BD
:103B90003EF545906195E493FF7B737D011269E7E3
:103BA000900C95121A40000107ACE4FFFEFDFC905A
:103BB0000C95121A18D31219314017900C95121A3D
:103BC0000C74FFFBFAF9F81217DE900C95121A34F8
:023BD00080D89B
:103BD2007545FF7546587547DB900018E0F548A318
:103BE200E0F549A3E0F54AA3E0F54B7B017A0C79B5
:103BF200AD124B8A906196E493FF3395E0FE9002FA
:103C02006775F013EF121A95EE75F013A42583F57C
:103C120083121AB1E92407F9E43AFA7545FF7546A9
:103C22005775475B75480175490C754AAD124B8A49
:103C3200906196E493FF3395E0FE90026775F0136E
:103C4200EF121A95EE75F013A42583F583121AB1BB
:103C5200E92407F9E43AFA12000EEF2401F546E4EA
:103C62003EF545906195E493FF7B737D011269E710
:103C7200900C99121A40000107ACE4FFFEFDFC9083
:103C82000C99121A18D31219314017900C99121A62
:103C92000C74FFFBFAF9F81217DE900C99121A3421
:023CA20080D8C8
:103CA4007545FF7546587547E990001CE0F548A333
:103CB400E0F549A3E0F54AA3E0F54B7B017A0C79E2
:103CC400AD124B8A906196E493FF3395E0FE900227
:103CD4006775F013EF121A95EE75F013A42583F5AA
:103CE40083121AB1E92407F9E43AFA7545FF7546D7
:103CF4005775475B75480175490C754AAD124B8A77
:103D0400906196E493FF3395E0FE90026775F0139B
:103D1400EF121A95EE75F013A42583F583121AB1E8
:103D2400E92407F9E43AFA12000EEF2401F546E417
:103D34003EF545906195E493FF7B737D011269E73D
:103D4400900C9D121A40000107ACE4FFFEFDFC90AC
:103D54000C9D121A18D31219314017900C9D121A87
:103D64000C74FFFBFAF9F81217DE900C9D121A344A
:023D740080D8F5
:103D76007545FF7546587547F8900020E0F548A34D
:103D8600E0F549A3E0F54AA3E0F54B7B017A0C790F
:103D9600AD124B8A906196E493FF3395E0FE900254
:103DA6006775F013EF121A95EE75F013A42583F5D7
:103DB60083121AB1E92407F9E43AFA7545FF754604
:103DC6005775475B75480175490C754AAD124B8AA4
:103DD600906196E493FF3395E0FE90026775F013C9
:103DE600EF121A95EE75F013A42583F583121AB116
:103DF600E92407F9E43AFA12000EEF2401F546E445
:103E06003EF545906195E493FF7B737D011269E76A
:0A3E16000238D8E4900288F0A3F00F
:103E2000900CA1121A40000107ACE4FFFEFDFC90CB
:103E30000CA1121A18D31219314017900CA1121AA2
:103E40000C74FFFBFAF9F81217DE900CA1121A3469
:023E500080D818
:103E5200906196E493FF3395E0FE90026775F0134C
:103E6200EF121A95EE75F013A42583F583121AB199
:103E7200E92407F9E43AFA7545FF75465775475B39
:103E82007548FF754959754A07124B8A906196E445
:103E920093FF3395E0FE90026775F013EF121A95C7
:103EA200EE75F013A42583F583121AB1E92407F9FC
:103EB200E43AFA12000EEF2401F546E43EF545908D
:103EC2006195E493FF7B737D011269E743B0085368
:103ED200B0BF53B0DF53B0EFE4900004F0853C84F0
:013EE20022BD
:105A140085843CE4F53FF54078917C0C7D017BFF67
:0A5A24007A5A790CFE7F08121593E0
:105A2E00900C85121A40000107ACE4FFFEFDFC90BD
:105A3E000C85121A18D31219314017900C85121AB0
:105A4E000C74FFFBFAF9F81217DE900C85121A345B
:025A5E0080D8EE
:105A6000906196E493FF3395E0FE90026775F01322
:105A7000EF121A95EE75F013A42583F583121AB16F
:105A8000E92407F9E43AFA7545FF75465775475B0F
:105A90007548FF754959754A1B124B8A906196E407
:105AA00093FF3395E0FE90026775F013EF121A959D
:105AB000EE75F013A42583F583121AB1E92407F9D2
:105AC000E43AFA12000EEF2401F546E43EF5459063
:0C5AD0006195E493FF7B737D011269E790
:105ADC00900C89121A40000107ACE4FFFEFDFC900B
:105AEC000C89121A18D31219314017900C89121AFA
:105AFC000C74FFFBFAF9F81217DE900C89121A34A9
:025B0C0080D83F
:105B0E00E4900288F0A3F0900255E024A0F53E90B8
:105B1E000254E03400F53D75840FE5E830E019C31A
:105B2E00900289E09409900288E094004003025BA1
:105B3E00FFE4900288F0A3F0900254E0FEA3E0FF91
:105B4E00B53ED4EEB53DD0EF24A0F53EE43EF53D96
:105B5E00906196E493FF3395E0FE90026775F01323
:105B6E00EF121A95EE75F013A42583F583121AB170
:105B7E00E92407F9E43AFA7545FF75465975473039
:105B8E00853F48854049124B8A906196E493FF33D6
:105B9E0095E0FE90026775F013EF121A95EE75F010
:105BAE0013A42583F583121AB1E92407F9E43AFA0E
:105BBE0012000EEF2401F546E43EF545906195E4A2
:105BCE0093FF7B737D011269E774912540F5827412
:105BDE000C353FF583E0F5C80540E5407002053F02
:105BEE00FFAE3F7C007D071216CD8C3F8D40025BD1
:085BFE0025E4900288F0A3F0F9
:105C0600900C8D121A40000107ACE4FFFEFDFC90DB
:105C16000C8D121A18D31219314017900C8D121AC6
:105C26000C74FFFBFAF9F81217DE900C8D121A3479
:025C360080D814
:105C3800906196E493FF3395E0FE90026775F01348
:105C4800EF121A95EE75F013A42583F583121AB195
:105C5800E92407F9E43AFA7545FF75465775475B35
:105C68007548FF754959754A37124B8A906196E411
:105C780093FF3395E0FE90026775F013EF121A95C3
:105C8800EE75F013A42583F583121AB1E92407F9F8
:105C9800E43AFA12000EEF2401F546E43EF5459089
:105CA8006195E493FF7B737D011269E743B0085364
:0B5CB800B0BF53B0DF53B0EF853C8459
:015CC30022BE
:105CC400E4F53FF540E4F53FF540900281E060FAE9
:105CD400900014E0FEA3E0FF900D25EEF0A3EFF09A
:105CE400900D21EEF0A3EFF0900016E0FEA3E0FF8C
:105CF400900D27EEF0A3EFF0900D23EEF0A3EFF05C
:105D0400E4900281F0C3E5409428E53F64809480E8
:105D14004003025EA3900281E060EAAE3FAF407CA4
:0D5D2400007D0A1216CDED4C6003025E03F7
:105D3100900CB9121A40000107ACE4FFFEFDFC9083
:105D41000CB9121A18D31219314017900CB9121A42
:105D51000C74FFFBFAF9F81217DE900CB9121A3421
:025D610080D8E8
:105D63007545FF75465975474C900014E0F548A3F7
:105D7300E0F549A3E0F54AA3E0F54B7B017A0C7902
:105D8300BD124B8A906196E493FF3395E0FE900237
:105D93006775F013EF121A95EE75F013A42583F5CA
:105DA30083121AB1E92407F9E43AFA7545FF7546F7
:105DB3005775475B75480175490C754ABD124B8A87
:105DC300906196E493FF3395E0FE90026775F013BC
:105DD300EF121A95EE75F013A42583F583121AB109
:105DE300E92407F9E43AFA12000EEF2401F546E438
:105DF3003EF545906195E493FF7B737D011269E75E
:105E0300900014E0FEA3E0FF900D21E0FCA3E0FD71
:105E1300C39FEC9E5006AE04AF058000900D21EEAB
:105E2300F0A3EFF0900016E0FEA3E0FF900D23E057
:105E3300FCA3E0FDC39FEC9E5006AE04AF058000BB
:105E4300900D23EEF0A3EFF0900014E0FEA3E0FF2B
:105E5300900D25E0FCA3E0FDD39FEC9E4006AE042D
:105E6300AF058000900D25EEF0A3EFF0900016E053
:105E7300FEA3E0FF900D27E0FCA3E0FDD39FEC9E83
:105E83004006AE04AF058000900D27EEF0A3EFF0BF
:105E9300E4900281F00540E5407002053F025D0990
:105EA300900D23E0FEA3E0FF900D27E0FCA3E0FDAF
:105EB300C39FFFEC9EFEC3940040028016900D2307
:105EC300E0FEA3E0FFC3ED9FFFEC9EFEC3E49FFF54
:105ED300E49EFED3EF9404EE94004003025CC99069
:105EE3000D21E0FEA3E0FF900D25E0FCA3E0FDC340
:105EF3009FFFEC9EFEC3940040028016900D21E0AC
:105F0300FEA3E0FFC3ED9FFFEC9EFEC3E49FFFE40F
:0E5F13009EFED3EF9404EE94004003025CC99E
:015F2100225D
:1045A100E4F53FF540F584900C55E0A3E0F5FD906E
:1045B1000C55E0A3E0F5FE900C53E0A3E0F5FB9071
:1045C1000C53E0A3E0F5FC900281E070030248BCCB
:1045D100E4F0E53F700F900014E0FFA3E0900C477A
:1045E100CFF0A3EFF0E540700F900016E0FFA3E0DD
:0845F100900C49CFF0A3EFF09C
:1045F900900CB9121A40000107ACE4FFFEFDFC90D3
:104609000CB9121A18D31219314017900CB9121A91
:104619000C74FFFBFAF9F81217DE900CB9121A3470
:0246290080D837
:10462B00906196E493FF3395E0FE90026775F0136B
:10463B00EF121A95EE75F013A42583F583121AB1B8
:10464B00E92407F9E43AFA7545FF7546597547525F
:10465B00900C53E0F548A3E0F549900C55E0F54A72
:10466B00A3E0F54B124B8A906196E493FF3395E0F0
:10467B00FE90026775F013EF121A95EE75F013A406
:10468B002583F583121AB1E92407F9E43AFA1200EB
:10469B000EEF2401F546E43EF545906195E493FF5A
:1046AB007B737D011269E77545FF75465975475D4B
:1046BB00900C47E0F548A3E0F549900C49E0F54A2A
:0D46CB00A3E0F54B7B017A0C79CD124B8AF0
:1046D800900CBD121A40000107ACE4FFFEFDFC90EF
:1046E8000CBD121A18D31219314017900CBD121AAA
:1046F8000C74FFFBFAF9F81217DE900CBD121A348D
:0247080080D857
:10470A00906196E493FF3395E0FE90026775F0138B
:10471A00EF121A95EE75F013A42583F583121AB1D8
:10472A00E92407F9E43AFA7545FF75465775475B78
:10473A0075480175490C754ACD124B8A906196E409
:10474A0093FF3395E0FE90026775F013EF121A9506
:10475A00EE75F013A42583F583121AB1E92407F93B
:10476A00E43AFA12000EEF2401F546E43EF54590CC
:10477A006195E493FF7B737D011269E7E53F704B16
:10478A00900C47E0FEA3E02400EE34F8C364809462
:10479A00804010900C47E0FEA3E02400FFEE34F8BE
:1047AA00FE8015900C47E0FEA3E02400FFEE34F8EB
:1047BA00FEC3E49FFFE49EFED3EF9414EE6480945C
:1047CA008050047F0180027F008F3FE53F7048C31D
:1047DA00900C47E094085015900C53E07002A3E047
:1047EA0070028014900C5374FFF5F08017900C53EC
:1047FA00E07003A3E0F47005753F01800A900C5342
:10480A00E475F001121703900C53E0A3E0F5FB9056
:10481A000C53E0A3E0F5FCE540704B900C49E0FE38
:10482A00A3E02400EE34F8C3648094804010900C16
:10483A0049E0FEA3E02400FFEE34F8FE8015900C58
:10484A0049E0FEA3E02400FFEE34F8FEC3E49FFF34
:10485A00E49EFED3EF9414EE6480948050047F01AA
:10486A0080027F008F40E5407048C3900C49E09475
:10487A00085015900C55E07002A3E0700280149065
:10488A000C5574FFF5F08017900C55E07003A3E007
:10489A00F47005754001800A900C55E475F0011218
:1048AA001703900C55E0A3E0F5FD900C55E0A3E04A
:1048BA00F5FEE53F70030245C8E54070030245C8AE
:1048CA00900CC1121A40000107ACE4FFFEFDFC90F7
:1048DA000CC1121A18D31219314017900CC1121AAE
:1048EA000C74FFFBFAF9F81217DE900CC1121A3495
:0248FA0080D864
:1048FC00906196E493FF3395E0FE90026775F01398
:10490C00EF121A95EE75F013A42583F583121AB1E4
:10491C00E92407F9E43AFA7545FF75465775475B84
:10492C007548FF754959754A68124B8A906196E42F
:10493C0093FF3395E0FE90026775F013EF121A9512
:10494C00EE75F013A42583F583121AB1E92407F947
:10495C00E43AFA12000EEF2401F546E43EF54590D8
:10496C006195E493FF7B737D011269E7900281E00E
:10497C0060FAE4900281F0900014E0FFA3E0900C48
:10498C0047CFF0A3EFF0900016E0FFA3E0900C49A6
:05499C00CFF0A3EFF0D5
:1049A100900CC5121A40000107ACE4FFFEFDFC901B
:1049B1000CC5121A18D31219314017900CC5121ACE
:1049C1000C74FFFBFAF9F81217DE900CC5121A34B9
:0249D10080D88C
:1049D300906196E493FF3395E0FE90026775F013C0
:1049E300EF121A95EE75F013A42583F583121AB10D
:1049F300E92407F9E43AFA7545FF7546597547788E
:104A0300900C53E0F548A3E0F549900C55E0F54AC6
:104A1300A3E0F54B124B8A906196E493FF3395E044
:104A2300FE90026775F013EF121A95EE75F013A45A
:104A33002583F583121AB1E92407F9E43AFA12003F
:104A43000EEF2401F546E43EF545906195E493FFAE
:104A53007B737D011269E77545FF75465975478973
:104A6300900C47E0F548A3E0F549900C49E0F54A7E
:0D4A7300A3E0F54B7B017A0C79CD124B8A44
:104A8000900CC9121A40000107ACE4FFFEFDFC9037
:104A90000CC9121A18D31219314017900CC9121AE6
:104AA0000C74FFFBFAF9F81217DE900CC9121A34D5
:024AB00080D8AC
:104AB200906196E493FF3395E0FE90026775F013E0
:104AC200EF121A95EE75F013A42583F583121AB12D
:104AD200E92407F9E43AFA7545FF75465775475BCD
:104AE20075480175490C754ACD124B8A906196E45E
:104AF20093FF3395E0FE90026775F013EF121A955B
:104B0200EE75F013A42583F583121AB1E92407F98F
:104B1200E43AFA12000EEF2401F546E43EF5459020
:0C4B22006195E493FF7B737D010269E75D
:1053F00085843CE4F53DF53EF54190619693FF339D
:1054000095E0FE90026775F013EF121A95EE75F0B5
:1054100013A42583F583121AB1E92407F9E43AFAB3
:105420007545FF75465775475B7548FF7549597552
:105430004A9A124B8A906196E493FF3395E0FE906E
:10544000026775F013EF121A95EE75F013A4258319
:10545000F583121AB1E92407F9E43AFA12000EEFC3
:105460002401F546E43EF545906195E493FF7B7396
:105470007D011269E7E4900288F0A3F0F53FF54062
:10548000D390090FE0954090090EE0953F4023AE80
:105490003FAF407C017D001216CD743C2540F58263
:1054A0007400353FF583EDF00540E5407002053F9F
:1054B00080CE75840FE5E830E019C3900289E0944E
:1054C00009900288E0940040030256A2E49002880A
:1054D000F0A3F090090EE0FCA3E0FD7B017A0079D7
:1054E0003C853D4D853E4EE4FFFE12755390090EFE
:1054F000E0FEA3E0FF7B017A00793C853D47853ED5
:10550000481274B8E4F53FF540D390090FE0954098
:1055100090090EE0953F402DAE3FAF407C017D00ED
:105520001216CD743C2540F5827400353FF583E0BA
:105530006D7001EC6005754101800A0540E5407021
:1055400002053F80C4E54170030255CE906196E4A8
:1055500093FF3395E0FE90026775F013EF121A95F2
:10556000EE75F013A42583F583121AB1E92407F927
:10557000E43AFA7545FF7546597547A9853D488552
:105580003E49853F4A85404B124B8A906196E49391
:10559000FF3395E0FE90026775F013EF121A95EE57
:1055A00075F013A42583F583121AB1E92407F9E4F1
:1055B0003AFA12000EEF2401F546E43EF5459061FB
:0E55C00095E493FF7B737D011269E70256A20A
:1055CE00900C85121A40000107ACE4FFFEFDFC9022
:1055DE000C85121A18D31219314017900C85121A15
:1055EE000C74FFFBFAF9F81217DE900C85121A34C0
:0255FE0080D853
:10560000906196E493FF3395E0FE90026775F01386
:10561000EF121A95EE75F013A42583F583121AB1D3
:10562000E92407F9E43AFA7545FF7546597547DBF1
:10563000853D48853E49124B8A906196E493FF333D
:1056400095E0FE90026775F013EF121A95EE75F073
:1056500013A42583F583121AB1E92407F9E43AFA71
:1056600012000EEF2401F546E43EF545906195E405
:1056700093FF7B737D011269E7AF3EAE3D127B78ED
:10568000D3900BE9E0953E900BE8E0953D5008E49F
:10569000F53DF53E0254B2053EE53E7002053D0281
:0956A00054B2E4900288F0A3F07A
:1056A900900C89121A40000107ACE4FFFEFDFC9042
:1056B9000C89121A18D31219314017900C89121A31
:1056C9000C74FFFBFAF9F81217DE900C89121A34E0
:0256D90080D877
:1056DB00906196E493FF3395E0FE90026775F013AB
:1056EB00EF121A95EE75F013A42583F583121AB1F8
:1056FB00E92407F9E43AFA7545FF75465775475B98
:10570B007548FF754959754AEC124B8A906196E4BE
:10571B0093FF3395E0FE90026775F013EF121A9525
:10572B00EE75F013A42583F583121AB1E92407F95A
:10573B00E43AFA12000EEF2401F546E43EF54590EB
:0F574B006195E493FF7B737D011269E7853C84D0
:01575A00222C
:10FE00008E3E8F3F8E3E8F3FE4F540F541A2AF33EB
:10FE1000F542C2AFE4F58443B701758F03C3E540F3
:10FE200094FC50168541828540837488F0E4254116
:10FE3000F54174043540F54080E3E4F58FF540F575
:10FE400041F545F54675840FE5465403700363B0EC
:10FE50004012FFBB8F47E54730E7F653F8FDE4F566
:10FE600048F5490549E54970020548644045487030
:10FE7000F27FD212FFAAE546AE457806CEC313CE76
:10FE800013D8F9FF12FFAA12FFA2E4FF12FFAAE49F
:10FE9000FF12FFAAE4FF12FFAAE4FF12FFAAE4FF89
:10FEA00012FFAAE4F543F544E4FF12FFAA743C25CF
:10FEB00044F58274003543F583EFF00544E5447062
:10FEC000020543C3E543940240DE43F802E4F584AF
:10FED000758F01F543F544743C2544F58274003573
:10FEE00043F583E0FF0541E541AC40700205401455
:10FEF000F5828C83EFF00544E54470020543B400BD
:10FF0000D6E543B402D1E4F58F0546E54670020517
:0AFF100045C3947FE54594005003BB
:10FF1A0002FE45E4F58F53B7FEE54224FF92AFE4B3
:10FF2A00F5D075840FF545F546C3E545942050573D
:10FF3A00E546543F700363B02012FFBB8F47E54785
:10FF4A0030E7F653F8FDE4F548F5490549E5497007
:10FF5A000205486440454870F27F5012FFAAE54600
:10FF6A00AE457806CEC313CE13D8F9FF12FFAA12F4
:10FF7A00FFA2E4FF12FFAA43F80274082546F546D9
:10FF8A00E43545F54580A212FFBB8F47E54730E7C8
:08FF9A00F6E4F58443EF0122B7
:10FFA200AF46EF25E025E0FFAE84E4F5848F9B3079
:09FFB200FFFDC2FFAF9B8E84220B
:10FFBB0053F8FDE4F54AF54B054BE54B7002054A4A
:10FFCB006440454A70F27FD712FFAAE4FF12FFAAE2
:04FFDB0043F80222C3
:1069CD00906195E493FFAB2EAA2FA9309000011290
:0A69DD0015D2FDE4F545F5467B06F2
:0469E7008F428B440C
:1069EB007547FFE4F548F549ED90619593F54A74C9
:1069FB00EA2DF582E4340BF5837464F0906195E431
:106A0B0093B54219E54464066013E5446415600DC3
:106A1B0074E42DF582E4340BF583E544F0E54A7517
:106A2B00F013A42467F582E43402F583121AB174CF
:106A3B0016121632E54A75F013A42467F582E43476
:106A4B0002F583121AB1900001E542121644E54A91
:106A5B0075F013A42467F582E43402F583121AB19E
:106A6B00900002ED12164474022546F546E43545B6
:106A7B00F545FFE54A75F013A42467F582E434026B
:106A8B00F583121AB1900003EF121644E54A75F024
:106A9B0013A42467F582E43402F583121AB1900033
:106AAB0004E546121644E54A75F013A42467F582F3
:106ABB00E43402F583121AB1900005E54412164432
:106ACB00E4FEFFE54A75F013A42467F582E4340273
:106ADB00F583121AB18F828E831215D262470FBFC4
:106AEB0000010EEF64064E70DAE54A75F013A4242C
:106AFB0067F582E43402F583121AB1900006E5477C
:106B0B0012164474FE2546F54674FF3545F545E5EA
:106B1B004A75F013A42467F582E43402F583121A44
:106B2B00B1E92407F9E43AFAAD46AC4512792D8E5A
:106B3B00488F49EEFFE54A75F013A42467F582E40C
:106B4B003402F583121AB10546E546700205452459
:106B5B0006F582E43545F583EF121644E54A75F0E8
:106B6B0013A42467F582E43402F583121AB10546A7
:106B7B00E546700205452406F582E43545F583E5C7
:106B8B0049121644E54A75F013A4245AF9740235D8
:106B9B00F0FA7B01E5462407FDE43545FC127988C4
:096BAB00E5462407FFE43545FE30
:016BB40022BE
:083EE3008F2D8B2E8A2F8930F0
:103EEB00E4900C81F0A3F09000031215D2FE900029
:103EFB00041215D27C002400FFEC3ECF24FECF34FD
:103F0B00FFFE900C83F0FCA3EFF0FDE92407F9E42E
:103F1B003AFA127BC3900C81EEF0A3EFF04E603AAD
:103F2B00AB2EAA2FA9309000051215D2FF64157085
:103F3B0003024598EF640670030245989000011246
:103F4B0015D224EAF582E4340BF5837464F0900007
:0A3F5B00011215D2FF7D040242E2BC
:103F6500AB2EAA2FA9309000021215D2FF906195B1
:103F7500E4936F700302401FEFF4700302401FEFDC
:103F850093FF3395E0FE90026775F013EF121A95D3
:103F9500EE75F013A42583F583121AB1E92407F908
:103FA500E43A8B36F5378938E5302407F9E4352FBF
:103FB500852E33F5348935E4F531F532D3900C840B
:103FC500E09532900C83E0953140247833E475F028
:103FD50001121AA11215B9FF7836E475F001121A0B
:103FE500A1EF1216320532E53270D1053180CDAB25
:103FF5002EAA2FA9309000011215D2FF90000212AF
:1040050015D2FD9000051215D2FB900C83E0F54505
:10401500A3E0F5461269E7024598AB2EAA2FA93011
:104025009000051215D2121B4C40680640A31040A3
:104035008C15432730435131435732435D33436336
:1040450034428A41428A42437A5043CC5141C57039
:1040550042297140D09044B791436993415F9800DC
:104065000045649000011215D224E4F582E4340B76
:10407500F583AB2EAA2FA9309000011215D224E4A6
:10408500F582E4340B8010AB2EAA2FA9301215B996
:1040950024E5F582E4340BF583E4F0024551900BF9
:1040A500EAE0FFC394044006EFD3941D4004EFB447
:1040B500E305127ADE80031269CD900C81EEF0A340
:0B40C500EFF0AB2EAA2FA930024551EE
:1040D000900BEAE0FFC394044006EFD3941D400424
:1040E000EFB4E305127ADE8065AB2EAA2FA93090DB
:1040F00000071215D2FE9000081215D27C00240091
:10410000F53AEC3EF539E52D75F013A42467F582F8
:10411000E43402F583121AB1E92407F9E43AFA907B
:10412000090EE0FEA3E0FF853947853A481274B8CE
:10413000906195E493FFAB2EAA2FA9309000011255
:1041400015D2FD90090EE0F545A3E01269E3900C4D
:0F41500081EEF0A3EFF0AB2EAA2FA9300245515C
:10415F00900BEAE0FFC394044006EFD3941D400494
:10416F00EFB4E305127ADE803CAB2EAA2FA9309074
:10417F0000071215D2FE9000081215D27C00240001
:10418F00F53AEC3EF53990090EE0FCA3E0FDE92489
:10419F0009F9E43AFA85394D853A4E7F027E0012CD
:1041AF0075531269CD900C81EEF0A3EFF0AB2EAAF0
:0641BF002FA9300245515A
:1041C500900BEAE0FFC394044006EFD3941D40042E
:1041D500EFB4E305127ADE803AE52D75F013A424D9
:1041E50067F582E43402F583121AB1E92407F9E48C
:1041F5003AFA127A39906195E493FFAB2EAA2FA96A
:10420500309000011215D2FD7545007546807B067C
:104215001269E7900C81EEF0A3EFF0AB2EAA2FA95F
:1042250030024551900BEAE0FFC394044006EFD3FA
:10423500941D4004EFB4E305127ADE8037127D4603
:10424500AB2EE5302407F9E4352FFA900C83E0FE18
:10425500A3E0FFC39480EE94005006AC06AD078042
:10426500047C007D8012785A7B017A0B79EE127AF4
:10427500391269CD900C81EEF0A3EFF0AB2EAA2F89
:05428500A930024551C3
:10428A00900BEAE0FFF539AB2EAA2FA93090000572
:10429A001215D27C00B441047D0080027D058C3A5F
:1042AA008D3B9000011215D224EAF582E4340BF515
:1042BA0083E4F0EFC394044009900BEAE0D3941D21
:1042CA004007900BEAE0B4E31DAB2EAA2FA9309069
:1042DA0000011215D2FF7D20127AED900C81EEF0CA
:1042EA00A3EFF0024598900BEA74E3F01269CD90BF
:1042FA000C81EEF0A3EFF0E4FFFE127B78900BE95D
:10430A00E024FFFD900BE8E034FFFC7B01AF3BAEFD
:0D431A003A1277EA900BEAE539F002459877
:10432700AB2EAA2FA9309000011215D224EAF582EC
:10433700E4340BF583E4F012007E8F39E53930E77A
:0A434700F6E4F58443EF0102459807
:10435100121C47024598123807024598125A140256
:1043610045981253F002459853B0F753B0BF53B07C
:10437100DF53B0EF53F87F80FE900BEAE064F070FA
:1043810027753F01754000754105AB2EAA2FA93055
:1043910012736C1269CD900C81EEF0A3EFF0056FF2
:1043A100E56F701E056E801AAB2EAA2FA930900002
:1043B100011215D2FF7D08127AED900C81EEF0A367
:1043C100EFF0AB2EAA2FA930024551900BEAE0B4D1
:1043D100F114AB2EAA2FA9309000071215D2FF902D
:1043E1000005E06F6072AB2EAA2FA9309000011278
:1043F10015D2FF7D08127AED900C81EEF0A3EFF05B
:10440100AB2EAA2FA9309000011215D224EAF58211
:07441100E4340BF583E4F035
:10441800900C79121A400000AFC8E4FFFEFDFC9032
:104428000C79121A18D31219314017900C79121AF4
:104438000C74FFFBFAF9F81217DE900C79121A3493
:0244480080D81A
:10444A009002B474F2F0900C707401F00245981264
:10445A0069CD900C81EEF0A3EFF0AB2EAA2FA93014
:10446A009000011215D224EAF582E4340BF583E4B4
:01447A00F051
:10447B00900C7D121A400000AFC8E4FFFEFDFC90CB
:10448B000C7D121A18D31219314017900C7D121A89
:10449B000C74FFFBFAF9F81217DE900C7D121A342C
:0244AB0080D8B7
:1044AD00AF6FAE6E127CE0024598900C707401F007
:1044BD00AB2EAA2FA9309000071215D29002B4F09E
:1044CD009000081215D2540F900BA4F09000091211
:1044DD0015D2900C6FF0E4F531F532AB2EAA2FA961
:1044ED0030E532240AFFE435318F82F5831215D27F
:1044FD00FF74562532F58274023531F583EFF005E0
:10450D0032E532700205316404453170CEAB2EAA0E
:10451D002FA93090000E1215D2900287F090000F47
:10452D0012175AFF900282E5F0F0A3EFF09061951B
:10453D00E493FF1269D9900C81EEF0A3EFF0AB2E4E
:10454D00AA2FA9309000011215D224EAF582E43485
:10455D000BF583E4F08034AB2EAA2FA93090000127
:10456D001215D224EAF582E4340BF5837464F090CD
:10457D0000011215D2FF7D02127AED900C81EEF042
:0B458D00A3EFF074FF900C81F0A3F08E
:08459800900C81E0FEA3E0FF9E
:0145A00022F8
:0A7BC3008B3C8A3D893E8C3F8D40CB
:107BCD0012792D8E418F42AB3CAA3DA93E85408254
:107BDD00853F831215D27F00FEE5402401FDE4357B
:107BED003F8D82F5831215D22FFFE43EFEE542B59F
:0F7BFD000709E541B50604E4FEFF227EFF7FFF86
:017C0C002255
:0F7ADE00AB2EAA2FA9309000011215D2FF7D20E8
:107AED00AE07EE90619593FB3395E0FA90026775C2
:107AFD00F013EB121A95EA75F013A42583F5831292
:107B0D001AB1900007ED121644906195E493FFAD04
:107B1D00067545007546017B151269E7E4FEFF22E7
:06736C008B3C8A3D893EC6
:10737200E4F542F5439000031215D2FE9000041288
:1073820015D2FDEEF544EDF545E4F542F543E5454C
:1073920024FEFFE54434FFFEC364809482500280E1
:1073A200047E027F00C3E5439FEE6480F8E54264F9
:1073B20080985048AB3FAA40A941C003C002C00117
:1073C2001215B9FFAB3CAA3DA93EE5432407FDE4F3
:1073D20035428D82F5831215D2FE743C2543F58227
:1073E20074003542F583EEF06FD001D002D0031263
:1073F20016320543E5437096054280927E00E56FA2
:107402005401FF90090EE0FCA3E0FD7B017A0079B4
:0A7412003C856E4D856F4E027553E8
:047CE0008E3C8F3D0A
:107CE40090FE00E493FE740193FF900C88EEF0A3E1
:107CF400EFF0BE8012BFFE0F7B007AFE7902900C7B
:0E7D040085121ABA021B9FAF6FAE6E12FE0000
:017D1200224E
:1078C90085842D7B017A0B79EE127A39E4F584757A
:1078D900D98075D84075DA4275DB42900C53E0A324
:1078E900E0F5FB900C53E0A3E0F5FC900C55E0A308
:1078F900E0F5FD900C55E0A3E0F5FE900C6EE0FD7F
:107909007C007E057F001216788E6B8F6CE4F584FF
:1079190075E8C075D107F5BAF5BB75BC7043E702C8
:03792900852D8425
:01792C002238
:03007B00026BB560
:106BB500C0E0C0F0C083C082C0D075D000C000C0A6
:0B6BC50002C003C004C005C006C007EA
:106BD000758400C2EDE56D25E02424F582E43400DF
:106BE000F583E5BF85BEF0121703E56D121B4C6CF3
:106BF0000B006C13016C1B026C23036C2B046C33B5
:106C0000056C3B066C430700006C4975BB01756D54
:106C100001803675BB02756D02802E75BB08756DDF
:106C200003802675BB03756D04801E75BB04756DEE
:106C300005801675BB05756D06800E75BB06756DF6
:106C400007800675BB00756D00E56C156C7002154C
:096C50006B14456B6003026D3307
:106C5900900C6EE0FF74A08FF0841313543F7525D8
:106C690000F526E4FBFAEB64034A7020900C6EE011
:106C790075F00A84FF7E0090002AE0FCA3E0FD1273
:106C8900166690001AEEF0A3EFF08037EB25E0FFCF
:106C9900EA33FE74242FF58274003EF583E0FEA3E7
:106CA900E0FFAC25AD26121678AC06AD07EB25E062
:106CB900FFEA33FE74142FF58274003EF583ECF07D
:106CC900A3EDF0EB25E0FFEA33FE74242FF582747F
:106CD900003EF583E4F0A3F00BBB00010AEB640866
:106CE9004A7083900004E07029900C4DE0FEA3E007
:106CF900FF900C4CE02FFF900C4BE03EFE900014EF
:106D0900E0FCA3E0FDC3EF9DFFEE9C900014F0A30F
:106D1900EFF0900C6EE0FD7C007E057F0012167886
:0A6D29008E6B8F6C9002817401F0F4
:0C6D3300E56D7003D38001C34002D2EC78
:106D3F00D007D006D005D004D003D002D000D0D0D9
:096D4F00D082D083D0F0D0E032F4
:037364000119FF0D
:107A8D00AF8475840F75E1EF75E20775E3C475A4D6
:107A9D00157580EA75ADFF75A53D759001E4F5A6E8
:107AAD0075A0FF75A7F875B07F759CFFF5C8F59D9E
:107ABD0075D8FFF59E75E8FF759FFF75F8FFFDFC06
:107ACD000DBD00010CBC0BF8BDB8F575F8F78F8432
:017ADD002286
:107C0D00AF84E4F584F5D875D980F5F9F5FAF5E981
:107C1D0075EA0C75DC4675D840900C72F0A3F090A7
:107C2D00024CF0A3F0F584C28C758905438E08F5DE
:107C3D008AF58CC28DD28C758401758880758930DA
:077C4D00D2A943E6308F8449
:017C5400220D
:0D7DE300AF84E4F584C289D288D2A88F84D1
:017DF0002270
:03005B00026ED959
:106ED900C0E0C0F0C083C082C0D075D000C000C07F
:0D6EE90001C002C003C004C005C006C00700
:106EF60053E6CF758400AF8CEFFEAD8A7C00E42D9F
:106F0600F528EC3EF527900C72E0FEA3E0FFC3E502
:106F1600289FFFE5279EFED3EF9464EE940050036E
:106F2600027032C28C758A00758C00C28DD28CE5D7
:046F360019F4704199
:106F3A00F519F529AE27AF28E52925E02434F5828D
:106F4A00E43400F583EEF0A3EFF0E4FCFDE51D2F39
:106F5A00FFE51C3EFEED351BFDEC351A8F1D8E1C20
:0E6F6A008D1BF51A0529E529B404C990024CC7
:106F78000270240519E519C394044003751900E546
:106F88001925E02434F582E43400F583E0FEA3E01B
:106F9800FBC3E51D9BFFE51C9EFEE51B9400FDE57C
:106FA8001A94008F1D8E1C8D1BF51AAE27AF28E58D
:106FB8001925E02434F582E43400F583EEF0A3EFDC
:106FC800F0E4FCFDE51D2FFFE51C3EFEED351BFD45
:106FD800EC351A8F1D8E1C8D1BF51AE47B04FAF90B
:106FE800F8AC1A1218848E278F28C390024DE095AA
:106FF80028FF90024CE09527FEC394004006AC069B
:10700800AD078009C3E49FFFE49EFCAD0790024CE6
:10701800E0C313FFC3ED9FEC94004007E527F0A3FE
:10702800E528F0900C72E4F0A3F07584015388CF42
:0370380043E630FC
:10703B00D007D006D005D004D003D002D001D000A9
:0B704B00D0D0D082D083D0F0D0E03253
:03005300027C55D7
:107C5500C0E0C083C082C0D075D000C004C005C0DC
:107C650006C00753E6CF758400AF8CEFFEAD8A7C66
:107C750000E42DFFEC3E900C72F0A3EFF07584014B
:107C85005388CF43E630D007D006D005D004D0D0F6
:077C9500D082D083D0E03261
:03000B00027D1360
:107D1300C0E0C083C08253E6CF758400C28C758AED
:107D230000758C00D28C900C72E4F0A3F090024C9E
:107D3300F0A3F07584015388CF43E630D082D0831B
:037D4300D0E0325B
:030003000276EF93
:1076EF00C0E0C0F0C083C082C0D075D000C000C061
:0976FF0003C004C005C006C00769
:10770800A2AFE433FB900C757401F0900C6EE0FDB1
:107718007C007E057F001216788E6B8F6C756D006D
:107728007F10900024E4F0A3DFFCC2AF53E7FE759E
:107738008400C2ECC2ED75BB0075840175C8007485
:0E774800FFF5CDF5CC43E70143C8042B92AF0B
:10775600D007D006D005D004D003D000D0D0D08238
:07776600D083D0F0D0E03227
:107D7400000000010000000C00000077000004A9CE
:107D840000002E9A0001D2090012345600B60B618D
:087D9400071C71C7471C71C7F1
:04736700410D2C00A8
:1000A60090027A121AB18B448A458946E4F542F5E4
:1000B60043AB44AA45A9460543E543AE4270020553
:1000C60042142406F582E43EF583740112164405B3
:1000D60043E543AE4270020542142406F582E43E2F
:1000E600F58374021216440543E543AE42700205D9
:1000F60042142406F582E43EF583E41216440543D1
:10010600E543AE4270020542142406F582E43EF54C
:100116008374011216440543E543AE42700205425C
:10012600142406F582E43EF583E41216440543E5FD
:1001360043AE4270020542142406F582E43EF5837E
:10014600E41216440543E543AE4270020542142408
:1001560006F582E43EF58374011216440543E54331
:10016600AE4270020542142406F582E43EF583741D
:10017600011216440543E543AE42700205421424BB
:1001860006F582E43EF583E41216440543E543AEE4
:100196004270020542142406F582E43EF583E41219
:1001A60016440543E543AE4270020542142406F5A3
:1001B60082E43EF583E41216440543E543AE4270FD
:1001C600020542142406F582E43EF583E412164441
:1001D6000543E543AE4270020542142406F582E467
:1001E6003EF58374011216440543E543AE427002A0
:1001F6000542142406F582E43EF58374061216447D
:100206000543E543AE4270020542142406F582E436
:100216003EF583E41216440543E543AE42700205FB
:1002260042142406F582E43EF58374011216440551
:1002360043E543AE4270020542142406F582E43ECD
:10024600F583E41216440543E543AE4270020542C7
:10025600142406F582E43EF583E41216440543E5CC
:1002660043AE4270020542142406F582E43EF5834D
:1002760074011216440543E543AE4270020542146A
:100286002406F582E43EF58374121216440543E50E
:1002960043AE4270020542142406F582E43EF5831D
:1002A600E41216440543E543AE42700205421424A7
:1002B60006F582E43EF58374011216440543E543D0
:1002C600AE4270020542142406F582E43EF583E44C
:1002D6001216440543E543AE427002054214240655
:1002E600F582E43EF583E41216440543E543AE4247
:1002F60070020542142406F582E43EF58374011269
:1003060016440543E543AE4270020542142406F541
:1003160082E43EF58374031216440543E543AE4278
:1003260070020542142406F582E43EF583E41216B3
:10033600440543E543AE4270020542142406F582A5
:10034600E43EF583E41216440543E543AE427002EB
