:10975800436F707972696768742028432920323012
:1097680030342D3920547261636B205379737465DA
:109778006D7320546563686E6F6C6F676965732CD1
:10978800204C4C43000200FF000000C0C1C1810111
:1097980040C30103C00280C241C60106C00780C79A
:1097A800410500C5C1C4810440CC010CC00D80CD69
:1097B800410F00CFC1CE810E400A00CAC1CB810B38
:1097C80040C90109C00880C841D80118C01980D90A
:1097D800411B00DBC1DA811A401E00DEC1DF811F98
:1097E80040DD011DC01C80DC411400D4C1D58115A9
:1097F80040D70117C01680D641D20112C01380D3BA
:10980800411100D1C1D0811040F00130C03180F148
:10981800413300F3C1F28132403600F6C1F7813797
:1098280040F50135C03480F4413C00FCC1FD813D68
:1098380040FF013FC03E80FE41FA013AC03B80FB39
:10984800413900F9C1F88138402800E8C1E9812987
:1098580040EB012BC02A80EA41EE012EC02F80EF99
:10986800412D00EDC1EC812C40E40124C02580E5A8
:10987800412700E7C1E68126402200E2C1E38123B7
:1098880040E10121C02080E041A00160C06180A1C9
:10989800416300A3C1A28162406600A6C1A7816797
:1098A80040A50165C06480A4416C00ACC1AD816D68
:1098B80040AF016FC06E80AE41AA016AC06B80AB39
:1098C800416900A9C1A88168407800B8C1B9817907
:1098D80040BB017BC07A80BA41BE017EC07F80BF99
:1098E800417D00BDC1BC817C40B40174C07580B5A8
:1098F800417700B7C1B68176407200B2C1B38173B7
:1099080040B10171C07080B041500090C191815147
:1099180040930153C052809241960156C057809798
:1099280041550095C1948154409C015CC05D809D67
:10993800415F009FC19E815E405A009AC19B815B36
:1099480040990159C058809841880148C049808988
:10995800414B008BC18A814A404E008EC18F814F96
:10996800408D014DC04C808C41440084C1858145A7
:1099780040870147C046808641820142C0438083B8
:0999880041410081C18081404091
:10B1D10050001B0000000000000000000000000003
:10B1E100000000430C32000000410C3100410CB55D
:10B1F1000A41000500027900000275000050002F8D
:10B20100000000000000000000000000000000003D
:10B21100017D004102B500410CBC0042000200006A
:10B22100410CB8004202780000420057000042027F
:10B23100C800A0410CB700410CBB004202CB00008A
:10B2410041000100410004004102FB00410BEB0001
:10B25100410CB600027E0000027700004202CE00DF
:10B26100004102CA004102FC0041000000410CBD46
:10B2710000410018004102FA0044002BFFFFFFFFCC
:10B2810044003FFFFFFFFF420016FFFF420019FF8E
:05B29100FF4102FD0475
:1015AF00E4F52DF52CF52BF52A900CE1F0A374063C
:1015BF00F075840F75FFDE75FFAD12BCBF12B9E772
:1015CF00C2B6C2B5C2B4120026753E01753F097589
:1015DF0040557B017A0C792F12B0EF12AFC1900CEE
:1015EF00B57414F0E49002CAF012ABB01252BAE420
:1015FF00900000F0900000E0FFC3942A5018EF75A0
:10160F00F015A424D0F582E43402F583E4F09000C1
:10161F0000E004F080DEE4900000F012BBA17F0038
:10162F007E9612C05F12C12312BE95E490028FF016
:10163F009002A27402F09002AB744EF07B017A021A
:10164F0079FE90029E1230657A0979579002B11295
:10165F0030657A07793890029B1230657A0B79ECF6
:10166F009002AE123065E490028EF09002A104F069
:10167F00900298744EF0E49002A3F0A3F0900290C1
:10168F00F0A3F09002ADF090029AF09002ACF090BF
:10169F000299F01BFAF99002A81230659002A51278
:1016AF0030659002951230659002921230650B7A78
:1016BF0002798E7F007EC27D017C00129BC8900054
:1016CF0018E07B017A0279A160067F807E25800475
:1016DF007F007EE17D007C00129BC87B017A02793E
:1016EF007E9000531230657A0279B6900050123016
:1016FF0065E490004CF0A3F0900056F0900018E0D5
:10170F00600312C10D20E813782A122FA57B807A6F
:0B171F009679987800D3122EB850EA9B
:10172A00900CC0122FD10000AFC8E4FFFEFDFC9060
:10173A000CC0122F89D3122EA24017900CC0122F60
:10174A007D74FFFBFAF9F8122D4F900CC0122FC5C9
:02175A0080D835
:10175C00E49002CEF0A3F0F53E753F00754077FBA8
:0F176C007A00797E12AE80D2AF900018E060351F
:10177B00900CC4122FD100006978E4FFFEFDFC90A1
:10178B000CC4122F89D3122EA24017900CC4122F07
:10179B007D74FFFBFAF9F8122D4F900CC4122FC574
:0217AB0080D8E4
:1017AD00128BC21200A6900CBD7401F0E490026B76
:1017BD00F0A3F0A3F0900277F0900271F0A3F090F7
:1017CD00026FF0A3F0A2DA3390026EF0900279E08E
:1017DD002458FE900278E03400900275F0A3CEF00C
:1017ED00900057E0FCA3E0FD2406FEE43C9002735C
:1017FD00F0A3CEF0ED2405FEE43C900CDFF0A3CE7B
:10180D00F0E5D854037002806C7B017A007959752C
:10181D0058007559037F107E0212B6BC9001FFE08F
:10182D00540F900008F09001FFE054F0C4540F9055
:10183D000009F0900008E06403702AE5D85403FF16
:10184D00BF020890026B7404F0802E900009E090A6
:10185D00026BB403097403F0A37401F0801B7401CF
:10186D00F0A3F08014900009E0B4030890026B74AB
:10187D0002F08005E490026BF0E4FFFED390095670
:10188D00E09F900955E09E401374592FF582740026
:10189D003EF583E4F00FBF00010E80E0900CA6E052
:1018AD00F46009E06006900C3174E0F09002B5E050
:1018BD006020C3900020E094B890001FE0940B507E
:0118CD001109
:1018CE0012A71812007E8F38E53830E7F6C2FF8077
:0118DE00FE0B
:0B18DF0090026BE064046003021A4AF0
:1018EA00F538F539900057E0FAA3E0FB900CDFE0F9
:1018FA00B50212A3E0B5030D753801900CDFE4754B
:10190A00F001122C3C30DB1490026DE06404700389
:10191A000219D97404F07538010219D990026DE0E0
:10192A00B404277402F0900279E02403FE9002784E
:10193A00E03400900275F0A3CEF0A2DAE43390020C
:10194A006EF0E4900277F0753801900275E0FEA31C
:10195A00E0FF900278E0FCA3E0FD6F7002EC6E708D
:10196A006EA2DA33FF90026EE0FE6F70309002775B
:10197A00E0C394025005E004F08047EE6010900244
:10198A006DE06402603C7402F075380180349002A4
:10199A006DE06401602C7401F0F538802590026DC9
:1019AA00E0640360067403F075380190026EE0701B
:1019BA00047F0180027F0090026EEFF0900277743C
:1019CA0001F0ED2458FEE43C900275F0A3CEF090AD
:1019DA00026CE06004A3E0701790026D7401F0904D
:1019EA00026CF0EB2405FEE43A900273F0A3CEF009
:1019FA00900273E0FEA3E0FF900057E0B50619A33A
:101A0A00E0B50714900273E475F00A122C3C9002B8
:101A1A006DE0B40103753901900C31E0B4E103E4DF
:101A2A00F539E539601A90026C7405F0900279E094
:101A3A002403FE900278E03400900271F0A3CEF005
:101A4A00900271E0FEA3E0FF900278E0FCA3E0FDC3
:101A5A006F7002EC6E6003021AE490026CE024FDDF
:101A6A00605324FE601A1460522404706D90026C54
:101A7A007403F0ED2450FEE43C900271F0A3CEF022
:101A8A0090026CE0B405177406F0900279E02428FD
:101A9A00FE900278E03400900271F0A3CEF090023A
:101AAA006BE024FD600B1460042403702DD2CC80FB
:101ABA0029D2CC802590026C7404F090026CE0B4B8
:101ACA0006037401F090026BE024FD600B146004BD
:101ADA0024037006C2CC8002C2CC90029212305CFF
:051AEA00E94A4B602BEE
:101AEF0090029212305C8B388A39893A7B007A00E7
:101AFF007900900292123065AB38AA39A93AE4FF07
:0B1B0F00124100900CDDEEF0A3EFF09F
:101B1A00900CA5E020E003D38001C35003021BC54B
:101B2A009002CFE094F09002CEE094005003021BA2
:011B3A00C5E5
:101B3B0012A71812007E8F38E53830E7F690026B4B
:0D1B4B00E06404706E90026DE0640160665D
:101B5800900CC8122FD1000DBBA0E4FFFEFDFC9035
:101B68000CC8122F89D3122EA24017900CC8122F1E
:101B78007D74FFFBFAF9F8122D4F900CC8122FC58F
:021B880080D803
:021B8A00D2CCBB
:101B8C00900CCC122FD100112A88E4FFFEFDFC90A2
:101B9C000CCC122F89D3122EA24017900CCC122FE2
:101BAC007D74FFFBFAF9F8122D4F900CCC122FC557
:021BBC0080D8CF
:071BBE00C2FFE4F5F880FE10
:101BC50020E803021C72C39002CFE094099002CE74
:101BD500E094005003021C6B900C31E02420600A55
:0A1BE50014606014606724E2707C55
:101BEF00900CA5E030E175126FE9900057E0FEA36D
:101BFF00E0FF900CA8E02FFF900CA7E03E900CBEEA
:101C0F00F0A3EFF0900278E0F538A3E0F539753ED8
:101C1F0000753F007540777B007A00797E128EF554
:101C2F00900005EFF07008C2B6900C31F0802D9047
:091C3F000C3174E1F0D2B68023EF
:101C4800900CA5E030E11C12A720900CA6E0F460EF
:101C58000BE06008900C3174E0F08005E4900C31E2
:101C6800F0C2B5E49002CEF0A3F0900CB7E0700398
:101C7800021DB8E4F09002FBE0F46003021D4990F5
:101C8800026BE064046003021D3D90026DE0B40441
:031C980036D2CC75
:101C9B00900CD0122FD10001B774E4FFFEFDFC9025
:101CAB000CD0122F89D3122EA24017900CD0122FCA
:101CBB007D74FFFBFAF9F8122D4F900CD0122FC543
:021CCB0080D8BF
:0A1CCD00C2CC90026DE06401606675
:101CD700900CD4122FD1000DBBA0E4FFFEFDFC90A9
:101CE7000CD4122F89D3122EA24017900CD4122F86
:101CF7007D74FFFBFAF9F8122D4F900CD4122FC503
:021D070080D882
:021D0900D2CC3A
:101D0B00900CD8122FD100112A88E4FFFEFDFC9015
:101D1B000CD8122F89D3122EA24017900CD8122F49
:101D2B007D74FFFBFAF9F8122D4F900CD8122FC5CA
:021D3B0080D84E
:101D3D00C2B3C2B6C2B5C2B4C2FF80FE9002FBE010
:101D4D00FF64F07022900C31EFF0E4F57EF57F909A
:101D5D00000574FFF0D2B3D2B6D2B5D2B4C2A85337
:101D6D00E7FD53E7BF8010EFB4F113900C31F0C2D3
:101D7D00B3C2B6C2B5C2B4E49002FBF0802DEF64DD
:101D8D00F27028900C31EFF0D2B3D2B6D2B5D2B4F6
:101D9D00900C30E024FFFD900C2FE034FFFCE4FBB1
:101DAD00FFFE12BAC8E4F58443EF01900C31E0FF59
:101DBD0064E06008EF64E160030218B99002B5E0D9
:101DCD007003021F18D3900020E094B890001FE01C
:101DDD00940B4007E49002B5F080069002B57401B3
:101DED00F0C3E57A940AE5796480948040067579AC
:101DFD0000757A09900018E06007E49002B4F08055
:101E0D0035900021E0FEA3E0FFEF24FBFFEE34EB65
:101E1D00FEE434FFFDE434FFFCE47BE87A03F9F8DB
:101E2D00122D6AE47BE57A24F9F812BF249002B4EE
:101E3D00EFF0E024CEF0900C31E064E16003021885
:101E4D00B99002FDE060030218B9C3E576940AE586
:101E5D007564809480400675750075760990001D37
:101E6D00E0540FFD90001BE0540FC4F854F0C8E48B
:101E7D00C4540F482DFF90006E75F033E57A123083
:101E8D0040E57975F033A42583F58375F003E57688
:101E9D00123040E57575F003A42583F583EFF090BE
:101EAD00001BA3E0FF90006F75F033E57A12304010
:101EBD00E57975F033A42583F58375F003E5761286
:101ECD003040E57575F003A42583F583EFF09000A0
:101EDD001DA3E0FF90007075F033E57A123040E5F8
:101EED007975F033A42583F58375F003E57612300B
:101EFD0040E57575F003A42583F583EFF00576E5D0
:101F0D0076700205751291DB0218B99002ADE0FFF3
:0A1F1D009002ACE06F70030221BBDC
:101F2700EF75F0DCA4FF9002B112305CE92FF9EAFB
:101F370035F08B38F539893A9002ADE0FFB40204E9
:101F47007F008003EF04FF9002ADEFF09002B4E052
:101F5700FF90006D75F033E57A123040E57975F042
:101F670033A42583F583EFF0AE79AF7A7C007D3318
:101F7700122B9F74592FF974003E753E01F53F8966
:101F870040AB38AA39A93A1249EB90006975F0338A
:101F9700E57A123040E57975F033A42583F583E0BF
:101FA70054E075F008A4FFAEF090006A75F033E5D1
:101FB7007A123040E57975F033A42583F583E0FD87
:101FC700EEF52EEF4DF52FE52E30E20744F8F52E0E
:101FD700852F2F90006975F033E57A123040E57947
:101FE70075F033A42583F583E0541C75F040A4FFF6
:101FF700AEF090006B75F033E57A123040E57975F5
:10200700F033A42583F583E0FDEEF530EF4DF53190
:10201700E53030E20744F8F530853131AC30AD3189
:10202700EC1227A0C004C005C006C007AC30AD3114
:10203700EC1227A0D003D002D001D000122577C020
:1020470004C005C006C007AC2EAD2FEC1227A0C0F8
:1020570004C005C006C007AC2EAD2FEC1227A0D0D8
:1020670003D002D001D000122577D003D002D001CF
:10207700D00012248612B4D47B5C7A8F7982783FA1
:102087001225778F378E368D358C347F747ED17DD0
:102097000D7C40AB37AA36A935A83412257712270D
:1020A700D98E328F33900C31E064E17066E53345A9
:1020B70032601C900057E0FEA3E0FF900CA8E02FD1
:1020C700FF900CA7E03E900CBEF0A3EFF080449089
:1020D7000CBEE0FEA3E0FF900057E06E7003A3E0A4
:1020E7006F7030900CA7E0F47003A3E0F4602490C5
:1020F7000CA7E07002A3E0601A12A720900CA6E0DC
:10210700F4600BE06008900C3174E0F08005E49017
:102117000C31F0900C31E064E060030218B9900CC8
:10212700E1E07002A3E0600D900CE174FFF5F0129E
:102137002C3C0218B9900CBBE0D39405500302184D
:10214700B99002CCE0942C9002CBE09401400302BA
:1021570018B9900CA6E0FFC3E5339FE53294005011
:10216700030218B9900C3174E1F0126FE99000572F
:10217700E0FEA3E0FF900CA8E02FFF900CA7E03E45
:10218700900CBEF0A3EFF0753E00753F00754077E9
:102197007B007A00797E128EF5900005EFF07009CA
:1021A700C2B6900C31F00218B9900C3174E1F0D23C
:0121B700B671
:1021B8000218B9900CBCE0FD7017900002E0FEA375
:1021C800E0FF900278E06E7003A3E06F60030218EE
:1021D800B9900CB5E0FF74A08FF08475F00AA4FFE5
:1021E800900279E02401FB900278E03400CB2FFEC6
:1021F800EB35F0900002F0A3CEF0ED700E900CBB22
:10220800F090000274FFF5F0122C3C900C31E0FFC6
:1022180064E160030224649002FDE0FE7003022280
:10222800BFEF64E160030222BF900CBCE0700302C0
:10223800246490026BE0FF6054900C31E064E1701C
:012248004C49
:10224900EFB4040790026DE0B4040890026BE064F7
:10225900046039900CB5E0900CDCB428057406F0E4
:1022690080037404F0900CDCE0B5062090026C74D5
:1022790002F090026FE0FEA3E0FF900279E02FFFE9
:0C228900900278E03E900271F0A3EFF0AC
:102295009002FDE014F06003022464F575F576F50F
:1022A50079F57A900956E024FFFE900955E034FF50
:1022B500900006F0A3CEF0022464900C31E0FF6498
:1022C500E06008EF64E16003022464C3E576940AE4
:1022D500E575648094804003022461E57645757058
:1022E5007A900C90E0540FFD900C8EE0540FC4F8DA
:1022F50054F0C8E4C4540F482DFF90006E75F033B8
:10230500E57A123040E57975F033A42583F58375B8
:10231500F003E576123040E57575F003A42583F5E5
:1023250083EFF0900C8EE0A3E0FF90006F75F03323
:10233500E57A123040E57975F033A42583F5837588
:10234500F003E576123040E57575F003A42583F5B5
:1023550083EFF0900C90E0A302242B90006B75F0B6
:1023650033E57A123040E57975F033A42583F5839A
:1023750075F003E576123040E57575F003A4258305
:10238500F583E0FF90006E75F033E57A123040E595
:102395007975F033A42583F58375F003E57612305E
:1023A50040E57575F003A42583F583EFF090006C87
:1023B50075F033E57A123040E57975F033A425835D
:1023C500F58375F003E576123040E57575F003A4E5
:1023D5002583F583E0FF90006F75F033E57A1230C1
:1023E50040E57975F033A42583F58375F003E5762B
:1023F500123040E57575F003A42583F583EFF09061
:10240500006D75F033E57A123040E57975F033A447
:102415002583F58375F003E576123040E57575F093
:1024250003A42583F583E0FF90007075F033E57A0A
:10243500123040E57975F033A42583F58375F003F3
:10244500E576123040E57575F003A42583F583EF35
:10245500F00576E576700205750222D012B57AE4AC
:10246500900CBCF09002FCF0900CBBE06007B2B59C
:0A247500E4F00218B9C2B50218B96C
:10B57A00C3E57A9409E57964809480500302B6148D
:10B58A00900955E0FCA3E0FD7B017A007959857E9C
:10B59A005D857F5E7F027E0012B7E1E57824FFFFBA
:10B5AA00E57734FFFEC3E57F9FE57E9E402AAD78AE
:10B5BA00AC777F017E0012B96C900005E0FFAB7892
:10B5CA00AA77AD7FAC7E12AD22E4900C31F0900CDC
:10B5DA00BBF0C2B6C2B58008057FE57F7002057E62
:10B5EA00E4FFFED3900956E09F900955E09E401370
:10B5FA0074592FF58274003EF583E4F00FBF000101
:10B60A000E80E0E4F579F57A8008057AE57A700229
:07B61A000579E4F575F576F2
:01B621002206
:08A71800C2B3C2B6C2B5C2B45F
:10A72000C2B6C2B5900C31E064E170279002FDE042
:10A7300070119002CAE0600BAD78AC777F017E00AB
:10A7400012B96C900005E0FFAB78AA77AD7FAC7EC4
:0BA7500012AD2290026CE064037070F8
:10A75B00900CE3122FD100015F90E4FFFEFDFC9003
:10A76B000CE3122F89D3122EA24017900CE3122F59
:10A77B007D74FFFBFAF9F8122D4F900CE3122FC5E5
:02A78B0080D874
:03A78D00E4F5C828
:10A79000900CE7122FD100020F58E4FFFEFDFC9051
:10A7A0000CE7122F89D3122EA24017900CE7122F1C
:10A7B0007D74FFFBFAF9F8122D4F900CE7122FC5AC
:02A7C00080D83F
:10A7C20090026C7401F0A304F090026BE0FFB404F9
:10A7D2000890026DE064046013EF6404700302A841
:0CA7E2009D90026CE06404600302A89DDE
:10A7EE00900CEB122FD100015F90E4FFFEFDFC9068
:10A7FE000CEB122F89D3122EA24017900CEB122FB6
:10A80E007D74FFFBFAF9F8122D4F900CEB122FC549
:02A81E0080D8E0
:10A8200090026BE024FD603F1460042403706ED23C
:01A83000CC5B
:10A83100900CEF122FD10001B774E4FFFEFDFC90E4
:10A841000CEF122F89D3122EA24017900CEF122F6A
:10A851007D74FFFBFAF9F8122D4F900CEF122FC502
:02A8610080D89D
:06A86300C2CC8036D2CC0D
:10A86900900CF3122FD10001B774E4FFFEFDFC90A8
:10A879000CF3122F89D3122EA24017900CF3122F2A
:10A889007D74FFFBFAF9F8122D4F900CF3122FC5C6
:02A8990080D865
:0CA89B00C2CC90026C7401F0E4F5C822FD
:106FE900900278E0F53DA3E0F53EE4F579F57AF510
:106FF90075F576900CBBF0A3F0900955E0FEA3E07F
:10700900FF7B017A00795975580075590112B6BC90
:1070190090005CE0540F900BEBF090005DE0900C59
:10702900B6F090005BE075F01690012E123040E04A
:10703900A3E0540F9002CDF090005BE075F016903C
:107049000130123040E0FFA3E09002C6CFF0A3EF79
:10705900F0900BEBE024FC601424027027900CB52F
:107069007414F090026FE4F0A374608026900CB55C
:107079007428F090026FE4F0A37462F09002FD743A
:1070890006F08016900CB5740AF090026F7401F046
:10709900A37458F09002FD7404F0900CB6E09002CD
:1070A900CAF09002C6E0FCA3E0FD4C700890000C09
:1070B900F0A3F080679002CDE0701E1227A0A8040B
:1070C900A905AA06AB07E4FFFE7D7A7C4812268053
:1070D9001227D97C007DF080389002CDE0B40F03EF
:1070E9007410F09002C6E0FCA3E0FDE41227A0A80A
:1070F90004A905AA06AB07E4FFFE7D7A7C4812269F
:10710900801227D99002CDE0FD74788DF084FD7C42
:1071190000122B9F90000CEEF0A3EFF0E5D854037A
:1071290070079002CAF00274067B017A00795975DA
:1071390058007559037F107E0212B6BCE4F53BF581
:107149003C90007175F028E53C123040E53B75F044
:1071590028A42583F583E024FB601524FB702274A1
:107169007A253CF5827402353BF5837403F080205F
:10717900747A253CF5827402353BF5837402F080FC
:107189000F747A253CF5827402353BF5837404F05B
:10719900053CE53C7002053B6404453B70A3E4F5FE
:1071A9003BF53C90007E75F028E53C123040E53B0C
:1071B90075F028A42583F583E0FDE53C25E0FFE58E
:1071C9003B33FE740F2FF58274003EF583EDF0908A
:1071D900007275F028E53C123040E53B75F028A4B3
:1071E9002583F583122F8990007675F028E53C12E6
:1071F9003040E53B75F028A42583F583122F7D12D5
:107209002482C004C005C006C00790007275F0282A
:10721900E53C123040E53B75F028A42583F583123F
:107229002F8990007A75F028E53C123040E53B75CE
:10723900F028A42583F583122F7D122482D003D050
:1072490002D001D000122680E4FBFAF9F812271DBA
:1072590090007275F028600540030272E4E53C1263
:107269003040E53B75F028A42583F583122F8990DA
:10727900007675F028E53C123040E53B75F028A40E
:107289002583F583122F7D122482C004C005C00610
:10729900C00790007275F028E53C123040E53B7557
:1072A900F028A42583F583122F8990007A75F02898
:1072B900E53C123040E53B75F028A42583F583129F
:1072C9002F7D122482D003D002D001D00012268053
:1072D900C004C005C006C00702736AE53C1230400D
:1072E900E53B75F028A42583F583122F8990007654
:1072F90075F028E53C123040E53B75F028A425835C
:10730900F583122F7D122482C004C005C006C00770
:1073190090007275F028E53C123040E53B75F02885
:10732900A42583F583122F8990007A75F028E53C0E
:10733900123040E53B75F028A42583F583122F7D93
:10734900122482D003D002D001D000122680122745
:107359008AAB07AA06A905A804C000C001C002C0DB
:107369000390007F75F028E53C123040E53B75F04D
:1073790028A42583F583E0FF90008075F028E53C7B
:10738900123040E53B75F028A42583F583E0C39FBF
:10739900FDE49400FCE41227A0D003D002D001D070
:1073A90000122577C004C005C006C00790007F758C
:1073B900F028E53C123040E53B75F028A42583F51B
:1073C90083E0FCE41227A5D003D002D001D000123B
:1073D90024861227D9AD07E53C25E0FFE53B33FEBE
:1073E900740E2FF58274003EF583EDF0053CE53C03
:1073F9007002053B6404453B60030271AC9002CA0C
:10740900E030E7034403F0E4F53BF53CD39009563B
:10741900E0953C900955E0953B40187459253CF599
:10742900827400353BF583E4F0053CE53C70DD05ED
:037439003B80D9BC
:01743C00222D
:0991DB009002CAE070030294AD99
:0391E400753B06D2
:1091E700AF3B9002CAE0FEA807088002C313D8FC71
:1091F70020E00302949FE53B1230F7937D009374C0
:1092070001926502926503922304922305921B063D
:109217000000940AE5D8F4F53C02940AAF3BEF331B
:1092270095E0FEEF25E0FFEE33FE741F2FF5827405
:10923700003EF583E0FEA3E0FFAD3BED3395E0FC98
:1092470074782DF58274023CF583E0FDEFA80508DC
:0E9257008005CEC313CE13D8F9F53C02940A5D
:10926500E4F53DAF3BEF3395E0FEEF25E0FFEE3350
:10927500FE741F2FF58274003EF583E0FEA3E0FF28
:10928500AD3BED3395E0FC74782DF58274023CF529
:1092950083E0FBEFA803088005CEC313CE13D8F9EE
:1092A500F53C74062DF58274003CF583E06402609C
:1092B5000302940AAF3BEF3395E0FEEF25E0FFEEA6
:1092C50033FE740B2FF58274003EF583E0602304B2
:1092D500604624FE706A740A2FF58274003EF58399
:1092E500E0FFE53CD39F40047F0180027F008F3D76
:1092F500804EAF3BEF3395E0FEEF25E0FFEE33FE0A
:10930500740A2FF58274003EF583E0B53C047F01B5
:1093150080027F008F3D8028AF3BEF3395E0FEEF65
:1093250025E0FFEE33FE740A2FF58274003EF583C7
:10933500E0FFE53CC39F50047F0180027F008F3D25
:10934500E53D6015E53B2402FF7401A8070880028E
:10935500C333D8FC42C802940AE53B2402FF7401DA
:0F936500A807088002C333D8FCF452C802940A48
:09937400900269E0F53C02940A44
:10937D00900269E0FEA3E0FFF53C90000CE0FCA339
:10938D00E0FD4C6078EF4E6074D3ED9FEC9E50384D
:10939D00E4F53DF53E7408253EF5827400353DF546
:1093AD0083E0B40113E53E2404FF7401A80708808F
:1093BD0002C333D8FCF452C8053EE53E7002053DAC
:1093CD006402453D70CF8035E4F53DF53E740825CA
:1093DD003EF5827400353DF583E0B40112E53E247F
:1093ED0004FF7401A807088002C333D8FC42C805E6
:0D93FD003EE53E7002053D6402453D70D026
:10940A0075450075460075473C900006E0FAA3E0F2
:10941A00FB7D017C007F017E0012B86B900006E0A4
:10942A007002A3E0600C90000674FFF5F0122C3C69
:10943A008063AD78AC777F017E0012B96CE5782441
:10944A00FFFFE57734FFFEC3E57F9FE57E9E40215F
:10945A00900005E0FFAB78AA77AD7FAC7E12AD2213
:10946A00E4900C31F0900CBBF0C2B6C2B5F5C880DE
:10947A0024E578157870021577900955E0FCA3E089
:10948A00FD24FFFEEC34FF900006F0A3CEF07F012E
:05949A007E0012BB354D
:0E949F00153BC3E53B6480948040030291E7D7
:0194AD00229C
:10BC0A008B5C8A5D895EE92DF9EA3C8B5FF5608978
:10BC1A0061E4F562F563C3856083856182E55E95BB
:10BC2A0082E55D9583502F785CE475F00112304C03
:10BC3A00122AF2FFE5636F25E0FFE433FE74912FC9
:10BC4A00F58274973EF583E562FFE493F562740129
:0ABC5A00936FF56380C0AE62AF6324
:01BC640022BD
:10AFC100E4900D83F07B017A0C793512BD16900C5B
:10AFD1009EE07004A3E064EE700C900CA0E070049D
:10AFE100A3E064086018900C9EE4F0A374EEF09066
:10AFF1000CA0E4F0A37408F0900D837401F0900CA0
:10B0010087E0B4FF0974C8F0900D837401F0900CCF
:10B0110086E0640160077401F0900D83F0900C2FBD
:10B02100E0FCA3E0FDB40015ECB41011900CA3E01A
:10B0310030E40AE054EFF0900D837401F0E4B505BB
:10B0410015ECB42011900CA3E020E40AE04410F0C8
:10B05100900D837401F0900C35E0FF12005E400DFD
:10B06100900C35E06007E4F0900D8304F0900C49FA
:10B07100E0FF12005E400D900C49E06007E4F090A3
:10B081000D8304F0900C5DE0FF12005E400D900C0A
:10B091005DE06007E4F0900D8304F0900CA6E0B44D
:10B0A100FF07E4F0900D8304F0900CA7E0B4FF11CA
:10B0B100A3E0B4FF0CE4900CA7F0A3F0900D83047F
:10B0C100F0900D83E0601012C0317B017A0C79356C
:10B0D1007D807C0012BA59900018E06010900CA598
:0DB0E100E030E4047F0080027F0112C0898E
:01B0EE00223F
:10C03100AF84E4F584781EF608F6A2AF33FEC2AFF2
:10C0410043B701758F0718E6FC08E6F5828C83E497
:0DC05100F0F58F53B7FEEE24FF92AF8F8401
:01C05E0022BF
:0ABA59008B4F8A5089518C528D5397
:10BA6300858454E4F584781EF608F6A2AF33FFC24A
:10BA7300AF43B701758F05E4F555F556C3E5569504
:10BA830053E5526480F8E5556480985029784FE473
:10BA930075F00112304C122AF2FE781E0806E618E1
:10BAA300860470010614F5828C83EEF00556E55684
:10BAB30070CA055580C6E4F58F53B7FEEF24FF9295
:04BAC300AF85548473
:01BAC700225C
:06BD16008B4F8A50895199
:10BD1C00858452E4F553F554F584A2AF33F555C23E
:10BD2C00AF758F04E4FFFE0554E554AC5370020567
:10BD3C005314F5828C83E493FD784FE475F0011273
:10BD4C00304CED122B6B0FBF00010EEF64804E7068
:0DBD5C00D6E4F58FE55524FF92AF855284A3
:01BD690022B7
:0EB7E1008E568F578C588D598B5A8A5B895C17
:09B7EF0012007EEF30E7F9C2F907
:10B7F800E4F561F5620562E5627002056164404541
:03B808006170F27A
:10B80B00E5576401455670047F8480027F871200E0
:10B81B003EE4FF12003EE4FF12003EE4FF12003E46
:10B82B00E4F55FF560C3E5609559E5586480F8E58C
:10B83B005F648098501DAB5AAA5BA95C85608285BA
:10B84B005F83122B0BFF12003E0560E56070D6057F
:10B85B005F80D2D2F9AD5EAC5DAF57AE5602B96C1C
:08B96C008E638F648C658D660B
:10B97400900955E0FEA3E0FF12B6228F6712007E05
:06B98400EF30E7F9C2F903
:10B98A00E4F568F5690569E569700205686440458A
:03B99A006870F2E0
:10B99D00E5676010E5646401456370047F83801280
:10B9AD007F86800EE5646401456370047F828002AA
:10B9BD007F8512003EE566AE657806CEA2E713CE12
:10B9CD0013D8F8FF12003EAF66EF25E025E0FF1219
:09B9DD00003EE4FF12003ED2F925
:01B9E600223E
:0CB86B008E3F8F408C418D428A438B44FD
:09B8770012007EEF30E7F9C2F97E
:10B88000E4F54AF54B054BE54B7002054A6440452B
:03B890004A70F209
:10B89300E5406401453F70047F8480027F87120086
:10B8A3003EE4FF12003EE5435403FF12003EAF4463
:10B8B300E54412003EE4F548F549C3E5499542E500
:10B8C300416480F8E548648098501DAB45AA46A9B9
:10B8D30047854982854883122B0BFF12003E054999
:0AB8E300E54970D6054880D2D2F97D
:01B8ED002238
:08BB35008E418F428C438D44C8
:09BB3D0012007EEF30E7F9C2F9B5
:10BB4600E4F547F5480548E5487002054764404571
:03BB56004770F243
:10BB5900E5426401454170047F8480027F871200B9
:10BB69003EE4FF12003EE4FF12003EE4FF12003EF5
:10BB7900E4F545F546C3E5469544E5436480F8E5B3
:10BB890045648098500F7FFF12003E0546E54670D8
:07BB9900E4054580E0D2F94C
:01BBA0002282
:02007E00C2F9C5
:10008000E4F573F5740574E5747002057364404516
:030090007370F298
:0C0093007FD712003EE4FF12003ED2F9BD
:01009F00223E
:0AB6BC008E538F548B558A56895720
:09B6C60012007EEF30E7F9C2F931
:10B6CF00E4F55CF55D055DE55D7002055C64404584
:03B6DF005C70F2AA
:10B6E2007FD212003EE559AE587806CEA2E713CEBD
:10B6F20013D8F8FF12003EAF59EF25E025E0FF1204
:10B70200003EE4FF12003EE4FF12003EE4FF12009E
:10B712003EE4FF12003EE4FF12003EE4F55AF55B00
:10B72200C3E55B9554E5536480F8E55A648098500C
:10B732001FE4FF12003EAB55AA56A957855B8285CE
:10B742005A83EF122B7D055BE55B70D4055A80D0DE
:02B75200D2F92A
:01B7540022D2
:08B622008E6A8F6B8C6C8D6D3C
:0CB62A00756E0112007EEF30E7F9C2F9E6
:10B63600E4F571F5720572E57270020571644045B4
:03B646007170F22E
:10B649007FD212003EE56DAE6C7806CEA2E713CE2E
:10B6590013D8F8FF12003EAF6DEF25E025E0FF1289
:10B66900003EE4FF12003EE4FF12003EE4FF120038
:10B679003EE4FF12003EE4FF12003EE4F56FF57070
:10B68900C3E570956BE56A6480F8E56F648098504E
:10B699001DE4FF12003EBFFF047F0180027F008F7F
:10B6A9006EEF600A0570E57070D6056F80D2D2F929
:02B6B900AF6E72
:01B6BB00226C
:04BE03008E528F5379
:09BE070012007EEF30E7F9C2F9E8
:10BE1000E4F554F5550555E5557002055464404563
:03BE20005470F269
:10BE23007F5012003EE553AE527806CEC313CE13B5
:10BE3300D8F9FF12003EAF53EF25E025E0FF1200D3
:08BE43003EE4FF12003ED2F9BB
:01BE4B0022D4
:04BE4C008E538F542E
:09BE500012007EEF30E7F9C2F99F
:10BE5900E4F555F5560556E5567002055564404515
:03BE69005570F21F
:10BE6C007F8112003EE554AE537806CEC313CE1339
:10BE7C00D8F9FF12003EAF54EF25E025E0FF120089
:08BE8C003EE4FF12003ED2F972
:01BE9400228B
:06BAC8008C4D8D4E8B4FEA
:10BACE00E54F6002C2B68E508F51D3E551954EE5CB
:10BADE0050954D504BE55154077034C3E54E95517A
:10BAEE00FFE54D9550FEC3EF9408EE94004020E51F
:10BAFE004F6008E551543F7002B2B6AF51AE5012CE
:10BB0E00BE0374072551F551E43550F5508007AF4B
:10BB1E0051AE5012BE4C0551E55170AE055080AA83
:06BB2E00E54F6002C2B603
:01BB340022EE
:06B0EF008B3B8A3C893D09
:06B0F500D2F8D2F9C2FA04
:10B0FB00E4F541F5420542E54270020541644045E5
:03B10B004170F29E
:02B10E00D2FA73
:10B11000E4F541F5420542E54270020541644045CF
:03B120004170F289
:10B1230012007EEF543C1230F7B1450CB14F14B10D
:10B13300591CB16324B17E2CB19934B1B43C0000E5
:10B14300B1D0AB3BAA3CA93D7402801CAB3BAA3CEB
:10B15300A93D74048012AB3BAA3CA93D7408800846
:10B16300AB3BAA3CA93D741075F000122D03AB3E16
:10B17300AA3FA940740175F008804FAB3BAA3CA9D4
:10B183003D741075F000122D03AB3EAA3FA9407425
:10B193000275F0108034AB3BAA3CA93D742075F0D6
:10B1A30000122D03AB3EAA3FA940740275F0108034
:10B1B30019AB3BAA3CA93D742075F000122D03ABDB
:0DB1C3003EAA3FA940740475F020122D0330
:01B1D000225C
:10FE00008E4E8F4F8E4E8F4FE4F550F551A2AF338B
:10FE1000F552C2AFE4F58443B701758F03C3E550D3
:10FE200094FC50168551828550837488F0E42551E6
:10FE3000F55174043550F55080E3E4F58FF550F535
:10FE400051F555F55675840FE55654037002B2B658
:10FE500012FFB58F57E55730E7F6C2F9E4F558F5CC
:10FE6000590559E559700205586440455870F27FAC
:10FE7000D212FFA4E556AE557806CEC313CE13D8E2
:10FE8000F9FF12FFA412FF9CE4FF12FFA4E4FF128B
:10FE9000FFA4E4FF12FFA4E4FF12FFA4E4FF12FF9B
:10FEA000A4E4F553F554E4FF12FFA474592554F566
:10FEB0008274003553F583EFF00554E55470020564
:10FEC00053C3E553940240DED2F9E4F584758F0103
:10FED000F553F55474592554F58274003553F58360
:10FEE000E0FF0551E551AC507002055014F5828CCD
:10FEF00083EFF00554E55470020553B400D6E55382
:10FF0000B402D1E4F58F0556E55670020555C39449
:07FF10007FE555940050034A
:10FF170002FE45E4F58F53B7FEE55224FF92AFE4A6
:10FF2700F5D075840FF555F556C3E5559420505413
:10FF3700E556543F7002B2B512FFB58F57E55730FB
:10FF4700E7F6C2F9E4F558F5590559E55970020580
:10FF5700586440455870F27F5012FFA4E556AE55DD
:10FF67007806CEC313CE13D8F9FF12FFA412FF9C55
:10FF7700E4FF12FFA4D2F974082556F556E4355567
:10FF8700F55580A512FFB58F57E55730E7F6E4F52D
:05FF97008443EF01228C
:10FF9C00AF56EF25E025E0FFAE84E4F5848F9B306F
:09FFAC00FFFDC2FFAF9B8E842211
:10FFB500C2F9E4F55AF55B055BE55B7002055A6429
:10FFC50040455A70F27FD712FFA4E4FF12FFA4D276
:02FFD500F9220F
:109FC100900C3174E2F090978DE493FFAB3CAA3D85
:109FD100A93E900001122B0BFDE4F556F5577B06C7
:049FE1008F538B55BA
:109FE5007558FFE4F559F55AED90978D93F55B7427
:109FF500312DF582E4340CF5837464F090978DE48B
:10A0050093B55319E55564066013E5556415600D60
:10A01500742B2DF582E4340CF583E555F0E55B757D
:10A02500F013A4249BF582E43402F58312305C74AA
:10A0350016122B6BE55B75F013A4249BF582E434B3
:10A0450002F58312305C900001E553122B7DE55B30
:10A0550075F013A4249BF582E43402F58312305C79
:10A06500900002ED122B7D74022557F557E4355605
:10A07500F556FFE55B75F013A4249BF582E43402E5
:10A08500F58312305C900003EF122B7DE55B75F0D4
:10A0950013A4249BF582E43402F58312305C90000E
:10A0A50004E557122B7DE55B75F013A4249BF5821F
:10A0B500E43402F58312305C900005E555122B7DE2
:10A0C500E4FEFFE55B75F013A4249BF582E43402FE
:10A0D500F58312305C8F828E83122B0B62580FBF73
:10A0E50000010EEF64064E70DAE55B75F013A424EB
:10A0F5009BF582E43402F58312305C900006E55846
:10A10500122B7D74FE2557F55774FF3556F556E528
:10A115005B75F013A4249BF582E43402F5831230B9
:10A125005CE92407F9E43AFAAD57AC5612BC0A8E3D
:10A13500598F5AEEFFE55B75F013A4249BF582E475
:10A145003402F58312305C0557E557700205562435
:10A1550006F582E43556F583EF122B7DE55B75F048
:10A1650013A4249BF582E43402F58312305C055771
:10A17500E557700205562406F582E43556F583E564
:10A185005A122B7DE55B75F013A4248EF974023504
:10A19500F0FA7B01E5572407FDE43556FC12BC6552
:09A1A500E5572407FFE43556FEDE
:01A1AE00228E
:084100008F3B8B3C8A3D893E98
:10410800E4900CEFF0A3F0900003122B0BFE90004C
:1041180004122B0B7C002400FFEC3ECF24FECF348E
:10412800FFFE900CF1F0FCA3EFF0FDE92407F9E4A1
:104138003AFA12BDB9900CEFEEF0A3EFF04E603AE8
:10414800AB3CAA3DA93E900005122B0BFF641570ED
:10415800030249E2EF640670030249E2900001128B
:104168002B0B2431F582E4340CF5837464F0900051
:0A41780001122B0BFF7D0402456BC2
:10418200AB3CAA3DA93E900002122B0BFF90978DEB
:10419200E4936F700302423CEFF4700302423CEF7F
:1041A20093FF3395E0FE90029B75F013EF123040BF
:1041B200EE75F013A42583F58312305CE92407F928
:1041C200E43A8B44F5458946E53E2407F9E4353D5A
:1041D200853C41F5428943E4F53FF540D3900CF22A
:1041E200E09540900CF1E0953F40247841E475F071
:1041F2000112304C122AF2FF7844E475F0011230B9
:104202004CEF122B6B0540E54070D1053F80CDABE2
:104212003CAA3DA93E900001122B0BFF9000021216
:104222002B0BFD900005122B0BFB900CF1E0F556C9
:10423200A3E0F557129FE10249E2AB3CAA3DA93E39
:10424200900005122B0B1230F742A00642DB1042FF
:10425200C41545A03046C53146ED324715334805F1
:1042620034473D35476536478D3748053847B539B8
:1042720047DD3A44B5404509414509424831504875
:10428200835145D55543E870444571430190496EC9
:1042920091482993468D94438998000049AE900035
:1042A20001122B0B242BF582E4340CF583AB3CAAD0
:1042B2003DA93E900001122B0B242BF582E4340C15
:1042C2008010AB3CAA3DA93E122AF2242CF582E4CE
:1042D200340CF583E4F002499B900C31E0FF64E179
:1042E2006004EFB4E20512BD6A8003129FC7900C0E
:0F42F200EFEEF0A3EFF0AB3CAA3DA93E02499BD3
:10430100900C31E0FF64E16004EFB4E20512BD6A94
:104311008065AB3CAA3DA93E900007122B0BFE9095
:104321000008122B0B7C002400F548EC3EF547E514
:104331003B75F013A4249BF582E43402F58312301B
:104341005CE92407F9E43AFA900955E0FEA3E0FF9D
:1043510085475885485912B6BC90978DE493FFABB9
:104361003CAA3DA93E900001122B0BFD900955E09E
:10437100F556A3E0129FDD900CEFEEF0A3EFF0AB4A
:084381003CAA3DA93E02499B44
:10438900900C31E0FF64E16004EFB4E20512BD6A0C
:10439900803CAB3CAA3DA93E900007122B0BFE9036
:1043A9000008122B0B7C002400F548EC3EF54790E1
:1043B9000955E0FCA3E0FDE92409F9E43AFA854747
:1043C9005D85485E7F027E0012B7E1129FC7900C9F
:0F43D900EFEEF0A3EFF0AB3CAA3DA93E02499BEB
:1043E800900C31E0FF64E16004EFB4E20512BD6AAD
:1043F800803AE53B75F013A4249BF582E43402F57A
:104408008312305CE92407F9E43AFA12BD16909752
:104418008DE493FFAB3CAA3DA93E900001122B0B03
:10442800FD7556007557807B06129FE1900CEFEEE4
:10443800F0A3EFF0AB3CAA3DA93E02499B900C319A
:10444800E0FF64E16004EFB4E20512BD6A804D123A
:10445800C031AB3CE53E2407F9E4353DFA900CF158
:10446800E0FEA3E0FFC39480EE94005006AC06ADD6
:104478000780047C007D8012BA597B017A0C79355B
:1044880012BD16900018E06010900CA5E030E4040E
:104498007F0080027F0112C089129FC7900CEFEE47
:0D44A800F0A3EFF0AB3CAA3DA93E02499BFA
:1044B500900C31E0FFF547AB3CAA3DA93E900001C9
:1044C500122B0B2431F582E4340CF583E4F0EF6410
:1044D500E16007900C31E0B4E20C900001122B0B67
:1044E500FF7D2002456B129FC1900CEFEEF0A3EF0C
:1044F500F0AB3CAA3DA93E900007122B0BFF12A87A
:04450500A70245972D
:10450900900C31E0FFF547AB3CAA3DA93E90000570
:10451900122B0BFE7C00B441047D0080027D058CCA
:10452900488D49EE900C30E024FFFD900C2FE034CB
:10453900FFFC8C4A8D4BAB3CAA3DA93E9000011271
:104549002B0B2431F582E4340CF583E4F0EF64E1BC
:104559006007900C31E0B4E217900001122B0BFFB9
:104569007D2012BD79900CEFEEF0A3EFF00249E245
:10457900129FC1900CEFEEF0A3EFF0E4FFFE12BE24
:104589004C7B01AD4BAC4AAF49AE4812BAC8900C4E
:0745990031E547F00249E2A1
:1045A000129FC7900CEFEEF0A3EFF0AB3CAA3DA931
:1045B0003E900001122B0B2431F582E4340CF5837C
:1045C000E4F012007E8F47E54730E7F6E4F58443D8
:0545D000EF010249E2C9
:1045D500129FC7900CEFEEF0A3EFF07B017A027902
:0C45E5008E7F007EE17D007C00129BC8F0
:1045F100900CE3122FD100004650E4FFFEFDFC9029
:104601000CE3122F89D3122EA24017900CE3122F24
:104611007D74FFFBFAF9F8122D4F900CE3122FC5B0
:0246210080D83F
:10462300E4F584C2ACC298D29975840153E7BFC242
:0346330098D29981
:1046360075840F30E815C39002CFE094099002CE3E
:10464600E094004006E4F58443EF01E4F5843098F5
:1046560017758401309911C299F584859947C298D6
:10466600B2B47584018547997584013098C2E4F522
:10467600843099BCC299758401859947C298B2B5B0
:05468600F58485479951
:10468B0080A9129FC7900CEFEEF0A3EFF0AB3CAA02
:10469B003DA93E900001122B0B2431F582E4340C22
:1046AB00F583E4F0900018E070030249E2900007F4
:1046BB00122B0BFF12C0890249E2129FC7900CEF1D
:1046CB00EEF0A3EFF0AB3CAA3DA93E900001122BFC
:1046DB000B2431F582E4340CF583E4F01232DB0267
:1046EB0049E2129FC7900CEFEEF0A3EFF0AB3CAAA0
:1046FB003DA93E900001122B0B2431F582E4340CC2
:10470B00F583E4F01259E20249E2129FC7900CEFD5
:10471B00EEF0A3EFF0AB3CAA3DA93E900001122BAB
:10472B000B2431F582E4340CF583E4F01294AE02E1
:10473B0049E2129FC7900CEFEEF0A3EFF0AB3CAA4F
:10474B003DA93E900001122B0B2431F582E4340C71
:10475B00F583E4F01260D60249E2129FC7900CEF8A
:10476B00EEF0A3EFF0AB3CAA3DA93E900001122B5B
:10477B000B2431F582E4340CF583E4F01266570216
:10478B0049E2129FC7900CEFEEF0A3EFF0AB3CAAFF
:10479B003DA93E900001122B0B2431F582E4340C21
:1047AB00F583E4F0127CCC0249E2129FC7900CEF28
:1047BB00EEF0A3EFF0AB3CAA3DA93E900001122B0B
:1047CB000B2431F582E4340CF583E4F01278860285
:1047DB0049E2129FC7900CEFEEF0A3EFF0AB3CAAAF
:1047EB003DA93E900001122B0B2431F582E4340CD1
:1047FB00F583E4F012888A0249E2AB3CAA3DA93E5C
:10480B00900001122B0B2431F582E4340CF583E478
:10481B00F0900005122B0BFF12850A0249E2900261
:10482B00FB74FF024906900C31E064F07027754F62
:10483B0001755000755105AB3CAA3DA93E12B376EC
:10484B00129FC7900CEFEEF0A3EFF0057FE57F70A2
:10485B001E057E801AAB3CAA3DA93E900001122B8F
:10486B000BFF7D0812BD79900CEFEEF0A3EFF0ABD0
:10487B003CAA3DA93E02499B900C31E0B4F114AB2C
:10488B003CAA3DA93E900007122B0BFF900005E0C0
:10489B006F6072AB3CAA3DA93E900001122B0BFF3F
:1048AB007D0812BD79900CEFEEF0A3EFF0AB3CAAB4
:1048BB003DA93E900001122B0B2431F582E4340C00
:0448CB00F583E4F09D
:1048CF00900CE7122FD10000AFC8E4FFFEFDFC9063
:1048DF000CE7122F89D3122EA24017900CE7122F3C
:1048EF007D74FFFBFAF9F8122D4F900CE7122FC5CC
:0248FF0080D85F
:104901009002FB74F2F0900CB77401F00249E212CC
:104911009FC7900CEFEEF0A3EFF0AB3CAA3DA93E90
:10492100900001122B0B2431F582E4340CF583E461
:01493100F095
:10493200900CEB122FD10000AFC8E4FFFEFDFC90FB
:104942000CEB122F89D3122EA24017900CEB122FD0
:104952007D74FFFBFAF9F8122D4F900CEB122FC564
:0249620080D8FB
:10496400AF7FAE7E12BF680249E2900CB77401F0CB
:10497400AB3CAA3DA93E900007122B0B9002FBF022
:1049840090978DE493FF129FD3900CEFEEF0A3EF7A
:10499400F0AB3CAA3DA93E900001122B0B2431F54B
:1049A40082E4340CF583E4F08034AB3CAA3DA93EA8
:1049B400900001122B0B2431F582E4340CF583743E
:1049C40064F0900001122B0BFF7D0212BD79900C54
:0E49D400EFEEF0A3EFF074FF900CEFF0A3F005
:0849E200900CEFE0FEA3E0FFE2
:0149EA0022AA
:0ABDB9008B4C8A4D894E8C4F8D5043
:10BDC30012BC0A8E518F52AB4CAA4DA94E8550829C
:10BDD300854F83122B0B7F00FEE5502401FDE435D4
:10BDE3004F8D82F583122B0B2FFFE43EFEE552B5F8
:0FBDF3000709E551B50604E4FEFF227EFF7FFF3E
:01BE0200221D
:0FBD6A00AB3CAA3DA93E900001122B0BFF7D20A0
:10BD7900AE07EE90978D93FB3395E0FA90029B7591
:10BD8900F013EB123040EA75F013A42583F5831202
:10BD9900305C900007ED122B7D90978DE493FFADF9
:10BDA900067556007557017B15129FE1E4FEFF22C7
:06B376008B4C8A4D894E4C
:10B37C00E4F552F553900003122B0BFE90000412CF
:10B38C002B0BFDEEF554EDF555E4F552F553E55563
:10B39C0024FEFFE55434FFFEC36480948250028087
:10B3AC00047E027F00C3E5539FEE6480F8E552648F
:10B3BC0080985048AB4FAA50A951C003C002C0019D
:10B3CC00122AF2FFAB4CAA4DA94EE5532407FDE41B
:10B3DC0035528D82F583122B0BFE74592553F58251
:10B3EC0074003552F583EEF06FD001D002D0031209
:10B3FC002B6B0553E5537096055280927E00E57FCA
:10B40C005401FF900955E0FCA3E0FD7B017A007923
:0AB41C0059857E5D857F5E02B7E171
:04BF68008E4C8F4D1F
:10BF6C0090FE00E493FE740193FF900CF6EEF0A3A8
:10BF7C00EFF0BE8012BFFE0F7B007AFE7902900CB0
:0EBF8C00F312306502314AAF7FAE7E12FE0026
:01BF9A002284
:10BFCE00564F4C5453004F4E004F46460044726934
:10BFDE0076657241004361724100547261636B4138
:10BFEE0000416E616C6F6778004469676974616CBB
:02BFFE007800C9
:06AE80008B3B8A3C893D7A
:10AE86007B017A007959E4F558F5597F107E021254
:10AE9600B6BCAB3BAA3CA93DE475F004122D039069
:10AEA6000C2FE0FFA3E0AB3EAA3FA940CF8FF012E4
:10AEB6002D03E4900CE3F0900CE3E0FFC3941540FF
:10AEC6000302AFA775F019EF900059123040E0FE6B
:10AED600A3E0F47002EEF4700302AF9E900CE3E080
:10AEE60075F01990005B123040E0FCA3E0F47002AC
:10AEF600ECF4700302AF9EAB3BAA3CA93D122C6852
:10AF0600FDACF075F019EF90005B123040E0FEA347
:10AF1600E0D39DEE9C4014900CE3E075F019900090
:10AF26005B123040E0FEA3E0FF8004AE04AF05AB49
:10AF36003BAA3CA93DEE8FF0122D03900CE3E0FFF7
:10AF460075F01990006D123040E0FCA3E0F4700239
:10AF5600ECF46044AB3EAA3FA940122C68FDACF06D
:10AF660075F019EF90006D123040E0FEA3E0C39D2E
:10AF7600EE9C5014900CE3E075F01990006D1230C1
:10AF860040E0FEA3E0FF8004AE04AF05AB3EAA3F5F
:10AF9600A940EE8FF0122D03900CE3E004F002AE10
:10AFA600BDAB3BAA3CA93DE475F001122CCBAB3EF0
:0BAFB600AA3FA94074FFF5F0022CCB6D
:068EF5008B3B8A3C893D25
:108EFB0090003F122FD1FFFFFFFF90002B122FD1BD
:108F0B00FFFFFFFF74FF900019F0A3F0900016F025
:108F1B00A3F07B017A0C79E37558007559017F102A
:108F2B007E0212B6BC900CE3E0900EF3F0900CE4D2
:108F3B00E0900EF4F0900CE5E0900EF5F0900CE65E
:108F4B00E0540F900EF6F0E024FC600C240270103D
:108F5B00900CB57414F0800E900CB57428F080064C
:108F6B00900CB5740AF09000067402F0A3740FF025
:108F7B009002CAE030E7034403F0900955E0FCA3EC
:108F8B00E0FD7F017E0012BB3512BBA11200A67B58
:108F9B00017A0C79E3E4F558F5597F107E0212B68D
:108FAB00BCAB3BAA3CA93DE475F004122D03E49045
:108FBB000EF7F0900C2FE0FFA3E0AB3EAA3FA940C9
:108FCB00CF8FF0122D03E4900EF8F0900EF8E0FF27
:108FDB00C3941540030290D175F019EF900CE31276
:108FEB003040E0FEA3E0FFBEFF16BFFF13900EF76D
:108FFB00E060030290C8A3E004900EF7F00290C863
:10900B00900EF8E0FF75F019900CE5123040E0FC83
:10901B00A3E0F47002ECF470030290C8AB3BAA3CE3
:10902B00A93D122C68FDACF075F019EF900CE51210
:10903B003040E0FEA3E0D39DEE9C4014900EF8E090
:10904B0075F019900CE5123040E0FEA3E0FF8004B0
:10905B00AE04AF05AB3BAA3CA93DEE8FF0122D033E
:10906B00900EF8E0FF75F019900CF7123040E0FC11
:10907B00A3E0F47002ECF46044AB3EAA3FA94012AB
:10908B002C68FDACF075F019EF900CF7123040E046
:10909B00FEA3E0C39DEE9C5014900EF8E075F01902
:1090AB00900CF7123040E0FEA3E0FF8004AE04AF5B
:1090BB0005AB3EAA3FA940EE8FF0122D03900EF8A0
:1090CB00E004F0028FD6900EF7E07002FF22AB3E69
:1090DB00AA3FA940122C68FFAEF0AB3BAA3CA93DBE
:1090EB00122C68C39FE5F09E40037F0022E475F0CD
:1090FB0001122CCBAB3EAA3FA94074FFF5F0122C0A
:10910B00CBAB3BAA3CA93D122C68FFAEF0D3940528
:10911B00EE9400400280047E007F05900EF7E0FD88
:10912B0075F019900CCA123040EEF0A3EFF09002DC
:10913B00CAE0FF600EAB3EAA3FA940122C68FBAA07
:10914B00F080047AFF7BFF75F019ED900CDC123088
:10915B0040EAF0A3EBF075F019ED900CDE12304005
:10916B0074FFF0A3F075F019ED900CDB123040EFAB
:10917B00F0900EF3E0FF75F019ED900CE01230401B
:10918B00EFF0900EF5E0FF75F019ED900CE1123059
:10919B0040EFF0900EF4E0FF75F019ED900CE21239
:1091AB003040EFF0900EF6E0FF75F019ED900CDA11
:1091BB00123040EFF07B017A0C79E3E4F55DF55E5C
:0F91CB007D107C027F02FE12B7E1900EF7E0FFED
:0191DA002272
:0AAD22008F3F8C408D418A428B4325
:10AD2C00153F7B017A0E79FBE4F558F5597F107EBF
:10AD3C000212B6BC74FFFFFEFDFC90002B122F8993
:10AD4C00C3122EB8705F75F019E53F900F051230E5
:10AD5C0040122FD1FFFFFFFF75F019E53F900EFF5A
:10AD6C00123040122FD1FFFFFFFF75F019E53F9015
:10AD7C000F0912304074FFF0A3F075F019E53F9005
:10AD8C000F0312304074FFF0A3F075F019E53F90FB
:10AD9C000EFD12304074FFF0A3F075F019E53F90F2
:10ADAC000EFB02AE6390002B122F7D75F019E53F60
:10ADBC00900EFF123040122FC5900016E0FEA3E05B
:10ADCC00FF75F019E53F900F03123040EEF0A3EF42
:10ADDC00F090003F122F7D75F019E53F900F051292
:10ADEC003040122FC5900019E0FEA3E0FF75F0195A
:10ADFC00E53F900F09123040EEF0A3EFF075F0191B
:10AE0C00E53F900EFD123040E540F0A3E541F09097
:10AE1C0002CAE0602A75F019E53F900F0D12304020
:10AE2C00E0FEA3E0F47002EEF4601475F019E53F57
:10AE3C00900F0F123040E542F0A3E543F0802075EF
:10AE4C00F019E53F900F0F12304074FFF0A3F0752E
:10AE5C00F019E53F900F0D12304074FFF0A3F07B1A
:10AE6C00017A0E79FBE4F55DF55E7D107C027F02C4
:04AE7C00FE02B7E13A
:10ABB000E4900EF9F0A3F07B017A0C79E7F558F5F3
:10ABC000597F107E0212B6BCE4900EF9F0A3F0900B
:10ABD0000EF9E0FEA3E0FFC39415EE9400400302DB
:10ABE000AD21900CE775F019EF123040EE75F019B9
:10ABF000A42583F583E0FEA3E0F47002EEF4700375
:10AC000002AD14900EF9E0FEA3E0900CEF75F01980
:10AC1000123040EE75F019A42583F583E0FCA3E023
:0AAC2000F47002ECF4600302AD14BE
:10AC2A00900CF975F019EF123040EE75F019A42561
:10AC3A0083F583E0FDA3E0900CE3CDF0A3EDF09063
:10AC4A000CFB75F019EF123040EE75F019A425834C
:10AC5A00F583E0FFA3E0900CE5CFF0A3EFF0900EB0
:10AC6A00F9A3E0900CE775F019123040EE75F0196F
:10AC7A00A42583F583E0FFA3E0900EF7CFF0A3EFBE
:10AC8A00F0900C30E024FFFF900C2FE034FFFEC35D
:10AC9A00900EF8E09F900EF7E09E506E7B017A0CC2
:10ACAA0079E7E0F558A3E0F5597F107E0212B6BCA9
:10ACBA0074FFFFFEFDFC900CE7122F89C3122EB819
:10ACCA00703B900CE5E0B4FF12A3E0B4FF0D900CCA
:10ACDA00E3E0FFA3E0A3CFF0A3EFF0900EF9A3E027
:10ACEA0004FF900EF8E024FFFD900EF7E034FFFC1D
:10ACFA00900CE5E0FAA3E0FB12AD22800D900EF76E
:0AAD0A00E475F001122C3C02AC8B42
:0DAD1400900EF9E475F001122C3C02ABCF5B
:01AD2100220F
:02A8A7008F4CD4
:10A8A9007B017A0C79F3E4F558F5597F107E021291
:10A8B900B6BC75F019E54C900CDA123040E0FEA3F5
:10A8C900E0F47002EEF4603B75F019E54C900CDC95
:10A8D900123040E0FEA3E0F47002EEF4602575F05A
:10A8E90019E54C900CDA123040E0FEA3E0FF75F058
:10A8F90019E54C900CDC123040E0FCA3E0FD7B0133
:10A9090012BAC87B017A0C79F3E4F558F5597F102E
:10A919007E0212B6BC75F019E54C900CEC12304071
:10A92900E0FEA3E0F47002EEF4603B75F019E54C2B
:10A93900900CEE123040E0FEA3E0F47002EEF460F9
:10A949002575F019E54C900CEE123040E0FEA3E0BD
:10A95900FF75F019E54C900CEC123040E0FCA3E0D7
:10A96900FD7B0112BAC87B017A0C79F3E4F558F53D
:10A97900597F107E0212B6BC75F019E54C900CEEA9
:10A9890012304074FFF0A3F075F019E54C900CEC0F
:10A9990012304074FFF0A3F075F019E54C900CDC0F
:10A9A90012304074FFF0A3F075F019E54C900CDA01
:10A9B90012304074FFF0A3F075F019E54C900CE4E7
:10A9C900123040122FD1FFFFFFFF75F019E54C90AF
:10A9D9000CDE123040122FD1FFFFFFFF75F019E591
:10A9E9004C900CE812304074FFF0A3F075F019E5B3
:10A9F9004C900CE212304074FFF0A3F075F019E5A9
:10AA09004C900CEB123040E4F075F019E54C900CC9
:10AA1900EA123040E4F07B017A0C79F3F55DF55EDA
:0AAA29007D107C027F02FE02B7E1FF
:1052BA00E4F53C7B017A0D7908F5587559017F10A0
:1052CA007E0212B6BC74FFFFFEFDFC900D08122F81
:1052DA0089C3122EB860030253B8753C01900D0AB7
:1052EA00F0900D09F0900D08F0900D0C7480F0907C
:0852FA000D0B7402F0E4F53B1A
:1053020078E37C0C7D017BFF7ABF79DB7E007F082E
:10531200122ACCE53B2441900CE9F0E53B75F010F4
:10532200A4240DF9740D35F0A801FC7D017B017AEE
:065332000C79E312321CAD
:0A533800053BE53BB40CC3E4F53B74
:1053420078EB7C0C7D017BFF7ABF79E37E007F05E1
:10535200122ACCE53B2441900CEEF0E53B75F016A9
:10536200A424CDF9740D35F0A801FC7D017B017AEE
:105372000C79EB12321C75F016E53B900DDD123004
:1053820040E4F0A37404F075F016E53B900DDF12D3
:1053920030407417F0A37470F075F016E53B900D71
:0B53A200E1123040741BF0A37458F0BF
:1053AD00053BE53B640C708D02548F900D08E0D3E6
:1053BD00940C4005E4F0753C01900D09E0D3941078
:1053CD004005E4F0753C01900D0AE0D3940C4005C6
:1053DD00E4F0753C01E4F53B75F010E53B900D0DE7
:1053ED00123040E0FF12005E401E75F010E53B905C
:1053FD000D0D123040E0601075F010E53B900D0D75
:10540D00123040E4F0753C01053BE53BC3940C4084
:10541D00C7E4F53B75F016E53B900DCD123040E03D
:10542D00FF12005E405375F016E53B900DCD123026
:10543D0040E0604575F016E53B900DCD123040E42F
:10544D00F075F016E53B900DDD123040E4F0A374DD
:10545D0004F075F016E53B900DDF1230407417F037
:10546D00A37470F075F016E53B900DE112304074A9
:10547D001BF0A37458F0753C01053BE53BC3940C40
:10548D004092E53C60177B017A0D7908755D0075DA
:10549D005E017D107C027F027E0012B7E17B017AF6
:1054AD000D79087558007559027F107E0212B6BC31
:1054BD00E4F53C900D08E0F46003025559A3E0F4C7
:0A54CD006003025559753C01F53BE0
:1054D70078F07C0C7D017BFF7ABF79E87E007F073F
:1054E700122ACCE53B2441900CF5F0E53B75F01C06
:1054F700A42408F9740D35F0A801FC7D017B017A1D
:105507000C79F012321C75F01CE53B900D1C123023
:1055170040122FD10000000075F01CE53B900D18DC
:10552700123040122FD10000000075F01CE53B90AF
:105537000D20123040E4F0A3F075F01CE53B900D10
:0855470022123040E4F0A3F051
:10554F00053BE53B64107080807EE4F53B75F01CF5
:10555F00E53B900D08123040E0FF12005E40607591
:10556F00F01CE53B900D08123040E0605275F01CC6
:10557F00E53B900D08123040E4F075F01CE53B90D0
:10558F000D1C123040122FD10000000075F01CE5E9
:10559F003B900D18123040122FD10000000075F013
:1055AF001CE53B900D20123040E4F0A3F075F01C89
:1055BF00E53B900D22123040E4F0A3F0753C01055D
:1055CF003BE53BC394104085E53C60177B017A0DAA
:1055DF007908755D00755E027D107C027F027E008A
:1055EF0012B7E1E4F53C7B017A0D7908F55875594E
:1055FF00047F107E0212B6BC900D08E0F460030227
:10560F0056C3A3E0F460030256C3753C01F53B7526
:10561F00F00CE53B900D0C123040122FD100000022
:10562F000075F00CE53B900D08123040122FD100A1
:10563F0000000075F00CE53B900D10123040E4F0C7
:10564F00A3F075F00CE53B900D12123040E4F0A37F
:0B565F00F0053BE53BB410B7E4F53B61
:10566A0075F014E53B900DCA123040E4F0A3F075D2
:10567A00F014E53B900DC8123040E4F0A3F0F53D7C
:10568A00F53EE53E25E0FFE53D33FE75F014E53BCA
:10569A00900DCC123040E5822FF582E5833EF583EA
:1056AA00E4F0A3F0053EE53E7002053D6408453D81
:0256BA0070D0AE
:1056BC00053BE53BB40CA7E53C60177B017A0D7903
:1056CC0008755D00755E047D107C027F027E001201
:1056DC00B7E1E4F53C7B017A0D7908F5587559036F
:1056EC007F107E0212B6BC74FFFFFEFDFC900D080D
:1056FC00122F89C3122EB860030258A2753C01F513
:01570C003B61
:10570D0078F77C0C7D017BFF7ABF79EF7E007F08F7
:10571D00122ACCE53B2430900CFDF0E53B75F028CA
:10572D00A42408F9740D35F0A801FC7D017B017AE4
:10573D000C79F712321CE53B75F028A42414F9748A
:10574D000D35F0A801FC7D017BFF7ABF79CE1232B9
:10575D001C75F028E53B900D201230407414F07547
:10576D00F028E53B900D21123040122FD1000000A2
:10577D000075F028E53B900D25123040122FD141D8
:10578D00A0000075F028E53B900D29123040122F36
:10579D00D141A0000075F028E53B900D2D12304051
:1057AD007401F075F028E53B900D2E123040E4F0B9
:0E57BD0075F028E53B900D2F12304074F8F087
:0E57CB00053BE53B6404600302570DE4F53B2B
:1057D90078FF7C0C7D017BFF7ABF79F77E007F091A
:1057E900122ACCE53B2430900D06F0E53B75F024F8
:1057F900A424A8F9740D35F0A801FC7D017B017A78
:105809000C79FF12321CE53B75F024A424B4F97419
:105819000D35F0A801FC7D017BFF7ABF79D41232E6
:105829001CE53B75F024A424C0F9740D35F0A801DA
:0C583900FC7D017BFF7ABF79D712321C86
:10584500053BE53BB4078DE4F53B75F005E53B907D
:105855000EA6123040E4F0A3F075F005E53B900E7E
:10586500A4123040E4F0A3F075F005E53B900EA8D6
:105875001230407401F0053BE53BB402CDE4F53B45
:1058850074AE253BF582E4340EF583E4F0053BE583
:105895003BB402EC900EAE7403F00259C6E4F53B3E
:1058A50075F028E53B900D08123040E0FF12005ED0
:1058B500500302594875F028E53B900D0812304019
:1058C500E0700302594875F028E53B900D08123049
:1058D50040E4F075F028E53B900D2012304074143B
:1058E500F075F028E53B900D21123040122FD100C4
:1058F50000000075F028E53B900D25123040122F71
:10590500D141A0000075F028E53B900D29123040EB
:10591500122FD141A0000075F028E53B900D2D1206
:1059250030407401F075F028E53B900D2E123040A3
:10593500E4F075F028E53B900D2F12304074F8F037
:10594500753C01053BE53BC3940450030258A5E4AF
:10595500F53B75F024E53B900DA8123040E0FF12B1
:10596500005E405475F024E53B900DA8123040E0F0
:10597500604675F024E53B900DA8123040E4F0E553
:105985003B75F024A424B4F9740D35F0A801FC7D11
:10599500017BFF7ABF79D412321CE53B75F024A454
:1059A50024C0F9740D35F0A801FC7D017BFF7ABF99
:1059B50079D712321C753C01053BE53BC394074082
:1059C50091E53C60177B017A0D7908755D00755E80
:0C59D500037D107C027F027E0012B7E10F
:0159E10022A3
:10BBA1008584417B017A0C793512BD16900018E02D
:10BBB100702EF58475D98075D84075DA4275DB42EF
:10BBC100900C9AE0A3E0F5FB900C9AE0A3E0F5FC61
:10BBD100900C9CE0A3E0F5FD900C9CE0A3E0F5FE49
:10BBE100900CB5E0FD7C007E057F00122BB18E7BB1
:10BBF1008F7CE4F58475E8C075D107F5BAF5BB759E
:08BC0100BC7043E70285418499
:01BC09002218
:03007B0002A5617A
:10A56100C0E0C0F0C083C082C0D075D000C000C0C0
:0BA5710002C003C004C005C006C00704
:10A57C00758400C2EDE57D25E0242FF582E43400DE
:10A58C00F583E5BF85BEF0122C3CE57D1230F7A5B6
:10A59C00B700A5BF01A5C702A5DA03A5E204A5EA89
:10A5AC0005A5F206A5FA070000A60075BB01757D8E
:10A5BC0001804175BB02757D028039900018E06006
:10A5CC000575BB07800375BB08757D03802675BBBD
:10A5DC0003757D04801E75BB04757D05801675BBE7
:10A5EC0005757D06800E75BB06757D07800675BBEF
:10A5FC0000757D00E57C157C7002157B14457B6035
:04A60C000302A6F3AC
:10A61000900CB5E0FF74A08FF0841313543F7522A3
:10A6200000F523E4FBFAEB64034A7026900018E07F
:10A630007020900CB5E075F00A84FF7E0090003524
:10A64000E0FCA3E0FD122B9F900021EEF0A3EFF0C1
:10A650008037EB25E0FFEA33FE742F2FF58274007C
:10A660003EF583E0FEA3E0FFAC22AD23122BB1AC9C
:10A6700006AD07EB25E0FFEA33FE741B2FF582746D
:10A68000003EF583ECF0A3EDF0EB25E0FFEA33FEAE
:10A69000742F2FF58274003EF583E4F0A3F00BBB1A
:10A6A00000010AEB64084A600302A626900004E059
:10A6B0007029900C94E0FEA3E0FF900C93E02FFF34
:10A6C000900C92E03EFE90001BE0FCA3E0FDC3EF87
:10A6D0009DFFEE9C90001BF0A3EFF0900CB5E0FD09
:10A6E0007C007E057F00122BB18E7B8F7C9002B5A3
:03A6F0007401F002
:0CA6F300E57D7003D38001C34002D2EC6F
:10A6FF00D007D006D005D004D003D002D000D0D0E0
:09A70F00D082D083D0F0D0E032FA
:03B296000119FF9C
:10B9E700AF8475840F75E1EF75E20775E34475A4BD
:10B9F700157580EA75ADFF75A53D759001E4F5A64F
:10BA070075A0FF75A7F875B07F759CFFF5C8F59D04
:10BA170075D8FFF59E75E8FFE5E854E0FEBEC00463
:10BA27007E0180027E00900018EEF0600875F8979E
:10BA3700759FF78006759FFF75F8F720D80330D9F3
:10BA47000E9002FA7401F0900018E06002D2FB8FAA
:01BA5700846A
:01BA580022CB
:10BE9500AF84E4F584F5D875D980F5F9F5FAF5E9B7
:10BEA50075EA0C75DC4675D840900CB9F0A3F09096
:10BEB5000269F0A3F0F584C28C758905438E08F5F7
:10BEC5008AF58CC28DD28C75840175888075893010
:07BED500D2A943E6308F847F
:01BEDC002243
:0DC12300AF84E4F584C289D288D2A88F844D
:01C1300022EC
:03005B0002AA33C3
:10AA3300C0E0C0F0C083C082C0D075D000C000C0E9
:0DAA430001C002C003C004C005C006C0076A
:10AA500053E6CF758400AF8CEFFEAD8A7C00E42D09
:10AA6000F525EC3EF524900CB9E0FEA3E0FFC3E52C
:10AA7000259FFFE5249EFED3EF9464EE94005003DF
:10AA800002AB8CC28C758A00758C00C28DD28CE5AD
:04AA900019F4704104
:10AA9400F519F526AE24AF25E52625E02443F582F5
:10AAA400E43400F583EEF0A3EFF0E4FCFDE51D2FA4
:10AAB400FFE51C3EFEED351BFDEC351A8F1D8E1C8B
:0EAAC4008D1BF51A0526E526B404C99002691B
:10AAD20002AB7E0519E519C394044003751900E51C
:10AAE2001925E02443F582E43400F583E0FEA3E077
:10AAF200FBC3E51D9BFFE51C9EFEE51B9400FDE5E7
:10AB02001A94008F1D8E1C8D1BF51AAE24AF25E5FD
:10AB12001925E02443F582E43400F583EEF0A3EF37
:10AB2200F0E4FCFDE51D2FFFE51C3EFEED351BFDAF
:10AB3200EC351A8F1D8E1C8D1BF51AE47B04FAF975
:10AB4200F8AC1A122DF58E248F25C390026AE09577
:10AB520025FF900269E09524FEC394004006AC06EE
:10AB6200AD078009C3E49FFFE49EFCAD0790026934
:10AB7200E0C313FFC3ED9FEC94004007E524F0A36C
:10AB8200E525F0900CB9E4F0A3F07584015388CF69
:03AB920043E63067
:10AB9500D007D006D005D004D003D002D001D00014
:0BABA500D0D0D082D083D0F0D0E032BE
:0300530002BEDD0D
:10BEDD00C0E0C083C082C0D075D000C004C005C012
:10BEED0006C00753E6CF758400AF8CEFFEAD8A7C9C
:10BEFD0000E42DFFEC3E900CB9F0A3EFF07584013A
:10BF0D005388CF43E630D007D006D005D004D0D02B
:07BF1D00D082D083D0E03296
:03000B0002BF9B96
:10BF9B00C0E0C083C08253E6CF758400C28C758A23
:10BFAB0000758C00D28C900CB9E4F0A3F090026970
:10BFBB00F0A3F07584015388CF43E630D082D08351
:03BFCB00D0E03291
:0300030002B8EE52
:10B8EE00C0E0C0F0C083C082C0D075D000C000C020
:09B8FE0003C004C005C006C00728
:10B90700A2AFE433FB900CBC7401F0900CB5E0FDE2
:10B917007C007E057F00122BB18E7B8F7C757D00AE
:10B927007F1090002FE4F0A3DFFCC2AF53E7FE7552
:10B937008400C2ECC2ED75BB0075840175C8007444
:0EB94700FFF5CDF5CC43E70143C8042B92AFCA
:10B95500D007D006D005D004D003D000D0D0D082F7
:07B96500D083D0F0D0E032E6
:02FDFE0080FE85
:10743D00257300506C61636520756E697420666CF0
:10744D006174206F6E206C6576656C207375726645
:10745D006163652E00466C6970206F7665722E2013
:10746D004661636520646F776E2E00486F6C6420F3
:10747D00766572746963616C2C2047505320616E80
:10748D0074656E6E61206A61636B2075702E0048A5
:10749D006F6C6420766572746963616C2C20475043
:1074AD005320616E74656E6E61206A61636B20643A
:1074BD006F776E2E005374616E64206F6E2072694B
:1074CD0067687420736964652E005374616E64205F
:1074DD006F6E206C65667420736964652E00496E4D
:1074ED0076657274696E6720582056616C75657388
:1074FD0000496E76657274696E6720592056616C0D
:10750D0075657300496E76657274696E67205A20D1
:10751D0056616C7565730020005A65726F20506F4F
:10752D00696E74733A20582025752C2059202575C5
:10753D002C205A20257500582052616E67653A201F
:10754D0025752C20257500592052616E67653A20EE
:10755D0025752C202575005A2052616E67653A20DD
:10756D0025752C2025750053746F72696E67204345
:10757D00616C6962726174696F6E2044617461201F
:10758D00696E20466C6173682E0043616C6962728E
:10759D006174696F6E20436F6D706C6574652E003C
:1075AD005A65726F696E6720582C20592050574DBF
:1075BD000046696E616C2043616C3A2025752C255F
:1075CD00750046696E616C2056616C3A2025752CEC
:1075DD0025750044617461666C6173682054657330
:1075ED0074002A2A20466C617368204641494C4537
:1075FD0044202A2A2C20706167652025642C206286
:10760D0079746525640050616765202564206F6B72
:10761D000054657374205061737365642E00496E58
:10762D00707574205465737400444947494E3A206F
:10763D000031003000583A2025752C20593A20256C
:10764D0075005A3A2025752C2035563A202575009F
:10765D0035563A2025752C20543A20257500413099
:10766D003A2025752C2041313A2025750041323ABA
:10767D002025752C2041333A20257500496E7075F3
:10768D00745465737420436F6D706C6574652E0052
:10769D004F7574707574205465737400626974202D
:1076AD002564004F75747075745465737420436F41
:1076BD006D706C6574652E00412F44205465737494
:1076CD0000426F61726420666C61742E2054657384
:1076DD00742066697874757265206174746163686D
:1076ED0065642E005820205920203556205A202020
:1076FD0041302041312041322041330031202000E2
:10770D003020200041445465737420504153532E52
:10771D00002A2A20414454657374204641494C2067
:10772D002A2A004469676974616C20494F205465A9
:10773D007374004F6E6C792056616C696420666FAE
:10774D007220535532202D2045786974696E672E4D
:10775D0000446967494F5465737420506F696E74A6
:10776D00202564002A2A20204641494C202A2A003F
:10777D00446967494F5465737420504153532E002B
:10778D002A2A20446967494F54657374204641493C
:10779D004C202A2A004175746F4F6E205465737406
:1077AD0000456E61626C696E67204175746F4F6E36
:1077BD002E2E2E0044726F7070696E672035562024
:1077CD00456E61626C650044697361626C696E67D8
:1077DD00204175746F4F6E2E2E2E004175746F4FB4
:1077ED006E5465737420504153532E00534D4275A2
:1077FD00732054657374202D204D61737465720070
:10780D0025642042797465732C20256420437963A7
:10781D006C657300546F74616C204572726F7220C9
:10782D00436F756E742C20257500534D4275732072
:10783D005465737420506173732E00534D427573EC
:10784D002054657374202D20536C61766500534D63
:10785D0042757320536C61766520546573742043B3
:10786D006F6D706C6574652E000102040810204068
:09787D0080010204081020408083
:1032DB0085844C9000047401F075840FFB7A0C7993
:1032EB003512BD16E4900C85F090978D93900C865B
:1032FB00F0A374C8F0900C9EE4F0A374EEF0900C65
:10330B00A0E4F0A37408F074FFFFFEFDFC900C88A2
:10331B00122F89C3122EB8700A900C88122FD1006D
:10332B00000000900C8CE0B4FF037401F0900C8D46
:10333B00E0B4FF037409F0900CA274FFF0A3F090BB
:10334B000C8E7408F0A3E4F0900C907408F0A3E4D6
:10335B00F0900C35F0900C49F0900C5DF0900C9CBB
:10336B00F0A374A0F0900C9AE4F0A374A0F0E49096
:0D337B0002CEF0A3F0D2B3D2B6D2B5D2B4D8
:10338800900CF3122FD1000107ACE4FFFEFDFC9076
:103398000CF3122F89D3122EA24017900CF3122F80
:1033A8007D74FFFBFAF9F8122D4F900CF3122FC51C
:0233B80080D8BB
:1033BA0090978EE493FF3395E0FE90029B75F0138D
:1033CA00EF123040EE75F013A42583F58312305CBA
:1033DA00E92407F9E43AFA7556FF75577475583DAA
:1033EA007559FF755A74755B40126BD690978EE4C7
:1033FA0093FF3395E0FE90029B75F013EF12304075
:10340A00EE75F013A42583F58312305CE92407F9DD
:10341A00E43AFA12000EEF2401F557E43EF556900D
:0C342A00978DE493FF7B737D01129FE1FE
:10343600900CF7122FD1000107ACE4FFFEFDFC90C3
:103446000CF7122F89D3122EA24017900CF7122FC9
:103456007D74FFFBFAF9F8122D4F900CF7122FC569
:0234660080D80C
:1034680012A38E900018E06065901115E0FEA3E0AD
:10347800FF901110E02FFF90110FE03EC313FEEFF5
:1034880013FF900C8EEEF0A3EFF0901117E0FEA35F
:10349800E0FF901112E02FFF901111E03EC313FEE0
:1034A800EF13FF900C90EEF0A3EFF0901119E0FEEF
:1034B800A3E0FF901114E02FFF901113E03EC31317
:1034C800FEEF13FF900CADEEF0A3EFF08003128136
:1034D80006900018E070030235B8C2B3C2B59097E1
:1034E8008EE493FF3395E0FE90029B75F013EF1284
:1034F8003040EE75F013A42583F58312305CE9247F
:1035080007F9E43AFA7556FF75577475583D7559B9
:10351800FF755A74755B62126BD690978EE493FFB1
:103528003395E0FE90029B75F013EF123040EE7574
:10353800F013A42583F58312305CE92407F9E43AF3
:10354800FA12000EEF2401F557E43EF55690978DD8
:0A355800E493FF7B737D01129FE1F5
:10356200900CFB122FD1000107ACE4FFFEFDFC9092
:103572000CFB122F89D3122EA24017900CFB122F94
:103582007D74FFFBFAF9F8122D4F900CFB122FC538
:0235920080D8DF
:1035940012A38E901119E0FEA3E0FF901114E02F06
:1035A400FF901113E03EC313FEEF13FF900CABEE3C
:1035B400F0A3EFF0C2B3C2B6C2B5C2B490978EE422
:1035C40093FF3395E0FE90029B75F013EF123040A9
:1035D400EE75F013A42583F58312305CE92407F912
:1035E400E43AFA7556FF75577475583D7559FF7569
:1035F4005A74755B78126BD690978EE493FF33956B
:10360400E0FE90029B75F013EF123040EE75F0135C
:10361400A42583F58312305CE92407F9E43AFA120D
:10362400000EEF2401F557E43EF55690978DE49390
:08363400FF7B737D01129FE191
:10363C00900CFF122FD1000107ACE4FFFEFDFC90B3
:10364C000CFF122F89D3122EA24017900CFF122FB1
:10365C007D74FFFBFAF9F8122D4F900CFF122FC559
:02366C0080D804
:10366E0012A38E901115E0FEA3E0FF901110E02F33
:10367E00FF90110FE03EC313FEEF13FF900C94EE7C
:10368E00F0A3EFF0900018E06021901119E0FEA376
:10369E00E0FF901114E02FFF901113E03EC313FED4
:1036AE00EF13FF900CA9EEF0A3EFF0D2B390978E2C
:1036BE00E493FF3395E0FE90029B75F013EF12300A
:1036CE0040EE75F013A42583F58312305CE92407D0
:1036DE00F9E43AFA7556FF75577475583D7559FFEA
:1036EE00755A74755B9C126BD690978EE493FF336C
:1036FE0095E0FE90029B75F013EF123040EE75F0E0
:10370E0013A42583F58312305CE92407F9E43AFA11
:10371E0012000EEF2401F557E43EF55690978DE416
:09372E0093FF7B737D01129FE102
:10373700900D03122FD1000107ACE4FFFEFDFC90B2
:103747000D03122F89D3122EA24017900D03122FAB
:103757007D74FFFBFAF9F8122D4F900D03122FC558
:0237670080D808
:1037690012A38E901115E0FEA3E0FF901110E02F37
:10377900FF90110FE03EC313FEEF13FF900C92EE82
:10378900F0A3EFF0D2B690978EE493FF3395E0FE65
:1037990090029B75F013EF123040EE75F013A425DB
:1037A90083F58312305CE92407F9E43AFA7556FF88
:1037B90075577475583D7559FF755A74755BC21202
:1037C9006BD690978EE493FF3395E0FE90029B753C
:1037D900F013EF123040EE75F013A42583F5831230
:1037E900305CE92407F9E43AFA12000EEF2401F5F6
:1037F90057E43EF55690978DE493FF7B737D011254
:023809009FE13D
:10380B00900D07122FD1000107ACE4FFFEFDFC90D9
:10381B000D07122F89D3122EA24017900D07122FCE
:10382B007D74FFFBFAF9F8122D4F900D07122FC57F
:02383B0080D833
:10383D0012A38E901117E0FEA3E0FF901112E02F5E
:10384D00FF901111E03EC313FEEF13FF900C96EEA7
:10385D00F0A3EFF0D2B590978EE493FF3395E0FE91
:10386D0090029B75F013EF123040EE75F013A42506
:10387D0083F58312305CE92407F9E43AFA7556FFB3
:10388D0075577475583D7559FF755A74755BD71218
:10389D006BD690978EE493FF3395E0FE90029B7567
:1038AD00F013EF123040EE75F013A42583F583125B
:1038BD00305CE92407F9E43AFA12000EEF2401F521
:1038CD0057E43EF55690978DE493FF7B737D01127F
:0238DD009FE169
:1038DF00900D0B122FD1000107ACE4FFFEFDFC9001
:1038EF000D0B122F89D3122EA24017900D0B122FF2
:1038FF007D74FFFBFAF9F8122D4F900D0B122FC5A7
:02390F0080D85E
:1039110012A38E901117E0FEA3E0FF901112E02F89
:10392100FF901111E03EC313FEEF13FF900C98EED0
:10393100F0A3EFF0D2B4900C92E0FEA3E0FFC390AD
:103941000C95E09F900C94E09E4003023A209097E2
:103951008EE493FF3395E0FE90029B75F013EF1216
:103961003040EE75F013A42583F58312305CE92411
:1039710007F9E43AFA7556FF75577475583D75594C
:10398100FF755A74755BEB126BD690978EE493FFBB
:103991003395E0FE90029B75F013EF123040EE7507
:1039A100F013A42583F58312305CE92407F9E43A86
:1039B100FA12000EEF2401F557E43EF55690978D6B
:0A39C100E493FF7B737D01129FE188
:1039CB00900D0F122FD1000107ACE4FFFEFDFC9010
:1039DB000D0F122F89D3122EA24017900D0F122FFD
:1039EB007D74FFFBFAF9F8122D4F900D0F122FC5B6
:0239FB0080D872
:1039FD00900C94E0F54DA3E0F54E900C92E0FFA3F2
:103A0D00E0900C94CFF0A3EFF0900C92E54DF0A365
:103A1D00E54EF0900C96E0FEA3E0FFC3900C99E00C
:103A2D009F900C98E09E4003023B0990978EE49383
:103A3D00FF3395E0FE90029B75F013EF123040EED0
:103A4D0075F013A42583F58312305CE92407F9E49E
:103A5D003AFA7556FF75577475583D7559FF755A75
:103A6D0074755BFE126BD690978EE493FF3395E0E1
:103A7D00FE90029B75F013EF123040EE75F013A41B
:103A8D002583F58312305CE92407F9E43AFA120034
:103A9D000EEF2401F557E43EF55690978DE493FF14
:073AAD007B737D01129FE114
:103AB400900D13122FD1000107ACE4FFFEFDFC9022
:103AC4000D13122F89D3122EA24017900D13122F0B
:103AD4007D74FFFBFAF9F8122D4F900D13122FC5C8
:023AE40080D888
:103AE600900C98E0F54DA3E0F54E900C96E0FFA300
:103AF600E0900C98CFF0A3EFF0900C96E54DF0A374
:103B0600E54EF0900018E07003023BFB900CABE032
:103B1600FEA3E0FFC3900CAEE09F900CADE09E408C
:103B260003023BFB90978EE493FF3395E0FE9002F1
:103B36009B75F013EF123040EE75F013A42583F554
:103B46008312305CE92407F9E43AFA7556FF755793
:103B56007475583D7559FF755A75755B11126BD69C
:103B660090978EE493FF3395E0FE90029B75F013D9
:103B7600EF123040EE75F013A42583F58312305C06
:103B8600E92407F9E43AFA12000EEF2401F557E4A6
:103B96003EF55690978DE493FF7B737D01129FE16E
:103BA600900D17122FD1000107ACE4FFFEFDFC902B
:103BB6000D17122F89D3122EA24017900D17122F10
:103BC6007D74FFFBFAF9F8122D4F900D17122FC5D1
:023BD60080D895
:103BD800900CADE0F54DA3E0F54E900CABE0FFA3E3
:103BE800E0900CADCFF0A3EFF0900CABE54DF0A357
:103BF800E54EF090978EE493FF3395E0FE90029B9C
:103C080075F013EF123040EE75F013A42583F58399
:103C180012305CE92407F9E43AFA7556FF755774CF
:103C280075583D7559FF755A75755B24126BD6909A
:103C3800978EE493FF3395E0FE90029B75F013EFA7
:103C4800123040EE75F013A42583F58312305CE939
:103C58002407F9E43AFA12000EEF2401F557E43E7E
:0F3C6800F55690978DE493FF7B737D01129FE1DA
:103C7700900D1B122FD1000107ACE4FFFEFDFC9055
:103C87000D1B122F89D3122EA24017900D1B122F36
:103C97007D74FFFBFAF9F8122D4F900D1B122FC5FB
:023CA70080D8C3
:103CA9007556FF755775755826900C8EE0F559A312
:103CB900E0F55A900C90E0F55BA3E0F55C900CA957
:103CC900E0F55DA3E0F55E7B017A0D7933126BD6E1
:103CD90090978EE493FF3395E0FE90029B75F01365
:103CE900EF123040EE75F013A42583F58312305C92
:103CF900E92407F9E43AFA7556FF75577475583D82
:103D0900755901755A0D755B33126BD690978EE410
:103D190093FF3395E0FE90029B75F013EF1230404C
:103D2900EE75F013A42583F58312305CE92407F9B5
:103D3900E43AFA12000EEF2401F557E43EF55690E5
:0C3D4900978DE493FF7B737D01129FE1D6
:103D5500900D1F122FD1000107ACE4FFFEFDFC9072
:103D65000D1F122F89D3122EA24017900D1F122F4F
:103D75007D74FFFBFAF9F8122D4F900D1F122FC518
:023D850080D8E4
:103D870090978EE493FF3395E0FE90029B75F013B6
:103D9700EF123040EE75F013A42583F58312305CE3
:103DA700E92407F9E43AFA7556FF755775755844CB
:103DB700900C92E0F559A3E0F55A900C94E0F55B6E
:103DC700A3E0F55C126BD690978EE493FF3395E0F2
:103DD700FE90029B75F013EF123040EE75F013A4BE
:103DE7002583F58312305CE92407F9E43AFA1200D7
:103DF7000EEF2401F557E43EF55690978DE493FFB7
:073E07007B737D01129FE1B6
:103E0E00900D23122FD1000107ACE4FFFEFDFC90B4
:103E1E000D23122F89D3122EA24017900D23122F8D
:103E2E007D74FFFBFAF9F8122D4F900D23122FC55A
:023E3E0080D82A
:103E400090978EE493FF3395E0FE90029B75F013FC
:103E5000EF123040EE75F013A42583F58312305C29
:103E6000E92407F9E43AFA7556FF75577575585401
:103E7000900C96E0F559A3E0F55A900C98E0F55BAC
:103E8000A3E0F55C126BD690978EE493FF3395E038
:103E9000FE90029B75F013EF123040EE75F013A404
:103EA0002583F58312305CE92407F9E43AFA12001D
:103EB0000EEF2401F557E43EF55690978DE493FFFD
:073EC0007B737D01129FE1FD
:103EC700900D27122FD1000107ACE4FFFEFDFC90F7
:103ED7000D27122F89D3122EA24017900D27122FCC
:103EE7007D74FFFBFAF9F8122D4F900D27122FC59D
:023EF70080D871
:103EF90090978EE493FF3395E0FE90029B75F01343
:103F0900EF123040EE75F013A42583F58312305C6F
:103F1900E92407F9E43AFA7556FF75577575586437
:103F2900900CABE0F559A3E0F55A900CADE0F55BC8
:103F3900A3E0F55C126BD690978EE493FF3395E07E
:103F4900FE90029B75F013EF123040EE75F013A44A
:103F59002583F58312305CE92407F9E43AFA120063
:103F69000EEF2401F557E43EF55690978DE493FF43
:073F79007B737D01129FE143
:103F8000900D2B122FD1000107ACE4FFFEFDFC9039
:103F90000D2B122F89D3122EA24017900D2B122F0A
:103FA0007D74FFFBFAF9F8122D4F900D2B122FC5DF
:023FB00080D8B7
:103FB20090978EE493FF3395E0FE90029B75F01389
:103FC200EF123040EE75F013A42583F58312305CB6
:103FD200E92407F9E43AFA7556FF75577475583DA6
:103FE2007559FF755A75755B74126BD690978EE48E
:103FF20093FF3395E0FE90029B75F013EF12304071
:10400200EE75F013A42583F58312305CE92407F9D9
:10401200E43AFA12000EEF2401F557E43EF5569009
:10402200978DE493FF7B737D01129FE112C0317B78
:0C403200017A0C79357D7A7C0012BA59B5
:10403E00900D2F122FD1000107ACE4FFFEFDFC9076
:10404E000D2F122F89D3122EA24017900D2F122F43
:10405E007D74FFFBFAF9F8122D4F900D2F122FC51C
:02406E0080D8F8
:1040700090978EE493FF3395E0FE90029B75F013CA
:10408000EF123040EE75F013A42583F58312305CF7
:10409000E92407F9E43AFA7556FF75577475583DE7
