:10AB72008584317B017A0C792212ACE7900016E0D1
:10AB8200702EF58475D98075D84075DA4275DB422E
:10AB9200900C87E0A3E0F5FB900C87E0A3E0F5FCC6
:10ABA200900C89E0A3E0F5FD900C89E0A3E0F5FEAE
:10ABB200900CA2E0FD7C007E057F001239458E6B71
:10ABC2008F6CE4F58475E8C075D107F5BAF5BB75ED
:08ABD200BC7043E702853184E9
:01ABDA002258
:03007B00029DA43F
:109DA400C0E0C0F0C083C082C0D075D000C000C085
:0B9DB40002C003C004C005C006C007C9
:109DBF00758400C2EDE56D25E02427F582E43400BB
:109DCF00F583E5BF85BEF01239D0E56D123DDE9DFE
:109DDF00FA009E02019E0A029E1D039E25049E2DDF
:109DEF00059E35069E3D0700009E4375BB01756DB0
:109DFF0001804175BB02756D028039900016E060DD
:109E0F000575BB07800375BB08756D03802675BB91
:109E1F0003756D04801E75BB04756D05801675BBCB
:109E2F0005756D06800E75BB06756D07800675BBD3
:109E3F0000756D00E56C156C7002156B14456B6049
:049E4F0003029F3635
:109E5300900CA2E0FF74A08FF0841313543F75227B
:109E630000F523E4FBFAEB64034A7026900016E046
:109E73007020900CA2E075F00A84FF7E0090002D04
:109E8300E0FCA3E0FD12B10990001DEEF0A3EFF09A
:109E93008037EB25E0FFEA33FE74272FF582740049
:109EA3003EF583E0FEA3E0FFAC22AD23123945ACBF
:109EB30006AD07EB25E0FFEA33FE74172FF5827436
:109EC300003EF583ECF0A3EDF0EB25E0FFEA33FE73
:109ED30074272FF58274003EF583E4F0A3F00BBBE7
:109EE30000010AEB64084A6003029E69900004E0E3
:109EF3007029900C81E0FEA3E0FF900C80E02FFF1F
:109F0300900C7FE03EFE900017E0FCA3E0FDC3EF62
:109F13009DFFEE9C900017F0A3EFF0900CA2E0FDE4
:109F23007C007E057F001239458E6B8F6C90029CFE
:039F33007401F0C6
:0C9F3600E56D7003D38001C34002D2EC43
:109F4200D007D006D005D004D003D002D000D0D0A4
:099F5200D082D083D0F0D0E032BF
:10B07500EF6004C2B18002D2B1E4FF0FBF1EFCD263
:10B08500B2E4FF0FBF1EFCE4FEB2B1E4FF0FBF1E2A
:07B09500FC0EBE85F4C2B2FF
:01B09C002291
:0CA0D80030D80302A21120D90302A2110B
:10A0E400E4F531F5327B017A00794DF54E754F0375
:0BA0F4007F107E0212A7E7C2C8C2CA9C
:10A0FF00900F1C123CB8000001C2E4FFFEFDFC9063
:10A10F000F1C123C70D3123BAF4017900F1C123C28
:10A11F006474FFFBFAF9F8123AAB900F1C123CACC7
:02A12F0080D8D6
:10A1310020DB0302A20020DC0302A200D2CAE4F564
:10A1410031F53230DC100532E53270020531B4E808
:10A15100F2E531B403ED30DC079002E17401F02245
:10A161009001F5E0C394014006E0D39406400690C7
:10A1710001F57401F09001F5E0540FC454F0FFE0D3
:0FA18100540F4FF534E4F533E5341392C8B2CAE6
:10A19000900F20123CB8000001C2E4FFFEFDFC90CD
:10A1A0000F20123C70D3123BAF4017900F20123C8F
:10A1B0006474FFFBFAF9F8123AAB900F20123CAC32
:02A1C00080D845
:10A1C200E534C313F5340533E533B408BAE4F531A5
:10A1D200F53220DC100532E53270020531B4E8F2C6
:10A1E200E531B403ED9002E130DC167402F0900226
:0EA1F200E314F0D2C8C2CA9002E57405F02250
:10A200009002E17401F09002E37409F0E49002E539
:01A21000F05D
:01A21100222A
:108D7200436F707972696768742028432920323002
:108D8200313420547261636B2053797374656D734F
:108D920020546563686E6F6C6F676965732C204C35
:108DA2004C43000200FF000000C0C1C1810140C36A
:108DB2000103C00280C241C60106C00780C7410547
:108DC20000C5C1C4810440CC010CC00D80CD410F4F
:108DD20000CFC1CE810E400A00CAC1CB810B40C96F
:108DE2000109C00880C841D80118C01980D9411BA7
:108DF20000DBC1DA811A401E00DEC1DF811F40DDC7
:108E0200011DC01C80DC411400D4C1D5811540D79E
:108E12000117C01680D641D20112C01380D341116E
:108E220000D1C1D0811040F00130C03180F1413316
:108E320000F3C1F28132403600F6C1F7813740F5C6
:108E42000135C03480F4413C00FCC1FD813D40FF4E
:108E5200013FC03E80FE41FA013AC03B80FB4139EE
:108E620000F9C1F88138402800E8C1E9812940EBC6
:108E7200012BC02A80EA41EE012EC02F80EF412D46
:108E820000EDC1EC812C40E40124C02580E541279E
:108E920000E7C1E68126402200E2C1E3812340E1EE
:108EA2000121C02080E041A00160C06180A1416336
:108EB20000A3C1A28162406600A6C1A7816740A546
:108EC2000165C06480A4416C00ACC1AD816D40AF4E
:108ED200016FC06E80AE41AA016AC06B80AB41696E
:108EE20000A9C1A88168407800B8C1B9817940BBA6
:108EF200017BC07A80BA41BE017EC07F80BF417DC6
:108F020000BDC1BC817C40B40174C07580B541779D
:108F120000B7C1B68176407200B2C1B3817340B16D
:108F22000171C07080B041500090C1918151409355
:108F32000153C052809241960156C05780974155C5
:108F42000095C1948154409C015CC05D809D415F4D
:108F5200009FC19E815E405A009AC19B815B4099ED
:108F62000159C058809841880148C0498089414BC5
:108F7200008BC18A814A404E008EC18F814F408D45
:108F8200014DC04C808C41440084C185814540879D
:108F92000147C046808641820142C04380834141ED
:078FA2000081C18081404005
:1082130050001700000000000000000000000000F4
:10822300000000430C1F000000410C1E00410CA283
:108233000A410005000269000002650000500027A2
:10824300000000000000000000000000000000002B
:10825300016D0041029C00410F0100420002000039
:10826300410EFD0042025F000042004B000042024B
:10827300AF00A0410CA400410F00004202B2000075
:1082830041000100410004004102E200410BD8001B
:10829300410CA300026E0000026700004202B50019
:1082A300004102B1004102E80041000000410F0219
:1082B30000410016004102E1004100140041001595
:1082C3000062580CA500011EDC0032000000000013
:1082D300011B5800320000000000011A9000320018
:1082E30000000000011EDC00320000000000011B42
:1082F3005800320000000000011770003200000037
:1083030000000200C8003208340AF00002025800DC
:108313003208340AF000020384003208340AF00001
:108323000200C8003208340AF0000200C800320814
:10833300340AF000020064003208340AF000001C22
:108343009D003208340AF0000018B5003208340AE0
:10835300F0000017ED003208340AF000001C9D0005
:108363003208340AF0000018B5003208340AF0006D
:108373000014CD003208340AF00000213400320228
:10838300EE0AF000002134003202EE0AF000002869
:108393003C003202EE0AF000002134003202EE0A01
:1083A300F000002134003202EE0AF00000251C0028
:1083B3003202EE0AF000012EE0003200000000005D
:1083C30001251C003200000000000123F0003200F0
:1083D30000000000012EE000320000000000012533
:1083E3001C003200000000000120D0003200000019
:1083F3000000011EDC00320000000000011B5800D9
:10840300320000000000011A90003200000000005A
:10841300011EDC00320000000000011B5800320086
:108423000000000001177000320000000000011F6F
:10843300A400320000000000011C84003200000090
:10844300000001277400320000000000011FA40097
:10845300320000000000011C840032000000000014
:1084630001245400320000000000011FA400320068
:1084730000000000011C8400320000000000012302
:10848300F000320000000000011FA40032000000D1
:108493000000011C84003200000000000120D00015
:1084A3003200000000000000000000000000000097
:1084B30000000000000000000000000000000000B9
:1084C30000000000000000000000000000000000A9
:1084D3000000000000000000000000000000000099
:1084E3000000000000000000000000000000000089
:1084F3000000000000000000000000000000000079
:108503000000000000000000000000000000000068
:10851300000000000000000000000000004202E92B
:02852300000452
:1024D600E4F52DF52CF52BF52A900F1BF075840FDE
:1024E60075FFDE75FFAD12AC9012AA1DC2B4C2B55F
:1024F600C2B61200267534017535097536427B0160
:102506007A0C791C12A44212A212900CA27414F036
:10251600E49002B1F0900F17F0A3F0900F17E0FAD5
:10252600A3E0FB9002C175F015123D27EA75F01580
:10253600A42583F583123CB8000000009002BD7507
:10254600F015EB123D27EA75F015A42583F58312E5
:102556003CB800000000900F17E0FAA3E0FB9002E1
:10256600B775F015123D27EA75F015A42583F58396
:10257600123CB8000000009002C575F015EB123D44
:1025860027EA75F015A42583F583E4F0A3F0900FF0
:1025960017E0FEA3E0FF9002BB75F015123D27EE93
:1025A60075F015A42583F583E4F0A3F09002CA75AF
:1025B600F015EF123D27EE75F015A42583F583E49B
:1025C600F09002C975F015EF123D27EE75F015A4CF
:1025D6002583F583E4F09002C875F015EF123D27C8
:1025E600EE75F015A42583F583E4F09002C775F027
:1025F60015EF123D27EE75F015A42583F583E4F05B
:102606009002CB75F015EF123D27EE75F015A42557
:1026160083F583E4F0900F1775F0011239D0900F0F
:1026260017E07004A3E064026003022521E4900031
:1026360000F012AB727F007E9612B04B12B171128F
:10264600AEB3E4900276F09002897402F0900292A2
:10265600744EF07B017A0279EB900285123D4C7A3A
:10266600097944900298123D4C7A077925900282A6
:10267600123D4C7A0B79D9900295123D4CE49002AA
:1026860075F090028804F090027F744EF0E4900298
:102696008AF0A3F0900277F0A3F0900294F09002F3
:1026A60081F0900293F0900280F01BFAF990028F6D
:1026B600123D4C90028C123D4C90027C123D4C9087
:1026C6000279123D4C0B7A0279757F007E847D0378
:1026D6007C0012940E900016E07B017A02798860E5
:1026E600067F807E2580047F007EE17D007C0012CF
:1026F600940E900016E060247B017A0279659000C2
:1027060047123D4C7A02799D900044123D4CE4906C
:102716000040F0A3F090004AF012B15B9002E3741F
:0D27260009F012A0D8D2AF900016E0603587
:10273300900F05123CB800006978E4FFFEFDFC90A1
:102743000F05123C70D3123BAF4017900F05123C9C
:102753006474FFFBFAF9F8123AAB900F05123CAC24
:0227630080D81C
:102765001285571200A6900F027401F0E49002E45E
:10277500F090004CE0240AFE90004BE03400900FEE
:1027850019F0A3CEF012A742E4900F17F0A3F09032
:102795000942E0FEA3E0FF900F17E0FCA3E0FDC3B4
:1027A5009FEC9E5017744D2DF58274003CF583E423
:1027B500F0900F1775F0011239D080D390029CE08C
:1027C5006067C390001CE094B890001BE0940B5028
:1027D50058C2B3C2B6C2B5C2B4900016E06004D206
:1027E500FC8002C2FCE4F54CF54D7B937D037F0232
:0327F50012982413
:1027F800900F09123CB8000A4CB8E4FFFEFDFC90AB
:102808000F09123C70D3123BAF4017900F09123CCE
:102818006474FFFBFAF9F8123AAB900F09123CAC5A
:0228280080D856
:10282A00C2FF80FE90004BE0FEA3E0FF900F19E08C
:10283A00B50613A3E0B5070EA37401F0900F19E4CF
:10284A0075F0011239D09002E4E0707A9002E3E068
:10285A00FF701730CC0A9002E5E064066068805E7B
:10286A009002E5E06404605E8059EF6402600990BA
:10287A0002E3E0FF6403703130DB0C9002E5E064B0
:10288A000660437406801930DA0C9002E5E06404AD
:10289A0060347404800A9002E5E0640560287405D7
:1028AA00F0900F1B7401F0801DEFB4011930DC08A1
:1028BA009002E57405F0800E9002E530DB0574069F
:1028CA00F080037404F09002E6E0FEA3E0FF9002B9
:1028DA005FE06E7003A3E06F60030229CB9002E40D
:1028EA00E024FE607224FE70030229C424036003FC
:1028FA000229CB9002E3E075F03C900CC3123D270D
:10290A00C083C082900CA2E075F01484D082D08378
:10291A0075F00A123D27E0FEA3E0FFEE60030229EC
:10292A00CBEF601524FE602B0460030229CBD2CCC6
:10293A009002E57406F00229C6D2CC9002E574072B
:10294A00F09002E47402F09002E3E075F03C900C1F
:10295A00C9801CD2CA8065C2CC9002E57406F09088
:10296A0002E47404F09002E3E075F03C900CC512A6
:10297A003D27C083C082900CA2E075F01484D082F7
:10298A00D08375F00A123D27E0FEA3E0FFEE3395EF
:10299A00E0FDFCE47BA0FAF9F812AD8AE47BE87A60
:1029AA0003F9F812AF42900260E02FFF90025FE055
:1029BA003E9002E6F0A3EFF08007C2CCE49002E476
:1029CA00F0900014E0606A900C1EE0FFC39405408A
:1029DA0006EFD39420405AEF64F06055EF64F1603B
:1029EA0050EF64F2604B900F1BE06045E4F09002F8
:1029FA00E3E06409603B9002E5E0FF908DA8E49370
:102A0A00FD3395E0FC90028275F013ED123D27EC40
:102A1A0075F013A42583F583123D43900007EF1246
:102A2A003923754C00754D017B297D037F0212986D
:0C2A3A0024900279123D43E94A4B602BC6
:102A4600900279123D438B2E8A2F89307B007A00C3
:102A56007900900279123D4CAB2EAA2FA930E4FFE3
:0B2A660012487A900F15EEF0A3EFF07D
:102A7100900CA4E07003022C88E4F09002E2E0F4F0
:102A81006003022B52A3E0FFB40105C2CA022B4529
:102A9100EF7005C2CC022B459002E5E0FF640660B1
:0C2AA10003022B45EF64037003022B4579
:102AAD00900F0D123CB8000DBBA0E4FFFEFDFC9095
:102ABD000F0D123C70D3123BAF4017900F0D123C0F
:102ACD006474FFFBFAF9F8123AAB900F0D123CAC9F
:022ADD0080D89F
:022ADF00D2CC57
:102AE1009002E3E075F03C900CCB123D27C083C00F
:102AF10082900CA2E075F01484D082D08375F00A24
:102B0100123D27E0FEA3E0FFEE3395E0FDFCE47B00
:102B1100C27A01F9F812AD8A8020E4FFFEFDFC9033
:102B21000F11123C70D3123BAF4017900F11123CA2
:102B31006474FFFBFAF9F8123AAB900F11123CAC36
:022B410080D83A
:102B4300C2CCC2B3C2B6C2B5C2B4C2FF022C889013
:102B530002E2E0FF64F07023900C1EEFF0E4F56EE8
:102B6300F56F90000574FFF0D2B3D2B6D2B5D2B4EC
:102B7300C2A853E7FD53E7BF022C83EFB4F10F90D4
:102B83000C1EF0C2B3C2B6C2B5C2B4022C83EF644A
:102B9300F2702B900C1EEFF0D2B3D2B6D2B5D2B4F2
:102BA300900C1DE024FFFD900C1CE034FFFCE4FBC3
:102BB300FFFE12AB05E4F58443EF01022C8890027B
:102BC300E2E0FFC394054008EFD394205002D2B64D
:102BD3009002E2E0FFC394054009EFD3942650032B
:102BE3001264D39002E2E0FFC39405400CEFD39448
:102BF3002650067E007F0180047E007F00900C1E1D
:102C0300E0FDC39405400CEDD3942650067C007D73
:102C13000180047C007D00ED6F7002EC6E605990C2
:102C230002E2E0FFC39405403CEFD39426503612F2
:102C3300AB721200A6E4900F01F0900CA2E0FF74B7
:102C4300A08FF08475F00AA4FF900260E02401FDD8
:102C530090025FE03400CD2FFEED35F0900002F0DE
:102C6300A3CEF08013900C1EE0FFC394054009EF40
:102C7300D39420500312A3379002E2E0900C1EF08D
:102C8300E49002E2F0900C1EE0FFC39405500302AF
:102C930027C1EFD3942640030227C1900279123D46
:102CA30043E94A4B60030227C1900C21E060030211
:102CB30027C190027C123D43E94A4B60030227C1BE
:102CC30090029CE07003022FB390001CE094B89034
:102CD300001BE0940B4007E490029CF080069002F6
:102CE3009C7401F0C3E56A940AE5696480948040AA
:102CF30006756900756A09900016E090001D601260
:102D0300E0C4F854F0C8A3E0C4540F4890029BF009
:102D13008032E0FEA3E0FFEF24FBFFEE34EBFEE4A2
:102D230034FFFDE434FFFCE47BE87A03F9F812ADE9
:102D33008AE47BE57A24F9F812AF4290029BEFF024
:102D4300E024CEF0900019E0540FFD900017E054FA
:102D53000FC4F854F0C8E4C4540F482DFF908DA855
:102D6300E493FD3395E0FC90028275F013ED123D80
:102D730027EC75F013A42583F583123D43900007D8
:102D8300EF12392390006375F033E56A123D27E5AE
:102D93006975F033A42583F58375F003E566123D69
:102DA30027E56575F003A42583F583E0FF900017FD
:102DB300A3E0FEEF2EFF908DA8E4933395E0FC9003
:102DC300028275F013ED123D27EC75F013A42583F1
:102DD300F583123D43900008EF1239239000647588
:102DE300F033E56A123D27E56975F033A42583F5D1
:102DF3008375F003E566123D27E56575F003A425A9
:102E030083F583E0FF900019A3E0FEEF2EFF908D82
:102E1300A8E4933395E0FC90028275F013ED123D24
:102E230027EC75F013A42583F583123D4390000925
:102E3300EF123923E5D8F4FF90028275F013ED12F7
:102E43003D27EC75F013A42583F583123D439000D1
:102E53000AEF123923900264E0FF900025E0FEA3FD
:102E6300E0A807088005CEC313CE13D8F9FF908DD1
:102E7300A8E493FD3395E0FC90028275F013ED1204
:102E83003D27EC75F013A42583F583123D43900091
:102E93000BEF123923900263E0FF900023E0FEA3BF
:102EA300E0A807088005CEC313CE13D8F9FF908D91
:102EB300A8E493FD3395E0FC90028275F013ED12C4
:102EC3003D27EC75F013A42583F583123D43900051
:102ED3000CEF123923900262E0FF900021E0FEA381
:102EE300E0A807088005CEC313CE13D8F9FF908D51
:102EF300A8E493FD3395E0FC90028275F013ED1284
:102F03003D27EC75F013A42583F583123D43900010
:102F13000DEF123923900261E0FF90001FE0FEA342
:102F2300E0A807088005CEC313CE13D8F9FF908D10
:102F3300A8E493FD3395E0FC90028275F013ED1243
:102F43003D27EC75F013A42583F583123D439000D0
:102F53000EEF12392390025DE0A3FF90028275F019
:102F630013ED123D27EC75F013A42583F583123D71
:102F73004390000FEF12392390025DA3E0FF90020C
:102F83008275F013ED123D27EC75F013A42583F53C
:102F930083123D43900010EF123923754C00754D99
:102FA3000A7B927D037F02129824128B340227C17D
:0C2FB300900294E0FF900293E06F606DCC
:102FBF00EF75F0DCA4FF900298123D43E92FF9EA78
:102FCF0035F08B2EF52F8930900294E0FFB4020478
:102FDF007F008003EF04FF900294EFF090029BE0DC
:102FEF00FF90006175F033E56A123D27E56975F0D2
:102FFF0033A42583F583EFF0AE69AF6A7C007D3390
:10300F0012B109744D2FF974003E753401F53589ED
:0A301F0036AB2EAA2FA930123ED9BD
:103029000227C1900F01E0FD7017900002E0FEA396
:10303900E0FF90025FE06E7003A3E06F6003022778
:10304900C1900CA2E0FF74A08FF08475F00AA4FF70
:10305900900260E02401FB90025FE03400FAEF2B5C
:10306900FEE5F03A900002F0A3CEF0ED702C90004E
:1030790015E06017900F017401F0900F007406F0CD
:103089009002B2E4F0A374C8F08005E4900F00F058
:1030990090000274FFF5F01239D09002E9E0700255
:1030A900A3E06060900C1EE0FFC394054056EFD387
:1030B90094205050900F01E070030231DC9002E33C
:1030C900E0FF64096004EFB40807E49002E4F080CB
:1030D900179002E5E0B404109002E4E0700A04F0ED
:1030E9009002E6EAF0A3EBF09002E974FFF5F01222
:1030F90039D045F060030231DCF565F566F569F50F
:043109006A0231DC49
:10310D00900F00E0FF908DA8E493FD3395E0FC90C7
:10311D00028275F013ED123D27EC75F013A4258393
:10312D00F583123D43900007EF1239239002B2E070
:10313D00A3FF90028275F013ED123D27EC75F0138D
:10314D00A42583F583123D43900008EF1239239097
:10315D0002B2A3E0FF90028275F013ED123D27EC51
:10316D0075F013A42583F583123D43900009EF12EA
:10317D0039239002E5E0FF90028275F013ED123DC8
:10318D0027EC75F013A42583F583123D4390000AB7
:10319D00EF123923754C00754D047B277D037F029B
:1031AD00129824E4F52EF52FD3900943E0952F9036
:1031BD000942E0952E4018744D252FF58274003587
:0F31CD002EF583E4F0052FE52F70DD052E80D958
:1031DC00E4900F01F09002E8F0900F00E06007B26D
:0B31EC00B5E4F00227C1C2B50227C104
:10A742007B017A00794D754E00754F037F107E02B2
:10A7520012A7E79001F3E0540F900006F09001F386
:10A76200E054F0C4540F900007F09002E3E0FF645D
:10A77200016071E5D854037007EF64016002805BE9
:10A782009002E57404F0900006E0123DDEA7D303C8
:10A79200A7B706A7B207A7BE08A7C509A7CC0AA7ED
:10A7A200D30BA7AB0C0000A7DA9002E37401F022EE
:10A7B2009002E3802C9002E37403F0229002E3748F
:10A7C20004F0229002E37406F0229002E37407F090
:10A7D200229002E37405F0229002E37409F09002E1
:05A7E200E57402F02205
:10A33700C2B6C2B59002E3E0FF6409700302A43617
:10A34700EF6408700302A43675F03CEF900CC3125B
:10A357003D27C083C082900CA2E075F01484D082A0
:10A36700D08375F00A123D27E0FEA3E0FFEE6003FD
:10A3770002A42BEF601224FE700302A429046003D9
:08A3870002A42BC2CC02A42B9E
:10A38F00900F1C123CB800015F90E4FFFEFDFC90A3
:10A39F000F1C123C70D3123BAF4017900F1C123C96
:10A3AF006474FFFBFAF9F8123AAB900F1C123CAC35
:02A3BF0080D844
:02A3C100D2CCFC
:10A3C3009002E3E075F03C900CCB123D27C083C0B4
:10A3D30082900CA2E075F01484D082D08375F00AC9
:10A3E300123D27E0FEA3E0FFEE3395E0FDFCE47BA6
:10A3F300C27A01F9F812AD8A8020E4FFFEFDFC90D9
:10A403000F20123C70D3123BAF4017900F20123C29
:10A413006474FFFBFAF9F8123AAB900F20123CACCC
:02A4230080D8DF
:10A42500C2CC8002C2CA9002E57404F0E49002E452
:0DA43500F09002E3E064016003E4F5C8224A
:1064D30090025FE0F533A3E0F534E4F569F56AF57E
:1064E30065F566900F00F0A3F0900942E0FEA3E08B
:1064F300FF7B017A00794D754E00754F0112A7E7B6
:10650300900BD8E024FE600C24FE7010900CA27453
:1065130028F0800E900CA27414F08006900CA274E4
:106523000AF09002E3E0FF64096004EFB4080B9003
:1065330002E9E4F0A37404F080679002E3E075F0ED
:106543003C900CC5123D27C083C082900BD8E0C39A
:1065530013D082D08375F00A123D27E0FEA3E0FB3F
:10656300AA06EA3395E0F9F8900CA2E0FFE4FCFDFB
:10657300FE12AD8AE47B0AFAF9F812AF42E47BE833
:106583007A03F9F812AF429002E9EEF0A3EFF0D3E9
:106593009400EE6480948050089002E9E4F0A30430
:1065A300F0900CA3E09002B1F09002ADE0FCA3E008
:1065B300FD4C700890000AF0A3F080679002B4E0ED
:1065C300701E123524A804A905AA06AB07E4FFFE32
:1065D3007D7A7C481233F812355D7C007DF080387B
:1065E3009002B4E0B40F037410F09002ADE0FCA38A
:1065F300E0FDE4123524A804A905AA06AB07E4FFCD
:10660300FE7D7A7C481233F812355D9002B4E0FDCA
:1066130074788DF084FD7C0012B10990000AEEF0CD
:10662300A3EFF0E5D8540370079002B1F002691E9E
:106633007B017A00794D754E00754F037F107E0202
:1066430012A7E79001F3E0540F900006F09001F3D6
:10665300E054F0C4540F900007F0E4F531F53290A4
:10666300006575F028E532123D27E53175F028A461
:106673002583F583E024FB601524FB7022746125D8
:1066830032F58274023531F5837403F0802074612E
:106693002532F58274023531F5837402F0800F746C
:1066A300612532F58274023531F5837404F00532C5
:1066B300E532700205316404453170A3E4F531F528
:1066C3003290007275F028E532123D27E53175F0FE
:1066D30028A42583F583E0FDE53225E0FFE531338A
:1066E300FE740D2FF58274003EF583EDF090006685
:1066F30075F028E532123D27E53175F028A425838E
:10670300F583123C7090006A75F028E532123D273C
:10671300E53175F028A42583F583123C641231FA20
:10672300C004C005C006C00790006675F028E532B6
:10673300123D27E53175F028A42583F583123C70BB
:1067430090006E75F028E532123D27E53175F0288B
:10675300A42583F583123C641231FAD003D002D00E
:1067630001D0001233F8E4FBFAF9F81234959000E3
:106773006675F028600540030267FCE532123D2789
:10678300E53175F028A42583F583123C7090006AE7
:1067930075F028E532123D27E53175F028A42583ED
:1067A300F583123C641231FAC004C005C006C00769
:1067B30090006675F028E532123D27E53175F02823
:1067C300A42583F583123C7090006E75F028E532A2
:1067D300123D27E53175F028A42583F583123C6427
:1067E3001231FAD003D002D001D0001233F8C00422
:1067F300C005C006C007026882E532123D27E531B5
:1068030075F028A42583F583123C7090006A75F017
:1068130028E532123D27E53175F028A42583F58359
:10682300123C641231FAC004C005C006C0079000D0
:106833006675F028E532123D27E53175F028A42569
:1068430083F583123C7090006E75F028E532123D9B
:1068530027E53175F028A42583F583123C641231B2
:10686300FAD003D002D001D0001233F812350EABA8
:1068730007AA06A905A804C000C001C002C003906E
:10688300007375F028E532123D27E53175F028A431
:106893002583F583E0FF90007475F028E532123DFF
:1068A30027E53175F028A42583F583E0C39FFDE434
:1068B3009400FCE4123524D003D002D001D000129E
:1068C30032EFC004C005C006C00790007375F028FE
:1068D300E532123D27E53175F028A42583F583E0E1
:1068E300FCE4123529D003D002D001D0001231FECE
:1068F30012355DAD07E53225E0FFE53133FE740C5B
:106903002FF58274003EF583EDF00532E532700217
:1069130005316404453160030266C49002B1E0307E
:10692300E7034403F0E4F531F532D3900943E095EE
:1069330032900942E095314018744D2532F5827446
:10694300003531F583E4F00532E53270DD05318041
:01695300D96A
:016954002220
:098B34009002B1E07003028D71A2
:038B3D0075310689
:108B4000AF319002B1E0FEA807088002C313D8FC41
:108B500020E003028D63E531123DDE8CD6008CCD22
:108B6000018BBE028BBE038B7C048B7C058B740651
:108B700000008D63E5D8F4F532028D63AF31EF3339
:108B800095E0FEEF25E0FFEE33FE741B2FF58274B7
:108B9000003EF583E0FEA3E0FFAD31ED3395E0FC50
:108BA000745F2DF58274023CF583E0FDEFA80508A3
:0E8BB0008005CEC313CE13D8F9F532028D63C3
:108BBE00E4F533AF31EF3395E0FEEF25E0FFEE3312
:108BCE00FE741B2FF58274003EF583E0FEA3E0FFDA
:108BDE00AD31ED3395E0FC745F2DF58274023CF5FA
:108BEE0083E0FBEFA803088005CEC313CE13D8F99C
:108BFE00F53274042DF58274003CF583E064026056
:108C0E0003028D63AF31EF3395E0FEEF25E0FFEE0B
:108C1E0033FE74092FF58274003EF583E060230461
:108C2E00604624FE706A74082FF58274003EF58348
:108C3E00E0FFE532D39F40047F0180027F008F3337
:108C4E00804EAF31EF3395E0FEEF25E0FFEE33FEC1
:108C5E0074082FF58274003EF583E0B532047F016F
:108C6E0080027F008F338028AF31EF3395E0FEEF27
:108C7E0025E0FFEE33FE74082FF58274003EF58377
:108C8E00E0FFE532C39F50047F0180027F008F33E7
:108C9E00E5336015E5312402FF7401A80708800250
:108CAE00C333D8FC42C8028D63E5312402FF740140
:0F8CBE00A807088002C333D8FCF452C8028D63A4
:098CCD0090025DE0F532028D63B6
:108CD60090025DE0FEA3E0FFF53290000AE0FCA3FF
:108CE600E0FD4C6078EF4E6074D3ED9FEC9E5038FB
:108CF600E4F533F53474062534F58274003533F51E
:108D060083E0B40113E5342404FF7401A807088046
:108D160002C333D8FCF452C80534E5347002053377
:108D26006402453370CF8035E4F533F53474062597
:108D360034F58274003533F583E0B40112E534244A
:108D460004FF7401A807088002C333D8FC42C80593
:0D8D560034E534700205336402453370D0FB
:0E8D63001531C3E531648094804003028B40DB
:018D710022DF
:10B15B00AF84E4F58475C04475CFEC43C040C2C3E3
:05B16B0043E6028F84A1
:01B1700022BC
:03003B000299F235
:1099F200C0E0C083C082C0D075D000C000C001C02A
:079A020002C003C006C0070B
:109A0900C200AFC1EF123DDE9A57089A57109A78F3
:109A1900189AA6209A78289AA6309B15389AAD40AC
:109A29009AA8489AAD509AE6589B1A609B1A709B5F
:109A390028809B75889B28909B75989BA7A09B79EC
:109A4900A89B79B89B8DC09BA7C800009B15900067
:109A59003FE0F5C290004AE4F053C2FEA20C334243
:109A6900C2C2C5900041E4F0900040F0029BA7906B
:109A79000042E0FF900040E0FEC39F50199000446F
:109A8900123D438E827583001238B1F5C2900040B1
:109A9900E004F0029BA7D2C4C20B029BA7D2C5D295
:109AA900C5029BA7900041E0601624FFFFE434FF44
:109AB900FE900047123D438F828E83E5C2123923FF
:109AC900900041E004F0900043E0FF900041E0C3C2
:109AD9009F5005D2C2029BA7C2C2029BA790004118
:109AE900E024FFFFE434FFFE900047123D438F82DC
:109AF9008E83E5C2123923900041E004F090004AB8
:109B09007401F0D2C4C20BD2C2029BA7D200029B3D
:109B1900A790004AE4F0900040F0A3F0029BA790C0
:109B29000041E0FF700D900043E5C2F090004AE467
:109B3900F08017EF24FFFFE434FFFE900047123D49
:109B4900438F828E83E5C2123923900041E004F0ED
:109B5900900043E0FF900041E0D39F400B90004A02
:109B69007401F0900041E4F0D2C28032D2C2802E5A
:109B7900900044123D43900040E0FF04F08F82754D
:109B890083008015900040E024FFFFE434FFFE903D
:109B99000044123D438F828E831238B1F5C23000E2
:109BA9001053C0BF43C040C2C5C2C4C2C2C20BC267
:039BB90000C2C324
:109BBC00D007D006D003D002D001D000D0D0D082B4
:059BCC00D083D0E0325F
:10B14200AF84E4F584D2C6200BFDD20BC20C900072
:08B152003FE0F5C3D2C58F8474
:01B15A0022D2
:10B12600AF84E4F584D2C6200BFDD20BD20C90007E
:0BB136003FE0F5C3D2C5200BFD8F8465
:01B1410022EB
:038525000119FF3A
:10AA1D00AF8475840F75E1EF75E20775E34475A496
:10AA2D00157580EA75ADFF75A53D759001E4F5A628
:10AA3D0075A0FFF59E75E8FFE5E854E0FEBEC00485
:10AA4D007E0180027E00900016EEF0600875B079F0
:10AA5D0075A7FE800675B07E75A7F8E4F5C8759CE0
:10AA6D00FFF59D75D8FF900016E0FE600875F8970C
:10AA7D00759FF78006759FFF75F8F7EE6006C2FCAF
:08AA8D00D2FB8002D2FC8F8491
:01AA9500229E
:10AEB300AF84E4F584F5D875D980F5F9F5FAF5E9A9
:10AEC30075EA0C75DC4675D840900EFEF0A3F09041
:10AED300025DF0A3F0F584C28C758905438E08F5F5
:10AEE3008AF58CC28DD28C75840175888075893002
:07AEF300D2A943E6308F8471
:01AEFA002235
:0DB17100AF84E4F584C289D288D2A88F840F
:01B17E0022AE
:03005B00029F5BA6
:109F5B00C0E0C0F0C083C082C0D075D000C000C0CC
:0D9F6B0001C002C003C004C005C006C0074D
:109F780053E6CF758400AF8CEFFEAD8A7C00E42DEC
:109F8800F525EC3EF524900EFEE0FEA3E0FFC3E5C8
:109F9800259FFFE5249EFED3EF9464EE94005003C2
:109FA80002A0B4C28C758A00758C00C28DD28CE573
:049FB80019F47041E7
:109FBC00F519F526AE24AF25E52625E02437F582E4
:109FCC00E43400F583EEF0A3EFF0E4FCFDE51D2F87
:109FDC00FFE51C3EFEED351BFDEC351A8F1D8E1C6E
:0E9FEC008D1BF51A0526E526B404C990025D0A
:109FFA0002A0A60519E519C394044003751900E5E2
:10A00A001925E02437F582E43400F583E0FEA3E065
:10A01A00FBC3E51D9BFFE51C9EFEE51B9400FDE5C9
:10A02A001A94008F1D8E1C8D1BF51AAE24AF25E5E0
:10A03A001925E02437F582E43400F583EEF0A3EF26
:10A04A00F0E4FCFDE51D2FFFE51C3EFEED351BFD92
:10A05A00EC351A8F1D8E1C8D1BF51AE47B04FAF958
:10A06A00F8AC1A123B028E248F25C390025EE0954B
:10A07A0025FF90025DE09524FEC394004006AC06DD
:10A08A00AD078009C3E49FFFE49EFCAD0790025D23
:10A09A00E0C313FFC3ED9FEC94004007E524F0A34F
:10A0AA00E525F0900EFEE4F0A3F07584015388CF05
:03A0BA0043E6304A
:10A0BD00D007D006D005D004D003D002D001D000F7
:0BA0CD00D0D0D082D083D0F0D0E032A1
:0300530002AEFBFF
:10AEFB00C0E0C083C082C0D075D000C004C005C004
:10AF0B0006C00753E6CF758400AF8CEFFEAD8A7C8D
:10AF1B0000E42DFFEC3E900EFEF0A3EFF0758401E4
:10AF2B005388CF43E630D007D006D005D004D0D01D
:07AF3B00D082D083D0E03288
:03000B0002AF86BB
:10AF8600C0E0C083C08253E6CF758400C28C758A48
:10AF960000758C00D28C900EFEE4F0A3F090025D5A
:10AFA600F0A3F07584015388CF43E630D082D08376
:03AFB600D0E032B6
:0300030002A99FB0
:10A99F00C0E0C0F0C083C082C0D075D000C000C07E
:09A9AF0003C004C005C006C00786
:10A9B800A2AFE433FB900F017401F0900CA2E0FD0C
:10A9C8007C007E057F001239458E6B8F6C756D009B
:10A9D8007F10900027E4F0A3DFFCC2AF53E7FE75B9
:10A9E8008400C2ECC2ED75BB0075840175C80074A3
:0EA9F800FFF5CDF5CC43E70143C8042B92AF29
:10AA0600D007D006D005D004D003D000D0D0D08255
:07AA1600D083D0F0D0E03244
:10AFEC000112010106010102010000000100000034
:10AFFC000C00000077000004A900002E9B0001D279
:10B00C00090012345600B60B61071C71C7471C713E
:01B01C00C76C
:1085280041102800421029000342102BFFFB411084
:0A8538002D0041102E0141102F000C
:10855700900295123D438B378A388939900294E00F
:10856700900293F0E4F531F532F536F535F534F54B
:1085770033AB37AA38A9390532E532AE3170020577
:1085870031142406F582E43EF58374FA1239230583
:1085970032E532AE3170020531142406F582E43E2D
:1085A700F583E41239230532E532AE317002053125
:1085B700142406F582E43EF583740112392305324B
:1085C700E532AE3170020531142406F582E43EF53A
:1085D70083E41239230532E532AE317002053114D6
:1085E7002406F582E43EF58374011239230532E54A
:1085F70032AE3170020531142406F582E43EF5836C
:10860700E4123923AD32AC317F087E0612A53990CA
:10861700028AE07002A3E070F690025FE0F531A3F2
:10862700E0F532900294E0FF900293E0B5071378EB
:1086370033123C8C7B407A4B794C7800D3123BC584
:1086470050E1900294E0FF900293E06F700302857F
:108657006BE4F531F532AB37AA38A9390532E53283
:10866700AE3170020531142406F582E43EF58374B9
:10867700011239230532E532AE3170020531142477
:1086870006F582E43EF583E41239230532E532AE7E
:108697003170020531142406F582E43EF583E412B5
:1086A70039230532E532AE3170020531142406F55F
:1086B70082E43EF583E41239230532E532AE3170A8
:1086C700020531142406F582E43EF58374C012399D
:1086D700230532E532AE3170020531142406F582E6
:1086E700E43EF58374081239230532E532AE317062
:1086F700020531142406F582E43EF583E41239239A
:108707000532E532AE3170020531142406F582E4F4
:108717003EF583E4123923E92406F9E43AFAE92518
:1087270032F9EA3531FA123CE900E1000074042518
:1087370032F532E43531F531AB37AA38A93905328C
:10874700E532AE3170020531142406F582E43EF5B8
:108757008374011239230532E532AE3170020531D7
:10876700142406F582E43EF583E41239230532E545
:1087770032AE3170020531142406F582E43EF583EA
:1087870074011239230532E532AE31700205311416
:108797002406F582E43EF583E41239230532E532F7
:1087A700AE3170020531142406F582E43EF583E408
:1087B7001239230532E532AE317002053114240631
:1087C700F582E43EF583E41239230532E532AE3112
:1087D70070020531142406F582E43EF583E412396C
:1087E700230532E532AE3170020531142406F582D5
:1087F700E43EF583E4123923AD32AC317F007E06C7
:0D88070012A53990028AE07002A3E070F61D
:10881400900F1C123CB8000008CAE4FFFEFDFC9057
:108824000F1C123C70D3123BAF4017900F1C123C2C
:108834006474FFFBFAF9F8123AAB900F1C123CACCB
:0288440080D8DA
:108846007B017A0279887F007EE17D007C001294AC
:018856000E13
:10885700900F20123CB800004650E4FFFEFDFC904C
:108867000F20123C70D3123BAF4017900F20123CE1
:108877006474FFFBFAF9F8123AAB900F20123CAC84
:0288870080D897
:0188890022CC
:1000A600783C7C0F7D017BFF7AAF79EC7E007F097F
:1000B600123850900295123D438B498A4A894B90DB
:1000C6000016E0700302021C900294E0900293F086
:1000D600E4F548E4F546F547E54875F003A4243C05
:1000E600F582E4340FF583E0FFAB49AA4AA94B0534
:1000F60047E547AC4670020546142406F582E43C03
:10010600F583EF123923E54875F003A4243CF58204
:10011600E4340FF583A3E0FF0547E547AC467002DC
:100126000546142406F582E43CF583EF123923E5EF
:100136004875F003A4243EF582E4340FF583E0FF0E
:100146000547E547AC4670020546142406F582E4E9
:100156003CF583EF12A52E90028AE07002A3E070B0
:10016600F6900294E0FF900293E0B507120547E58A
:1001760047AE467002054614FFBE27E5BF10E29063
:100186000298123D43900294E0FF75F0DCA4F582DC
:1001960085F083123A27F54785F046EFB402047FCF
:1001A600008006900294E004FF900294EFF0E54789
:1001B60064017004E5466405600C900294E0FF90CB
:0601C6000293E0B507B949
:1001CC00900F1C123CB800001194E4FFFEFDFC9053
:1001DC000F1C123C70D3123BAF4017900F1C123CFB
:1001EC006474FFFBFAF9F8123AAB900F1C123CAC9A
:0201FC0080D8A9
:1001FE00E54764017004E546640560030200D90515
:10020E0048E548C3940350030200D9020DE4E4F517
:10021E0046F547AB49AA4AA94B0547E547AE467096
:10022E00020546142406F582E43EF5837401123964
:10023E00230547E547AE4670020546142406F582AF
:10024E00E43EF58374021239230547E547AE467046
:10025E00020546142406F582E43EF583E4123923A2
:10026E000547E547AE4670020546142406F582E4BE
:10027E003EF58374011239230547E547AE467002F9
:10028E000546142406F582E43EF583E4123923056F
:10029E0047E547AE4670020546142406F582E43E55
:1002AE00F583E41239230547E547AE46700205464D
:1002BE00142406F582E43EF58374011239230547B2
:1002CE00E547AE4670020546142406F582E43EF577
:1002DE008374011239230547E547AE467002054681
:1002EE00142406F582E43EF583E41239230547E52E
:1002FE0047AE4670020546142406F582E43EF583A9
:10030E00E41239230547E547AE467002054614242C
:10031E0006F582E43EF583E41239230547E547AE40
:10032E004670020546142406F582E43EF583E41277
:10033E0039230547E547AE4670020546142406F5F7
:10034E0082E43EF58374011239230547E547AE4634
:10035E0070020546142406F582E43EF583740612F7
:10036E0039230547E547AE4670020546142406F5C7
:10037E0082E43EF583E41239230547E547AE467025
:10038E00020546142406F582E43EF5837401123903
:10039E00230547E547AE4670020546142406F5824E
:1003AE00E43EF583E41239230547E547AE46700275
:1003BE000546142406F582E43EF583E4123923053E
:1003CE0047E547AE4670020546142406F582E43E24
:1003DE00F58374011239230547E547AE46700205D1
:1003EE0046142406F582E43EF58374121239230571
:1003FE0047E547AE4670020546142406F582E43EF4
:10040E00F583E41239230547E547AE4670020546EB
:10041E00142406F582E43EF5837401123923054750
:10042E00E547AE4670020546142406F582E43EF515
:10043E0083E41239230547E547AE4670020546149C
:10044E002406F582E43EF583E41239230547E54799
:10045E00AE4670020546142406F582E43EF583741A
:10046E00011239230547E547AE46700205461424AE
:10047E0006F582E43EF58374031239230547E547FA
:10048E00AE4670020546142406F582E43EF583E47A
:10049E001239230547E547AE467002054614240679
:1004AE00F582E43EF583E41239230547E547AE466F
:1004BE0070020546142406F582E43EF583E41239F3
:1004CE00230547E547AE4670020546142406F5821D
:1004DE00E43EF583E41239230547E547AE46700244
:1004EE000546142406F582E43EF583740112392381
:1004FE000547E547AE4670020546142406F582E42C
:10050E003EF58374301239230547E547AE46700237
:10051E000546142406F582E43EF583E412392305DC
:10052E0047E547AE4670020546142406F582E43EC2
:10053E00F583E41239230547E547AE4670020546BA
:10054E00142406F582E43EF583E41239230547E5CB
:10055E0047AE4670020546142406F582E43EF58346
:10056E00E41239230547E547AE46700205461424CA
:10057E0006F582E43EF58374011239230547E547FB
:10058E00AE4670020546142406F582E43EF58374E9
:10059E00041239230547E547AE467002054614247A
:1005AE0006F582E43EF583E41239230547E547AEAE
:1005BE004670020546142406F582E43EF583E412E5
:1005CE0039230547E547AE4670020546142406F565
:1005DE0082E43EF583E41239230547E547AE4670C3
:1005EE00020546142406F582E43EF583E41239230F
:1005FE000547E547AE4670020546142406F582E42B
:10060E003EF58374011239230547E547AE46700265
:10061E000546142406F582E43EF583742012392330
:10062E000547E547AE4670020546142406F582E4FA
:10063E003EF583E41239230547E547AE46700205C1
:10064E0046142406F582E43EF583E4123923054769
:10065E00E547AE4670020546142406F582E43EF5E3
:10066E0083E41239230547E547AE4670020546126C
:10067E00A52490028AE07002A3E070F6900294E046
:10068E00FF900293E06F60F4900298123D43900247
:10069E0094E0FF75F0DCA4F58285F083123A27F51D
:1006AE004785F046EFB402047F008006900294E086
:1006BE0004FF900294EFF0E54764017004E5466490
:0F06CE0005600C900294E0FF900293E0B507B92D
:1006DD00900F20123CB800002328E4FFFEFDFC9093
:1006ED000F20123C70D3123BAF4017900F20123CDD
:1006FD006474FFFBFAF9F8123AAB900F20123CAC80
:02070D0080D892
:10070F00E54764017004E5466405600302021CE4DA
:10071F00F546F547AB49AA4AA94B0547E547AE460B
:10072F0070020546142406F582E43EF58374011227
:10073F0039230547E547AE4670020546142406F5F2
:10074F0082E43EF58374111239230547E547AE461F
:10075F0070020546142406F582E43EF583E412394F
:10076F00230547E547AE4670020546142406F58279
:10077F00E43EF583E41239230547E547AE467002A0
:10078F000546142406F582E43EF583E41239230569
:10079F0047E547AE4670020546142406F582E43E4F
:1007AF00F583E41239230547E547AE467002054647
:1007BF00142406F582E43EF58374011239230547AC
:1007CF00E547AE4670020546142406F582E43EF571
:1007DF008374211239230547E547AE46700205465B
:1007EF00142406F582E43EF583E41239230547E528
:1007FF0047AE4670020546142406F582E43EF583A3
:10080F00E41239230547E547AE4670020546142426
:10081F0006F582E43EF583E41239230547E547AE3A
:10082F004670020546142406F582E43EF583E41271
:10083F0039230547E547AE4670020546142406F5F1
:10084F0082E43EF58374011239230547E547AE462E
:10085F0070020546142406F582E43EF583742212D5
:10086F0039230547E547AE4670020546142406F5C1
:10087F0082E43EF583E41239230547E547AE46701F
:10088F00020546142406F582E43EF583E41239236B
:10089F000547E547AE4670020546142406F582E487
:1008AF003EF583E41239230547E547AE467002054E
:1008BF0046142406F582E43EF583E41239230547F6
:1008CF00E547AE4670020546142406F582E43EF570
:1008DF0083740A1239230547E547AE467002054671
:1008EF00142406F582E43EF5837407123923054775
:1008FF00E547AE4670020546142406F582E43EF540
:10090F0083E41239230547E547AE467002054614C6
:10091F002406F582E43EF583E41239230547E547C3
:10092F00AE4670020546142406F582E43EF583E4D4
:10093F001239230547E547AE4670020546142406D3
:10094F00F582E43EF583E41239230547E547AE46C9
:10095F0070020546142406F582E43EF583740A12EC
:10096F0039230547E547AE4670020546142406F5C0
:10097F0082E43EF58374081239230547E547AE46F6
:10098F0070020546142406F582E43EF583E412391D
:10099F00230547E547AE4670020546142406F58247
:1009AF00E43EF583E41239230547E547AE4670026E
:1009BF000546142406F582E43EF583E41239230537
:1009CF0047E547AE4670020546142406F582E43E1D
:1009DF00F583E41239230547E547AE467002054615
:1009EF00142406F582E43EF583740A123923054771
:1009FF00E547AE4670020546142406F582E43EF53F
:100A0F008374021239230547E547AE467002054647
:100A1F00142406F582E43EF583E41239230547E5F5
:100A2F0047AE4670020546142406F582E43EF58370
:100A3F00E41239230547E547AE46700205461424F4
:100A4F0006F582E43EF583E41239230547E547AE08
:100A5F004670020546142406F582E43EF583E4123F
:100A6F0039230547E547AE4670020546142406F5BF
:100A7F0082E43EF583740A1239230547E547AE46F3
:100A8F0070020546142406F582E43EF583740912BC
:100A9F0039230547E547AE4670020546142406F58F
:100AAF0082E43EF583E41239230547E547AE4670ED
:100ABF00020546142406F582E43EF583E412392339
:100ACF000547E547AE4670020546142406F582E455
:100ADF003EF583E41239230547E547AE467002051C
:100AEF0046142406F582E43EF583E41239230547C4
:100AFF00E547AE4670020546142406F582E43EF53E
:100B0F0083740A1239230547E547AE46700205463E
:100B1F00142406F582E43EF5837401123923054748
:100B2F00E547AE4670020546142406F582E43EF50D
:100B3F0083E41239230547E547AE46700205461494
:100B4F002406F582E43EF583E41239230547E54791
:100B5F00AE4670020546142406F582E43EF583E4A2
:100B6F001239230547E547AE4670020546142406A1
:100B7F00F582E43EF583E41239230547E547AE4697
:100B8F0070020546142406F582E43EF583740A12BA
:100B9F0039230547E547AE4670020546142406F58E
:100BAF0082E43EF58374031239230547E547AE46C9
:100BBF0070020546142406F582E43EF583E41239EB
:100BCF00230547E547AE4670020546142406F58215
:100BDF00E43EF583E41239230547E547AE4670023C
:100BEF000546142406F582E43EF583E41239230505
:100BFF0047E547AE467002054612A52490028AE0EB
:100C0F007002A3E070F6900294E0FF900293E06F01
:100C1F0060F4900298123D43900294E0FF75F0DC6F
:100C2F00A4F58285F083123A27F54785F046EFB495
:100C3F0002047F008006900294E004FF900294EF7C
:100C4F00F0E54764017004E5466405600C9002947A
:090C5F00E0FF900293E0B507B933
:100C6800900F24123CB800002328E4FFFEFDFC90FE
:100C78000F24123C70D3123BAF4017900F24123C44
:100C88006474FFFBFAF9F8123AAB900F24123CACEB
:020C980080D802
:100C9A00E54764017004E5466405600302071EE443
:100CAA00F546F547AB49AA4AA94B0547E547AE467B
:100CBA0070020546142406F582E43EF58374FA129E
:100CCA0039230547E547AE4670020546142406F562
:100CDA0082E43EF583E41239230547E547AE4670C0
:100CEA00020546142406F582E43EF583740112399E
:100CFA00230547E547AE4670020546142406F582E9
:100D0A00E43EF583E41239230547E547AE4670020F
:100D1A000546142406F582E43EF58374011239234C
:100D2A000547E547AE4670020546142406F582E4F7
:100D3A003EF583E41239237F0812A53390028AE034
:100D4A007002A3E070F6900294E0FF900293E06FC5
:100D5A0060F4900298123D43900294E0FF75F0DC33
:100D6A00A4F58285F083123A27F54785F046EFB459
:100D7A0002047F008006900294E004FF900294EF40
:100D8A00F0E54764017004E5466405600C9002943E
:090D9A00E0FF900293E0B507B9F7
:100DA300900F28123CB800001194E4FFFEFDFC9064
:100DB3000F28123C70D3123BAF4017900F28123C00
:100DC3006474FFFBFAF9F8123AAB900F28123CACAB
:020DD30080D8C6
:0F0DD500E54764017004E54664056003020CA95C
:100DE400900CA2E0FBE4FAF9F87F807E967D98FCF3
:100DF40012AF428F4F8E4E8D4D8C4C780812B0C47A
:100E0400E4FFE4FDFCC004C005C006C007AF4FAE5C
:100E14004EAD4DAC4C781812B0C4E4FEFDFCD003CA
:100E2400D002D001D000123B94C004C005C006C05B
:100E340007AF4FAE4EAD4DAC4C780812007EE4FFC8
:100E4400FEE4FCD003D002D001D000123B94C004D5
:100E5400C005C006C007AF4FAE4EAD4DAC4C7818C0
:100E640012007EE4FFFEFDECD003D002D001D000DE
:100E7400123B94AB49AA4AA94B900006123C40E4A9
:100E8400754F0AF54EF54DF54CAF4FAE4EAD4DAC2A
:100E94004C780812B0C4E4FFE4FDFCC004C005C0F3
:100EA40006C007AF4FAE4EAD4DAC4C781812B0C46F
:100EB400E4FEFDFCD003D002D001D000123B94C06C
:100EC40004C005C006C007AF4FAE4EAD4DAC4C7864
:100ED4000812007EE4FFFEE4FCD003D002D001D06F
:100EE40000123B94C004C005C006C007AF4FAE4E0D
:100EF400AD4DAC4C781812007EE4FFFEFDECD0033F
:100F0400D002D001D000123B94AB49AA4AA94B901D
:100F1400000A123C407546007547080547E547AE90
:100F24004670020546142406F582E43EF5837401F6
:100F34001239230547E547AE4670020546142406D8
:100F4400F582E43EF58374011239230547E547AE83
:100F54004670020546142406F582E43EF583E41245
:100F640039230547E547AE4670020546142406F5C5
:100F740082E43EF583E41239230547E547AE467023
:100F8400020546142406F582E43EF58374321239D0
:100F9400230547E547AE4670020546142406F5824C
:100FA400E43EF583E41239230547E547AE46700273
:100FB4000546142406F582E43EF58374341239237D
:100FC4000547E547AE4670020546142406F582E45B
:100FD4003EF58374031239230547E547AE46700294
:100FE4000546142406F582E43EF583E4123923050C
:100FF40047E547AE4670020546142406F582E43EF2
:10100400F583E41239230547E547AE4670020546E9
:10101400142406F582E43EF583E41239230547E5FA
:1010240047AE4670020546142406F582E43EF58375
:10103400E4123923AD47AC467F077E0612A53990EA
:10104400028AE07002A3E070F6900294E0FF90023E
:1010540093E06F60F4900298123D43900294E0FF95
:1010640075F0DCA4F58285F083123A27F54785F004
:1010740046EFB402047F008006900294E004FF90DF
:101084000294EFF0E54764017004E5466405600CE2
:0C109400900294E0FF900293E0B507B9D1
:1010A000900F2C123CB800001194E4FFFEFDFC9060
:1010B0000F2C123C70D3123BAF4017900F2C123CF8
:1010C0006474FFFBFAF9F8123AAB900F2C123CACA7
:0210D00080D8C6
:1010D200E54764017004E54664056003020DE4908F
:1010E2000016E070030216A2E4F546F547AB49AAE2
:1010F2004AA94B0547E547AE467002054614240649
:10110200F582E43EF583E41239230547E547AE460E
:1011120070020546142406F582E43EF583E4123992
:1011220023AD47AC467F117E0612A53990028AE0B4
:101132007002A3E070F6900294E0FF900293E06FD9
:1011420060F4900298123D43900294E0FF75F0DC47
:10115200A4F58285F083123A27F54785F046EFB46D
:1011620002047F008006900294E004FF900294EF54
:10117200F0E54764017004E5466405600C90029452
:09118200E0FF900293E0B507B90B
:10118B00900F30123CB800001194E4FFFEFDFC9070
:10119B000F30123C70D3123BAF4017900F30123C04
:1011AB006474FFFBFAF9F8123AAB900F30123CACB7
:0211BB0080D8DA
:1011BD00E54764017004E546640560030210EAE446
:1011CD00F546F547AB49AA4AA94B0547E547AE4653
:1011DD0070020546142406F582E43EF583E41239C7
:1011ED00230547E547AE4670020546142406F582F1
:1011FD00E43EF583E41239230547E547AE46700218
:10120D000546142406F582E43EF583E412392305E0
:10121D0047E547AE4670020546142406F582E43EC6
:10122D00F583E41239230547E547AE4670020546BE
:10123D00142406F582E43EF583E41239230547E5CF
:10124D0047AE4670020546142406F582E43EF5834A
:10125D00E41239230547E547AE46700205461424CE
:10126D0006F582E43EF583E41239230547E547AEE2
:10127D004670020546142406F582E43EF583E41219
:10128D003923AD47AC467F167E0612A53990028AEA
:10129D00E07002A3E070F6900294E0FF900293E0FC
:1012AD006F60F4900298123D43900294E0FF75F048
:1012BD00DCA4F58285F083123A27F54785F046EFD9
:1012CD00B402047F008006900294E004FF90029423
:1012DD00EFF0E54764017004E5466405600C90028B
:0A12ED0094E0FF900293E0B507B90A
:1012F700900F34123CB800001194E4FFFEFDFC90FF
:101307000F34123C70D3123BAF4017900F34123C8E
:101317006474FFFBFAF9F8123AAB900F34123CAC45
:0213270080D86C
:10132900E54764017004E546640560030211CCE4F5
:10133900F546F547AB49AA4AA94B0547E547AE46E5
:1013490070020546142406F582E43EF583740512FD
:1013590039230547E547AE4670020546142406F5CC
:1013690082E43EF583E41239230547E547AE46702A
:10137900020546142406F582E43EF5837404123905
:10138900230547E547AE4670020546142406F58253
:10139900E43EF5837402123923E92406F9E43AFAA2
:1013A900E92547F9EA3546FA123CE950C3000074C9
:1013B900042547F547E43546F546AB49E54B240690
:1013C900F9E4354AFAE92547F9EA3546FA123CE9DA
:1013D9000000000074042547F547E43546F546AB9F
:1013E90049AA4AA94B0547E547AE46700205461486
:1013F9002406F582E43EF58374051239230547E591
:1014090047AE4670020546142406F582E43EF5838C
:10141900E4123923E92406F9E43AFAE92547F9EA15
:101429003546FA74FA75F000123A5F74022547F5E9
:1014390047E43546F546AB49E54B2406F9E4354A18
:10144900FAE92547F9EA3546FA74FA75F000123ACD
:101459005F74022547F547E43546F546AB49E54B48
:101469002406F9E4354AFAE92547F9EA3546FA74D2
:101479006475F000123A5F74022547F547E4354672
:10148900F546AB49E54B2406F9E4354AFAE925471F
:10149900F9EA3546FA742C75F001123A5F7402259F
:1014A90047F547E43546F546AB49AA4AA94B0547EE
:1014B900E547AE4670020546142406F582E43EF57A
:1014C90083E41239230547E547AE46700205461401
:1014D9002406F582E43EF583E41239230547E547FE
:1014E900AE4670020546142406F582E43EF583E40F
:1014F9001239230547E547AE46700205461424060E
:10150900F582E43EF583E41239230547E547AE4603
:1015190070020546142406F582E43EF583E4123987
:10152900230547E547AE4670020546142406F582B1
:10153900E43EF583E41239230547E547AE467002D8
:101549000546142406F582E43EF583E412392305A1
:1015590047E547AE4670020546142406F582E43E87
:10156900F583E41239230547E547AE46700205467F
:10157900142406F582E43EF583E41239230547E590
:1015890047AE4670020546142406F582E43EF5830B
:10159900E41239230547E547AE467002054614248F
:1015A90006F582E43EF583E41239230547E547AEA3
:1015B9004670020546142406F582E43EF583E412DA
:1015C90039230547E547AE4670020546142406F55A
:1015D90082E43EF583E41239230547E547AE4670B8
:1015E900020546142406F582E43EF583E412392304
:1015F900AD47AC467F247E0612A53990028AE07079
:1016090002A3E070F6900294E0FF900293E06F600D
:10161900F4900298123D43900294E0FF75F0DCA427
:10162900F58285F083123A27F54785F046EFB40233
:10163900047F008006900294E004FF900294EFF08A
:10164900E54764017004E5466405600C900294E086
:08165900FF900293E0B507B910
:10166100900F38123CB800001194E4FFFEFDFC908D
:101671000F38123C70D3123BAF4017900F38123C19
:101681006474FFFBFAF9F8123AAB900F38123CACD4
:0216910080D8FF
:0F169300E54764017004E54664056003021338FF
:0116A2002225
:10A52400142406F582E43EF583E41239237F01AD59
:05A5340047AC467E0665
:08A539008E508F518C528D539E
:10A54100900295123D4374B5123911900295123D56
:10A55100439000017462123923E5509000021239D0
:10A5610023E551900003123923E553900004123979
:10A5710023E552900005123923E4F555F5547F0285
:10A58100FEE5532406FDE43552FCC3EF9DEE9C50DD
:10A591001C900295123D438F828E831238B125544F
:10A5A100F5542555F5550FBF00010E80D490029545
:10A5B100123D43E5532406FFE435528F82F583E5CE
:10A5C10054123923E5532407FFE435528F82F58372
:10A5D100E5551239237B017A027988E5532408FD78
:07A5E100E43552FC02AC3628
:063ED9008B318A328933AF
:103EDF00901028E0700804F01200A6024553AB3191
:103EEF00AA32A9331239FC123E043F09010241FCE8
:0A3EFF00010642DD01120000454DEE
:103F090074062533F533E43532F5327537007538E3
:103F19000075393FE4F53AF53B7831E475F0011263
:103F29003D33123898FF783774FFF5F0123D33EFBF
:103F3900123911053BE53B7002053A6404453A70B4
:103F4900D8AC3CEC3350047F0180027F008F40AF36
:103F59003FAE3EAD3DAC3CEC334002800BAF3FAED3
:103F69003EAD3DAC3C123BA18F3F8E3E8D3D8C3C1E
:103F7900AB34AA35A93690000A123D0300000000AF
:103F8900E4F53AF53BAB34E536240AF9E43535FA7C
:103F9900C003C002C001123BD6C004C005C006C0A0
:103FA90007E47B0AFAF9F8AF3FAE3EAD3DAC3C12EF
:103FB900AF42AC00AD01AE02AF03C004C005C006FC
:103FC900C007E53BAE3A7802C333CE33CED8F924E5
:103FD900F5F58274AF3EF583123C7CD007D006D04C
:103FE90005D00412AD8AA804A905AA06AB07D00713
:103FF900D006D005D004123AABD001D002D00312BA
:104009003C26AF3FAE3EAD3DAC3CE47B0AFAF9F845
:1040190012AF428F3F8E3E8D3D8C3C053BE53B7098
:1040290002053A640A453A6003023F8EE54060158D
:10403900AB34AA35A93690000A123BF6123BA1907F
:10404900000A123C4075370075380075393FE4F5B0
:104059003AF53B7831E475F001123D33123898FF97
:10406900783774FFF5F0123D33EF123911053BE54E
:104079003B7002053A6404453A70D8AC3CEC3350C5
:10408900047F0180027F008F40AF3FAE3EAD3DAC63
:104099003CEC334002800BAF3FAE3EAD3DAC3C1231
:1040A9003BA18F3F8E3E8D3D8C3CAB34AA35A93662
:1040B900900006123D0300000000E4F53AF53BAB21
:1040C90034E5362406F9E43535FAC003C002C001E7
:1040D900123BD6C004C005C006C007E47B0AFAF942
:1040E900F8AF3FAE3EAD3DAC3C12AF42AC00AD01C6
:1040F900AE02AF03C004C005C006C007E53BAE3A37
:104109007802C333CE33CED8F924F5F58274AF3EA5
:10411900F583123C7CD007D006D005D00412AD8AB5
:10412900A804A905AA06AB07D007D006D005D00474
:10413900123AABD001D002D003123C26AF3FAE3EBB
:10414900AD3DAC3CE47B0AFAF9F812AF428F3F8EE1
:104159003E8D3D8C3C053BE53B7002053A640A45C2
:104169003A60030240C8E5406015AB34AA35A93668
:10417900900006123BF6123BA1900006123C4074D7
:10418900042533F533E43532F532753700753800D7
:1041990075393FE4F53AF53B7831E475F001123DA4
:1041A90033123898FF783774FFF5F0123D33EF1268
:1041B9003911053BE53B7002053A6404453A70D86C
:1041C900AF3FAE3EAD3DAC3CE47BE87A03F9F81273
:1041D900AF428F3F8E3E8D3D8C3CAB34AA35A9361C
:1041E90090000EEE8FF0123A7E9002E8E04404F05F
:1041F900024553AB31AA32A93390002F1238B1FED0
:1042090090002E1238B17C002400FFEC3E9002B2DF
:10421900F0A3EFF09000311238B1900F00F0740262
:104229002533F533E43532F532FAA93390000B1210
:1042390038B1540D640D6008E4900F00F00242D3C8
:10424900E5362403F9E43535853437F5388939E419
:10425900F53AF53B7831E475F001123D331238989F
:10426900FF783774FFF5F0123D33EF123911053B32
:10427900E53B7002053A6404453A70D87404253365
:10428900F533E43532F532E5362404F9E43535FA07
:10429900E92401F9E43A853437F5388939E4F53AFE
:1042A900F53B7831E475F001123D33123898FF7807
:1042B9003774FFF5F0123D33EF123911053BE53B39
:1042C9007002053A6402453A70D89002E8E0440267
:0442D900F002455357
:1042DD0074062533F533E43532F532AB31FAA933B3
:1042ED00123BD68F3F8E3E8D3D8C3C780812B0C46C
:1042FD00E4FFE4FDFCC004C005C006C007AF3FAE3F
:10430D003EAD3DAC3C781812B0C4E4FEFDFCD003CC
:10431D00D002D001D000123B94C004C005C006C02D
:10432D0007AF3FAE3EAD3DAC3C780812007EE4FFDA
:10433D00FEE4FCD003D002D001D000123B94C004A7
:10434D00C005C006C007AF3FAE3EAD3DAC3C7818D2
:10435D0012007EE4FFFEFDECD003D002D001D000B0
:10436D00123B948F3F8E3E8D3D8C3CE47B64FAF97D
:10437D00F812AF428F3F8E3E8D3D8C3C8E428F4367
:10438D0074042533F533E43532F532AB31FAA93304
:10439D00123BD68F3F8E3E8D3D8C3C780812B0C4BB
:1043AD00E4FFE4FDFCC004C005C006C007AF3FAE8E
:1043BD003EAD3DAC3C781812B0C4E4FEFDFCD0031C
:1043CD00D002D001D000123B94C004C005C006C07D
:1043DD0007AF3FAE3EAD3DAC3C780812007EE4FF2A
:1043ED00FEE4FCD003D002D001D000123B94C004F7
:1043FD00C005C006C007AF3FAE3EAD3DAC3C781822
:10440D0012007EE4FFFEFDECD003D002D001D000FF
:10441D00123B948F3F8E3E8D3D8C3CE47B64FAF9CC
:10442D00F812AF428F3F8E3E8D3D8C3C8E408F41BA
:10443D0074042533F533E43532F532AB31FAA93353
:10444D00123BD68F3F8E3E8D3D8C3C780812B0C40A
:10445D00E4FFE4FDFCC004C005C006C007AF3FAEDD
:10446D003EAD3DAC3C781812B0C4E4FEFDFCD0036B
:10447D00D002D001D000123B94C004C005C006C0CC
:10448D0007AF3FAE3EAD3DAC3C780812007EE4FF79
:10449D00FEE4FCD003D002D001D000123B94C00446
:1044AD00C005C006C007AF3FAE3EAD3DAC3C781871
:1044BD0012007EE4FFFEFDECD003D002D001D0004F
:1044CD00123B948F3F8E3E8D3D8C3CE47B64FAF91C
:1044DD00F812AF428F3F8E3E8D3D8C3CC3E49FF56D
:1044ED0045E49EF544E5405407FEE47803CEC3133E
:1044FD00CE13D8F9AB34AA35A93690001012392352
:10450D00E5425407FEE47806CEC313CE13D8F990D6
:10451D0000101238DEE54454039000101238DEE529
:10452D0041900011123923E543900012123923E511
:0E453D00459000131239239002E8E04401F08B
:10454B008006753A00753B019002E8E06407600352
:10455B00024879F0900F00E060030246A99000003A
:10456B00E075F015A424B7F9740235F0FA7B01A8B5
:10457B0036AC35AD347E007F15123850AB34AA35CE
:10458B00A936123BD6EF24FAFFE43EFEE43DFDE4F0
:10459B003CFC123C26900000E0FFC374019F75F0B9
:1045AB0015A424B7F582E43402F583123C64E4FBD2
:1045BB00FAF9F8C3123BC570030246A9AB34E536D2
:1045CB002406F9E43535FAC003C002C001123BD60C
:1045DB00C004C005C006C007900000E0FFFDC37417
:1045EB00019DFDE49400FC9002BD75F015ED123DAC
:1045FB0027EC75F015A42583F583123C70EF75F04D
:10460B0015A424BDF582E43402F583123C64123AFE
:10461B00B8A804A905AA06AB07D007D006D005D0C9
:10462B0004123AABD001D002D003123C26AB34E5D6
:10463B0036240AF9E43535FAC003C002C001123B37
:10464B00D6C004C005C006C007900000E0FFFDC344
:10465B0074019DFDE49400FC9002C175F015ED1200
:10466B003D27EC75F015A42583F583123C70EF758F
:10467B00F015A424C1F582E43402F583123C6412D4
:10468B003AB8A804A905AA06AB07D007D006D005EF
:10469B00D004123AABD001D002D003123C269000CA
:1046AB0000E0FFC374019FF0E075F015A424B7F987
:1046BB00740235F0A801FC7D01AB34AA35A9367E16
:1046CB00007F15123850900015E0700302481990C6
:1046DB000F007406F0AB34AA35A936123CE9000082
:1046EB002710AB34AA35A936900004740675F0AECA
:1046FB00123A7E900006123D0300BC6A7790000AC6
:10470B00123D03002A2BDF90000E740175F02C1262
:10471B003A7E90102FE004F0901029E0FEA3E0FF0A
:10472B00C39432EE648094804007E490102DF080A7
:10473B0011D3EF94CEEE6480947F500690102D74BD
:10474B0001F090102FE0FF75F005123876AEF0EE09
:10475B00601690102DE09010296006E475F0018032
:10476B000474FFF5F01239D090102BE0FCA3E0FDA0
:10477B00C39432EC648094804007E490102EF08058
:10478B0011D3ED94CEEC6480947F500690102E7470
:10479B0001F0EF2402601690102EE090102B6006B3
:1047AB00E475F001800474FFF5F01239D0901029F4
:1047BB00E0FEA3E0FFFDAC06EC5407FEE47803CE6D
:1047CB00C313CE13D8F9AB34AA35A9369000101207
:1047DB00392390102BE0FEA3EE5407FEE47806CEAF
:1047EB00C313CE13D8F99000101238DEED900011E0
:1047FB0012392390102BA3E0900012123923900052
:10480B001374011239239000147419123923908DEB
:10481B00A8E493FF3395E0FE90028275F013EF123C
:10482B003D27EE75F013A42583F583123D43E92450
:10483B0007F9E43A8B37F5388939900F00E0FF78A8
:10484B0037E475F001123D33EF123911A839AC384A
:10485B00AD37AB34AA35A9367E007F1512385075AB
:0E486B004C00754D167B227D037F02129824AF
:01487900221C
:1085420002080001010C00020D0000421030000080
:0485520041103200A2
:06AC36008B568A57895875
:10AC3C00858459AB56AA57A958900002123A274559
:10AC4C00F070F0AB56AA57A95890000D123D55C0A4
:10AC5C0003C002C001AB56AA57A958900007123D79
:10AC6C0085AB56AA57A958900002EC8DF0123A7E8B
:10AC7C001238987006F584D2998005758401D299A2
:03AC8C0085598463
:01AC8F0022A2
:10003E00AE84E4F5848F9B30FFFDC2FFAF9B8E84B0
:01004E00228F
:10AC9000AF8475840F759601758C67E4FDFC0DBD5E
:10ACA00000010CE4B505F7ECB401F3E58C30E7FBEB
:10ACB000759701E4F58A758905F58475B720758463
:10ACC0000F758D01758F01758E03FCFD0DBD0001A3
:10ACD0000CE4B505F7ECB401F3438902E58930E4EF
:06ACE000FB7597028F8452
:01ACE600224B
:0E940E008B428A4389448F488E478D468C4599
:10941C0085844912389814606F04600302960EE438
:10942C00F58475911590000A1238B124BB6018248C
:10943C00F6601424EA601024F760071460092421F4
:10944C00700875985080037598D0E4F58475C8043D
:10945C0075C908AB48AA47A946A845FFFE7D657C9F
:10946C0004123B02E47B10FAF9F8123B02123BA106
:10947C008ECB8FCA74FFF5CDF5CCD2CAE4F584C27D
:10948C0099C298D2AC02960E758401AB42AA43A93C
:10949C004490000A1238B124BB601824F6601424DE
:1094AC00EA601024F760071460092421700875988D
:1094BC00108003759890E4F58453890F438920AB91
:1094CC0048AA47A946A845FFFE7D657C04123B02CD
:1094DC00E47B02FAF9F8123B02E4FB7A01F9F81288
:1094EC003B02E47B01FAF9F8D3123BC54026AB48AA
:1094FC00AA47A946A845E4FFFE7D657C04123B0201
:10950C00E47B02FAF9F8123B02123BA18F8D438ED9
:10951C00100295FFAB48AA47A946A845E4FFFE7D7B
:10952C00657C04123B02E47B02FAF9F8123B02E47C
:10953C00FB7A01F9F8123B02E47B04FAF9F8D31236
:10954C003BC54031AB48AA47A946A845E4FFFE7D80
:10955C00657C04123B02E47B02FAF9F8123B02E44C
:10956C007B04FAF9F8123B02123BA18F8D538EEC5F
:10957C00438E01807EAB48AA47A946A845E4FFFE6E
:10958C007D657C04123B02E47B02FAF9F8123B0283
:10959C00E4FB7A01F9F8123B02E47B0CFAF9F8D3FC
:1095AC00123BC5AB48AA47A946A845E4FFFE7D651A
:1095BC007C04401F123B02E47B02FAF9F8123B02D6
:1095CC00E47B0CFAF9F8123B02123BA18F8D538EFF
:1095DC00EC8020123B02E47B02FAF9F8123B02E425
:1095EC007B30FAF9F8123B02123BA18F8D538EECB3
:1095FC00438E02858D8BD28E758401C299C298439D
:05960C00E740854984E0
:019611002236
:10002600AF84E4F584759D04759A70C2FFD2F88F8B
:010036008445
:0100370022A6
:10B04B00AD84758401E4F5C8F5C9EF2408FFE43E2F
:10B05B00FEC3E49FFFE49EF5CB8FCA74FFF5CDF5DD
:09B06B00CC43E70143C8048D84C5
:01B0740022B9
:0300230002961230
:10961200C0E0C0F0C083C082C0D075D000C000C01E
:0D96220001C002C003C004C005C006C0079F
:10962F00E59820E0030297AC8599275398FEE5084B
:10963F006003029776E50924FE60631470030296B7
:10964F00DE14700302974324036003029776750DAF
:10965F0000750E00E527641660030297769002806E
:10966F00E0FF7E007C027D1D12B109900285123D44
:10967F0043E92FF9EA3E8B0FF5108911FA050EE534
:10968F000EAE0D7002050D14F5828E83E52712398B
:10969F0023E527620C750800750902029776AB0F58
:1096AF00AA10A911050EE50EAE0D7002050D14F5E9
:1096BF00828E83E527123923E527620CE50E6406B7
:1096CF00450D6003029776F508750903029776AB8F
:1096DF000FAA10A911050EE50EAE0D7002050D149F
:1096EF00F5828E83E527123923630CFFE50C65277E
:1096FF007031AB0FAA10A9119000031238B1750A7F
:10970F0000F50B750B00F50A9000041238B1250B0C
:10971F00F50BE4350AF50A450B6046750800750927
:10972F00048044750D00750E0075080075090175EC
:10973F000C008033D2B4AB0FAA10A911050EE50EA1
:10974F00AE0D7002050D14F5828E83E527123923B5
:10975F00E50B2407FFE4350AFEEFB50E0AEEB50D53
:10976F0006750800750905E50964054508702EC2E0
:10977F00B4F508750901F50DF50EF50C9002791287
:10978F003D43E94A4B7016AB0FAA10A9119002790D
:10979F00123D4C900280E0FFC374019FF0E59830BA
:1097AF00E13E900277E07002A3E06023D2B4900212
:1097BF007C123D43123898F59990027DE475F001C3
:1097CF001239D090027774FFF5F01239D0800EC2A3
:1097DF00B47B007A00790090027C123D4C5398FDC7
:1097EF00D007D006D005D004D003D002D001D000CE
:0B97FF00D0D0D082D083D0F0D0E03278
:0300A300028FA920
:108FA900C0E0C0F0C083C082C0D075D000C000C08E
:098FB90001C002C003C006C0079C
:108FC200E59820E003029154859928901032E0122E
:108FD2003DDE8FF300900401901702906703909496
:108FE2000490AD0590D406911507912608000091D2
:108FF20051E52864B5600302915190103204F002E9
:109002009151E528901032B462067402F002915137
:10901200E4F0029151751800751700901030E4F0D9
:10902200A3F0900293E075F0DCA4FF900298123D49
:1090320043E92FF9EA35F08B12F5138914FA9010EF
:1090420030E475F0011239E685F082F583E52812E5
:109052003923E5282517F5172518F51890103274CD
:1090620003F0029151AB12AA13A914901030E475C7
:10907200F0011239E685F082F583E528123923E5FD
:10908200282517F5172518F5189010327404F002E8
:109092009151751500852816E5282517F51725180D
:1090A200F5189010327405F0029151E528FEE4257E
:1090B20016F516EE3515F515E5282517F5172518B9
:1090C200F518E5164515901032700280417406F0CD
:1090D200807DAB12AA13A914901030E475F001122E
:1090E20039E685F082F583E528123923E52825172C
:1090F200F5172518F518E5162402FFE43515FE903C
:109102001030E06E7003A3E06F7044901032740769
:10911200F0803CE517901032B528057408F0802FD6
:04912200E4F0802BCA
:10912600900293E0FFB402067E007F008003EF0406
:10913600FF8F29E518B5280E900294E06529600690
:0B914600900293E529F0901032E4F055
:109151005398FEE59830E17090028AE07002A3E036
:109161006057900292E024BB601A24E0601624F656
:1091710060042420702290028F123D4312389830EF
:10918100E00E801190028F123D4312389830E005B5
:1091910043980480035398FB90028F123D43123889
:1091A10098F599900290E475F0011239D090028AF5
:1091B10074FFF5F01239D0800C7B007A00790090B1
:0891C100028F123D4C5398FD92
:1091C900D007D006D003D002D001D000D0D0D082B1
:0791D900D083D0F0D0E0329A
:0300730002A6984A
:10A69800C0E0C0F0C083C082C0D075D000C000C088
:03A6A80006C007E2
:10A6AB0075840153C87F90025FE475F0011239D0B5
:10A6BB009002AFE0FEA3E0FF90025FE0B50619A3A6
:10A6CB00E0B507149002AFE475F0A01239D09000FA
:10A6DB004BE475F0011239D0E4FFFE741F2FF582A5
:10A6EB00740C3EF583E0600D741F2FF582740C3EE5
:10A6FB00F583E014F00FBF00010EEF64034E70DB27
:10A70B0075840F20E816C39002B6E094FF9002B553
:10A71B00E094FF5007E475F0011239D07584007591
:06A72B00BB00C2EDD2EC00
:10A73100D007D006D000D0D0D082D083D0F0D0E0E6
:01A7410032E5
:10A21200E4900FBCF07B017A0C792212ACE7900C2F
:10A222008BE0B4010FA3E0B4860AA3E07004A3E0BC
:10A2320064086019900C8B7401F0A37486F0900C82
:10A242008DE4F0A37408F0900FBC7401F0900C74CC
:10A25200E0B4FF17900016E0900C74600574C8F02B
:10A2620080037464F0900FBC7401F0900C73E0648E
:10A272000160077401F0900FBCF0900C1CE0FCA38D
:10A28200E0FDB40015ECB41011900C90E030E40A3B
:10A29200E054EFF0900FBC7401F0E4B50515ECB496
:10A2A2002011900C90E020E40AE04410F0900FBCE2
:10A2B2007401F0900C22E0FF12005E400D900C221F
:10A2C200E06007E4F0900FBC04F0900C36E0FF125F
:10A2D200005E400D900C36E06007E4F0900FBC0485
:10A2E200F0900C4AE0FF12005E400D900C4AE060D4
:10A2F20007E4F0900FBC04F0900C93E0B4FF07E485
:10A30200F0900FBC04F0900C94E0B4FF11A3E0B401
:10A31200FF0CE4900C94F0A3F0900FBC04F0900FAB
:10A32200BCE0601012B01D7B017A0C79227D807C2A
:04A332000012AA96D5
:01A336002204
:10B01D00AF84E4F584781EF608F6A2AF33FEC2AF16
:10B02D0043B701758F0718E6FC08E6F5828C83E4BB
:0DB03D00F0F58F53B7FEEE24FF92AF8F8425
:01B04A0022E3
:0AAA96008B458A4689478C488D499C
:10AAA00085844AE4F584781EF608F6A2AF33FFC227
:10AAB000AF43B701758F05E4F54BF54CC3E54C95F5
:10AAC00049E5486480F8E54B64809850297845E46E
:10AAD00075F001123D33123898FE781E0806E6180C
:10AAE000860470010614F5828C83EEF0054CE54C6B
:10AAF00070CA054B80C6E4F58F53B7FEEF24FF9272
:04AB0000AF854A844F
:01AB0400222E
:06ACE7008B458A468947F7
:10ACED00858448E4F549F54AF584A2AF33F54BC2A6
:10ACFD00AF758F04E4FFFE054AE54AAC49700205C5
:10AD0D004914F5828C83E493FD7845E475F00112C6
:10AD1D003D33ED1239110FBF00010EEF64804E70FF
:0DAD2D00D6E4F58FE54B24FF92AF854884F6
:01AD3A0022F6
:0EA880008E4C8F4D8C4E8D4F8B508A518952CD
:09A88E0012B0E7EF30E7F9C2F95E
:10A89700E4F557F5580558E55870020557644045E3
:03A8A7005770F2F5
:10A8AA00E54D6401454C70047F8280027F85120069
:10A8BA003EE554AE537806CEA2E713CE13D8F8FF7E
:10A8CA0012003EAF54EF25E025E0FF12003EE4FF00
:10A8DA0012003EE4F555F556C3E556954FE54E642C
:10A8EA0080F8E555648098501DAB50AA51A952854D
:10A8FA0056828555831238B1FF12003E0556E55639
:08A90A0070D6055580D2D2F988
:01A912002222
:02B0E700C2F9AC
:10B0E900E4F559F55A055AE55A700205596440457F
:03B0F9005970F299
:0CB0FC007FD712003EE4FF12003ED2F9A4
:01B108002224
:0AA7E7008E498F4A8B4B8A4C894D36
:09A7F10012B0E7EF30E7F9C2F9FC
:10A7FA00E4F552F5530553E553700205526440459A
:03A80A005270F297
:10A80D007FD212003EE54FAE4E7806CEA2E713CEB4
:10A81D0013D8F8FF12003EAF4FEF25E025E0FF12F1
:10A82D00003EE4FF12003EE4FF12003EE4FF120082
:10A83D003EE4FF12003EE4FF12003EE4F550F551F8
:10A84D00C3E551954AE5496480F8E5506480985018
:10A85D001FE4FF12003EAB4BAA4CA94D85518285DA
:10A86D005083EF1239230551E55170D4055080D036
:02A87D00D2F90E
:01A87F0022B6
:04AE21008E478F4881
:09AE250012B0E7EF30E7F9C2F9C1
:10AE2E00E4F549F54A054AE54A700205496440458C
:03AE3E004970F266
:10AE41007F5012003EE548AE477806CEC313CE13BD
:10AE5100D8F9FF12003EAF48EF25E025E0FF1200D0
:08AE61003EE4FF12003ED2F9AD
:01AE690022C6
:04AE6A008E498F4A34
:09AE6E0012B0E7EF30E7F9C2F978
:10AE7700E4F54BF54C054CE54C7002054B64404539
:03AE87004B70F21B
:10AE8A007F8112003EE54AAE497806CEC313CE133F
:10AE9A00D8F9FF12003EAF4AEF25E025E0FF120085
:08AEAA003EE4FF12003ED2F964
:01AEB200227D
:06AB05008C428D438B44DD
:10AB0B00E5446002C2B68E458F46D3E5469543E5D4
:10AB1B00459542504BE54654077034C3E543954683
:10AB2B00FFE5429545FEC3EF9408EE94004020E507
:10AB3B00446008E546543F7002B2B6AF46AE4512CC
:10AB4B00AE2174072546F546E43545F5458007AF3C
:10AB5B0046AE4512AE6A0546E54670AE054580AA7F
:06AB6B00E5446002C2B6E1
:01AB710022C1
:06A442008B318A328933E0
:06A44800D2F8D2F9C2FABD
:10A44E00E4F537F5380538E53870020537644045D0
:03A45E003770F262
:02A46100D2FA2D
:10A46300E4F537F5380538E53870020537644045BB
:03A473003770F24D
:10A4760012B0E7EF543C123DDEA4980CA4A214A43B
:10A48600AC1CA4B624A4D12CA4EC34A5073C000033
:10A49600A523AB31AA32A9337402801CAB31AA3290
:10A4A600A93374048012AB31AA32A9337408800828
:10A4B600AB31AA32A933741075F000123A5FAB348F
:10A4C600AA35A936740175F008804FAB31AA32A9B6
:10A4D60033741075F000123A5FAB34AA35A936749E
:10A4E6000275F0108034AB31AA32A933742075F0AE
:10A4F60000123A5FAB34AA35A936740275F01080A3
:10A5060019AB31AA32A933742075F000123A5FAB49
:0DA5160034AA35A936740475F020123A5F9E
:01A523002215
:10765D00257300506C61636520756E697420666CCE
:10766D006174206F6E206C6576656C207375726623
:10767D006163652E00466C6970206F7665722E20F1
:10768D004661636520646F776E2E00486F6C6420D1
:10769D00766572746963616C2C2047505320616E5E
:1076AD0074656E6E61206A61636B2075702E004883
:1076BD006F6C6420766572746963616C2C20475021
:1076CD005320616E74656E6E61206A61636B206418
:1076DD006F776E2E005374616E64206F6E20726929
:1076ED0067687420736964652E005374616E64203D
:1076FD006F6E206C65667420736964652E00496E2B
:10770D0076657274696E6720582056616C75657365
:10771D0000496E76657274696E6720592056616CEA
:10772D0075657300496E76657274696E67205A20AF
:10773D0056616C7565730020005A65726F20506F2D
:10774D00696E74733A20582025752C2059202575A3
:10775D002C205A20257500582052616E67653A20FD
:10776D0025752C20257500592052616E67653A20CC
:10777D0025752C202575005A2052616E67653A20BB
:10778D0025752C2025750053746F72696E67204323
:10779D00616C6962726174696F6E204461746120FD
:1077AD00696E20466C6173682E0043616C6962726C
:1077BD006174696F6E20436F6D706C6574652E001A
:1077CD005A65726F696E6720582C20592050574D9D
:1077DD000046696E616C2043616C3A2025752C253D
:1077ED00750046696E616C2056616C3A2025752CCA
:1077FD0025750044617461666C617368205465730E
:10780D0074002A2A20466C617368204641494C4514
:10781D0044202A2A2C20706167652025642C206263
:10782D0079746525640050616765202564206F6B50
:10783D00005465737420436F6D706C6574652E0014
:10784D00496E707574205465737400444947494EF0
:10785D003A200031003000583A2025752C20593A35
:10786D00202575005A3A2025752C2035563A2025AD
:10787D00750035563A2025752C20543A2025750073
:10788D0041303A2025752C2041313A202575004193
:10789D00323A2025752C2041333A20257500496E4A
:1078AD007075745465737420436F6D706C65746579
:1078BD002E004F7574707574205465737400626971
:1078CD0074202564004F757470757454657374203D
:1078DD00436F6D706C6574652E00412F44205465A7
:1078ED00737400426F61726420666C61742E205453
:1078FD00657374206669787475726520617474613E
:10790D00636865642E005820205920203556205A72
:10791D00202041302041312041322041330031209F
:10792D0020200030202020004144546573742050E5
:10793D004153532E002A2A20414454657374204626
:10794D0041494C202A2A004469676974616C2049B9
:10795D004F2054657374004F6E6C792056616C69BD
:10796D006420666F7220535532202D20457869743E
:10797D00696E672E00446967494F546573742050D2
:10798D006F696E74202564002A2A20204641494CD7
:10799D00202A2A00446967494F5465737420504169
:1079AD0053532E002A2A20446967494F5465737436
:1079BD00204641494C202A2A004175746F4F6E2094
:1079CD005465737400456E61626C696E6720417514
:1079DD00746F4F6E2E2E2E0044726F7070696E672D
:1079ED0020355620456E61626C6500446973616295
:1079FD006C696E67204175746F4F6E2E2E2E00418F
:107A0D0075746F4F6E5465737420504153532E002F
:107A1D00534D4275732054657374202D204D617341
:107A2D007465720025752042797465732C20257557
