:10621E00436F707972696768742028432920323081
:10622E0030352D3920547261636B20537973746548
:10623E006D7320546563686E6F6C6F676965732C40
:10624E00204C4C43000200FF000000C0C1C1810180
:10625E0040C30103C00280C241C60106C00780C709
:10626E00410500C5C1C4810440CC010CC00D80CDD8
:10627E00410F00CFC1CE810E400A00CAC1CB810BA7
:10628E0040C90109C00880C841D80118C01980D979
:10629E00411B00DBC1DA811A401E00DEC1DF811F07
:1062AE0040DD011DC01C80DC411400D4C1D5811518
:1062BE0040D70117C01680D641D20112C01380D329
:1062CE00411100D1C1D0811040F00130C03180F1B8
:1062DE00413300F3C1F28132403600F6C1F7813707
:1062EE0040F50135C03480F4413C00FCC1FD813DD8
:1062FE0040FF013FC03E80FE41FA013AC03B80FBA9
:10630E00413900F9C1F88138402800E8C1E98129F6
:10631E0040EB012BC02A80EA41EE012EC02F80EF08
:10632E00412D00EDC1EC812C40E40124C02580E517
:10633E00412700E7C1E68126402200E2C1E3812326
:10634E0040E10121C02080E041A00160C06180A138
:10635E00416300A3C1A28162406600A6C1A7816706
:10636E0040A50165C06480A4416C00ACC1AD816DD7
:10637E0040AF016FC06E80AE41AA016AC06B80ABA8
:10638E00416900A9C1A88168407800B8C1B9817976
:10639E0040BB017BC07A80BA41BE017EC07F80BF08
:1063AE00417D00BDC1BC817C40B40174C07580B517
:1063BE00417700B7C1B68176407200B2C1B3817326
:1063CE0040B10171C07080B041500090C1918151B7
:1063DE0040930153C052809241960156C057809708
:1063EE0041550095C1948154409C015CC05D809DD7
:1063FE00415F009FC19E815E405A009AC19B815BA6
:10640E0040990159C058809841880148C0498089F7
:10641E00414B008BC18A814A404E008EC18F814F05
:10642E00408D014DC04C808C41440084C185814516
:10643E0040870147C046808641820142C043808327
:09644E0041410081C18081404000
:1074E6005000140000000000000000000000000032
:1074F600000000430BF6000000410BF500410C793B
:107506000A41000500026F0000026B0000500024D3
:107516000000000000000000000000000000000065
:1075260001730041028A00410C8000420002000003
:10753600410C7C0042025D000042003C0000420219
:107546008D00A0410C7B00410C7F004202900000A0
:1075560041000100410004004102BF00410BAF00A1
:10756600410C7A0002740000026D00004202930092
:107576000041028F004102C00041000000410C8121
:05758600004102C104F8
:100DC100E4F52DF52CF52BF52A75840F75FFDE75ED
:100DD100FFAD127CFA127DA553B0BF53B0DF53B003
:100DE100EF12005E7534017535097536197B017A8C
:100DF1000B79F31274001272E8900C797414F0E418
:100E010090028FF0900000F0900000E0FFC3942A60
:100E11005018EF75F015A42495F582E43402F5839A
:100E2100E4F0900000E004F080DEE4900000F012B5
:100E31007BE17F007E96120026128104127F25E459
:100E4100900264F09002777402F0900280744EF088
:100E51007B017A0279C2900273120C347A09791BF0
:100E6100900286120C347A0679FC900270120C34CE
:100E71007A0B79B0900283120C34E4900263F09003
:100E8100027604F090026D744EF0E4900278F0A3C3
:100E9100F0900265F0A3F0900282F090026FF09062
:100EA1000281F090026EF01BFAF990027D120C346F
:100EB10090027A120C3490026A120C34900267127A
:100EC1000C340B7A0279637F007E847D037C0012EF
:100ED100668E7B017A0279767F807E257D007C009B
:080EE10012668E43F880D2AFC7
:100EE900900C84120BA0000057E4E4FFFEFDFC9077
:100EF9000C84120B78D3120A914017900C84120BB0
:100F09006C74FFFBFAF9F812093E900C84120B94E9
:020F190080D87E
:100F1B001268921225D9E4900250F0A3F0A3F0903E
:100F2B00025CF0900256F0A3F0900254F0A3F0E5AF
:100F3B00D830E2047F0180027F00900253EFF090E3
:100F4B00025EE02458FE90025DE0340090025AF0FD
:100F5B00A3CEF090003CE0FCA3E0FD2406FEE43CB5
:100F6B00900258F0A3CEF0ED2405FEE43C900C97D4
:100F7B00F0A3CEF0E5D854037002806C7B017A00AD
:100F8B00793E754D00754E037F107E02127854909A
:100F9B0001E4E0540F900006F09001E4E054F0C43B
:100FAB00540F900007F0900006E06403702AE5D818
:100FBB005403FFBF02089002507404F0802E90007F
:100FCB0007E0900250B403097403F0A37401F0809E
:100FDB001B7401F0A3F08014900007E0B403089099
:100FEB0002507402F08005E4900250F0E4FFFED34F
:100FFB0090091AE09F900919E09E4013743E2FF55B
:10100B008274003EF583E4F00FBF00010E80E09088
:10101B00028AE0602CC3900019E094B8900018E0AD
:10102B00940B501D53B0F753B0BF53B0DF53B0EF19
:10103B00E4F54BF54C7B937D037F02126CA112718F
:0C104B008F900250E06404600302122841
:10105700F52EF52F90003CE0FEA3E0FF900C97E003
:10106700B50612A3E0B5070D752E01900C97E47530
:10107700F001120863E5D830E314900252E06404EB
:1010870070030211587404F0752E01021158900272
:1010970052E06404702F7402F090025EE02403FEB5
:1010A70090025DE0340090025AF0A3CEF0E5D8300C
:1010B700E2047F0180027F00900253EFF0E4900288
:1010C7005CF0752E0190025AE0FEA3E0FF90025DEE
:1010D700E0FCA3E0FD6F7002EC6E7075E5D830E2BE
:1010E700047F0180027F00900253E0FE6F70309012
:1010F700025CE0C394025005E004F08047EE601004
:10110700900252E06402603C7402F0752E01803454
:10111700900252E06401602C7401F0F52E80259056
:101127000252E0640360067403F0752E01900253C7
:10113700E070047F0180027F00900253EFF090027D
:101147005C7401F0ED2458FEE43C90025AF0A3CE03
:10115700F0900BF5E0FFC394054006EFD3941F40D2
:101167003FE52E603B900252E0FF906256E493FD0C
:101177003395E0FC90027075F013ED120C0FEC75CF
:10118700F013A42583F583120C2B900007EF1207A9
:10119700A4754B00754C017B297D037F02126CA15E
:1011A700900251E06004A3E0701E9002527401F0B7
:1011B700900251F090003DE02405FE90003CE034A1
:1011C70000900258F0A3CEF0900258E0FEA3E0FF93
:1011D70090003CE0B50619A3E0B50714900258E467
:1011E70075F00A120863900252E0B40103752F01EB
:1011F700900BF5E0FFC394054009EFD3941F50030C
:10120700E4F52FE52F601A9002517405F090025E05
:10121700E02403FE90025DE03400900256F0A3CE76
:01122700F0D6
:10122800900256E0FEA3E0FF90025DE0FCA3E0FD23
:101238006F7002EC6E60030212C0900251E024FD50
:10124800605224FE601A1460512404706B9002519D
:101258007403F0ED2428FEE43C900256F0A3CEF08F
:10126800900251E0B405177406F090025EE024285D
:10127800FE90025DE03400900256F0A3CEF090029A
:1012880050E024FD60091460042403702B8000439F
:10129800C81080249002517404F0900251E0B40602
:1012A800037401F0900250E024FD600914600424E6
:1012B800037005800053C8EF900267120C2BE94AAF
:0312C8004B602B4D
:1012CB00900267120C2B8B2E8A2F89307B007A00B1
:1012DB007900900267120C34AB2EAA2FA930E4FFD1
:0B12EB0012387C900C95EEF0A3EFF0A1
:1012F600900C7BE070030214F9E4F09002BFE0F476
:1013060060030213D6900250E0640460030213C522
:0B131600900252E06404703843C810DD
:10132100900C88120BA00001B774E4FFFEFDFC9045
:101331000C88120B78D3120A914017900C88120B6B
:101341006C74FFFBFAF9F812093E900C88120B94A9
:0213510080D842
:0B13530053C8EF900252E06401606795
:10135E00900C8C120BA0000DBBA0E4FFFEFDFC90C8
:10136E000C8C120B78D3120A914017900C8C120B26
:10137E006C74FFFBFAF9F812093E900C8C120B9468
:02138E0080D805
:0313900043C8103F
:10139300900C90120BA000112A88E4FFFEFDFC9034
:1013A3000C90120B78D3120A914017900C90120BE9
:1013B3006C74FFFBFAF9F812093E900C90120B942F
:0213C30080D8D0
:1013C50053B0F753B0BF53B0DF53B0EF53F87F803E
:1013D500FE9002BFE0FF64F07027900BF5EFF0E49C
:1013E500F574F57590000574FFF043B00843B040FF
:1013F50043B02043B010C2A853E7FD53E7BF021422
:10140500F4EFB4F113900BF5F053B0F753B0BF53AD
:10141500B0DF53B0EF0214F4EF64F2702F900BF5C8
:10142500EFF043B00843B04043B02043B010900BF9
:10143500F4E024FFFD900BF3E034FFFCE4FBFFFE3A
:10144500127B02E4F58443EF010214F99002BFE038
:10145500FFC394054009EFD3941F500343B0409058
:1014650002BFE0FFC39405400CEFD3942350067EE2
:10147500007F0180047E007F00900BF5E0FDC394A2
:1014850005400CEDD3942350067C007D0180047C3F
:10149500007D00ED6F7002EC6E604C9002BFE0FFC6
:1014A500C39405403FEFD39423503912509B127BD0
:1014B500E11225D9E4900C80F0900C79E0FF74A03E
:1014C5008FF08475F00AA4FF90025EE02401FD9080
:1014D500025DE03400CD2FFEED35F0900002F0A363
:1014E500CEF0800312718F9002BFE0900BF5F0E40F
:1014F5009002BFF0900BF5E0FFC394055003021076
:101505001AEFD39423400302101A900267120C2B92
:10151500E94A4B600302101A900BF8E060030210D1
:101525001A90026A120C2BE94A4B600302101A90BA
:10153500028AE0700302180C900019E094B890003C
:1015450018E0940B4007E490028AF0800690028A26
:101555007401F0C3E570940AE56F648094804006D9
:10156500756F0075700990001AE0FEA3E0FFEF2487
:10157500FBFFEE34EBFEE434FFFDE434FFFCE47BDB
:10158500E87A03F9F8120959E47BE57A24F9F812A7
:101595007FB4900289EFF0E024CEF0900016E0547D
:1015A5000FFD900014E0540FC4F854F0C8E4C4547F
:1015B5000F482DFF906256E493FD3395E0FC9002B1
:1015C5007075F013ED120C0FEC75F013A42583F56F
:1015D50083120C2B900007EF1207A490005475F0AE
:1015E50033E570120C0FE56F75F033A42583F58391
:1015F50075F003E56C120C0FE56B75F003A42583FC
:10160500F583E0FF900014A3E0FEEF2EFF906256F5
:10161500E4933395E0FC90027075F013ED120C0F16
:10162500EC75F013A42583F583120C2B900008EFBD
:101635001207A490005575F033E570120C0FE56F95
:1016450075F033A42583F58375F003E56C120C0F53
:10165500E56B75F003A42583F583E0FF900016A3E1
:10166500E0FEEF2EFF906256E4933395E0FC900286
:101675007075F013ED120C0FEC75F013A42583F5BE
:1016850083120C2B900009EF1207A4E5D8F4FF9004
:10169500027075F013ED120C0FEC75F013A4258391
:1016A500F583120C2B90000AEF1207A4900262E05A
:1016B500FF900022E0FEA3E0A807088005CEC31333
:1016C500CE13D8F9FF906256E493FD3395E0FC9074
:1016D500027075F013ED120C0FEC75F013A4258351
:1016E500F583120C2B90000BEF1207A4900261E01A
:1016F500FF900020E0FEA3E0A807088005CEC313F5
:10170500CE13D8F9FF906256E493FD3395E0FC9033
:10171500027075F013ED120C0FEC75F013A4258310
:10172500F583120C2B90000CEF1207A4900260E0D9
:10173500FF90001EE0FEA3E0A807088005CEC313B6
:10174500CE13D8F9FF906256E493FD3395E0FC90F3
:10175500027075F013ED120C0FEC75F013A42583D0
:10176500F583120C2B90000DEF1207A490025FE099
:10177500FF90001CE0FEA3E0A807088005CEC31378
:10178500CE13D8F9FF906256E493FD3395E0FC90B3
:10179500027075F013ED120C0FEC75F013A4258390
:1017A500F583120C2B90000EEF1207A490024EE069
:1017B500A3FF90027075F013ED120C0FEC75F0138A
:1017C500A42583F583120C2B90000FEF1207A4902C
:1017D500024EA3E0FF90027075F013ED120C0FECB2
:1017E50075F013A42583F583120C2B900010EF12CE
:1017F50007A4754B00754C0A7B927D037F02126C22
:10180500A1125FE002101A900282E0FF900281E0CF
:031815006F606D94
:10181800EF75F0DCA4FF900286120C2BE92FF9EA91
:1018280035F08B2EF52F8930900282E0FFB4020448
:101838007F008003EF04FF900282EFF0900289E0BE
:10184800FF90005275F033E570120C0FE56F75F0DC
:1018580033A42583F583EFF0AE6FAF707C007D3342
:101868001207C6743E2FF974003E753401F53589A8
:0A18780036AB2EAA2FA9301230451E
:1018820002101A900C80E0FD7017900002E0FEA397
:10189200E0FF90025DE06E7003A3E06F6003021050
:1018A2001A900C79E0FF74A08FF08475F00AA4FFFF
:1018B20090025EE02401FB90025DE03400CB2FFE3B
:1018C200EB35F0900002F0A3CEF0ED700E900C7F9D
:1018D200F090000274FFF5F01208639002C1E0FF7D
:1018E200700302197F900BF5E0FEC39405500302CA
:1018F200197FEED3941F400302197F900C80E07091
:1019020003021A42900250E0FE605C900BF5E0FD8B
:0B191200C394054052EDD3941F504CCD
:10191D00EEB40407900252E0B40408900250E06463
:10192D00046039900C79E0900C94B428057406F09D
:10193D0080037404F0900C94E0B50720900251746C
:10194D0002F0900254E0FEA3E0FF90025EE02FFF54
:0C195D0090025DE03E900256F0A3EFF017
:101969009002C1E014F06003021A42F56BF56CF5C0
:101979006FF570021A42900BF5E0FFC3940550030E
:0C198900021A42EFD394234003021A42DA
:10199500900C7FE0FF906256E493FD3395E0FC9058
:1019A500027075F013ED120C0FEC75F013A425837E
:1019B500F583120C2B900007EF1207A4900290E01C
:1019C500A3FF90027075F013ED120C0FEC75F01378
:1019D500A42583F583120C2B900008EF1207A49021
:1019E5000290A3E0FF90027075F013ED120C0FEC5E
:1019F50075F013A42583F583120C2B900009EF12C3
:101A050007A4754B00754C037B277D037F02126C81
:101A1500A1E4F52EF52FD390091AE0952F90091919
:101A2500E0952E4018743E252FF5827400352EF56D
:0D1A350083E4F0052FE52F70DD052E80D92C
:101A4200E4900C80F09002C0F0900C7FE06008639C
:0D1A5200B020E4F002101A53B0DF02101AA9
:0E718F0053B0BF53B0DF900251E06403707044
:10719D00900C99120BA000015F90E4FFFEFDFC9096
:1071AD000C99120B78D3120A914017900C99120B6F
:1071BD006C74FFFBFAF9F812093E900C99120B94BE
:0271CD0080D868
:0371CF00E4F5C81C
:1071D200900C9D120BA000020F58E4FFFEFDFC90E4
:1071E2000C9D120B78D3120A914017900C9D120B32
:1071F2006C74FFFBFAF9F812093E900C9D120B9485
:0272020080D832
:107204009002517401F0A304F0900250E0FFB40422
:1072140008900252E064046013EF64047003027285
:0C722400DE900251E0640460030272DEA0
:10723000900CA1120BA000015F90E4FFFEFDFC90FA
:107240000CA1120B78D3120A914017900CA1120BCB
:107250006C74FFFBFAF9F812093E900CA1120B9422
:0272600080D8D4
:10726200900250E024FD603C1460042403706D43DE
:02727200C81042
:10727400900CA5120BA00001B774E4FFFEFDFC9076
:107284000CA5120B78D3120A91404C900CA5120B4A
:107294006C74FFFBFAF9F812093E900CA5120B94DA
:0272A40080D890
:0372A60043C810CA
:1072A900900CA9120BA00001B774E4FFFEFDFC903D
:1072B9000CA9120B78D3120A914017900CA9120B42
:1072C9006C74FFFBFAF9F812093E900CA9120B94A1
:0272D90080D85B
:0D72DB0053C8EF9002517401F0E4F5C82291
:10509B0090025DE0F533A3E0F534E4F56FF570F5C0
:1050AB006BF56C900C7FF0A3F0900919E0FEA3E078
:1050BB00FF7B017A00793E754D00754E01127854D5
:1050CB00900BAFE024FC601424027027900C7974D1
:1050DB0014F0900254E4F0A374F08026900C7974D1
:1050EB0028F0900254E4F0A374A4F09002C174066B
:1050FB00F08016900C79740AF09002547402F0A3AD
:10510B007434F09002C17404F0900C7AE090028F2A
:10511B00F090028BE0FCA3E0FD4C700890000AF0CD
:10512B00A3F08067900292E0701E1203C7A804A937
:10513B0005AA06AB07E4FFFE7D7A7C481202A71294
:10514B0004007C007DF08038900292E0B40F037471
:10515B0010F090028BE0FCA3E0FDE41203C7A8045F
:10516B00A905AA06AB07E4FFFE7D7A7C481202A7CD
:10517B00120400900292E0FD74788DF084FD7C00A7
:10518B001207C690000AEEF0A3EFF0E5D8540370B7
:10519B000790028FF00254777B017A00793E754DB0
:1051AB0000754E037F107E02127854E4F531F53210
:1051BB0090005675F028E532120C0FE53175F0288A
:1051CB00A42583F583E024FB601524FB7022745F18
:1051DB002532F58274023531F5837403F080207427
:1051EB005F2532F58274023531F5837402F0800F3E
:1051FB00745F2532F58274023531F5837404F00542
:10520B0032E532700205316404453170A3E4F531A7
:10521B00F53290006375F028E532120C0FE531750D
:10522B00F028A42583F583E0FDE53225E0FFE53189
:10523B0033FE740D2FF58274003EF583EDF0900074
:10524B005775F028E532120C0FE53175F028A425BF
:10525B0083F583120B7890005B75F028E532120C06
:10526B000FE53175F028A42583F583120B6C120022
:10527B00A9C004C005C006C00790005775F028E50B
:10528B0032120C0FE53175F028A42583F583120B30
:10529B007890005F75F028E532120C0FE53175F050
:1052AB0028A42583F583120B6C1200A9D003D0021E
:1052BB00D001D0001202A7E4FBFAF9F812034490D4
:1052CB00005775F02860054003025355E532120C68
:1052DB000FE53175F028A42583F583120B78900028
:1052EB005B75F028E532120C0FE53175F028A4251B
:1052FB0083F583120B6C1200A9C004C005C006C055
:10530B000790005775F028E532120C0FE53175F058
:10531B0028A42583F583120B7890005F75F028E5A0
:10532B0032120C0FE53175F028A42583F583120B8F
:10533B006C1200A9D003D002D001D0001202A7C07A
:10534B0004C005C006C0070253DBE532120C0FE5A3
:10535B003175F028A42583F583120B7890005B75CB
:10536B00F028E532120C0FE53175F028A42583F5F2
:10537B0083120B6C1200A9C004C005C006C00790B5
:10538B00005775F028E532120C0FE53175F028A4A3
:10539B002583F583120B7890005F75F028E53212A8
:1053AB000C0FE53175F028A42583F583120B6C12D5
:1053BB0000A9D003D002D001D0001202A71203B172
:1053CB00AB07AA06A905A804C000C001C002C00310
:1053DB0090006475F028E532120C0FE53175F0285A
:1053EB00A42583F583E0FF90006575F028E5321264
:1053FB000C0FE53175F028A42583F583E0C39FFDE1
:10540B00E49400FCE41203C7D003D002D001D00017
:10541B0012019EC004C005C006C00790006475F061
:10542B0028E532120C0FE53175F028A42583F5839E
:10543B00E0FCE41203CCD003D002D001D000120068
:10544B00AD120400AD07E53225E0FFE53133FE7404
:10545B000C2FF58274003EF583EDF00532E53270CA
:10546B0002053164044531600302521D90028FE046
:10547B0030E7034403F0E4F531F532D390091AE039
:10548B009532900919E095314018743E2532F5821A
:10549B0074003531F583E4F00532E53270DD05310A
:0254AB0080D9A6
:0154AD0022DC
:095FE00090028FE0700302621DC3
:035FE90075310609
:105FEC00AF3190028FE0FEA807088002C313D8FCE3
:105FFC0020E00302620FE531120CC6618200617968
:10600C0001606A02606A036028046028056020064B
:10601C000000620FE5D8F4F53202620FAF31EF33B6
:10602C0095E0FEEF25E0FFEE33FE74182FF5827439
:10603C00003EF583E0FEA3E0FFAD31ED3395E0FCCF
:10604C00745D2DF58274023CF583E0FDEFA8050824
:0E605C008005CEC313CE13D8F9F53202620FC1
:10606A00E4F533AF31EF3395E0FEEF25E0FFEE3391
:10607A00FE74182FF58274003EF583E0FEA3E0FF5C
:10608A00AD31ED3395E0FC745D2DF58274023CF57B
:10609A0083E0FBEFA803088005CEC313CE13D8F91B
:1060AA00F53274042DF58274003CF583E0640260D5
:1060BA000302620FAF31EF3395E0FEEF25E0FFEE0A
:1060CA0033FE74092FF58274003EF583E0602304E1
:1060DA00604624FE706A74082FF58274003EF583C8
:1060EA00E0FFE532D39F40047F0180027F008F33B7
:1060FA00804EAF31EF3395E0FEEF25E0FFEE33FE41
:10610A0074082FF58274003EF583E0B532047F01EE
:10611A0080027F008F338028AF31EF3395E0FEEFA6
:10612A0025E0FFEE33FE74082FF58274003EF583F6
:10613A00E0FFE532C39F50047F0180027F008F3366
:10614A00E5336015E5312402FF7401A807088002CF
:10615A00C333D8FC42C802620FE5312402FF74013E
:0F616A00A807088002C333D8FCF452C802620FA2
:0961790090024EE0F53202620FC3
:1061820090024EE0FEA3E0FFF53290000AE0FCA38D
:10619200E0FD4C6078EF4E6074D3ED9FEC9E50387A
:1061A200E4F533F53474062534F58274003533F59D
:1061B20083E0B40113E5342404FF7401A8070880C6
:1061C20002C333D8FCF452C80534E53470020533F7
:1061D2006402453370CF8035E4F533F53474062517
:1061E20034F58274003533F583E0B40112E53424CA
:1061F20004FF7401A807088002C333D8FC42C80513
:0D62020034E534700205336402453370D07A
:0E620F001531C3E531648094804003025FECDA
:01621D00225E
:107C45008B518A528953E92DF9EA3C8B54F55589B4
:107C550056E4F557F558C3855583855682E5539502
:107C650082E5529583502F7851E475F001120C1B73
:107C7500120719FFE5586F25E0FFE433FE74572F0F
:107C8500F58274623EF583E557FFE493F557740179
:0A7C9500936FF55880C0AE57AF584A
:017C9F0022C2
:1072E800E4900CD9F07B017A0B79F9127D51900C5E
:1072F80062E07004A3E064DC700C900C64E070043D
:10730800A3E064086018900C62E4F0A374DCF090C9
:107318000C64E4F0A37408F0900CD97401F0900C9C
:107328004BE0B46508900C4AE064016010900C4B87
:107338007465F0900C4A7401F0900CD9F0900BF33E
:10734800E0FCA3E0FDB40015ECB41011900C67E06C
:1073580030E40AE054EFF0900CD97401F0E4B5057C
:1073680015ECB42011900C67E020E40AE04410F01A
:10737800900CD97401F0900BF9E0FF1280F5400DE4
:10738800900BF9E06007E4F0900CD904F0900C0D34
:10739800E0FF1280F5400D900C0DE06007E4F090DE
:1073A8000CD904F0900C21E0FF1280F5400D900CF0
:1073B80021E06007E4F0900CD904F0900C6AE0B486
:1073C800FF07E4F0900CD904F0900C6BE0B4FF11C7
:1073D800A3E0B4FF0CE4900C6BF0A3F0900CD9047C
:1073E800F0900CD9E0601012808F7B017A0B79F94C
:0773F8007D807C00127B7216
:0173FF00226B
:10808F00AF84E4F584781EF608F6A2AF33FEC2AFD4
:10809F0043B701758F0718E6FC08E6F5828C83E479
:0D80AF00F0F58F53B7FEEE24FF92AF8F84E3
:0180BC0022A1
:0A7B72008B458A4689478C488D49EF
:107B7C0085844AE4F584781EF608F6A2AF33FFC27A
:107B8C00AF43B701758F05E4F54BF54CC3E54C9548
:107B9C0049E5486480F8E54B64809850297845E4C1
:107BAC0075F001120C1B120719FE781E0806E61858
:107BBC00860470010614F5828C83EEF0054CE54CBE
:107BCC0070CA054B80C6E4F58F53B7FEEF24FF92C5
:047BDC00AF854A84A3
:017BE0002282
:067D51008B458A468947BC
:107D5700858448E4F549F54AF584A2AF33F54BC26B
:107D6700AF758F04E4FFFE054AE54AAC497002058A
:107D77004914F5828C83E493FD7845E475F001128C
:107D87000C1BED1207920FBF00010EEF64804E70BF
:0D7D9700D6E4F58FE54B24FF92AF854884BC
:017DA40022BC
:0E78EF008E4C8F4D8C4E8D4F8B508A5189528E
:0A78FD0012007EEF30E7F953F8FDAA
:10790700E4F557F5580558E55870020557644045A2
:037917005770F2B4
:10791A00E54D6401454C70047F8480027F871280A4
:10792A00E4E4FF1280E4E4FF1280E4E4FF1280E45E
:10793A00E4F555F556C3E556954FE54E6480F8E5EE
:10794A0055648098501DAB50AA51A952855682851C
:10795A005583120732FF1280E40556E55670D605A4
:10796A005580D243F802AD54AC53AF4DAE4C027AB7
:01797A008587
:087A85008E598F5A8C5B8D5C59
:107A8D00900919E0FEA3E0FF1277B88F5D12007E1A
:077A9D00EF30E7F953F8FD9B
:107AA400E4F55EF55F055FE55F7002055E644045E1
:037AB4005E70F20F
:107AB700E55D6010E55A6401455970047F838012C3
:107AC7007F86800EE55A6401455970047F828002E3
:107AD7007F851280E4E55CAE5B7806CEA2E713CE25
:107AE70013D8F8FF1280E4AF5CEF25E025E0FF1222
:0A7AF70080E4E4FF1280E443F8028B
:017B01002261
:03007E0053F8FD37
:10008100E4F569F56A056AE56A7002056964404547
:030091006970F2A1
:0D0094007FD71280E4E4FF1280E443F802FD
:0100A100223C
:0A7854008E488F498B4A8A4B894CFD
:0A785E0012007EEF30E7F953F8FD49
:10786800E4F551F5520552E5527002055164404560
:037878005170F25A
:10787B007FD21280E4E54EAE4D7806CEA2E713CE52
:10788B0013D8F8FF1280E4AF4EEF25E025E0FF128E
:10789B0080E4E4FF1280E4E4FF1280E4E4FF128052
:1078AB00E4E4FF1280E4E4FF1280E4E4F54FF550CA
:1078BB00C3E5509549E5486480F8E54F64809850DE
:1078CB001FE4FF1280E4AB4AAA4BA94C855082857A
:1078DB004F83EF1207A40550E55070D4054F80D0AD
:0378EB0043F8025D
:0178EE002277
:0877B8008E608F618C628D630D
:0D77C00075640112007EEF30E7F953F8FD0B
:1077CD00E4F567F5680568E568700205676440458E
:0377DD006770F2E0
:1077E0007FD21280E4E563AE627806CEA2E713CEC4
:1077F00013D8F8FF1280E4AF63EF25E025E0FF1215
:1078000080E4E4FF1280E4E4FF1280E4E4FF1280ED
:10781000E4E4FF1280E4E4FF1280E4E4F565F56639
:10782000C3E5669561E5606480F8E565648098501D
:107830001DE4FF1280E4BFFF047F0180027F008F00
:1078400064EF600A0566E56670D6056580D243F888
:0378500002AF6420
:017853002212
:047E45008E478F488D
:0A7E490012007EEF30E7F953F8FD58
:107E5300E4F549F54A054AE54A7002054964404597
:037E63004970F271
:107E66007F501280E4E548AE477806CEC313CE13A2
:107E7600D8F9FF1280E4AF48EF25E025E0FF128035
:097E8600E4E4FF1280E443F80279
:017E8F0022D0
:047E90008E488F4940
:0A7E940012007EEF30E7F953F8FD0D
:107E9E00E4F54AF54B054BE54B7002054A64404547
:037EAE004A70F225
:107EB1007F811280E4E549AE487806CEC313CE1324
:107EC100D8F9FF1280E4AF49EF25E025E0FF1280E9
:097ED100E4E4FF1280E443F8022E
:017EDA002285
:067B02008C428D438B4410
:107B0800E544600353B0BF8E458F46D3E5469543A1
:107B1800E5459542504CE54654077035C3E5439515
:107B280046FFE5429545FEC3EF9408EE94004021D8
:107B3800E5446009E546543F700363B040AF46AE84
:107B480045127E4574072546F546E43545F54580DA
:107B580007AF46AE45127E900546E54670AD054531
:097B680080A9E544600353B0BF9D
:017B710022F1
:067400008B318A32893352
:0974060043F80143F80253F8FBBE
:10740F00E4F537F5380538E538700205376440453F
:03741F003770F2D1
:0374220043F80428
:10742500E4F537F5380538E5387002053764404529
:037435003770F2BB
:1074380012007EEF543C120CC6745A0C7464147417
:107448006E1C74782474932C74AE3474C93C000098
:1074580074E5AB31AA32A9337402801CAB31AA326D
:10746800A93374048012AB31AA32A9337408800896
:10747800AB31AA32A933741075F0001208F2AB349C
:10748800AA35A936740175F008804FAB31AA32A924
:1074980033741075F0001208F2AB34AA35A93674AB
:1074A8000275F0108034AB31AA32A933742075F01C
:1074B800001208F2AB34AA35A936740275F01080B0
:1074C80019AB31AA32A933742075F0001208F2AB57
:0D74D80034AA35A936740475F0201208F2AC
:0174E5002284
:10581900257300506C61636520756E697420666C30
:105829006174206F6E206C6576656C207375726685
:105839006163652E00486F6C6420766572746963D4
:10584900616C2C2047505320616E74656E6E612027
:105859006A61636B2075702E00486F6C64207665F1
:1058690072746963616C2C2047505320616E7465B2
:105879006E6E61206A61636B20646F776E2E0053D0
:1058890074616E64206F6E20726967687420736931
:1058990064652E005374616E64206F6E206C6566BA
:1058A9007420736964652E00496E76657274696E39
:1058B9006720582056616C75657300496E7665726C
:1058C90074696E6720592056616C756573002000F4
:1058D90043616C6962726174696F6E2056616C759F
:1058E90065733A2025752C2025750041637475610F
:1058F9006C205A65726F20506F696E74733A205824
:105909002025752C205920257500582052616E6775
:10591900653A2025642C20256400592052616E6760
:10592900653A2025642C2025640053746F72696ED2
:10593900672043616C6962726174696F6E204461AA
:10594900746120696E20466C6173682E0043616C36
:105959006962726174696F6E20436F6D706C6574F2
:10596900652E00547261716D61746520496E7075A0
:1059790074205465737400444947494E3A200031F4
:10598900003000583A2025752C20593A20257500F9
:1059990035563A2025752C20543A2025750041307A
:1059A9003A2025752C2041313A2025750041323A9B
:1059B9002025752C2041333A20257500496E7075D4
:1059C900745465737420436F6D706C6574652E0033
:1059D900547261716D617465204F757470757420AE
:1059E9005465737400626974202564004F7574707E
:1059F90075745465737420436F6D706C6574652E8E
:105A09000025752C25750043616C3A2025642C25E9
:105A1900640056616C3A2025752C257500582C2098
:105A290059205A65726F6564204F75740046696E16
:105A3900616C2043616C3A2025642C256400466919
:105A49006E616C2056616C3A2025752C25750044D1
:105A5900617461666C6173682054657374002A2AE5
:105A69002A2A2A2A20466C6173682057726974654C
:105A7900204641494C4544202A2A2A2A2A2A2C20F0
:105A8900706167652025642C20627974652564003E
:105A9900466C617368206F6B2070616765202564AF
:105AA9000044617461666C61736854657374204362
:105AB9006F6D706C6574652E00010204081020403A
:095AC90080010204081020408055
:101A5F008584429000047401F075840FFB7A0B7932
:101A6F00F9127D51E4900C49F090625393900C4A17
:101A7F00F0A37465F0900C62E4F0A374DCF0900CAA
:101A8F0064E4F0A37408F074FFFFFEFDFC900C4CAF
:101A9F00120B78C3120AA7700A900C4C120BA000FD
:101AAF00000000900C50E0B4FF037401F0900C5153
:101ABF00E0B4FF037408F0900C6674FFF0A3F0908D
:101ACF000C527408F0A3E4F0900C547408F0A3E4E3
:101ADF00F0900BF9F0900C0DF0900C21F0900C6041
:101AEF00F0A374A0F0900C5EE4F0A374A0F0E49067
:101AFF000293F0A3F043B00843B04043B02043B08B
:101B0F001090625493FF3395E0FE90027075F013BE
:101B1F00EF120C0FEE75F013A42583F583120C2B27
:101B2F00E92407F9E43AFA754BFF754C58754D19CE
:101B3F00754EFF754F5875501C124C88906254E4C7
:101B4F0093FF3395E0FE90027075F013EF120C0FB8
:101B5F00EE75F013A42583F583120C2BE92407F9F6
:101B6F00E43AFA12000EEF2401F54CE43EF54B90E7
:101B7F006253E493FF7B737D01126CA1125D82129D
:0E1B8F00469F53B0F753B0BF53B0DF53B0EFD3
:101B9D00900CA5120BA0000107ACE4FFFEFDFC901C
:101BAD000CA5120B78D3120A914017900CA5120BAD
:101BBD006C74FFFBFAF9F812093E900CA5120B9408
:021BCD0080D8BE
:101BCF00906254E493FF3395E0FE90027075F0132A
:101BDF00EF120C0FEE75F013A42583F583120C2B67
:101BEF00E92407F9E43AFA754BFF754C58754D190E
:101BFF00754EFF754F5875503E124C88906254E4E5
:101C0F0093FF3395E0FE90027075F013EF120C0FF7
:101C1F00EE75F013A42583F583120C2BE92407F935
:101C2F00E43AFA12000EEF2401F54CE43EF54B9026
:101C3F006253E493FF7B737D01126CA1125D82905E
:101C4F000D45E0FEA3E0FF900D42E02FFF900D4108
:101C5F00E03EC313FEEF13FF900C58EEF0A3EFF02E
:031C6F0043B00877
:101C7200900CA9120BA0000107ACE4FFFEFDFC9042
:101C82000CA9120B78D3120A914017900CA9120BCF
:101C92006C74FFFBFAF9F812093E900CA9120B942E
:021CA20080D8E8
:101CA400906254E493FF3395E0FE90027075F01354
:101CB400EF120C0FEE75F013A42583F583120C2B91
:101CC400E92407F9E43AFA754BFF754C58754D1938
:101CD400754EFF754F58755062124C88906254E4EB
:101CE40093FF3395E0FE90027075F013EF120C0F22
:101CF400EE75F013A42583F583120C2BE92407F960
:101D0400E43AFA12000EEF2401F54CE43EF54B9050
:101D14006253E493FF7B737D01126CA1125D829088
:101D24000D45E0FEA3E0FF900D42E02FFF900D4132
:101D3400E03EC313FEEF13FF900C56EEF0A3EFF05A
:031D440043B04069
:101D4700900CAD120BA0000107ACE4FFFEFDFC9068
:101D57000CAD120B78D3120A914017900CAD120BF1
:101D67006C74FFFBFAF9F812093E900CAD120B9454
:021D770080D812
:101D7900906254E493FF3395E0FE90027075F0137E
:101D8900EF120C0FEE75F013A42583F583120C2BBB
:101D9900E92407F9E43AFA754BFF754C58754D1962
:101DA900754EFF754F58755088124C88906254E4EF
:101DB90093FF3395E0FE90027075F013EF120C0F4C
:101DC900EE75F013A42583F583120C2BE92407F98A
:101DD900E43AFA12000EEF2401F54CE43EF54B907B
:101DE9006253E493FF7B737D01126CA1125D8290B3
:101DF9000D47E0FEA3E0FF900D44E02FFF900D4357
:101E0900E03EC313FEEF13FF900C5AEEF0A3EFF080
:031E190043B020B3
:101E1C00900CB1120BA0000107ACE4FFFEFDFC908E
:101E2C000CB1120B78D3120A914017900CB1120B13
:101E3C006C74FFFBFAF9F812093E900CB1120B947A
:021E4C0080D83C
:101E4E00906254E493FF3395E0FE90027075F013A8
:101E5E00EF120C0FEE75F013A42583F583120C2BE5
:101E6E00E92407F9E43AFA754BFF754C58754D198C
:101E7E00754EFF754F5875509D124C88906254E404
:101E8E0093FF3395E0FE90027075F013EF120C0F76
:101E9E00EE75F013A42583F583120C2BE92407F9B4
:101EAE00E43AFA12000EEF2401F54CE43EF54B90A5
:101EBE006253E493FF7B737D01126CA1125D8290DD
:101ECE000D47E0FEA3E0FF900D44E02FFF900D4381
:101EDE00E03EC313FEEF13FF900C5CEEF0A3EFF0A9
:101EEE0043B010900C56E0FEA3E0FFC3900C59E0F7
:0B1EFE009F900C58E09E4003021FDA8A
:101F0900900CB5120BA0000107ACE4FFFEFDFC909C
:101F19000CB5120B78D3120A914017900CB5120B1D
:101F29006C74FFFBFAF9F812093E900CB5120B9488
:021F390080D84E
:101F3B00906254E493FF3395E0FE90027075F013BA
:101F4B00EF120C0FEE75F013A42583F583120C2BF7
:101F5B00E92407F9E43AFA754BFF754C58754D199E
:101F6B00754EFF754F587550B1124C88906254E402
:101F7B0093FF3395E0FE90027075F013EF120C0F88
:101F8B00EE75F013A42583F583120C2BE92407F9C6
:101F9B00E43AFA12000EEF2401F54CE43EF54B90B7
:101FAB006253E493FF7B737D01126CA1900C58E09C
:101FBB00F543A3E0F544900C56E0FFA3E0900C58DA
:101FCB00CFF0A3EFF0900C56E543F0A3E544F0906F
:101FDB000C5AE0FEA3E0FFC3900C5DE09F900C5CFD
:071FEB00E09E40030220C349
:101FF200900CB9120BA0000107ACE4FFFEFDFC90AF
:102002000CB9120B78D3120A914017900CB9120B2B
:102012006C74FFFBFAF9F812093E900CB9120B949A
:0220220080D864
:10202400906254E493FF3395E0FE90027075F013D0
:10203400EF120C0FEE75F013A42583F583120C2B0D
:10204400E92407F9E43AFA754BFF754C58754D19B4
:10205400754EFF754F587550C4124C88906254E405
:1020640093FF3395E0FE90027075F013EF120C0F9E
:10207400EE75F013A42583F583120C2BE92407F9DC
:10208400E43AFA12000EEF2401F54CE43EF54B90CD
:102094006253E493FF7B737D01126CA1900C5CE0AE
:1020A400F543A3E0F544900C5AE0FFA3E0900C5CE8
:0F20B400CFF0A3EFF0900C5AE543F0A3E544F012
:1020C300900CBD120BA0000107ACE4FFFEFDFC90D9
:1020D3000CBD120B78D3120A914017900CBD120B52
:1020E3006C74FFFBFAF9F812093E900CBD120B94C5
:0220F30080D893
:1020F500906254E493FF3395E0FE90027075F013FF
:10210500EF120C0FEE75F013A42583F583120C2B3B
:10211500E92407F9E43AFA754BFF754C58754D19E2
:10212500754EFF754F587550D7124C88906254E420
:1021350093FF3395E0FE90027075F013EF120C0FCC
:10214500EE75F013A42583F583120C2BE92407F90A
:10215500E43AFA12000EEF2401F54CE43EF54B90FB
:0C2165006253E493FF7B737D01126CA1B8
:10217100900CC1120BA0000107ACE4FFFEFDFC9026
:102181000CC1120B78D3120A914017900CC1120B9B
:102191006C74FFFBFAF9F812093E900CC1120B9412
:0221A10080D8E4
:1021A300906254E493FF3395E0FE90027075F01350
:1021B300EF120C0FEE75F013A42583F583120C2B8D
:1021C300E92407F9E43AFA754BFF754C58754DD974
:1021D300900C5EE0F54EA3E0F54F900C60E0F550F7
:1021E300A3E0F551124C88906254E493FF3395E0D9
:1021F300FE90027075F013EF120C0FEE75F013A43E
:102203002583F583120C2BE92407F9E43AFA12002B
:102213000EEF2401F54CE43EF54B906253E493FF3B
:072223007B737D01126CA129
:10222A00900CC5120BA0000107ACE4FFFEFDFC9068
:10223A000CC5120B78D3120A914017900CC5120BD9
:10224A006C74FFFBFAF9F812093E900CC5120B9454
:02225A0080D82A
:10225C00906254E493FF3395E0FE90027075F01396
:10226C00EF120C0FEE75F013A42583F583120C2BD3
:10227C00E92407F9E43AFA754BFF754C58754DF49F
:10228C00900C52E0F54EA3E0F54F900C54E0F55055
:10229C00A3E0F551124C88906254E493FF3395E01F
:1022AC00FE90027075F013EF120C0FEE75F013A484
:1022BC002583F583120C2BE92407F9E43AFA120072
:1022CC000EEF2401F54CE43EF54B906253E493FF82
:0722DC007B737D01126CA170
:1022E300900CC9120BA0000107ACE4FFFEFDFC90AB
:1022F3000CC9120B78D3120A914017900CC9120B18
:102303006C74FFFBFAF9F812093E900CC9120B9496
:0223130080D870
:10231500906254E493FF3395E0FE90027075F013DC
:10232500EF120C0FEE75F013A42583F583120C2B19
:10233500E92407F9E43AFA754BFF754C59754D13C5
:10234500900C56E0F54EA3E0F54F900C58E0F55093
:10235500A3E0F551124C88906254E493FF3395E065
:10236500FE90027075F013EF120C0FEE75F013A4CA
:102375002583F583120C2BE92407F9E43AFA1200B8
:102385000EEF2401F54CE43EF54B906253E493FFC8
:072395007B737D01126CA1B6
:10239C00900CCD120BA0000107ACE4FFFEFDFC90ED
:1023AC000CCD120B78D3120A914017900CCD120B56
:1023BC006C74FFFBFAF9F812093E900CCD120B94D9
:0223CC0080D8B7
:1023CE00906254E493FF3395E0FE90027075F01323
:1023DE00EF120C0FEE75F013A42583F583120C2B60
:1023EE00E92407F9E43AFA754BFF754C59754D23FC
:1023FE00900C5AE0F54EA3E0F54F900C5CE0F550D2
:10240E00A3E0F551124C88906254E493FF3395E0AB
:10241E00FE90027075F013EF120C0FEE75F013A410
:10242E002583F583120C2BE92407F9E43AFA1200FE
:10243E000EEF2401F54CE43EF54B906253E493FF0E
:07244E007B737D01126CA1FC
:10245500900CD1120BA0000107ACE4FFFEFDFC902F
:102465000CD1120B78D3120A914017900CD1120B94
:102475006C74FFFBFAF9F812093E900CD1120B941B
:0224850080D8FD
:10248700906254E493FF3395E0FE90027075F01369
:10249700EF120C0FEE75F013A42583F583120C2BA6
:1024A700E92407F9E43AFA754BFF754C58754D194D
:1024B700754EFF754F59755033124C88906254E42E
:1024C70093FF3395E0FE90027075F013EF120C0F37
:1024D700EE75F013A42583F583120C2BE92407F975
:1024E700E43AFA12000EEF2401F54CE43EF54B9066
:1024F7006253E493FF7B737D01126CA112808F7B83
:0C250700017A0B79F97D747C00127B7264
:10251300900CD5120BA0000107ACE4FFFEFDFC906C
:102523000CD5120B78D3120A914017900CD5120BCD
:102533006C74FFFBFAF9F812093E900CD5120B9458
:0225430080D83E
:10254500906254E493FF3395E0FE90027075F013AA
:10255500EF120C0FEE75F013A42583F583120C2BE7
:10256500E92407F9E43AFA754BFF754C58754D198E
:10257500754EFF754F59755056124C88906254E44C
:1025850093FF3395E0FE90027075F013EF120C0F78
:10259500EE75F013A42583F583120C2BE92407F9B6
:1025A500E43AFA12000EEF2401F54CE43EF54B90A7
:1025B5006253E493FF7B737D01126CA143B0085312
:1025C500B0BF53B0DF53B0EFE4900004F01272E8EF
:0325D500854284B8
:0125D80022E0
:103FC30085844278C57C0C7D017BFF7A5A79C27E59
:0C3FD300007F081206F39000047401F057
:103FDF00900CA5120BA0000107ACE4FFFEFDFC90B6
:103FEF000CA5120B78D3120A914017900CA5120B47
:103FFF006C74FFFBFAF9F812093E900CA5120B94A2
:02400F0080D857
:10401100906254E493FF3395E0FE90027075F013C3
:10402100EF120C0FEE75F013A42583F583120C2B00
:10403100E92407F9E43AFA754BFF754C58754D19A7
:10404100754EFF754F5975506C124C88906254E44F
:1040510093FF3395E0FE90027075F013EF120C0F91
:10406100EE75F013A42583F583120C2BE92407F9CF
:10407100E43AFA12000EEF2401F54CE43EF54B90C0
:104081006253E493FF7B737D01126CA1E490029370
:03409100F0A3F0A9
:1040940075840FE5E830E019C3900294E094099028
:1040A4000293E0940040030245D5E4900293F0A308
:0C40B400F090028AE060D9E4F085D84367
:1040C000900CA9120BA00006DDD0E4FFFEFDFC90D1
:1040D0000CA9120B78D3120A914017900CA9120B5D
:1040E0006C74FFFBFAF9F812093E900CA9120B94BC
:0240F00080D876
:1040F200906254E493FF3395E0FE90027075F013E2
:10410200EF120C0FEE75F013A42583F583120C2B1E
:10411200E92407F9E43AFA754BFF754C58754D19C5
:10412200754EFF754F587550D7124C88906254E403
:1041320093FF3395E0FE90027075F013EF120C0FAF
:10414200EE75F013A42583F583120C2BE92407F9ED
:10415200E43AFA12000EEF2401F54CE43EF54B90DE
:0C4162006253E493FF7B737D01126CA19B
:10416E00900CAD120BA0000107ACE4FFFEFDFC901D
:10417E000CAD120B78D3120A914017900CAD120BA6
:10418E006C74FFFBFAF9F812093E900CAD120B9409
:02419E0080D8C7
:1041A000754BFF754C59754D807B017A0C79CD129A
:1041B0004C887544007545067B017A0C79CD120058
:1041C0000E74CD2FF9740C3EFA7B01C003C002C0FF
:1041D0000174C52545F582740C3544F583E05543DB
:1041E0007BFF60067A59798880047A59798A8B4BEB
:1041F0008A4C894DD001D002D003124C88E5451578
:104200004570021544C3E5446480948050AA9062CE
:1042100054E493FF3395E0FE90027075F013EF12B3
:104220000C0FEE75F013A42583F583120C2BE924F3
:1042300007F9E43AFA754BFF754C58754D19754EF0
:1042400001754F0C7550CD124C88906254E493FF69
:104250003395E0FE90027075F013EF120C0FEE75BF
:10426000F013A42583F583120C2BE92407F9E43A13
:10427000FA12000EEF2401F54CE43EF54B90625328
:0A428000E493FF7B737D01126CA133
:10428A00900CB1120BA0000107ACE4FFFEFDFC90FC
:10429A000CB1120B78D3120A914017900CB1120B81
:1042AA006C74FFFBFAF9F812093E900CB1120B94E8
:0242BA0080D8AA
:1042BC00754BFF754C59754D8C900014E0F54EA361
:1042CC00E0F54FA3E0F550A3E0F5517B017A0C79B2
:1042DC00CD124C88906254E493FF3395E0FE90022B
:1042EC007075F013EF120C0FEE75F013A42583F517
:1042FC0083120C2BE92407F9E43AFA754BFF754C41
:10430C0058754D19754E01754F0C7550CD124C8862
:10431C00906254E493FF3395E0FE90027075F013B5
:10432C00EF120C0FEE75F013A42583F583120C2BF2
:10433C00E92407F9E43AFA12000EEF2401F54CE4F3
:10434C003EF54B906253E493FF7B737D01126CA19D
:10435C00900CB5120BA0000107ACE4FFFEFDFC9025
:10436C000CB5120B78D3120A914017900CB5120BA6
:10437C006C74FFFBFAF9F812093E900CB5120B9411
:02438C0080D8D7
:10438E00754BFF754C59754D99900018E0F54EA37D
:10439E00E0F54FA3E0F550A3E0F5517B017A0C79DF
:1043AE00CD124C88906254E493FF3395E0FE900258
:1043BE007075F013EF120C0FEE75F013A42583F544
:1043CE0083120C2BE92407F9E43AFA754BFF754C6E
:1043DE0058754D19754E01754F0C7550CD124C8890
:1043EE00906254E493FF3395E0FE90027075F013E3
:1043FE00EF120C0FEE75F013A42583F583120C2B20
:10440E00E92407F9E43AFA12000EEF2401F54CE420
:10441E003EF54B906253E493FF7B737D01126CA1CA
:10442E00900CB9120BA0000107ACE4FFFEFDFC904E
:10443E000CB9120B78D3120A914017900CB9120BCB
:10444E006C74FFFBFAF9F812093E900CB9120B943A
:02445E0080D804
:10446000754BFF754C59754DA790001CE0F54EA398
:10447000E0F54FA3E0F550A3E0F5517B017A0C790C
:10448000CD124C88906254E493FF3395E0FE900285
:104490007075F013EF120C0FEE75F013A42583F571
:1044A00083120C2BE92407F9E43AFA754BFF754C9B
:1044B00058754D19754E01754F0C7550CD124C88BD
:1044C000906254E493FF3395E0FE90027075F01310
:1044D000EF120C0FEE75F013A42583F583120C2B4D
:1044E000E92407F9E43AFA12000EEF2401F54CE44E
:1044F0003EF54B906253E493FF7B737D01126CA1F8
:10450000900CBD120BA0000107ACE4FFFEFDFC9077
:104510000CBD120B78D3120A914017900CBD120BF0
:104520006C74FFFBFAF9F812093E900CBD120B9463
:0245300080D831
:10453200754BFF754C59754DB6900020E0F54EA3B2
:10454200E0F54FA3E0F550A3E0F5517B017A0C7939
:10455200CD124C88906254E493FF3395E0FE9002B2
:104562007075F013EF120C0FEE75F013A42583F59E
:1045720083120C2BE92407F9E43AFA754BFF754CC8
:1045820058754D19754E01754F0C7550CD124C88EA
:10459200906254E493FF3395E0FE90027075F0133D
:1045A200EF120C0FEE75F013A42583F583120C2B7A
:1045B200E92407F9E43AFA12000EEF2401F54CE47B
:1045C2003EF54B906253E493FF7B737D01126CA125
:0A45D200024094E4900293F0A3F07D
:1045DC00900CC1120BA0000107ACE4FFFEFDFC9097
:1045EC000CC1120B78D3120A914017900CC1120B0C
:1045FC006C74FFFBFAF9F812093E900CC1120B9483
:02460C0080D854
:10460E00906254E493FF3395E0FE90027075F013C0
:10461E00EF120C0FEE75F013A42583F583120C2BFD
:10462E00E92407F9E43AFA754BFF754C58754D19A4
:10463E00754EFF754F597550C5124C88906254E4F3
:10464E0093FF3395E0FE90027075F013EF120C0F8E
:10465E00EE75F013A42583F583120C2BE92407F9CC
:10466E00E43AFA12000EEF2401F54CE43EF54B90BD
:10467E006253E493FF7B737D01126CA143B0085328
:10468E00B0BF53B0DF53B0EFE4900004F085428426
:01469E0022F9
:105AD200858442E4F545F54678B17C0C7D017BFF77
:0A5AE2007A5A79CAFE7F081206F313
:105AEC00900CA5120BA0000107ACE4FFFEFDFC908E
:105AFC000CA5120B78D3120A914017900CA5120B1F
:105B0C006C74FFFBFAF9F812093E900CA5120B9479
:025B1C0080D82F
:105B1E00906254E493FF3395E0FE90027075F0139B
:105B2E00EF120C0FEE75F013A42583F583120C2BD8
:105B3E00E92407F9E43AFA754BFF754C58754D197F
:105B4E00754EFF754F597550D9124C88906254E4BA
:105B5E0093FF3395E0FE90027075F013EF120C0F69
:105B6E00EE75F013A42583F583120C2BE92407F9A7
:105B7E00E43AFA12000EEF2401F54CE43EF54B9098
:0C5B8E006253E493FF7B737D01126CA155
:105B9A00900CA9120BA0000107ACE4FFFEFDFC90DB
:105BAA000CA9120B78D3120A914017900CA9120B68
:105BBA006C74FFFBFAF9F812093E900CA9120B94C7
:025BCA0080D881
:105BCC00E4900293F0A3F090025EE024A0F54490E0
:105BDC00025DE03400F54375840FE5E830E019C34D
:105BEC00900294E09409900293E094004003025CCC
:105BFC00BDE4900293F0A3F090025DE0FEA3E0FF01
:105C0C00B544D4EEB543D0EF24A0F544E43EF543BF
:105C1C00906254E493FF3395E0FE90027075F0139C
:105C2C00EF120C0FEE75F013A42583F583120C2BD9
:105C3C00E92407F9E43AFA754BFF754C59754DEEAA
:105C4C0085454E85464F124C88906254E493FF3341
:105C5C0095E0FE90027075F013EF120C0FEE75F0DC
:105C6C0013A42583F583120C2BE92407F9E43AFAE3
:105C7C0012000EEF2401F54CE43EF54B906253E418
:105C8C0093FF7B737D01126CA174B12546F5827470
:105C9C000C3545F583E0F5C80546E546700205452B
:105CAC00FFAE457C007D0712082D8C458D46025BAE
:085CBC00E3E4900293F0A3F071
:105CC400900CAD120BA0000107ACE4FFFEFDFC90AC
:105CD4000CAD120B78D3120A914017900CAD120B35
:105CE4006C74FFFBFAF9F812093E900CAD120B9498
:025CF40080D856
:105CF600906254E493FF3395E0FE90027075F013C2
:105D0600EF120C0FEE75F013A42583F583120C2BFE
:105D1600E92407F9E43AFA754BFF754C58754D19A5
:105D2600754EFF754F597550F5124C88906254E4C4
:105D360093FF3395E0FE90027075F013EF120C0F8F
:105D4600EE75F013A42583F583120C2BE92407F9CD
:105D5600E43AFA12000EEF2401F54CE43EF54B90BE
:105D66006253E493FF7B737D01126CA143B0085329
:0B5D7600B0BF53B0DF53B0EF85428494
:015D810022FF
:105D8200E4F545F546E4F545F54690028AE060FA09
:105D9200900014E0FEA3E0FF900D45EEF0A3EFF0BB
:105DA200900D41EEF0A3EFF0900016E0FEA3E0FFAD
:105DB200900D47EEF0A3EFF0900D43EEF0A3EFF05D
:105DC200E490028AF0C3E5469428E5456480948015
:105DD2004003025F6190028AE060EAAE45AF467C12
:0D5DE200007D0A12082DED4C6003025EC129
:105DEF00900CD9120BA0000107ACE4FFFEFDFC9054
:105DFF000CD9120B78D3120A914017900CD9120BB1
:105E0F006C74FFFBFAF9F812093E900CD9120B943F
:025E1F0080D829
:105E2100754BFF754C5A754D0A900014E0F54EA361
:105E3100E0F54FA3E0F550A3E0F5517B017A0C7931
:105E4100DD124C88906254E493FF3395E0FE90029A
:105E51007075F013EF120C0FEE75F013A42583F596
:105E610083120C2BE92407F9E43AFA754BFF754CC0
:105E710058754D19754E01754F0C7550DD124C88D2
:105E8100906254E493FF3395E0FE90027075F01335
:105E9100EF120C0FEE75F013A42583F583120C2B72
:105EA100E92407F9E43AFA12000EEF2401F54CE473
:105EB1003EF54B906253E493FF7B737D01126CA11D
:105EC100900014E0FEA3E0FF900D41E0FCA3E0FD93
:105ED100C39FEC9E5006AE04AF058000900D41EECD
:105EE100F0A3EFF0900016E0FEA3E0FF900D43E079
:105EF100FCA3E0FDC39FEC9E5006AE04AF058000FD
:105F0100900D43EEF0A3EFF0900014E0FEA3E0FF4C
:105F1100900D45E0FCA3E0FDD39FEC9E4006AE044E
:105F2100AF058000900D45EEF0A3EFF0900016E074
:105F3100FEA3E0FF900D47E0FCA3E0FDD39FEC9EA4
:105F41004006AE04AF058000900D47EEF0A3EFF0E0
:105F5100E490028AF00546E54670020545025DC7F8
:105F6100900D43E0FEA3E0FF900D47E0FCA3E0FDB0
:105F7100C39FFFEC9EFEC3940040028016900D4328
:105F8100E0FEA3E0FFC3ED9FFFEC9EFEC3E49FFF95
:105F9100E49EFED3EF9404EE94004003025D8790EB
:105FA1000D41E0FEA3E0FF900D45E0FCA3E0FDC341
:105FB1009FFFEC9EFEC3940040028016900D41E0CD
:105FC100FEA3E0FFC3ED9FFFEC9EFEC3E49FFFE451
:0E5FD1009EFED3EF9404EE94004003025D8721
:015FDF00229F
:10469F00E4F545F546F584900C60E0A3E0F5FD9058
:1046AF000C60E0A3E0F5FE900C5EE0A3E0F5FB905C
:1046BF000C5EE0A3E0F5FC90028AE070030249BAB9
:1046CF00E4F0E545700F900014E0FFA3E0900C526A
:1046DF00CFF0A3EFF0E546700F900016E0FFA3E0D8
:0846EF00900C54CFF0A3EFF092
:1046F700900CD9120BA0000107ACE4FFFEFDFC9063
:104707000CD9120B78D3120A914017900CD9120BBF
:104717006C74FFFBFAF9F812093E900CD9120B944E
:0247270080D838
:10472900906254E493FF3395E0FE90027075F013A4
:10473900EF120C0FEE75F013A42583F583120C2BE1
:10474900E92407F9E43AFA754BFF754C5A754D108F
:10475900900C5EE0F54EA3E0F54F900C60E0F5504B
:10476900A3E0F551124C88906254E493FF3395E02D
:10477900FE90027075F013EF120C0FEE75F013A492
:104789002583F583120C2BE92407F9E43AFA120080
:104799000EEF2401F54CE43EF54B906253E493FF90
:1047A9007B737D01126CA1754BFF754C5A754D1BBE
:1047B900900C52E0F54EA3E0F54F900C54E0F55003
:0D47C900A3E0F5517B017A0C79ED124C88CC
:1047D600900CDD120BA0000107ACE4FFFEFDFC907F
:1047E6000CDD120B78D3120A914017900CDD120BD8
:1047F6006C74FFFBFAF9F812093E900CDD120B946B
:0248060080D858
:10480800906254E493FF3395E0FE90027075F013C4
:10481800EF120C0FEE75F013A42583F583120C2B01
:10482800E92407F9E43AFA754BFF754C58754D19A8
:10483800754E01754F0C7550ED124C88906254E41A
:1048480093FF3395E0FE90027075F013EF120C0F92
:10485800EE75F013A42583F583120C2BE92407F9D0
:10486800E43AFA12000EEF2401F54CE43EF54B90C1
:104878006253E493FF7B737D01126CA1E545704B95
:10488800900C52E0FEA3E02400EE34F8C364809458
:10489800804010900C52E0FEA3E02400FFEE34F8B4
:1048A800FE8015900C52E0FEA3E02400FFEE34F8E1
:1048B800FEC3E49FFFE49EFED3EF9414EE6480945D
:1048C8008050047F0180027F008F45E5457048C312
:1048D800900C52E094085015900C5EE07002A3E032
:1048E80070028014900C5E74FFF5F08017900C5ED7
:1048F800E07003A3E0F47005754501800A900C5E32
:10490800E475F001120863900C5EE0A3E0F5FB90FB
:104918000C5EE0A3E0F5FCE546704B900C54E0FE1D
:10492800A3E02400EE34F8C3648094804010900C17
:1049380054E0FEA3E02400FFEE34F8FE8015900C4E
:1049480054E0FEA3E02400FFEE34F8FEC3E49FFF2A
:10495800E49EFED3EF9414EE6480948050047F01AB
:1049680080027F008F46E5467048C3900C54E0945F
:10497800085015900C60E07002A3E070028014905B
:104988000C6074FFF5F08017900C60E07003A3E0F2
:10499800F47005754601800A900C60E475F0011208
:1049A8000863900C60E0A3E0F5FD900C60E0A3E0E4
:1049B800F5FEE54570030246C6E54670030246C6A5
:1049C800900CE1120BA0000107ACE4FFFEFDFC9087
:1049D8000CE1120B78D3120A914017900CE1120BDC
:1049E8006C74FFFBFAF9F812093E900CE1120B9473
:0249F80080D865
:1049FA00906254E493FF3395E0FE90027075F013D1
:104A0A00EF120C0FEE75F013A42583F583120C2B0D
:104A1A00E92407F9E43AFA754BFF754C58754D19B4
:104A2A00754EFF754F5A755026124C88906254E4A1
:104A3A0093FF3395E0FE90027075F013EF120C0F9E
:104A4A00EE75F013A42583F583120C2BE92407F9DC
:104A5A00E43AFA12000EEF2401F54CE43EF54B90CD
:104A6A006253E493FF7B737D01126CA190028AE08A
:104A7A0060FAE490028AF0900014E0FFA3E0900C40
:104A8A0052CFF0A3EFF0900016E0FFA3E0900C5491
:054A9A00CFF0A3EFF0D6
:104A9F00900CE5120BA0000107ACE4FFFEFDFC90AB
:104AAF000CE5120B78D3120A914017900CE5120BFC
:104ABF006C74FFFBFAF9F812093E900CE5120B9497
:024ACF0080D88D
:104AD100906254E493FF3395E0FE90027075F013F9
:104AE100EF120C0FEE75F013A42583F583120C2B36
:104AF100E92407F9E43AFA754BFF754C5A754D36BE
:104B0100900C5EE0F54EA3E0F54F900C60E0F5509F
:104B1100A3E0F551124C88906254E493FF3395E081
:104B2100FE90027075F013EF120C0FEE75F013A4E6
:104B31002583F583120C2BE92407F9E43AFA1200D4
:104B41000EEF2401F54CE43EF54B906253E493FFE4
:104B51007B737D01126CA1754BFF754C5A754D47E6
:104B6100900C52E0F54EA3E0F54F900C54E0F55057
:0D4B7100A3E0F5517B017A0C79ED124C8820
:104B7E00900CE9120BA0000107ACE4FFFEFDFC90C7
:104B8E000CE9120B78D3120A914017900CE9120B14
:104B9E006C74FFFBFAF9F812093E900CE9120B94B3
:024BAE0080D8AD
:104BB000906254E493FF3395E0FE90027075F01319
:104BC000EF120C0FEE75F013A42583F583120C2B56
:104BD000E92407F9E43AFA754BFF754C58754D19FD
:104BE000754E01754F0C7550ED124C88906254E46F
:104BF00093FF3395E0FE90027075F013EF120C0FE7
:104C0000EE75F013A42583F583120C2BE92407F924
:104C1000E43AFA12000EEF2401F54CE43EF54B9015
:0C4C20006253E493FF7B737D01026CA1E2
:1054AE00858442E4F543F544F54790625493FF3307
:1054BE0095E0FE90027075F013EF120C0FEE75F082
:1054CE0013A42583F583120C2BE92407F9E43AFA89
:1054DE00754BFF754C58754D19754EFF754F5A75B6
:1054EE005058124C88906254E493FF3395E0FE902E
:1054FE00027075F013EF120C0FEE75F013A42583E6
:10550E00F583120C2BE92407F9E43AFA12000EEF98
:10551E002401F54CE43EF54B906253E493FF7B730C
:10552E007D01126CA1E4900293F0A3F0F545F546CF
:10553E00D390091AE09546900919E095454023AE9F
:10554E0045AF467C017D0012082D743E2546F5823E
:10555E0074003545F583EDF00546E54670020545C8
:10556E0080CE75840FE5E830E019C3900294E09484
:10557E0009900293E094004003025760E490029376
:10558E00F0A3F0900919E0FCA3E0FD7B017A00790D
:10559E003E854353854454E4FFFE1278EF9009197B
:1055AE00E0FEA3E0FF7B017A00793E85434D854402
:1055BE004E127854E4F545F546D390091AE0954617
:1055CE00900919E09545402DAE45AF467C017D0012
:1055DE0012082D743E2546F58274003545F583E09C
:1055EE006D7001EC6005754701800A0546E5467051
:1055FE0002054580C4E547700302568C906254E460
:10560E0093FF3395E0FE90027075F013EF120C0FBE
:10561E00EE75F013A42583F583120C2BE92407F9FC
:10562E00E43AFA754BFF754C5A754D6785434E85B6
:10563E00444F854550854651124C88906254E493F0
:10564E00FF3395E0FE90027075F013EF120C0FEE23
:10565E0075F013A42583F583120C2BE92407F9E4C6
:10566E003AFA12000EEF2401F54CE43EF54B90622F
:0E567E0053E493FF7B737D01126CA102576011
:10568C00900CA5120BA0000107ACE4FFFEFDFC90F2
:10569C000CA5120B78D3120A914017900CA5120B83
:1056AC006C74FFFBFAF9F812093E900CA5120B94DE
:0256BC0080D894
:1056BE00906254E493FF3395E0FE90027075F01300
:1056CE00EF120C0FEE75F013A42583F583120C2B3D
:1056DE00E92407F9E43AFA754BFF754C5A754D9962
:1056EE0085434E85444F124C88906254E493FF33A9
:1056FE0095E0FE90027075F013EF120C0FEE75F040
:10570E0013A42583F583120C2BE92407F9E43AFA46
:10571E0012000EEF2401F54CE43EF54B906253E47B
:10572E0093FF7B737D01126CA1AF44AE43127E904A
:10573E00D3900BF4E09544900BF3E095435008E4BE
:10574E00F543F5440255700544E5447002054302E5
:09575E005570E4900293F0A3F0F1
:10576700900CA9120BA0000107ACE4FFFEFDFC9012
:105777000CA9120B78D3120A914017900CA9120B9F
:105787006C74FFFBFAF9F812093E900CA9120B94FE
:0257970080D8B8
:10579900906254E493FF3395E0FE90027075F01324
:1057A900EF120C0FEE75F013A42583F583120C2B61
:1057B900E92407F9E43AFA754BFF754C58754D1908
:1057C900754EFF754F5A7550AA124C88906254E471
:1057D90093FF3395E0FE90027075F013EF120C0FF2
:1057E900EE75F013A42583F583120C2BE92407F930
:1057F900E43AFA12000EEF2401F54CE43EF54B9021
:0F5809006253E493FF7B737D01126CA18542848F
:01581800226D
:10FE00008E448F458E448F45E4F546F547A2AF33C7
:10FE1000F548C2AFE4F58443B701758F03C3E546E7
:10FE200094FC50168547828546837488F0E4254704
:10FE3000F54774043546F54680E3E4F58FF546F55D
:10FE400047F54BF54C75840FE54C5403700363B0D4
:10FE50004012FFBB8F4DE54D30E7F653F8FDE4F55A
:10FE60004EF54F054FE54F7002054E6440454E700C
:10FE7000F27FD212FFAAE54CAE4B7806CEC313CE6A
:10FE800013D8F9FF12FFAA12FFA2E4FF12FFAAE49F
:10FE9000FF12FFAAE4FF12FFAAE4FF12FFAAE4FF89
:10FEA00012FFAAE4F549F54AE4FF12FFAA743E25C1
:10FEB0004AF58274003549F583EFF0054AE54A704A
:10FEC000020549C3E549940240DE43F802E4F584A3
:10FED000758F01F549F54A743E254AF5827400355F
:10FEE00049F583E0FF0547E547AC46700205461437
:10FEF000F5828C83EFF0054AE54A70020549B400AB
:10FF0000D6E549B402D1E4F58F054CE54C70020505
:0AFF10004BC3947FE54B94005003AF
:10FF1A0002FE45E4F58F53B7FEE54824FF92AFE4AD
:10FF2A00F5D075840FF54BF54CC3E54B942050572B
:10FF3A00E54C543F700363B02012FFBB8F4DE54D73
:10FF4A0030E7F653F8FDE4F54EF54F054FE54F70EF
:10FF5A0002054E6440454E70F27F5012FFAAE54CEE
:10FF6A00AE4B7806CEC313CE13D8F9FF12FFAA12EE
:10FF7A00FFA2E4FF12FFAA43F8027408254CF54CCD
:10FF8A00E4354BF54B80A212FFBB8F4DE54D30E7B0
:08FF9A00F6E4F58443EF0122B7
:10FFA200AF4CEF25E025E0FFAE84E4F5848F9B3073
:09FFB200FFFDC2FFAF9B8E84220B
:10FFBB0053F8FDE4F550F5510551E551700205502C
:10FFCB006440455070F27FD712FFAAE4FF12FFAADC
:04FFDB0043F80222C3
:106C8700906253E493FFAB32AA33A9349000011208
:0A6C97000732FDE4F54BF54C7B06D7
:046CA1008F488B4A43
:106CA500754DFFE4F54EF54FED90625393F5507435
:106CB500F52DF582E4340BF5837464F0906253E4AA
:106CC50093B54819E54A64066013E54A6415600DF5
:106CD50074EF2DF582E4340BF583E54AF0E5507544
:106CE500F013A42470F582E43402F583120C2B749E
:106CF50016120792E55075F013A42470F582E4345A
:106D050002F583120C2B900001E5481207A4E5500B
:106D150075F013A42470F582E43402F583120C2B6C
:106D2500900002ED1207A47402254CF54CE4354B96
:106D3500F54BFFE55075F013A42470F582E4340299
:106D4500F583120C2B900003EF1207A4E55075F0A4
:106D550013A42470F582E43402F583120C2B900001
:106D650004E54C1207A4E55075F013A42470F582D0
:106D7500E43402F583120C2B900005E54A1207A4B2
:106D8500E4FEFFE55075F013A42470F582E43402A7
:106D9500F583120C2B8F828E83120732624D0FBF43
:106DA50000010EEF64064E70DAE55075F013A42469
:106DB50070F582E43402F583120C2B900006E54D44
:106DC5001207A474FE254CF54C74FF354BF54BE5C5
:106DD5005075F013A42470F582E43402F583120C87
:106DE5002BE92407F9E43AFAAD4CAC4B127C458EFD
:106DF5004E8F4FEEFFE55075F013A42470F582E435
:106E05003402F583120C2B054CE54C7002054B241E
:106E150006F582E4354BF583EF1207A4E55075F0CE
:106E250013A42470F582E43402F583120C2B054C6F
:106E3500E54C7002054B2406F582E4354BF583E5F8
:106E45004F1207A4E55075F013A42463F9740235B5
:106E5500F0FA7B01E54C2407FDE4354BFC127CA0E0
:096E6500E54C2407FFE4354BFE67
:016E6E002201
:08387C008F318B328A3389344D
:10388400E4900CA1F0A3F0900003120732FE900024
:10389400041207327C002400FFEC3ECF24FECF3418
:1038A400FFFE900CA3F0FCA3EFF0FDE92407F9E47C
:1038B4003AFA127EDB900CA1EEF0A3EFF04E603AE0
:1038C400AB32AA33A934900005120732FF64157095
:1038D40003023FBAEF64067003023FBA900001127C
:1038E400073224F5F582E4340BF5837464F0900018
:0A38F40001120732FF7D04023C8F31
:1038FE00AB32AA33A934900002120732FF90625302
:10390E00E4936F70030239B8EFF470030239B8EF25
:10391E0093FF3395E0FE90027075F013EF120C0FCB
:10392E00EE75F013A42583F583120C2BE92407F909
:10393E00E43A8B3AF53B893CE5342407F9E4353318
:10394E00853237F5388939E4F535F536D3900CA440
:10395E00E09536900CA3E0953540247837E475F069
:10396E0001120C1B120719FF783AE475F001120CC4
:10397E001BEF1207920536E53670D1053580CDABBB
:10398E0032AA33A934900001120732FF90000212BE
:10399E000732FD900005120732FB900CA3E0F54BA9
:1039AE00A3E0F54C126CA1023FBAAB32AA33A93494
:1039BE00900005120732120CC63A01063A3C103A34
:1039CE0025153CCA303CFF313D27323D4F333D7704
:1039DE00343C23413C23423D9C503DEE513B5E70B6
:1039EE003BC2713A69903ED9913D94933AF8980052
:1039FE00003F8690000112073224EFF582E4340B6B
:103A0E00F583AB32AA33A93490000112073224EFAA
:103A1E00F582E4340B8010AB32AA33A934120719A5
:103A2E0024F0F582E4340BF583E4F0023F73900B3F
:103A3E00F5E0FFC394054006EFD3941F4004EFB4A6
:103A4E00E205127DF68003126C87900CA1EEF0A3B6
:0B3A5E00EFF0AB32AA33A934023F7333
:103A6900900BF5E0FFC394054006EFD3941F400483
:103A7900EFB4E205127DF68065AB32AA33A9349022
:103A89000007120732FE9000081207327C0024005A
:103A9900F53EEC3EF53DE53175F013A42470F58251
:103AA900E43402F583120C2BE92407F9E43AFA907D
:103AB9000919E0FEA3E0FF853D4D853E4E1278547D
:103AC900906253E493FFAB32AA33A93490000112F8
:103AD9000732FD900919E0F54BA3E0126C9D900C9B
:0F3AE900A1EEF0A3EFF0AB32AA33A934023F7382
:103AF800900BF5E0FFC394054006EFD3941F4004F4
:103B0800EFB4E205127DF6803CAB32AA33A93490BB
:103B18000007120732FE9000081207327C002400CA
:103B2800F53EEC3EF53D900919E0FCA3E0FDE924E3
:103B380009F9E43AFA853D53853E547F027E001226
:103B480078EF126C87900CA1EEF0A3EFF0AB32AADD
:063B580033A934023F73A3
:103B5E00900BF5E0FFC394054006EFD3941F40048D
:103B6E00EFB4E205127DF6803AE53175F013A42428
:103B7E0070F582E43402F583120C2BE92407F9E484
:103B8E003AFA127D51906253E493FFAB32AA33A9F5
:103B9E0034900001120732FD754B00754C807B0688
:103BAE00126CA1900CA1EEF0A3EFF0AB32AA33A9E8
:103BBE0034023F73900BF5E0FFC394054006EFD33C
:103BCE00941F4004EFB4E205127DF6803712808F09
:103BDE00AB32E5342407F9E43533FA900CA3E0FE5A
:103BEE00A3E0FFC39480EE94005006AC06AD0780B0
:103BFE00047C007D80127B727B017A0B79F9127D39
:103C0E0051126C87900CA1EEF0A3EFF0AB32AA33F9
:053C1E00A934023F7310
:103C2300900BF5E0FFF53DAB32AA33A934900005C4
:103C3300120732FE7C00B441047D0080027D058CB6
:103C43003E8D3FEE900BF4E024FFFD900BF3E03448
:103C5300FFFC8C408D41AB32AA33A9349000011292
:103C6300073224F5F582E4340BF583E4F0EFC394D3
:103C7300054009900BF5E0D3941F4007900BF5E046
:103C8300B4E217900001120732FF7D20127E0590E7
:103C93000CA1EEF0A3EFF0023FBA900BF574E2F043
:103CA300126C87900CA1EEF0A3EFF0E4FFFE127EFE
:103CB300907B01AD41AC40AF3FAE3E127B02900B17
:073CC300F5E53DF0023FBAF8
:103CCA00126C87900CA1EEF0A3EFF0AB32AA33A9E5
:103CDA003490000112073224F5F582E4340BF5839F
:103CEA00E4F012007E8F3DE53D30E7F6E4F58443CB
:053CFA00EF01023FBADA
:103CFF00126C87900CA1EEF0A3EFF0AB32AA33A9B0
:103D0F003490000112073224F5F582E4340BF58369
:103D1F00E4F0121A5F023FBA126C87900CA1EEF01A
:103D2F00A3EFF0AB32AA33A934900001120732246B
:103D3F00F5F582E4340BF583E4F0123FC3023FBA8A
:103D4F00126C87900CA1EEF0A3EFF0AB32AA33A95F
:103D5F003490000112073224F5F582E4340BF58319
:103D6F00E4F0125AD2023FBAAB32AA33A934900010
:103D7F000112073224F5F582E4340BF583E4F012D7
:103D8F0054AE023FBA9002BF74FF023E71900BF522
:103D9F00E064F07027754501754600754705AB3235
:103DAF00AA33A93412765C126C87900CA1EEF0A3A3
:103DBF00EFF00575E575701E0574801AAB32AA33E6
:103DCF00A934900001120732FF7D08127E05900C76
:103DDF00A1EEF0A3EFF0AB32AA33A934023F7390F8
:103DEF000BF5E0B4F114AB32AA33A93490000712EB
:103DFF000732FF900005E06F6072AB32AA33A9342F
:103E0F00900001120732FF7D08127E05900CA1EE83
:103E1F00F0A3EFF0AB32AA33A934900001120732AE
:0B3E2F0024F5F582E4340BF583E4F089
:103E3A00900C99120BA00000AFC8E4FFFEFDFC90A5
:103E4A000C99120B78D3120A914017900C99120B05
:103E5A006C74FFFBFAF9F812093E900C99120B9454
:023E6A0080D8FE
:103E6C009002BF74F2F0900C7B7401F0023FBA1216
:103E7C006C87900CA1EEF0A3EFF0AB32AA33A9340F
:103E8C0090000112073224F5F582E4340BF583E43B
:013E9C00F035
:103E9D00900C9D120BA00000AFC8E4FFFEFDFC903E
:103EAD000C9D120B78D3120A914017900C9D120B9A
:103EBD006C74FFFBFAF9F812093E900C9D120B94ED
:023ECD0080D89B
:103ECF00AF75AE74127FF8023FBA900C7B7401F09D
:103EDF00AB32AA33A9349000071207329002BFF019
:103EEF00900008120732540F900BAFF09000091298
:103EFF000732900C7AF0E4F535F536AB32AA33A9D8
:103F0F0034E536240AFFE435358F82F58312073204
:103F1F00FF745F2536F58274023535F583EFF005B2
:103F2F0036E536700205356404453570CEAB32AADE
:103F3F0033A93490000E120732900292F090000FC6
:103F4F001208BAFF90028BE5F0F0A3EFF0906253E6
:103F5F00E493FF126C93900CA1EEF0A3EFF0AB3251
:103F6F00AA33A93490000112073224F5F582E43404
:103F7F000BF583E4F08034AB32AA33A934900001FF
:103F8F0012073224F5F582E4340BF5837464F09054
:103F9F000001120732FF7D02127E05900CA1EEF098
:0B3FAF00A3EFF074FF900CA1F0A3F052
:083FBA00900CA1E0FEA3E0FF62
:013FC20022DC
:0A7EDB008B428A4389448C458D4692
:107EE500127C458E478F48AB42AA43A944854682FA
:107EF5008545831207327F00FEE5462401FDE43502
:107F0500458D82F5831207322FFFE43EFEE548B525
:0F7F15000709E547B50604E4FEFF227EFF7FFF64
:017F2400223A
:0F7DF600AB32AA33A934900001120732FF7D206F
:107E0500AE07EE90625393FB3395E0FA90027075DE
:107E1500F013EB120C0FEA75F013A42583F583120A
:107E25000C2B900007ED1207A4906253E493FFAD6D
:107E350006754B00754C017B15126CA1E4FEFF2203
:06765C008B428A438944C1
:10766200E4F548F549900003120732FE9000041237
:107672000732FDEEF54AEDF54BE4F548F549E54BE9
:1076820024FEFFE54A34FFFEC364809482500280E8
:10769200047E027F00C3E5499FEE6480F8E54864FA
:1076A20080985048AB45AA46A947C003C002C00112
:1076B200120719FFAB42AA43A944E5492407FDE496
:1076C20035488D82F583120732FE743E2549F582D4
:1076D20074003548F583EEF06FD001D002D003126A
:1076E20007920549E5497096054880927E00E57546
:1076F2005401FF900919E0FCA3E0FD7B017A0079B7
:0A7702003E8574538575540278EF3C
:047FF8008E428F43E3
:107FFC0090FE00E493FE740193FF900CA8EEF0A3A6
:10800C00EFF0BE8012BFFE0F7B007AFE7902900C5F
:0E801C00A5120C34020D19AF75AE7412FE00E1
:01802A002233
:107BE1008584317B017A0B79F9127D51E4F5847535
:107BF100D98075D84075DA4275DB42900C5EE0A3FE
:107C0100E0F5FB900C5EE0A3E0F5FC900C60E0A3D6
:107C1100E0F5FD900C60E0A3E0F5FE900C79E0FD4D
:107C21007C007E057F001207D88E718F72E4F58487
:107C310075E8C075D107F5BAF5BB75BC7043E702AD
:037C410085318406
:017C4400221D
:03007B00026E6FA3
:106E6F00C0E0C0F0C083C082C0D075D000C000C0E9
:0B6E7F0002C003C004C005C006C0072D
:106E8A00758400C2EDE57325E02424F582E434001C
:106E9A00F583E5BF85BEF0120863E573120CC66E72
:106EAA00C5006ECD016ED5026EDD036EE5046EED92
:106EBA00056EF5066EFD0700006F0375BB0175735D
:106ECA0001803675BB02757302802E75BB08757317
:106EDA0003802675BB03757304801E75BB04757326
:106EEA0005801675BB05757306800E75BB0675732E
:106EFA0007800675BB00757300E57215727002157E
:096F0A00711445716003026FED82
:106F1300900C79E0FF74A08FF0841313543F752213
:106F230000F523E4FBFAEB64034A7020900C79E04C
:106F330075F00A84FF7E0090002AE0FCA3E0FD12B6
:106F430007C690001AEEF0A3EFF08037EB25E0FFC1
:106F5300EA33FE74242FF58274003EF583E0FEA32A
:106F6300E0FFAC22AD231207D8AC06AD07EB25E05A
:106F7300FFEA33FE74142FF58274003EF583ECF0C0
:106F8300A3EDF0EB25E0FFEA33FE74242FF58274C2
:106F9300003EF583E4F0A3F00BBB00010AEB6408A9
:106FA3004A7083900004E07029900C58E0FEA3E03F
:106FB300FF900C57E02FFF900C56E03EFE9000141C
:106FC300E0FCA3E0FDC3EF9DFFEE9C900014F0A353
:106FD300EFF0900C79E0FD7C007E057F001207D86E
:0A6FE3008E718F7290028A7401F023
:0C6FED00E5737003D38001C34002D2ECB6
:106FF900D007D006D005D004D003D002D000D0D01D
:09700900D082D083D0F0D0E03237
:03758B000119FFE4
:107DA500AF8475840F75E1EF75E20775E3C475A4BB
:107DB500157580EA75ADFF75A53D759001E4F5A6CD
:107DC50075A0FF75A7F875B07F759CFFF5C8F59D83
:107DD50075D8FFF59E75E8FF759FFF75F8FFFDFCEB
:107DE5000DBD00010CBC0BF8BDB8F575F8F78F8417
:017DF500226B
:107F2500AF84E4F584F5D875D980F5F9F5FAF5E966
:107F350075EA0C75DC4675D840900C7DF0A3F09081
:107F4500024EF0A3F0F584C28C758905438E08F5C1
:107F55008AF58CC28DD28C758401758880758930BF
:077F6500D2A943E6308F842E
:017F6C0022F2
:0D810400AF84E4F584C289D288D2A88F84AC
:01811100224B
:03005B000270121E
:10701200C0E0C0F0C083C082C0D075D000C000C044
:0D70220001C002C003C004C005C006C007C5
:10702F0053E6CF758400AF8CEFFEAD8A7C00E42D64
:10703F00F525EC3EF524900C7DE0FEA3E0FFC3E5C3
:10704F00259FFFE5249EFED3EF9464EE940050033A
:10705F0002716BC28C758A00758C00C28DD28CE563
:04706F0019F470415F
:10707300F519F526AE24AF25E52625E02434F5825F
:10708300E43400F583EEF0A3EFF0E4FCFDE51D2FFF
:10709300FFE51C3EFEED351BFDEC351A8F1D8E1CE6
:0E70A3008D1BF51A0526E526B404C990024E91
:1070B10002715D0519E519C394044003751900E5D2
:1070C1001925E02434F582E43400F583E0FEA3E0E1
:1070D100FBC3E51D9BFFE51C9EFEE51B9400FDE542
:1070E1001A94008F1D8E1C8D1BF51AAE24AF25E559
:1070F1001925E02434F582E43400F583EEF0A3EFA2
:10710100F0E4FCFDE51D2FFFE51C3EFEED351BFD0A
:10711100EC351A8F1D8E1C8D1BF51AE47B04FAF9D0
:10712100F8AC1A1209E48E248F25C390024FE09522
:1071310025FF90024EE09524FEC394004006AC0664
:10714100AD078009C3E49FFFE49EFCAD0790024EAA
:10715100E0C313FFC3ED9FEC94004007E524F0A3C7
:10716100E525F0900C7DE4F0A3F07584015388CF00
:0371710043E630C2
:10717400D007D006D005D004D003D002D001D0006F
:0B718400D0D0D082D083D0F0D0E03219
:03005300027F6DBC
:107F6D00C0E0C083C082C0D075D000C004C005C0C1
:107F7D0006C00753E6CF758400AF8CEFFEAD8A7C4B
:107F8D0000E42DFFEC3E900C7DF0A3EFF075840125
:107F9D005388CF43E630D007D006D005D004D0D0DB
:077FAD00D082D083D0E03246
:03000B0002802B45
:10802B00C0E0C083C08253E6CF758400C28C758AD2
:10803B0000758C00D28C900C7DE4F0A3F090024E76
:10804B00F0A3F07584015388CF43E630D082D08300
:03805B00D0E03240
:03000300027A0777
:107A0700C0E0C0F0C083C082C0D075D000C000C045
:097A170003C004C005C006C0074D
:107A2000A2AFE433FB900C807401F0900C79E0FD80
:107A30007C007E057F001207D88E718F72757300EF
:107A40007F10900024E4F0A3DFFCC2AF53E7FE7583
:107A50008400C2ECC2ED75BB0075840175C800746A
:0E7A6000FFF5CDF5CC43E70143C8042B92AFF0
:107A6E00D007D006D005D004D003D000D0D0D0821D
:077A7E00D083D0F0D0E0320C
:02FDFE0080FE85
:10758E0002080001010C00020D0000420D4900002E
:04759E00410D4B0050
:067CA0008B568A5789583B
:107CA600858459AB56AA57A9589000021208BA45BE
:107CB600F070F0AB56AA57A95890000D120C3DC0B3
:107CC60003C002C001AB56AA57A958900007120C70
:107CD6006DAB56AA57A958900002EC8DF012091107
:107CE6001207197006F584D2998005758401D29918
:037CF60085598429
:017CF9002268
:1080E400AE84E4F5848F9B30FFFDC2FFAF9B8E848A
:0180F4002269
:107CFA00AF8475840F759601758C67E4FDFC0DBD24
:107D0A0000010CE4B505F7ECB401F3E58C30E7FBB0
:107D1A00759701E4F58A758905F58475B720758428
:107D2A000F758D01758F01758E03FCFD0DBD000168
:107D3A000CE4B505F7ECB401F3438902E58930E4B4
:067D4A00FB7597028F8417
:017D50002210
:0E668E008B348A3589368F3A8E398D388C37A9
:10669C0085843B12071914606F04600302688EE452
:1066AC00F58475911590000A12073224BB601824EA
:1066BC00F6601424EA601024F760071460092421A2
:1066CC00700875985080037598D0E4F58475C804EB
:1066DC0075C908AB3AAA39A938A837FFFE7D657C85
:1066EC00041209E4E47B10FAF9F81209E4120A83A3
:1066FC008ECB8FCA74FFF5CDF5CCD2CAE4F584C22B
:10670C0099C298D2AC02688E758401AB34AA35A9B3
:10671C003690000A12073224BB601824F660142449
:10672C00EA601024F760071460092421700875983A
:10673C00108003759890E4F58453890F438920AB3E
:10674C003AAA39A938A837FFFE7D657C041209E402
:10675C00E47B02FAF9F81209E4E4FB7A01F9F81285
:10676C0009E4E47B01FAF9F8D3120AA74026AB3A04
:10677C00AA39A938A837E4FFFE7D657C041209E428
:10678C00E47B02FAF9F81209E4120A838F8D438E26
:10679C001002687FAB3AAA39A938A837E4FFFE7D0E
:1067AC00657C041209E4E47B02FAF9F81209E4E4CA
:1067BC00FB7A01F9F81209E4E47B04FAF9F8D31234
:1067CC000AA74031AB3AAA39A938A837E4FFFE7DB5
:1067DC00657C041209E4E47B02FAF9F81209E4E49A
:1067EC007B04FAF9F81209E4120A838F8D538EECAC
:1067FC00438E01807EAB3AAA39A938A837E4FFFE54
:10680C007D657C041209E4E47B02FAF9F81209E4D0
:10681C00E4FB7A01F9F81209E4E47B0CFAF9F8D3F9
:10682C00120AA7AB3AAA39A938A837E4FFFE7D654E
:10683C007C04401F1209E4E47B02FAF9F81209E423
:10684C00E47B0CFAF9F81209E4120A838F8D538E4B
:10685C00EC80201209E4E47B02FAF9F81209E4E472
:10686C007B30FAF9F81209E4120A838F8D538EECFF
:10687C00438E02858D8BD28E758401C299C298434A
:05688C00E740853B849C
:0168910022E4
:10005E00AF84E4F584759D04759A70C2FFD2F88F53
:01006E00840D
:01006F00226E
:10002600AD84758401E4F5C8F5C9EF2408FFE43E04
:10003600FEC3E49FFFE49EF5CB8FCA74FFF5CDF5B2
:09004600CC43E70143C8048D849A
:01004F00228E
:03002300026A8EE0
:106A8E00C0E0C0F0C083C082C0D075D000C000C0CE
:0D6A9E0001C002C003C004C005C006C0074F
:106AAB00E59820E003026C278599275398FEE508AB
:106ABB006003026BF3E50924FE6063147003026B41
:106ACB005A147003026BBF24036003026BF3750D42
:106ADB0000750E00E52764166003026BF390026EDF
:106AEB00E0FF7E007C027D1D1207C6900273120C24
:106AFB002BE92FF9EA3E8B0FF5108911FA050EE5FC
:106B0B000EAE0D7002050D14F5828E83E52712076C
:106B1B00A4E527620C750800750902026BF3AB0F35
:106B2B00AA10A911050EE50EAE0D7002050D14F598
:106B3B00828E83E5271207A4E527620CE50E640617
:106B4B00450D6003026BF3F508750903026BF3AB9C
:106B5B000FAA10A911050EE50EAE0D7002050D144E
:106B6B00F5828E83E5271207A4630CFFE50C6527DE
:106B7B007031AB0FAA10A911900003120732750ADE
:106B8B0000F50B750B00F50A900004120732250B6C
:106B9B00F50BE4350AF50A450B60477508007509D6
:106BAB00048045750D00750E00750800750901759B
:106BBB000C00803443B010AB0FAA10A911050EE5E1
:106BCB000EAE0D7002050D14F5828E83E5271207AC
:106BDB00A4E50B2407FFE4350AFEEFB50E0AEEB56C
:106BEB000D06750800750905E50964054508702C47
:106BFB0053B0EFF508750901F50DF50EF50C900284
:106C0B0067120C2BE94A4B7013AB0FAA10A911900A
:106C1B000267120C3490026EE06401F0E59830E1EB
:106C2B0040900265E07002A3E0602443B010900234
:106C3B006A120C2B120719F59990026BE475F0018F
:106C4B0012086390026574FFF5F0120863800F530E
:106C5B00B0EF7B007A00790090026A120C345398E3
:016C6B00FD2B
:106C6C00D007D006D005D004D003D002D001D0007C
:0B6C7C00D0D0D082D083D0F0D0E03226
:0300A3000264579D
:10645700C0E0C0F0C083C082C0D075D000C000C00B
:0964670001C002C003C006C00719
:10647000E59820E003026602859928900D4BE01212
:106480000CC664A10064B20164C5026515036542CF
:1064900004655B0565820665C30765D40800006571
:1064A000FFE52864B560030265FF900D4B04F00220
:1064B00065FFE528900D4BB462067402F00265FF9B
:1064C000E4F00265FF751800751700900D49E4F0BF
