:10621100436F70797269676874202843292032308E
:1062210030352D3720547261636B20537973746557
:106231006D7320546563686E6F6C6F676965732C4D
:10624100204C4C43000200FF000000C0C1C181018D
:1062510040C30103C00280C241C60106C00780C716
:10626100410500C5C1C4810440CC010CC00D80CDE5
:10627100410F00CFC1CE810E400A00CAC1CB810BB4
:1062810040C90109C00880C841D80118C01980D986
:10629100411B00DBC1DA811A401E00DEC1DF811F14
:1062A10040DD011DC01C80DC411400D4C1D5811525
:1062B10040D70117C01680D641D20112C01380D336
:1062C100411100D1C1D0811040F00130C03180F1C5
:1062D100413300F3C1F28132403600F6C1F7813714
:1062E10040F50135C03480F4413C00FCC1FD813DE5
:1062F10040FF013FC03E80FE41FA013AC03B80FBB6
:10630100413900F9C1F88138402800E8C1E9812903
:1063110040EB012BC02A80EA41EE012EC02F80EF15
:10632100412D00EDC1EC812C40E40124C02580E524
:10633100412700E7C1E68126402200E2C1E3812333
:1063410040E10121C02080E041A00160C06180A145
:10635100416300A3C1A28162406600A6C1A7816713
:1063610040A50165C06480A4416C00ACC1AD816DE4
:1063710040AF016FC06E80AE41AA016AC06B80ABB5
:10638100416900A9C1A88168407800B8C1B9817983
:1063910040BB017BC07A80BA41BE017EC07F80BF15
:1063A100417D00BDC1BC817C40B40174C07580B524
:1063B100417700B7C1B68176407200B2C1B3817333
:1063C10040B10171C07080B041500090C1918151C4
:1063D10040930153C052809241960156C057809715
:1063E10041550095C1948154409C015CC05D809DE4
:1063F100415F009FC19E815E405A009AC19B815BB3
:1064010040990159C058809841880148C049808904
:10641100414B008BC18A814A404E008EC18F814F12
:10642100408D014DC04C808C41440084C185814523
:1064310040870147C046808641820142C043808334
:0964410041410081C1808140400D
:10736A0050001400000000000000000000000000AF
:10737A00000000430BEB000000410BEA00410C6ED9
:10738A000A4100050002690000026500005000245D
:10739A0000000000000000000000000000000000E3
:1073AA00016D0041028100410C750042000200009B
:1073BA00410C71004202540000410C7000410C74EF
:1073CA000042028500004100010041000400410220
:1073DA00B400410BA400410C6F00026E000002676A
:1073EA0000004202880000410284004102B50041C7
:0773FA000000004102B6048F
:1030A90075840F75FFDE75FFAD127A93127B3E535F
:1030B900B0BF53B0DF53B0EF1272B112005E75307A
:1030C9000175310975320E7B017A0B79E8127107A6
:1030D900900C6E7414F0E4900284F012797A7F00F7
:1030E9007E96120026127E94127CBEE490025BF05A
:1030F90090026E7402F0900277744EF07B017A02AE
:1031090079B790026A121B6B7A09791090027D12C5
:103119001B6B7A0679F1900267121B6B7A0B79A502
:1031290090027A121B6BE490025AF090026D04F03F
:10313900900264744EF0E490026FF0A3F090025C88
:10314900F0A3F0900279F0900266F0900278F09086
:103159000265F01BFAF9900274121B6B900271124E
:103169001B6B900261121B6B90025E121B6B0B7A38
:1031790002795A7F007E847D037C001266817B017F
:103189007A02796D7F007EE17D007C00126681D232
:10319900AF43F880900281E0602CC3900019E0945D
:1031A900B8900018E0940B501D53B0F753B0BF53BB
:1031B900B0DF53B0EFE4F545F5467B937D037F021D
:1031C900126A98126E0990024EE0606F900252E006
:1031D900FEA3E0FFA3E0FCA3E0FD6F7002EC6E70BC
:1031E9005A90024FE024FD603204704FED2428FE0E
:1031F900E43C900252F0A3CEF090024F7403F09099
:10320900024EE024FE600F1460092402702D43C8A9
:1032190010802843C81043C820802090024F7404AE
:10322900F090024EE024FE600F1460092402700B36
:1032390053C8EF800653C8EF53C8DF90025E121BD4
:0632490062E94A4B602B14
:10324F0090025E121B628B2A8A2B892C7B007A00DC
:10325F00790090025E121B6BAB2AAA2BA92CE4FFFC
:0B326F00123F94900C77EEF0A3EFF0FC
:10327A00900C70E070030233AAE4F09002B4E0FF0D
:10328A0064F07027900BEAEFF0E4F56EF56F9000AA
:10329A000574FFF043B00843B04043B02043B01078
:1032AA00C2A853E7FD53E7BF0233A5EFB4F1139069
:1032BA000BEAF053B0F753B0BF53B0DF53B0EF028D
:1032CA0033A5EF64F2702F900BEAEFF043B0084396
:1032DA00B04043B02043B010900BE9E024FFFD90CA
:1032EA000BE8E034FFFCE4FBFFFE12789BE4F58474
:1032FA0043EF010233AA9002B4E0FFC394044009E9
:10330A00EFD39419500343B0409002B4E0FFC39442
:10331A0004400CEFD3941D50067E007F0180047E8A
:10332A00007F00900BEAE0FDC39404400CEDD394B7
:10333A001D50067C007D0180047C007D00ED6F70CD
:10334A0002EC6E605B9002B4E0FFC394044044EF69
:10335A00D3941D503E900BEAEFF012504E12797A38
:10336A001200A6E4900C75F0900C6EE0FF74A08F2A
:10337A00F08475F00AA4FF900255E02401FD900242
:10338A0054E03400CD2FFEED35F0900002F0A3CECC
:10339A00F08008E4900BEAF0126E09E49002B4F0AF
:1033AA00900BEAE0FFC39404500302319DEFD394DB
:1033BA001D400302319D90025E121B62E94A4B6076
:1033CA000302319D900BEDE0600302319D90026192
:1033DA00121B62E94A4B600302319D900281E07040
:1033EA00030236BD900019E094B8900018E0940BDF
:1033FA004007E4900281F080069002817401F0C3D4
:10340A00E56A940AE56964809480400675690075E6
:10341A006A0990001AE0FEA3E0FFEF24FBFFEE34F6
:10342A00EBFEE434FFFDE434FFFCE47BE87A03F9C5
:10343A00F81218AAE47BE57A24F9F8127D4D900275
:10344A0080EFF0E024CEF0900016E0540FFD9000DB
:10345A0014E0540FC4F854F0C8E4C4540F482DFFC4
:10346A00906249E493FD3395E0FC90026775F0138E
:10347A00ED121B46EC75F013A42583F583121B622B
:10348A00900007EF1216F590005275F033E56A12B4
:10349A001B46E56975F033A42583F58375F003E5CA
:1034AA0066121B46E56575F003A42583F583E0FFE4
:1034BA00900014A3E0FEEF2EFF906249E493339547
:1034CA00E0FC90026775F013ED121B46EC75F013E1
:1034DA00A42583F583121B62900008EF1216F5905B
:1034EA00005375F033E56A121B46E56975F033A49B
:1034FA002583F58375F003E566121B46E56575F0CD
:10350A0003A42583F583E0FF900016A3E0FEEF2EC7
:10351A00FF906249E4933395E0FC90026775F013DB
:10352A00ED121B46EC75F013A42583F583121B627A
:10353A00900009EF1216F5E5D8F4FF90026775F0CE
:10354A0013ED121B46EC75F013A42583F583121BA9
:10355A006290000AEF1216F5900259E0FF900022DD
:10356A00E0FEA3E0A807088005CEC313CE13D8F95E
:10357A00FF906249E493FD3395E0FC90026775F091
:10358A0013ED121B46EC75F013A42583F583121B69
:10359A006290000BEF1216F5900258E0FF9000209F
:1035AA00E0FEA3E0A807088005CEC313CE13D8F91E
:1035BA00FF906249E493FD3395E0FC90026775F051
:1035CA0013ED121B46EC75F013A42583F583121B29
:1035DA006290000CEF1216F5900257E0FF90001E61
:1035EA00E0FEA3E0A807088005CEC313CE13D8F9DE
:1035FA00FF906249E493FD3395E0FC90026775F011
:10360A0013ED121B46EC75F013A42583F583121BE8
:10361A006290000DEF1216F5900256E0FF90001C22
:10362A00E0FEA3E0A807088005CEC313CE13D8F99D
:10363A00FF906249E493FD3395E0FC90026775F0D0
:10364A0013ED121B46EC75F013A42583F583121BA8
:10365A006290000EEF1216F590024CE0A3FF900262
:10366A006775F013ED121B46EC75F013A42583F56C
:10367A0083121B6290000FEF1216F590024CA3E022
:10368A00FF90026775F013ED121B46EC75F013A458
:10369A002583F583121B62900010EF1216F575450B
:1036AA000075460A7B927D037F02126A98125FD3E5
:0F36BA0002319D900279E0FF900278E06F606D21
:1036C900EF75F0DCA4FF90027D121B62E92FF9EA85
:1036D90035F08B2AF52B892C900279E0FFB402048E
:1036E9007F008003EF04FF900279EFF0900280E001
:1036F900FF90005075F033E56A121B46E56975F0D5
:1037090033A42583F583EFF0AE69AF6A7C007D337E
:10371900121717743C2FF974003E753001F5318981
:0A37290032AB2AAA2BA92C12287239
:1037330002319D900C75E0FD7017900002E0FEA32E
:10374300E0FF900254E06E7003A3E06F6003023168
:103753009D900C6EE0FC74A08CF08475F00AA4FFBD
:10376300900255E02401FB900254E03400CB2FFE7D
:10377300EB35F0900002F0A3CEF0ED700E900C74D8
:10378300F090000274FFF5F01217B49002B6E0FF58
:103793006059900C75E0700302389B90024EE06014
:0137A30034F1
:1037A400EC900C76B428057406F080037404F09051
:1037B4000C76E0B5071E90024F7402F0A3E0FEA35E
:1037C400E0FF900255E02FFF900254E03E90025239
:0437D400F0A3EFF07F
:1037D8009002B6E014F0600302389BF565F566F5D3
:0637E80069F56A02389B3E
:1037EE00900C74E0FF906249E493FD3395E0FC90F9
:1037FE00026775F013ED121B46EC75F013A42583CA
:10380E00F583121B62900007EF1216F5900285E009
:10381E00A3FF90026775F013ED121B46EC75F013C3
:10382E00A42583F583121B62900008EF1216F59003
:10383E000285A3E0FF90026775F013ED121B46ECB4
:10384E0075F013A42583F583121B62900009EF1205
:10385E0016F57545007546037B277D037F02126AB8
:10386E0098E4F52AF52BD390090FE0952B90090ECD
:10387E00E0952A4018743C252BF5827400352AF504
:0D388E0083E4F0052BE52B70DD052A80D9C1
:10389B00E4900C75F09002B5F0900C74E060086346
:0D38AB00B020E4F002319D53B0DF02319DEA
:0E6E090053B0BF53B0DF90024FE06403706DD2
:106E1700900C79121AF100015F90E4FFFEFDFC90DF
:106E27000C79121AC9D31219E24017900C79121A69
:106E3700BD74FFFBFAF9F812188F900C79121AE556
:026E470080D8F1
:036E4900E4F5C8A5
:106E4C00900C7D121AF100020F58E4FFFEFDFC902D
:106E5C000C7D121AC9D31219E24017900C7D121A2C
:106E6C00BD74FFFBFAF9F812188F900C7D121AE51D
:026E7C0080D8BC
:106E7E0090024F7404F090024FE064046003026FBE
:016E8E008083
:106E8F00900C81121AF100015F90E4FFFEFDFC905F
:106E9F000C81121AC9D31219E24017900C81121AE1
:106EAF00BD74FFFBFAF9F812188F900C81121AE5D6
:026EBF0080D879
:106EC10090024EE024FE60441460762402600302C6
:056ED1006F8043C810B2
:106ED600900C85121AF10001B774E4FFFEFDFC90D8
:106EE6000C85121AC9D31219E24017900C85121A92
:106EF600BD74FFFBFAF9F812188F900C85121AE58B
:026F060080D831
:086F080053C8EF807343C82059
:106F1000900C89121AF10001B774E4FFFEFDFC9099
:106F20000C89121AC9D31219E24052900C89121A14
:106F3000BD74FFFBFAF9F812188F900C89121AE54C
:026F400080D8F7
:066F420043C81043C82003
:106F4800900C8D121AF10001B774E4FFFEFDFC905D
:106F58000C8D121AC9D31219E24017900C8D121A0F
:106F6800BD74FFFBFAF9F812188F900C8D121AE510
:026F780080D8BF
:106F7A0053C8EF53C8DF90024F7401F0E4F5C822FA
:10504E00E4F569F56AF565F566900C74F0A3F090D9
:10505E00090EE0FEA3E0FF7B017A00793C75470064
:10506E00754801127569900BA4E024FC60142402AB
:10507E007027900C6E7414F0900250E4F0A374F04C
:10508E008026900C6E7428F0900250E4F0A374A465
:10509E00F09002B67406F08016900C6E740AF090C2
:1050AE0002507402F0A37434F09002B67404F090BF
:1050BE000C6FE0900284F0900282E0FCA3E0FD4CC5
:1050CE00700890000AF0A3F08067900287E0701ECF
:1050DE00121318A804A905AA06AB07E4FFFE7D7AF1
:1050EE007C481211F81213517C007DF0803890022A
:1050FE0087E0B40F037410F0900282E0FCA3E0FD91
:10510E00E4121318A804A905AA06AB07E4FFFE7D56
:10511E007A7C481211F8121351900287E0FD7478D0
:10512E008DF084FD7C0012171790000AEEF0A3EFAD
:10513E00F0E5D820E008E4900284F002546A7B0186
:10514E007A00793C7547007548037F107E02127510
:10515E0069E4F52DF52E90005475F028E52E121BFE
:10516E0046E52D75F028A42583F583E024FB601514
:10517E0024FB70227456252EF5827402352DF5838C
:10518E007403F080207456252EF5827402352DF5A9
:10519E00837402F0800F7456252EF5827402352D1D
:1051AE00F5837404F0052EE52E7002052D6404457A
:1051BE002D70A39001E2E0540F900006F09001E2F2
:1051CE00E054F0C4540F900007F090024F7401F0B9
:1051DE00900006E0B40312A3E090024EB4030574EF
:1051EE0003F080197401F08014900007E0B40308F6
:1051FE0090024E7402F08005E490024EF0E4F52D1C
:10520E00F52E90006175F028E52E121B46E52D75E2
:10521E00F028A42583F583E0FDE52E25E0FFE52D9E
:10522E0033FE740D2FF58274003EF583EDF0900081
:10523E005575F028E52E121B46E52D75F028A42590
:10524E0083F583121AC990005975F028E52E121BAA
:10525E0046E52D75F028A42583F583121ABD120F8D
:10526E00FAC004C005C006C00790005575F028E5C9
:10527E002E121B46E52D75F028A42583F583121AF0
:10528E00C990005D75F028E52E121B46E52D75F0D0
:10529E0028A42583F583121ABD120FFAD003D0026B
:1052AE00D001D0001211F8E4FBFAF9F81212959021
:1052BE00005575F02860054003025348E52E121B79
:1052CE0046E52D75F028A42583F583121AC99000A2
:1052DE005975F028E52E121B46E52D75F028A425EC
:1052EE0083F583121ABD120FFAC004C005C006C0A2
:1052FE000790005575F028E52E121B46E52D75F02A
:10530E0028A42583F583121AC990005D75F028E54F
:10531E002E121B46E52D75F028A42583F583121A4F
:10532E00BD120FFAD003D002D001D0001211F8C076
:10533E0004C005C006C0070253CEE52E121B46E57B
:10534E002D75F028A42583F583121AC9900059757E
:10535E00F028E52E121B46E52D75F028A42583F5C1
:10536E0083121ABD120FFAC004C005C006C0079002
:10537E00005575F028E52E121B46E52D75F028A474
:10538E002583F583121AC990005D75F028E52E125B
:10539E001B46E52D75F028A42583F583121ABD1240
:1053AE000FFAD003D002D001D0001211F81213025E
:1053BE00AB07AA06A905A804C000C001C002C0031D
:1053CE0090006275F028E52E121B46E52D75F0282B
:1053DE00A42583F583E0FF90006375F028E52E1277
:1053EE001B46E52D75F028A42583F583E0C39FFDAC
:1053FE00E49400FCE4121318D003D002D001D000C4
:10540E001210EFC004C005C006C00790006275F010
:10541E0028E52E121B46E52D75F028A42583F5836D
:10542E00E0FCE412131DD003D002D001D000120F05
:10543E00FE121351AD07E52E25E0FFE52D33FE7468
:10544E000C2FF58274003EF583EDF0052EE52E70DF
:10545E0002052D6404452D6003025210900284E073
:10546E0030E7034403F0E4F52DF52ED390090FE059
:10547E00952E90090EE0952D4018743C252EF58240
:10548E007400352DF583E4F0052EE52E70DD052D27
:02549E0080D9B3
:0154A00022E9
:095FD300900284E07003026210E8
:035FDC00752D061A
:105FDF00AF2D900284E0FEA807088002C313D8FCFF
:105FEF0020E003026202E52D121BFD617500616C5A
:105FFF0001605D02605D03601B04601B056013069A
:10600F0000006202E5D8F4F52E026202AF2DEF33E5
:10601F0095E0FEEF25E0FFEE33FE74182FF5827446
:10602F00003EF583E0FEA3E0FFAD2DED3395E0FCE0
:10603F0074542DF58274023CF583E0FDEFA805083A
:0E604F008005CEC313CE13D8F9F52E026202DF
:10605D00E4F52FAF2DEF3395E0FEEF25E0FFEE33A6
:10606D00FE74182FF58274003EF583E0FEA3E0FF69
:10607D00AD2DED3395E0FC74542DF58274023CF595
:10608D0083E0FBEFA803088005CEC313CE13D8F928
:10609D00F52E74042DF58274003CF583E0640260E6
:1060AD0003026202AF2DEF3395E0FEEF25E0FFEE28
:1060BD0033FE74092FF58274003EF583E0602304EE
:1060CD00604624FE706A74082FF58274003EF583D5
:1060DD00E0FFE52ED39F40047F0180027F008F2FCC
:1060ED00804EAF2DEF3395E0FEEF25E0FFEE33FE52
:1060FD0074082FF58274003EF583E0B52E047F0100
:10610D0080027F008F2F8028AF2DEF3395E0FEEFBB
:10611D0025E0FFEE33FE74082FF58274003EF58303
:10612D00E0FFE52EC39F50047F0180027F008F2F7B
:10613D00E52F6015E52D2402FF7401A807088002E4
:10614D00C333D8FC42C8026202E52D2402FF74015C
:0F615D00A807088002C333D8FCF452C8026202BC
:09616C0090024CE0F52E026202E3
:1061750090024CE0FEA3E0FFF52E90000AE0FCA3A0
:10618500E0FD4C6078EF4E6074D3ED9FEC9E503887
:10619500E4F52FF53074062530F5827400352FF5BA
:1061A50083E0B40113E5302404FF7401A8070880D7
:1061B50002C333D8FCF452C80530E5307002052F10
:1061C5006402452F70CF8035E4F52FF53074062530
:1061D50030F5827400352FF583E0B40112E53024E3
:1061E50004FF7401A807088002C333D8FC42C80520
:0D61F50030E5307002052F6402452F70D098
:0E620200152DC3E52D648094804003025FDFFC
:01621000226B
:1079DE008B4B8A4C894DE92DF9EA3C8B4EF54F893C
:1079EE0050E4F551F552C3854F83855082E54D9590
:1079FE0082E54C9583502F784BE475F001121B52A3
:107A0E0012166AFFE5526F25E0FFE433FE744A2F2B
:107A1E00F58274623EF583E551FFE493F5517401EE
:0A7A2E00936FF55280C0AE51AF52C5
:017A3800222B
:1074010002080001010C00020D0000420D290000DC
:04741100410D2B00FE
:067A39008B518A528953B3
:107A3F00858454AB51AA52A95390000212180B45DA
:107A4F00F070F0AB51AA52A95390000D121B74C0E5
:107A5F0003C002C001AB51AA52A953900007121BD9
:107A6F00A4AB51AA52A953900002EC8DF0121862E8
:107A7F0012166A7006F584D2998005758401D29921
:037A8F0085548497
:017A920022D1
:107E7400AE84E4F5848F9B30FFFDC2FFAF9B8E84FC
:017E840022DB
:107A9300AF8475840F759601758C67E4FDFC0DBD8D
:107AA30000010CE4B505F7ECB401F3E58C30E7FB1A
:107AB300759701E4F58A758905F58475B720758492
:107AC3000F758D01758F01758E03FCFD0DBD0001D2
:107AD3000CE4B505F7ECB401F3438902E58930E41E
:067AE300FB7597028F8481
:017AE900227A
:0E6681008B2D8A2E892F8F338E328D318C30E7
:10668F0085843412166A14606F046003026881E413
:10669F00F58475911590000A12168324BB60182497
:1066AF00F6601424EA601024F760071460092421AF
:1066BF00700875985080037598D0E4F58475C804F8
:1066CF0075C908AB33AA32A931A830FFFE7D657CAE
:1066DF0004121935E47B10FAF9F81219351219D48E
:1066EF008ECB8FCA74FFF5CDF5CCD2CAE4F584C238
:1066FF0099C298D2AC026881758401AB2DAA2EA9DC
:10670F002F90000A12168324BB601824F6601424FD
:10671F00EA601024F7600714600924217008759847
:10672F00108003759890E4F58453890F438920AB4B
:10673F0033AA32A931A830FFFE7D657C04121935CA
:10674F00E47B02FAF9F8121935E4FB7A01F9F81231
:10675F001935E47B01FAF9F8D31219F84026AB3357
:10676F00AA32A931A830E4FFFE7D657C04121935E9
:10677F00E47B02FAF9F81219351219D48F8D438E72
:10678F0010026872AB33AA32A931A830E4FFFE7D44
:10679F00657C04121935E47B02FAF9F8121935E415
:1067AF00FB7A01F9F8121935E47B04FAF9F8D312E0
:1067BF0019F84031AB33AA32A931A830E4FFFE7D7E
:1067CF00657C04121935E47B02FAF9F8121935E4E5
:1067DF007B04FAF9F81219351219D48F8D538EECF8
:1067EF00438E01807EAB33AA32A931A830E4FFFE7D
:1067FF007D657C04121935E47B02FAF9F81219351C
:10680F00E4FB7A01F9F8121935E47B0CFAF9F8D3A5
:10681F001219F8AB33AA32A931A830E4FFFE7D6517
:10682F007C04401F121935E47B02FAF9F81219356E
:10683F00E47B0CFAF9F81219351219D48F8D538E97
:10684F00EC8020121935E47B02FAF9F8121935E4BD
:10685F007B30FAF9F81219351219D48F8D538EEC4B
:10686F00438E02858D8BD28E758401C299C2984357
:05687F00E740853484B0
:0168840022F1
:10005E00AF84E4F584759D04759A70C2FFD2F88F53
:01006E00840D
:01006F00226E
:10002600AD84758401E4F5C8F5C9EF2408FFE43E04
:10003600FEC3E49FFFE49EF5CB8FCA74FFF5CDF5B2
:09004600CC43E70143C8048D849A
:01004F00228E
:03002300026885EB
:10688500C0E0C0F0C083C082C0D075D000C000C0D9
:0D68950001C002C003C004C005C006C0075A
:1068A200E59820E003026A1E8599225398FEE508C6
:1068B20060030269EAE50924FE6063147003026959
:1068C200511470030269B6240360030269EA750D6C
:1068D20000750E00E522641660030269EA90026503
:1068E200E0FF7E007C027D1D12171790026A121BC8
:1068F20062E92FF9EA3E8B0FF5108911FA050EE5D0
:106902000EAE0D7002050D14F5828E83E52212166D
:10691200F5E522620C7508007509020269EAAB0FFF
:10692200AA10A911050EE50EAE0D7002050D14F5A3
:10693200828E83E5221216F5E522620CE50E6406CC
:10694200450D60030269EAF5087509030269EAABBD
:106952000FAA10A911050EE50EAE0D7002050D1459
:10696200F5828E83E5221216F5630CFFE50C652293
:106972007031AB0FAA10A911900003121683750A89
:1069820000F50B750B00F50A900004121683250B17
:10699200F50BE4350AF50A450B60477508007509E1
:1069A200048045750D00750E0075080075090175A6
:1069B2000C00803443B010AB0FAA10A911050EE5EC
:1069C2000EAE0D7002050D14F5828E83E5221216AD
:1069D200F5E50B2407FFE4350AFEEFB50E0AEEB526
:1069E2000D06750800750905E50964054508702C52
:1069F20053B0EFF508750901F50DF50EF50C90028F
:106A02005E121B62E94A4B7013AB0FAA10A91190D8
:106A1200025E121B6B900265E06401F0E59830E1C2
:106A22004090025CE07002A3E0602443B010900248
:106A320061121B6212166AF599900262E475F00106
:106A42001217B490025C74FFF5F01217B4800F5362
:106A5200B0EF7B007A007900900261121B6B5398B1
:016A6200FD36
:106A6300D007D006D005D004D003D002D001D00087
:0B6A7300D0D0D082D083D0F0D0E03231
:0300A30002644AAA
:10644A00C0E0C0F0C083C082C0D075D000C000C018
:09645A0001C002C003C006C00726
:10646300E59820E0030265F5859923900D2BE01252
:106473001BFD64940064A50164B8026508036535D7
:1064830004654E0565750665B60765C708000065B2
:10649300F2E52364B560030265F2900D2B04F0026C
:1064A30065F2E523900D2BB462067402F00265F2E7
:1064B300E4F00265F2751800751700900D29E4F0F9
:1064C300A3F0900278E075F0DCA4FF90027D121B2C
:1064D30062E92FF9EA35F08B12F5138914FA900D5E
:1064E30029E475F0011217CA85F082F583E52312BA
:1064F30016F5E5232517F5172518F518900D2B74B8
:1065030003F00265F2AB12AA13A914900D29E475E6
:10651300F0011217CA85F082F583E5231216F5E51B
:10652300232517F5172518F518900D2B7404F00281
:1065330065F2751500852316E5232517F51725182C
:10654300F518900D2B7405F00265F2E523FEE425A2
:1065530016F516EE3515F515E5232517F517251848
:10656300F518E5164515900D2B700280417406F061
:10657300807DAB12AA13A914900D29E475F00112C2
:1065830017CA85F082F583E5231216F5E52325174F
:10659300F5172518F518E5162402FFE43515FE90C6
:1065A3000D29E06E7003A3E06F7044900D2B740708
:1065B300F0803CE517900D2BB523057408F0802F70
:0465C300E4F0802B55
:1065C700900278E0FFB402067E007F008003EF04AC
:1065D700FF8F24E518B5230E900279E06524600645
:0B65E700900278E524F0900D2BE4F00A
:1065F2005398FEE59830E17090026FE07002A3E0DC
:106602006057900277E024BB601A24E0601624F6FB
:10661200600424207022900274121B6212166A30E7
:10662200E00E8011900274121B6212166A30E005AD
:1066320043980480035398FB900274121B62121653
:106642006AF599900275E475F0011217B490026F21
:1066520074FFF5F01217B4800C7B007A0079009079
:086662000274121B6B5398FD3A
:10666A00D007D006D003D002D001D000D0D0D0823B
:07667A00D083D0F0D0E03224
:0300730002771CF5
:10771C00C0E0C0F0C083C082C0D075D000C000C033
:03772C0006C0078D
:10772F0075840153C87F900254E475F0011217B4A9
:10773F00E4FFFE74EB2FF582E4340BF583E0600D6C
:10774F0074EB2FF582E4340BF583E014F00FBF00D8
:10775F00010EEF64034E70DB75840FE5E820E01631
:10776F00C3900289E094FF900288E094FF5007E4F1
:10777F0075F0011217B475840075BB00C2EDD2EC21
:10778F00D007D006D000D0D0D082D083D0F0D0E0B8
:01779F0032B7
:1072B100E4900CB9F07B017A0B79EE127AEA900C2A
:1072C10057E07004A3E064C8700C900C59E070049E
:1072D100A3E064076018900C57E4F0A374C8F09021
:1072E1000C59E4F0A37407F0900CB97401F0900C00
:1072F10040E0B46508900C3FE064016010900C40E0
:107301007465F0900C3F7401F0900CB9F0900BEEA5
:10731100E0FF127E85400D900BEEE06007E4F090F7
:107321000CB904F0900C02E0FF127E85400D900C28
:1073310002E06007E4F0900CB904F0900C16E0FF55
:10734100127E85400D900C16E06007E4F0900CB9B8
:1073510004F0900CB9E06010127DF77B017A0B7993
:08736100EE7D807C0012790B27
:017369002201
:107DF700AF84E4F584781EF608F6A2AF33FEC2AF6F
:107E070043B701758F0718E6FC08E6F5828C83E413
:0D7E1700F0F58F53B7FEEE24FF92AF8F847D
:017E2400223B
:0A790B008B3F8A4089418C428D4376
:10791500858444E4F584781EF608F6A2AF33FFC2E9
:10792500AF43B701758F05E4F545F546C3E54695C3
:1079350043E5426480F8E5456480985029783FE442
:1079450075F001121B5212166AFE781E0806E6181B
:10795500860470010614F5828C83EEF00546E54633
:1079650070CA054580C6E4F58F53B7FEEF24FF9234
:04797500AF85448412
:0179790022EB
:067AEA008B3F8A40894138
:107AF000858442E4F543F544F584A2AF33F545C2ED
:107B0000AF758F04E4FFFE0544E544AC4370020505
:107B10004314F5828C83E493FD783FE475F0011201
:107B20001B52ED1216E30FBF00010EEF64804E7082
:0D7B3000D6E4F58FE54524FF92AF85428431
:017B3D002225
:0E7604008E468F478C488D498B4A8A4B894CA5
:0A76120012007EEF30E7F953F8FD97
:10761C00E4F551F5520552E55270020551644045AE
:03762C005170F2A8
:10762F00E5476401454670047F8480027F87127EA0
:10763F0074E4FF127E74E4FF127E74E4FF127E7412
:10764F00E4F54FF550C3E5509549E5486480F8E5FA
:10765F004F648098501DAB4AAA4BA94C8550828528
:10766F004F83121683FF127E740550E55070D605B6
:10767F004F80D243F802AD4EAC4DAF47AE460278C5
:01768F001EDC
:08781E008E538F548C558D56DA
:1078260090090EE0FEA3E0FF1274CD8F5712007E82
:07783600EF30E7F953F8FD04
:10783D00E4F558F5590559E5597002055864404568
:03784D005870F27E
:10785000E5576010E5546401455370047F8380123E
:107860007F86800EE5546401455370047F82800258
:107870007F85127E74E556AE557806CEA2E713CE0C
:1078800013D8F8FF127E74AF56EF25E025E0FF1203
:0A7890007E74E4FF127E7443F802D8
:01789A0022CB
:03007E0053F8FD37
:10008100E4F563F5640564E5647002056364404565
:030091006370F2A7
:0D0094007FD7127E74E4FF127E7443F802E1
:0100A100223C
:0A7569008E428F438B448A45894609
:0A75730012007EEF30E7F953F8FD37
:10757D00E4F54BF54C054CE54C7002054B6440456C
:03758D004B70F24E
:107590007FD2127E74E548AE477806CEA2E713CEBE
:1075A00013D8F8FF127E74AF48EF25E025E0FF12F4
:1075B0007E74E4FF127E74E4FF127E74E4FF127E98
:1075C00074E4FF127E74E4FF127E74E4F549F54A18
:1075D000C3E54A9543E5426480F8E54964809850E4
:1075E0001FE4FF127E74AB44AA45A946854A8285F2
:1075F0004983EF1216F5054AE54A70D4054980D053
:0376000043F8024A
:017603002264
:0874CD008E5A8F5B8C5C8D5D13
:0D74D500755E0112007EEF30E7F953F8FDFF
:1074E200E4F561F5620562E562700205616440459A
:0374F2006170F2D4
:1074F5007FD2127E74E55DAE5C7806CEA2E713CE30
:1075050013D8F8FF127E74AF5DEF25E025E0FF127A
:107515007E74E4FF127E74E4FF127E74E4FF127E33
:1075250074E4FF127E74E4FF127E74E4F55FF56087
:10753500C3E560955BE55A6480F8E55F6480985023
:107545001DE4FF127E74BFFF047F0180027F008F60
:107555005EEF600A0560E56070D6055F80D243F88E
:0375650002AF5E14
:017568002200
:047BDE008E418F4203
:0A7BE20012007EEF30E7F953F8FDC2
:107BEC00E4F543F5440544E544700205436440451F
:037BFC004370F2E1
:107BFF007F50127E74E542AE417806CEC313CE138A
:107C0F00D8F9FF127E74AF42EF25E025E0FF127E18
:097C1F0074E4FF127E7443F802C4
:017C28002239
:047C29008E428F43B5
:0A7C2D0012007EEF30E7F953F8FD76
:107C3700E4F544F5450545E54570020544644045CE
:037C47004470F294
:107C4A007F81127E74E543AE427806CEC313CE130B
:107C5A00D8F9FF127E74AF43EF25E025E0FF127ECC
:097C6A0074E4FF127E7443F80279
:017C730022EE
:06789B008C3C8D3D8B3E8C
:1078A100E53E600353B0BF8E3F8F40D3E540953D29
:1078B100E53F953C504CE54054077035C3E53D9597
:1078C10040FFE53C953FFEC3EF9408EE9400402154
:1078D100E53E6009E540543F700363B040AF40AE00
:1078E1003F127BDE74072540F540E4353FF53F80CC
:1078F10007AF40AE3F127C290540E54070AD053F22
:0979010080A9E53E600353B0BF0C
:01790A00225A
:067107008B2D8A2E892F5A
:09710D0043F80143F80253F8FBBA
:10711600E4F533F5340534E534700205336440454F
:037126003370F2D1
:0371290043F80424
:10712C00E4F533F5340534E5347002053364404539
:03713C003370F2BB
:10713F0012007EEF543C121BFD71610C716B1471C8
:10714F00751C717F24719A2C71B53471D03C00007D
:10715F0071ECAB2DAA2EA92F7402801CAB2DAA2E79
:10716F00A92F74048012AB2DAA2EA92F74088008A2
:10717F00AB2DAA2EA92F741075F000121843AB3047
:10718F00AA31A932740175F008804FAB2DAA2EA930
:10719F002F741075F000121843AB30AA31A9327456
:1071AF000275F0108034AB2DAA2EA92F742075F024
:1071BF0000121843AB30AA31A932740275F0108057
:1071CF0019AB2DAA2EA92F742075F000121843ABFE
:0D71DF0030AA31A932740475F02012184353
:0171EC002280
:10580C00257300506C61636520756E697420666C3D
:10581C006174206F6E206C6576656C207375726692
:10582C006163652E00486F6C6420766572746963E1
:10583C00616C2C2047505320616E74656E6E612034
:10584C006A61636B2075702E00486F6C64207665FE
:10585C0072746963616C2C2047505320616E7465BF
:10586C006E6E61206A61636B20646F776E2E0053DD
:10587C0074616E64206F6E2072696768742073693E
:10588C0064652E005374616E64206F6E206C6566C7
:10589C007420736964652E00496E76657274696E46
:1058AC006720582056616C75657300496E76657279
:1058BC0074696E6720592056616C75657300200001
:1058CC0043616C6962726174696F6E2056616C75AC
:1058DC0065733A2025752C2025750041637475611C
:1058EC006C205A65726F20506F696E74733A205831
:1058FC002025752C205920257500582052616E6783
:10590C00653A2025642C20256400592052616E676D
:10591C00653A2025642C2025640053746F72696EDF
:10592C00672043616C6962726174696F6E204461B7
:10593C00746120696E20466C6173682E0043616C43
:10594C006962726174696F6E20436F6D706C6574FF
:10595C00652E00547261716D61746520496E7075AD
:10596C0074205465737400444947494E3A20003101
:10597C00003000583A2025752C20593A2025750006
:10598C0035563A2025752C20543A20257500413087
:10599C003A2025752C2041313A2025750041323AA8
:1059AC002025752C2041333A20257500496E7075E1
:1059BC00745465737420436F6D706C6574652E0040
:1059CC00547261716D617465204F757470757420BB
:1059DC005465737400626974202564004F7574708B
:1059EC0075745465737420436F6D706C6574652E9B
:1059FC000025752C25750043616C3A2025642C25F7
:105A0C00640056616C3A2025752C257500582C20A5
:105A1C0059205A65726F6564204F75740046696E23
:105A2C00616C2043616C3A2025642C256400466926
:105A3C006E616C2056616C3A2025752C25750044DE
:105A4C00617461666C6173682054657374002A2AF2
:105A5C002A2A2A2A20466C61736820577269746559
:105A6C00204641494C4544202A2A2A2A2A2A2C20FD
:105A7C00706167652025642C20627974652564004B
:105A8C00466C617368206F6B2070616765202564BC
:105A9C000044617461666C6173685465737420436F
:105AAC006F6D706C6574652E000102040810204047
:095ABC0080010204081020408062
:101CF80085843C9000047401F075840FFB7A0B799D
:101D0800EE127AEAE4900C3EF090624693900C3F13
:101D1800F0A37465F0900C57E4F0A374C8F0900C2D
:101D280059E4F0A37407F074FFFFFEFDFC900C412A
:101D3800121AC9C31219F8700A900C41121AF1004C
:101D4800000000900C45E0B4FF037401F0900C46CD
:101D5800E0B4FF037407F0900C5B74FFF0A3F090FD
:101D68000C477408F0A3E4F0900C497408F0A3E45D
:101D7800F0900BEEF0900C02F0900C16F0900C55D1
:101D8800F0A374A0F0900C53E4F0A374A0F0E490D6
:101D98000288F0A3F043B00843B04043B02043B0FA
:101DA8001090624793FF3395E0FE90026775F01339
:101DB800EF121B46EE75F013A42583F583121B6200
:101DC800E92407F9E43AFA7545FF75465875470C52
:101DD8007548FF754958754A0F124C3B906247E4A5
:101DE80093FF3395E0FE90026775F013EF121B46E0
:101DF800EE75F013A42583F583121B62E92407F915
:101E0800E43AFA12000EEF2401F546E43EF5459057
:101E18006246E493FF7B737D01126A98125D751226
:0E1E2800465253B0F753B0BF53B0DF53B0EF84
:101E3600900C85121AF1000107ACE4FFFEFDFC9040
:101E46000C85121AC9D31219E24017900C85121A82
:101E5600BD74FFFBFAF9F812188F900C85121AE57B
:021E660080D822
:101E6800906247E493FF3395E0FE90026775F013A4
:101E7800EF121B46EE75F013A42583F583121B623F
:101E8800E92407F9E43AFA7545FF75465875470C91
:101E98007548FF754958754A31124C3B906247E4C2
:101EA80093FF3395E0FE90026775F013EF121B461F
:101EB800EE75F013A42583F583121B62E92407F954
:101EC800E43AFA12000EEF2401F546E43EF5459097
:101ED8006246E493FF7B737D01126A98125D7590E8
:101EE8000D25E0FEA3E0FF900D22E02FFF900D21CD
:101EF800E03EC313FEEF13FF900C4DEEF0A3EFF09E
:031F080043B008DB
:101F0B00900C89121AF1000107ACE4FFFEFDFC9066
:101F1B000C89121AC9D31219E24017900C89121AA4
:101F2B00BD74FFFBFAF9F812188F900C89121AE5A1
:021F3B0080D84C
:101F3D00906247E493FF3395E0FE90026775F013CE
:101F4D00EF121B46EE75F013A42583F583121B6269
:101F5D00E92407F9E43AFA7545FF75465875470CBB
:101F6D007548FF754958754A55124C3B906247E4C8
:101F7D0093FF3395E0FE90026775F013EF121B4649
:101F8D00EE75F013A42583F583121B62E92407F97E
:101F9D00E43AFA12000EEF2401F546E43EF54590C1
:101FAD006246E493FF7B737D01126A98125D759012
:101FBD000D25E0FEA3E0FF900D22E02FFF900D21F7
:101FCD00E03EC313FEEF13FF900C4BEEF0A3EFF0CA
:031FDD0043B040CE
:101FE000900C8D121AF1000107ACE4FFFEFDFC908D
:101FF0000C8D121AC9D31219E24017900C8D121AC7
:10200000BD74FFFBFAF9F812188F900C8D121AE5C7
:0220100080D876
:10201200906247E493FF3395E0FE90026775F013F8
:10202200EF121B46EE75F013A42583F583121B6293
:10203200E92407F9E43AFA7545FF75465875470CE5
:102042007548FF754958754A7B124C3B906247E4CC
:1020520093FF3395E0FE90026775F013EF121B4673
:10206200EE75F013A42583F583121B62E92407F9A8
:10207200E43AFA12000EEF2401F546E43EF54590EB
:102082006246E493FF7B737D01126A98125D75903C
:102092000D27E0FEA3E0FF900D24E02FFF900D231B
:1020A200E03EC313FEEF13FF900C4FEEF0A3EFF0F0
:0320B20043B02018
:1020B500900C91121AF1000107ACE4FFFEFDFC90B3
:1020C5000C91121AC9D31219E24017900C91121AE9
:1020D500BD74FFFBFAF9F812188F900C91121AE5EE
:0220E50080D8A1
:1020E700906247E493FF3395E0FE90026775F01323
:1020F700EF121B46EE75F013A42583F583121B62BE
:10210700E92407F9E43AFA7545FF75465875470C0F
:102117007548FF754958754A90124C3B906247E4E1
:1021270093FF3395E0FE90026775F013EF121B469D
:10213700EE75F013A42583F583121B62E92407F9D2
:10214700E43AFA12000EEF2401F546E43EF5459015
:102157006246E493FF7B737D01126A98125D759066
:102167000D27E0FEA3E0FF900D24E02FFF900D2345
:10217700E03EC313FEEF13FF900C51EEF0A3EFF018
:1021870043B010900C4BE0FEA3E0FFC3900C4EE071
:0B2197009F900C4DE09E40030222735D
:1021A200900C95121AF1000107ACE4FFFEFDFC90C1
:1021B2000C95121AC9D31219E24017900C95121AF3
:1021C200BD74FFFBFAF9F812188F900C95121AE5FC
:0221D20080D8B3
:1021D400906247E493FF3395E0FE90026775F01335
:1021E400EF121B46EE75F013A42583F583121B62D0
:1021F400E92407F9E43AFA7545FF75465875470C22
:102204007548FF754958754AA4124C3B906247E4DF
:1022140093FF3395E0FE90026775F013EF121B46AF
:10222400EE75F013A42583F583121B62E92407F9E4
:10223400E43AFA12000EEF2401F546E43EF5459027
:102244006246E493FF7B737D01126A98900C4DE023
:10225400F53DA3E0F53E900C4BE0FFA3E0900C4D60
:10226400CFF0A3EFF0900C4BE53DF0A3E53EF090EA
:102274000C4FE0FEA3E0FFC3900C52E09F900C5182
:07228400E09E400302235C11
:10228B00900C99121AF1000107ACE4FFFEFDFC90D3
:10229B000C99121AC9D31219E24017900C99121A01
:1022AB00BD74FFFBFAF9F812188F900C99121AE50E
:0222BB0080D8C9
:1022BD00906247E493FF3395E0FE90026775F0134B
:1022CD00EF121B46EE75F013A42583F583121B62E6
:1022DD00E92407F9E43AFA7545FF75465875470C38
:1022ED007548FF754958754AB7124C3B906247E4E3
:1022FD0093FF3395E0FE90026775F013EF121B46C6
:10230D00EE75F013A42583F583121B62E92407F9FA
:10231D00E43AFA12000EEF2401F546E43EF545903D
:10232D006246E493FF7B737D01126A98900C51E035
:10233D00F53DA3E0F53E900C4FE0FFA3E0900C516E
:0F234D00CFF0A3EFF0900C4FE53DF0A3E53EF08D
:10235C00900C9D121AF1000107ACE4FFFEFDFC90FD
:10236C000C9D121AC9D31219E24017900C9D121A27
:10237C00BD74FFFBFAF9F812188F900C9D121AE538
:02238C0080D8F7
:10238E00906247E493FF3395E0FE90026775F01379
:10239E00EF121B46EE75F013A42583F583121B6214
:1023AE00E92407F9E43AFA7545FF75465875470C66
:1023BE007548FF754958754ACA124C3B906247E4FE
:1023CE0093FF3395E0FE90026775F013EF121B46F4
:1023DE00EE75F013A42583F583121B62E92407F929
:1023EE00E43AFA12000EEF2401F546E43EF545906C
:0C23FE006246E493FF7B737D01126A9835
:10240A00900CA1121AF1000107ACE4FFFEFDFC904A
:10241A000CA1121AC9D31219E24017900CA1121A70
:10242A00BD74FFFBFAF9F812188F900CA1121AE585
:02243A0080D848
:10243C00906247E493FF3395E0FE90026775F013CA
:10244C00EF121B46EE75F013A42583F583121B6265
:10245C00E92407F9E43AFA7545FF7546587547CCF7
:10246C00900C53E0F548A3E0F549900C55E0F54A83
:10247C00A3E0F54B124C3B906247E493FF3395E09D
:10248C00FE90026775F013EF121B46EE75F013A465
:10249C002583F583121B62E92407F9E43AFA12004A
:1024AC000EEF2401F546E43EF545906246E493FFB9
:0724BC007B737D01126A9899
:1024C300900CA5121AF1000107ACE4FFFEFDFC908D
:1024D3000CA5121AC9D31219E24017900CA5121AAF
:1024E300BD74FFFBFAF9F812188F900CA5121AE5C8
:0224F30080D88F
:1024F500906247E493FF3395E0FE90026775F01311
:10250500EF121B46EE75F013A42583F583121B62AB
:10251500E92407F9E43AFA7545FF7546587547E722
:10252500900C47E0F548A3E0F549900C49E0F54AE1
:10253500A3E0F54B124C3B906247E493FF3395E0E3
:10254500FE90026775F013EF121B46EE75F013A4AB
:102555002583F583121B62E92407F9E43AFA120090
:102565000EEF2401F546E43EF545906246E493FFFF
:072575007B737D01126A98DF
:10257C00900CA9121AF1000107ACE4FFFEFDFC90CF
:10258C000CA9121AC9D31219E24017900CA9121AED
:10259C00BD74FFFBFAF9F812188F900CA9121AE50A
:0225AC0080D8D5
:1025AE00906247E493FF3395E0FE90026775F01357
:1025BE00EF121B46EE75F013A42583F583121B62F2
:1025CE00E92407F9E43AFA7545FF75465975470649
:1025DE00900C4BE0F548A3E0F549900C4DE0F54A20
:1025EE00A3E0F54B124C3B906247E493FF3395E02A
:1025FE00FE90026775F013EF121B46EE75F013A4F2
:10260E002583F583121B62E92407F9E43AFA1200D6
:10261E000EEF2401F546E43EF545906246E493FF45
:07262E007B737D01126A9825
:10263500900CAD121AF1000107ACE4FFFEFDFC9011
:102645000CAD121AC9D31219E24017900CAD121A2B
:10265500BD74FFFBFAF9F812188F900CAD121AE54C
:0226650080D81B
:10266700906247E493FF3395E0FE90026775F0139D
:10267700EF121B46EE75F013A42583F583121B6238
:10268700E92407F9E43AFA7545FF7546597547167F
:10269700900C4FE0F548A3E0F549900C51E0F54A5E
:1026A700A3E0F54B124C3B906247E493FF3395E070
:1026B700FE90026775F013EF121B46EE75F013A438
:1026C7002583F583121B62E92407F9E43AFA12001D
:1026D7000EEF2401F546E43EF545906246E493FF8C
:0726E7007B737D01126A986C
:1026EE00900CB1121AF1000107ACE4FFFEFDFC9054
:1026FE000CB1121AC9D31219E24017900CB1121A6A
:10270E00BD74FFFBFAF9F812188F900CB1121AE58E
:02271E0080D861
:10272000906247E493FF3395E0FE90026775F013E3
:10273000EF121B46EE75F013A42583F583121B627E
:10274000E92407F9E43AFA7545FF75465875470CD0
:102750007548FF754959754A26124C3B906247E40B
:1027600093FF3395E0FE90026775F013EF121B465E
:10277000EE75F013A42583F583121B62E92407F993
:10278000E43AFA12000EEF2401F546E43EF54590D6
:102790006246E493FF7B737D01126A98127DF77B9A
:0C27A000017A0B79EE7D717C0012790B40
:1027AC00900CB5121AF1000107ACE4FFFEFDFC9091
:1027BC000CB5121AC9D31219E24017900CB5121AA3
:1027CC00BD74FFFBFAF9F812188F900CB5121AE5CC
:0227DC0080D8A3
:1027DE00906247E493FF3395E0FE90026775F01325
:1027EE00EF121B46EE75F013A42583F583121B62C0
:1027FE00E92407F9E43AFA7545FF75465875470C12
:10280E007548FF754959754A49124C3B906247E429
:10281E0093FF3395E0FE90026775F013EF121B469F
:10282E00EE75F013A42583F583121B62E92407F9D4
:10283E00E43AFA12000EEF2401F546E43EF5459017
:10284E006246E493FF7B737D01126A9843B008538E
:10285E00B0BF53B0DF53B0EFE4900004F01272B18A
:03286E00853C8422
:012871002244
:1038B80085843C78A57C0C7D017BFF7A5A79B57E9E
:0C38C800007F081216449000047401F008
:1038D400900C85121AF1000107ACE4FFFEFDFC9088
:1038E4000C85121AC9D31219E24017900C85121ACA
:1038F400BD74FFFBFAF9F812188F900C85121AE5C3
:0239040080D869
:10390600906247E493FF3395E0FE90026775F013EB
:10391600EF121B46EE75F013A42583F583121B6286
:10392600E92407F9E43AFA7545FF75465875470CD8
:103936007548FF754959754A5F124C3B906247E4DA
:1039460093FF3395E0FE90026775F013EF121B4666
:10395600EE75F013A42583F583121B62E92407F99B
:10396600E43AFA12000EEF2401F546E43EF54590DE
:103976006246E493FF7B737D01126A98E4900288A5
:03398600F0A3F0BB
:1039890075840FE5E830E019C3900289E094099045
:103999000288E094004003023ECAE4900288F0A342
:0C39A900F0900281E060D9E4F085D83D88
:1039B500900C89121AF10006DDD0E4FFFEFDFC90A3
:1039C5000C89121AC9D31219E24017900C89121AE0
:1039D500BD74FFFBFAF9F812188F900C89121AE5DD
:0239E50080D888
:1039E700906247E493FF3395E0FE90026775F0130A
:1039F700EF121B46EE75F013A42583F583121B62A5
:103A0700E92407F9E43AFA7545FF75465875470CF6
:103A17007548FF754958754ACA124C3B906247E48E
:103A270093FF3395E0FE90026775F013EF121B4684
:103A3700EE75F013A42583F583121B62E92407F9B9
:103A4700E43AFA12000EEF2401F546E43EF54590FC
:0C3A57006246E493FF7B737D01126A98C5
:103A6300900C8D121AF1000107ACE4FFFEFDFC90EF
:103A73000C8D121AC9D31219E24017900C8D121A29
:103A8300BD74FFFBFAF9F812188F900C8D121AE52A
:023A930080D8D9
:103A95007545FF7546597547737B017A0C79AD12EB
:103AA5004C3B753E00753F067B017A0C79AD1200E3
:103AB5000E74AD2FF9740C3EFA7B01C003C002C031
:103AC5000174A5253FF582740C353EF583E0553D1F
:103AD5007BFF60067A59797B80047A59797D8B451D
:103AE5008A468947D001D002D003124C3BE53F15E9
:103AF5003F7002153EC3E53E6480948050AA9062F3
:103B050047E493FF3395E0FE90026775F013EF12DB
:103B15001B46EE75F013A42583F583121B62E92479
:103B250007F9E43AFA7545FF75465875470C754827
:103B35000175490C754AAD124C3B906247E493FF01
:103B45003395E0FE90026775F013EF121B46EE7594
:103B5500F013A42583F583121B62E92407F9E43ADF
:103B6500FA12000EEF2401F546E43EF54590624653
:0A3B7500E493FF7B737D01126A9850
:103B7F00900C91121AF1000107ACE4FFFEFDFC90CE
:103B8F000C91121AC9D31219E24017900C91121A04
:103B9F00BD74FFFBFAF9F812188F900C91121AE509
:023BAF0080D8BC
:103BB1007545FF75465975477F900014E0F548A398
:103BC100E0F549A3E0F54AA3E0F54B7B017A0C79D6
:103BD100AD124C3B906247E493FF3395E0FE9002B7
:103BE1006775F013EF121B46EE75F013A42583F5EC
:103BF10083121B62E92407F9E43AFA7545FF754619
:103C01005875470C75480175490C754AAD124C3B06
:103C1100906247E493FF3395E0FE90026775F013DD
:103C2100EF121B46EE75F013A42583F583121B6278
:103C3100E92407F9E43AFA12000EEF2401F546E40B
:103C41003EF545906246E493FF7B737D01126A98CD
:103C5100900C95121AF1000107ACE4FFFEFDFC90F7
:103C61000C95121AC9D31219E24017900C95121A29
:103C7100BD74FFFBFAF9F812188F900C95121AE532
:023C810080D8E9
:103C83007545FF75465975478C900018E0F548A3B4
:103C9300E0F549A3E0F54AA3E0F54B7B017A0C7903
:103CA300AD124C3B906247E493FF3395E0FE9002E4
:103CB3006775F013EF121B46EE75F013A42583F519
:103CC30083121B62E92407F9E43AFA7545FF754646
:103CD3005875470C75480175490C754AAD124C3B34
:103CE300906247E493FF3395E0FE90026775F0130B
:103CF300EF121B46EE75F013A42583F583121B62A6
:103D0300E92407F9E43AFA12000EEF2401F546E438
:103D13003EF545906246E493FF7B737D01126A98FA
:103D2300900C99121AF1000107ACE4FFFEFDFC9020
:103D33000C99121AC9D31219E24017900C99121A4E
:103D4300BD74FFFBFAF9F812188F900C99121AE55B
:023D530080D816
:103D55007545FF75465975479A90001CE0F548A3CF
:103D6500E0F549A3E0F54AA3E0F54B7B017A0C7930
:103D7500AD124C3B906247E493FF3395E0FE900211
:103D85006775F013EF121B46EE75F013A42583F546
:103D950083121B62E92407F9E43AFA7545FF754673
:103DA5005875470C75480175490C754AAD124C3B61
:103DB500906247E493FF3395E0FE90026775F01338
:103DC500EF121B46EE75F013A42583F583121B62D3
:103DD500E92407F9E43AFA12000EEF2401F546E466
:103DE5003EF545906246E493FF7B737D01126A9828
:103DF500900C9D121AF1000107ACE4FFFEFDFC904A
:103E05000C9D121AC9D31219E24017900C9D121A73
:103E1500BD74FFFBFAF9F812188F900C9D121AE584
:023E250080D843
:103E27007545FF7546597547A9900020E0F548A3E9
:103E3700E0F549A3E0F54AA3E0F54B7B017A0C795D
:103E4700AD124C3B906247E493FF3395E0FE90023E
:103E57006775F013EF121B46EE75F013A42583F573
:103E670083121B62E92407F9E43AFA7545FF7546A0
:103E77005875470C75480175490C754AAD124C3B8E
:103E8700906247E493FF3395E0FE90026775F01365
:103E9700EF121B46EE75F013A42583F583121B6200
:103EA700E92407F9E43AFA12000EEF2401F546E493
:103EB7003EF545906246E493FF7B737D01126A9855
:0A3EC700023989E4900288F0A3F0AC
:103ED100900CA1121AF1000107ACE4FFFEFDFC9069
:103EE1000CA1121AC9D31219E24017900CA1121A8F
:103EF100BD74FFFBFAF9F812188F900CA1121AE5A4
:023F010080D866
:103F0300906247E493FF3395E0FE90026775F013E8
:103F1300EF121B46EE75F013A42583F583121B6283
:103F2300E92407F9E43AFA7545FF75465875470CD5
:103F33007548FF754959754AB8124C3B906247E47E
:103F430093FF3395E0FE90026775F013EF121B4663
:103F5300EE75F013A42583F583121B62E92407F998
:103F6300E43AFA12000EEF2401F546E43EF54590DB
:103F73006246E493FF7B737D01126A9843B0085352
:103F8300B0BF53B0DF53B0EFE4900004F0853C843E
:013F9300220B
:105AC50085843CE4F53FF54078917C0C7D017BFFB6
:0A5AD5007A5A79BDFE7F08121644CC
:105ADF00900C85121AF1000107ACE4FFFEFDFC905B
:105AEF000C85121AC9D31219E24017900C85121A9D
:105AFF00BD74FFFBFAF9F812188F900C85121AE596
:025B0F0080D83C
:105B1100906247E493FF3395E0FE90026775F013BE
:105B2100EF121B46EE75F013A42583F583121B6259
:105B3100E92407F9E43AFA7545FF75465875470CAB
:105B41007548FF754959754ACC124C3B906247E440
:105B510093FF3395E0FE90026775F013EF121B4639
:105B6100EE75F013A42583F583121B62E92407F96E
:105B7100E43AFA12000EEF2401F546E43EF54590B1
:0C5B81006246E493FF7B737D01126A987A
:105B8D00900C89121AF1000107ACE4FFFEFDFC90A8
:105B9D000C89121AC9D31219E24017900C89121AE6
:105BAD00BD74FFFBFAF9F812188F900C89121AE5E3
:025BBD0080D88E
:105BBF00E4900288F0A3F0900255E024A0F53E9007
:105BCF000254E03400F53D75840FE5E830E019C369
:105BDF00900289E09409900288E094004003025CEF
:105BEF00B0E4900288F0A3F0900254E0FEA3E0FF2F
:105BFF00B53ED4EEB53DD0EF24A0F53EE43EF53DE5
:105C0F00906247E493FF3395E0FE90026775F013BF
:105C1F00EF121B46EE75F013A42583F583121B625A
:105C2F00E92407F9E43AFA7545FF7546597547E1D6
:105C3F00853F48854049124C3B906247E493FF33C0
:105C4F0095E0FE90026775F013EF121B46EE75F0AC
:105C5F0013A42583F583121B62E92407F9E43AFAAA
:105C6F0012000EEF2401F546E43EF545906246E43E
:105C7F0093FF7B737D01126A9874912540F58274AE
:105C8F000C353FF583E0F5C80540E5407002053F50
:105C9F00FFAE3F7C007D0712177E8C3F8D40025B6D
:085CAF00D6E4900288F0A3F096
:105CB700900C8D121AF1000107ACE4FFFEFDFC9079
:105CC7000C8D121AC9D31219E24017900C8D121AB3
:105CD700BD74FFFBFAF9F812188F900C8D121AE5B4
:025CE70080D863
:105CE900906247E493FF3395E0FE90026775F013E5
:105CF900EF121B46EE75F013A42583F583121B6280
:105D0900E92407F9E43AFA7545FF75465875470CD1
:105D19007548FF754959754AE8124C3B906247E44A
:105D290093FF3395E0FE90026775F013EF121B465F
:105D3900EE75F013A42583F583121B62E92407F994
:105D4900E43AFA12000EEF2401F546E43EF54590D7
:105D59006246E493FF7B737D01126A9843B008534E
:0B5D6900B0BF53B0DF53B0EF853C84A7
:015D7400220C
:105D7500E4F53FF540E4F53FF540900281E060FA37
:105D8500900014E0FEA3E0FF900D25EEF0A3EFF0E8
:105D9500900D21EEF0A3EFF0900016E0FEA3E0FFDA
:105DA500900D27EEF0A3EFF0900D23EEF0A3EFF0AA
:105DB500E4900281F0C3E5409428E53F6480948037
:105DC5004003025F54900281E060EAAE3FAF407C41
:0D5DD500007D0A12177EED4C6003025EB4E3
:105DE200900CB9121AF1000107ACE4FFFEFDFC9021
:105DF2000CB9121AC9D31219E24017900CB9121A2F
:105E0200BD74FFFBFAF9F812188F900CB9121AE55B
:025E120080D836
:105E14007545FF7546597547FD900014E0F548A394
:105E2400E0F549A3E0F54AA3E0F54B7B017A0C7950
:105E3400BD124C3B906247E493FF3395E0FE900221
:105E44006775F013EF121B46EE75F013A42583F566
:105E540083121B62E92407F9E43AFA7545FF754693
:105E64005875470C75480175490C754ABD124C3B71
:105E7400906247E493FF3395E0FE90026775F01358
:105E8400EF121B46EE75F013A42583F583121B62F3
:105E9400E92407F9E43AFA12000EEF2401F546E486
:105EA4003EF545906246E493FF7B737D01126A9848
:105EB400900014E0FEA3E0FF900D21E0FCA3E0FDC0
:105EC400C39FEC9E5006AE04AF058000900D21EEFA
:105ED400F0A3EFF0900016E0FEA3E0FF900D23E0A6
:105EE400FCA3E0FDC39FEC9E5006AE04AF0580000A
:105EF400900D23EEF0A3EFF0900014E0FEA3E0FF7A
:105F0400900D25E0FCA3E0FDD39FEC9E4006AE047B
:105F1400AF058000900D25EEF0A3EFF0900016E0A1
:105F2400FEA3E0FF900D27E0FCA3E0FDD39FEC9ED1
:105F34004006AE04AF058000900D27EEF0A3EFF00D
:105F4400E4900281F00540E5407002053F025DBA2D
:105F5400900D23E0FEA3E0FF900D27E0FCA3E0FDFD
:105F6400C39FFFEC9EFEC3940040028016900D2355
:105F7400E0FEA3E0FFC3ED9FFFEC9EFEC3E49FFFA2
:105F8400E49EFED3EF9404EE94004003025D7A9005
:105F94000D21E0FEA3E0FF900D25E0FCA3E0FDC38E
:105FA4009FFFEC9EFEC3940040028016900D21E0FA
:105FB400FEA3E0FFC3ED9FFFEC9EFEC3E49FFFE45E
:0E5FC4009EFED3EF9404EE94004003025D7A3B
:015FD20022AC
:10465200E4F53FF540F584900C55E0A3E0F5FD90BC
:104662000C55E0A3E0F5FE900C53E0A3E0F5FB90BF
:104672000C53E0A3E0F5FC900281E0700302496D67
:10468200E4F0E53F700F900014E0FFA3E0900C47C8
:10469200CFF0A3EFF0E540700F900016E0FFA3E02B
:0846A200900C49CFF0A3EFF0EA
:1046AA00900CB9121AF1000107ACE4FFFEFDFC9070
:1046BA000CB9121AC9D31219E24017900CB9121A7E
:1046CA00BD74FFFBFAF9F812188F900CB9121AE5AB
:0246DA0080D886
:1046DC00906247E493FF3395E0FE90026775F01308
:1046EC00EF121B46EE75F013A42583F583121B62A3
:1046FC00E92407F9E43AFA7545FF75465A754703FC
:10470C00900C53E0F548A3E0F549900C55E0F54AC0
:10471C00A3E0F54B124C3B906247E493FF3395E0DA
:10472C00FE90026775F013EF121B46EE75F013A4A2
:10473C002583F583121B62E92407F9E43AFA120087
:10474C000EEF2401F546E43EF545906246E493FFF6
:10475C007B737D01126A987545FF75465A75470E35
:10476C00900C47E0F548A3E0F549900C49E0F54A78
:0D477C00A3E0F54B7B017A0C79CD124C3B8C
:10478900900CBD121AF1000107ACE4FFFEFDFC908C
:104799000CBD121AC9D31219E24017900CBD121A96
:1047A900BD74FFFBFAF9F812188F900CBD121AE5C7
:0247B90080D8A6
:1047BB00906247E493FF3395E0FE90026775F01328
:1047CB00EF121B46EE75F013A42583F583121B62C3
:1047DB00E92407F9E43AFA7545FF75465875470C15
:1047EB0075480175490C754ACD124C3B906247E4F4
:1047FB0093FF3395E0FE90026775F013EF121B46A3
:10480B00EE75F013A42583F583121B62E92407F9D7
:10481B00E43AFA12000EEF2401F546E43EF545901A
:10482B006246E493FF7B737D01126A98E53F704B00
:10483B00900C47E0FEA3E02400EE34F8C3648094B0
:10484B00804010900C47E0FEA3E02400FFEE34F80C
:10485B00FE8015900C47E0FEA3E02400FFEE34F839
:10486B00FEC3E49FFFE49EFED3EF9414EE648094AA
:10487B008050047F0180027F008F3FE53F7048C36B
:10488B00900C47E094085015900C53E07002A3E095
:10489B0070028014900C5374FFF5F08017900C533A
:1048AB00E07003A3E0F47005753F01800A900C5390
:1048BB00E475F0011217B4900C53E0A3E0F5FB90F4
:1048CB000C53E0A3E0F5FCE540704B900C49E0FE87
:1048DB00A3E02400EE34F8C3648094804010900C65
:1048EB0049E0FEA3E02400FFEE34F8FE8015900CA7
:1048FB0049E0FEA3E02400FFEE34F8FEC3E49FFF83
:10490B00E49EFED3EF9414EE6480948050047F01F8
:10491B0080027F008F40E5407048C3900C49E094C3
:10492B00085015900C55E07002A3E07002801490B3
:10493B000C5574FFF5F08017900C55E07003A3E055
:10494B00F47005754001800A900C55E475F0011266
:10495B0017B4900C55E0A3E0F5FD900C55E0A3E0E7
:10496B00F5FEE53F7003024679E540700302467998
:10497B00900CC1121AF1000107ACE4FFFEFDFC9094
:10498B000CC1121AC9D31219E24017900CC1121A9A
:10499B00BD74FFFBFAF9F812188F900CC1121AE5CF
:0249AB0080D8B2
:1049AD00906247E493FF3395E0FE90026775F01334
:1049BD00EF121B46EE75F013A42583F583121B62CF
:1049CD00E92407F9E43AFA7545FF75465875470C21
:1049DD007548FF75495A754A19124C3B906247E468
:1049ED0093FF3395E0FE90026775F013EF121B46AF
:1049FD00EE75F013A42583F583121B62E92407F9E4
:104A0D00E43AFA12000EEF2401F546E43EF5459026
:104A1D006246E493FF7B737D01126A98900281E0F8
:104A2D0060FAE4900281F0900014E0FFA3E0900C96
:104A3D0047CFF0A3EFF0900016E0FFA3E0900C49F4
:054A4D00CFF0A3EFF023
:104A5200900CC5121AF1000107ACE4FFFEFDFC90B8
:104A62000CC5121AC9D31219E24017900CC5121ABA
:104A7200BD74FFFBFAF9F812188F900CC5121AE5F3
:024A820080D8DA
:104A8400906247E493FF3395E0FE90026775F0135C
:104A9400EF121B46EE75F013A42583F583121B62F7
:104AA400E92407F9E43AFA7545FF75465A7547292A
:104AB400900C53E0F548A3E0F549900C55E0F54A15
:104AC400A3E0F54B124C3B906247E493FF3395E02F
:104AD400FE90026775F013EF121B46EE75F013A4F7
:104AE4002583F583121B62E92407F9E43AFA1200DC
:104AF4000EEF2401F546E43EF545906246E493FF4B
:104B04007B737D01126A987545FF75465A75473A5D
:104B1400900C47E0F548A3E0F549900C49E0F54ACC
:0D4B2400A3E0F54B7B017A0C79CD124C3BE0
:104B3100900CC9121AF1000107ACE4FFFEFDFC90D4
:104B41000CC9121AC9D31219E24017900CC9121AD2
:104B5100BD74FFFBFAF9F812188F900CC9121AE50F
:024B610080D8FA
:104B6300906247E493FF3395E0FE90026775F0137C
:104B7300EF121B46EE75F013A42583F583121B6217
:104B8300E92407F9E43AFA7545FF75465875470C69
:104B930075480175490C754ACD124C3B906247E448
:104BA30093FF3395E0FE90026775F013EF121B46F7
:104BB300EE75F013A42583F583121B62E92407F92C
:104BC300E43AFA12000EEF2401F546E43EF545906F
:0C4BD3006246E493FF7B737D01026A9848
:1054A10085843CE4F53DF53EF54190624793FF3339
:1054B10095E0FE90026775F013EF121B46EE75F052
:1054C10013A42583F583121B62E92407F9E43AFA50
:1054D1007545FF75465875470C7548FF75495A75EE
:1054E1004A4B124C3B906247E493FF3395E0FE90A8
:1054F100026775F013EF121B46EE75F013A42583B6
:10550100F583121B62E92407F9E43AFA12000EEF5F
:105511002401F546E43EF545906246E493FF7B7332
:105521007D01126A98E4900288F0A3F0F53FF540FE
:10553100D390090FE0954090090EE0953F4023AECE
:105541003FAF407C017D0012177E743C2540F582FF
:105551007400353FF583EDF00540E5407002053FED
:1055610080CE75840FE5E830E019C3900289E0949C
:1055710009900288E094004003025753E4900288A6
:10558100F0A3F090090EE0FCA3E0FD7B017A007925
:105591003C853D4D853E4EE4FFFE12760490090E9A
:1055A100E0FEA3E0FF7B017A00793C853D47853E23
:1055B10048127569E4F53FF540D390090FE0954035
:1055C10090090EE0953F402DAE3FAF407C017D003C
:1055D10012177E743C2540F5827400353FF583E057
:1055E1006D7001EC6005754101800A0540E5407070
:1055F10002053F80C4E541700302567F906247E493
:1056010093FF3395E0FE90026775F013EF121B468E
:10561100EE75F013A42583F583121B62E92407F9C3
:10562100E43AFA7545FF75465A75475A853D4885EE
:105631003E49853F4A85404B124C3B906247E4937B
:10564100FF3395E0FE90026775F013EF121B46EEF3
:1056510075F013A42583F583121B62E92407F9E48D
:105661003AFA12000EEF2401F546E43EF545906248
:0E56710046E493FF7B737D01126A9802575343
:10567F00900C85121AF1000107ACE4FFFEFDFC90BF
:10568F000C85121AC9D31219E24017900C85121A01
:10569F00BD74FFFBFAF9F812188F900C85121AE5FA
:0256AF0080D8A1
:1056B100906247E493FF3395E0FE90026775F01323
:1056C100EF121B46EE75F013A42583F583121B62BE
:1056D100E92407F9E43AFA7545FF75465A75478C8E
:1056E100853D48853E49124C3B906247E493FF3328
:1056F10095E0FE90026775F013EF121B46EE75F010
:1057010013A42583F583121B62E92407F9E43AFA0D
:1057110012000EEF2401F546E43EF545906246E4A1
:1057210093FF7B737D01126A98AF3EAE3D127C29D7
:10573100D3900BE9E0953E900BE8E0953D5008E4ED
:10574100F53DF53E025563053EE53E7002053D021D
:095751005563E4900288F0A3F016
:10575A00900C89121AF1000107ACE4FFFEFDFC90DF
:10576A000C89121AC9D31219E24017900C89121A1D
:10577A00BD74FFFBFAF9F812188F900C89121AE51A
:02578A0080D8C5
:10578C00906247E493FF3395E0FE90026775F01347
:10579C00EF121B46EE75F013A42583F583121B62E2
:1057AC00E92407F9E43AFA7545FF75465875470C34
:1057BC007548FF75495A754A9D124C3B906247E4F7
:1057CC0093FF3395E0FE90026775F013EF121B46C2
:1057DC00EE75F013A42583F583121B62E92407F9F7
:1057EC00E43AFA12000EEF2401F546E43EF545903A
:0F57FC006246E493FF7B737D01126A98853C84BB
:01580B00227A
:10FE00008E3E8F3F8E3E8F3FE4F540F541A2AF33EB
:10FE1000F542C2AFE4F58443B701758F03C3E540F3
:10FE200094FC50168541828540837488F0E4254116
:10FE3000F54174043540F54080E3E4F58FF540F575
:10FE400041F545F54675840FE5465403700363B0EC
:10FE50004012FFBB8F47E54730E7F653F8FDE4F566
:10FE600048F5490549E54970020548644045487030
:10FE7000F27FD212FFAAE546AE457806CEC313CE76
:10FE800013D8F9FF12FFAA12FFA2E4FF12FFAAE49F
:10FE9000FF12FFAAE4FF12FFAAE4FF12FFAAE4FF89
:10FEA00012FFAAE4F543F544E4FF12FFAA743C25CF
:10FEB00044F58274003543F583EFF00544E5447062
:10FEC000020543C3E543940240DE43F802E4F584AF
:10FED000758F01F543F544743C2544F58274003573
:10FEE00043F583E0FF0541E541AC40700205401455
:10FEF000F5828C83EFF00544E54470020543B400BD
:10FF0000D6E543B402D1E4F58F0546E54670020517
:0AFF100045C3947FE54594005003BB
:10FF1A0002FE45E4F58F53B7FEE54224FF92AFE4B3
:10FF2A00F5D075840FF545F546C3E545942050573D
:10FF3A00E546543F700363B02012FFBB8F47E54785
:10FF4A0030E7F653F8FDE4F548F5490549E5497007
:10FF5A000205486440454870F27F5012FFAAE54600
:10FF6A00AE457806CEC313CE13D8F9FF12FFAA12F4
:10FF7A00FFA2E4FF12FFAA43F80274082546F546D9
:10FF8A00E43545F54580A212FFBB8F47E54730E7C8
:08FF9A00F6E4F58443EF0122B7
:10FFA200AF46EF25E025E0FFAE84E4F5848F9B3079
:09FFB200FFFDC2FFAF9B8E84220B
:10FFBB0053F8FDE4F54AF54B054BE54B7002054A4A
:10FFCB006440454A70F27FD712FFAAE4FF12FFAAE2
:04FFDB0043F80222C3
:106A7E00906246E493FFAB2EAA2FA930900001122C
:0A6A8E001683FDE4F545F5467B068E
:046A98008F428B445A
:106A9C007547FFE4F548F549ED90624693F54A7465
:106AAC00EA2DF582E4340BF5837464F0906246E4CD
:106ABC0093B54219E54464066013E5446415600D12
:106ACC0074E42DF582E4340BF583E544F0E54A7566
:106ADC00F013A42467F582E43402F583121B62746C
:106AEC00161216E3E54A75F013A42467F582E43414
:106AFC0002F583121B62900001E5421216F5E54A7D
:106B0C0075F013A42467F582E43402F583121B623A
:106B1C00900002ED1216F574022546F546E4354553
:106B2C00F545FFE54A75F013A42467F582E43402B9
:106B3C00F583121B62900003EF1216F5E54A75F00F
:106B4C0013A42467F582E43402F583121B629000CF
:106B5C0004E5461216F5E54A75F013A42467F58290
:106B6C00E43402F583121B62900005E5441216F51D
:106B7C00E4FEFFE54A75F013A42467F582E43402C1
:106B8C00F583121B628F828E8312168362470FBFAE
:106B9C0000010EEF64064E70DAE54A75F013A4247A
:106BAC0067F582E43402F583121B62900006E54718
:106BBC001216F574FE2546F54674FF3545F545E588
:106BCC004A75F013A42467F582E43402F583121B92
:106BDC0062E92407F9E43AFAAD46AC451279DE8E47
:106BEC00488F49EEFFE54A75F013A42467F582E45B
:106BFC003402F583121B620546E5467002054524F6
:106C0C0006F582E43545F583EF1216F5E54A75F085
:106C1C0013A42467F582E43402F583121B62054643
:106C2C00E546700205452406F582E43545F583E515
:106C3C00491216F5E54A75F013A4245AF974023575
:106C4C00F0FA7B01E5462407FDE43545FC127A3960
:096C5C00E5462407FFE43545FE7E
:016C6500220C
:083F94008F2D8B2E8A2F89303E
:103F9C00E4900C81F0A3F0900003121683FE9000C5
:103FAC00041216837C002400FFEC3ECF24FECF3499
:103FBC00FFFE900C83F0FCA3EFF0FDE92407F9E47D
:103FCC003AFA127C74900C81EEF0A3EFF04E603A4A
:103FDC00AB2EAA2FA930900005121683FF64157022
:103FEC0003024649EF640670030246499000011231
:103FFC00168324EAF582E4340BF5837464F09000A4
:0A400C0001121683FF7D04024393A6
:10401600AB2EAA2FA930900002121683FF9062469B
:10402600E4936F70030240D0EFF470030240D0EFC8
:1040360093FF3395E0FE90026775F013EF121B466F
:10404600EE75F013A42583F583121B62E92407F9A4
:10405600E43A8B36F5378938E5302407F9E4352F0D
:10406600852E33F5348935E4F531F532D3900C8459
:10407600E09532900C83E0953140247833E475F076
:1040860001121B5212166AFF7836E475F001121BF4
:1040960052EF1216E30532E53270D1053180CDAB11
:1040A6002EAA2FA930900001121683FF900002124B
:1040B6001683FD900005121683FB900C83E0F545F0
:1040C600A3E0F546126A98024649AB2EAA2FA930FC
:1040D600900005121683121BFD411906415410412A
:1040E6003D1543D830440231440832440E3344145B
:1040F60034433B41433B42442B50447D514276700E
:1041060042DA71418190456891441A9342109800B1
:1041160000461590000112168324E4F582E4340B60
:10412600F583AB2EAA2FA93090000112168324E442
:10413600F582E4340B8010AB2EAA2FA93012166A32
:1041460024E5F582E4340BF583E4F0024602900B95
:10415600EAE0FFC394044006EFD3941D4004EFB495
:10416600E305127B8F8003126A7E900C81EEF0A32A
:0B417600EFF0AB2EAA2FA9300246028A
:10418100900BEAE0FFC394044006EFD3941D400472
:10419100EFB4E305127B8F8065AB2EAA2FA9309077
:1041A1000007121683FE9000081216837C0024007B
:1041B100F53AEC3EF539E52D75F013A42467F58247
:1041C100E43402F583121B62E92407F9E43AFA9018
:1041D100090EE0FEA3E0FF853947853A481275696B
:1041E100906246E493FFAB2EAA2FA93090000112F2
:1041F1001683FD90090EE0F545A3E0126A94900C38
:0F42010081EEF0A3EFF0AB2EAA2FA930024602F8
:10421000900BEAE0FFC394044006EFD3941D4004E2
:10422000EFB4E305127B8F803CAB2EAA2FA9309010
:104230000007121683FE9000081216837C002400EB
:10424000F53AEC3EF53990090EE0FCA3E0FDE924D7
:1042500009F9E43AFA85394D853A4E7F027E00121B
:104260007604126A7E900C81EEF0A3EFF0AB2EAADA
:064270002FA930024602F6
:10427600900BEAE0FFC394044006EFD3941D40047C
:10428600EFB4E305127B8F803AE52D75F013A42475
:1042960067F582E43402F583121B62E92407F9E428
:1042A6003AFA127AEA906246E493FFAB2EAA2FA955
:1042B60030900001121683FD7545007546807B0619
:1042C600126A98900C81EEF0A3EFF0AB2EAA2FA9FC
:1042D60030024602900BEAE0FFC394044006EFD397
:1042E600941D4004EFB4E305127B8F8037127DF7EF
:1042F600AB2EE5302407F9E4352FFA900C83E0FE67
:10430600A3E0FFC39480EE94005006AC06AD078090
:10431600047C007D8012790B7B017A0B79EE127A90
:10432600EA126A7E900C81EEF0A3EFF0AB2EAA2F74
:05433600A9300246025F
:10433B00900BEAE0FFF539AB2EAA2FA930900005C0
:10434B001216837C00B441047D0080027D058C3AFB
:10435B008D3B90000112168324EAF582E4340BF5B1
:10436B0083E4F0EFC394044009900BEAE0D3941D6F
:10437B004007900BEAE0B4E31DAB2EAA2FA93090B7
:10438B000001121683FF7D20127B9E900C81EEF0B4
:10439B00A3EFF0024649900BEA74E3F0126A7E90A9
:1043AB000C81EEF0A3EFF0E4FFFE127C29900BE9F9
:1043BB00E024FFFD900BE8E034FFFC7B01AF3BAE4C
:0D43CB003A12789B900BEAE539F002464962
:1043D800AB2EAA2FA93090000112168324EAF58289
:1043E800E4340BF583E4F012007E8F39E53930E7C9
:0A43F800F6E4F58443EF01024649A4
:10440200121CF80246491238B8024649125AC5022D
:1044120046491254A102464953B0F753B0BF53B0B4
:10442200DF53B0EF53F87F80FE900BEAE064F07048
:1044320027753F01754000754105AB2EAA2FA930A3
:1044420012741D126A7E900C81EEF0A3EFF0056FDC
:10445200E56F701E056E801AAB2EAA2FA930900050
:1044620001121683FF7D08127B9E900C81EEF0A351
:10447200EFF0AB2EAA2FA930024602900BEAE0B46D
:10448200F114AB2EAA2FA930900007121683FF90C9
:104492000005E06F6072AB2EAA2FA93090000112C6
:1044A2001683FF7D08127B9E900C81EEF0A3EFF045
:1044B200AB2EAA2FA93090000112168324EAF582AE
:0744C200E4340BF583E4F084
:1044C900900C79121AF10000AFC8E4FFFEFDFC90D0
:1044D9000C79121AC9D31219E24017900C79121AE1
:1044E900BD74FFFBFAF9F812188F900C79121AE5CE
:0244F90080D869
:1044FB009002B474F2F0900C707401F00246491201
:10450B006A7E900C81EEF0A3EFF0AB2EAA2FA930B0
:10451B0090000112168324EAF582E4340BF583E450
:01452B00F09F
:10452C00900C7D121AF10000AFC8E4FFFEFDFC9068
:10453C000C7D121AC9D31219E24017900C7D121A75
:10454C00BD74FFFBFAF9F812188F900C7D121AE566
:02455C0080D805
:10455E00AF6FAE6E127D91024649900C707401F0F1
:10456E00AB2EAA2FA9309000071216839002B4F03A
:10457E00900008121683540F900BA4F090000912AD
:10458E001683900C6FF0E4F531F532AB2EAA2FA9FD
:10459E0030E532240AFFE435318F82F5831216831B
:1045AE00FF74562532F58274023531F583EFF0052E
:1045BE0032E532700205316404453170CEAB2EAA5D
:1045CE002FA93090000E121683900287F090000FE4
:1045DE0012180BFF900282E5F0F0A3EFF090624606
:1045EE00E493FF126A8A900C81EEF0A3EFF0AB2EEB
:1045FE00AA2FA93090000112168324EAF582E43422
:10460E000BF583E4F08034AB2EAA2FA93090000175
:10461E0012168324EAF582E4340BF5837464F09069
:10462E000001121683FF7D02127B9E900C81EEF02C
:0B463E00A3EFF074FF900C81F0A3F0DC
:08464900900C81E0FEA3E0FFEC
:014651002246
:0A7C74008B3C8A3D893E8C3F8D4019
:107C7E001279DE8E418F42AB3CAA3DA93E854082F1
:107C8E00853F831216837F00FEE5402401FDE43517
:107C9E003F8D82F5831216832FFFE43EFEE542B53B
:0F7CAE000709E541B50604E4FEFF227EFF7FFFD4
:017CBD0022A4
:0F7B8F00AB2EAA2FA930900001121683FF7D2084
:107B9E00AE07EE90624693FB3395E0FA900267755E
:107BAE00F013EB121B46EA75F013A42583F583122E
:107BBE001B62900007ED1216F5906246E493FFAD3E
:107BCE00067545007546017B15126A98E4FEFF2284
:06741D008B3C8A3D893E14
:10742300E4F542F543900003121683FE9000041224
:107433001683FDEEF544EDF545E4F542F543E545E8
:1074430024FEFFE54434FFFEC3648094825002802F
:10745300047E027F00C3E5439FEE6480F8E5426447
:1074630080985048AB3FAA40A941C003C002C00165
:1074730012166AFFAB3CAA3DA93EE5432407FDE48F
:1074830035428D82F583121683FE743C2543F582C3
:1074930074003542F583EEF06FD001D002D00312B1
:1074A30016E30543E5437096054280927E00E56F3F
:1074B3005401FF90090EE0FCA3E0FD7B017A007903
:0A74C3003C856E4D856F4E02760485
:047D91008E3C8F3D58
:107D950090FE00E493FE740193FF900C88EEF0A32F
:107DA500EFF0BE8012BFFE0F7B007AFE7902900CC9
:0E7DB50085121B6B021C50AF6FAE6E12FE00EB
:017DC300229D
:10797A0085842D7B017A0B79EE127AEAE4F5847517
:10798A00D98075D84075DA4275DB42900C53E0A372
:10799A00E0F5FB900C53E0A3E0F5FC900C55E0A356
:1079AA00E0F5FD900C55E0A3E0F5FE900C6EE0FDCD
:1079BA007C007E057F001217298E6B8F6CE4F5849C
:1079CA0075E8C075D107F5BAF5BB75BC7043E70217
:0379DA00852D8474
:0179DD002287
:03007B00026C66AE
:106C6600C0E0C0F0C083C082C0D075D000C000C0F4
:0B6C760002C003C004C005C006C00738
:106C8100758400C2EDE56D25E02424F582E434002D
:106C9100F583E5BF85BEF01217B4E56D121BFD6CDF
:106CA100BC006CC4016CCC026CD4036CDC046CE4DD
:106CB100056CEC066CF40700006CFA75BB01756D90
:106CC10001803675BB02756D02802E75BB08756D2E
:106CD10003802675BB03756D04801E75BB04756D3D
:106CE10005801675BB05756D06800E75BB06756D45
:106CF10007800675BB00756D00E56C156C7002159B
:096D01006B14456B6003026DE4A4
:106D0A00900C6EE0FF74A08FF0841313543F752526
:106D1A0000F526E4FBFAEB64034A7020900C6EE05F
:106D2A0075F00A84FF7E0090002AE0FCA3E0FD12C1
:106D3A00171790001AEEF0A3EFF08037EB25E0FF6B
:106D4A00EA33FE74242FF58274003EF583E0FEA335
:106D5A00E0FFAC25AD26121729AC06AD07EB25E0FE
:106D6A00FFEA33FE74142FF58274003EF583ECF0CB
:106D7A00A3EDF0EB25E0FFEA33FE74242FF58274CD
:106D8A00003EF583E4F0A3F00BBB00010AEB6408B4
:106D9A004A7083900004E07029900C4DE0FEA3E055
:106DAA00FF900C4CE02FFF900C4BE03EFE9000143D
:106DBA00E0FCA3E0FDC3EF9DFFEE9C900014F0A35E
:106DCA00EFF0900C6EE0FD7C007E057F0012172923
:0A6DDA008E6B8F6C9002817401F043
:0C6DE400E56D7003D38001C34002D2ECC7
:106DF000D007D006D005D004D003D002D000D0D028
:096E0000D082D083D0F0D0E03242
:037415000119FF5B
:107B3E00AF8475840F75E1EF75E20775E3C475A424
:107B4E00157580EA75ADFF75A53D759001E4F5A636
:107B5E0075A0FF75A7F875B07F759CFFF5C8F59DEC
:107B6E0075D8FFF59E75E8FF759FFF75F8FFFDFC54
:107B7E000DBD00010CBC0BF8BDB8F575F8F78F8480
:017B8E0022D4
:107CBE00AF84E4F584F5D875D980F5F9F5FAF5E9D0
:107CCE0075EA0C75DC4675D840900C72F0A3F090F6
:107CDE00024CF0A3F0F584C28C758905438E08F52D
:107CEE008AF58CC28DD28C75840175888075893029
:077CFE00D2A943E6308F8498
:017D0500225B
:0D7E9400AF84E4F584C289D288D2A88F841F
:017EA10022BE
:03005B00026F8AA7
:106F8A00C0E0C0F0C083C082C0D075D000C000C0CD
:0D6F9A0001C002C003C004C005C006C0074E
:106FA70053E6CF758400AF8CEFFEAD8A7C00E42DED
:106FB700F528EC3EF527900C72E0FEA3E0FFC3E551
:106FC700289FFFE5279EFED3EF9464EE94005003BD
:106FD7000270E3C28C758A00758C00C28DD28CE575
:046FE70019F47041E8
:106FEB00F519F529AE27AF28E52925E02434F582DC
:106FFB00E43400F583EEF0A3EFF0E4FCFDE51D2F88
:10700B00FFE51C3EFEED351BFDEC351A8F1D8E1C6E
:0E701B008D1BF51A0529E529B404C990024C15
:107029000270D50519E519C394044003751900E5E3
:107039001925E02434F582E43400F583E0FEA3E069
:10704900FBC3E51D9BFFE51C9EFEE51B9400FDE5CA
:107059001A94008F1D8E1C8D1BF51AAE27AF28E5DB
:107069001925E02434F582E43400F583EEF0A3EF2A
:10707900F0E4FCFDE51D2FFFE51C3EFEED351BFD93
:10708900EC351A8F1D8E1C8D1BF51AE47B04FAF959
:10709900F8AC1A1219358E278F28C390024DE09546
:1070A90028FF90024CE09527FEC394004006AC06E9
:1070B900AD078009C3E49FFFE49EFCAD0790024C35
:1070C900E0C313FFC3ED9FEC94004007E527F0A34D
:1070D900E528F0900C72E4F0A3F07584015388CF91
:0370E90043E6304B
:1070EC00D007D006D005D004D003D002D001D000F8
:0B70FC00D0D0D082D083D0F0D0E032A2
:03005300027D0625
:107D0600C0E0C083C082C0D075D000C004C005C02A
:107D160006C00753E6CF758400AF8CEFFEAD8A7CB4
:107D260000E42DFFEC3E900C72F0A3EFF075840199
:107D36005388CF43E630D007D006D005D004D0D044
:077D4600D082D083D0E032AF
:03000B00027DC4AF
:107DC400C0E0C083C08253E6CF758400C28C758A3C
:107DD40000758C00D28C900C72E4F0A3F090024CED
:107DE400F0A3F07584015388CF43E630D082D0836A
:037DF400D0E032AA
:030003000277A0E1
:1077A000C0E0C0F0C083C082C0D075D000C000C0AF
:0977B00003C004C005C006C007B7
:1077B900A2AFE433FB900C757401F0900C6EE0FD00
:1077C9007C007E057F001217298E6B8F6C756D000A
:1077D9007F10900024E4F0A3DFFCC2AF53E7FE75ED
:1077E9008400C2ECC2ED75BB0075840175C80074D4
:0E77F900FFF5CDF5CC43E70143C8042B92AF5A
:10780700D007D006D005D004D003D000D0D0D08286
:07781700D083D0F0D0E03275
:107E2500000000010000000C00000077000004A91C
:107E350000002E9A0001D2090012345600B60B61DB
:087E4500071C71C7471C71C73F
:04741800410D2C00F6
:1000A60090027A121B628B448A458946E4F542F532
:1000B60043AB44AA45A9460543E543AE4270020553
:1000C60042142406F582E43EF58374011216F50502
:1000D60043E543AE4270020542142406F582E43E2F
:1000E600F58374021216F50543E543AE4270020528
:1000F60042142406F582E43EF583E41216F5054320
:10010600E543AE4270020542142406F582E43EF54C
:100116008374011216F50543E543AE4270020542AB
:10012600142406F582E43EF583E41216F50543E54C
:1001360043AE4270020542142406F582E43EF5837E
:10014600E41216F50543E543AE4270020542142457
:1001560006F582E43EF58374011216F50543E54380
:10016600AE4270020542142406F582E43EF583741D
:10017600011216F50543E543AE427002054214240A
:1001860006F582E43EF583E41216F50543E543AE33
:100196004270020542142406F582E43EF583E41219
:1001A60016F50543E543AE4270020542142406F5F2
:1001B60082E43EF583E41216F50543E543AE42704C
:1001C600020542142406F582E43EF583E41216F590
:1001D6000543E543AE4270020542142406F582E467
:1001E6003EF58374011216F50543E543AE427002EF
:1001F6000542142406F582E43EF58374061216F5CC
:100206000543E543AE4270020542142406F582E436
:100216003EF583E41216F50543E543AE427002054A
:1002260042142406F582E43EF58374011216F505A0
:1002360043E543AE4270020542142406F582E43ECD
:10024600F583E41216F50543E543AE427002054216
:10025600142406F582E43EF583E41216F50543E51B
:1002660043AE4270020542142406F582E43EF5834D
:1002760074011216F50543E543AE427002054214B9
:100286002406F582E43EF58374121216F50543E55D
:1002960043AE4270020542142406F582E43EF5831D
:1002A600E41216F50543E543AE42700205421424F6
:1002B60006F582E43EF58374011216F50543E5431F
:1002C600AE4270020542142406F582E43EF583E44C
:1002D6001216F50543E543AE4270020542142406A4
:1002E600F582E43EF583E41216F50543E543AE4296
:1002F60070020542142406F582E43EF58374011269
:1003060016F50543E543AE4270020542142406F590
:1003160082E43EF58374031216F50543E543AE42C7
:1003260070020542142406F582E43EF583E41216B3
:10033600F50543E543AE4270020542142406F582F4
:10034600E43EF583E41216F50543E543AE4270023A
