:1000A60053656C65637420447269766572005365A6
:1000B6006C65637420547261636B0053656C656391
:1000C600742056656869636C650053657373696F60
:1000D6006E730056696577204C61707300457261D6
:1000E600736520446174610053657373696F6E2094
:1000F60044657461696C00313020487A00323020E2
:10010600487A00343020487A0053656C6563742061
:1001160052617465005553205374616E6461726454
:10012600004D65747269630053656C656374205590
:100136006E697473004C617074696D6520486F6CEC
:1001460064004772617068205363616C6500547285
:1001560061636B204C656E677468004C6170205358
:10016600657474696E6773002D302E3520746F20A8
:10017600302E3573002D3120746F202B3173002DF6
:100186003220746F202B3273002D3520746F202B94
:100196003573002D313020746F202B3130730053AE
:1001A600686F7274203C31206D692C312E366B6D70
:1001B600004D656420312D356D692C312E362D3874
:1001C6006B6D004C6F6E6720352B206D692C382BBC
:1001D600206B6D00447269766572005665686963C6
:1001E6006C6500547261636B0053616D706C696E6F
:1001F60067205261746500457261736520536573AB
:1002060073696F6E73005061636B20536573736916
:100216006F6E7300474D54204F66667365740043D6
:100226006F6E747261737400556E697473004C61FD
:10023600702F5175616C2053657474696E67730015
:10024600466163746F72792044656661756C747378
:100256000053657474696E6773004C617073005166
:1002660075616C696679696E67004175746F637252
:100276006F7373202F2052616C6C79005365676D24
:10028600656E742054696D696E670044726976659F
:10029600005461636820262053706565646F0047CB
:1002A600617567657300472D466F72636573004716
:1002B600732026204C6F636174696F6E00496E70FF
:1002C6007574730044617461204D6F646500475016
:1002D6005320436F6D7061737300475053204C6F0A
:1002E600636174696F6E00436865636B20496E7065
:1002F600757473004F74686572204D6F6465730082
:100306005265636F72642044617461005669657753
:100316002053657373696F6E73004368616E67651A
:100326002053657474696E67730043757272656EE7
:100336007420537461747573004F74686572204637
:1003460065617475726573004D61696E204D656EE9
:100356007500594553004E4F002041726520596F74
:100366007520537572653F0020436C72205374618B
:1003760072742F46696E3F005357204D49534D41C5
:10038600544348002052656C6F6164205357004403
:100396005249564520534146454C59002020445564
:1003A6002073772025642E253032642064617461C1
:1003B60020256400202053552073772025642E25A0
:1003C6003032642064617461202564002A2053550C
:1003D600204E4F5420434F4E4E4543544544202A09
:1003E600005468697320756E69742062656C6F6E5F
:1003F600677320746F004C6F6164696E6700537495
:100406006F72696E670043616E63656C696E670043
:10041600030100FF43757272656E74205374617434
:1004260075730007FF00D9FFCF5D04FF00E3FFF2FD
:10043600CF06FF00EEFF830600000000000000026A
:10044600FF00FDFFFA6F02FF0103FFFA6F02FF01D3
:1004560009FFFA6F0000000000000002FF011BFF09
:10046600FAA202FF0127FFFAA20000000000000026
:1004760007FF013BFFF3D806FF0148FFF61106FF11
:100486000154FFFBBA0000000000000002FF016EED
:10049600FFFB0402FF017BFFFB0402FF0185FFFB5C
:1004A6000402FF018FFFFB0402FF0199FFFB04001A
:1004B60000000000000002FF01A5FFFB6202FF0131
:1004C600B7FFFB6202FF01C9FFFB620000000000EC
:1004D600000006FF01DAFFC8EA06FF01E1FFC72FA9
:1004E60006FF01E9FFC56106FF01EFFFEEE804FF25
:1004F60001FDFFFA0506FF020CFFFCBE07FF021A0C
:10050600FFF32807FF0225FFF21B06FF022EFFFC62
:100516003601FF02340103BD04FF0246FFFAD40090
:1005260000000000000007FF0260FF594807FF02B5
:1005360065FF594807FF0270FF594807FF0282FF0F
:10054600594807FF0291FF594807FF0297FF59488C
:1005560007FF02A5FF594807FF02ACFF594807FFEE
:1005660002B5FF594807FF02C3FF594800000000C3
:1005760000000007FF02D4FF594807FF02E0FF59B9
:100586004807FF02EDFF5948000000000000000F79
:100596000F0F0FFFFFFFFF0F0F0F0FFFFFFFFFCF25
:1005A600CFCFCFCFFFFFFEFC008FCFCFCFCFCFCFA8
:1005B600CFCFFFFEFEFCFCFEFFFF0F0F0F0F0F0F4E
:1005C6000FFFFFFEF800FFFFFFFF0F0F0FFFFFFFFC
:1005D600FF0F0F0FFFFFFEFC008FCFCFCFCFCFCF88
:1005E600CFCFFFFEFEFC0F0F0F0FFFFFFFFF0F0F1A
:1005F6000F0FFCFEFFFFCFCFCFCFCFCFFFFFFEFC0D
:10060600000000007F7F7FFF000000007F7F7F7F6C
:1006160003070F1F3F7F7B73613F7F7F7B7B7B7B66
:100626007B7B7B7F7F7F7F1F3F7F7F78787B7F7F92
:100636007E7C3F7F7F7F607F7F7F7F0000007F7FA4
:100646007F7F0000007F7F7F7F3F7F7F7B7B7B7B81
:100656007B7B7B7F7F7F7F000000007F7F7F7F002B
:100666000000001F3F3F7F7B7B7B7B7B7B7B7B7917
:1006760078FFFFFFFFFFFFFFFFFFFFFFFFFFFFFF0B
:10068600FFFFFFFFFFFFFFFFFFFFFFFFFFFFFFFF74
:10069600FFFFFFFFFFFFFFFFFFFFFFFFFFFFFFFF64
:1006A600FFFFFFFFFFFFFFFFFFFFFFFFFFFFFFFF54
:1006B600FFFFFFFFFFFFFFFFFFFFFFFFFFFFFFFF44
:1006C600FFFFFFFFFFFFFFFFFFFFFFFFFFFFFFFF34
:1006D600FFFFFFFFFFFFFFFFFFFFFFFFFFFFFFFF24
:1006E600FFFFFFFFFFFFFFFFFFFFFF00000000000F
:1006F60000000000000000000000000000000000F4
:1007060000000000000000000000000000000000E3
:1007160000000000000000000000000000000000D3
:1007260000000000000000000000000000000000C3
:1007360000000000000000000000000000000000B3
:1007460000000000000000000000000000000000A3
:100756000000000000000000000000000000000093
:100766000000000000FF0000000000000000000084
:1007760000000000C30000000000000000000000B0
:10078600000000E70000000000000000000000007C
:100796000000C30000000000000000000000000090
:1007A6000055AA0000000000000000000000000044
:1007B60000C3000000000000000000000000000070
:1007C600E70000000000000000000000000000C379
:1007D6000000000000000000000000000000FF0014
:1007E600406070787C7E7C7870604000000000007D
:1007F60000000000000000000000000000000000F3
:1008060000000000000000000000000000000000E2
:1008160000000000000000000000000000000000D2
:1008260000000000000000000000000000000000C2
:1008360000000000000000000000000000000000B2
:1008460000000000000000000000000000000000A2
:100856000000000000000000000002060E1E3E7EA2
:100866003E1E0E0602000000000000000000000010
:100876000000000000000000000000000000000072
:100886000000000000000000000000000000000062
:100896000000000000000000000000000000000052
:1008A6000000000000000000000000000000000042
:1008B6000000000000000000000000000000000032
:1008C6000000000000000000000000000000000022
:1008D60000000000060606060606060606060600D0
:1008E6000000000000000000000000000000000002
:1008F60000000000000000000000000000000000F2
:1009060000000000000000000000000000000000E1
:1009160000000000000000000000000000000000D1
:1009260000000000000000000000000000000000C1
:1009360000000000000000000000000000000000B1
:1009460000000000000000000000000000006060E1
:100956006060606060606060600000000000000031
:100966000000000000000000000000000000000081
:100976000000000000000000000000000000000071
:100986000000000000000000000000000000000061
:100996000000000000000000000000000000000051
:1009A6000000000000000000000000000000000041
:1009B6000000000000000000000000000000000031
:1009C60000000000000000006666666666666666F1
:1009D60066666600000000000000000000000000DF
:1009E6000000000000000000000000000000000001
:1009F60000000000000000000000000000000000F1
:100A060000000000000000000000000000000000E0
:100A160000000000000000000000000000000000D0
:100A260000000000000000000000000000000000C0
:100A360000000000000000000000000000000000B0
:100A460000FFFF000081C3E7FF000081C3E7FFFF4F
:100A5600FFFFFFFFFFFFFFFFFFFFFFFFFFFFFFFFA0
:100A6600FFFFFFFFFFFFFFFFFFFFFFFFFFFFFFFF90
:100A7600FFFFFFFFFFFFFFFFFFFFFFFFFFFFFFFF80
:100A8600FFFFFFFFFFFFFFFFFFFFFFFFFFFFFFFF70
:100A9600FFFFFFFFFFFFFFFFFFFFFFFFFFFFFFFF60
:100AA600FFFFFFFFFFFFFFFFFFFFFFFFFFFFFFFF50
:100AB600FFFFFFFFFFFFFFFFFFFFFF28142814289B
:100AC600142814281428142814281428142800007C
:100AD6000000000000000000000000000000000010
:100AE6000000000000000000000000000000000000
:100AF60000000000000000000000000000000000F0
:100B060000000000000000000000000000000000DF
:100B160000000000000000000000000000000000CF
:100B2600000028142814281428142814281428141B
:100B360028142814283E7F6363637F7E60607E7F6F
:100B46006363637F3E3C19436343193C60603C1911
:100B5600436343193C3E7F7F7F7F7F7E60607E7F5D
:100B66007F7F7F7F3E000000000000000000000045
:100B760000008080808080C06030180C18B0E04093
:100B8600000000000000000000000000000000005F
:100B9600000000000000000080C0C080000080C08F
:100BA600C0C0C0800080C0C0C0C08000C0C00000FF
:100BB600C0C000C0C0C0C000C0C0C0C0C08000C0AF
:100BC600C0C0C000C0C08000C0C00080C0C0C0C0DF
:100BD600C00000000000000000000000000000004F
:100BE600000000000000000080FCFE57AB55AB552E
:100BF600AB55ABFEFC060341404080808080800000
:100C060000000000000000000000000000000000DE
:100C160000FFFF1919FFFF007FFFC0C0E161007FE1
:100C2600FFC0F0FFFF007FFFC0C0FF7F00C0FFFFD7
:100C3600C000FFFF3C7CEFC700C0FFFFC000FFFF06
:100C46000F7CFFFF007FFFC0CCFC7C000000000093
:100C56000000000000000000000000000000081C6A
:100C66003663C160311B0E070607060723212040A5
:100C76004044444488888888081111111121222291
:100C8600424444000000000000F0F81898B8B00094
:100C9600F8F89898F8F000F0F89898B83000000046
:100CA6000000F0F89898B8300018F8F81800F0F836
:100CB6001898B8B000F8F8F080F8F800E0F0383886
:100CC600F0E000F8F800000000000000000000005E
:100CD600000000000000000000000000000000000E
:100CE60000000000000000000000000000000000FE
:100CF60000000101010101020202040404000000D7
:100D06000000000F1F18191F0F001F1F010101000F
:100D1600000C1D19191F0F00000000000C1D1919E9
:100D26001F0F00181F1F18000F1F18191F0F001F75
:100D36001F010F1F1F001F1F03031F1F001F1F1868
:100D46001818180000000000000000000000FCFC5D
:100D56000000000000F8FC0C0CFCF800F8FC0C0C81
:100D6600FCF800FCFCF0B81C0C000CFCFC0C00FCB5
:100D7600FC78E0FCFC00F8FC0CCCDCD800000000A1
:100D86000000000000000000000000E0F090D8C85D
:100D9600ACA49692CA4A7E3E3090905048282824A9
:100DA60024242424242444A4140C0404885020203D
:100DB600202020202020202040C04080000000006D
:100DC6000000008040201000E7E76666666600C304
:100DD600E76666E7C300E3E76666E7C30007070161
:100DE600C3E76660E6C7076660E7E760630787C034
:100DF600E3E7C68607E3E06060E0C0006060E0E02D
:100E0600606000000000E0BE0203C3E1713034768A
:100E1600E6C53554949494949494949494949494A8
:100E26001414010202C1E474343474E4C8081828A6
:100E360090783C1E0D8640203078FCFEFFFFFE7C3D
:100E460038003F3F06060600001F3F30303F1F00B8
:100E56003F3F061E3B3100000000193B33363E1C67
:100E66000000003F3F0000003F3F0C0C3F3F003FAB
:100E76003F061E3B310000003F3F0000000000001F
:100E86000001010103070E0C0C0E07030202020209
:100E9600020202020202020202020202020202012D
:100EA600070E0C0C0E07038242E1F0F8FCFEF9F087
:100EB600E04060F0F8FDFFFDF8F060000000000083
:100EC600000000000000000000000000000000001C
:100ED600000000000000000000000000000000000C
:100EE60000000000000000000000000000000000FC
:100EF60000000000000000000000000000000000EC
:100F060000000000000000000000000000000000DB
:100F160000000000000000000080C0E0F0F8F4E2ED
:100F2600C18080C0E1F3FFFFF3E1C0804020110BD8
:100F3600070301000000000000F0F03030F0E00090
:100F4600F0F03030F0E000F0F03030303000E0F01B
:100F56003030706000E0F03030706000000000F863
:100F66000404E4F43434746404F4F434343404F4DB
:100F7600F404040404F4F434343404E4F43434742B
:100F860064043434F4F434340404F800000000C07B
:100F9600E07070E0C0003030F0F03030000000004B
:100FA600000000000000000000000080402010004B
:100FB6000000003F3F03030301003F3F0F1F3B318B
:100FC600003F3F3333333000193B33333F1E0019A4
:100FD6003B33333F1E000000007F808099BBB3B3D4
:100FE600BF9E80BFBFB3B3B080BFBFB0B0B080BF3D
:100FF600BFB3B3B0809FBFB0B0B898808080BFBF8A
:10100600808080807F000000003F3F06063F3F0053
:1010160000003F3F0000000000000000008040206C
:101026003078FCFEFFFFFE7C3800000000F0F898E8
:1010360098B830001818F8F8181800E0F03838F0AA
:10104600E000F8F89898F8F0001818F8F818180062
:1010560000000080E078180000F8F89898981800CA
:1010660018F8F81800F8F8F080F8F80018F8F818EA
:1010760000F0F89898B83000F8F88080F8F800008A
:1010860000000000000000000000000000000080DA
:1010960040E0F0F8FCFEF9F0E04060F0F8FDFFFDFE
:1010A600F8F060000000000C1D19191F0F00000069
:1010B6001F1F0000001F1F03031F1F001F1F070F16
:1010C6001D180000001F1F00000000181E07010069
:1010D6000000001F1F0101010000181F1F18001F3C
:1010E6001F010F1F1F00181F1F18000C1D19191FA5
:1010F6000F001F1F01011F1F00000000000000005D
:101106000080C0E0F0F8F4E2C18080C0E1F3FFFFA8
:10111600F3E1C0804020110B07030100000000002E
:101126000000008060101010101010101010101029
:1011360010F000000000000000F070C00000000089
:1011460000000000000000000000000080C0C0E0B9
:10115600E0F0F07878787C7CFCFCFC7C7CFCFC7C09
:101166007CFCFC7C7C7C7878F0F0E0E0C0C0800001
:10117600000000000000F010101050501010101069
:101186001010101010F000000000000000E020A079
:101196006040603808F8000080C060384F010002E7
:1011A6000300000000000000000018438478C0809F
:1011B60000C0601F00FF000000000000000000806B
:1011C600E0F8FCFEFFFFFFFFFFFFFFFFFFC0C0DBF5
:1011D600DBC0E4FFFFFCF8C3C3F8FCFFFFC0C0DBC5
:1011E600DBDFFFFFFFFFFFFFFFFFFEFCF8F0E08005
:1011F6007F0087C0000000000000000000010CF323
:1012060086FC0000000000FFF700000000003E0121
:10121600FF111412131010101010101010101010CF
:10122600909090101010101312151110101010132A
:101236001214141C181010101E1F1F9FDFFF7F3F73
:101246001F1F1F1F1F1F1FDF23B9A535B5A5392176
:101256002121212139A5B535A5B923DF1F1F1F1F60
:101266001F1F1F3F7FFFDF9F171118141710101045
:101276009090901010101010101015131F1E1010C3
:101286001C1310101010101010101F00003040001A
:1012960040000000000000000705010302030000F3
:1012A6000000000000000000000000000080C0E018
:1012B60070381C0E0703010000000000000000004B
:1012C6007F7870717130111110363636363610113E
:1012D6001130717170787F0000000000000000007E
:1012E6000103070E1C3870E0C181000001000020D8
:1012F6001038280830000000000000000000000040
:101306000000000000FFFFFFFFFFFFFFFF000000DF
:101316001C1C1C000000FFFFFFFFFFFFFFFF00007B
:1013260000FFFFFFFFFFFFFFFF0000001C1C1C006B
:101336000000FFFFFFFFFFFFFFFF000000FFFFFFB2
:10134600FFFFFFFFFF000000000000000000FFFF9E
:10135600FFFFFFFFFFFF3F3F3F3F3F3F3FFF0000D5
:10136600001C1C1C0000003F3F3F3F3F3F3F3F002B
:1013760000003F3F3F3F3F3F3F3F0000001C1C1C1B
:101386000000003F3F3F3F3F3F3F3F0000003F3FE1
:101396003F3F3F3F3F3F0000001C1C1C0000003F3A
:1013A6003F3F3F3F3F3F3F0000000000000000007E
:1013B600000000000000000000000000F0F0F0F067
:1013C600F0F0F0F0000000C0C0C0000000F0F0F047
:1013D600F0F0F0F0F0000000F0F0F0F0F0F0F0F0D7
:1013E600000000C0C0C0000000F0F0F0F0F0F0F027
:1013F600F0000000F0F0F0F0F0F0F0F00000000077
:101406000000000000F0F0F0F0F0F0F0F000000056
:1014160000000000000000000000000000000000C6
:1014260000000000000000000000000000000000B6
:10143600000000000000FFFFFFFFFFFFFFFF0000AE
:1014460000C1C1C1000000FFFFFFFFFFFFFFFF005B
:101456000000FFFFFFFFFFFFFFFF000000C1C1C14B
:10146600000000FFFFFFFFFFFFFFFF000000FFFF80
:10147600FFFFFFFFFFFF000000C0C0C0000000FF2D
:10148600FFFFFFFFFFFFFF0000000000000000005D
:101496000000000000000000000000C04040404086
:1014A60040404040404040404040C04040404040B6
:1014B600434343434343434340C04041414140408B
:1014C6004043434343434343C34040404343434372
:1014D60043434343404040C141414040404343436E
:1014E60043434343434040C043434343434343434F
:1014F600404040414141C04040434343434343434E
:101506004340404040C04040404040404040404052
:1015160040404040C0FF8080808080808080808006
:1015260080808080E1808080808080808080808054
:10153600808080F380808080808080808080808032
:101546008080E18080808080808080808080808034
:1015560080AAD58080808080808080808080808006
:1015660080E1808080808080808080808080808014
:10157600F38080808080808080808080808080E191
:101586008080808080808080808080808080FF0056
:101596000000F0F03030F0E000F0F030303000C005
:1015A600E07070E0C000F0F03030F0E000F0F000E5
:1015B60000F0F0000000003030F0F0303000E0F0D5
:1015C6003030F0E0000000000000808080800000E5
:1015D60000000000000000C0201008060100000006
:1015E6000000000000009F00000000000000000155
:1015F60006081020C00000000000000000008080E7
:101606008080000000000000000000003F3F071F30
:101616003B31003F3F333330003F3F06063F3F003C
:101626003F3F30303F1F0001033F3F0301000000F2
:101636000000003F3F0000001F3F30303F1F00000A
:101646000080F0FE0F01010FFEF0800020100C025A
:1016560001000000C02010D0D01020C00000000003
:101666003F000000C02010D0D01020C000000001B4
:10167600020C10200080F0FE0F01010FFEF080002A
:101686000000000000000000F8F80000000000E084
:10169600F03838F0E000F8F80000F8F800F8F8F054
:1016A60080F8F800F0F81818383000F8F88080F85C
:1016B600F80000000000003078F8FCFFE7C0C0C06A
:1016C600C0C0C0E7FFFCF878300000F80E03037BCB
:1016D6007B7B037B7B7B03838383838383037B7B8C
:1016E6007B037B7B7B03030EF800003078F8FCFF5E
:1016F600E7C0C0C0C0C0C0E7FFFCF87830000000FB
:1017060000001F1F18181818001F1F03031F1F00B3
:101716000F1F18181F0F001F1F010F1F1F000F1F7D
:1017260018181C0C001F1F01011F1F0000000000DD
:10173600000000000103030707070707070303016B
:1017460000000000003F3E3C3C3C3C3C1C040404C2
:101756000C0D0D0D0D0D0D0C0404041C3C3C3C3C05
:101766003C3E3F0000000000010303070707070790
:101776000703030100000000000000F00808C8E8A5
:101786006868E8C808E8E868686808E8E8080808D3
:1017960008E8E868686808C8E86868E8C808686823
:1017A600E8E868680808F000000000000000000093
:1017B60080F03C06063CF0800000000000000000BF
:1017C6000000000000000000000000000000000013
:1017D6000000000000000000000000000000000003
:1017E6000000000080F03C06063CF080000000008F
:1017F6000000000000FF0000337766667E3C007F35
:101806007F666660007F7F606060007F7F666660DF
:10181600003F7F606070300000007F7F00000000A6
:10182600FF0000000002020002070F0E1C1C1C1C19
:101836000E0F07020000020202020202028040208E
:10184600A2A2224282020200000002020282422278
:10185600A2A02040820202020202000002070F0E2E
:101866001C1C1C1C0E0F07020002020000000030A8
:1018760031F1F1313101E1F13131F1E101010101E2
:1018860001E1F131317161013131F1F1313101E1C2
:10189600F13131F1E101E1F13131706000F0F03008
:1018A60030300000000000000000000000000000D2
:1018B60000000000F01C0607F6F6F707F6F6F70636
:1018C60006060606060606F7F6F607F7F6F607060E
:1018D6001CF00000000000000000000000000000F6
:1018E60000000000000000000000003F3F00000074
:1018F6001F3F30303F1F0000000000193B33333FCD
:101906001E0000003F3F0000003F3F06063F3F002D
:101916001F3F30363E1E003F3F333330000000008D
:1019260000000000000000000000000000007F7CB6
:10193600787878787838080808181B1B1B1B1B1B3F
:10194600180808083878787878787C7F00000000D6
:10195600000000000000000000000000000000F889
:10196600FC1E0F070303030303030303030303031D
:101976000303030303030303030303030303030331
:101986000303030303030303030303030303030321
:101996000303030303030303030303030303030311
:1019A6000303030303030303030303030303030301
:1019B60003030303030303030303030303030303F1
:1019C60003030303030303030303030303030303E1
:1019D60003030303070F1EFCF8FFFF0000000000CF
:1019E60000000000000000000000000000000000F1
:1019F60000000000000000000000000000000000E1
:101A060000000000000000000000000000000000D0
:101A160000000000000000000000000000000000C0
:101A260000000000000000000000000000000000B0
:101A360000000000000000000000000000000000A0
:101A46000000000000000000000000000000000090
:101A560000FFFFFFFF000000000000000000000084
:101A66000000000000000000000000000000000070
:101A76000000000000000000000000000000000060
:101A86000000000000000000000000000000000050
:101A96000000000000000000000000000000000040
:101AA60000000000000000000000000000008000B0
:101AB600008000C0404040800000804080000080E0
:101AC6004040408000C00000804000FFFF1F3F787C
:101AD600F0E0C0C0C0C0C0C0C0C0C0C0C0C0C0C0B0
:101AE600C0C0C0C0C0C0C0C0C0C0C0C0C0C0C0C0F0
:101AF600C0C0C0C0C0C0C0C0C0C0C0C0C0C0C0C0E0
:101B0600C0C0C0C0C0C0C0C0C0C0C0C0C0C0C0C0CF
:101B1600C0C0C0C0C0C0C0C0C0C0C0C0C0C0C0C0BF
:101B2600C0C0C0C0C0C0C2C5C8C2C5C8C0DFD2D24E
:101B3600D2CDC0DFC4C4C4DFC0CFD0D0D0C8C0DFD0
:101B4600C2C5C8D0C0FFFF000000000000005F0053
:101B560000000E000E00247E247E24242A7F2A12F2
:101B6600261608343236495926500000000E003E2B
:101B760041410000000041413E2A1C3E1C2A080843
:101B86003E08080000004030080808080800000069
:101B9600400020100804023E4549513E00427F4065
:101BA60000724949494622494949361814127F109C
:101BB6002F494949313E49494932017109050336E0
:101BC60049494936264949493E0000363600000053
:101BD6002636000018244200001414140000422483
:101BE600180002015109063E415D553E7C12111254
:101BF6007C7F494949363E414141227F4141413E30
:101C06007F494949417F090909013E4149493A7FCE
:101C16000808087F00417F41002040413F017F08BE
:101C26001422417F404040407F027C027F7F020CAD
:101C3600307F3E4141413E7F090909063E415161DF
:101C46007E7F09192946264949493201017F01014A
:101C56003F4040403F1F2040201F3F403E403F4105
:101C6600221C2241010678060161514945437F4104
:101C76004100000204081020000041417F301C078B
:101C86001C3040404040400102040000345454548B
:101C9600787F444444383844444448384444447F74
:101CA6003854545458087E090902185454543C7F39
:101CB6000808087000047D40002040443D007F1065
:101CC600384400007F4000007C047C04787C0404D7
:101CD600047838444444387E1212120C18242464C2
:101CE600587C040404084854545424043F444424AF
:101CF6003C4040403C0C3040300C3C4038403C447A
:101D060028102844004C50503C645454544C083E0F
:101D160041410000007F00000041413E08040202EC
:101D260004020000000000000000000000000000A7
:101D36000000000000FFFF00000000000033330039
:101D4600000000001E1E001E1E0000000000000015
:101D5600000030FEFE3030FEFE30031F1F03031F5F
:101D66001F0378FCCCFFFFCCCC8C0C0C0C3F3F0C3B
:101D76000F070E1F1BDFFE7C1F07303C0F1F3F3671
:101D86003E1C1CBEF7E3F73E9C800F1F39391F0F20
:101D96003F3B000006C6FE7C00000000000000007D
:101DA60000000000FCFE0703000000000F1F383093
:101DB600000000000307FEFC0000000030381F0F83
:101DC6000000CEDEF0FEFEF0DECE1C1E031F1F035B
:101DD6001E1CC0C0C0FCFCC0C0C00000000F0F002D
:101DE60000000000000000000000000000002C1CA5
:101DF600000000C0C0C0C0C0C0000000000000005D
:101E0600000000000000000000000000303000006C
:101E16000000000000C0F03C0F03303C0F03000040
:101E26000000F8FE07030307FEF8071F38303038B6
:101E36001F0700181C0EFFFF0000000030303F3F58
:101E460030300C0E0783C3E77E3C3C3E37333130DF
:101E560030300C0EC7C3C3E7FE3C0C1C383030399B
:101E66001F0F00C0F03C0FFFFF0007070606063FE6
:101E76003F06FFFF636363E3C380183830303038B2
:101E86001F0FFCFEC76363E7C6800F1F383030386C
:101E96001F0F030303C3F37F1F07303C1F07010017
:101EA60000003CFEE7C3C3E7FE3C0F1F3930303964
:101EB6001F0F7CFEC78383C7FEFC183831313138CB
:101EC6001F0F000000303000000000000003030078
:101ED600000000008E8E8E0000000000110F07002B
:101EE600000080C0E070381C0C00000103070E1CC7
:101EF6001800303030303030303003030303030332
:101F06000303000C1C3870E0C08000181C0E070389
:101F160001001C1E0686C6FE7C0000003737010045
:101F26000000FEFF03F3FB1BFFFE1F3F3033373677
:101F36003733F8FC0E07070EFCF83F3F0303030395
:101F46003F3FFFFFC3C3C3E7FE9C3F3F30303038FF
:101F56001F0FFCFE070303070E0C0F1F3830303827
:101F66001C0CFFFF03030307FEFC3F3F30303038F5
:101F76001F0FFFFFC3C3C3C3C3033F3F303030301F
:101F86003030FFFF6363636303033F3F00000000DD
:101F96000000FCFE070383878E8C0F1F383031311B
:101FA6003F1FFFFFC0C0C0C0FFFF3F3F0000000053
:101FB6003F3F000303FFFF0303000030303F3F3085
:101FC600300000000303FFFF03031C3C30303F1FBB
:101FD6000000FFFFF0381C0E07033F3F03070E1CEF
:101FE6003830FFFF0000000000003F3F3030303047
:101FF6003030FEFF3EF8F83EFFFE3F3F003F3F0019
:102006003F3FFFFF3CF0C000FFFF3F3F0000030FD4
:102016003F3FFCFE07030307FEFC0F1F3830303836
:102026001F0FFFFF838383C7FE7C3F3F0101010132
:102036000000FCFE07030307FEFC0F1F38363E1C9C
:102046003F37FFFF838383C7FE7C3F3F03070F1D98
:1020560038303C7EE7C3C3C78E0C0C1C3830303991
:102066001F0F030303FFFF0303030000003F3F00AE
:102076000000FFFF00000000FFFF0F1F3830303860
:102086001F0FFFFF80000080FFFF00030F3C3C0F87
:102096000300FFFF00FFFF00FFFF0F3F3F07073F63
:1020A6003F0F071F3CF0F03C1F07383E0F03030F9E
:1020B6003E380F7FF8C0C0F87F0F0000013F3F0198
:1020C6000000030383E3FB3F0F07383E3F33303006
:1020D60030300000FFFF0303000000003F3F3030B8
:1020E6000000030F3CF0C000000000000000030FDA
:1020F6003C3000000303FFFF0000000030303F3F8C
:10210600000080C0E07070E0C080030100000000A5
:102116000103000000000000000030303030303095
:102126003030000003070E1C1800000000000000FD
:102136000000607030303030F0E01E3F3333333310
:102146003F3FFFFF70303070E0C03F1F38303038FF
:102156001F0FC0E070303070E0C00F1F38303038CD
:102166001C0CC0E070303070FFFF0F1F3830301885
:102176003F3FC0E070303070E0C00F1F3B33333359
:102186003B1B0060FEFF6363030000003F3F00004F
:102196000000E0F030303030F0E0193B3333333BB1
:1021A6001F0FFFFF70303070E0C03F3F000000009F
:1021B6003F3F000060ECEC0000000000003F3F00E5
:1021C600000000000060ECEC0000183830303F1FC3
:1021D6000000FFFFC0E0703818003F3F03070E1CE9
:1021E6003830000000FFFF0000000000001F3F30F5
:1021F6000000F0E070F0E070F0E03F3F003F3F008D
:102206003F3FF0E070303070E0C03F3F000000001C
:102216003F3FC0E070303070E0C00F1F38303038BC
:102226001F0FF0F030303030F0E03F3F0303030380
:102236000301E0F030303030F0F001030303030314
:102246003F3FF0F0E0703070E0C03F3F000000001C
:102256000000E0F0303030307060193B33333333F8
:102266003F1E6060FEFE6060600000001F3F303071
:102276003000F0F000000000F0F00F1F383030188A
:102286003F3F70F0C00000C0F07000030F3C3C0FF1
:102296000300F0F000C0C000F0F00F3F381F1F38F9
:1022A6003F0F60E0C08080C0E06030381D0F0F1D1A
:1022B6003830F0F080000080F0F0183933333339CD
:1022C6001F0F30303030B0F0F070383C3E373331CD
:1022D600303000C0FE3F0303000000001F3F3030D7
:1022E6000000000000FEFE0000000000001F1F00AE
:1022F6000000000003033FFEC000000030303F1F17
:10230600000080C06060C0C06020000000000000C7
:1023160000007EFFC3C3FF7E00C6FFFFC000E6F3DA
:10232600FBDBDFCE66E7C3DBFF763C3E33FFFF30E9
:10233600DFDFDBDBFB737EFFDBDBFB700003E3FB36
:102346003F0F66FFDBDBFF66CEDFDBDBFF7EC0C059
:102356000000FEFF0303FFFE010303030301000663
:10236600FFFF000000030303030086C7E3733F1E5D
:1023760003030303030386873333FFCE01030303FB
:102386000301F0FCCFFFFFC0000000030300BFBF46
:102396003333F3E3010303030301FEFF3333F7E6AD
:1023A6000103030303010383E3FB3F0F0003030061
:1023B6000000CEFF3333FFCE0103030303019EBFAC
:1023C6003333FFFE010303030301FFFF0000000098
:1023D60003030303030300000000000000000000E5
:1023E60000001818181818181818181818FFFF18C9
:1023F6001818FF1F1F1F1FE1E1E1E1FF03020202A0
:1024060002030303030300000000000000000000B5
:1024160000000000000000000000000000000000B6
:1024260000000000000000000000000000000000A6
:102436000000000000000000000000000000000096
:102446000000000000000000000000000000000086
:102456000000000000000000000000000000000076
:102466000000C0C1C1810140C30103C00280C24156
:10247600C60106C00780C7410500C5C1C481044026
:10248600CC010CC00D80CD410F00CFC1CE810E40D6
:102496000A00CAC1CB810B40C90109C00880C841E6
:1024A600D80118C01980D9411B00DBC1DA811A4056
:1024B6001E00DEC1DF811F40DD011DC01C80DC4126
:1024C6001400D4C1D5811540D70117C01680D64156
:1024D600D20112C01380D3411100D1C1D081104066
:1024E600F00130C03180F1413300F3C1F281324056
:1024F6003600F6C1F7813740F50135C03480F44126
:102506003C00FCC1FD813D40FF013FC03E80FE41D5
:10251600FA013AC03B80FB413900F9C1F8813840E5
:102526002800E8C1E9812940EB012BC02A80EA4155
:10253600EE012EC02F80EF412D00EDC1EC812C4025
:10254600E40124C02580E5412700E7C1E681264055
:102556002200E2C1E3812340E10121C02080E04165
:10256600A00160C06180A1416300A3C1A281624055
:102576006600A6C1A7816740A50165C06480A44125
:102586006C00ACC1AD816D40AF016FC06E80AE41D5
:10259600AA016AC06B80AB416900A9C1A8816840E5
:1025A6007800B8C1B9817940BB017BC07A80BA4155
:1025B600BE017EC07F80BF417D00BDC1BC817C4025
:1025C600B40174C07580B5417700B7C1B681764055
:1025D6007200B2C1B3817340B10171C07080B04165
:1025E600500090C191815140930153C05280924155
:1025F600960156C057809741550095C19481544025
:102606009C015CC05D809D415F009FC19E815E40D4
:102616005A009AC19B815B40990159C058809841E4
:10262600880148C0498089414B008BC18A814A4054
:102636004E008EC18F814F408D014DC04C808C4124
:10264600440084C185814540870147C04680864154
:10265600820142C043808341410081C18081404064
:10B7390043150A0000004E05140000000000000037
:10B749000000000000000042041A000042019400B9
:10B75900004204C500A04215A10000411435FE5560
:10B76900144100000000000000000000000000007B
:10B77900000000000000004204CA000042019200DB
:10B78900004214330000420492000041000E0041BF
:10B7990015B4004204C8000041019D0047141D0072
:10B7A90000000000000043141A00000041000003DB
:10B7B90041069C0041069D00411593144104C700B0
:10B7C9004106BA0144016FFFFFFFFF44018EFFFFED
:10B7D900FFFF420134FFFF420136FFFF4D0001FF29
:10B7E90000A60103B0000000000114704D000FFF16
:10B7F90000B40103B0000000000114704D06ADFF54
:10B8090000C10103B0000000000114704D15B5FF1F
:10B8190000D001140D000000000114704B143653C0
:10B82900657373696F6E202323004D146301143609
:10B839000104B8000000000103CA4D04B801143620
:10B849000115B500000000FF04294D069EFF010FF8
:10B859000103B000000000FF04454D0173FF012EF4
:10B869000103B000000000FF04614D03BDFF016149
:10B879000103B000000000FF04764D1594FF014854
:10B889000103BD00000000FF04924D040DFF0154A7
:10B899000103BD00000000FF04BC4D03B0FF0257C7
:10B8A90001140D00000000FF04D84D1456FF02CA10
:10B8B90001140D00000000FF052C4D0162FF02FA82
:10B8C90001140D00000000FF0579602A013801FF0D
:10B8D900030601145606FF0312FF000301FF0320AC
:10B8E9000103B006FF0330FF8C6B01FF033F010129
:10B8F90062000000000000004D140DFF034E01140A
:10B909000D0000000001013855001E06FF03580014
:10B91900000001FF035C00000000000000000000BF
:10B929005515C207FF0358FFAB0107FF035CFFF082
:10B939009C000000000000004D15A3FF035F0000FC
:10B94900000000000001001E4D1424FF036E0000DA
:10B9590000000000000115C2470196010000000126
:10B9690014244D0181000000000000000000FF01C7
:02B97900019635
:10756400E49017FCF090181804F075840F75FFDE92
:1075740075FFAD12F38112EA9DE49004A7F0900424
:1075840095F0900494F09004A604F0E49004A8F01C
:10759400A3F0900496F0A3F09004B1F090049FF04F
:1075A4009004B0744EF090049EF07B007A00790051
:1075B4009004AD12574B9004AA12574B90049B129F
:1075C400574B90049812574B0B7A0679BB9004A33F
:1075D40012574B7A0A79F59004B512574B7A0F7902
:1075E400CF9004A012574B7A1179EC9004B2125741
:1075F4004B7A0479947F007E847D037C0012BBB1B6
:107604007B017A0479A67F007E847D037C0012BB13
:10761400B17F007E9612FBE512FD447528017529A1
:1076240014752A097B017A14793112DF1612D0CF2E
:10763400126531D2AF12E199D2FEE4FF12EBA7300A
:10764400D82175610075620F7563FF7564057565F2
:107654009575662D7B717A007D097C007F037E0021
:0676640012A59B30D83294
:10766A009017E71256E30005265CE4FFFEFDFC9046
:10767A0017E71256BBD312562840179017E712562F
:10768A009F74FFFBFAF9F81254E29017E71256D7E3
:02769A0080D896
:10769C00E49017FDF0A3F0900418E493FF3395E009
:1076AC00FE9004A075F012EF125714EE75F012A4B0
:1076BC002583F583125742900007E4125310755B33
:1076CC0000755C017B917D027F0312BDD512F9938D
:1076DC0090069CE0701B9017FDE475F0011253CFDF
:1076EC00C39017FEE094039017FDE06480948040F3
:1076FC00A690069CE06012755B00755C017B707D4A
:10770C00027F0312BDD512F993901576E0FFA3E02A
:10771C009017FFCFF0A3EFF0901578E0FFA3E09067
:0A772C001801CFF0A3EFF030D832BF
:107736009017EB1256E3000A4CB8E4FFFEFDFC90EE
:1077460017EB1256BBD312562840179017EB12565A
:107756009F74FFFBFAF9F81254E29017EB1256D712
:0277660080D8C9
:10776800E4FF12EBA790069CE0FF12A854EF7052BA
:107778007BFF7A03797EF55675572DFF12DE327B33
:10778800FF7A03798AE4F55675572D7F0212DE32A7
:107798009017EF1256E300225510E4FFFEFDFC900F
:1077A80017EF1256BBD312562840179017EF1256F0
:1077B8009F74FFFBFAF9F81254E29017EF1256D7AC
:0277C80080D867
:1077CA00E4FF12EBA77BFF7A037995E4F556755728
:1077DA002DFF12DE327564FF7565037566A2756743
:1077EA0000756802756900756A1B756B00756C080F
:1077FA007B017A1879031288587B017A187903E495
:10780A00F54075412D7F0212DD4C90069CE06047E1
:10781A007564FF7565037566BA9017FFE0FAA3E011
:10782A00FB7C007D64FFAE021253448E678F687C36
:10783A00007D64AF03AE021253448C698D6AA3E0E3
:10784A00F56BA3E0F56C7B017A1879031288587BF3
:10785A00017A18790380067BFF7A0379D2E4F5402E
:0B786A0075412D7F0312DD4C30D83239
:107875009017F31256E300112A88E4FFFEFDFC90F1
:1078850017F31256BBD312562840179017F312560A
:107895009F74FFFBFAF9F81254E29017F31256D7CA
:0278A50080D889
:1078A700E4FF12EBA77BFF7A0379E7E4F540754124
:1078B7002DFF12DD4C7B017A15790DE4F5407541FA
:1078C7002D7F0212DD4C7B017A157921E4F5407595
:1078D700412D7F0312DD4C7B017A01799E75620091
:1078E7007563037F107E0212E7C790069CE0700362
:1078F7000279FD900418E493FF3395E0FE9004A00D
:1079070075F012EF125714EE75F012A42583F58364
:10791700125742900007E41253109004A075F0121A
:10792700EF125714EE75F012A42583F58312574210
:107937009000087403125310E49017FDF0A3F09021
:1079470017FDE0FEA3E0FFC39410EE64809482501D
:107957004D749E2FF58274013EF583E0FF90041865
:10796700E493FD3395E0FC9004A075F012ED1257F7
:1079770014EC75F012A42583F5831257429017FE75
:10798700E02409FD9017FDE034008D82F583EF12A6
:1079970053109017FDE475F0011253CF80A1755B6A
:1079A70002755C127B987D027F0312BDD512F99395
:1079B70090157DE030E4047F0080027F0190041879
:1079C700E493FD3395E0FC9004A075F012ED125797
:1079D70014EC75F012A42583F58312574290000723
:1079E700EF125310755B00755C017B947D027F037A
:1079F70012BDD512F993E49017FDF0A3F09017FD8F
:107A0700E0FEA3E0FFC39404EE6480948050347CCE
:107A1700007D28125332749E2FF974013EFA7B01C0
:107A2700C001742F2FF9740F3EA801FC7D01D0010E
:107A37007E007F2812525F9017FDE475F001125304
:107A4700CF80BAE49017FDF0A3F09017FDE0FEA3F6
:107A5700E0FFC39402EE6480948050347C007D2460
:107A670012533274CE2FF974023EFA7B01C00174AF
:107A7700CC2FF974043EA801FC7D01D0017E007F64
:107A87002412525F9017FDE475F0011253CF80BAAC
:037A970030D832B2
:107A9A009017F71256E3000BAC48E4FFFEFDFC908A
:107AAA0017F71256BBD312562840199017F71256D9
:107ABA009F74FFFBFAF9F81254E29017F71256D79F
:027ACA0080D862
:107ACC00C2FEE4FF12EBA7752801752904752A92F2
:107ADC007B017A14793312D50D7B017A01799E756D
:107AEC0062007563017F107E0212E7C79001A1E06E
:107AFC00540F24FC600C240270109015937414F035
:107B0C00800E9015937428F08006901593740AF0EB
:107B1C009001A2E09004C7F0901409E0FCA3E0FDF2
:107B2C007F017E0012EFC69004C7E030E7034403E8
:107B3C00F0E49017FDF0A3F09017FDE0FEA3E0FF3A
:107B4C00C39410EE648094825017749E2FF5827447
:107B5C00013EF583E4F09017FD75F0011253CF80D0
:0C7B6C00D7E4901435F07D03FF126D602B
:107B780090157DE030E4047F0080027F01EF7020E3
:107B8800C3900521E094F0900520E0940040077D23
:107B9800067F01126D6030DE07E4900520F0A3F047
:107BA800E49017FBF09017FBE0FFC3940650537462
:107BB800017E00A807088005C333CE33CED8F9FF6D
:107BC800ADD8EF5D60349017FBE0FD25E02414F597
:107BD80082E43405F583E0FEA3E0C39409EE940043
:107BE80040057F01126D609017FBE025E02414F535
:107BF80082E43405F583E4F0A3F09017FBE004F089
:0D7C080080A3900498125742E94A4B602374
:107C15009004981257428B228A2389247B007A008C
:107C2500790090049812574BAB22AA23A924E4FFAC
:037C3500122666AE
:0B7C38009004AA125742E94A4B602357
:107C43009004AA1257428B228A2389247B007A004C
:107C530079009004AA12574BAB22AA23A9247F01CF
:037C630012266680
:107C66009015A1E07002A3E07003027B78E4901502
:107C7600A1F0A3F090069DE0FFB4F018901435F043
:107C8600E4901433F0A3F090000E74FFF0FB7A0337
:107C960079FC801290069DE0FFB4F115901435F042
:107CA6007BFF7A04790412FC9DE490069DF0027B2A
:107CB6007890069DE0FF64F26003027B78901435AD
:107CC600EFF07BFF7A04790C12FC9D901432E024CD
:107CD600FBFD901431E034FFFC7B01E4FFFE12E86B
:077CE600F6E4F58443EF0111
:037CED00027B789F
:10F9930090150BE070FA900498125742E94A4B60B5
:01F9A300293A
:10F9A40090049812574290181912574B90069C7461
:10F9B40001F07B007A00790090049812574B90185C
:09F9C40019125742E4FF122666F5
:01F9CD002217
:0300000002E9878B
:0CE98700787FE4F6D8FD75818002E9CEAF
:10D87F002530326420004C49535420454D505459A3
:10D88F00002A004E6F205355004E6F20496E707561
:10D89F00747300472D466F7263657300496E707520
:10D8AF007473004D656D2046756C6C0025303264C5
:10D8BF00004D454D2025644B2F25644B2C202564AE
:10D8CF002525004C4150532025642C2052415445AE
:10D8DF00203130487A004C4150532025642C20527F
:10D8EF00415445203230487A004C41505320256432
:10D8FF002C2052415445203430487A0054656D70C5
:10D90F002025332E32662046005265632054696D00
:10D91F00653A2025322E31662048727300536573A5
:10D92F007320417661696C3A20256400492F4F3A84
:10D93F0020412D2D2D2D20442D2D20462D2D0050F5
:10D94F006F7765723A2025752525004E6F204C6143
:10D95F00707300436F6E7420256400474D5420256B
:10D96F002B303264004C6170486F6C642025336437
:01D97F0000A7
:03B97B00011C01AB
:10CC48007B017A187974E4F562F5637F107E02122D
:10CC5800E7C7E4901A85F0901A84F0901A84E0FFF0
:10CC6800C39415400302CD7475F019EF901874122F
:10CC78005714E0FEA3E0F47002EEF4700302CD6BEB
:10CC8800901A84E075F019901876125714E0FEA3F4
:10CC9800E0F47002EEF4700302CD6B901A85E07533
:10CCA800F012A42422F9740535F0FA7B017564FFAB
:10CCB8007565D875667F901A84E02401FFE433F522
:10CCC800678F68128858901A84E075F01990187860
:10CCD80012571412569FC006C007901A84E075F0C8
:10CCE8001990187C125714E0F557A3E0F558E4F5AD
:10CCF80059901A85E075F012A42425F9740535F0C9
:10CD0800755A01F55B895CD007D00612B26E901A8D
:10CD180085E0FF75F007A42470F582E43414F583E8
:10CD28007406F07BFF7AD97980EF75F007A4247434
:10CD3800F582E43414F58312574BEF75F012A424EE
:10CD480022F9740535F0FA7B01901A85E075F00731
:10CD5800A42471F582E43414F58312574B901A8594
:10CD6800E004F0901A84E004F002CC63901A85E0A5
:10CD7800FD9015BBF0D394035003E480069015BBD7
:10CD8800E024FD9015BEF09015BBE070028002ED26
:10CD9800149015BDF09015BCF0901A85E0FF75F061
:10CDA80007A42470F582E43414F583E4F0FBFAF95F
:10CDB800EF75F007A42474F582E43414F583125750
:10CDC8004BEF75F007A42471F582E43414F583025F
:02CDD800574BB7
:106D6000151EA81EA605151EA81EA607E51E24F9B9
:026D7000F51E0E
:106D7200E51C60337B017A14790D901CCC12574BC1
:106D82001B7A007900901CCF12574B901CD21257DD
:106D92004BE4901CD7F0901CD6F0901CD5F0901CC0
:106DA200D912574BE4F51CE51E2407F8E6147003CC
:106DB200026F3604600302755D901CCC125742903C
:106DC200000612529E7048900006125310901CCC7E
:106DD20012574290000A125774C003C002C00190B9
:106DE2001CCC12574290000612529E75F007A4F571
:106DF2008285F083D001D002D00312529E6010909F
:106E02001CCC12574290000674011252CB80BE1263
:106E1200FD32901CCC12574290000912529EB4FFD0
:106E220003027043E4FF12EBA775610075620875F7
:106E320063FF75640A7565C175662D7B7A7A00E415
:106E4200FDFCFFFE12A59B901CCC12574212575418
:106E520012FD0AC374149FFFE49EFE7C007D06129D
:106E620053327D02125399A81EEFF6FD901CCC12EC
:106E7200574212575475582DE4FF12E0D0901CCCA3
:106E820012574290000A125774125285FFB4031926
:106E9200901CCC125742900009E412531090000843
:106EA200E41253109000078069EF640260030271DC
:106EB20010901CCC12574290000912529EFF900073
:106EC2000712529EFEC39F4013EF2402FDE433FCDF
:106ED200EED39DEC6480F87480984055901CCC12DF
:106EE200574290000712529E9000081253109000D1
:106EF2000612529EFFD39403400F901CCC125742AD
:106F020090000812529EFE700C901CCC12574290B8
:106F12000009E48019EF24FDFFEE14FEC39F500424
:106F2200AF068000901CCC125742900009EF12531A
:106F320010027110E51E2408F8E6700302755B1456
:106F4200700302718124FE70030271161470030231
:106F52006FF124FE70030274BC2404600302755DA9
:106F6200901447125742E94A4B6012901CCC1257B8
:106F720042C003C002C00190144702700B901CCCA7
:106F820012574290000912529EF470199000081292
:106F9200529ED39400500302755D90000874FF1254
:106FA20052CB027043901CCC1257429000061252F0
:106FB2009E700302755D90000812529EFF900009B8
:106FC20012529EFEC39F5008901CCC12574280144E
:106FD200EED394004016901CCC12574290000974D4
:106FE200FF1252CB90000874FF1252CB0271109024
:106FF200144D125742E94A4B6015901CCC1257426D
:10700200C003C002C00190144D12574202734B904C
:107012001CCC12574290000912529EF4704A900002
:107022000612529E14FF90000812529ED39F4003F4
:1070320002755D901CCC12574290000874011252E6
:10704200CB90000812529E75F007A4FFAEF090009C
:107052000A125774E92FF9EA3EFA900001125774A6
:107062007D2D12E3CF02755D901CCC125742900029
:107072000612529EFF700302755D90000912529E25
:10708200FE90000812529EFDC39EC394025046EF2A
:1070920024FFFFE434FFFEED2401FDE433FCC3EDE5
:1070A2009FEE6480F8EC648098901CCC500D1257CF
:1070B2004290000812529E04FF800B125742900029
:1070C2000612529E14FF901CCC125742900008EFF9
:1070D2001253108039901CCC125742900009125260
:1070E2009E2403FFE433FE90000612529EFDC3EF7E
:1070F2009D7480F86E985016901CCC1257429000E6
:107102000974011252CB90000874011252CB12B0D2
:107112000302755D90144A125742E94A4B6044904B
:107122001CCC125742C003C002C00190144A12572D
:107132004289828A83D001D002D003125827A81E26
:1071420008125739A81E08125720E94A4B70030249
:10715200755DA81E08125720901CCC12574B7D0358
:10716200027447901CCC125742900003125774903D
:107172001CCC12574BE4901435F07D030273C99076
:107182001444125742E94A4B6044901CCC125742B5
:10719200C003C002C00190144412574289828A83FC
:1071A200D001D002D003125827A81E08125739A8BE
:1071B2001E08125720E94A4B700302755DA81E088B
:1071C200125720901CCC12574B7D01027447901C21
:1071D200CC12574290000A125774E94A4B700302CC
:1071E200755D901CCC12574290000A125774C0036E
:1071F200C002C001901CCC12574290000812529E4D
:10720200FF75F007A4F58285F083D001D002D00388
:1072120012529E24FE604C24FE700302744B24FE24
:1072220070030273CD1470030272DC1470030273D4
:107232005B2407600302755D901CCC125742EF7508
:10724200F007A4FFAEF090000A125774E92FF9EA92
:107252003EFA900004125774901CCC12574B7D01D9
:10726200027447901CCC12574290000812529E9012
:107272000007125310E4901435F090000812529E49
:1072820075F007A4FFAEF090000A125774E92FF9C7
:10729200EA3EFA900004125774E94A4B6037901C98
:1072A200CC125742C003C002C001901CCC125742FC
:1072B20090000A125774E92FF9EA3EFA900004127C
:1072C200577489828A83D001D002D003125827A82A
:1072D2001E081257397D01027447901CCC12574286
:1072E200A81E08125739901CD212574B7B017A1CE8
:1072F20079CF901CCC12574BA81E08125720900031
:107302000812529E75F007A4FFAEF090000A1257C1
:1073120074E92FF9EA3EFA900004125774E94A4BD5
:10732200700302755DA81E08125720C003C002C078
:1073320001A81E0812572090000A125774E92FF96B
:10734200EA3EFA90000412577489828A83D001D0EF
:1073520002D00312582702755D901CCC125742903E
:107362000003125774901CCC12574B900008125213
:107372009E75F007A4FFAEF090000A125774E92F31
:10738200F9EA3EFA900004125774E94A4B60317BE5
:10739200007A007900C003C002C001901CCC1257D1
:1073A2004290000A125774E92FF9EA3EFA9000045B
:1073B20012577489828A83D001D002D003125827CF
:1073C200E4901435F07D01FF0274B6901CCC125784
:1073D2004290000812529E75F007A4FFAEF0900092
:1073E2000A125774E92FF9EA3EFA90000412577410
:1073F200E94A4B6037901CCC125742C003C002C00E
:1074020001901CCC12574290000A125774E92FF9CE
:10741200EA3EFA90000412577489828A83D001D01E
:1074220002D003125827A81E08125739A81E0812A4
:107432005720E94A4B600CA81E08125720901CCC1A
:1074420012574B7D017F00806B901CCC12574290EB
:1074520015A612574B901CCC12574290000812529C
:107462009E75F007A4FFAEF090000A125774E92F40
:10747200F9EA3EFA900004125774C003C002C00138
:107482009015AD1257429000041257A4901CCC12D2
:107492005742C003C002C0019015AD12574290007E
:1074A2000B1257A47B017A1579A3901CCC12574B6F
:0A74B2007D017F00126D6002755D20
:1074BC00C2FDC2FE7BFF7A1179237D2D12E3CF90A2
:1074CC001435E0FFC39405401EEFD3941F50189061
:1074DC00000EE0FF901433E0FCA3E0FD900492E07A
:1074EC00FAA3E0FB12D3AF901435E0FF6405600EF5
:1074FC00EF641E6009EF641B6004EFB41C0612FB02
:10750C008E12D77B12FC5AE51E2404F8EFF630E7F6
:01751C00F37B
:10751D00E4F55BF55C7B937D027F0312BDD5E51E23
:10752D002405F8E4F608F6E51E2405F8E6FE08E65F
:10753D00FFE4FCFD7B407A9CF9F8D312562840D02D
:0E754D00E51E2405F80806E61870DC0680D955
:02755B00B2FE7E
:07755D00E51E2409F51E22C2
:10B00300901CCC12574290000612529E703EF5617E
:10B013007562087563FF75640675657775662D7BC4
:10B023007AFA7D10FCFFFE12A59B7BFF7AD8798507
:10B0330012FD0AEF75F006A4FFC3747A9FFD7BFF30
:0CB043007AD8798575585E7F0202E0D053
:10B04F009018567401F0901CCC12574290000612C3
:10B05F00529EFF7403C39F50047F038000901856C5
:10B06F00E0FED39F400302B26D90000912529EFD85
:10B07F00EE2DFFE433FE7C007D0712533290000A61
:10B08F00125774E92FF9EA3EFA90FFF912529E64B3
:10B09F00036025901CCC12574290000912529EFF5C
:10B0AF00901856E02F14FF90000812529EB5070813
:10B0BF00901857747EF08006901857742DF07BFF10
:10B0CF007A0679F190185812574B901CCC125742B0
:10B0DF0090000612529EFFB401087BFF7A0979CDCA
:10B0EF008061901856E0FE24FE6023146025240230
:10B0FF007057901CCC12574290000912529E7BFF42
:10B10F0070067A0879D980047A0779E58035EF647B
:10B11F00027036901CCC12574290000912529EFDBD
:10B12F00EE2DFFE433FE90000612529E7C00B50711
:10B13F000CECB506087BFF7A09795380067BFF7A02
:10B14F0008795F90185812574B901856E075F00811
:10B15F00A4FDACF075610075620890185812574243
:10B16F008B638A648965901857E0F5667B7A7A005D
:10B17F00E4FFFE12A59B901CCC12574290000912BF
:10B18F00529EFF901856E02FFFE433FE7C007D07A0
:10B19F0012533290000A125774E92FF9EA3EFA90CF
:10B1AF00FFFA12577412FD0AEF75F006A4FFC3746D
:10B1BF007A9F90185BF0901CCC12574290000912A6
:10B1CF00529EFF901856E0FE2F14FD90000712526A
:10B1DF009E6D7042901CCC125742EFFDEE2DFFE496
:10B1EF0033FE7C007D0712533290000A125774E928
:10B1FF002FF9EA3EFA90FFF912529EB402189018F6
:10B20F0056E0FF90185BE024F4FD7BFF7AD879902D
:10B21F0075585E12E0D0901CCC1257429000091264
:10B22F00529EFF901856E02FFFE433FE7C007D07FF
:10B23F0012533290000A125774E92FF9EA3EFA902E
:10B24F00FFFA125774901856E0FF90185BE0FD75E7
:0EB25F00585E12E0D0901856E004F002B05590
:01B26D0022BE
:065948008B478A488949E3
:10594E00E4901877F090069CE0700C7BFF7AD87983
:07595E009212FC9D0263366A
:10596500AB47AA48A94990000812529EF54A7B0107
:105975007A01799E7562007563037F107E0212E7D6
:10598500C7E4901878F0901878E0FFC3940450307D
:10599500EF75F028A4FFAEF0249EF974013EFA7B62
:1059A50001C001742F2FF9740F3EA801FC7D01D0B1
:1059B500017E007F2812525F901878E004F080C6BF
:1059C500E4901878F0901878E0FFC394025030EF17
:1059D50075F024A4FFAEF024CEF974023EFA7B01E3
:1059E500C00174CC2FF974043EA801FC7D01D001DF
:1059F5007E007F2412525F901878E004F080C690F4
:105A05000418E493FF3395E0FE9004A075F012EFBF
:105A1500125714EE75F012A42583F58312574290A0
:105A25000007E41253109004A075F012EF125714FA
:105A3500EE75F012A42583F5831257429000087481
:105A450003125310E4901875F0A3F0901875E0FE5A
:105A5500A3E0FFC39410EE9402504D749E2FF5827F
:105A650074013EF583E0FF900418E493FD3395E05F
:105A7500FC9004A075F012ED125714EC75F012A409
:105A85002583F583125742901876E02409FD901876
:105A950075E034008D82F583EF125310901875E48C
:105AA50075F0011253CF80A3755B02755C127B986C
:105AB5007D027F0312BDD590150BE070FA7B017A4C
:105AC50001799E7562007563017F107E0212E7C73A
:105AD50090019FE090041CF09001A1E0540F9018F4
:105AE50078F09001A0E075F016900273125714E05B
:105AF500FFA3E090048CCFF0A3EFF09001A0E07538
:105B0500F016900275125714E0FFA3E090048ECFB3
:105B1500F0A3EFF09001A0E075F016900277125710
:105B250014E0FFA3E0900490CFF0A3EFF09001A262
:105B3500E09004C7F09006BA7401F0FB7A0179622F
:105B4500E5478548838549826401700A74626582E8
:105B55007004740165837006740A254AF54AE54A9E
:105B65001257FD5B93005B93016066025B930361D3
:105B75008F04619B0561A306622807628008628D18
:105B85000962CE0A62E00B62F20C00006336E54A58
:105B9500B401089003AF7401F08005E49003AFF001
:105BA5007BFF7A0B796B7D2D12E3CFE490047EF0B9
:105BB500A3F0A3F0A3F09004651256E300000000E3
:105BC5009004501256E30000000090046B1256E357
:105BD500000000009004561256E3000000009004F7
:105BE5006F1256E30000000090045A1256E30000BD
:105BF5000000E4900473F0A3F090045EF0A3F0902D
:105C05000482F0A3F09004601256E30000000090B7
:105C150004751256E300000000E4900479F0900446
:105C250064F09004841256E300000000900488128A
:105C350056E30000000090157DE054E0FFC41354C6
:105C45000724FC601614601F14602824047030902B
:105C550004091256E33F000000802E9004091256F5
:105C6500E34000000080229004091256E340A000A2
:105C75000080169004091256E341200000800A9026
:105C850004091256E33F80000090157DE0540EC3D1
:105C95001324FE600F240270179006ABE4F0A37482
:105CA50032F080159006AB7403F0A37420F08009E0
:105CB5009006ABE4F0A374FAF0E4901875F0A3F045
:105CC500901875E0FEA3E0FFC39484EE940050267F
:105CD500EF7802C333CE33CED8F924D7F5827415C5
:105CE5003EF5831256E3FFFFFFFF901875E475F04C
:105CF500011253CF80CA7B017A01799E75620075C6
:105D050063027F107E0212E7C790041CE075F01C49
:105D15009001AE12571412569F90042C1256D7902C
:105D2500041CE075F01C9001B212571412569F9096
:105D350004301256D790041CE075F01C9001B8127F
:105D45005714E0FFA3E090047ACFF0A3EFF090049E
:105D55001CE075F010A42422F9740535F0FA7B01D6
:105D6500C003C001E075F01CA4249EF9740135F050
:105D75008B4EF54F8950755100755210D001D003E7
:105D850012F48290041CE075F0109005311257143E
:105D9500E4F0E54A640370577B017A01799EF56268
:105DA5007563047F107E0212E7C790041CE075F04E
:105DB5000C90019E12571412569F9004411256D70B
:105DC50090041CE075F00C9001A212571412569F16
:105DD5009004451256D790041CE075F00C9001A86C
:105DE500125714E0FFA3E090047CCFF0A3EFF07B03
:105DF500017A01799E90041CE01313543FFF7E0045
:105E0500901432E024FCFD901431E034FFCD2FF5E1
:105E150063EE3DF5627F107E0212E7C774FFFFFE59
:105E2500FDFC90042C1256BBC3125628600F90043B
:105E35002C12569FEC4D4E4F6003025F317BFF7A6B
:105E4500FC797C90144412574BE54A901435B40301
:105E5500057409F08003740AF0E4901875F0A3F056
:105E6500901875E0FAA3E0FBAE027802C333CE3397
:105E7500CED8F9FF90041CE0540375F08490019E80
:105E8500125714E5822FF582E5833EF5831256E31A
:105E950000000000EBAE027803C333CE33CED8F951
:105EA500FBAA062438F58274003AF5831256E300FE
:105EB50000000074342BF58274003AF5831256E322
:105EC50000000000901875E475F0011253CF90188A
:105ED50075E07004A3E06420708690041CE0540310
:105EE50075F08490021E1257141256E3FFFFFFFF50
:105EF5009004211256E3FFFFFFFF7B017A01799E93
:105F050090041CE01313543FFF7E00901432E024EC
:105F1500FCFD901431E034FFCD2FF565EE3DF564C1
:105F25007D107C027F0212EA130262C69003AFE085
:105F3500B4015EE4901875F0A3F0901875E0FEA327
:105F4500E0FFC39420EE9400503AEF7803C333CEBC
:105F550033CED8F9FBAA062434F58274003AF583CA
:105F65001256E30000000074382BF58274003AF5F0
:105F7500831256E300000000901875E475F00112D5
:105F850053CF80B69004211256E3FFFFFFFF026056
:105F950046E4901875F0A3F0901875E0FAA3E0FBBD
:105FA500C39420EA9400400302602EEBAE0278030E
:105FB500C333CE33CED8F92438F58274003EF58349
:105FC5001256E300000000EBAE027802C333CE3375
:105FD500CED8F9FF90041CE0540375F08490019E1F
:105FE500125714E5822FF582E5833EF58312569FFD
:105FF500C004C005C006C007901875E0FEA3E07890
:1060050003C333CE33CED8F92434F58274003EF57C
:1060150083D007D006D005D0041256D7901875E462
:1060250075F0011253CF025F9D90041CE054037577
:10603500F08490021E12571412569F900421125696
:10604500D77BFF7AF7793790144412574BE54A907E
:106055001435B403067419F00262C6741FF00262A7
:10606500C67BFF7A0B796B7D2D12E3CF9003AF745E
:1060750001F0E490047EF0A3F0A3F0A3F090046592
:106085001256E3000000009004501256E300000091
:106095000090046B1256E30000000090045612565F
:1060A500E30000000090046F1256E300000000902A
:1060B500045A1256E300000000E4900473F0A3F0C4
:1060C50090045EF0A3F0A31256E3000000009004D4
:1060D500751256E300000000E4900479F090046422
:1060E500F0901875F0A3F0901875E0FEA3E0FFC3DB
:1060F5009484EE94005026EF7802C333CE33CED885
:10610500F924D7F58274153EF5831256E3FFFFFF98
:10611500FF901875E475F0011253CF80CA7B017AA0
:1061250001799E7562007563047F107E0212E7C7D0
:1061350090041CE075F00C90019E12571412569FA6
:106145009004411256D790041CE075F00C9001A202
:1061550012571412569F9004451256D790041CE00E
:1061650075F00C9001A8125714E0FFA3E090047C91
:10617500CFF0A3EFF07BFF7ACD79DA901444125774
:106185004B9014357420F00262C6E4FF12EBA79021
:0E619500143574068005901435740EF0805594
:1061A3009018747402F0901874E0FFC39407501EA3
:1061B3009004C7E0FEA807088002C313D8FC54016B
:1061C300901873F07008901874E004F080D8901859
:1061D30073E06040A3E0FFB40608901435740EF03A
:1061E3008013EFB405089014357414F08007EF247E
:1061F3000E901435F09018777401F07BFF7AFD79D7
:106203009090144712574B7ADF79F890144D125738
:106213004B0263367BFF7AD8799812FC9D90143534
:0562230074E30263308A
:106228009014357416F09018777401F07BFF7AFD9E
:10623800799090144712574B7ADF79F890144D12E1
:10624800574BE4FF12EBA77561007562087563FF91
:1062580075640A7565C175662D7B7A7A00E4FDFC64
:10626800FFFE12A59B7BFF7AD879A275582D7D2455
:10627800E4FF12E0D0026336E4FF12EBA790143576
:10628800740DF08039E4FF12EBA7756100756208A0
:106298007563FF75640A7565C175662D7B7A7A002A
:1062A800E4FDFCFFFE12A59B7BFF7AD879AB7558FD
:1062B8002D7D2AE4FF12E0D0901435740FF0901869
:1062C800777401F08068E4FF12EBA790143574220C
:1062D800F090187874028050E4FF12EBA790143500
:1062E8007421F09018787402803EE4FF12EBA775D1
:1062F80061007562087563FF75640A7565C1756626
:106308002D7B7A7A00E4FDFCFFFE12A59B7BFF7AC9
:10631800D879AB75582D7D2AE4FF12E0D09014355A
:0E6328007423F09018787402F0E4901877F067
:10633600901877E06042E49004CAF0A3F0900192CE
:10634600F0A3F09006BA04F090001C04F0A3740FBA
:10635600F0754E01754F047550927B017A147933AE
:10636600129F5F90000EEFF0700E7BFF7AD879B225
:1063760012FC9DE4901435F0901435E0FF70030292
:02638600651E92
:10638800900418E493FD3395E0FC9004A075F01296
:10639800ED125714EC75F012A42583F583125742B9
:1063A800900007EF125310901878E0FF9004A07542
:1063B800F012ED125714EC75F012A42583F5831230
:1063C8005742900008EF1253109004C7E0FF900462
:1063D800A075F012ED125714EC75F012A42583F590
:1063E80083125742900009EF125310E4F54AE54A28
:1063F80075F028A42447F582E4340FF583E024FBE4
:10640800603224FB705C900418E493FF3395E0FE3F
:106418009004A075F012EF125714EE75F012A4252F
:1064280083F583125742740A254AF582E433F583CB
:106438007403805A900418E493FF3395E0FE9004A7
:10644800A075F012EF125714EE75F012A42583F51B
:1064580083125742740A254AF582E433F58374029D
:10646800802C900418E493FF3395E0FE9004A07507
:10647800F012EF125714EE75F012A42583F583126B
:106488005742740A254AF582E433F583740412539B
:1064980010054AE54A640460030263F69001A0E02F
:1064A80075F016900273125714E0A3E0540FFF9092
:1064B8000418E493FD3395E0FC9004A075F012ED08
:1064C800125714EC75F012A42583F58312574290E5
:1064D800000EEF1253109001A0E075F016900275AF
:1064E800125714E0FEA3E0FF9004A075F012ED121D
:1064F8005714EC75F012A42583F5831257429000C7
:106508000FEE8FF01254B5755B00755C0A7B917DB8
:06651800027F0312BDD555
:10651E007BFF7AC3797D90144A12574B7B007A0029
:02652E007900F2
:016530002248
:10FA05008B478A488949E4901435F0FFFE12F6EEDB
:10FA1500901432E024FBFD901431E034FFFC7B01AF
:10FA25007F057E0012E8F6126531E4FF12EBA77B35
:06FA3500017A0379B02202
:10FAD4008B478A488949E4901435F0901432E02425
:10FAE400FFFD901431E034FFFC7B01E4FFFE12E8DB
:10FAF400F6126531E4FF12EBA77B017A0379B02299
:10FCBE008B478A488949E4901435F07F01127CF015
:0CFCCE00E4FF12EBA77B017A0379B0225F
:06EE78008B4A8A4B894C15
:10EE7E007B017A1A79877562007563017F107E02B5
:10EE8E0012E7C7900008E0901A87F0900016E09005
:10EE9E001A88F09006B4E0901A89F0A3E054F0F0CE
:10EEAE00901593E024D8600D24147010901A8AE007
:10EEBE002402F08007901A8AE02404F07B017A1A6B
:10EECE0079877564007565017D107C027F027E0076
:09EEDE0012EA13AB4AAA4BA94C3D
:01EEE7002208
:10FA6F008B478A48894990000812529E24FE600BEA
:10FA7F000470109015937414F0800E9015937428E1
:10FA8F00F08006901593740AF012EE78AB47AA48EF
:03FA9F00A9492250
:06C8EA008B478A488949D2
:10C8F000E4901435F07B017A187973F56275630161
:10C900007F107E0212E7C7901873E0900008F09045
:10C910001875E09006B4F0901874E0900016F0E4FA
:10C92000901A85F0A3F0901A83F0A3F0901A83E098
:10C93000FEA3E0FFC3940CEE64809480400302CA1F
:10C9400051EFC4F8540FC868FFEEC454F048FE74A9
:10C95000782FF58274183EF583E0F4700302CA4420
:10C9600074782FF58274183EF583E0700302CA4490
:10C97000901A86E0C4F8540FC868FF901A85E0C486
:10C9800054F048FE74222FF974053EFA7B01C0036F
:10C99000C001901A84E0C4F8540FC868FF901A834D
:10C9A000E0C454F048FE74782FF974183E8B4EF5AD
:10C9B0004F8950755100755210D001D00312F48286
:10C9C000901A85E0FCA3E0FDC4F8540FC868FFECA2
:10C9D000C454F048FE74312FF58274053EF583E4AB
:10C9E000F090147075F007ED125714EC75F007A471
:10C9F0002583F5837402F07BFF7AEE7978901A85AF
:10CA0000E0FCA3E0FD90147475F007125714EC7568
:10CA1000F007A42583F58312574B74222FF9740570
:10CA20003EFA7B0190147175F007ED125714EC7506
:10CA3000F007A42583F58312574B901A85E475F00F
:10CA4000011253CF901A83E475F0011253CF02C93B
:10CA50002C901A85E0FEA3E0FF90147075F0071289
:10CA60005714EE75F007A42583F583E4F0FBFAF97B
:10CA700090147475F007EF125714EE75F007A425A3
:10CA800083F58312574B90147175F007EF1257140A
:10CA9000EE75F007A42583F58312574B0B7A0079C6
:01CAA0000194
:01CAA1002272
:06C72F008B478A4889498E
:10C73500E4901435F07B017A187973F5627563011D
:10C745007F107E0212E7C7901873E0900008F09002
:10C755001875E09006B4F0901874E0900016F0E4B7
:10C76500901A85F0A3F0901A83F0A3F0901A83E055
:10C77500FEA3E0FFC3940CEE64809480400302C8DE
:10C785009990193875F016EF125714EE75F016A436
:10C795002583F583E0F4700302C88C901A83A3E027
:10C7A50090193875F016125714EE75F016A42583F6
:10C7B500F583E0700302C88C901A86E0C4F8540F24
:10C7C500C868FF901A85E0C454F048FE74222FF91A
:10C7D50074053EFA7B01C003C001901A83E0FEA3F5
:10C7E500E0FF7C007D1612533274382FF974193E20
:10C7F5008B4EF54F8950755100755210D001D003FD
:10C8050012F482901A85E0FCA3E0FDC4F8540FC829
:10C8150068FFECC454F048FE74312FF58274053E70
:10C82500F583E4F090147075F007ED125714EC756C
:10C83500F007A42583F5837402F07BFF7AEE7978FF
:10C84500901A85E0FCA3E0FD90147475F00712576B
:10C8550014EC75F007A42583F58312574B74222F2A
:10C86500F974053EFA7B0190147175F007ED1257C6
:10C8750014EC75F007A42583F58312574B901A85A0
:10C88500E475F0011253CF901A83E475F001125349
:10C89500CF02C771901A85E0FEA3E0FF9014707572
:10C8A500F007125714EE75F007A42583F583E4F01D
:10C8B500FBFAF990147475F007EF125714EE75F042
:10C8C50007A42583F58312574B90147175F007EF74
:10C8D500125714EE75F007A42583F58312574B0BF9
:04C8E5007A0679ADA9
:01C8E900222C
:06C561008B478A4889495E
:10C56700E4901435F07B017A187973F562756301ED
:10C577007F107E0212E7C7901873E0900008F090D2
:10C587001875E09006B4F0901874E0900016F07BF0
:10C59700017A1879737562007563027F107E021243
:10C5A700E7C7E4901A85F0A3F0901A83F0A3F09000
:10C5B7001A83E0FEA3E0FFC39410EE6480948040EA
:10C5C7000302C6DE90187375F01CEF125714EE7550
:10C5D700F01CA42583F583E0F4700302C6D1901AFA
:10C5E70083A3E090187375F01C125714EE75F01CB6
:10C5F700A42583F583E0700302C6D1901A86E0C4B0
:10C60700F8540FC868FF901A85E0C454F048FE74C8
:10C61700222FF974053EFA7B01C003C001901A83EB
:10C62700E0FEA3E0FF7C007D1C12533274732FF9E8
:10C6370074183E8B4EF54F8950755100755210D0C6
:10C6470001D00312F482901A85E0FCA3E0FDC4F840
:10C65700540FC868FFECC454F048FE74312FF582BC
:10C6670074053EF583E4F090147075F007ED1257EA
:10C6770014EC75F007A42583F5837402F07BFF7A29
:10C68700EE7978901A85E0FCA3E0FD90147475F0BC
:10C6970007125714EC75F007A42583F58312574B3F
:10C6A70074222FF974053EFA7B0190147175F00717
:10C6B700ED125714EC75F007A42583F58312574B39
:10C6C700901A85E475F0011253CF901A83E475F040
:10C6D700011253CF02C5B6901A85E0FEA3E0FF9082
:10C6E700147075F007125714EE75F007A42583F53B
:10C6F70083E4F0FBFAF990147475F007EF125714FE
:10C70700EE75F007A42583F58312574B90147175C6
:10C71700F007EF125714EE75F007A42583F583127F
:07C72700574B0B7A00790F5C
:01C72E0022E8
:06EEE8008B478A488949AE
:10EEEE007B017A1879737562007563017F107E025B
:10EEFE0012E7C7901873E0900008F0901875E09034
:10EF0E0006B4F0901874E0900016F0901876E05465
:10EF1E000F24FC60112402701A9015937414F09053
:10EF2E0006A6740180179015937428F09006A674A7
:10EF3E0002800A901593740AF0E49006A6F09006EB
:08EF4E00A5F07B017A06799E13
:01EF56002298
:10FAA2008B478A48894990000812529E90157D70B2
:10FAB20006E04401F08004E054FEF012FB347B01C6
:10FAC2007A15790D7D807C0012EF57AB47AA48A9C1
:02FAD2004922C7
:10FC36008B478A48894990157DE030E006E49001BB
:10FC46007B800590017B7401F090017AF07B017A4C
:04FC5600017973229B
:10FB62008B478A488949900414E025E0FF90157D6F
:10FB7200E054F14FF012FB347B017A15790D7D8050
:0CFB82007C0012EF57AB47AA48A94922AB
:10FBBA008B478A48894990157DE0540EC3139004F7
:10FBCA0015F0900414F0E0D394024008A37401F0F5
:0BFBDA00900414F07B017A04790D22E6
:10FB04008B478A48894990159BE02402C43354E00A
:10FB1400FF90157DE0541F4FF012FB347B017A15E2
:10FB2400790D7D807C0012EF57AB47AA48A9492282
:10F611008B478A48894990157DE054E0C41354070B
:10F6210024FC60101460141460182404701BE4900E
:10F63100159C801A90159C7402801390159C74037C
:10F64100800C90159C7404800590159C7401F090B9
:0AF65100159BF07B017A15799422D5
:100003008B4D8A4E894FE4901435F0FBFAF9901426
:0E0013004A12574B12CC487B017A1579B52260
:06D980008B4A8A4B894C22
:10D98600E4901435F07B017A01799EF562F5637FA8
:10D99600107E0212E7C7E4901A88F0A3F0901A8668
:10D9A600F0A3F0901A86E0FEA3E0FFC39415EE64A0
:10D9B600809480506E90019E75F019EF125714EE08
:10D9C60075F019A42583F583E0FEA3E0F47002EE5A
:10D9D600F46044901A86E0FEA3E09001A075F01969
:10D9E600125714EE75F019A42583F583E0FEA3E023
:10D9F600F47002EEF46020AB4AAA4BA94C900008E2
:10DA060012529EFF901A88E475F0011253E5FCE568
:10DA1600F06F7001EC600C901A86E475F0011253F9
:10DA2600CF80809004B812574212FD0A901A88EEF1
:10DA3600F0A3EFF09004B8125742EF24FEFFEE3445
:10DA4600FFFEE92FF9EA3EFA7564FF7565D875663B
:10DA5600BB901A87E02401F568901A86E03400F539
:10DA6600671288587BFF7A00790390144A12574B45
:06DA76007B017A0479B87F
:01DA7C002287
:068306008B478A488949FB
:10830C00E4901435F07B017A14793690146312578B
:10831C004B7A0479B890146612574B7A0379CA9049
:10832C00146D12574BE490146CF090146BF0901485
:10833C006AF0901469F0901873F0A3F0901873E041
:10834C00FEA3E0FF9003CA75F007125714EE75F008
:10835C0007A42583F5837403F07C007D151253323A
:10836C0074222FF974053EFA7B01901873E0FEA37A
:10837C00E0FF9003CB75F007125714EE75F007A4CD
:10838C002583F58312574B1B7A0079009003CE7529
:10839C00F007EF125714EE75F007A42583F583123E
:1083AC00574B901873E475F0011253CF901873E08B
:1083BC007004A3E064087084E4900402F0FBFAF902
:1083CC00A312574B90040612574B9004B812574205
:1083DC0012FD0A901873EEF0A3EFF09004B8125748
:1083EC0042EF24FEFFEE34FFFEE92FF9EA3EFA12CB
:1083FC00E53CEF24FFFFEE34FF901873F0A3EFF091
:10840C007B017A1579D7901873E0FEA3E0FF9014E6
:10841C0032E02FFF901431E03ECF24E7F563EF34C8
:10842C00FFF5627F107E0212E7C7E490187EF0A37E
:10843C00F090187EE0FEA3E0FFC39484EE9400500D
:10844C002EEF7802C333CE33CED8F924D7F582740D
:10845C00153EF58312569F74FFFBFAF9F8C31256BA
:10846C003E600C90187EE475F0011253CF80C27BF5
:10847C00017A01799EE4F562F5637F107E0212E7C2
:10848C00C7901873E0FEA3E0FF9001B475F01912C9
:10849C005714EE75F019A42583F583E0901875F048
:1084AC00E0D3940C4002E4F09001B675F019EF1291
:1084BC005714EE75F019A42583F583E0901876F027
:1084CC00E0D394104002E4F0901873E0FEA3E09027
:1084DC0001B575F019125714EE75F019A42583F532
:1084EC0083E0901877F0E0D3940C4002E4F09018FD
:1084FC0073E0FEA3E0FF90019E75F019125714EE85
:10850C0075F019A42583F583E0FDA3E0901878CDD0
:10851C00F0A3EDF09001A275F019EF125714EE755F
:10852C00F019A42583F58312569F901873E0FAA3D3
:10853C00E09001A675F019125714EA75F019A425EC
:10854C0083F583E0F557A3E0F5587559017A057961
:10855C0076755A01755B05755C7612B26E90187360
:10856C00E0FAA3E0FB9001A875F019125714EA7514
:10857C00F019A42583F58312569F9001AC75F01960
:10858C00EB125714EA75F019A42583F583E0F5571F
:10859C00A3E0F5587559017A05798B755A01755B0D
:1085AC0005755C8B12B26E901873E0FEA3E0FF9021
:1085BC0001B275F019125714EE75F019A42583F554
:1085CC0083E0FCA3E0FD9001B075F019EF12571495
:1085DC00EE75F019A42583F583E0FEA3E0C39DFF9F
:1085EC00EE9CCF2401CF3400FE901873E0FCA3E086
:1085FC00FD90019E75F019125714EC75F019A42515
:10860C0083F583E0FAA3E0FB9001A075F019ED125D
:10861C005714EC75F019A42583F583E0FCA3E0C393
:10862C009BFDEC9ACD2401CD3400CD2FFFED3EFE09
:10863C00E4FCFD90187A1256D77564FF7565D875F1
:10864C0066C0E47B02FAF9F890187A12569F12551C
:10865C00888E678F68901431E0C313F569A3E0131B
:10866C00F56AE47F64FEFDFC90187A1256BB125436
:10867C00FDC006C007901431E0FEA3E0FBAA06E49F
:10868C00F9F8D007D0061255888E6B8F6C7B017A67
:10869C00057961128858901873E0FEA3E09001AE42
:1086AC0075F019125714EE75F019A42583F583E0B3
:1086BC00540F24FE6013146010146018800075644D
:1086CC00FF7565D87566D280147564FF7565D875AD
:1086DC0066E580097564FF7565D87566F890187E37
:1086EC00E0F567A3E0F5687B017A0579A01288585C
:1086FC007B017A01799E7562007563017F107E02A1
:10870C0012E7C7901875E075F010A424A3F9740152
:10871C0035F0754E01F54F89507551007552107B2F
:10872C00017A05792212F482E4900531F0901877E1
:10873C00E075F016A42463F9740235F0754E01F55A
:10874C004F89507551007552107B017A057937129B
:10875C00F482E4900546F07B017A01799EF562750E
:10876C0063027F107E0212E7C7901876E075F01C4A
:10877C00A4249EF9740135F0754E01F54F8950759E
:10878C0051007552107B017A05794C12F482E490F9
:10879C00055BF07B017A01799E901878E0F562A375
:1087AC00E0F5637F107E0212E7C79001E5E0FE332F
:1087BC0095E0901873F0A3CEF09001E5E0FF7D46B4
:1087CC0012F1009018801256D77564FF7565D97533
:1087DC00660B90188012569F8F6A8E698D688C6715
:0F87EC007B017A0579B51288587B017A1479637D
:0187FB00225B
:068C6B008B228A238924FC
:108C7100858425E49017E9F0A3F0A3F0A3F0F5268D
:108C8100901435F0F584C2EDD2EC7BFF7A04791AA9
:108C910090146312574B7B017A14790D901466126C
:108CA100574B7A0379CA90146D12574BE490146CA8
:108CB100F090146BF090146AF0901469F09017E73B
:108CC100F0A3F09017E7E0FEA3E0FF9003CA75F070
:108CD10007125714EE75F007A42583F5837403F08A
:108CE1007C007D1512533274222FF974053EFA7BF4
:108CF100019017E7E0FEA3E0FF9003CB75F00712A8
:108D01005714EE75F007A42583F58312574B1B7A90
:108D11000079009003CE75F007EF125714EE75F04D
:108D210007A42583F58312574B9017E7E475F001EB
:108D31001253CF9017E7E07004A3E064047084E459
:108D41009003E6F0FBFAF9A312574B9003EA12578E
:108D51004B8525840B7A01799E7562007563017FCD
:108D6100107E0212E7C79001A2E09004C7F07B01D8
:108D71007A01799EE4F562F5637F107E0212E7C7FE
:108D8100E49017E7F0A3F09017E7E0FEA3E0FFC33C
:108D91009415EE94004003028E6390019E75F019C4
:108DA100EF125714EE75F019A42583F583E0FEA3A5
:108DB100E0F47002EEF47003028E569017EBE47546
:108DC100F0011253CF9017E7E0FEA3E0FF9001B24C
:108DD10075F019125714EE75F019A42583F583E087
:108DE100FCA3E0FD9001B075F019EF125714EE7578
:108DF100F019A42583F583E0FEA3E0C39DFFEE9C5B
:108E0100CF2401CF3400FE9017E7E0FCA3E0FD90F2
:108E1100019E75F019125714EC75F019A42583F50C
:108E210083E0FAA3E0FB9001A075F019ED1257144D
:108E3100EC75F019A42583F583E0FCA3E0C39BFD49
:108E4100EC9ACD2401CD3400CD2FFFED3E9017E9F2
:108E51008FF01253CF9017E7E475F0011253CF0250
:108E61008D88E49017E7F0A3F09017E7E0FEA3E008
:108E7100FFC39407EE9400502874017E00A80708F0
:108E81008005C333CE33CED8F9FF9004C7E0FDEFA0
:108E91005D600205269017E7E475F0011253CF805B
:108EA100C8E526FD7C00901593E0FF7E0012533249
:108EB100AC06AD07E4124EE6C004C005C006C0070B
:108EC100901409E0FCA3E0FDE4124EE6A804A90514
:108ED100AA06AB07D007D006D005D004124DC69024
:108EE10017ED1256D79017ED1256BBC000C001C046
:108EF10002C003901593E0FCE4124EEBE4FBFA7917
:108F0100207841124DC6E4FBFA79207841124DC612
:108F1100D003D002D001D000124BCC9017ED1256E5
:108F2100D79017ED12569FE4FBFA79617845124C00
:108F3100BD9017ED1256D7901432E024E1FF901442
:108F410031E034FFFE9017E9E0FAA3E0FBC39FEAAA
:108F51009E400C9017ED1256E30000000080279010
:108F61001432E024E6FF901431E034FFCFC39BFDBF
:108F7100EF9AFCE4124EE69017ED1256BB124DC665
:108F81009017ED1256D77564FF7565D975661890FF
:108F910017ED12569F8F6A8E698D688C677B017AF7
:108FA1000579221288587564FF7565D975662C900C
