:108FFE00436F707972696768742028432920323074
:10900E0030342D3920547261636B2053797374653B
:10901E006D7320546563686E6F6C6F676965732C32
:10902E00204C4C43000200FF000000C0C1C1810172
:10903E0040C30103C00280C241C60106C00780C7FB
:10904E00410500C5C1C4810440CC010CC00D80CDCA
:10905E00410F00CFC1CE810E400A00CAC1CB810B99
:10906E0040C90109C00880C841D80118C01980D96B
:10907E00411B00DBC1DA811A401E00DEC1DF811FF9
:10908E0040DD011DC01C80DC411400D4C1D581150A
:10909E0040D70117C01680D641D20112C01380D31B
:1090AE00411100D1C1D0811040F00130C03180F1AA
:1090BE00413300F3C1F28132403600F6C1F78137F9
:1090CE0040F50135C03480F4413C00FCC1FD813DCA
:1090DE0040FF013FC03E80FE41FA013AC03B80FB9B
:1090EE00413900F9C1F88138402800E8C1E98129E9
:1090FE0040EB012BC02A80EA41EE012EC02F80EFFB
:10910E00412D00EDC1EC812C40E40124C02580E509
:10911E00412700E7C1E68126402200E2C1E3812318
:10912E0040E10121C02080E041A00160C06180A12A
:10913E00416300A3C1A28162406600A6C1A78167F8
:10914E0040A50165C06480A4416C00ACC1AD816DC9
:10915E0040AF016FC06E80AE41AA016AC06B80AB9A
:10916E00416900A9C1A88168407800B8C1B9817968
:10917E0040BB017BC07A80BA41BE017EC07F80BFFA
:10918E00417D00BDC1BC817C40B40174C07580B509
:10919E00417700B7C1B68176407200B2C1B3817318
:1091AE0040B10171C07080B041500090C1918151A9
:1091BE0040930153C052809241960156C0578097FA
:1091CE0041550095C1948154409C015CC05D809DC9
:1091DE00415F009FC19E815E405A009AC19B815B98
:1091EE0040990159C058809841880148C0498089EA
:1091FE00414B008BC18A814A404E008EC18F814FF8
:10920E00408D014DC04C808C41440084C185814508
:10921E0040870147C046808641820142C043808319
:09922E0041410081C180814040F2
:10AAAC0050001B000000000000000000000000002F
:10AABC00000000430C37000000410C3600410CBA7A
:10AACC000A41000500027900000275000050002FB9
:10AADC00000000000000000000000000000000006A
:10AAEC00017D004102BA00410CC10042000200008D
:10AAFC00410CBD0042027D000042005C000042029D
:10AB0C00CD00A0410CBC00410CC0004202D00000A2
:10AB1C00410001004100040041030000410BF00022
:10AB2C00410CBB00027E0000027700004202D30001
:10AB3C00004102CF004103010041000000410CC262
:10AB4C0000410018004102FF0044002BFFFFFFFFF3
:10AB5C0044003FFFFFFFFF420016FFFF420019FFBA
:05AB6C00FF410302049B
:1015AF00E4F52DF52CF52BF52A900CE6F0A3740637
:1015BF00F075840F75FFDE75FFAD12B68012B3A8FC
:1015CF00C2B6C2B5C2B412003E753E01753F097571
:1015DF00405A7B017A0C793412AB9112A884900C8B
:1015EF00BA7414F0E49002CFF012A47312528CE488
:1015FF00900000F0900000E0FFC3942A5018EF75A0
:10160F00F015A424D5F582E43402F583E4F09000BC
:10161F0000E004F080DEE4900000F012B5627F007D
:10162F007E9612BA2012BAD212B856E4900294F0F3
:10163F009002A77402F09002B0744EF07B017A030F
:10164F0079039002A31230787A09795C9002B6126E
:10165F0030787A07793D9002A01230787A0B79F1C1
:10166F009002B3123078E4900293F09002A604F047
:10167F0090029D744EF0E49002A8F0A3F0900295B2
:10168F00F0A3F09002B2F090029FF09002B1F090B0
:10169F00029EF01BFAF99002AD1230789002AA1256
:1016AF00307890029A1230789002971230780B7A35
:1016BF000279937F007EC27D017C0012946E7B01C4
:1016CF007A0279839000591230787A0279BB9000B0
:1016DF0056123078E490004CF0900055F090005482
:1016EF00F01BFAF990005112307890004E123078BA
:1016FF00900018E0600312BA99900018E07B017A0D
:10170F000279A660067F807E2580047F007EE17DC2
:10171F00007C0012946ED2FF20E813782A122FB8A3
:0E172F007B807A9679987800D3122ECB50EA00
:10173D00900CC5122FE40000AFC8E4FFFEFDFC9035
:10174D000CC5122F9CD3122EB54017900CC5122F1D
:10175D009074FFFBFAF9F8122D62900CC5122FD878
:02176D0080D822
:10176F00E49002D3F0A3F0F53E753F00754077FB90
:0F177F007A00797E12A743D2AF900018E0603550
:10178E00900CC9122FE4000057E4E4FFFEFDFC901C
:10179E000CC9122F9CD3122EB54017900CC9122FC4
:1017AE009074FFFBFAF9F8122D62900CC9122FD823
:0217BE0080D8D1
:1017C0001296721200A6900CC27401F0E49002709E
:1017D000F0A3F0A3F090027CF0900276F0A3F090DA
:1017E0000274F0A3F0A2DA33900273F090027EE06C
:1017F0002458FE90027DE0340090027AF0A3CEF0EF
:1018000090005CE0FCA3E0FD2406FEE43C9002783E
:10181000F0A3CEF0ED2405FEE43C900CE4F0A3CE62
:10182000F0E5D854037002806C7B017A00795E7514
:1018300058007559037F107E0212B07D900204E0BB
:10184000540F900008F0900204E054F0C4540F903C
:101850000009F0900008E06403702AE5D85403FF03
:10186000BF02089002707404F0802E900009E0908E
:101870000270B403097403F0A37401F0801B7401B7
:10188000F0A3F08014900009E0B403089002707493
:1018900002F08005E4900270F0E4FFFED390095B53
:1018A000E09F90095AE09E4013745E2FF582740009
:1018B0003EF583E4F00FBF00010E80E0900CABE03A
:1018C000F46009E06006900C3674E0F09002BAE033
:1018D0006020C3900020E094B890001FE0940B506B
:0118E00011F6
:1018E100129FDB12007E8F38E53830E7F6C2FF80A9
:0118F100FEF8
:0B18F200900270E064046003021A5DC5
:1018FD00F538F53990005CE0FAA3E0FB900CE4E0DC
:10190D00B50212A3E0B5030D753801900CE4E47532
:10191D00F001122C4F30DB14900272E0640470035E
:10192D000219EC7404F07538010219EC900272E0A2
:10193D00B404277402F090027EE02403FE90027D31
:10194D00E0340090027AF0A3CEF0A2DAE4339002F4
:10195D0073F0E490027CF075380190027AE0FEA3FA
:10196D00E0FF90027DE0FCA3E0FD6F7002EC6E7075
:10197D006EA2DA33FF900273E0FE6F703090027C3E
:10198D00E0C394025005E004F08047EE6010900231
:10199D0072E06402603C7402F0753801803490028C
:1019AD0072E06401602C7401F0F5388025900272AC
:1019BD00E0640360067403F0753801900273E07003
:1019CD00047F0180027F00900273EFF090027C741F
:1019DD0001F0ED2458FEE43C90027AF0A3CEF09095
:1019ED000271E06004A3E070179002727401F09030
:1019FD000271F0EB2405FEE43A900278F0A3CEF0EC
:101A0D00900278E0FEA3E0FF90005CE0B50619A31C
:101A1D00E0B50714900278E475F00A122C4F90028D
:101A2D0072E0B40103753901900C36E0B4E103E4C2
:101A3D00F539E539601A9002717405F090027EE077
:101A4D002403FE90027DE03400900276F0A3CEF0E8
:101A5D00900276E0FEA3E0FF90027DE0FCA3E0FDA6
:101A6D006F7002EC6E6003021AF7900271E024FDB4
:101A7D00605324FE601A1460522404706D9002713C
:101A8D007403F0ED2450FEE43C900276F0A3CEF00A
:101A9D00900271E0B405177406F090027EE02428E0
:101AAD00FE90027DE03400900276F0A3CEF090021D
:101ABD0070E024FD600B1460042403702DD2CC80E3
:101ACD0029D2CC80259002717404F0900271E0B49B
:101ADD0006037401F0900270E024FD600B146004A5
:101AED0024037006C2CC8002C2CC90029712306FD4
:051AFD00E94A4B602BDB
:101B020090029712306F8B388A39893A7B007A00BB
:101B12007900900297123078AB38AA39A93AE4FFDB
:0B1B22001249E2900CE2EEF0A3EFF09D
:101B2D00900CAAE020E003D38001C35003021BD820
:101B3D009002D4E094F09002D3E094005003021B85
:011B4D00D8BF
:101B4E00129FDB12007E8F38E53830E7F690027078
:0D1B5E00E06404706E900272E06401606645
:101B6B00900CCD122FE4000DBBA0E4FFFEFDFC900A
:101B7B000CCD122F9CD3122EB54017900CCD122FDB
:101B8B009074FFFBFAF9F8122D62900CCD122FD83E
:021B9B0080D8F0
:021B9D00D2CCA8
:101B9F00900CD1122FE400112A88E4FFFEFDFC9077
:101BAF000CD1122F9CD3122EB54017900CD1122F9F
:101BBF009074FFFBFAF9F8122D62900CD1122FD806
:021BCF0080D8BC
:071BD100C2FFE4F5F880FEFD
:101BD80020E803021C85C39002D4E094099002D344
:101BE800E094005003021C7E900C36E02420600A2A
:0A1BF80014606014606724E2707C42
:101C0200900CAAE030E175126FB490005CE0FEA384
:101C1200E0FF900CADE02FFF900CACE03E900CC3C7
:101C2200F0A3EFF090027DE0F538A3E0F539753EC0
:101C320000753F007540777B007A00797E12879BA2
:101C4200900005EFF07008C2B6900C36F0802D902F
:091C52000C3674E1F0D2B68023D7
:101C5B00900CAAE030E11C129FE3900CABE0F46017
:101C6B000BE06008900C3674E0F08005E4900C36C5
:101C7B00F0C2B5E49002D3F0A3F0900CBCE070037B
:101C8B00021DCBE4F0900300E0F46003021D5C90B6
:101C9B000270E064046003021D50900272E0B40411
:031CAB0036D2CC62
:101CAE00900CD5122FE40001B774E4FFFEFDFC90FA
:101CBE000CD5122F9CD3122EB54017900CD5122F87
:101CCE009074FFFBFAF9F8122D62900CD5122FD8F2
:021CDE0080D8AC
:0A1CE000C2CC900272E0640160665D
:101CEA00900CD9122FE4000DBBA0E4FFFEFDFC907E
:101CFA000CD9122F9CD3122EB54017900CD9122F43
:101D0A009074FFFBFAF9F8122D62900CD9122FD8B1
:021D1A0080D86F
:021D1C00D2CC27
:101D1E00900CDD122FE400112A88E4FFFEFDFC90EA
:101D2E000CDD122F9CD3122EB54017900CDD122F06
:101D3E009074FFFBFAF9F8122D62900CDD122FD879
:021D4E0080D83B
:101D5000C2B3C2B6C2B5C2B4C2FF80FE900300E0F7
:101D6000FF64F07022900C36EFF0E4F57EF57F9082
:101D7000000574FFF0D2B3D2B6D2B5D2B4C2A85324
:101D8000E7FD53E7BF8010EFB4F113900C36F0C2BB
:101D9000B3C2B6C2B5C2B4E4900300F0802DEF64C4
:101DA000F27028900C36EFF0D2B3D2B6D2B5D2B4DE
:101DB000900C35E024FFFD900C34E034FFFCE4FB94
:101DC000FFFE12B489E4F58443EF01900C36E0FF86
:101DD00064E06008EF64E160030218CC9002BAE0AE
:101DE0007003021F2BD3900020E094B890001FE0F6
:101DF000940B4007E49002BAF080069002BA740196
:101E0000F0C3E57A940AE579648094804006757998
:101E100000757A09900018E06007E49002B9F0803C
:101E200035900021E0FEA3E0FFEF24FBFFEE34EB52
:101E3000FEE434FFFDE434FFFCE47BE87A03F9F8C8
:101E4000122D7DE47BE57A24F9F812B8E59002B909
:101E5000EFF0E024CEF0900C36E064E1600302186D
:101E6000CC900302E060030218CCC3E576940AE547
:101E70007564809480400675750075760990001D24
:101E8000E0540FFD90001BE0540FC4F854F0C8E478
:101E9000C4540F482DFF90007375F033E57A12306B
:101EA00053E57975F033A42583F58375F003E57662
:101EB000123053E57575F003A42583F583EFF09098
:101EC000001BA3E0FF90007475F033E57A123053E5
:101ED000E57975F033A42583F58375F003E5761273
:101EE0003053E57575F003A42583F583EFF090007A
:101EF0001DA3E0FF90007575F033E57A123053E5CD
:101F00007975F033A42583F58375F003E5761230F7
:101F100053E57575F003A42583F583EFF00576E5A9
:101F20007670020575128A810218CC9002B2E0FF29
:0A1F30009002B1E06F70030221CEB1
:101F3A00EF75F0DCA4FF9002B612306FE92FF9EAD0
:101F4A0035F08B38F539893A9002B2E0FFB40204D1
:101F5A007F008003EF04FF9002B2EFF09002B9E035
:101F6A00FF90007275F033E57A123053E57975F017
:101F7A0033A42583F583EFF0AE79AF7A7C007D3305
:101F8A00122BB2745E2FF974003E753E01F53F893B
:101F9A0040AB38AA39A93A12411390006E75F03352
:101FAA00E57A123053E57975F033A42583F583E099
:101FBA0054E075F008A4FFAEF090006F75F033E5B9
:101FCA007A123053E57975F033A42583F583E0FD61
:101FDA00EEF52EEF4DF52FE52E30E20744F8F52EFB
:101FEA00852F2F90006E75F033E57A123053E5791C
:101FFA0075F033A42583F583E0541C75F040A4FFE3
:10200A00AEF090007075F033E57A123053E57975C9
:10201A00F033A42583F583E0FDEEF530EF4DF5317D
:10202A00E53030E20744F8F530853131AC30AD3176
:10203A00EC1227B3C004C005C006C007AC30AD31EE
:10204A00EC1227B3D003D002D001D00012258AC0E7
:10205A0004C005C006C007AC2EAD2FEC1227B3C0D2
:10206A0004C005C006C007AC2EAD2FEC1227B3D0B2
:10207A0003D002D001D00012258AD003D002D001A9
:10208A00D00012249912AE957B5C7A8F7982783FC0
:10209A0012258A8F378E368D358C347F747ED17DAA
:1020AA000D7C40AB37AA36A935A83412258A1227E7
:1020BA00EC8E328F33900C36E064E17066E533457E
:1020CA0032601C90005CE0FEA3E0FF900CADE02FB4
:1020DA00FF900CACE03E900CC3F0A3EFF08044906C
:1020EA000CC3E0FEA3E0FF90005CE06E7003A3E087
:1020FA006F7030900CACE0F47003A3E0F4602490AD
:10210A000CACE07002A3E0601A129FE3900CABE003
:10211A00F4600BE06008900C3674E0F08005E490FF
:10212A000C36F0900C36E064E060030218CC900C98
:10213A00E6E07002A3E0600D900CE674FFF5F01281
:10214A002C4F0218CC900CC0E0D39405500302180F
:10215A00CC9002D1E0942C9002D0E094014003028A
:10216A0018CC900CABE0FFC3E5339FE532940050E6
:10217A00030218CC900C3674E1F0126FB490005C34
:10218A00E0FEA3E0FF900CADE02FFF900CACE03E28
:10219A00900CC3F0A3EFF0753E00753F00754077D1
:1021AA007B007A00797E12879B900005EFF0700918
:1021BA00C2B6900C36F00218CC900C3674E1F0D20C
:0121CA00B65E
:1021CB000218CC900CC1E0FD7017900002E0FEA34A
:1021DB00E0FF90027DE06E7003A3E06F60030218D6
:1021EB00CC900CBAE0FF74A08FF08475F00AA4FFBA
:1021FB0090027EE02401FB90027DE03400CB2FFEA9
:10220B00EB35F0900002F0A3CEF0ED700E900CC009
:10221B00F090000274FFF5F0122C4F900C36E0FF9B
:10222B0064E16003022477900302E0FE7003022254
:10223B00D2EF64E160030222D2900CC1E070030282
:10224B002477900270E0FF6054900C36E064E170EC
:01225B004C36
:10225C00EFB40407900272E0B40408900270E064DA
:10226C00046039900CBAE0900CE1B428057406F0C7
:10227C0080037404F0900CE1E0B5062090027174B8
:10228C0002F0900274E0FEA3E0FF90027EE02FFFCC
:0C229C0090027DE03E900276F0A3EFF08F
:1022A800900302E014F06003022477F575F576F5E3
:1022B80079F57A90095BE024FFFE90095AE034FF33
:1022C800900006F0A3CEF0022477900C36E0FF646D
:1022D800E06008EF64E16003022477C3E576940ABE
:1022E800E575648094804003022474E57645757032
:1022F8007A900C95E0540FFD900C93E0540FC4F8BD
:1023080054F0C8E4C4540F482DFF90007375F0339F
:10231800E57A123053E57975F033A42583F5837592
:10232800F003E576123053E57575F003A42583F5BF
:1023380083EFF0900C93E0A3E0FF90007475F03306
:10234800E57A123053E57975F033A42583F5837562
:10235800F003E576123053E57575F003A42583F58F
:1023680083EFF0900C95E0A302243E90007075F086
:1023780033E57A123053E57975F033A42583F58374
:1023880075F003E576123053E57575F003A42583DF
:10239800F583E0FF90007375F033E57A123053E56A
:1023A8007975F033A42583F58375F003E57612304B
:1023B80053E57575F003A42583F583EFF09000715C
:1023C80075F033E57A123053E57975F033A4258337
:1023D800F58375F003E576123053E57575F003A4BF
:1023E8002583F583E0FF90007475F033E57A1230A9
:1023F80053E57975F033A42583F58375F003E57605
:10240800123053E57575F003A42583F583EFF0903A
:10241800007275F033E57A123053E57975F033A41C
:102428002583F58375F003E576123053E57575F06D
:1024380003A42583F583E0FF90007575F033E57AF2
:10244800123053E57975F033A42583F58375F003CD
:10245800E576123053E57575F003A42583F583EF0F
:10246800F00576E576700205750222E312AF3BE4CB
:10247800900CC1F0900301F0900CC0E06007B2B579
:0A248800E4F00218CCC2B50218CC33
:10AF3B00C3E57A9409E57964809480500302AFD518
:10AF4B0090095AE0FCA3E0FD7B017A00795E857ED7
:10AF5B005D857F5E7F027E0012B1A2E57824FFFF44
:10AF6B00E57734FFFEC3E57F9FE57E9E402AAD78F3
:10AF7B00AC777F017E0012B32D900005E0FFAB781C
:10AF8B00AA77AD7FAC7E12A5E5E4900C36F0900C61
:10AF9B00C0F0C2B6C2B58008057FE57F7002057EA2
:10AFAB00E4FFFED390095BE09F90095AE09E4013AB
:10AFBB00745E2FF58274003EF583E4F00FBF000141
:10AFCB000E80E0E4F579F57A8008057AE57A70026F
:07AFDB000579E4F575F57638
:01AFE200224C
:089FDB00C2B3C2B6C2B5C2B4A4
:109FE300C2B6C2B5900C36E064E17027900302E07C
:109FF30070119002CFE0600BAD78AC777F017E00EB
:10A0030012B32D900005E0FFAB78AA77AD7FAC7E4D
:0BA0130012A5E5900271E0640370707C
:10A01E00900CE8122FE400015F90E4FFFEFDFC902F
:10A02E000CE8122F9CD3122EB54017900CE8122F6D
:10A03E009074FFFBFAF9F8122D62900CE8122FD8EB
:02A04E0080D8B8
:03A05000E4F5C86C
:10A05300900CEC122FE400020F58E4FFFEFDFC907D
:10A063000CEC122F9CD3122EB54017900CEC122F30
:10A073009074FFFBFAF9F8122D62900CEC122FD8B2
:02A0830080D883
:10A085009002717401F0A304F0900270E0FFB40433
:10A0950008900272E064046013EF6404700302A187
:0CA0A50060900271E06404600302A1609E
:10A0B100900CF0122FE400015F90E4FFFEFDFC9094
:10A0C1000CF0122F9CD3122EB54017900CF0122FCA
:10A0D1009074FFFBFAF9F8122D62900CF0122FD850
:02A0E10080D825
:10A0E300900270E024FD603F1460042403706ED27C
:01A0F300CCA0
:10A0F400900CF4122FE40001B774E4FFFEFDFC9011
:10A104000CF4122F9CD3122EB54017900CF4122F7E
:10A114009074FFFBFAF9F8122D62900CF4122FD808
:02A1240080D8E1
:06A12600C2CC8036D2CC51
:10A12C00900CF8122FE40001B774E4FFFEFDFC90D4
:10A13C000CF8122F9CD3122EB54017900CF8122F3E
:10A14C009074FFFBFAF9F8122D62900CF8122FD8CC
:02A15C0080D8A9
:0CA15E00C2CC9002717401F0E4F5C8223C
:106FB40090027DE0F53DA3E0F53EE4F579F57AF540
:106FC40075F576900CC0F0A3F090095AE0FEA3E0AA
:106FD400FF7B017A00795E75580075590112B07D06
:106FE400900061E0540F900BF0F0900062E0900C80
:106FF400BBF0900060E075F016900133123053E05E
:10700400A3E0540F9002D2F0900060E075F0169067
:107014000135123053E0FFA3E09002CBCFF0A3EF91
:10702400F0900BF0E024FC601424027027900CBA5A
:107034007414F0900274E4F0A374608026900CBA87
:107044007428F0900274E4F0A37462F09003027464
:1070540006F08016900CBA740AF09002747401F071
:10706400A37458F09003027404F0900CBBE09002F7
:10707400CFF09002CBE0FCA3E0FD4C700890000C34
:10708400F0A3F080679002D2E0701E1227B3A80428
:10709400A905AA06AB07E4FFFE7D7A7C4812269375
:1070A4001227EC7C007DF080389002D2E0B40F030C
:1070B4007410F09002CBE0FCA3E0FDE41227B3A827
:1070C40004A905AA06AB07E4FFFE7D7A7C481226D4
:1070D400931227EC9002D2E0FD74788DF084FD7C4D
:1070E40000122BB290000CEEF0A3EFF0E5D854039D
:1070F40070079002CFF00273D17B017A00795E753C
:1071040058007559037F107E0212B07DE4F53BF5FB
:107114003C90007675F028E53C123053E53B75F061
:1071240028A42583F583E024FB601524FB702274D6
:107134007F253CF5827402353BF5837403F080208F
:10714400747F253CF5827402353BF5837402F0802C
:107154000F747F253CF5827402353BF5837404F08B
:10716400053CE53C7002053B6404453B70A3E4F533
:107174003BF53C90008375F028E53C123053E53B29
:1071840075F028A42583F583E0FDE53C25E0FFE5C3
:107194003B33FE740F2FF58274003EF583EDF090BF
:1071A400007775F028E53C123053E53B75F028A4D0
:1071B4002583F583122F9C90007B75F028E53C1203
:1071C4003053E53B75F028A42583F583122F9012E4
:1071D4002495C004C005C006C00790007775F02848
:1071E400E53C123053E53B75F028A42583F5831262
:1071F4002F9C90007F75F028E53C123053E53B75D9
:10720400F028A42583F583122F90122495D003D05F
:1072140002D001D000122693E4FBFAF9F8122730C9
:1072240090007775F028600540030272AFE53C12C8
:107234003053E53B75F028A42583F583122F9C90E9
:10724400007B75F028E53C123053E53B75F028A42B
:107254002583F583122F90122495C004C005C0061F
:10726400C00790007775F028E53C123053E53B7574
:10727400F028A42583F583122F9C90007F75F028B5
:10728400E53C123053E53B75F028A42583F58312C1
:107294002F90122495D003D002D001D0001226934F
:1072A400C004C005C006C007027335E53C12305364
:1072B400E53B75F028A42583F583122F9C90007B71
:1072C40075F028E53C123053E53B75F028A425837E
:1072D400F583122F90122495C004C005C006C00780
:1072E40090007775F028E53C123053E53B75F028A3
:1072F400A42583F583122F9C90007F75F028E53C2C
:10730400123053E53B75F028A42583F583122F90A2
:10731400122495D003D002D001D000122693122754
:107324009DAB07AA06A905A804C000C001C002C0FD
:107334000390008475F028E53C123053E53B75F06A
:1073440028A42583F583E0FF90008575F028E53CAB
:10735400123053E53B75F028A42583F583E0C39FE1
:10736400FDE49400FCE41227B3D003D002D001D092
:107374000012258AC004C005C006C00790008475A9
:10738400F028E53C123053E53B75F028A42583F53D
:1073940083E0FCE41227B8D003D002D001D000125D
:1073A40024991227ECAD07E53C25E0FFE53B33FECD
:1073B400740E2FF58274003EF583EDF0053CE53C38
:1073C4007002053B6404453B60030271779002CF71
:1073D400E030E7034403F0E4F53BF53CD390095B6C
:1073E400E0953C90095AE0953B4018745E253CF5C5
:1073F400827400353BF583E4F0053CE53C70DD0523
:037404003B80D9F1
:017407002262
:098A81009002CFE07003028D5356
:038A8A00753B0633
:108A8D00AF3B9002CFE0FEA807088002C313D8FCCD
:108A9D0020E003028D45E53B12310A8C23008C1A30
:108AAD00018B0B028B0B038AC9048AC9058AC10687
:108ABD0000008CB0E5D8F4F53C028CB0AF3BEF3341
:108ACD0095E0FEEF25E0FFEE33FE741F2FF5827467
:108ADD00003EF583E0FEA3E0FFAD3BED3395E0FCFA
:108AED00747D2DF58274023CF583E0FDEFA8050839
:0E8AFD008005CEC313CE13D8F9F53C028CB021
:108B0B00E4F53DAF3BEF3395E0FEEF25E0FFEE33B1
:108B1B00FE741F2FF58274003EF583E0FEA3E0FF89
:108B2B00AD3BED3395E0FC747D2DF58274023CF585
:108B3B0083E0FBEFA803088005CEC313CE13D8F94F
:108B4B00F53C74062DF58274003CF583E0640260FD
:108B5B0003028CB0AF3BEF3395E0FEEF25E0FFEE69
:108B6B0033FE740B2FF58274003EF583E060230413
:108B7B00604624FE706A740A2FF58274003EF583FA
:108B8B00E0FFE53CD39F40047F0180027F008F3DD7
:108B9B00804EAF3BEF3395E0FEEF25E0FFEE33FE6B
:108BAB00740A2FF58274003EF583E0B53C047F0117
:108BBB0080027F008F3D8028AF3BEF3395E0FEEFC7
:108BCB0025E0FFEE33FE740A2FF58274003EF58329
:108BDB00E0FFE53CC39F50047F0180027F008F3D87
:108BEB00E53D6015E53B2402FF7401A807088002F0
:108BFB00C333D8FC42C8028CB0E53B2402FF74019E
:0F8C0B00A807088002C333D8FCF452C8028CB00B
:098C1A0090026EE0F53C028CB002
:108C230090026EE0FEA3E0FFF53C90000CE0FCA395
:108C3300E0FD4C6078EF4E6074D3ED9FEC9E5038AE
:108C4300E4F53DF53E7408253EF5827400353DF5A7
:108C530083E0B40113E53E2404FF7401A8070880F0
:108C630002C333D8FCF452C8053EE53E7002053D0D
:108C73006402453D70CF8035E4F53DF53E7408252B
:108C83003EF5827400353DF583E0B40112E53E24E0
:108C930004FF7401A807088002C333D8FC42C80547
:0D8CA3003EE53E7002053D6402453D70D087
:108CB00075450075460075473C900006E0FAA3E054
:108CC000FB7D017C007F017E0012B22C900006E04B
:108CD0007002A3E0600C90000674FFF5F0122C4FB8
:108CE0008063AD78AC777F017E0012B32DE57824E8
:108CF000FFFFE57734FFFEC3E57F9FE57E9E4021C1
:108D0000900005E0FFAB78AA77AD7FAC7E12A5E5B9
:108D1000E4900C36F0900CC0F0C2B6C2B5F5C88035
:108D200024E57815787002157790095AE0FCA3E0E5
:108D3000FD24FFFEEC34FF900006F0A3CEF07F018F
:058D40007E0012B4F6F4
:0E8D4500153BC3E53B648094804003028A8D99
:018D530022FD
:10B5CB008B5C8A5D895EE92DF9EA3C8B5FF56089BE
:10B5DB0061E4F562F563C3856083856182E55E9501
:10B5EB0082E55D9583502F785CE475F00112305F36
:10B5FB00122B05FFE5636F25E0FFE433FE74372F55
:10B60B00F58274903EF583E562FFE493F562740175
:0AB61B00936FF56380C0AE62AF6369
:01B625002202
:10A88400E4900D88F07B017A0C793A12B6D7900CDB
:10A89400A3E07004A3E064E3700C900CA5E07004E2
:10A8A400A3E064086018900CA3E4F0A374E3F090B0
:10A8B4000CA5E4F0A37408F0900D887401F0900CDA
:10A8C4008CE0B4FF0974C8F0900D887401F0900C0A
:10A8D4008BE0640160077401F0900D88F0900C34F3
:10A8E400E0FCA3E0FDB40015ECB41011900CA8E05A
:10A8F40030E40AE054EFF0900D887401F0E4B505FB
:10A9040015ECB42011900CA8E020E40AE04410F007
:10A91400900D887401F0900C3AE0FF12BAC3400D18
:10A92400900C3AE06007E4F0900D8804F0900C4E2F
:10A93400E0FF12BAC3400D900C4EE06007E4F090C3
:10A944000D8804F0900C62E0FF12BAC3400D900C25
:10A9540062E06007E4F0900D8804F0900CABE0B482
:10A96400FF07E4F0900D8804F0900CACE0B4FF1104
:10A97400A3E0B4FF0CE4900CACF0A3F0900D8804B9
:10A98400F0900D88E0601012B9F27B017A0C793AEC
:10A994007D807C0012B41A900018E06010900CAA1C
:0DA9A400E030E4047F0080027F0112BA4A17
:01A9B1002283
:10B9F200AF84E4F584781EF608F6A2AF33FEC2AF38
:10BA020043B701758F0718E6FC08E6F5828C83E4DC
:0DBA1200F0F58F53B7FEEE24FF92AF8F8446
:01BA1F002204
:0AB41A008B4F8A5089518C528D53DC
:10B42400858454E4F584781EF608F6A2AF33FFC28F
:10B43400AF43B701758F05E4F555F556C3E5569549
:10B4440053E5526480F8E5556480985029784FE4B8
:10B4540075F00112305F122B05FE781E0806E618FF
:10B46400860470010614F5828C83EEF00556E556C9
:10B4740070CA055580C6E4F58F53B7FEEF24FF92DA
:04B48400AF855484B8
:01B4880022A1
:06B6D7008B4F8A508951DF
:10B6DD00858452E4F553F554F584A2AF33F555C284
:10B6ED00AF758F04E4FFFE0554E554AC53700205AD
:10B6FD005314F5828C83E493FD784FE475F00112B9
:10B70D00305FED122B7E0FBF00010EEF64804E7087
:0DB71D00D6E4F58FE55524FF92AF855284E8
:01B72A0022FC
:0EB1A2008E568F578C588D598B5A8A5B895C5C
:09B1B00012007EEF30E7F9C2F94C
:10B1B900E4F561F5620562E5627002056164404586
:03B1C9006170F2C0
:10B1CC00E5576401455670047F8480027F87120026
:10B1DC005EE4FF12005EE4FF12005EE4FF12005E0C
:10B1EC00E4F55FF560C3E5609559E5586480F8E5D2
:10B1FC005F648098501DAB5AAA5BA95C8560828500
:10B20C005F83122B1EFF12005E0560E56070D60591
:10B21C005F80D2D2F9AD5EAC5DAF57AE5602B32DA6
:08B32D008E638F648C658D6650
:10B3350090095AE0FEA3E0FF12AFE38F6712007E8B
:06B34500EF30E7F9C2F948
:10B34B00E4F568F5690569E56970020568644045CF
:03B35B006870F225
:10B35E00E5676010E5646401456370047F838012C5
:10B36E007F86800EE5646401456370047F828002EF
:10B37E007F8512005EE566AE657806CEA2E713CE37
:10B38E0013D8F8FF12005EAF66EF25E025E0FF123E
:09B39E00005EE4FF12005ED2F92A
:01B3A7002283
:0CB22C008E3F8F408C418D428A438B4442
:09B2380012007EEF30E7F9C2F9C3
:10B24100E4F54AF54B054BE54B7002054A64404570
:03B251004A70F24E
:10B25400E5406401453F70047F8480027F871200CB
:10B264005EE4FF12005EE5435403FF12005EAF4448
:10B27400E54412005EE4F548F549C3E5499542E525
:10B28400416480F8E548648098501DAB45AA46A9FE
:10B2940047854982854883122B1EFF12005E0549AB
:0AB2A400E54970D6054880D2D2F9C2
:01B2AE00227D
:08B4F6008E418F428C438D440E
:09B4FE0012007EEF30E7F9C2F9FB
:10B50700E4F547F5480548E54870020547644045B6
:03B517004770F288
:10B51A00E5426401454170047F8480027F871200FE
:10B52A005EE4FF12005EE4FF12005EE4FF12005EBA
:10B53A00E4F545F546C3E5469544E5436480F8E5F8
:10B54A0045648098500F7FFF12005E0546E54670FD
:07B55A00E4054580E0D2F991
:01B5610022C7
:02007E00C2F9C5
:10008000E4F573F5740574E5747002057364404516
:030090007370F298
:0C0093007FD712005EE4FF12005ED2F97D
:01009F00223E
:0AB07D008E538F548B558A56895765
:09B0870012007EEF30E7F9C2F976
:10B09000E4F55CF55D055DE55D7002055C644045C9
:03B0A0005C70F2EF
:10B0A3007FD212005EE559AE587806CEA2E713CEE2
:10B0B30013D8F8FF12005EAF59EF25E025E0FF1229
:10B0C300005EE4FF12005EE4FF12005EE4FF120084
:10B0D3005EE4FF12005EE4FF12005EE4F55AF55BE6
:10B0E300C3E55B9554E5536480F8E55A6480985052
:10B0F3001FE4FF12005EAB55AA56A957855B8285F4
:10B103005A83EF122B90055BE55B70D4055A80D010
:02B11300D2F96F
:01B115002217
:08AFE3008E6A8F6B8C6C8D6D82
:0CAFEB00756E0112007EEF30E7F9C2F92C
:10AFF700E4F571F5720572E57270020571644045FA
:03B007007170F273
:10B00A007FD212005EE56DAE6C7806CEA2E713CE53
:10B01A0013D8F8FF12005EAF6DEF25E025E0FF12AE
:10B02A00005EE4FF12005EE4FF12005EE4FF12001D
:10B03A005EE4FF12005EE4FF12005EE4F56FF57055
:10B04A00C3E570956BE56A6480F8E56F6480985093
:10B05A001DE4FF12005EBFFF047F0180027F008FA4
:10B06A006EEF600A0570E57070D6056F80D2D2F96E
:02B07A00AF6EB7
:01B07C0022B1
:04B7C4008E528F53BF
:09B7C80012007EEF30E7F9C2F92E
:10B7D100E4F554F5550555E55570020554644045A9
:03B7E1005470F2AF
:10B7E4007F5012005EE553AE527806CEC313CE13DB
:10B7F400D8F9FF12005EAF53EF25E025E0FF1200F9
:08B804005EE4FF12005ED2F9C0
:01B80C002219
:04B80D008E538F5473
:09B8110012007EEF30E7F9C2F9E4
:10B81A00E4F555F5560556E556700205556440455A
:03B82A005570F264
:10B82D007F8112005EE554AE537806CEC313CE135E
:10B83D00D8F9FF12005EAF54EF25E025E0FF1200AE
:08B84D005EE4FF12005ED2F977
:01B8550022D0
:06B489008C4D8D4E8B4F2F
:10B48F00E54F6002C2B68E508F51D3E551954EE510
:10B49F0050954D504BE55154077034C3E54E9551BF
:10B4AF00FFE54D9550FEC3EF9408EE94004020E564
:10B4BF004F6008E551543F7002B2B6AF51AE501213
:10B4CF00B7C474072551F551E43550F5508007AFD7
:10B4DF0051AE5012B80D0551E55170AE055080AA0E
:06B4EF00E54F6002C2B649
:01B4F5002234
:06AB91008B3B8A3C893D6C
:06AB9700D2F8D2F9C2FA67
:10AB9D00E4F541F5420542E5427002054164404548
:03ABAD004170F202
:02ABB000D2FAD7
:10ABB200E4F541F5420542E5427002054164404533
:03ABC2004170F2ED
:10ABC50012007EEF543C12310AABE70CABF114AB2B
:10ABD500FB1CAC0524AC202CAC3B34AC563C000033
:10ABE500AC72AB3BAA3CA93D7402801CAB3BAA3CB2
:10ABF500A93D74048012AB3BAA3CA93D74088008AA
:10AC0500AB3BAA3CA93D741075F000122D16AB3E66
:10AC1500AA3FA940740175F008804FAB3BAA3CA937
:10AC25003D741075F000122D16AB3EAA3FA9407475
:10AC35000275F0108034AB3BAA3CA93D742075F039
:10AC450000122D16AB3EAA3FA940740275F0108084
:10AC550019AB3BAA3CA93D742075F000122D16AB2B
:0DAC65003EAA3FA940740475F020122D1680
:01AC720022BF
:10FE00008E4E8F4F8E4E8F4FE4F550F551A2AF338B
:10FE1000F552C2AFE4F58443B701758F03C3E550D3
:10FE200094FC50168551828550837488F0E42551E6
:10FE3000F55174043550F55080E3E4F58FF550F535
:10FE400051F555F55675840FE55654037002B2B658
:10FE500012FFB58F57E55730E7F6C2F9E4F558F5CC
:10FE6000590559E559700205586440455870F27FAC
:10FE7000D212FFA4E556AE557806CEC313CE13D8E2
:10FE8000F9FF12FFA412FF9CE4FF12FFA4E4FF128B
:10FE9000FFA4E4FF12FFA4E4FF12FFA4E4FF12FF9B
:10FEA000A4E4F553F554E4FF12FFA4745E2554F561
:10FEB0008274003553F583EFF00554E55470020564
:10FEC00053C3E553940240DED2F9E4F584758F0103
:10FED000F553F554745E2554F58274003553F5835B
:10FEE000E0FF0551E551AC507002055014F5828CCD
:10FEF00083EFF00554E55470020553B400D6E55382
:10FF0000B402D1E4F58F0556E55670020555C39449
:07FF10007FE555940050034A
:10FF170002FE45E4F58F53B7FEE55224FF92AFE4A6
:10FF2700F5D075840FF555F556C3E5559420505413
:10FF3700E556543F7002B2B512FFB58F57E55730FB
:10FF4700E7F6C2F9E4F558F5590559E55970020580
:10FF5700586440455870F27F5012FFA4E556AE55DD
:10FF67007806CEC313CE13D8F9FF12FFA412FF9C55
:10FF7700E4FF12FFA4D2F974082556F556E4355567
:10FF8700F55580A512FFB58F57E55730E7F6E4F52D
:05FF97008443EF01228C
:10FF9C00AF56EF25E025E0FFAE84E4F5848F9B306F
:09FFAC00FFFDC2FFAF9B8E842211
:10FFB500C2F9E4F55AF55B055BE55B7002055A6429
:10FFC50040455A70F27FD712FFA4E4FF12FFA4D276
:02FFD500F9220F
:109A6300900C3674E2F0909033E493FFAB3CAA3D44
:109A7300A93E900001122B1EFDE4F556F5577B0617
:049A83008F538B551D
:109A87007558FFE4F559F55AED90903393F55B74EB
:109A9700362DF582E4340CF5837464F0909033E44A
:109AA70093B55319E55564066013E5556415600DC4
:109AB70074302DF582E4340CF583E555F0E55B75DC
:109AC700F013A424A0F582E43402F58312306F74F6
:109AD70016122B7EE55B75F013A424A0F582E434FF
:109AE70002F58312306F900001E553122B90E55B6E
:109AF70075F013A424A0F582E43402F58312306FC5
:109B0700900002ED122B9074022557F557E4355655
:109B1700F556FFE55B75F013A424A0F582E4340243
:109B2700F58312306F900003EF122B90E55B75F011
:109B370013A424A0F582E43402F58312306F900059
:109B470004E557122B90E55B75F013A424A0F5826A
:109B5700E43402F58312306F900005E555122B901F
:109B6700E4FEFFE55B75F013A424A0F582E434025C
:109B7700F58312306F8F828E83122B1E62580FBFB0
:109B870000010EEF64064E70DAE55B75F013A4244E
:109B9700A0F582E43402F58312306F900006E55891
:109BA700122B9074FE2557F55774FF3556F556E579
:109BB7005B75F013A424A0F582E43402F583123018
:109BC7006FE92407F9E43AFAAD57AC5612B5CB8ED4
:109BD700598F5AEEFFE55B75F013A424A0F582E4D4
:109BE7003402F58312306F0557E557700205562486
:109BF70006F582E43556F583EF122B90E55B75F099
:109C070013A424A0F582E43402F58312306F0557BC
:109C1700E557700205562406F582E43556F583E5C7
:109C27005A122B90E55B75F013A42493F97402354F
:109C3700F0FA7B01E5572407FDE43556FC12B626FA
:099C4700E5572407FFE43556FE41
:019C500022F1
:0849E2008F3B8B3C8A3D893EAE
:1049EA00E4900CF4F0A3F0900003122B1EFE90004A
:1049FA0004122B1E7C002400FFEC3ECF24FECF3491
:104A0A00FFFE900CF6F0FCA3EFF0FDE92407F9E4B1
:104A1A003AFA12B77A900CF4EEF0A3EFF04E603A3D
:104A2A00AB3CAA3DA93E900005122B1EFF641570EF
:104A3A0003025283EF64067003025283900001124C
:104A4A002B1E2436F582E4340CF5837464F090004E
:0A4A5A0001122B1EFF7D04024E34F2
:104A6400AB3CAA3DA93E900002122B1EFF9090334E
:104A7400E4936F7003024B1EEFF47003024B1EEFBE
:104A840093FF3395E0FE9002A075F013EF123053BC
:104A9400EE75F013A42583F58312306FE92407F92A
:104AA400E43A8B44F5458946E53E2407F9E4353D6F
:104AB400853C41F5428943E4F53FF540D3900CF73A
:104AC400E09540900CF6E0953F40247841E475F081
:104AD4000112305F122B05FF7844E475F0011230A7
:104AE4005FEF122B7E0540E54070D1053F80CDABD2
:104AF4003CAA3DA93E900001122B1EFF9000021219
:104B04002B1EFD900005122B1EFB900CF6E0F556B3
:104B1400A3E0F557129A83025283AB3CAA3DA93E07
:104B2400900005122B1E12310A4B7F064BBA104B14
:104B3400A3154E69304F8E314FB6324FDE3350A637
:104B440034500635502E3650563750A638507E39DC
:104B54004D7E404DD2414DD24250D2505124514EFF
:104B64009E554CC7704D24714BE090520F9150CA22
:104B7400934F56944C68980000524F900001122BAA
:104B84001E2430F582E4340CF583AB3CAA3DA93EE7
:104B9400900001122B1E2430F582E4340C8010ABFB
:104BA4003CAA3DA93E122B052431F582E4340CF5D0
:104BB40083E4F002523C900C36E0FF64E16004EFC1
:104BC400B4E20512B72B8003129A69900CF4EEF04C
:0C4BD400A3EFF0AB3CAA3DA93E02523C0E
:104BE000900C36E0FF64E16004EFB4E20512B72BED
:104BF0008065AB3CAA3DA93E900007122B1EFE909B
:104C00000008122B1E7C002400F548EC3EF547E519
:104C10003B75F013A424A0F582E43402F58312302E
:104C20006FE92407F9E43AFA90095AE0FEA3E0FF9D
:104C300085475885485912B07D909033E493FFAB77
:104C40003CAA3DA93E900001122B1EFD90095AE09E
:104C5000F556A3E0129A7F900CF4EEF0A3EFF0ABC0
:084C60003CAA3DA93E02523CB2
:104C6800900C36E0FF64E16004EFB4E20512B72B64
:104C7800803CAB3CAA3DA93E900007122B1EFE903B
:104C88000008122B1E7C002400F548EC3EF54790E6
:104C9800095AE0FCA3E0FDE92409F9E43AFA85475A
:104CA8005D85485E7F027E0012B1A2129A69900C5F
:0F4CB800F4EEF0A3EFF0AB3CAA3DA93E02523C54
:104CC700900C36E0FF64E16004EFB4E20512B72B05
:104CD700803AE53B75F013A424A0F582E43402F58D
:104CE7008312306FE92407F9E43AFA12B6D79090A5
:104CF70033E493FFAB3CAA3DA93E900001122B1E63
:104D0700FD7556007557807B06129A83900CF4EE5A
:104D1700F0A3EFF0AB3CAA3DA93E02523C900C3603
:104D2700E0FF64E16004EFB4E20512B72B803712AD
:104D3700B9F2AB3CE53E2407F9E4353DFA900CF6B1
:104D4700E0FEA3E0FFC39480EE94005006AC06ADEE
:104D57000780047C007D8012B41A7B017A0C793AB3
:104D670012B6D7129A69900CF4EEF0A3EFF0AB3CB1
:074D7700AA3DA93E02523CD7
:104D7E00900C36E0FFF547AB3CAA3DA93E900001F2
:104D8E00122B1E2436F582E4340CF583E4F0EF6426
:104D9E00E16007900C36E0B4E20C900001122B1E7D
:104DAE00FF7D20024E34129A63900CF4EEF0A3EFC6
:104DBE00F0AB3CAA3DA93E900007122B1EFF12A19C
:044DCE006A024E60C7
:104DD200900C36E0FFF547AB3CAA3DA93E9000059A
:104DE200122B1EFE7C00B441047D0080027D058CE6
:104DF200488D49EE900C35E024FFFD900C34E034F0
:104E0200FFFC8C4A8D4BAB3CAA3DA93E900001129F
:104E12002B1E2436F582E4340CF583E4F0EF64E1D2
:104E22006007900C36E0B4E217900001122B1EFFCF
:104E32007D2012B73A900CF4EEF0A3EFF002528309
:104E4200129A63900CF4EEF0A3EFF0E4FFFE12B8B6
:104E52000D7B01AD4BAC4AAF49AE4812B489900C00
:074E620036E547F002528320
:104E6900129A69900CF4EEF0A3EFF0AB3CAA3DA9BD
:104E79003E900001122B1E2436F582E4340CF58392
:104E8900E4F012007E8F47E54730E7F6E4F5844306
:054E9900EF010252834D
:104E9E00129A69900CF4EEF0A3EFF07B017A02798E
:0C4EAE00937F007EE17D007C0012946E7A
:104EBA00900CE8122FE400004650E4FFFEFDFC903F
:104ECA000CE8122F9CD3122EB54017900CE8122F23
:104EDA009074FFFBFAF9F8122D62900CE8122FD8A1
:024EEA0080D86E
:104EEC00E4F584C2ACC298D29975840153E7BFC271
:034EFC0098D299B0
:104EFF0075840F30E815C39002D4E094099002D363
:104F0F00E094004006E4F58443EF01E4F584309823
:104F1F0017758401309911C299F584859947C29804
:104F2F00B2B47584018547997584013098C2E4F550
:104F3F00843099BCC299758401859947C298B2B5DE
:054F4F00F5848547997F
:104F540080A9129A69900CF4EEF0A3EFF0AB3CAA8E
:104F64003DA93E900001122B1E2436F582E4340C38
:104F7400F583E4F0900018E0700302528390000778
:104F8400122B1EFF12BA4A025283129A69900CF431
:104F9400EEF0A3EFF0AB3CAA3DA93E900001122B2A
:104FA4001E2436F582E4340CF583E4F01232EE026A
:104FB4005283129A69900CF4EEF0A3EFF0AB3CAA82
:104FC4003DA93E900001122B1E2436F582E4340CD8
:104FD400F583E4F01259B4025283129A69900CF4E6
:104FE400EEF0A3EFF0AB3CAA3DA93E900001122BDA
:104FF4001E2436F582E4340CF583E4F0128D540259
:105004005283129A69900CF4EEF0A3EFF0AB3CAA31
:105014003DA93E900001122B1E2436F582E4340C87
:10502400F583E4F01260A8025283129A69900CF49A
:10503400EEF0A3EFF0AB3CAA3DA93E900001122B89
:105044001E2436F582E4340CF583E4F01266220261
:105054005283129A69900CF4EEF0A3EFF0AB3CAAE1
:105064003DA93E900001122B1E2436F582E4340C37
:10507400F583E4F0127408025283129A69900CF4D6
:10508400EEF0A3EFF0AB3CAA3DA93E900001122B39
:105094001E2436F582E4340CF583E4F012806102B8
:1050A4005283AB3CAA3DA93E900001122B1E24362C
:1050B400F582E4340CF583E4F0900005122B1EFF16
:1050C40012841B02528390030074FF0251A7900CB8
:1050D40036E064F07027754F01755000755105ABCB
:1050E4003CAA3DA93E12AD37129A69900CF4EEF039
:1050F400A3EFF0057FE57F701E057E801AAB3CAA06
:105104003DA93E900001122B1EFF7D0812B73A9074
:105114000CF4EEF0A3EFF0AB3CAA3DA93E02523CE6
:10512400900C36E0B4F114AB3CAA3DA93E900007C4
:10513400122B1EFF900005E06F6072AB3CAA3DA9E4
:105144003E900001122B1EFF7D0812B73A900CF41A
:10515400EEF0A3EFF0AB3CAA3DA93E900001122B68
:0C5164001E2436F582E4340CF583E4F0E0
:10517000900CEC122FE40000AFC8E4FFFEFDFC90A1
:105180000CEC122F9CD3122EB54017900CEC122F62
:105190009074FFFBFAF9F8122D62900CEC122FD8E4
:0251A00080D8B5
:1051A20090030074F2F0900CBC7401F0025283126E
:1051B2009A69900CF4EEF0A3EFF0AB3CAA3DA93E45
:1051C200900001122B1E2436F582E4340CF583E4A0
:0151D200F0EC
:1051D300900CF0122FE40000AFC8E4FFFEFDFC903A
:1051E3000CF0122F9CD3122EB54017900CF0122FF7
:1051F3009074FFFBFAF9F8122D62900CF0122FD87D
:0252030080D851
:10520500AF7FAE7E12B929025283900CBC7401F0B7
:10521500AB3CAA3DA93E900007122B1E900300F05F
:10522500909033E493FF129A75900CF4EEF0A3EF8F
:10523500F0AB3CAA3DA93E900001122B1E2436F589
:1052450082E4340CF583E4F08034AB3CAA3DA93EFE
:10525500900001122B1E2436F582E4340CF583747C
:1052650064F0900001122B1EFF7D0212B73A900CDC
:0E527500F4EEF0A3EFF074FF900CF4F0A3F051
:08528300900CF4E0FEA3E0FF33
:01528B002200
:0AB77A008B4C8A4D894E8C4F8D5088
:10B7840012B5CB8E518F52AB4CAA4DA94E85508227
:10B79400854F83122B1E7F00FEE5502401FDE43506
:10B7A4004F8D82F583122B1E2FFFE43EFEE552B52A
:0FB7B4000709E551B50604E4FEFF227EFF7FFF83
:01B7C3002263
:0FB72B00AB3CAA3DA93E900001122B1EFF7D20D2
:10B73A00AE07EE90903393FB3395E0FA9002A07532
:10B74A00F013EB123053EA75F013A42583F5831234
:10B75A00306F900007ED122B90909033E493FFAD79
:10B76A00067556007557017B15129A83E4FEFF226F
:06AD37008B4C8A4D894E91
:10AD3D00E4F552F553900003122B1EFE9000041201
:10AD4D002B1EFDEEF554EDF555E4F552F553E55595
:10AD5D0024FEFFE55434FFFEC364809482500280CC
:10AD6D00047E027F00C3E5539FEE6480F8E55264D4
:10AD7D0080985048AB4FAA50A951C003C002C001E2
:10AD8D00122B05FFAB4CAA4DA94EE5532407FDE44C
:10AD9D0035528D82F583122B1EFE745E2553F5827E
:10ADAD0074003552F583EEF06FD001D002D003124E
:10ADBD002B7E0553E5537096055280927E00E57FFC
:10ADCD005401FF90095AE0FCA3E0FD7B017A007964
:0AADDD005E857E5D857F5E02B1A2F7
:04B929008E4C8F4D64
:10B92D0090FE00E493FE740193FF900CFBEEF0A3E8
:10B93D00EFF0BE8012BFFE0F7B007AFE7902900CF5
:0EB94D00F812307802315DAF7FAE7E12FE0040
:01B95B0022C9
:10B98F00564F4C5453004F4E004F46460044726979
:10B99F0076657241004361724100547261636B417D
:10B9AF0000416E616C6F6778004469676974616C00
:02B9BF0078000E
:06A743008B3B8A3C893DBE
:10A749007B017A00795EE4F558F5597F107E021293
:10A75900B07DAB3BAA3CA93DE475F004122D1690DF
:10A769000C34E0FFA3E0AB3EAA3FA940CF8FF01223
:10A779002D16E4900CE8F0900CE8E0FFC394154026
:10A789000302A86A75F019EF90005E123053E0FEDB
:10A79900A3E0F47002EEF4700302A861900CE8E003
:10A7A90075F019900060123053E0FCA3E0F47002D8
:10A7B900ECF4700302A861AB3BAA3CA93D122C7BC7
:10A7C900FDACF075F019EF900060123053E0FEA374
:10A7D900E0D39DEE9C4014900CE8E075F0199000D0
:10A7E90060123053E0FEA3E0FF8004AE04AF05AB76
:10A7F9003BAA3CA93DEE8FF0122D16900CE8E0FF24
:10A8090075F019900072123053E0FCA3E0F4700265
:10A81900ECF46044AB3EAA3FA940122C7BFDACF09E
:10A8290075F019EF900072123053E0FEA3E0C39D5A
:10A83900EE9C5014900CE8E075F0199000721230FB
:10A8490053E0FEA3E0FF8004AE04AF05AB3EAA3F90
:10A85900A940EE8FF0122D16900CE8E004F002A743
:10A8690080AB3BAA3CA93DE475F001122CDEAB3E5E
:0BA87900AA3FA94074FFF5F0022CDE9E
:06879B008B3B8A3C893D86
:1087A10090003F122FE4FFFFFFFF90002B122FE4F8
:1087B100FFFFFFFF74FF900019F0A3F0900016F087
:1087C100A3F07B017A0C79E87558007559017F1087
:1087D1007E0212B07D900CE8E0900EF8F0900CE96A
:1087E100E0900EF9F0900CEAE0900EFAF0900CEBAC
:1087F100E0540F900EFBF0E024FC600C240270109A
:10880100900CBA7414F0800E900CBA7428F08006A3
:10881100900CBA740AF09000067402F0A3740FF081
:108821009002CFE030E7034403F090095AE0FCA343
:10883100E0FD7F017E0012B4F612B5621200A67B44
:10884100017A0C79E8E4F558F5597F107E0212B0EF
:108851007DAB3BAA3CA93DE475F004122D16E490D2
:108861000EFCF0900C34E0FFA3E0AB3EAA3FA94020
:10887100CF8FF0122D16E4900EFDF0900EFDE0FF6B
:10888100C39415400302897775F019EF900CE81233
:108891003053E0FEA3E0FFBEFF16BFFF13900EFCB6
:1088A100E0600302896EA3E004900EFCF002896E81
:1088B100900EFDE0FF75F019900CEA123053E0FCC8
:1088C100A3E0F47002ECF4700302896EAB3BAA3CA6
:1088D100A93D122C7BFDACF075F019EF900CEA125A
:1088E1003053E0FEA3E0D39DEE9C4014900EFDE0DA
:1088F10075F019900CEA123053E0FEA3E0FF8004FA
:10890100AE04AF05AB3BAA3CA93DEE8FF0122D168C
:10891100900EFDE0FF75F019900CFC123053E0FC55
:10892100A3E0F47002ECF46044AB3EAA3FA940120C
:108931002C7BFDACF075F019EF900CFC123053E07C
:10894100FEA3E0C39DEE9C5014900EFDE075F0195E
:10895100900CFC123053E0FEA3E0FF8004AE04AFA4
:1089610005AB3EAA3FA940EE8FF0122D16900EFDE9
:10897100E004F002887C900EFCE07002FF22AB3E26
:10898100AA3FA940122C7BFFAEF0AB3BAA3CA93D0C
:10899100122C7BC39FE5F09E40037F0022E475F01B
:1089A10001122CDEAB3EAA3FA94074FFF5F0122C58
:1089B100DEAB3BAA3CA93D122C7BFFAEF0D3940564
:1089C100EE9400400280047E007F05900EFCE0FDE5
:1089D10075F019900CCF123053EEF0A3EFF0900226
:1089E100CFE0FF600EAB3EAA3FA940122C7BFBAA51
:1089F100F080047AFF7BFF75F019ED900CE11230E5
:108A010053EAF0A3EBF075F019ED900CE31230533B
:108A110074FFF0A3F075F019ED900CE0123053EFF4
:108A2100F0900EF8E0FF75F019ED900CE51230535F
:108A3100EFF0900EFAE0FF75F019ED900CE61230B0
:108A410053EFF0900EF9E0FF75F019ED900CE7127D
:108A51003053EFF0900EFBE0FF75F019ED900CDF55
:108A6100123053EFF07B017A0C79E8E4F55DF55EA5
:0F8A71007D107C027F02FE12B1A2900EFCE0FF8E
:018A800022D3
:0AA5E5008F3F8C408D418A428B436A
:10A5EF00153F7B017A0F7900E4F558F5597F107EFE
:10A5FF000212B07D74FFFFFEFDFC90002B122F9C0A
:10A60F00C3122ECB705F75F019E53F900F0A123011
:10A61F0053122FE4FFFFFFFF75F019E53F900F0472
:10A62F00123053122FE4FFFFFFFF75F019E53F9033
:10A63F000F0E12305374FFF0A3F075F019E53F9031
:10A64F000F0812305374FFF0A3F075F019E53F9027
:10A65F000F0212305374FFF0A3F075F019E53F901D
:10A66F000F0002A72690002B122F9075F019E53FCF
:10A67F00900F04123053122FD8900016E0FEA3E073
:10A68F00FF75F019E53F900F08123053EEF0A3EF6E
:10A69F00F090003F122F9075F019E53F900F0A12BE
:10A6AF003053122FD8900019E0FEA3E0FF75F01978
:10A6BF00E53F900F0E123053EEF0A3EFF075F01947
:10A6CF00E53F900F02123053E540F0A3E541F090C3
:10A6DF0002CFE0602A75F019E53F900F1212305348
:10A6EF00E0FEA3E0F47002EEF4601475F019E53F9C
:10A6FF00900F14123053E542F0A3E543F08020751C
:10A70F00F019E53F900F1412305374FFF0A3F0755A
:10A71F00F019E53F900F1212305374FFF0A3F07B46
:10A72F00017A0F7900E4F55DF55E7D107C027F0202
:04A73F00FE02B1A2C3
:10A47300E4900EFEF0A3F07B017A0C79ECF558F52D
:10A48300597F107E0212B07DE4900EFEF0A3F0908F
:10A493000EFEE0FEA3E0FFC39415EE94004003021A
:10A4A300A5E4900CEC75F019EF123053EE75F0192A
:10A4B300A42583F583E0FEA3E0F47002EEF47003B9
:10A4C30002A5D7900EFEE0FEA3E0900CF475F01900
:10A4D300123053EE75F019A42583F583E0FCA3E055
:0AA4E300F47002ECF4600302A5D748
:10A4ED00900CFE75F019EF123053EE75F019A4258E
:10A4FD0083F583E0FDA3E0900CE8CDF0A3EDF090A3
:10A50D000D0075F019EF123053EE75F019A4258377
:10A51D00F583E0FFA3E0900CEACFF0A3EFF0900EEF
:10A52D00FEA3E0900CEC75F019123053EE75F01996
:10A53D00A42583F583E0FFA3E0900EFCCFF0A3EFFD
:10A54D00F0900C35E024FFFF900C34E034FFFEC397
:10A55D00900EFDE09F900EFCE09E506E7B017A0CFC
:10A56D0079ECE0F558A3E0F5597F107E0212B07D2D
:10A57D0074FFFFFEFDFC900CEC122F9CC3122ECB32
:10A58D00703B900CEAE0B4FF12A3E0B4FF0D900C09
:10A59D00E8E0FFA3E0A3CFF0A3EFF0900EFEA3E061
:10A5AD0004FF900EFDE024FFFD900EFCE034FFFC57
:10A5BD00900CEAE0FAA3E0FB12A5E5800D900EFCED
:0AA5CD00E475F001122C4F02A54EB8
:0DA5D700900EFEE475F001122C4F02A492CC
:01A5E4002254
:02A16A008F4C18
:10A16C007B017A0C79F8E4F558F5597F107E0212D0
:10A17C00B07D75F019E54C900CDF123053E0FEA366
:10A18C00E0F47002EEF4603B75F019E54C900CE1D4
:10A19C00123053E0FEA3E0F47002EEF4602575F08B
:10A1AC0019E54C900CDF123053E0FEA3E0FF75F084
:10A1BC0019E54C900CE1123053E0FCA3E0FD7B015F
:10A1CC0012B4897B017A0C79F8E4F558F5597F10B3
:10A1DC007E0212B07D75F019E54C900CF1123053E3
:10A1EC00E0FEA3E0F47002EEF4603B75F019E54C70
:10A1FC00900CF3123053E0FEA3E0F47002EEF46026
:10A20C002575F019E54C900CF3123053E0FEA3E0E9
:10A21C00FF75F019E54C900CF1123053E0FCA3E003
:10A22C00FD7B0112B4897B017A0C79F8E4F558F5C1
:10A23C00597F107E0212B07D75F019E54C900CF32D
:10A24C0012305374FFF0A3F075F019E54C900CF13B
:10A25C0012305374FFF0A3F075F019E54C900CE13B
:10A26C0012305374FFF0A3F075F019E54C900CDF2D
:10A27C0012305374FFF0A3F075F019E54C900CE913
:10A28C00123053122FE4FFFFFFFF75F019E54C90CD
:10A29C000CE3123053122FE4FFFFFFFF75F019E5AA
:10A2AC004C900CED12305374FFF0A3F075F019E5DF
:10A2BC004C900CE712305374FFF0A3F075F019E5D5
:10A2CC004C900CF0123053E4F075F019E54C900CF6
:10A2DC00EF123053E4F07B017A0C79F8F55DF55E02
:0AA2EC007D107C027F02FE02B1A289
:10528C00E4F53C7B017A0D790DF5587559017F10C9
:10529C007E0212B07D74FFFFFEFDFC900D0D122FEF
:1052AC009CC3122ECB600302538A753C01900D0FE8
:1052BC00F0900D0EF0900D0DF0900D117480F0909B
:0852CC000D107402F0E4F53B43
:1052D40078E87C0C7D017BFF7AB9799C7E007F089D
:1052E400122ADFE53B2441900CEEF0E53B75F0100B
:1052F400A42412F9740D35F0A801FC7D017B017A18
:065304000C79E812322FC3
:0A530A00053BE53BB40CC3E4F53BA2
:1053140078F07C0C7D017BFF7AB979A47E007F054F
:10532400122ADFE53B2441900CF3F0E53B75F016BF
:10533400A424D2F9740D35F0A801FC7D017B017A17
:105344000C79F012322F75F016E53B900DE2123015
:1053540053E4F0A37404F075F016E53B900DE412E9
:1053640030537417F0A37470F075F016E53B900D8C
:0B537400E6123053741BF0A37458F0D5
:10537F00053BE53B640C708D025461900D0DE0D33D
:10538F00940C4005E4F0753C01900D0EE0D39410A1
:10539F004005E4F0753C01900D0FE0D3940C4005EF
:1053AF00E4F0753C01E4F53B75F010E53B900D1210
:1053BF00123053E0FF12BAC3401E75F010E53B9058
:1053CF000D12123053E0601075F010E53B900D1286
:1053DF00123053E4F0753C01053BE53BC3940C40A0
:1053EF00C7E4F53B75F016E53B900DD2123053E054
:1053FF00FF12BAC3405375F016E53B900DD2123031
:10540F0053E0604575F016E53B900DD2123053E432
:10541F00F075F016E53B900DE2123053E4F0A374F3
:10542F0004F075F016E53B900DE41230537417F04D
:10543F00A37470F075F016E53B900DE612305374BF
:10544F001BF0A37458F0753C01053BE53BC3940C6E
:10545F004092E53C60177B017A0D790D755D007503
:10546F005E017D107C027F027E0012B1A27B017A69
:10547F000D790D7558007559027F107E0212B07D9F
:10548F00E4F53C900D0DE0F4600302552BA3E0F41E
:0A549F00600302552B753C01F53B3C
:1054A90078F57C0C7D017BFF7AB979A97E007F07AD
:1054B900122ADFE53B2441900CFAF0E53B75F01C1C
:1054C900A4240DF9740D35F0A801FC7D017B017A46
:1054D9000C79F512322F75F01CE53B900D21123035
:1054E90053122FE40000000075F01CE53B900D1DE0
:1054F900123053122FE40000000075F01CE53B90B8
:105509000D25123053E4F0A3F075F01CE53B900D26
:0855190027123053E4F0A3F067
:10552100053BE53B64107080807EE4F53B75F01C23
:10553100E53B900D0D123053E0FF12BAC340607588
:10554100F01CE53B900D0D123053E0605275F01CDC
:10555100E53B900D0D123053E4F075F01CE53B90E6
:105561000D21123053122FE40000000075F01CE5EC
:105571003B900D1D123053122FE40000000075F016
:105581001CE53B900D25123053E4F0A3F075F01C9F
:10559100E53B900D27123053E4F0A3F0753C010573
:1055A1003BE53BC394104085E53C60177B017A0DD8
:1055B100790D755D00755E027D107C027F027E00B3
:1055C10012B1A2E4F53C7B017A0D790DF5587559BC
:1055D100047F107E0212B07D900D0DE0F460030295
:1055E1005695A3E0F46003025695753C01F53B75B1
:1055F100F00CE53B900D11123053122FE400000026
:105601000075F00CE53B900D0D123053122FE400A4
:1056110000000075F00CE53B900D15123053E4F0DD
:10562100A3F075F00CE53B900D17123053E4F0A395
:0B563100F0053BE53BB410B7E4F53B8F
:10563C0075F014E53B900DCF123053E4F0A3F075E8
:10564C00F014E53B900DCD123053E4F0A3F0F53D92
:10565C00F53EE53E25E0FFE53D33FE75F014E53BF8
:10566C00900DD1123053E5822FF582E5833EF58300
:10567C00E4F0A3F0053EE53E7002053D6408453DAF
:02568C0070D0DC
:10568E00053BE53BB40CA7E53C60177B017A0D7931
:10569E000D755D00755E047D107C027F027E00122A
:1056AE00B1A2E4F53C7B017A0D790DF558755903DD
:1056BE007F107E0212B07D74FFFFFEFDFC900D0D7B
:1056CE00122F9CC3122ECB6003025874753C01F549
:0156DE003B90
:1056DF0078FC7C0C7D017BFF7AB979B07E007F0866
:1056EF00122ADFE53B2430900D02F0E53B75F028E0
:1056FF00A4240DF9740D35F0A801FC7D017B017A0E
:10570F000C79FC12322FE53B75F028A42419F9749B
:10571F000D35F0A801FC7D017BFF7AB9798F12322C
:10572F002F75F028E53B900D251230537414F0754A
:10573F00F028E53B900D26123053122FE4000000A5
:10574F000075F028E53B900D2A123053122FE441DB
:10575F00A0000075F028E53B900D2E123053122F4C
:10576F00E441A0000075F028E53B900D3212305354
:10577F007401F075F028E53B900D33123053E4F0CF
:0E578F0075F028E53B900D3412305374F8F09D
:0E579D00053BE53B640460030256DFE4F53B88
:1057AB0078047C0D7D017BFF7AB979B87E007F0987
:1057BB00122ADFE53B2430900D0BF0E53B75F0240E
:1057CB00A424ADF9740D35F0A801FC7D017B017AA1
:1057DB000D790412322FE53B75F024A424B9F9742A
:1057EB000D35F0A801FC7D017BFF7AB9799512325A
:1057FB002FE53B75F024A424C5F9740D35F0A801F1
:0C580B00FC7D017BFF7AB9799812322FE6
:10581700053BE53BB4078DE4F53B75F005E53B90AB
:105827000EAB123053E4F0A3F075F005E53B900E94
:10583700A9123053E4F0A3F075F005E53B900EADE7
:105847001230537401F0053BE53BB402CDE4F53B60
:1058570074B3253BF582E4340EF583E4F0053BE5AC
:105867003BB402EC900EB37403F0025998E4F53B95
:1058770075F028E53B900D0D123053E0FF12BAC3C7
:10588700500302591A75F028E53B900D0D1230535D
:10589700E0700302591A75F028E53B900D0D1230A0
:1058A70053E4F075F028E53B900D2512305374143E
:1058B700F075F028E53B900D26123053122FE400C7
:1058C70000000075F028E53B900D2A123053122F87
:1058D700E441A0000075F028E53B900D2E123053EF
:1058E700122FE441A0000075F028E53B900D32121D
:1058F70030537401F075F028E53B900D33123053A7
:10590700E4F075F028E53B900D3412305374F8F04D
:10591700753C01053BE53BC394045003025877E40B
:10592700F53B75F024E53B900DAD123053E0FF12C7
:10593700BAC3405475F024E53B900DAD123053E0E7
:10594700604675F024E53B900DAD123053E4F0E569
:105957003B75F024A424B9F9740D35F0A801FC7D3A
:10596700017BFF7AB9799512322FE53B75F024A4B4
:1059770024C5F9740D35F0A801FC7D017BFF7AB9C8
:10598700799812322F753C01053BE53BC3940740DC
:1059970091E53C60177B017A0D790D755D00755EA9
:0C59A700037D107C027F027E0012B1A282
:0159B30022D1
:10B562008584417B017A0C793A12B6D7900018E0B3
:10B57200702EF58475D98075D84075DA4275DB4234
:10B58200900C9FE0A3E0F5FB900C9FE0A3E0F5FC9C
:10B59200900CA1E0A3E0F5FD900CA1E0A3E0F5FE84
:10B5A200900CBAE0FD7C007E057F00122BC48E7BDE
:10B5B2008F7CE4F58475E8C075D107F5BAF5BB75E3
:08B5C200BC7043E702854184DF
:01B5CA00225E
:03007B00029E24BE
:109E2400C0E0C0F0C083C082C0D075D000C000C004
:0B9E340002C003C004C005C006C00748
:109E3F00758400C2EDE57D25E0242FF582E4340022
:109E4F00F583E5BF85BEF0122C4FE57D12310A9EDA
:109E5F007A009E82019E8A029E9D039EA5049EAD5E
:109E6F00059EB5069EBD0700009EC375BB01757D9F
:109E7F0001804175BB02757D028039900018E0604A
:109E8F000575BB07800375BB08757D03802675BB01
:109E9F0003757D04801E75BB04757D05801675BB2B
:109EAF0005757D06800E75BB06757D07800675BB33
:109EBF0000757D00E57C157C7002157B14457B6079
:049ECF0003029FB635
:109ED300900CBAE0FF74A08FF0841313543F7522E3
:109EE30000F523E4FBFAEB64034A7026900018E0C4
:109EF3007020900CBAE075F00A84FF7E0090003564
:109F0300E0FCA3E0FD122BB2900021EEF0A3EFF0F2
:109F13008037EB25E0FFEA33FE742F2FF5827400C0
:109F23003EF583E0FEA3E0FFAC22AD23122BC4ACCD
:109F330006AD07EB25E0FFEA33FE741B2FF58274B1
:109F4300003EF583ECF0A3EDF0EB25E0FFEA33FEF2
:109F5300742F2FF58274003EF583E4F0A3F00BBB5E
:109F630000010AEB64084A6003029EE9900004E0E2
:109F73007029900C99E0FEA3E0FF900C98E02FFF6E
:109F8300900C97E03EFE90001BE0FCA3E0FDC3EFC6
:109F93009DFFEE9C90001BF0A3EFF0900CBAE0FD48
:109FA3007C007E057F00122BC48E7B8F7C9002BACF
:039FB3007401F046
:0C9FB600E57D7003D38001C34002D2ECB3
:109FC200D007D006D005D004D003D002D000D0D024
:099FD200D082D083D0F0D0E0323F
:03AB71000119FFC8
:10B3A800AF8475840F75E1EF75E20775E34475A402
:10B3B800157580EA75ADFF75A53D759001E4F5A694
:10B3C80075A0FF75A7FA75B07F759CFFF5C8F59D48
:10B3D80075D8FFF59E75E8FFE5E854E0FEBEC004A9
:10B3E8007E0180027E00900018EEF06008759FF7DD
:10B3F80075F8978006759FFF75F8F720D80330D940
:10B408000E9002FF7401F0900018E06002D2FB8FEA
:01B4180084AF
:01B419002210
:10B85600AF84E4F584F5D875D980F5F9F5FAF5E9FC
:10B8660075EA0C75DC4675D840900CBEF0A3F090D6
:10B87600026EF0A3F0F584C28C758905438E08F537
:10B886008AF58CC28DD28C75840175888075893055
:07B89600D2A943E6308F84C4
:01B89D002288
:0DBAD200AF84E4F584C289D288D2A88F84A5
:01BADF002244
:03005B0002A2F608
:10A2F600C0E0C0F0C083C082C0D075D000C000C02E
:0DA3060001C002C003C004C005C006C007AE
:10A3130053E6CF758400AF8CEFFEAD8A7C00E42D4D
:10A32300F525EC3EF524900CBEE0FEA3E0FFC3E56B
:10A33300259FFFE5249EFED3EF9464EE9400500323
:10A3430002A44FC28C758A00758C00C28DD28CE535
:04A3530019F4704148
:10A35700F519F526AE24AF25E52625E02443F58239
:10A36700E43400F583EEF0A3EFF0E4FCFDE51D2FE8
:10A37700FFE51C3EFEED351BFDEC351A8F1D8E1CCF
:0EA387008D1BF51A0526E526B404C990026E5A
:10A3950002A4410519E519C394044003751900E5A4
:10A3A5001925E02443F582E43400F583E0FEA3E0BB
:10A3B500FBC3E51D9BFFE51C9EFEE51B9400FDE52B
:10A3C5001A94008F1D8E1C8D1BF51AAE24AF25E542
:10A3D5001925E02443F582E43400F583EEF0A3EF7C
:10A3E500F0E4FCFDE51D2FFFE51C3EFEED351BFDF4
:10A3F500EC351A8F1D8E1C8D1BF51AE47B04FAF9BA
:10A40500F8AC1A122E088E248F25C390026FE095A2
:10A4150025FF90026EE09524FEC394004006AC062D
:10A42500AD078009C3E49FFFE49EFCAD0790026E73
:10A43500E0C313FFC3ED9FEC94004007E524F0A3B0
:10A44500E525F0900CBEE4F0A3F07584015388CFA8
:03A4550043E630AB
:10A45800D007D006D005D004D003D002D001D00058
:0BA46800D0D0D082D083D0F0D0E03202
:0300530002B89E52
:10B89E00C0E0C083C082C0D075D000C004C005C057
:10B8AE0006C00753E6CF758400AF8CEFFEAD8A7CE1
:10B8BE0000E42DFFEC3E900CBEF0A3EFF07584017A
:10B8CE005388CF43E630D007D006D005D004D0D071
:07B8DE00D082D083D0E032DC
:03000B0002B95CDB
:10B95C00C0E0C083C08253E6CF758400C28C758A68
:10B96C0000758C00D28C900CBEE4F0A3F090026EAB
:10B97C00F0A3F07584015388CF43E630D082D08396
:03B98C00D0E032D6
:0300030002B2AF97
:10B2AF00C0E0C0F0C083C082C0D075D000C000C065
:09B2BF0003C004C005C006C0076D
:10B2C800A2AFE433FB900CC17401F0900CBAE0FD1E
:10B2D8007C007E057F00122BC48E7B8F7C757D00E1
:10B2E8007F1090002FE4F0A3DFFCC2AF53E7FE7598
:10B2F8008400C2ECC2ED75BB0075840175C800748A
:0EB30800FFF5CDF5CC43E70143C8042B92AF0F
:10B31600D007D006D005D004D003D000D0D0D0823C
:07B32600D083D0F0D0E0322B
:02FDFE0080FE85
:10AB740002080001010C00020D0000421120000037
:04AB84004111220059
:06B626008B608A6189625D
:10B62C00858463AB60AA61A962900002122CA645C6
:10B63C00F070F0AB60AA61A96290000D123081C06D
:10B64C0003C002C001AB60AA61A96290000712306E
:10B65C00B1AB60AA61A962900002EC8DF0122D359D
:10B66C00122B057006F584D2998005758401D29948
:03B67C008563845F
:01B67F0022A8
:10005E00AE84E4F5848F9B30FFFDC2FFAF9B8E8490
:01006E00226F
:10B68000AF8475840F759601758C67E4FDFC0DBD64
:10B6900000010CE4B505F7ECB401F3E58C30E7FBF1
:10B6A000759701E4F58A758905F58475B720758469
:10B6B0000F758D01758F01758E03FCFD0DBD0001A9
:10B6C0000CE4B505F7ECB401F3438902E58930E4F5
:06B6D000FB7597028F8458
:01B6D6002251
:0E946E008B4C8A4D894E8F528E518D508C4FF3
:10947C00858453122B0514606F04600302966EE40E
:10948C00F58475911590000A122B1E24BB601824CC
:10949C00F6601424EA601024F76007146009242194
:1094AC00700875985080037598D0E4F58475C804DD
:1094BC0075C908AB52AA51A950A84FFFFE7D657C17
:1094CC0004122E08E47B10FAF9F8122E08122EA7BB
:1094DC008ECB8FCA74FFF5CDF5CCD2CAE4F584C21D
:1094EC0099C298D2AC02966E758401AB4CAA4DA968
:1094FC004E90000A122B1E24BB601824F660142414
:10950C00EA601024F760071460092421700875982C
:10951C00108003759890E4F58453890F438920AB30
:10952C0052AA51A950A84FFFFE7D657C04122E084B
:10953C00E47B02FAF9F8122E08E4FB7A01F9F8122E
:10954C002E08E47B01FAF9F8D3122ECB4026AB524D
:10955C00AA51A950A84FE4FFFE7D657C04122E0889
:10956C00E47B02FAF9F8122E08122EA78F8D438E87
:10957C001002965FAB52AA51A950A84FE4FFFE7D92
:10958C00657C04122E08E47B02FAF9F8122E08E42A
:10959C00FB7A01F9F8122E08E47B04FAF9F8D312DD
:1095AC002ECB4031AB52AA51A950A84FE4FFFE7DFF
:1095BC00657C04122E08E47B02FAF9F8122E08E4FA
:1095CC007B04FAF9F8122E08122EA78F8D538EEC0D
:1095DC00438E01807EAB52AA51A950A84FE4FFFEE6
:1095EC007D657C04122E08E47B02FAF9F8122E0831
:1095FC00E4FB7A01F9F8122E08E47B0CFAF9F8D3A3
:10960C00122ECBAB52AA51A950A84FE4FFFE7D6598
:10961C007C04401F122E08E47B02FAF9F8122E0883
:10962C00E47B0CFAF9F8122E08122EA78F8D538EAC
:10963C00EC8020122E08E47B02FAF9F8122E08E4D2
:10964C007B30FAF9F8122E08122EA78F8D538EEC60
:10965C00438E02858D8BD28E758401C299C298433C
:05966C00E74085538476
:0196710022D6
:10003E00AF84E4F584759D04759A70C2FFD2F88F73
:01004E00842D
:01004F00228E
:10BA2000AD84758401E4F5C8F5C9EF2408FFE43E50
:10BA3000FEC3E49FFFE49EF5CB8FCA74FFF5CDF5FE
:09BA4000CC43E70143C8048D84E6
:01BA490022DA
:0300230002986ED2
:10986E00C0E0C0F0C083C082C0D075D000C000C0C0
:0D987E0001C002C003C004C005C006C00741
:10988B00E59820E003029A058599275398FEE50891
:10989B0060030299D2E50924FE60631470030299F8
:1098AB003A14700302999F240360030299D2750D39
:1098BB0000750E00E527641660030299D290029E94
:1098CB00E0FF7E007C027D1D122BB29002A31230B2
:1098DB006FE92FF9EA3E8B0FF5108911FA050EE5AA
:1098EB000EAE0D7002050D14F5828E83E527122B3B
:1098FB0090E527620C7508007509020299D2AB0F2F
:10990B00AA10A911050EE50EAE0D7002050D14F58A
:10991B00828E83E527122B90E527620CE50E6406F9
:10992B00450D60030299D2F5087509030299D2AB74
:10993B000FAA10A911050EE50EAE0D7002050D1440
:10994B00F5828E83E527122B90630CFFE50C6527C0
:10995B007031AB0FAA10A911900003122B1E750AC0
:10996B0000F50B750B00F50A900004122B1E250B4E
:10997B00F50BE4350AF50A450B60467508007509C9
:10998B00048044750D00750E00750800750901758E
:10999B000C008033D2B4AB0FAA10A911050EE50E43
:1099AB00AE0D7002050D14F5828E83E527122B90F8
:1099BB00E50B2407FFE4350AFEEFB50E0AEEB50DF5
:1099CB0006750800750905E50964054508702BC285
:1099DB00B4F508750901F50DF50EF50C900297120B
:1099EB00306FE94A4B7013AB0FAA10A91190029775
:1099FB0012307890029EE06401F0E59830E13E90E1
:109A0B000295E07002A3E06023D2B490029A123068
:109A1B006F122B05F59990029BE475F001122C4FF8
:109A2B0090029574FFF5F0122C4F800EC2B47B00A0
:0D9A3B007A00790090029A1230785398FD5D
:109A4800D007D006D005D004D003D002D001D00072
:0B9A5800D0D0D082D083D0F0D0E0321C
:0300A3000292378F
:10923700C0E0C0F0C083C082C0D075D000C000C0FD
:0992470001C002C003C006C0070B
:10925000E59820E0030293E2859928901122E0121C
:10926000310A92810092920192A50292F503932213
:1092700004933B0593620693A30793B408000093FD
:10928000DFE52864B560030293DF90112204F00249
:1092900093DFE528901122B462067402F00293DF96
:1092A000E4F00293DF751800751700901120E4F0C8
:1092B000A3F09002B1E075F0DCA4FF9002B612308A
:1092C0006FE92FF9EA35F08B12F5138914FA901132
:1092D00020E475F001122C6585F082F583E52812F3
:1092E0002B90E5282517F5172518F51890112274ED
:1092F00003F00293DFAB12AA13A914901120E475B6
:10930000F001122C6585F082F583E528122B90E59B
:10931000282517F5172518F5189011227404F00266
:1093200093DF751500852816E5282517F5172518EC
:10933000F5189011227405F00293DFE528FEE4256C
:1093400016F516EE3515F515E5282517F517251828
:10935000F518E5164515901122700280417406F04B
:10936000807DAB12AA13A914901120E475F00112AC
:109370002C6585F082F583E528122B90E5282517CA
:10938000F5172518F518E5162402FFE43515FE90AB
:109390001120E06E7003A3E06F70449011227407F7
:1093A000F0803CE517901122B528057408F0802F55
:0493B000E4F0802B3A
:1093B4009002B1E0FFB402067E007F008003EF0458
:1093C400FF8F29E518B5280E9002B2E065296006E2
:0B93D4009002B1E529F0901122E4F0B6
:1093DF005398FEE59830E1709002A8E07002A3E088
:1093EF0060579002B0E024BB601A24E0601624F6A8
:1093FF006004242070229002AD12306F122B0530C2
:10940F00E00E80119002AD12306F122B0530E00587
:10941F0043980480035398FB9002AD12306F122BC8
:10942F0005F5999002AEE475F001122C4F9002A849
:10943F0074FFF5F0122C4F800C7B007A00790090AE
:08944F0002AD1230785398FDC4
:10945700D007D006D003D002D001D000D0D0D08220
:07946700D083D0F0D0E03209
:0300730002ADE7F4
:10ADE700C0E0C0F0C083C082C0D075D000C000C032
:03ADF70006C0078C
:10ADFA0075840153C87F90027DE475F001122C4FCF
:10AE0A009002CDE0FEA3E0FF90027DE0B50619A313
:10AE1A00E0B507149002CDE475F0A0122C4F900013
:10AE2A005CE475F001122C4FE4FFFE74372FF582B3
:10AE3A00E4340CF583E0600D74372FF582E4340CAA
:10AE4A00F583E014F00FBF00010EEF64034E70DBD0
:10AE5A0075840F20E816C39002D4E094FF9002D3C1
:10AE6A00E094FF5007E475F001122C4F75840075C9
:06AE7A00BB00C2EDD2ECAA
:10AE8000D007D006D000D0D0D082D083D0F0D0E090
:01AE9000328F
:10784200257300506C61636520756E697420666CE7
:107852006174206F6E206C6576656C20737572663C
:107862006163652E00466C6970206F7665722E200A
:107872004661636520646F776E2E00486F6C6420EA
:10788200766572746963616C2C2047505320616E77
:1078920074656E6E61206A61636B2075702E00489C
:1078A2006F6C6420766572746963616C2C2047503A
:1078B2005320616E74656E6E61206A61636B206431
:1078C2006F776E2E005374616E64206F6E20726942
:1078D20067687420736964652E005374616E642056
:1078E2006F6E206C65667420736964652E00496E44
:1078F20076657274696E6720582056616C7565737F
:1079020000496E76657274696E6720592056616C03
:1079120075657300496E76657274696E67205A20C8
:1079220056616C7565730020005A65726F20506F46
:10793200696E74733A20582025752C2059202575BC
:107942002C205A20257500582052616E67653A2016
:1079520025752C20257500592052616E67653A20E5
:1079620025752C202575005A2052616E67653A20D4
:1079720025752C2025750053746F72696E6720433C
:10798200616C6962726174696F6E20446174612016
:10799200696E20466C6173682E0043616C69627285
:1079A2006174696F6E20436F6D706C6574652E0033
:1079B2005A65726F696E6720582C20592050574DB6
:1079C2000046696E616C2043616C3A2025752C2556
:1079D200750046696E616C2056616C3A2025752CE3
:1079E20025750044617461666C6173682054657327
:1079F20074002A2A20466C617368204641494C452E
:107A020044202A2A2C20706167652025642C20627C
:107A120079746525640050616765202564206F6B69
:107A22000054657374205061737365642E00496E4F
:107A3200707574205465737400444947494E3A2066
:107A42000031003000583A2025752C20593A202563
:107A520075005A3A2025752C2035563A2025750096
:107A620035563A2025752C20543A20257500413090
:107A72003A2025752C2041313A2025750041323AB1
:107A82002025752C2041333A20257500496E7075EA
:107A9200745465737420436F6D706C6574652E0049
:107AA2004F75747075742054657374006269742024
:107AB2002564004F75747075745465737420436F38
:107AC2006D706C6574652E00412F4420546573748B
:107AD20000426F61726420666C61742E205465737B
:107AE2007420666978747572652061747461636864
:107AF20065642E005820205920203556205A202017
:107B020041302041312041322041330031202000D8
:107B12003020200041445465737420504153532E49
:107B2200002A2A20414454657374204641494C205E
:107B32002A2A004469676974616C20494F205465A0
:107B42007374004F6E6C792056616C696420666FA5
:107B52007220535532202D2045786974696E672E44
:107B620000446967494F5465737420506F696E749D
:107B7200202564002A2A20204641494C202A2A0036
:107B8200446967494F5465737420504153532E0022
:107B92002A2A20446967494F546573742046414933
:107BA2004C202A2A004175746F4F6E2054657374FD
:107BB20000456E61626C696E67204175746F4F6E2D
:107BC2002E2E2E0044726F7070696E67203556201B
:107BD200456E61626C650044697361626C696E67CF
:107BE200204175746F4F6E2E2E2E004175746F4FAB
:107BF2006E5465737420504153532E00534D427599
:107C0200732054657374202D204D61737465720066
:107C120025642042797465732C202564204379639E
:107C22006C657300546F74616C204572726F7220C0
:107C3200436F756E742C20257500534D4275732069
:107C42005465737420506173732E0001020408108E
:0B7C5200204080010204081020408048
:1032EE0085844C9000047401F075840FFB7A0C7980
:1032FE003A12B6D7E4900C8AF090903393900C8BE0
:10330E00F0A374C8F0900CA3E4F0A374E3F0900C57
:10331E00A5E4F0A37408F074FFFFFEFDFC900C8D85
:10332E00122F9CC3122ECB700A900C8D122FE4001C
:10333E00000000900C91E0B4FF037401F0900C9229
:10334E00E0B4FF037409F0900CA774FFF0A3F090A3
:10335E000C937408F0A3E4F0900C957408F0A3E4B9
:10336E00F0900C3AF0900C4EF0900C62F0900CA194
:10337E00F0A374A0F0900C9FE4F0A374A0F0E4907E
:0D338E0002D3F0A3F0D2B3D2B6D2B5D2B4C0
:10339B00900CF8122FE4000107ACE4FFFEFDFC904B
:1033AB000CF8122F9CD3122EB54017900CF8122F3D
:1033BB009074FFFBFAF9F8122D62900CF8122FD8CB
:0233CB0080D8A8
:1033CD00909034E493FF3395E0FE9002A075F013D6
:1033DD00EF123053EE75F013A42583F58312306F81
:1033ED00E92407F9E43AFA7556FF7557787558428E
:1033FD007559FF755A78755B45126BA1909034E441
:10340D0093FF3395E0FE9002A075F013EF12305349
:10341D00EE75F013A42583F58312306FE92407F9B7
:10342D00E43AFA12000EEF2401F557E43EF55690FA
:0C343D009033E493FF7B737D01129A83AF
:10344900900CFC122FE4000107ACE4FFFEFDFC9098
:103459000CFC122F9CD3122EB54017900CFC122F86
:103469009074FFFBFAF9F8122D62900CFC122FD818
:0234790080D8F9
:10347B00129C51900018E0606590111AE0FEA3E0D9
:10348B00FF901115E02FFF901114E03EC313FEEFD8
:10349B0013FF900C93EEF0A3EFF090111CE0FEA342
:1034AB00E0FF901117E02FFF901116E03EC313FEC3
:1034BB00EF13FF900C95EEF0A3EFF090111EE0FED2
:1034CB00A3E0FF901119E02FFF901118E03EC313FA
:1034DB00FEEF13FF900CB2EEF0A3EFF08003127C23
:1034EB005D900018E070030235CBC2B3C2B590906B
:1034FB0034E493FF3395E0FE9002A075F013EF12C6
:10350B003053EE75F013A42583F58312306FE92445
:10351B0007F9E43AFA7556FF75577875584275599D
:10352B00FF755A78755B67126BA1909034E493FF2B
:10353B003395E0FE9002A075F013EF123053EE7549
:10354B00F013A42583F58312306FE92407F9E43ACD
:10355B00FA12000EEF2401F557E43EF55690903326
:0A356B00E493FF7B737D01129A8345
:10357500900D00122FE4000107ACE4FFFEFDFC9066
:103585000D00122F9CD3122EB54017900D00122F4F
:103595009074FFFBFAF9F8122D62900D00122FD8E6
:0235A50080D8CC
:1035A700129C5190111EE0FEA3E0FF901119E02F2D
:1035B700FF901118E03EC313FEEF13FF900CB0EE1F
:1035C700F0A3EFF0C2B3C2B6C2B5C2B4909034E470
:1035D70093FF3395E0FE9002A075F013EF1230537E
:1035E700EE75F013A42583F58312306FE92407F9EC
:1035F700E43AFA7556FF7557787558427559FF754D
:103607005A78755B7D126BA1909034E493FF3395E4
:10361700E0FE9002A075F013EF123053EE75F01331
:10362700A42583F58312306FE92407F9E43AFA12E7
:10363700000EEF2401F557E43EF556909033E493DE
:08364700FF7B737D01129A83E1
:10364F00900D04122FE4000107ACE4FFFEFDFC9087
:10365F000D04122F9CD3122EB54017900D04122F6C
:10366F009074FFFBFAF9F8122D62900D04122FD807
:02367F0080D8F1
:10368100129C5190111AE0FEA3E0FF901115E02F5A
:10369100FF901114E03EC313FEEF13FF900C99EE5F
:1036A100F0A3EFF0900018E0602190111EE0FEA35E
:1036B100E0FF901119E02FFF901118E03EC313FEB7
:1036C100EF13FF900CAEEEF0A3EFF0D2B390903475
:1036D100E493FF3395E0FE9002A075F013EF1230F2
:1036E10053EE75F013A42583F58312306FE9240797
:1036F100F9E43AFA7556FF7557787558427559FFCE
:10370100755A78755BA1126BA1909034E493FF33E5
:1037110095E0FE9002A075F013EF123053EE75F0B4
:1037210013A42583F58312306FE92407F9E43AFAEB
:1037310012000EEF2401F557E43EF556909033E464
:0937410093FF7B737D01129A8352
:10374A00900D08122FE4000107ACE4FFFEFDFC9087
:10375A000D08122F9CD3122EB54017900D08122F68
:10376A009074FFFBFAF9F8122D62900D08122FD807
:02377A0080D8F5
:10377C00129C5190111AE0FEA3E0FF901115E02F5E
:10378C00FF901114E03EC313FEEF13FF900C97EE65
:10379C00F0A3EFF0D2B6909034E493FF3395E0FEB3
:1037AC009002A075F013EF123053EE75F013A425B0
:1037BC0083F58312306FE92407F9E43AFA7556FF62
:1037CC007557787558427559FF755A78755BC712DD
:1037DC006BA1909034E493FF3395E0FE9002A075BA
:1037EC00F013EF123053EE75F013A42583F583120A
:1037FC00306FE92407F9E43AFA12000EEF2401F5D0
:10380C0057E43EF556909033E493FF7B737D0112A1
:02381C009A838D
:10381E00900D0C122FE4000107ACE4FFFEFDFC90AE
:10382E000D0C122F9CD3122EB54017900D0C122F8B
:10383E009074FFFBFAF9F8122D62900D0C122FD82E
:02384E0080D820
:10385000129C5190111CE0FEA3E0FF901117E02F85
:10386000FF901116E03EC313FEEF13FF900C9BEE8A
:10387000F0A3EFF0D2B5909034E493FF3395E0FEDF
:103880009002A075F013EF123053EE75F013A425DB
:1038900083F58312306FE92407F9E43AFA7556FF8D
:1038A0007557787558427559FF755A78755BDC12F3
:1038B0006BA1909034E493FF3395E0FE9002A075E5
:1038C000F013EF123053EE75F013A42583F5831235
:1038D000306FE92407F9E43AFA12000EEF2401F5FB
:1038E00057E43EF556909033E493FF7B737D0112CD
:0238F0009A83B9
