:10AC1F008584317B017A0C792912AD94900016E06E
:10AC2F00702EF58475D98075D84075DA4275DB4280
:10AC3F00900C8EE0A3E0F5FB900C8EE0A3E0F5FC0A
:10AC4F00900C90E0A3E0F5FD900C90E0A3E0F5FEF2
:10AC5F00900CA9E0FD7C007E057F00123B978E7162
:10AC6F008F72E4F58475E8C075D107F5BAF5BB7539
:08AC7F00BC7043E7028531843B
:01AC870022AA
:03007B00029C7C68
:109C7C00C0E0C0F0C083C082C0D075D000C000C0AE
:0B9C8C0002C003C004C005C006C007F2
:109C9700758400C2EDE57325E02427F582E43400DE
:109CA700F583E5BF85BEF0123C22E5731240A59C03
:109CB700D2009CDA019CE2029CF5039CFD049D0501
:109CC700059D0D069D150700009D1B75BB0175734E
:109CD70001804175BB027573028039900016E06000
:109CE7000575BB07800375BB08757303802675BBB5
:109CF70003757304801E75BB04757305801675BBE9
:109D070005757306800E75BB06757307800675BBF0
:109D170000757300E5721572700215711445716054
:049D270003029E0E87
:109D2B00900CA9E0FF74A08FF0841313543F75229D
:109D3B0000F523E4FBFAEB64034A7026900016E06F
:109D4B007020900CA9E075F00A84FF7E0090002D26
:109D5B00E0FCA3E0FD123B8590001DEEF0A3EFF0BD
:109D6B008037EB25E0FFEA33FE74272FF582740072
:109D7B003EF583E0FEA3E0FFAC22AD23123B97AC94
:109D8B0006AD07EB25E0FFEA33FE74172FF582745F
:109D9B00003EF583ECF0A3EDF0EB25E0FFEA33FE9C
:109DAB0074272FF58274003EF583E4F0A3F00BBB10
:109DBB0000010AEB64084A6003029D41900004E035
:109DCB007029900C88E0FEA3E0FF900C87E02FFF3A
:109DDB00900C86E03EFE900017E0FCA3E0FDC3EF85
:109DEB009DFFEE9C900017F0A3EFF0900CA9E0FD07
:109DFB007C007E057F00123B978E718F7290029CC8
:039E0B007401F0EF
:0C9E0E00E5737003D38001C34002D2EC66
:109E1A00D007D006D005D004D003D002D000D0D0CD
:099E2A00D082D083D0F0D0E032E8
:10B0D500EF6004C2B18002D2B1E4FF0FBF1EFCD203
:10B0E500B2E4FF0FBF1EFCE4FEB2B1E4FF0FBF1ECA
:07B0F500FC0EBE85F4C2B29F
:01B0FC002231
:0CA15A0030D80302A29120D90302A29188
:10A16600E4F531F5327B017A00794DF54E754F03F2
:0BA176007F107E0212A822C2C8C2CADD
:10A18100900CD0123F7F000001C2E4FFFEFDFC9065
:10A191000CD0123F37D3123E504017900CD0123FD3
:10A1A1002B74FFFBFAF9F8123CFD900CD0123F73AF
:02A1B10080D854
:10A1B30020DB0302A28220DC0302A282D2CAE4F5DE
:10A1C30031F53230DC100532E53270020531B4E886
:10A1D300F2E531B403ED30DC079002E17401F022C3
:10A1E3009001F5E0C394014006E0D3940640069045
:10A1F30001F57405F09001F5E0540FC454F0FFE04D
:0FA20300540F4FF534E4F533E5341392C8B2CA63
:10A21200900CD4123F7F000001C2E4FFFEFDFC90CF
:10A222000CD4123F37D3123E504017900CD4123F39
:10A232002B74FFFBFAF9F8123CFD900CD4123F7319
:02A2420080D8C2
:10A24400E534C313F5340533E533B408BAE4F53122
:10A25400F53220DC100532E53270020531B4E8F243
:10A26400E531B403ED9002E130DC167402F0900C99
:0EA274001904F0D2C8C2CA900C1B7405F02267
:0FA282009002E17401F0E4900C19F0900C1BF0C5
:01A2910022AA
:108C4D00436F707972696768742028432920323028
:108C5D00313320547261636B2053797374656D7376
:108C6D0020546563686E6F6C6F676965732C204C5B
:108C7D004C43000200FF000000C0C1C1810140C390
:108C8D000103C00280C241C60106C00780C741056D
:108C9D0000C5C1C4810440CC010CC00D80CD410F75
:108CAD0000CFC1CE810E400A00CAC1CB810B40C995
:108CBD000109C00880C841D80118C01980D9411BCD
:108CCD0000DBC1DA811A401E00DEC1DF811F40DDED
:108CDD00011DC01C80DC411400D4C1D5811540D7C5
:108CED000117C01680D641D20112C01380D3411195
:108CFD0000D1C1D0811040F00130C03180F141333D
:108D0D0000F3C1F28132403600F6C1F7813740F5EC
:108D1D000135C03480F4413C00FCC1FD813D40FF74
:108D2D00013FC03E80FE41FA013AC03B80FB413914
:108D3D0000F9C1F88138402800E8C1E9812940EBEC
:108D4D00012BC02A80EA41EE012EC02F80EF412D6C
:108D5D0000EDC1EC812C40E40124C02580E54127C4
:108D6D0000E7C1E68126402200E2C1E3812340E114
:108D7D000121C02080E041A00160C06180A141635C
:108D8D0000A3C1A28162406600A6C1A7816740A56C
:108D9D000165C06480A4416C00ACC1AD816D40AF74
:108DAD00016FC06E80AE41AA016AC06B80AB416994
:108DBD0000A9C1A88168407800B8C1B9817940BBCC
:108DCD00017BC07A80BA41BE017EC07F80BF417DEC
:108DDD0000BDC1BC817C40B40174C07580B54177C4
:108DED0000B7C1B68176407200B2C1B3817340B194
:108DFD000171C07080B041500090C191815140937C
:108E0D000153C052809241960156C05780974155EB
:108E1D000095C1948154409C015CC05D809D415F73
:108E2D00009FC19E815E405A009AC19B815B409913
:108E3D000159C058809841880148C0498089414BEB
:108E4D00008BC18A814A404E008EC18F814F408D6B
:108E5D00014DC04C808C41440084C18581454087C3
:108E6D000147C046808641820142C0438083414113
:078E7D000081C1808140402B
:10A49900500017000000000000000000000000004C
:10A4A900000000430C26000000410C1800410CA9D3
:10A4B9000A41000500026F0000026B0000500027EE
:10A4C9000000000000000000000000000000000083
:10A4D90001730041029C00410CB0004200020000DF
:10A4E900410CAC0042025F000042004B00004202F6
:10A4F900AF00A0410CAB00410CAF004202B200001A
:10A5090041000100410004004102E200410BD20078
:10A51900410CAA0002740000026D00004202B5005D
:10A52900004102B1004102E30041000000410CB1C9
:10A5390000410016004102E10041001400410015EC
:05A54900004102E404E2
:1016A300E4F52DF52CF52BF52A900CCFF075840F6E
:1016B30075FFDE75FFAD12AD3D12AACAC2B4C2B545
:1016C300C2B612002675340175350975363C7B01A7
:1016D3007A0C791612A3B712A292900CA97414F083
:1016E300E49002B1F0900CCBF0A3F0900CCBE0FAB5
:1016F300A3E0FB9002C175F015123FEEEA75F015F9
:10170300A42583F583123F7F000000009002BD757E
:10171300F015EB123FEEEA75F015A42583F583125D
:101723003F7F00000000900CCBE0FAA3E0FB9002A7
:10173300B775F015123FEEEA75F015A42583F5830E
:10174300123F7F000000009002C575F015EB123FB9
:10175300EEEA75F015A42583F583E4F0A3F0900C6D
:10176300CBE0FEA3E0FF9002BB75F015123FEEEE57
:1017730075F015A42583F583E4F0A3F09002CA75F0
:10178300F015EF123FEEEE75F015A42583F583E413
:10179300F09002C975F015EF123FEEEE75F015A447
:1017A3002583F583E4F09002C875F015EF123FEE40
:1017B300EE75F015A42583F583E4F09002C775F068
:1017C30015EF123FEEEE75F015A42583F583E4F0D3
:1017D3009002CB75F015EF123FEEEE75F015A425D0
:1017E30083F583E4F0900CCB75F001123C22900C4E
:1017F300CBE07004A3E0640260030216EEE4900001
:1018030000F012AC1F7F007E9612B0AB12B16F12C4
:10181300AF13E4900276F09002897402F090029282
:10182300744EF07B017A0279E59002851240137AB7
:1018330009793E9002981240137A07791F90028229
:101843001240137A0B79D3900295124013E490025D
:1018530075F090028804F090027F744EF0E49002D9
:101863008AF0A3F0900277F0A3F0900294F0900234
:1018730081F0900293F0900280F01BFAF990028FAE
:1018830012401390028C12401390027C124013906A
:1018930002791240130B7A0279757F007E847D03EF
:1018A3007C001292E9900016E07B017A027988604D
:1018B300067F807E2580047F007EE17D007C001210
:1018C30092E9900016E060247B017A02796590002A
:1018D300471240137A02799D900044124013E4901A
:1018E3000040F0A3F090004AF012B159E4900C19B3
:0C18F300F012A15AD2AF900016E0603550
:1018FF00900CB4123F7F00006978E4FFFEFDFC906E
:10190F000CB4123F37D3123E504017900CB4123F15
:10191F002B74FFFBFAF9F8123CFD900CB4123F73D5
:02192F0080D85E
:101931001284321200A6900CB17401F0E4900C1ADA
:10194100F0900C25F0900C1FF0A3F0900C1DF0A36B
:10195100F0A2DA33900C1CF0900260E024C0FE90FB
:10196100025FE03402900C23F0A3CEF090004BE034
:10197100FCA3E0FD2406FEE43C900C21F0A3CEF094
:10198100ED240AFEE43C900CCDF0A3CEF07B017A6D
:1019910000794D754E00754F037F107E0212A8220B
:1019A1009001F3E0540F900006F09001F3E054F041
:1019B100C4540F900007F0E5D85403700F900C1930
:1019C100E064036007E4F0900C1B8061900006E086
:1019D100FF6403600AEF64076005EF6406705A90C4
:1019E1000C19E064036057E5D85403FFBF0333309B
:1019F100DA307404F0900006E0640660037407F0C6
:101A0100900C1B7404F0900CCF7401F0900260E014
:101A11002458FE90025FE03400900C23F0A3CEF036
:101A2100801CE5D85403FF900C19BF02057402F025
:101A3100800C7401F0A3F08005E4900C19F0E4909F
:101A41000CCBF0A3F090093CE0FEA3E0FF900CCB9F
:101A5100E0FCA3E0FDC39FEC9E5017744D2DF58271
:101A610074003CF583E4F0900CCB75F001123C223C
:101A710080D390029CE06067C390001CE094B89012
:101A8100001BE0940B5058C2B3C2B6C2B5C2B490A9
:101A91000016E06004D2FC8002C2FCE4F54CF54D76
:091AA1007B937D037F021296FC89
:101AAA00900CB8123F7F000A4CB8E4FFFEFDFC9090
:101ABA000CB8123F37D3123E504017900CB8123F61
:101ACA002B74FFFBFAF9F8123CFD900CB8123F7325
:021ADA0080D8B2
:101ADC00C2FF80FE90004BE0FEA3E0FF900CCDE037
:101AEC00B50613A3E0B5070EA37401F0900CCDE47A
:101AFC0075F001123C22900C19E0FF640370403029
:101B0C00DC08900C1B7405F0800E900C1B30DB0570
:101B1C007406F080037404F0900C1FE0FCA3E0FD4D
:101B2C0090025FE06C7003A3E06D6003021D949063
:101B3C000C1AE064086003021D94D2CA021D94EFD3
:0F1B4C006402600B900C19E064046003021D94A6
:101B5B00E4F52E90004BE0FEA3E0FF900CCDE0B53A
:101B6B000613A3E0B5070EA37401F0900CCDE4753A
:101B7B00F001123C2230DB17900C1BE06406700363
:101B8B00021C637406F0900CCF7401F0021C63907E
:101B9B000C1BE0B4063D7404F0900260E02403FEDD
:101BAB0090025FE03400900C23F0A3CEF0A2DAE4B5
:101BBB0033900C1CF0E4900C25F0900CCF04F090BB
:101BCB00004CE02405FE90004BE03400900CCDF06F
:101BDB00A3CEF0900C23E0FEA3E0FF90025FE0FCAD
:101BEB00A3E0FD6F7002EC6E706EA2DA33FF900C07
:101BFB001CE0FE6F702D900C25E0C394025005E0A5
:101C0B0004F08047EE600C900C1BE06404603C74A5
:101C1B0004800A900C1BE0640360307403F0900C9A
:101C2B00CF8025900C1BE0640560097405F0900CC7
:101C3B00CF7401F0900C1CE070047F0180027F00D8
:101C4B00900C1CEFF0900C257401F0ED2458FEE481
:101C5B003C900C23F0A3CEF0900C19E064047003BD
:101C6B00021CEFA3E06004A3E07020900C1B740334
:101C7B00F0900C1A7401F090004CE02405FE9000DB
:101C8B004BE03400900C21F0A3CEF0900C21E0FE41
:101C9B00A3E0FF90004BE0B50619A3E0B507149045
:101CAB000C21E475F00A123C22900C1BE0B40303E8
:101CBB00752E01900C18E0FFC394054009EFD394E7
:101CCB00205003E4F52EE52E601A900C1A7405F0E3
:101CDB00900260E02403FE90025FE03400900C1F42
:101CEB00F0A3CEF0900C1FE0FEA3E0FF90025FE0AC
:101CFB00FCA3E0FD6F7002EC6E6003021D94900C70
:101D0B001AE024FD606124FE6026146060240470D8
:101D1B0078900C1A7403F0900006E0B40605ED24DD
:101D2B00788003ED2428FEE43C900C1FF0A3CEF04A
:101D3B00900C1AE0B4051C7406F0900006E0B40693
:101D4B0005ED24788003ED2428FEE43C900C1FF075
:101D5B00A3CEF0900C19E024FE600824FE6004244E
:101D6B00037026D2CC8022900C1A7404F0900C1ABB
:101D7B00E0B406037401F0900C19E024FE60082413
:091D8B00FE600424037002C2CCC6
:101D9400900014E06062900C18E0FFC394054006C4
:101DA400EFD394204052EF64F0604DEF64F160484B
:101DB400EF64F26043900CCFE0603DE4F0900C1BC4
:101DC400E0FF908C83E493FD3395E0FC90028275F0
:101DD400F013ED123FEEEC75F013A42583F5831296
:101DE400400A900007EF123B63754C00754D017B70
:101DF400297D037F021296FC90027912400AE94A77
:031E04004B602B05
:101E070090027912400A8B2E8A2F89307B007A0044
:101E17007900900279124013AB2EAA2FA930E4FF64
:0B1E27001241A0900CC9EEF0A3EFF0F8
:101E3200900CABE0700302204AE4F09002E2E0F47E
:101E42006003021F14900C19E0FFB40305C2CA021A
:101E52001F07EF64026003021F07900C1BE0B40629
:031E620036D2CCA9
:101E6500900CBC123F7F0001B774E4FFFEFDFC90AF
:101E75000CBC123F37D3123E504017900CBC123F9A
:101E85002B74FFFBFAF9F8123CFD900CBC123F7362
:021E950080D8F3
:0A1E9700C2CC900C1BE064036066EF
:101EA100900CC0123F7F000DBBA0E4FFFEFDFC9033
:101EB1000CC0123F37D3123E504017900CC0123F56
:101EC1002B74FFFBFAF9F8123CFD900CC0123F7322
:021ED10080D8B7
:021ED300D2CC6F
:101ED500900CC4123F7F00112A88E4FFFEFDFC90A0
:101EE5000CC4123F37D3123E504017900CC4123F1A
:101EF5002B74FFFBFAF9F8123CFD900CC4123F73EA
:021F050080D882
:101F0700C2B3C2B6C2B5C2B4C2FF02204A9002E24F
:101F1700E0FF64F07023900C18EFF0E4F574F575AA
:101F270090000574FFF0D2B3D2B6D2B5D2B4C2A82E
:101F370053E7FD53E7BF022045EFB4F10F900C18AC
:101F4700F0C2B3C2B6C2B5C2B4022045EF64F270A4
:101F57002B900C18EFF0D2B3D2B6D2B5D2B4900C06
:101F670017E024FFFD900C16E034FFFCE4FBFFFEB6
:101F770012ABB2E4F58443EF0102204A9002E2E09B
:101F8700FFC394054008EFD394205002D2B69002C5
:101F9700E2E0FFC394054009EFD39426500312668D
:101FA700859002E2E0FFC39405400CEFD3942650DE
:101FB700067E007F0180047E007F00900C18E0FD04
:101FC700C39405400CEDD3942650067C007D018018
:101FD700047C007D00ED6F7002EC6E60599002E2A8
:101FE700E0FFC39405403CEFD39426503612AC1F54
:101FF7001200A6E4900CB0F0900CA9E0FF74A08F3B
:10200700F08475F00AA4FF900260E02401FD9002BD
:102017005FE03400CD2FFEED35F0900002F0A3CE47
:10202700F08013900C18E0FFC394054009EFD39498
:10203700205003129E339002E2E0900C18F0E490D7
:1020470002E2F0900C18E0FFC394055003021A73E4
:10205700EFD394264003021A7390027912400AE9DB
:102067004A4B6003021A73900C28E06003021A734C
:1020770090027C12400AE94A4B6003021A739002ED
:102087009CE0700302237590001CE094B890001B3D
:10209700E0940B4007E490029CF0800690029C7449
:1020A70001F0C3E570940AE56F648094804006757B
:1020B7006F00757009900016E090001D6012E0C473
:1020C700F854F0C8A3E0C4540F4890029BF0803244
:1020D700E0FEA3E0FFEF24FBFFEE34EBFEE434FF6A
:1020E700FDE434FFFCE47BE87A03F9F8123D18E4D9
:1020F7007BE57A24F9F812AFA290029BEFF0E02477
:10210700CEF0900019E0540FFD900017E0540FC473
:10211700F854F0C8E4C4540F482DFF908C83E4931F
:10212700FD3395E0FC90028275F013ED123FEEEC63
:1021370075F013A42583F58312400A900007EF1268
:102147003B6390006375F033E570123FEEE56F7502
:10215700F033A42583F58375F003E56C123FEEE5B4
:102167006B75F003A42583F583E0FF900017A3E0C8
:10217700FEEF2EFF908C83E4933395E0FC90028270
:1021870075F013ED123FEEEC75F013A42583F5837C
:1021970012400A900008EF123B6390006475F03319
:1021A700E570123FEEE56F75F033A42583F583756F
:1021B700F003E56C123FEEE56B75F003A42583F59C
:1021C70083E0FF900019A3E0FEEF2EFF908C83E4DD
:1021D700933395E0FC90028275F013ED123FEEEC1D
:1021E70075F013A42583F58312400A900009EF12B6
:1021F7003B63E5D8F4FF90028275F013ED123FEED2
:10220700EC75F013A42583F58312400A90000AEFBA
:10221700123B63900264E0FF900025E0FEA3E0A874
:1022270007088005CEC313CE13D8F9FF908C83E43B
:1022370093FD3395E0FC90028275F013ED123FEEAB
:10224700EC75F013A42583F58312400A90000BEF79
:10225700123B63900263E0FF900023E0FEA3E0A837
:1022670007088005CEC313CE13D8F9FF908C83E4FB
:1022770093FD3395E0FC90028275F013ED123FEE6B
:10228700EC75F013A42583F58312400A90000CEF38
:10229700123B63900262E0FF900021E0FEA3E0A8FA
:1022A70007088005CEC313CE13D8F9FF908C83E4BB
:1022B70093FD3395E0FC90028275F013ED123FEE2B
:1022C700EC75F013A42583F58312400A90000DEFF7
:1022D700123B63900261E0FF90001FE0FEA3E0A8BD
:1022E70007088005CEC313CE13D8F9FF908C83E47B
:1022F70093FD3395E0FC90028275F013ED123FEEEB
:10230700EC75F013A42583F58312400A90000EEFB5
:10231700123B6390025DE0A3FF90028275F013ED1C
:10232700123FEEEC75F013A42583F58312400A9053
:10233700000FEF123B6390025DA3E0FF90028275EE
:10234700F013ED123FEEEC75F013A42583F583121D
:10235700400A900010EF123B63754C00754D0A7BE5
:10236700927D037F021296FC128A0F021A73900263
:0A23770094E0FF900293E06F606DA8
:10238100EF75F0DCA4FF90029812400AE92FF9EAF8
:1023910035F08B2EF52F8930900294E0FFB40204C2
:1023A1007F008003EF04FF900294EFF090029BE026
:1023B100FF90006175F033E570123FEEE56F75F047
:1023C10033A42583F583EFF0AE6FAF707C007D33CE
:1023D100123B85744D2FF974003E753401F5358932
:0A23E10036AB2EAA2FA930124B04D0
:1023EB00021A73900CB0E0FD7017900002E0FEA390
:1023FB00E0FF90025FE06E7003A3E06F6003021AD0
:10240B0073900CA9E0FF74A08FF08475F00AA4FF01
:10241B00900260E02401FB90025FE03400CB2FFEC2
:10242B00EB35F0900002F0A3CEF0ED702C90001580
:10243B00E06017900CB07401F0900CAF7406F09044
:10244B0002B2E4F0A374C8F08005E4900CAFF090F6
:10245B00000274FFF5F0123C229002E4E0FA7003E4
:10246B00022548900C18E0FFC39405500302254841
:10247B00EFD394204003022548900CB0E070030288
:10248B002617900C19E0FBB4030DA3E0640870034E
:10249B0002253274088075EB7003022532900C18FC
:1024AB00E0FFC394055003022532EFD394205077FD
:1024BB00900C1BE06406606F900CA9E0B428209090
:1024CB000C19E0B40414900006E0900CC8B4060597
:1024DB007423F0802B7410F08026900CC88016901B
:1024EB000C19E0B40414900006E0900CC8B4060577
:1024FB00740CF0800B7406F08006900CC87404F01A
:10250B00900CC8E0B50220900C1A7402F0900C1DD0
:10251B00E0FEA3E0FF900260E02FFF90025FE03E41
:07252B00900C1FF0A3EFF07C
:102532009002E4E014F06003022617F56BF56CF5E7
:062542006FF57002261780
:10254800900CAFE0FF908C83E493FD3395E0FC9012
:10255800028275F013ED123FEEEC75F013A425839B
:10256800F58312400A900007EF123B639002B2E035
:10257800A3FF90028275F013ED123FEEEC75F01395
:10258800A42583F58312400A900008EF123B63905C
:1025980002B2A3E0FF90028275F013ED123FEEEC59
:1025A80075F013A42583F58312400A900009EF12F1
:1025B8003B63900C1BE0FF90028275F013ED123F15
:1025C800EEEC75F013A42583F58312400A90000AF7
:1025D800EF123B63754C00754D047B277D037F022A
:1025E8001296FCE4F52EF52FD390093DE0952F9037
:1025F800093CE0952E4018744D252FF5827400355E
:0F2608002EF583E4F0052FE52F70DD052E80D928
:10261700E4900CB0F09002E3F0900CAFE06007B2EA
:0B262700B5E4F0021A73C2B5021A738A
:109E3300C2B6C2B5900C19E0B40309C2CAA3740731
:0C9E4300F0029FD1900C1AE064037071D3
:109E4F00900CD0123F7F00015F90E4FFFEFDFC906D
:109E5F000CD0123F37D3123E504017900CD0123F08
:109E6F002B74FFFBFAF9F8123CFD900CD0123F73E4
:029E7F0080D889
:039E8100E4F5C83D
:109E8400900CD4123F7F00020F58E4FFFEFDFC90BB
:109E94000CD4123F37D3123E504017900CD4123FCB
:109EA4002B74FFFBFAF9F8123CFD900CD4123F73AB
:029EB40080D854
:109EB600900C1A7401F0A37404F0900C19E0640479
:0A9EC6007073900C1BE06406706BD3
:109ED000900CD8123F7F00015F90E4FFFEFDFC90E4
:109EE0000CD8123F37D3123E504017900CD8123F77
:109EF0002B74FFFBFAF9F8123CFD900CD8123F735B
:029F000080D807
:029F0200D2CCBF
:109F0400900CDC123F7F001339E0E4FFFEFDFC906F
:109F14000CDC123F37D3123E504017900CDC123F3A
:109F24002B74FFFBFAF9F8123CFD900CDC123F7322
:029F340080D8D3
:109F3600C2CC029FCB900C19E0B40208900C1BE037
:109F46006406600E900C19E064026079A3E0640474
:029F5600707326
:109F5800900CE0123F7F00015F90E4FFFEFDFC9053
:109F68000CE0123F37D3123E504017900CE0123FDE
:109F78002B74FFFBFAF9F8123CFD900CE0123F73CA
:029F880080D87F
:0D9F8A00900C19E024FE6003047036D2CC68
:109F9700900CE4123F7F0001B774E4FFFEFDFC90D4
:109FA7000CE4123F37D3123E504017900CE4123F97
:109FB7002B74FFFBFAF9F8123CFD900CE4123F7387
:029FC70080D840
:109FC900C2CC900C1A7401F0900C19E06403600380
:049FD900E4F5C822C1
:1066850090025FE0F533A3E0F534E4F56FF570F5BE
:106695006BF56C900CAFF0A3F090093CE0FEA3E025
:1066A500FF7B017A00794D754E00754F0112A822C6
:1066B500900BD2E024FC60542402600302675E90D4
:1066C5000CA97414F0900C19E024FE601524FE60EA
:1066D5001C0460030267B1900C1D7401F0A37420C3
:1066E5008054900C1DE4F0A374F002678D900C1D8E
:1066F500E4F0A37408F0900006E09002E4B4060606
:106705007413F00267B1740AF00267B1900CA974B2
:1067150028F0900C19E024FE601424FE601E04602D
:10672500030267B1900C1DE4F0A374908008900CEF
:106735001DE4F0A374A4F09002E4806D900C1DE4B8
:10674500F0A37408F0900006E09002E4B406057426
:1067550023F080587410F08053900CA9740AF090BF
:106765000C19E024FE601824FE602604703E900C8F
:106775001DE4F0A374A0F09002E47401F0802D9064
:106785000C1D7402F0A37434F09002E47404F080DC
:106795001B900C1DE4F0A37408F0900006E0900235
:1067A500E4B40605740CF080037406F0900CAAE0BE
:1067B5009002B1F09002ADE0FCA3E0FD4C700890B2
:1067C500000AF0A3F080679002B4E0701E123786CD
:1067D500A804A905AA06AB07E4FFFE7D7A7C48124A
:1067E50036661237BF7C007DF080389002B4E0B485
:1067F5000F037410F09002ADE0FCA3E0FDE4123746
:1068050086A804A905AA06AB07E4FFFE7D7A7C48A5
:106815001236661237BF9002B4E0FD74788DF084AD
:10682500FD7C00123B8590000AEEF0A3EFF0E5D861
:10683500540370079002B1F0026B3F7B017A007937
:106845004D754E00754F037F107E0212A822900CE5
:1068550019E0B4040D900006E06406600F7407F0BB
:10686500800A9001F3E0540F900006F09001F3E0E8
:1068750054F0C4540F900007F0E4F531F532900060
:106885006575F028E532123FEEE53175F028A4254F
:1068950083F583E024FB601524FB702274612532A7
:1068A500F58274023531F5837403F0802074612517
:1068B50032F58274023531F5837402F0800F74610C
:1068C5002532F58274023531F5837404F00532E51D
:1068D50032700205316404453170A3E4F531F532B7
:1068E50090007275F028E532123FEEE53175F0281B
:1068F500A42583F583E0FDE53225E0FFE53133FE90
:10690500740D2FF58274003EF583EDF090006675E9
:10691500F028E532123FEEE53175F028A42583F520
:1069250083123F3790006A75F028E532123FEEE595
:106935003175F028A42583F583123F2B123468C0E6
:1069450004C005C006C00790006675F028E5321240
:106955003FEEE53175F028A42583F583123F379086
:10696500006E75F028E532123FEEE53175F028A48A
:106975002583F583123F2B123468D003D002D00152
:10698500D000123666E4FBFAF9F812370390006678
:1069950075F02860054003026A1DE532123FEEE5F9
:1069A5003175F028A42583F583123F3790006A7569
:1069B500F028E532123FEEE53175F028A42583F580
:1069C50083123F2B123468C004C005C006C007906F
:1069D500006675F028E532123FEEE53175F028A422
:1069E5002583F583123F3790006E75F028E5321246
:1069F5003FEEE53175F028A42583F583123F2B1270
:106A05003468D003D002D001D000123666C004C06D
:106A150005C006C007026AA3E532123FEEE53175EF
:106A2500F028A42583F583123F3790006A75F02876
:106A3500E532123FEEE53175F028A42583F5831282
:106A45003F2B123468C004C005C006C0079000661D
:106A550075F028E532123FEEE53175F028A425835F
:106A6500F583123F3790006E75F028E532123FEE40
:106A7500E53175F028A42583F583123F2B12346880
:106A8500D003D002D001D000123666123770AB07A2
:106A9500AA06A905A804C000C001C002C003900051
:106AA5007375F028E532123FEEE53175F028A4251F
:106AB50083F583E0FF90007475F028E532123FEE10
:106AC500E53175F028A42583F583E0C39FFDE494A3
:106AD50000FCE4123786D003D002D001D000123575
:106AE5005DC004C005C006C00790007375F028E5B9
:106AF50032123FEEE53175F028A42583F583E0FCDD
:106B0500E412378BD003D002D001D00012346C12BE
:106B150037BFAD07E53225E0FFE53133FE740C2FB5
:106B2500F58274003EF583EDF00532E5327002051D
:106B3500316404453160030268E59002B1E030E755
:106B4500034403F0E4F531F532D390093DE0953285
:106B550090093CE095314018744D2532F58274005A
:106B65003531F583E4F00532E53270DD053180D944
:016B750022FD
:098A0F009002B1E07003028C4CEE
:038A1800753106AF
:108A1B00AF319002B1E0FEA807088002C313D8FC67
:108A2B0020E003028C3EE5311240A58BB1008BA8F0
:108A3B00018A99028A99038A57048A57058A4F0635
:108A4B0000008C3EE5D8F4F532028C3EAF31EF33AB
:108A5B0095E0FEEF25E0FFEE33FE741B2FF58274DD
:108A6B00003EF583E0FEA3E0FFAD31ED3395E0FC76
:108A7B00745F2DF58274023CF583E0FDEFA80508C9
:0E8A8B008005CEC313CE13D8F9F532028C3E0F
:108A9900E4F533AF31EF3395E0FEEF25E0FFEE3338
:108AA900FE741B2FF58274003EF583E0FEA3E0FF00
:108AB900AD31ED3395E0FC745F2DF58274023CF520
:108AC90083E0FBEFA803088005CEC313CE13D8F9C2
:108AD900F53274042DF58274003CF583E06402607C
:108AE90003028C3EAF31EF3395E0FEEF25E0FFEE58
:108AF90033FE74092FF58274003EF583E060230488
:108B0900604624FE706A74082FF58274003EF5836E
:108B1900E0FFE532D39F40047F0180027F008F335D
:108B2900804EAF31EF3395E0FEEF25E0FFEE33FEE7
:108B390074082FF58274003EF583E0B532047F0195
:108B490080027F008F338028AF31EF3395E0FEEF4D
:108B590025E0FFEE33FE74082FF58274003EF5839D
:108B6900E0FFE532C39F50047F0180027F008F330D
:108B7900E5336015E5312402FF7401A80708800276
:108B8900C333D8FC42C8028C3EE5312402FF74018C
:0F8B9900A807088002C333D8FCF452C8028C3EF0
:098BA80090025DE0F532028C3E02
:108BB10090025DE0FEA3E0FFF53290000AE0FCA325
:108BC100E0FD4C6078EF4E6074D3ED9FEC9E503821
:108BD100E4F533F53474062534F58274003533F544
:108BE10083E0B40113E5342404FF7401A80708806D
:108BF10002C333D8FCF452C80534E534700205339E
:108C01006402453370CF8035E4F533F534740625BD
:108C110034F58274003533F583E0B40112E5342470
:108C210004FF7401A807088002C333D8FC42C805B9
:0D8C310034E534700205336402453370D021
:0E8C3E001531C3E531648094804003028A1B27
:018C4C002205
:10B15900AF84E4F58475C04475CFEC43C040C2C3E5
:05B1690043E6028F84A3
:01B16E0022BE
:03003B000298CA5E
:1098CA00C0E0C083C082C0D075D000C000C001C053
:0798DA0002C003C006C00735
:1098E100C200AFC1EF1240A5992F08992F109950CE
:1098F10018997E20995028997E3099ED38998540A4
:1099010099804899855099BE5899F26099F2709A58
:1099110000809A4D889A00909A4D989A7FA09A510A
:10992100A89A51B89A65C09A7FC8000099ED900035
:109931003FE0F5C290004AE4F053C2FEA20C33426C
:10994100C2C2C5900041E4F0900040F0029A7F90BD
:109951000042E0FF900040E0FEC39F501990004498
:1099610012400A8E82758300123AF1F5C2900040CE
:10997100E004F0029A7FD2C4C20B029A7FD2C5D210
:10998100C5029A7F900041E0601624FFFFE434FF96
:10999100FE90004712400A8F828E83E5C2123B631C
:1099A100900041E004F0900043E0FF900041E0C3EB
:1099B1009F5005D2C2029A7FC2C2029A7F90004193
:1099C100E024FFFFE434FFFE90004712400A8F823B
:1099D1008E83E5C2123B63900041E004F090004A9F
:1099E1007401F0D2C4C20BD2C2029A7FD200029A91
:1099F1007F90004AE4F0900040F0A3F0029A7F903B
:109A01000041E0FF700D900043E5C2F090004AE490
:109A1100F08017EF24FFFFE434FFFE90004712406F
:109A21000A8F828E83E5C2123B63900041E004F00D
:109A3100900043E0FF900041E0D39F400B90004A2B
:109A41007401F0900041E4F0D2C28032D2C2802E83
:109A510090004412400A900040E0FF04F08F8275AC
:109A610083008015900040E024FFFFE434FFFE9066
:109A7100004412400A8F828E83123AF1F5C23000FF
:109A81001053C0BF43C040C2C5C2C4C2C2C20BC290
:039A910000C2C34D
:109A9400D007D006D003D002D001D000D0D0D082DD
:059AA400D083D0E03288
:10B14000AF84E4F584D2C6200BFDD20BC20C900074
:08B150003FE0F5C3D2C58F8476
:01B1580022D4
:10B12400AF84E4F584D2C6200BFDD20BD20C900080
:0BB134003FE0F5C3D2C5200BFD8F8467
:01B13F0022ED
:03A54E000119FFF1
:10AACA00AF8475840F75E1EF75E20775E34475A4E9
:10AADA00157580EA75ADFF75A53D759001E4F5A67B
:10AAEA0075A0FFF59E75E8FFE5E854E0FEBEC004D8
:10AAFA007E0180027E00900016EEF0600875B07943
:10AB0A0075A7FE800675B07E75A7F8E4F5C8759C32
:10AB1A00FFF59D75D8FF900016E0FE600875F8975E
:10AB2A00759FF78006759FFF75F8F7EE6006C2FC01
:08AB3A00D2FB8002D2FC8F84E3
:01AB420022F0
:10AF1300AF84E4F584F5D875D980F5F9F5FAF5E948
:10AF230075EA0C75DC4675D840900CADF0A3F09033
:10AF3300025DF0A3F0F584C28C758905438E08F594
:10AF43008AF58CC28DD28C758401758880758930A1
:07AF5300D2A943E6308F8410
:01AF5A0022D4
:0DB16F00AF84E4F584C289D288D2A88F8411
:01B17C0022B0
:03005B00029FDD24
:109FDD00C0E0C0F0C083C082C0D075D000C000C04A
:0D9FED0001C002C003C004C005C006C007CB
:109FFA0053E6CF758400AF8CEFFEAD8A7C00E42D6A
:10A00A00F525EC3EF524900CADE0FEA3E0FFC3E598
:10A01A00259FFFE5249EFED3EF9464EE940050033F
:10A02A0002A136C28C758A00758C00C28DD28CE56D
:04A03A0019F4704164
:10A03E00F519F526AE24AF25E52625E02437F58261
:10A04E00E43400F583EEF0A3EFF0E4FCFDE51D2F04
:10A05E00FFE51C3EFEED351BFDEC351A8F1D8E1CEB
:0EA06E008D1BF51A0526E526B404C990025D87
:10A07C0002A1280519E519C394044003751900E5DC
:10A08C001925E02437F582E43400F583E0FEA3E0E3
:10A09C00FBC3E51D9BFFE51C9EFEE51B9400FDE547
:10A0AC001A94008F1D8E1C8D1BF51AAE24AF25E55E
:10A0BC001925E02437F582E43400F583EEF0A3EFA4
:10A0CC00F0E4FCFDE51D2FFFE51C3EFEED351BFD10
:10A0DC00EC351A8F1D8E1C8D1BF51AE47B04FAF9D6
:10A0EC00F8AC1A123DA38E248F25C390025EE09526
:10A0FC0025FF90025DE09524FEC394004006AC065B
:10A10C00AD078009C3E49FFFE49EFCAD0790025DA0
:10A11C00E0C313FFC3ED9FEC94004007E524F0A3CC
:10A12C00E525F0900CADE4F0A3F07584015388CFD5
:03A13C0043E630C7
:10A13F00D007D006D005D004D003D002D001D00074
:0BA14F00D0D0D082D083D0F0D0E0321E
:0300530002AF5B9E
:10AF5B00C0E0C083C082C0D075D000C004C005C0A3
:10AF6B0006C00753E6CF758400AF8CEFFEAD8A7C2D
:10AF7B0000E42DFFEC3E900CADF0A3EFF0758401D7
:10AF8B005388CF43E630D007D006D005D004D0D0BD
:07AF9B00D082D083D0E03228
:03000B0002AFE65B
:10AFE600C0E0C083C08253E6CF758400C28C758AE8
:10AFF60000758C00D28C900CADE4F0A3F090025D4D
:10B00600F0A3F07584015388CF43E630D082D08315
:03B01600D0E03255
:0300030002A9D17E
:10A9D100C0E0C0F0C083C082C0D075D000C000C04C
:09A9E10003C004C005C006C00754
:10A9EA00A2AFE433FB900CB07401F0900CA9E0FD27
:10A9FA007C007E057F00123B978E718F7275730003
:10AA0A007F10900027E4F0A3DFFCC2AF53E7FE7586
:10AA1A008400C2ECC2ED75BB0075840175C8007470
:0EAA2A00FFF5CDF5CC43E70143C8042B92AFF6
:10AA3800D007D006D005D004D003D000D0D0D08223
:07AA4800D083D0F0D0E03212
:10B04C0001120101060101020100000001000000D3
:10B05C000C00000077000004A900002E9B0001D218
:10B06C00090012345600B60B61071C71C7471C71DE
:01B07C00C70C
:04A55100410DDF00D9
:1084320090029512400A8B378A388939900294E06B
:10844200900293F0E4F531F532F536F535F534F571
:1084520033AB37AA38A9390532E532AE317002059D
:1084620031142406F582E43EF58374FA123B630567
:1084720032E532AE3170020531142406F582E43E53
:10848200F583E4123B630532E532AE317002053109
:10849200142406F582E43EF5837401123B6305322F
:1084A200E532AE3170020531142406F582E43EF560
:1084B20083E4123B630532E532AE317002053114BA
:1084C2002406F582E43EF5837401123B630532E52E
:1084D20032AE3170020531142406F582E43EF58392
:1084E200E4123B63AD32AC317F087E0612A57F9069
:1084F200028AE07002A3E070F690025FE0F531A319
:10850200E0F532900294E0FF900293E0B507137811
:1085120033123F537B407A4B794C7800D3123E663C
:1085220050E1900294E0FF900293E06F70030284A6
:1085320046E4F531F532AB37AA38A9390532E532CE
:10854200AE3170020531142406F582E43EF58374DF
:1085520001123B630532E532AE317002053114245B
:1085620006F582E43EF583E4123B630532E532AE62
:108572003170020531142406F582E43EF583E412DB
:108582003B630532E532AE3170020531142406F543
:1085920082E43EF583E4123B630532E532AE31708C
:1085A200020531142406F582E43EF58374C0123BC1
:1085B200630532E532AE3170020531142406F582CC
:1085C200E43EF5837408123B630532E532AE317046
:1085D200020531142406F582E43EF583E4123B637E
:1085E2000532E532AE3170020531142406F582E41B
:1085F2003EF583E4123B63E92406F9E43AFAE925FD
:1086020032F9EA3531FA123FB000E1000074042574
:1086120032F532E43531F531AB37AA38A9390532B2
:10862200E532AE3170020531142406F582E43EF5DE
:10863200837401123B630532E532AE3170020531BB
:10864200142406F582E43EF583E4123B630532E529
:1086520032AE3170020531142406F582E43EF58310
:108662007401123B630532E532AE317002053114FA
:108672002406F582E43EF583E4123B630532E532DB
:10868200AE3170020531142406F582E43EF583E42E
:10869200123B630532E532AE317002053114240615
:1086A200F582E43EF583E4123B630532E532AE31F6
:1086B20070020531142406F582E43EF583E4123B90
:1086C200630532E532AE3170020531142406F582BB
:1086D200E43EF583E4123B63AD32AC317F007E06AB
:0D86E20012A57F90028AE07002A3E070F6FE
:1086EF00900CD0123F7F000008CAE4FFFEFDFC9003
:1086FF000CD0123F37D3123E504017900CD0123F80
:10870F002B74FFFBFAF9F8123CFD900CD0123F735B
:02871F0080D800
:108721007B017A0279887F007EE17D007C001292D4
:01873100E95E
:10873200900CD4123F7F00004650E4FFFEFDFC90F7
:108742000CD4123F37D3123E504017900CD4123F34
:108752002B74FFFBFAF9F8123CFD900CD4123F7314
:0287620080D8BD
:0187640022F2
:1000A60078F07C0C7D017BFF7AB0794C7E007F096D
:1000B600123AB290029512400A8B498A4A894B90AD
:1000C6000016E0700302021C900294E0900293F086
:1000D600E4F548E4F546F547E54875F003A424F051
:1000E600F582E4340CF583E0FFAB49AA4AA94B0537
:1000F60047E547AC4670020546142406F582E43C03
:10010600F583EF123B63E54875F003A424F0F5820E
:10011600E4340CF583A3E0FF0547E547AC467002DF
:100126000546142406F582E43CF583EF123B63E5AD
:100136004875F003A424F2F582E4340CF583E0FF5D
:100146000547E547AC4670020546142406F582E4E9
:100156003CF583EF12A57490028AE07002A3E0706A
:10016600F6900294E0FF900293E0B507120547E58A
:1001760047AE467002054614FFBE27E5BF10E29063
:10018600029812400A900294E0FF75F0DCA4F58212
:1001960085F083123C79F54785F046EFB402047F7B
:1001A600008006900294E004FF900294EFF0E54789
:1001B60064017004E5466405600C900294E0FF90CB
:0601C6000293E0B507B949
:1001CC00900CD0123F7F00001194E4FFFEFDFC90D8
:1001DC000CD0123F37D3123E504017900CD0123F28
:1001EC002B74FFFBFAF9F8123CFD900CD0123F7304
:0201FC0080D8A9
:1001FE00E54764017004E546640560030200D90515
:10020E0048E548C3940350030200D9020DE4E4F517
:10021E0046F547AB49AA4AA94B0547E547AE467096
:10022E00020546142406F582E43EF5837401123B62
:10023E00630547E547AE4670020546142406F5826F
:10024E00E43EF5837402123B630547E547AE467004
:10025E00020546142406F582E43EF583E4123B6360
:10026E000547E547AE4670020546142406F582E4BE
:10027E003EF5837401123B630547E547AE467002B7
:10028E000546142406F582E43EF583E4123B63052D
:10029E0047E547AE4670020546142406F582E43E55
:1002AE00F583E4123B630547E547AE46700205460B
:1002BE00142406F582E43EF5837401123B63054770
:1002CE00E547AE4670020546142406F582E43EF577
:1002DE00837401123B630547E547AE46700205463F
:1002EE00142406F582E43EF583E4123B630547E5EC
:1002FE0047AE4670020546142406F582E43EF583A9
:10030E00E4123B630547E547AE46700205461424EA
:10031E0006F582E43EF583E4123B630547E547AEFE
:10032E004670020546142406F582E43EF583E41277
:10033E003B630547E547AE4670020546142406F5B5
:10034E0082E43EF5837401123B630547E547AE46F2
:10035E0070020546142406F582E43EF583740612F7
:10036E003B630547E547AE4670020546142406F585
:10037E0082E43EF583E4123B630547E547AE4670E3
:10038E00020546142406F582E43EF5837401123B01
:10039E00630547E547AE4670020546142406F5820E
:1003AE00E43EF583E4123B630547E547AE46700233
:1003BE000546142406F582E43EF583E4123B6305FC
:1003CE0047E547AE4670020546142406F582E43E24
:1003DE00F5837401123B630547E547AE467002058F
:1003EE0046142406F582E43EF5837412123B63052F
:1003FE0047E547AE4670020546142406F582E43EF4
:10040E00F583E4123B630547E547AE4670020546A9
:10041E00142406F582E43EF5837401123B6305470E
:10042E00E547AE4670020546142406F582E43EF515
:10043E0083E4123B630547E547AE4670020546145A
:10044E002406F582E43EF583E4123B630547E54757
:10045E00AE4670020546142406F582E43EF583741A
:10046E0001123B630547E547AE467002054614246C
:10047E0006F582E43EF5837403123B630547E547B8
:10048E00AE4670020546142406F582E43EF583E47A
:10049E00123B630547E547AE467002054614240637
:1004AE00F582E43EF583E4123B630547E547AE462D
:1004BE0070020546142406F582E43EF583E4123BF1
:1004CE00630547E547AE4670020546142406F582DD
:1004DE00E43EF583E4123B630547E547AE46700202
:1004EE000546142406F582E43EF5837401123B633F
:1004FE000547E547AE4670020546142406F582E42C
:10050E003EF5837430123B630547E547AE467002F5
:10051E000546142406F582E43EF583E4123B63059A
:10052E0047E547AE4670020546142406F582E43EC2
:10053E00F583E4123B630547E547AE467002054678
:10054E00142406F582E43EF583E4123B630547E589
:10055E0047AE4670020546142406F582E43EF58346
:10056E00E4123B630547E547AE4670020546142488
:10057E0006F582E43EF5837401123B630547E547B9
:10058E00AE4670020546142406F582E43EF58374E9
:10059E0004123B630547E547AE4670020546142438
:1005AE0006F582E43EF583E4123B630547E547AE6C
:1005BE004670020546142406F582E43EF583E412E5
:1005CE003B630547E547AE4670020546142406F523
:1005DE0082E43EF583E4123B630547E547AE467081
:1005EE00020546142406F582E43EF583E4123B63CD
:1005FE000547E547AE4670020546142406F582E42B
:10060E003EF5837401123B630547E547AE46700223
:10061E000546142406F582E43EF5837420123B63EE
:10062E000547E547AE4670020546142406F582E4FA
:10063E003EF583E4123B630547E547AE467002057F
:10064E0046142406F582E43EF583E4123B63054727
:10065E00E547AE4670020546142406F582E43EF5E3
:10066E0083E4123B630547E547AE4670020546122A
:10067E00A56A90028AE07002A3E070F6900294E000
:10068E00FF900293E06F60F490029812400A90027D
:10069E0094E0FF75F0DCA4F58285F083123C79F5C9
:1006AE004785F046EFB402047F008006900294E086
:1006BE0004FF900294EFF0E54764017004E5466490
:0F06CE0005600C900294E0FF900293E0B507B92D
:1006DD00900CD4123F7F00002328E4FFFEFDFC9018
:1006ED000CD4123F37D3123E504017900CD4123F0A
:1006FD002B74FFFBFAF9F8123CFD900CD4123F73EA
:02070D0080D892
:10070F00E54764017004E5466405600302021CE4DA
:10071F00F546F547AB49AA4AA94B0547E547AE460B
:10072F0070020546142406F582E43EF58374011227
:10073F003B630547E547AE4670020546142406F5B0
:10074F0082E43EF5837411123B630547E547AE46DD
:10075F0070020546142406F582E43EF583E4123B4D
:10076F00630547E547AE4670020546142406F58239
:10077F00E43EF583E4123B630547E547AE4670025E
:10078F000546142406F582E43EF583E4123B630527
:10079F0047E547AE4670020546142406F582E43E4F
:1007AF00F583E4123B630547E547AE467002054605
:1007BF00142406F582E43EF5837401123B6305476A
:1007CF00E547AE4670020546142406F582E43EF571
:1007DF00837421123B630547E547AE467002054619
:1007EF00142406F582E43EF583E4123B630547E5E6
:1007FF0047AE4670020546142406F582E43EF583A3
:10080F00E4123B630547E547AE46700205461424E4
:10081F0006F582E43EF583E4123B630547E547AEF8
:10082F004670020546142406F582E43EF583E41271
:10083F003B630547E547AE4670020546142406F5AF
:10084F0082E43EF5837401123B630547E547AE46EC
:10085F0070020546142406F582E43EF583742212D5
:10086F003B630547E547AE4670020546142406F57F
:10087F0082E43EF583E4123B630547E547AE4670DD
:10088F00020546142406F582E43EF583E4123B6329
:10089F000547E547AE4670020546142406F582E487
:1008AF003EF583E4123B630547E547AE467002050C
:1008BF0046142406F582E43EF583E4123B630547B4
:1008CF00E547AE4670020546142406F582E43EF570
:1008DF0083740A123B630547E547AE46700205462F
:1008EF00142406F582E43EF5837407123B63054733
:1008FF00E547AE4670020546142406F582E43EF540
:10090F0083E4123B630547E547AE46700205461484
:10091F002406F582E43EF583E4123B630547E54781
:10092F00AE4670020546142406F582E43EF583E4D4
:10093F00123B630547E547AE467002054614240691
:10094F00F582E43EF583E4123B630547E547AE4687
:10095F0070020546142406F582E43EF583740A12EC
:10096F003B630547E547AE4670020546142406F57E
:10097F0082E43EF5837408123B630547E547AE46B4
:10098F0070020546142406F582E43EF583E4123B1B
:10099F00630547E547AE4670020546142406F58207
:1009AF00E43EF583E4123B630547E547AE4670022C
:1009BF000546142406F582E43EF583E4123B6305F5
:1009CF0047E547AE4670020546142406F582E43E1D
:1009DF00F583E4123B630547E547AE4670020546D3
:1009EF00142406F582E43EF583740A123B6305472F
:1009FF00E547AE4670020546142406F582E43EF53F
:100A0F00837402123B630547E547AE467002054605
:100A1F00142406F582E43EF583E4123B630547E5B3
:100A2F0047AE4670020546142406F582E43EF58370
:100A3F00E4123B630547E547AE46700205461424B2
:100A4F0006F582E43EF583E4123B630547E547AEC6
:100A5F004670020546142406F582E43EF583E4123F
:100A6F003B630547E547AE4670020546142406F57D
:100A7F0082E43EF583740A123B630547E547AE46B1
:100A8F0070020546142406F582E43EF583740912BC
:100A9F003B630547E547AE4670020546142406F54D
:100AAF0082E43EF583E4123B630547E547AE4670AB
:100ABF00020546142406F582E43EF583E4123B63F7
:100ACF000547E547AE4670020546142406F582E455
:100ADF003EF583E4123B630547E547AE46700205DA
:100AEF0046142406F582E43EF583E4123B63054782
:100AFF00E547AE4670020546142406F582E43EF53E
:100B0F0083740A123B630547E547AE4670020546FC
:100B1F00142406F582E43EF5837401123B63054706
:100B2F00E547AE4670020546142406F582E43EF50D
:100B3F0083E4123B630547E547AE46700205461452
:100B4F002406F582E43EF583E4123B630547E5474F
:100B5F00AE4670020546142406F582E43EF583E4A2
:100B6F00123B630547E547AE46700205461424065F
:100B7F00F582E43EF583E4123B630547E547AE4655
:100B8F0070020546142406F582E43EF583740A12BA
:100B9F003B630547E547AE4670020546142406F54C
:100BAF0082E43EF5837403123B630547E547AE4687
:100BBF0070020546142406F582E43EF583E4123BE9
:100BCF00630547E547AE4670020546142406F582D5
:100BDF00E43EF583E4123B630547E547AE467002FA
:100BEF000546142406F582E43EF583E4123B6305C3
:100BFF0047E547AE467002054612A56A90028AE0A5
:100C0F007002A3E070F6900294E0FF900293E06F01
:100C1F0060F490029812400A900294E0FF75F0DCA5
:100C2F00A4F58285F083123C79F54785F046EFB441
:100C3F0002047F008006900294E004FF900294EF7C
:100C4F00F0E54764017004E5466405600C9002947A
:090C5F00E0FF900293E0B507B933
:100C6800900CD8123F7F00002328E4FFFEFDFC9083
:100C78000CD8123F37D3123E504017900CD8123F71
:100C88002B74FFFBFAF9F8123CFD900CD8123F7355
:020C980080D802
:100C9A00E54764017004E5466405600302071EE443
:100CAA00F546F547AB49AA4AA94B0547E547AE467B
:100CBA0070020546142406F582E43EF58374FA129E
:100CCA003B630547E547AE4670020546142406F520
:100CDA0082E43EF583E4123B630547E547AE46707E
:100CEA00020546142406F582E43EF5837401123B9C
:100CFA00630547E547AE4670020546142406F582A9
:100D0A00E43EF583E4123B630547E547AE467002CD
:100D1A000546142406F582E43EF5837401123B630A
:100D2A000547E547AE4670020546142406F582E4F7
:100D3A003EF583E4123B637F0812A57990028AE0AC
:100D4A007002A3E070F6900294E0FF900293E06FC5
:100D5A0060F490029812400A900294E0FF75F0DC69
:100D6A00A4F58285F083123C79F54785F046EFB405
:100D7A0002047F008006900294E004FF900294EF40
:100D8A00F0E54764017004E5466405600C9002943E
:090D9A00E0FF900293E0B507B9F7
:100DA300900CDC123F7F00001194E4FFFEFDFC90E9
:100DB3000CDC123F37D3123E504017900CDC123F2D
:100DC3002B74FFFBFAF9F8123CFD900CDC123F7315
:020DD30080D8C6
:0F0DD500E54764017004E54664056003020CA95C
:100DE400900CA9E0FBE4FAF9F87F807E967D98FCEC
:100DF40012AFA28F4F8E4E8D4D8C4C7808123E77D9
:100E0400E4FFE4FDFCC004C005C006C007AF4FAE5C
:100E14004EAD4DAC4C7818123E77E4FEFDFCD00389
:100E2400D002D001D000123E35C004C005C006C0B7
:100E340007AF4FAE4EAD4DAC4C7808123E8AE4FF7E
:100E4400FEE4FCD003D002D001D000123E35C00431
:100E5400C005C006C007AF4FAE4EAD4DAC4C7818C0
:100E6400123E8AE4FFFEFDECD003D002D001D00094
:100E7400123E35AB49AA4AA94B900006123F07E43B
:100E8400754F0AF54EF54DF54CAF4FAE4EAD4DAC2A
:100E94004C7808123E77E4FFE4FDFCC004C005C0B2
:100EA40006C007AF4FAE4EAD4DAC4C7818123E772E
:100EB400E4FEFDFCD003D002D001D000123E35C0C8
:100EC40004C005C006C007AF4FAE4EAD4DAC4C7864
:100ED40008123E8AE4FFFEE4FCD003D002D001D025
:100EE40000123E35C004C005C006C007AF4FAE4E69
:100EF400AD4DAC4C7818123E8AE4FFFEFDECD003F5
:100F0400D002D001D000123E35AB49AA4AA94B9079
:100F1400000A123F077546007547080547E547AEC6
:100F24004670020546142406F582E43EF5837401F6
:100F3400123B630547E547AE467002054614240696
:100F4400F582E43EF5837401123B630547E547AE41
:100F54004670020546142406F582E43EF583E41245
:100F64003B630547E547AE4670020546142406F583
:100F740082E43EF583E4123B630547E547AE4670E1
:100F8400020546142406F582E43EF5837432123BCE
:100F9400630547E547AE4670020546142406F5820C
:100FA400E43EF583E4123B630547E547AE46700231
:100FB4000546142406F582E43EF5837434123B633B
:100FC4000547E547AE4670020546142406F582E45B
:100FD4003EF5837403123B630547E547AE46700252
:100FE4000546142406F582E43EF583E4123B6305CA
:100FF40047E547AE4670020546142406F582E43EF2
:10100400F583E4123B630547E547AE4670020546A7
:10101400142406F582E43EF583E4123B630547E5B8
:1010240047AE4670020546142406F582E43EF58375
:10103400E4123B63AD47AC467F077E0612A57F9062
:10104400028AE07002A3E070F6900294E0FF90023E
:1010540093E06F60F490029812400A900294E0FFCB
:1010640075F0DCA4F58285F083123C79F54785F0B0
:1010740046EFB402047F008006900294E004FF90DF
:101084000294EFF0E54764017004E5466405600CE2
:0C109400900294E0FF900293E0B507B9D1
:1010A000900CE0123F7F00001194E4FFFEFDFC90E5
:1010B0000CE0123F37D3123E504017900CE0123F25
:1010C0002B74FFFBFAF9F8123CFD900CE0123F7311
:0210D00080D8C6
:1010D200E54764017004E54664056003020DE4908F
:1010E2000016E070030216A2E4F546F547AB49AAE2
:1010F2004AA94B0547E547AE467002054614240649
:10110200F582E43EF583E4123B630547E547AE46CC
:1011120070020546142406F582E43EF583E4123B90
:1011220063AD47AC467F117E0612A57F90028AE02E
:101132007002A3E070F6900294E0FF900293E06FD9
:1011420060F490029812400A900294E0FF75F0DC7D
:10115200A4F58285F083123C79F54785F046EFB419
:1011620002047F008006900294E004FF900294EF54
:10117200F0E54764017004E5466405600C90029452
:09118200E0FF900293E0B507B90B
:10118B00900CE4123F7F00001194E4FFFEFDFC90F5
:10119B000CE4123F37D3123E504017900CE4123F31
:1011AB002B74FFFBFAF9F8123CFD900CE4123F7321
:0211BB0080D8DA
:1011BD00E54764017004E546640560030210EAE446
:1011CD00F546F547AB49AA4AA94B0547E547AE4653
:1011DD0070020546142406F582E43EF583E4123BC5
:1011ED00630547E547AE4670020546142406F582B1
:1011FD00E43EF583E4123B630547E547AE467002D6
:10120D000546142406F582E43EF583E4123B63059E
:10121D0047E547AE4670020546142406F582E43EC6
:10122D00F583E4123B630547E547AE46700205467C
:10123D00142406F582E43EF583E4123B630547E58D
:10124D0047AE4670020546142406F582E43EF5834A
:10125D00E4123B630547E547AE467002054614248C
:10126D0006F582E43EF583E4123B630547E547AEA0
:10127D004670020546142406F582E43EF583E41219
:10128D003B63AD47AC467F167E0612A57F90028A62
:10129D00E07002A3E070F6900294E0FF900293E0FC
:1012AD006F60F490029812400A900294E0FF75F07E
:1012BD00DCA4F58285F083123C79F54785F046EF85
:1012CD00B402047F008006900294E004FF90029423
:1012DD00EFF0E54764017004E5466405600C90028B
:0A12ED0094E0FF900293E0B507B90A
:1012F700900CE8123F7F00001194E4FFFEFDFC9084
:101307000CE8123F37D3123E504017900CE8123FBB
:101317002B74FFFBFAF9F8123CFD900CE8123F73AF
:0213270080D86C
:10132900E54764017004E546640560030211CCE4F5
:10133900F546F547AB49AA4AA94B0547E547AE46E5
:1013490070020546142406F582E43EF583740512FD
:101359003B630547E547AE4670020546142406F58A
:1013690082E43EF583E4123B630547E547AE4670E8
:10137900020546142406F582E43EF5837404123B03
:10138900630547E547AE4670020546142406F58213
:10139900E43EF5837402123B63E92406F9E43AFA60
:1013A900E92547F9EA3546FA123FB050C3000074FF
:1013B900042547F547E43546F546AB49E54B240690
:1013C900F9E4354AFAE92547F9EA3546FA123FB010
:1013D9000000000074042547F547E43546F546AB9F
:1013E90049AA4AA94B0547E547AE46700205461486
:1013F9002406F582E43EF5837405123B630547E54F
:1014090047AE4670020546142406F582E43EF5838C
:10141900E4123B63E92406F9E43AFAE92547F9EAD3
:101429003546FA74FA75F000123CB174022547F595
:1014390047E43546F546AB49E54B2406F9E4354A18
:10144900FAE92547F9EA3546FA74FA75F000123CCB
:10145900B174022547F547E43546F546AB49E54BF6
:101469002406F9E4354AFAE92547F9EA3546FA74D2
:101479006475F000123CB174022547F547E435461E
:10148900F546AB49E54B2406F9E4354AFAE925471F
:10149900F9EA3546FA742C75F001123CB17402254B
:1014A90047F547E43546F546AB49AA4AA94B0547EE
:1014B900E547AE4670020546142406F582E43EF57A
:1014C90083E4123B630547E547AE467002054614BF
:1014D9002406F582E43EF583E4123B630547E547BC
:1014E900AE4670020546142406F582E43EF583E40F
:1014F900123B630547E547AE4670020546142406CC
:10150900F582E43EF583E4123B630547E547AE46C1
:1015190070020546142406F582E43EF583E4123B85
:10152900630547E547AE4670020546142406F58271
:10153900E43EF583E4123B630547E547AE46700296
:101549000546142406F582E43EF583E4123B63055F
:1015590047E547AE4670020546142406F582E43E87
:10156900F583E4123B630547E547AE46700205463D
:10157900142406F582E43EF583E4123B630547E54E
:1015890047AE4670020546142406F582E43EF5830B
:10159900E4123B630547E547AE467002054614244D
:1015A90006F582E43EF583E4123B630547E547AE61
:1015B9004670020546142406F582E43EF583E412DA
:1015C9003B630547E547AE4670020546142406F518
:1015D90082E43EF583E4123B630547E547AE467076
:1015E900020546142406F582E43EF583E4123B63C2
:1015F900AD47AC467F247E0612A57F90028AE07033
:1016090002A3E070F6900294E0FF900293E06F600D
:10161900F490029812400A900294E0FF75F0DCA45D
:10162900F58285F083123C79F54785F046EFB402DF
:10163900047F008006900294E004FF900294EFF08A
:10164900E54764017004E5466405600C900294E086
:08165900FF900293E0B507B910
:10166100900CEC123F7F00001194E4FFFEFDFC9012
:101671000CEC123F37D3123E504017900CEC123F46
:101681002B74FFFBFAF9F8123CFD900CEC123F733E
:0216910080D8FF
:0F169300E54764017004E54664056003021338FF
:0116A2002225
:10A56A00142406F582E43EF583E4123B637F01ADD1
:05A57A0047AC467E061F
:08A57F008E508F518C528D5358
:10A5870090029512400A74B5123B51900295124001
:10A597000A9000017462123B63E550900002123B7F
:10A5A70063E551900003123B63E553900004123BAF
:10A5B70063E552900005123B63E4F555F5547F02BD
:10A5C700FEE5532406FDE43552FCC3EF9DEE9C5097
:10A5D7001C90029512400A8F828E83123AF12554FD
:10A5E700F5542555F5550FBF00010E80D4900295FF
:10A5F70012400AE5532406FFE435528F82F583E5BE
:10A6070054123B63E5532407FFE435528F82F583E9
:10A61700E555123B637B017A027988E5532408FDEF
:07A62700E43552FC02ACE334
:064B04008B318A32893377
:104B0A00900DDFE0700804F01200A602517EAB316E
:104B1A00AA32A933123C4E1240CB4B3401024E2723
:0A4B2A0001064F0801120000517847
:104B340074062533F533E43532F5327537007538AC
:104B44000075393FE4F53AF53B7831E475F001122C
:104B54003FFA123AD8FF783774FFF5F0123FFAEFB4
:104B6400123B51053BE53B7002053A6404453A703B
:104B7400D8AC3CEC3350047F0180027F008F40AFFF
:104B84003FAE3EAD3DAC3CEC334002800BAF3FAE9C
:104B94003EAD3DAC3C123E428F3F8E3E8D3D8C3C43
:104BA400AB34AA35A93690000A123FCA00000000AF
:104BB400E4F53AF53BAB34E536240AF9E43535FA45
:104BC400C003C002C001123E9DC004C005C006C09F
:104BD40007E47B0AFAF9F8AF3FAE3EAD3DAC3C12B8
:104BE400AFA2AC00AD01AE02AF03C004C005C00665
:104BF400C007E53BAE3A7802C333CE33CED8F924AE
:104C040055F58274B03EF583123F43D007D006D0E9
:104C140005D004123D18A804A905AA06AB07D007BD
:104C2400D006D005D004123CFDD001D002D003122E
:104C34003EEDAF3FAE3EAD3DAC3CE47B0AFAF9F845
:104C440012AFA28F3F8E3E8D3D8C3C053BE53B7001
:104C540002053A640A453A6003024BB9E54060151F
:104C6400AB34AA35A93690000A123EBD123E4290DA
:104C7400000A123F0775370075380075393FE4F5AF
:104C84003AF53B7831E475F001123FFA123AD8FF55
:104C9400783774FFF5F0123FFAEF123B51053BE50C
:104CA4003B7002053A6404453A70D8AC3CEC33508E
:104CB400047F0180027F008F40AF3FAE3EAD3DAC2C
:104CC4003CEC334002800BAF3FAE3EAD3DAC3C12FA
:104CD4003E428F3F8E3E8D3D8C3CAB34AA35A93687
:104CE400900006123FCA00000000E4F53AF53BAB21
:104CF40034E5362406F9E43535FAC003C002C001B0
:104D0400123E9DC004C005C006C007E47B0AFAF940
:104D1400F8AF3FAE3EAD3DAC3C12AFA2AC00AD012E
:104D2400AE02AF03C004C005C006C007E53BAE3AFF
:104D34007802C333CE33CED8F92455F58274B03E0D
:104D4400F583123F43D007D006D005D004123D1896
:104D5400A804A905AA06AB07D007D006D005D0043D
:104D6400123CFDD001D002D003123EEDAF3FAE3E67
:104D7400AD3DAC3CE47B0AFAF9F812AFA28F3F8E4A
:104D84003E8D3D8C3C053BE53B7002053A640A458B
:104D94003A6003024CF3E5406015AB34AA35A936FA
:104DA400900006123EBD123E42900006123F077468
:104DB400042533F533E43532F532753700753800A0
:104DC40075393FE4F53AF53B7831E475F001123F6B
:104DD400FA123AD8FF783774FFF5F0123FFAEF125F
:104DE4003B51053BE53B7002053A6404453A70D8F3
:104DF400AF3FAE3EAD3DAC3CE47BE87A03F9F8123C
:104E0400AFA28F3F8E3E8D3D8C3CAB34AA35A93684
:104E140090000EEE8FF0123CD09002E3E04404F0D8
:104E240002517EAB31AA32A93390002F123AF1FE1F
:104E340090002E123AF17C002400FFEC3E9002B266
:104E4400F0A3EFF0900031123AF1900CAFF074023D
:104E54002533F533E43532F532FAA93390000B12D9
:104E64003AF1540D640D6008E4900CAFF0024EFE6C
:104E7400E5362403F9E43535853437F5388939E4E2
:104E8400F53AF53B7831E475F001123FFA123AD85D
:104E9400FF783774FFF5F0123FFAEF123B51053BF0
:104EA400E53B7002053A6404453A70D8740425332E
:104EB400F533E43532F532E5362404F9E43535FAD0
:104EC400E92401F9E43A853437F5388939E4F53AC7
:104ED400F53B7831E475F001123FFA123AD8FF78C5
:104EE4003774FFF5F0123FFAEF123B51053BE53BF7
:104EF4007002053A6402453A70D89002E3E0440235
:044F0400F002517EE8
:104F080074062533F533E43532F532AB31FAA9337B
:104F1800123E9D8F3F8E3E8D3D8C3C7808123E7729
:104F2800E4FFE4FDFCC004C005C006C007AF3FAE07
:104F38003EAD3DAC3C7818123E77E4FEFDFCD00354
:104F4800D002D001D000123E35C004C005C006C052
:104F580007AF3FAE3EAD3DAC3C7808123E8AE4FF59
:104F6800FEE4FCD003D002D001D000123E35C004CC
:104F7800C005C006C007AF3FAE3EAD3DAC3C78189B
:104F8800123E8AE4FFFEFDECD003D002D001D0002F
:104F9800123E358F3F8E3E8D3D8C3CE47B64FAF9A2
:104FA800F812AFA28F3F8E3E8D3D8C3C8E428F43D0
:104FB80074042533F533E43532F532AB31FAA933CD
:104FC800123E9D8F3F8E3E8D3D8C3C7808123E7779
:104FD800E4FFE4FDFCC004C005C006C007AF3FAE57
:104FE8003EAD3DAC3C7818123E77E4FEFDFCD003A4
:104FF800D002D001D000123E35C004C005C006C0A2
:1050080007AF3FAE3EAD3DAC3C7808123E8AE4FFA8
:10501800FEE4FCD003D002D001D000123E35C0041B
:10502800C005C006C007AF3FAE3EAD3DAC3C7818EA
:10503800123E8AE4FFFEFDECD003D002D001D0007E
:10504800123E358F3F8E3E8D3D8C3CE47B64FAF9F1
:10505800F812AFA28F3F8E3E8D3D8C3C8E408F4123
:1050680074042533F533E43532F532AB31FAA9331C
:10507800123E9D8F3F8E3E8D3D8C3C7808123E77C8
:10508800E4FFE4FDFCC004C005C006C007AF3FAEA6
:105098003EAD3DAC3C7818123E77E4FEFDFCD003F3
:1050A800D002D001D000123E35C004C005C006C0F1
:1050B80007AF3FAE3EAD3DAC3C7808123E8AE4FFF8
:1050C800FEE4FCD003D002D001D000123E35C0046B
:1050D800C005C006C007AF3FAE3EAD3DAC3C78183A
:1050E800123E8AE4FFFEFDECD003D002D001D000CE
:1050F800123E358F3F8E3E8D3D8C3CE47B64FAF941
:10510800F812AFA28F3F8E3E8D3D8C3CC3E49FF5D5
:1051180045E49EF544E5405407FEE47803CEC31306
:10512800CE13D8F9AB34AA35A936900010123B63D8
:10513800E5425407FEE47806CEC313CE13D8F9909F
:105148000010123B1EE5445403900010123B1EE56C
:1051580041900011123B63E543900012123B63E556
:0E51680045900013123B639002E3E04401F017
:105176008006753A00753B019002E3E06407600320
:105186000253AAF0900CAFE060030252B590000003
:10519600E075F015A424B7F9740235F0FA7B01A87E
:1051A60036AC35AD347E007F15123AB2AB34AA3533
:1051B600A936123E9DEF24FAFFE43EFEE43DFDE4EF
:1051C6003CFC123EED900000E0640175F015A4244D
:1051D600B7F582E43402F583123F2BE4FBFAF9F8C3
:1051E600C3123E6670030252B5AB34E5362406F9A7
:1051F600E43535FAC003C002C001123E9DC004C0AA
:1052060005C006C007900000E0FF640175F015A414
:1052160024BDF582E43402F583123F37EF75F015AD
:10522600A424BDF582E43402F583123F2B123D0A15
:10523600A804A905AA06AB07D007D006D005D00456
:10524600123CFDD001D002D003123EEDAB34E53660
:10525600240AF9E43535FAC003C002C001123E9DA6
:10526600C004C005C006C007900000E0FF640175D9
:10527600F015A424C1F582E43402F583123F37EF1A
:1052860075F015A424C1F582E43402F583123F2B90
:10529600123D0AA804A905AA06AB07D007D006D076
:1052A60005D004123CFDD001D002D003123EED9091
:1052B6000000E06401F0E075F015A424B7F974026B
:1052C60035F0A801FC7D01AB34AA35A9367E007FF6
:1052D60015123AB2900015E0606A900CAF7406F0B1
:1052E600AB34AA35A936123FB000002710AB34AA5A
:1052F60035A936900004740675F0AE123CD09000C5
:1053060006123FCA00BC6A7790000A123FCA002AFA
:105316002BDF90000E740175F02C123CD09000101B
:10532600E4123B63900011741E123B6390001274EA
:1053360019123B639000137401123B6390001474BE
:1053460019123B63908C83E493FF3395E0FE900241
:105356008275F013EF123FEEEE75F013A42583F578
:105366008312400AE92407F9E43A8B37F53889397C
:10537600900CAFE0FF7837E475F001123FFAEF12B8
:105386003B51A839AC38AD37AB34AA35A9367E00C7
:105396007F15123AB2754C00754D167B227D037F40
:0453A600021296FC5D
:0153AA0022E0
:10A5550002080001010C00020D0000420DDC0000A4
:04A56500410DDE00C6
:06ACE3008B568A578958C8
:10ACE900858459AB56AA57A958900002123C794558
:10ACF900F070F0AB56AA57A95890000D12401CC02D
:10AD090003C002C001AB56AA57A9589000071240C8
:10AD19004CAB56AA57A958900002EC8DF0123CD0C2
:10AD2900123AD87006F584D2998005758401D299B2
:03AD3900855984B5
:01AD3C0022F4
:10003E00AE84E4F5848F9B30FFFDC2FFAF9B8E84B0
:01004E00228F
:10AD3D00AF8475840F759601758C67E4FDFC0DBDB0
:10AD4D0000010CE4B505F7ECB401F3E58C30E7FB3D
:10AD5D00759701E4F58A758905F58475B7207584B5
:10AD6D000F758D01758F01758E03FCFD0DBD0001F5
:10AD7D000CE4B505F7ECB401F3438902E58930E441
:06AD8D00FB7597028F84A4
:01AD9300229D
:0E92E9008B428A4389448F488E478D468C45C0
:1092F700858449123AD814606F0460030294E9E444
:10930700F58475911590000A123AF124BB60182470
:10931700F6601424EA601024F7600714600924211A
:10932700700875985080037598D0E4F58475C80463
:1093370075C908AB48AA47A946A845FFFE7D657CC5
:1093470004123DA3E47B10FAF9F8123DA3123E4242
:109357008ECB8FCA74FFF5CDF5CCD2CAE4F584C2A3
:1093670099C298D2AC0294E9758401AB42AA43A989
:109377004490000A123AF124BB601824F6601424C2
:10938700EA601024F76007146009242170087598B3
:10939700108003759890E4F58453890F438920ABB7
:1093A70048AA47A946A845FFFE7D657C04123DA350
:1093B700E47B02FAF9F8123DA3E4FB7A01F9F8120B
:1093C7003DA3E47B01FAF9F8D3123E664026AB4889
:1093D700AA47A946A845E4FFFE7D657C04123DA384
:1093E700E47B02FAF9F8123DA3123E428F8D438EB9
:1093F700100294DAAB48AA47A946A845E4FFFE7DC8
:10940700657C04123DA3E47B02FAF9F8123DA3E45C
:10941700FB7A01F9F8123DA3E47B04FAF9F8D312B9
:109427003E664031AB48AA47A946A845E4FFFE7D02
:10943700657C04123DA3E47B02FAF9F8123DA3E42C
:109447007B04FAF9F8123DA3123E428F8D538EEC3E
:10945700438E01807EAB48AA47A946A845E4FFFE94
:109467007D657C04123DA3E47B02FAF9F8123DA363
:10947700E4FB7A01F9F8123DA3E47B0CFAF9F8D37F
:10948700123E66AB48AA47A946A845E4FFFE7D659C
:109497007C04401F123DA3E47B02FAF9F8123DA3B6
:1094A700E47B0CFAF9F8123DA3123E428F8D538EDE
:1094B700EC8020123DA3E47B02FAF9F8123DA3E405
:1094C7007B30FAF9F8123DA3123E428F8D538EEC92
:1094D700438E02858D8BD28E758401C299C29843C3
:0594E700E74085498407
:0194EC00225D
:10002600AF84E4F584759D04759A70C2FFD2F88F8B
:010036008445
:0100370022A6
:10B0AB00AD84758401E4F5C8F5C9EF2408FFE43ECF
:10B0BB00FEC3E49FFFE49EF5CB8FCA74FFF5CDF57D
:09B0CB00CC43E70143C8048D8465
:01B0D4002259
:030023000294ED57
:1094ED00C0E0C0F0C083C082C0D075D000C000C045
:0D94FD0001C002C003C004C005C006C007C6
:10950A00E59820E0030296848599275398FEE5089A
:10951A006003029651E50924FE6063147003029504
:10952A00B914700302961E24036003029651750D46
:10953A0000750E00E52764166003029651900280BA
:10954A00E0FF7E007C027D1D123B85900285124061
:10955A000AE92FF9EA3E8B0FF5108911FA050EE593
:10956A000EAE0D7002050D14F5828E83E527123BAF
:10957A0063E527620C750800750902029651AB0F64
:10958A00AA10A911050EE50EAE0D7002050D14F50F
:10959A00828E83E527123B63E527620CE50E64069B
:1095AA00450D6003029651F508750903029651AB01
:1095BA000FAA10A911050EE50EAE0D7002050D14C5
:1095CA00F5828E83E527123B63630CFFE50C652762
:1095DA007031AB0FAA10A911900003123AF1750A63
:1095EA0000F50B750B00F50A900004123AF1250BF1
:1095FA00F50BE4350AF50A450B604675080075094E
:10960A00048044750D00750E007508007509017512
:10961A000C008033D2B4AB0FAA10A911050EE50EC7
:10962A00AE0D7002050D14F5828E83E527123B6399
:10963A00E50B2407FFE4350AFEEFB50E0AEEB50D79
:10964A0006750800750905E50964054508702BC209
:10965A00B4F508750901F50DF50EF50C90027912AD
:10966A00400AE94A4B7013AB0FAA10A9119002796C
:10967A00124013900280E06401F0E59830E13E90D8
:10968A000277E07002A3E06023D2B490027C124019
:10969A000A123AD8F59990027DE475F001123C223B
:1096AA0090027774FFF5F0123C22800EC2B47B0060
:0D96BA007A00790090027C1240135398FD55
:1096C700D007D006D005D004D003D002D001D000F7
:0B96D700D0D0D082D083D0F0D0E032A1
:0300A300028E8446
:108E8400C0E0C0F0C083C082C0D075D000C000C0B4
:098E940001C002C003C006C007C2
:108E9D00E59820E00302902F859928900DDEE012D1
:108EAD0040A58ECE008EDF018EF2028F42038F6FB2
:108EBD00048F88058FAF068FF00790010800009092
:108ECD002CE52864B5600302902C900DDE04F002B1
:108EDD00902CE528900DDEB462067402F002902C01
:108EED00E4F002902C751800751700900DDCE4F07D
:108EFD00A3F0900293E075F0DCA4FF90029812406D
:108F0D000AE92FF9EA35F08B12F5138914FA900D51
:108F1D00DCE475F001123C3885F082F583E528120A
:108F2D003B63E5282517F5172518F518900DDE7408
:108F3D0003F002902CAB12AA13A914900DDCE4756A
:108F4D00F001123C3885F082F583E528123B63E58C
:108F5D00282517F5172518F518900DDE7404F00265
:108F6D00902C751500852816E5282517F517251859
:108F7D00F518900DDE7405F002902CE528FEE42521
:108F8D0016F516EE3515F515E5282517F5172518DF
:108F9D00F518E5164515900DDE700280417406F04A
:108FAD00807DAB12AA13A914900DDCE475F00112AB
:108FBD003C3885F082F583E528123B63E5282517BB
:108FCD00F5172518F518E5162402FFE43515FE9062
:108FDD000DDCE06E7003A3E06F7044900DDE74073E
:108FED00F0803CE517900DDEB528057408F0802F54
:048FFD00E4F0802BF1
:10900100900293E0FFB402067E007F008003EF042C
:10901100FF8F29E518B5280E900294E065296006B6
:0B902100900293E529F0900DDEE4F0D2
:10902C005398FEE59830E17090028AE07002A3E05C
:10903C006057900292E024BB601A24E0601624F67C
:10904C0060042420702290028F12400A123AD83009
:10905C00E00E801190028F12400A123AD830E005CF
:10906C0043980480035398FB90028F12400A123AE3
:10907C00D8F599900290E475F001123C2290028A86
:10908C0074FFF5F0123C22800C7B007A0079009082
:08909C00028F1240135398FDEE
:1090A400D007D006D003D002D001D000D0D0D082D7
:0790B400D083D0F0D0E032C0
:0300730002A6DE04
:10A6DE00C0E0C0F0C083C082C0D075D000C000C042
:03A6EE0006C0079C
:10A6F10075840153C87F90025FE475F001123C221A
:10A701009002AFE0FEA3E0FF90025FE0B50619A35F
:10A71100E0B507149002AFE475F0A0123C2290005E
:10A721004BE475F001123C22E4FFFE74262FF58202
:10A73100E4340CF583E0600D74262FF582E4340CCB
:10A74100F583E014F00FBF00010EEF64034E70DBE0
:10A7510075840F20E816C39002B6E094FF9002B50D
:10A76100E094FF5007E475F001123C2275840075F6
:06A77100BB00C2EDD2ECBA
:10A77700D007D006D000D0D0D082D083D0F0D0E0A0
:01A78700329F
:10A29200E4900D70F07B017A0C792912AD94900C48
:10A2A20092E0B4010FA3E0B4540AA3E07004A3E067
:10A2B20064086019900C927401F0A37454F0900C2D
:10A2C20094E4F0A37408F0900D707401F0900C7B8C
:10A2D200E0B4FF17900016E0900C7B600574C8F0A4
:10A2E20080037464F0900D707401F0900C7AE06455
:10A2F2000160077401F0900D70F0900C16E0FCA361
:10A30200E0FDB40015ECB41011900C97E030E40AB3
:10A31200E054EFF0900D707401F0E4B50515ECB463
:10A322002011900C97E020E40AE04410F0900D70A8
:10A332007401F0900C29E0FF12005E400D900C2990
:10A34200E06007E4F0900D7004F0900C3DE0FF1225
:10A35200005E400D900C3DE06007E4F0900D70044B
:10A36200F0900C51E0FF12005E400D900C51E06045
:10A3720007E4F0900D7004F0900C9AE0B4FF07E44B
:10A38200F0900D7004F0900C9BE0B4FF11A3E0B4C8
:10A39200FF0CE4900C9BF0A3F0900D7004F0900D74
:10A3A20070E0601012B07D7B017A0C79297D807C8F
:04A3B2000012AB43A7
:01A3B6002284
:10B07D00AF84E4F584781EF608F6A2AF33FEC2AFB6
:10B08D0043B701758F0718E6FC08E6F5828C83E45B
:0DB09D00F0F58F53B7FEEE24FF92AF8F84C5
:01B0AA002283
:0AAB43008B458A4689478C488D49EE
:10AB4D0085844AE4F584781EF608F6A2AF33FFC279
:10AB5D00AF43B701758F05E4F54BF54CC3E54C9547
:10AB6D0049E5486480F8E54B64809850297845E4C0
:10AB7D0075F001123FFA123AD8FE781E0806E61853
:10AB8D00860470010614F5828C83EEF0054CE54CBD
:10AB9D0070CA054B80C6E4F58F53B7FEEF24FF92C4
:04ABAD00AF854A84A2
:01ABB1002281
:06AD94008B458A46894749
:10AD9A00858448E4F549F54AF584A2AF33F54BC2F8
:10ADAA00AF758F04E4FFFE054AE54AAC4970020517
:10ADBA004914F5828C83E493FD7845E475F0011219
:10ADCA003FFAED123B510FBF00010EEF64804E7047
:0DADDA00D6E4F58FE54B24FF92AF85488449
:01ADE7002249
:0EA947008E4C8F4D8C4E8D4F8B508A51895205
:09A9550012007EEF30E7F9C2F9AF
:10A95E00E4F557F5580558E558700205576440451B
:03A96E005770F22D
:10A97100E54D6401454C70047F8480027F8712009D
:10A981003EE4FF12003EE4FF12003EE4FF12003EEF
:10A99100E4F555F556C3E556954FE54E6480F8E567
:10A9A10055648098501DAB50AA51A9528556828595
:10A9B1005583123AF1FF12003E0556E55670D60551
:10A9C1005580D2D2F9AD54AC53AF4DAE4C02AA4F23
:08AA4F008E598F5A8C5B8D5C5F
:10AA570090093CE0FEA3E0FF12A7888F5D12007EFD
:06AA6700EF30E7F9C2F92F
:10AA6D00E4F55EF55F055FE55F7002055E644045E8
:03AA7D005E70F216
:10AA8000E55D6010E55A6401455970047F838012CA
:10AA90007F86800EE55A6401455970047F828002EA
:10AAA0007F8512003EE55CAE5B7806CEA2E713CE52
:10AAB00013D8F8FF12003EAF5CEF25E025E0FF124F
:09AAC000003EE4FF12003ED2F951
:01AAC900226A
:02007E00C2F9C5
:10008000E4F569F56A056AE56A7002056964404548
:030090006970F2A2
:0C0093007FD712003EE4FF12003ED2F9BD
:01009F00223E
:0AA822008E498F4A8B4B8A4C894DFA
:09A82C0012007EEF30E7F9C2F9D9
:10A83500E4F552F5530553E553700205526440455E
:03A845005270F25C
:10A848007FD212003EE54FAE4E7806CEA2E713CE79
:10A8580013D8F8FF12003EAF4FEF25E025E0FF12B6
:10A86800003EE4FF12003EE4FF12003EE4FF120047
:10A878003EE4FF12003EE4FF12003EE4F550F551BD
:10A88800C3E551954AE5496480F8E55064809850DD
:10A898001FE4FF12003EAB4BAA4CA94D855182859F
:10A8A8005083EF123B630551E55170D4055080D0B9
:02A8B800D2F9D3
:01A8BA00227B
:08A788008E608F618C628D630D
:0CA7900075640112007EEF30E7F9C2F999
:10A79C00E4F567F5680568E568700205676440458F
:03A7AC006770F2E1
:10A7AF007FD212003EE563AE627806CEA2E713CEEB
:10A7BF0013D8F8FF12003EAF63EF25E025E0FF123C
:10A7CF00003EE4FF12003EE4FF12003EE4FF1200E1
:10A7DF003EE4FF12003EE4FF12003EE4F565F5662D
:10A7EF00C3E5669561E5606480F8E565648098501F
:10A7FF001DE4FF12003EBFFF047F0180027F008F28
:10A80F0064EF600A0566E56670D6056580D2D2F9F9
:02A81F00AF6424
:01A821002214
:04AE81008E478F4821
:09AE850012007EEF30E7F9C2F97A
:10AE8E00E4F549F54A054AE54A700205496440452C
:03AE9E004970F206
:10AEA1007F5012003EE548AE477806CEC313CE135D
:10AEB100D8F9FF12003EAF48EF25E025E0FF120070
:08AEC1003EE4FF12003ED2F94D
:01AEC9002266
:04AECA008E498F4AD4
:09AECE0012007EEF30E7F9C2F931
:10AED700E4F54BF54C054CE54C7002054B644045D9
:03AEE7004B70F2BB
:10AEEA007F8112003EE54AAE497806CEC313CE13DF
:10AEFA00D8F9FF12003EAF4AEF25E025E0FF120025
:08AF0A003EE4FF12003ED2F903
:01AF1200221C
:06ABB2008C428D438B4430
:10ABB800E5446002C2B68E458F46D3E5469543E527
:10ABC800459542504BE54654077034C3E5439546D6
:10ABD800FFE5429545FEC3EF9408EE94004020E55A
:10ABE800446008E546543F7002B2B6AF46AE45121F
:10ABF800AE8174072546F546E43545F5458007AF2F
:10AC080046AE4512AECA0546E54670AE054580AA71
:06AC1800E5446002C2B633
:01AC1E002213
:06A3B7008B318A3289336C
:06A3BD00D2F8D2F9C2FA49
:10A3C300E4F537F5380538E538700205376440455C
:03A3D3003770F2EE
:02A3D600D2FAB9
:10A3D800E4F537F5380538E5387002053764404547
:03A3E8003770F2D9
:10A3EB0012007EEF543C1240A5A40D0CA41714A42C
:10A3FB00211CA42B24A4462CA46134A47C3C000077
:10A40B00A498AB31AA32A9337402801CAB31AA32A7
:10A41B00A93374048012AB31AA32A93374088008B3
:10A42B00AB31AA32A933741075F000123CB1AB34C6
:10A43B00AA35A936740175F008804FAB31AA32A941
:10A44B0033741075F000123CB1AB34AA35A93674D5
:10A45B000275F0108034AB31AA32A933742075F039
:10A46B0000123CB1AB34AA35A936740275F01080DA
:10A47B0019AB31AA32A933742075F000123CB1AB81
:0DA48B0034AA35A936740475F020123CB1D6
:01A4980022A1
:10787E00257300506C61636520756E697420666CAB
:10788E006174206F6E206C6576656C207375726600
:10789E006163652E00466C6970206F7665722E20CE
:1078AE004661636520646F776E2E00486F6C6420AE
:1078BE00766572746963616C2C2047505320616E3B
:1078CE0074656E6E61206A61636B2075702E004860
:1078DE006F6C6420766572746963616C2C204750FE
:1078EE005320616E74656E6E61206A61636B2064F5
:1078FE006F776E2E005374616E64206F6E20726906
:10790E0067687420736964652E005374616E642019
:10791E006F6E206C65667420736964652E00496E07
:10792E0076657274696E6720582056616C75657342
:10793E0000496E76657274696E6720592056616CC7
:10794E0075657300496E76657274696E67205A208C
:10795E0056616C7565730020005A65726F20506F0A
:10796E00696E74733A20582025752C205920257580
:10797E002C205A20257500582052616E67653A20DA
:10798E0025752C20257500592052616E67653A20A9
:10799E0025752C202575005A2052616E67653A2098
:1079AE0025752C2025750053746F72696E67204300
:1079BE00616C6962726174696F6E204461746120DA
:1079CE00696E20466C6173682E0043616C69627249
:1079DE006174696F6E20436F6D706C6574652E00F7
:1079EE005A65726F696E6720582C20592050574D7A
:1079FE000046696E616C2043616C3A2025752C251A
:107A0E00750046696E616C2056616C3A2025752CA6
:107A1E0025750044617461666C61736820546573EA
:107A2E0074002A2A20466C617368204641494C45F1
:107A3E0044202A2A2C20706167652025642C206240
:107A4E0079746525640050616765202564206F6B2D
:107A5E000054657374205061737365642E00496E13
:107A6E00707574205465737400444947494E3A202A
:107A7E000031003000583A2025752C20593A202527
:107A8E0075005A3A2025752C2035563A202575005A
:107A9E0035563A2025752C20543A20257500413054
:107AAE003A2025752C2041313A2025750041323A75
:107ABE002025752C2041333A20257500496E7075AE
:107ACE00745465737420436F6D706C6574652E000D
:107ADE004F757470757420546573740062697420E8
:107AEE002564004F75747075745465737420436FFC
:107AFE006D706C6574652E00412F4420546573744F
:107B0E0000426F61726420666C61742E205465733E
:107B1E007420666978747572652061747461636827
:107B2E0065642E005820205920203556205A2020DA
:107B3E00413020413120413220413300312020207C
:107B4E00003020202000414454657374205041536E
:107B5E00532E002A2A20414454657374204641490D
:107B6E004C202A2A004469676974616C20494F20B1
:107B7E0054657374004F6E6C792056616C69642085
:107B8E00666F7220535532202D2045786974696EC8
:107B9E00672E00446967494F5465737420506F69AE
