:1000A60053656C65637420447269766572005365A6
:1000B6006C65637420547261636B0053656C656391
:1000C600742056656869636C650053657373696F60
:1000D6006E730056696577204C61707300457261D6
:1000E600736520446174610053657373696F6E2094
:1000F60044657461696C00313020487A00323020E2
:10010600487A00343020487A0053656C6563742061
:1001160052617465005553205374616E6461726454
:10012600004D65747269630053656C656374205590
:100136006E697473004C617074696D6520486F6CEC
:1001460064004772617068205363616C6500547285
:1001560061636B204C656E677468004C6170205358
:10016600657474696E6773002D302E3520746F20A8
:10017600302E3573002D3120746F202B3173002DF6
:100186003220746F202B3273002D3520746F202B94
:100196003573002D313020746F202B3130730053AE
:1001A600686F7274203C31206D692C312E366B6D70
:1001B600004D656420312D356D692C312E362D3874
:1001C6006B6D004C6F6E6720352B206D692C382BBC
:1001D600206B6D00447269766572005665686963C6
:1001E6006C6500547261636B0053616D706C696E6F
:1001F60067205261746500457261736520536573AB
:1002060073696F6E73005061636B20536573736916
:100216006F6E7300474D54204F66667365740043D6
:100226006F6E747261737400556E697473004C61FD
:10023600702F5175616C2053657474696E67730015
:10024600466163746F72792044656661756C747378
:100256000053657474696E6773004C617073005166
:1002660075616C696679696E67004175746F637252
:100276006F7373202F2052616C6C79005365676D24
:10028600656E742054696D696E670044726976659F
:10029600005461636820262053706565646F0047CB
:1002A600617567657300472D466F72636573004716
:1002B600732026204C6F636174696F6E00496E70FF
:1002C6007574730044617461204D6F646500475016
:1002D6005320436F6D7061737300475053204C6F0A
:1002E600636174696F6E00436865636B20496E7065
:1002F600757473004F74686572204D6F6465730082
:100306005265636F72642044617461005669657753
:100316002053657373696F6E73004368616E67651A
:100326002053657474696E67730043757272656EE7
:100336007420537461747573004F74686572204637
:1003460065617475726573004D61696E204D656EE9
:100356007500594553004E4F002041726520596F74
:100366007520537572653F0020436C72205374618B
:1003760072742F46696E3F005357204D49534D41C5
:10038600544348002052656C6F6164205357004403
:100396005249564520534146454C59002020445564
:1003A6002073772025642E253032642064617461C1
:1003B60020256400202053552073772025642E25A0
:1003C6003032642064617461202564002A2053550C
:1003D600204E4F5420434F4E4E4543544544202A09
:1003E600005468697320756E69742062656C6F6E5F
:1003F600677320746F004C6F6164696E6700537495
:100406006F72696E670043616E63656C696E670043
:10041600030100FF43757272656E74205374617434
:1004260075730007FF00D9FFD11C04FF00E3FFF33B
:100436001C06FF00EEFF82D1000000000000000253
:10044600FF00FDFFFABC02FF0103FFFABC02FF0139
:1004560009FFFABC0000000000000002FF011BFFBC
:10046600FAEF02FF0127FFFAEF000000000000008C
:1004760007FF013BFFF42506FF0148FFF65E06FF76
:100486000154FFFC070000000000000002FF016E9F
:10049600FFFB5102FF017BFFFB5102FF0185FFFBC2
:1004A6005102FF018FFFFB5102FF0199FFFB510033
:1004B60000000000000002FF01A5FFFBAF02FF01E4
:1004C600B7FFFBAF02FF01C9FFFBAF000000000052
:1004D600000006FF01DAFFCAA906FF01E1FFC8EE28
:1004E60006FF01E9FFC72006FF01EFFFEF3504FF16
:1004F60001FDFFFA5206FF020CFFFD0B07FF021A71
:10050600FFF37507FF0225FFF26806FF022EFFFCC8
:100516008301FF02340103BD04FF0246FFFB2100F5
:1005260000000000000007FF0260FF594807FF02B5
:1005360065FF594807FF0270FF594807FF0282FF0F
:10054600594807FF0291FF594807FF0297FF59488C
:1005560007FF02A5FF594807FF02ACFF594807FFEE
:1005660002B5FF594807FF02C3FF594800000000C3
:1005760000000007FF02D4FF594807FF02E0FF59B9
:100586004807FF02EDFF5948000000000000000F79
:100596000F0F0FFFFFFFFF0F0F0F0FFFFFFFFFCF25
:1005A600CFCFCFCFFFFFFEFC008FCFCFCFCFCFCFA8
:1005B600CFCFFFFEFEFCFCFEFFFF0F0F0F0F0F0F4E
:1005C6000FFFFFFEF800FFFFFFFF0F0F0FFFFFFFFC
:1005D600FF0F0F0FFFFFFEFC008FCFCFCFCFCFCF88
:1005E600CFCFFFFEFEFC0F0F0F0FFFFFFFFF0F0F1A
:1005F6000F0FFCFEFFFFCFCFCFCFCFCFFFFFFEFC0D
:10060600000000007F7F7FFF000000007F7F7F7F6C
:1006160003070F1F3F7F7B73613F7F7F7B7B7B7B66
:100626007B7B7B7F7F7F7F1F3F7F7F78787B7F7F92
:100636007E7C3F7F7F7F607F7F7F7F0000007F7FA4
:100646007F7F0000007F7F7F7F3F7F7F7B7B7B7B81
:100656007B7B7B7F7F7F7F000000007F7F7F7F002B
:100666000000001F3F3F7F7B7B7B7B7B7B7B7B7917
:1006760078FFFFFFFFFFFFFFFFFFFFFFFFFFFFFF0B
:10068600FFFFFFFFFFFFFFFFFFFFFFFFFFFFFFFF74
:10069600FFFFFFFFFFFFFFFFFFFFFFFFFFFFFFFF64
:1006A600FFFFFFFFFFFFFFFFFFFFFFFFFFFFFFFF54
:1006B600FFFFFFFFFFFFFFFFFFFFFFFFFFFFFFFF44
:1006C600FFFFFFFFFFFFFFFFFFFFFFFFFFFFFFFF34
:1006D600FFFFFFFFFFFFFFFFFFFFFFFFFFFFFFFF24
:1006E600FFFFFFFFFFFFFFFFFFFFFF00000000000F
:1006F60000000000000000000000000000000000F4
:1007060000000000000000000000000000000000E3
:1007160000000000000000000000000000000000D3
:1007260000000000000000000000000000000000C3
:1007360000000000000000000000000000000000B3
:1007460000000000000000000000000000000000A3
:100756000000000000000000000000000000000093
:100766000000000000FF0000000000000000000084
:1007760000000000C30000000000000000000000B0
:10078600000000E70000000000000000000000007C
:100796000000C30000000000000000000000000090
:1007A6000055AA0000000000000000000000000044
:1007B60000C3000000000000000000000000000070
:1007C600E70000000000000000000000000000C379
:1007D6000000000000000000000000000000FF0014
:1007E600406070787C7E7C7870604000000000007D
:1007F60000000000000000000000000000000000F3
:1008060000000000000000000000000000000000E2
:1008160000000000000000000000000000000000D2
:1008260000000000000000000000000000000000C2
:1008360000000000000000000000000000000000B2
:1008460000000000000000000000000000000000A2
:100856000000000000000000000002060E1E3E7EA2
:100866003E1E0E0602000000000000000000000010
:100876000000000000000000000000000000000072
:100886000000000000000000000000000000000062
:100896000000000000000000000000000000000052
:1008A6000000000000000000000000000000000042
:1008B6000000000000000000000000000000000032
:1008C6000000000000000000000000000000000022
:1008D60000000000060606060606060606060600D0
:1008E6000000000000000000000000000000000002
:1008F60000000000000000000000000000000000F2
:1009060000000000000000000000000000000000E1
:1009160000000000000000000000000000000000D1
:1009260000000000000000000000000000000000C1
:1009360000000000000000000000000000000000B1
:1009460000000000000000000000000000006060E1
:100956006060606060606060600000000000000031
:100966000000000000000000000000000000000081
:100976000000000000000000000000000000000071
:100986000000000000000000000000000000000061
:100996000000000000000000000000000000000051
:1009A6000000000000000000000000000000000041
:1009B6000000000000000000000000000000000031
:1009C60000000000000000006666666666666666F1
:1009D60066666600000000000000000000000000DF
:1009E6000000000000000000000000000000000001
:1009F60000000000000000000000000000000000F1
:100A060000000000000000000000000000000000E0
:100A160000000000000000000000000000000000D0
:100A260000000000000000000000000000000000C0
:100A360000000000000000000000000000000000B0
:100A460000FFFF000081C3E7FF000081C3E7FFFF4F
:100A5600FFFFFFFFFFFFFFFFFFFFFFFFFFFFFFFFA0
:100A6600FFFFFFFFFFFFFFFFFFFFFFFFFFFFFFFF90
:100A7600FFFFFFFFFFFFFFFFFFFFFFFFFFFFFFFF80
:100A8600FFFFFFFFFFFFFFFFFFFFFFFFFFFFFFFF70
:100A9600FFFFFFFFFFFFFFFFFFFFFFFFFFFFFFFF60
:100AA600FFFFFFFFFFFFFFFFFFFFFFFFFFFFFFFF50
:100AB600FFFFFFFFFFFFFFFFFFFFFF28142814289B
:100AC600142814281428142814281428142800007C
:100AD6000000000000000000000000000000000010
:100AE6000000000000000000000000000000000000
:100AF60000000000000000000000000000000000F0
:100B060000000000000000000000000000000000DF
:100B160000000000000000000000000000000000CF
:100B2600000028142814281428142814281428141B
:100B360028142814283E7F6363637F7E60607E7F6F
:100B46006363637F3E3C19436343193C60603C1911
:100B5600436343193C3E7F7F7F7F7F7E60607E7F5D
:100B66007F7F7F7F3E000000000000000000000045
:100B760000008080808080C06030180C18B0E04093
:100B8600000000000000000000000000000000005F
:100B9600000000000000000080C0C080000080C08F
:100BA600C0C0C0800080C0C0C0C08000C0C00000FF
:100BB600C0C000C0C0C0C000C0C0C0C0C08000C0AF
:100BC600C0C0C000C0C08000C0C00080C0C0C0C0DF
:100BD600C00000000000000000000000000000004F
:100BE600000000000000000080FCFE57AB55AB552E
:100BF600AB55ABFEFC060341404080808080800000
:100C060000000000000000000000000000000000DE
:100C160000FFFF1919FFFF007FFFC0C0E161007FE1
:100C2600FFC0F0FFFF007FFFC0C0FF7F00C0FFFFD7
:100C3600C000FFFF3C7CEFC700C0FFFFC000FFFF06
:100C46000F7CFFFF007FFFC0CCFC7C000000000093
:100C56000000000000000000000000000000081C6A
:100C66003663C160311B0E070607060723212040A5
:100C76004044444488888888081111111121222291
:100C8600424444000000000000F0F81898B8B00094
:100C9600F8F89898F8F000F0F89898B83000000046
:100CA6000000F0F89898B8300018F8F81800F0F836
:100CB6001898B8B000F8F8F080F8F800E0F0383886
:100CC600F0E000F8F800000000000000000000005E
:100CD600000000000000000000000000000000000E
:100CE60000000000000000000000000000000000FE
:100CF60000000101010101020202040404000000D7
:100D06000000000F1F18191F0F001F1F010101000F
:100D1600000C1D19191F0F00000000000C1D1919E9
:100D26001F0F00181F1F18000F1F18191F0F001F75
:100D36001F010F1F1F001F1F03031F1F001F1F1868
:100D46001818180000000000000000000000FCFC5D
:100D56000000000000F8FC0C0CFCF800F8FC0C0C81
:100D6600FCF800FCFCF0B81C0C000CFCFC0C00FCB5
:100D7600FC78E0FCFC00F8FC0CCCDCD800000000A1
:100D86000000000000000000000000E0F090D8C85D
:100D9600ACA49692CA4A7E3E3090905048282824A9
:100DA60024242424242444A4140C0404885020203D
:100DB600202020202020202040C04080000000006D
:100DC6000000008040201000E7E76666666600C304
:100DD600E76666E7C300E3E76666E7C30007070161
:100DE600C3E76660E6C7076660E7E760630787C034
:100DF600E3E7C68607E3E06060E0C0006060E0E02D
:100E0600606000000000E0BE0203C3E1713034768A
:100E1600E6C53554949494949494949494949494A8
:100E26001414010202C1E474343474E4C8081828A6
:100E360090783C1E0D8640203078FCFEFFFFFE7C3D
:100E460038003F3F06060600001F3F30303F1F00B8
:100E56003F3F061E3B3100000000193B33363E1C67
:100E66000000003F3F0000003F3F0C0C3F3F003FAB
:100E76003F061E3B310000003F3F0000000000001F
:100E86000001010103070E0C0C0E07030202020209
:100E9600020202020202020202020202020202012D
:100EA600070E0C0C0E07038242E1F0F8FCFEF9F087
:100EB600E04060F0F8FDFFFDF8F060000000000083
:100EC600000000000000000000000000000000001C
:100ED600000000000000000000000000000000000C
:100EE60000000000000000000000000000000000FC
:100EF60000000000000000000000000000000000EC
:100F060000000000000000000000000000000000DB
:100F160000000000000000000080C0E0F0F8F4E2ED
:100F2600C18080C0E1F3FFFFF3E1C0804020110BD8
:100F3600070301000000000000F0F03030F0E00090
:100F4600F0F03030F0E000F0F03030303000E0F01B
:100F56003030706000E0F03030706000000000F863
:100F66000404E4F43434746404F4F434343404F4DB
:100F7600F404040404F4F434343404E4F43434742B
:100F860064043434F4F434340404F800000000C07B
:100F9600E07070E0C0003030F0F03030000000004B
:100FA600000000000000000000000080402010004B
:100FB6000000003F3F03030301003F3F0F1F3B318B
:100FC600003F3F3333333000193B33333F1E0019A4
:100FD6003B33333F1E000000007F808099BBB3B3D4
:100FE600BF9E80BFBFB3B3B080BFBFB0B0B080BF3D
:100FF600BFB3B3B0809FBFB0B0B898808080BFBF8A
:10100600808080807F000000003F3F06063F3F0053
:1010160000003F3F0000000000000000008040206C
:101026003078FCFEFFFFFE7C3800000000F0F898E8
:1010360098B830001818F8F8181800E0F03838F0AA
:10104600E000F8F89898F8F0001818F8F818180062
:1010560000000080E078180000F8F89898981800CA
:1010660018F8F81800F8F8F080F8F80018F8F818EA
:1010760000F0F89898B83000F8F88080F8F800008A
:1010860000000000000000000000000000000080DA
:1010960040E0F0F8FCFEF9F0E04060F0F8FDFFFDFE
:1010A600F8F060000000000C1D19191F0F00000069
:1010B6001F1F0000001F1F03031F1F001F1F070F16
:1010C6001D180000001F1F00000000181E07010069
:1010D6000000001F1F0101010000181F1F18001F3C
:1010E6001F010F1F1F00181F1F18000C1D19191FA5
:1010F6000F001F1F01011F1F00000000000000005D
:101106000080C0E0F0F8F4E2C18080C0E1F3FFFFA8
:10111600F3E1C0804020110B07030100000000002E
:101126000000008060101010101010101010101029
:1011360010F000000000000000F070C00000000089
:1011460000000000000000000000000080C0C0E0B9
:10115600E0F0F07878787C7CFCFCFC7C7CFCFC7C09
:101166007CFCFC7C7C7C7878F0F0E0E0C0C0800001
:10117600000000000000F010101050501010101069
:101186001010101010F000000000000000E020A079
:101196006040603808F8000080C060384F010002E7
:1011A6000300000000000000000018438478C0809F
:1011B60000C0601F00FF000000000000000000806B
:1011C600E0F8FCFEFFFFFFFFFFFFFFFFFFC0C0DBF5
:1011D600DBC0E4FFFFFCF8C3C3F8FCFFFFC0C0DBC5
:1011E600DBDFFFFFFFFFFFFFFFFFFEFCF8F0E08005
:1011F6007F0087C0000000000000000000010CF323
:1012060086FC0000000000FFF700000000003E0121
:10121600FF111412131010101010101010101010CF
:10122600909090101010101312151110101010132A
:101236001214141C181010101E1F1F9FDFFF7F3F73
:101246001F1F1F1F1F1F1FDF23B9A535B5A5392176
:101256002121212139A5B535A5B923DF1F1F1F1F60
:101266001F1F1F3F7FFFDF9F171118141710101045
:101276009090901010101010101015131F1E1010C3
:101286001C1310101010101010101F00003040001A
:1012960040000000000000000705010302030000F3
:1012A6000000000000000000000000000080C0E018
:1012B60070381C0E0703010000000000000000004B
:1012C6007F7870717130111110363636363610113E
:1012D6001130717170787F0000000000000000007E
:1012E6000103070E1C3870E0C181000001000020D8
:1012F6001038280830000000000000000000000040
:101306000000000000FFFFFFFFFFFFFFFF000000DF
:101316001C1C1C000000FFFFFFFFFFFFFFFF00007B
:1013260000FFFFFFFFFFFFFFFF0000001C1C1C006B
:101336000000FFFFFFFFFFFFFFFF000000FFFFFFB2
:10134600FFFFFFFFFF000000000000000000FFFF9E
:10135600FFFFFFFFFFFF3F3F3F3F3F3F3FFF0000D5
:10136600001C1C1C0000003F3F3F3F3F3F3F3F002B
:1013760000003F3F3F3F3F3F3F3F0000001C1C1C1B
:101386000000003F3F3F3F3F3F3F3F0000003F3FE1
:101396003F3F3F3F3F3F0000001C1C1C0000003F3A
:1013A6003F3F3F3F3F3F3F0000000000000000007E
:1013B600000000000000000000000000F0F0F0F067
:1013C600F0F0F0F0000000C0C0C0000000F0F0F047
:1013D600F0F0F0F0F0000000F0F0F0F0F0F0F0F0D7
:1013E600000000C0C0C0000000F0F0F0F0F0F0F027
:1013F600F0000000F0F0F0F0F0F0F0F00000000077
:101406000000000000F0F0F0F0F0F0F0F000000056
:1014160000000000000000000000000000000000C6
:1014260000000000000000000000000000000000B6
:10143600000000000000FFFFFFFFFFFFFFFF0000AE
:1014460000C1C1C1000000FFFFFFFFFFFFFFFF005B
:101456000000FFFFFFFFFFFFFFFF000000C1C1C14B
:10146600000000FFFFFFFFFFFFFFFF000000FFFF80
:10147600FFFFFFFFFFFF000000C0C0C0000000FF2D
:10148600FFFFFFFFFFFFFF0000000000000000005D
:101496000000000000000000000000C04040404086
:1014A60040404040404040404040C04040404040B6
:1014B600434343434343434340C04041414140408B
:1014C6004043434343434343C34040404343434372
:1014D60043434343404040C141414040404343436E
:1014E60043434343434040C043434343434343434F
:1014F600404040414141C04040434343434343434E
:101506004340404040C04040404040404040404052
:1015160040404040C0FF8080808080808080808006
:1015260080808080E1808080808080808080808054
:10153600808080F380808080808080808080808032
:101546008080E18080808080808080808080808034
:1015560080AAD58080808080808080808080808006
:1015660080E1808080808080808080808080808014
:10157600F38080808080808080808080808080E191
:101586008080808080808080808080808080FF0056
:101596000000F0F03030F0E000F0F030303000C005
:1015A600E07070E0C000F0F03030F0E000F0F000E5
:1015B60000F0F0000000003030F0F0303000E0F0D5
:1015C6003030F0E0000000000000808080800000E5
:1015D60000000000000000C0201008060100000006
:1015E6000000000000009F00000000000000000155
:1015F60006081020C00000000000000000008080E7
:101606008080000000000000000000003F3F071F30
:101616003B31003F3F333330003F3F06063F3F003C
:101626003F3F30303F1F0001033F3F0301000000F2
:101636000000003F3F0000001F3F30303F1F00000A
:101646000080F0FE0F01010FFEF0800020100C025A
:1016560001000000C02010D0D01020C00000000003
:101666003F000000C02010D0D01020C000000001B4
:10167600020C10200080F0FE0F01010FFEF080002A
:101686000000000000000000F8F80000000000E084
:10169600F03838F0E000F8F80000F8F800F8F8F054
:1016A60080F8F800F0F81818383000F8F88080F85C
:1016B600F80000000000003078F8FCFFE7C0C0C06A
:1016C600C0C0C0E7FFFCF878300000F80E03037BCB
:1016D6007B7B037B7B7B03838383838383037B7B8C
:1016E6007B037B7B7B03030EF800003078F8FCFF5E
:1016F600E7C0C0C0C0C0C0E7FFFCF87830000000FB
:1017060000001F1F18181818001F1F03031F1F00B3
:101716000F1F18181F0F001F1F010F1F1F000F1F7D
:1017260018181C0C001F1F01011F1F0000000000DD
:10173600000000000103030707070707070303016B
:1017460000000000003F3E3C3C3C3C3C1C040404C2
:101756000C0D0D0D0D0D0D0C0404041C3C3C3C3C05
:101766003C3E3F0000000000010303070707070790
:101776000703030100000000000000F00808C8E8A5
:101786006868E8C808E8E868686808E8E8080808D3
:1017960008E8E868686808C8E86868E8C808686823
:1017A600E8E868680808F000000000000000000093
:1017B60080F03C06063CF0800000000000000000BF
:1017C6000000000000000000000000000000000013
:1017D6000000000000000000000000000000000003
:1017E6000000000080F03C06063CF080000000008F
:1017F6000000000000FF0000337766667E3C007F35
:101806007F666660007F7F606060007F7F666660DF
:10181600003F7F606070300000007F7F00000000A6
:10182600FF0000000002020002070F0E1C1C1C1C19
:101836000E0F07020000020202020202028040208E
:10184600A2A2224282020200000002020282422278
:10185600A2A02040820202020202000002070F0E2E
:101866001C1C1C1C0E0F07020002020000000030A8
:1018760031F1F1313101E1F13131F1E101010101E2
:1018860001E1F131317161013131F1F1313101E1C2
:10189600F13131F1E101E1F13131706000F0F03008
:1018A60030300000000000000000000000000000D2
:1018B60000000000F01C0607F6F6F707F6F6F70636
:1018C60006060606060606F7F6F607F7F6F607060E
:1018D6001CF00000000000000000000000000000F6
:1018E60000000000000000000000003F3F00000074
:1018F6001F3F30303F1F0000000000193B33333FCD
:101906001E0000003F3F0000003F3F06063F3F002D
:101916001F3F30363E1E003F3F333330000000008D
:1019260000000000000000000000000000007F7CB6
:10193600787878787838080808181B1B1B1B1B1B3F
:10194600180808083878787878787C7F00000000D6
:10195600000000000000000000000000000000F889
:10196600FC1E0F070303030303030303030303031D
:101976000303030303030303030303030303030331
:101986000303030303030303030303030303030321
:101996000303030303030303030303030303030311
:1019A6000303030303030303030303030303030301
:1019B60003030303030303030303030303030303F1
:1019C60003030303030303030303030303030303E1
:1019D60003030303070F1EFCF8FFFF0000000000CF
:1019E60000000000000000000000000000000000F1
:1019F60000000000000000000000000000000000E1
:101A060000000000000000000000000000000000D0
:101A160000000000000000000000000000000000C0
:101A260000000000000000000000000000000000B0
:101A360000000000000000000000000000000000A0
:101A46000000000000000000000000000000000090
:101A560000FFFFFFFF000000000000000000000084
:101A66000000000000000000000000000000000070
:101A76000000000000000000000000000000000060
:101A86000000000000000000000000000000000050
:101A96000000000000000000000000000000000040
:101AA60000000000000000000000000000008000B0
:101AB600008000C0404040800000804080000080E0
:101AC6004040408000C00000804000FFFF1F3F787C
:101AD600F0E0C0C0C0C0C0C0C0C0C0C0C0C0C0C0B0
:101AE600C0C0C0C0C0C0C0C0C0C0C0C0C0C0C0C0F0
:101AF600C0C0C0C0C0C0C0C0C0C0C0C0C0C0C0C0E0
:101B0600C0C0C0C0C0C0C0C0C0C0C0C0C0C0C0C0CF
:101B1600C0C0C0C0C0C0C0C0C0C0C0C0C0C0C0C0BF
:101B2600C0C0C0C0C0C0C2C5C8C2C5C8C0DFD2D24E
:101B3600D2CDC0DFC4C4C4DFC0CFD0D0D0C8C0DFD0
:101B4600C2C5C8D0C0FFFF000000000000005F0053
:101B560000000E000E00247E247E24242A7F2A12F2
:101B6600261608343236495926500000000E003E2B
:101B760041410000000041413E2A1C3E1C2A080843
:101B86003E08080000004030080808080800000069
:101B9600400020100804023E4549513E00427F4065
:101BA60000724949494622494949361814127F109C
:101BB6002F494949313E49494932017109050336E0
:101BC60049494936264949493E0000363600000053
:101BD6002636000018244200001414140000422483
:101BE600180002015109063E415D553E7C12111254
:101BF6007C7F494949363E414141227F4141413E30
:101C06007F494949417F090909013E4149493A7FCE
:101C16000808087F00417F41002040413F017F08BE
:101C26001422417F404040407F027C027F7F020CAD
:101C3600307F3E4141413E7F090909063E415161DF
:101C46007E7F09192946264949493201017F01014A
:101C56003F4040403F1F2040201F3F403E403F4105
:101C6600221C2241010678060161514945437F4104
:101C76004100000204081020000041417F301C078B
:101C86001C3040404040400102040000345454548B
:101C9600787F444444383844444448384444447F74
:101CA6003854545458087E090902185454543C7F39
:101CB6000808087000047D40002040443D007F1065
:101CC600384400007F4000007C047C04787C0404D7
:101CD600047838444444387E1212120C18242464C2
:101CE600587C040404084854545424043F444424AF
:101CF6003C4040403C0C3040300C3C4038403C447A
:101D060028102844004C50503C645454544C083E0F
:101D160041410000007F00000041413E08040202EC
:101D260004020000000000000000000000000000A7
:101D36000000000000FFFF00000000000033330039
:101D4600000000001E1E001E1E0000000000000015
:101D5600000030FEFE3030FEFE30031F1F03031F5F
:101D66001F0378FCCCFFFFCCCC8C0C0C0C3F3F0C3B
:101D76000F070E1F1BDFFE7C1F07303C0F1F3F3671
:101D86003E1C1CBEF7E3F73E9C800F1F39391F0F20
:101D96003F3B000006C6FE7C00000000000000007D
:101DA60000000000FCFE0703000000000F1F383093
:101DB600000000000307FEFC0000000030381F0F83
:101DC6000000CEDEF0FEFEF0DECE1C1E031F1F035B
:101DD6001E1CC0C0C0FCFCC0C0C00000000F0F002D
:101DE60000000000000000000000000000002C1CA5
:101DF600000000C0C0C0C0C0C0000000000000005D
:101E0600000000000000000000000000303000006C
:101E16000000000000C0F03C0F03303C0F03000040
:101E26000000F8FE07030307FEF8071F38303038B6
:101E36001F0700181C0EFFFF0000000030303F3F58
:101E460030300C0E0783C3E77E3C3C3E37333130DF
:101E560030300C0EC7C3C3E7FE3C0C1C383030399B
:101E66001F0F00C0F03C0FFFFF0007070606063FE6
:101E76003F06FFFF636363E3C380183830303038B2
:101E86001F0FFCFEC76363E7C6800F1F383030386C
:101E96001F0F030303C3F37F1F07303C1F07010017
:101EA60000003CFEE7C3C3E7FE3C0F1F3930303964
:101EB6001F0F7CFEC78383C7FEFC183831313138CB
:101EC6001F0F000000303000000000000003030078
:101ED600000000008E8E8E0000000000110F07002B
:101EE600000080C0E070381C0C00000103070E1CC7
:101EF6001800303030303030303003030303030332
:101F06000303000C1C3870E0C08000181C0E070389
:101F160001001C1E0686C6FE7C0000003737010045
:101F26000000FEFF03F3FB1BFFFE1F3F3033373677
:101F36003733F8FC0E07070EFCF83F3F0303030395
:101F46003F3FFFFFC3C3C3E7FE9C3F3F30303038FF
:101F56001F0FFCFE070303070E0C0F1F3830303827
:101F66001C0CFFFF03030307FEFC3F3F30303038F5
:101F76001F0FFFFFC3C3C3C3C3033F3F303030301F
:101F86003030FFFF6363636303033F3F00000000DD
:101F96000000FCFE070383878E8C0F1F383031311B
:101FA6003F1FFFFFC0C0C0C0FFFF3F3F0000000053
:101FB6003F3F000303FFFF0303000030303F3F3085
:101FC600300000000303FFFF03031C3C30303F1FBB
:101FD6000000FFFFF0381C0E07033F3F03070E1CEF
:101FE6003830FFFF0000000000003F3F3030303047
:101FF6003030FEFF3EF8F83EFFFE3F3F003F3F0019
:102006003F3FFFFF3CF0C000FFFF3F3F0000030FD4
:102016003F3FFCFE07030307FEFC0F1F3830303836
:102026001F0FFFFF838383C7FE7C3F3F0101010132
:102036000000FCFE07030307FEFC0F1F38363E1C9C
:102046003F37FFFF838383C7FE7C3F3F03070F1D98
:1020560038303C7EE7C3C3C78E0C0C1C3830303991
:102066001F0F030303FFFF0303030000003F3F00AE
:102076000000FFFF00000000FFFF0F1F3830303860
:102086001F0FFFFF80000080FFFF00030F3C3C0F87
:102096000300FFFF00FFFF00FFFF0F3F3F07073F63
:1020A6003F0F071F3CF0F03C1F07383E0F03030F9E
:1020B6003E380F7FF8C0C0F87F0F0000013F3F0198
:1020C6000000030383E3FB3F0F07383E3F33303006
:1020D60030300000FFFF0303000000003F3F3030B8
:1020E6000000030F3CF0C000000000000000030FDA
:1020F6003C3000000303FFFF0000000030303F3F8C
:10210600000080C0E07070E0C080030100000000A5
:102116000103000000000000000030303030303095
:102126003030000003070E1C1800000000000000FD
:102136000000607030303030F0E01E3F3333333310
:102146003F3FFFFF70303070E0C03F1F38303038FF
:102156001F0FC0E070303070E0C00F1F38303038CD
:102166001C0CC0E070303070FFFF0F1F3830301885
:102176003F3FC0E070303070E0C00F1F3B33333359
:102186003B1B0060FEFF6363030000003F3F00004F
:102196000000E0F030303030F0E0193B3333333BB1
:1021A6001F0FFFFF70303070E0C03F3F000000009F
:1021B6003F3F000060ECEC0000000000003F3F00E5
:1021C600000000000060ECEC0000183830303F1FC3
:1021D6000000FFFFC0E0703818003F3F03070E1CE9
:1021E6003830000000FFFF0000000000001F3F30F5
:1021F6000000F0E070F0E070F0E03F3F003F3F008D
:102206003F3FF0E070303070E0C03F3F000000001C
:102216003F3FC0E070303070E0C00F1F38303038BC
:102226001F0FF0F030303030F0E03F3F0303030380
:102236000301E0F030303030F0F001030303030314
:102246003F3FF0F0E0703070E0C03F3F000000001C
:102256000000E0F0303030307060193B33333333F8
:102266003F1E6060FEFE6060600000001F3F303071
:102276003000F0F000000000F0F00F1F383030188A
:102286003F3F70F0C00000C0F07000030F3C3C0FF1
:102296000300F0F000C0C000F0F00F3F381F1F38F9
:1022A6003F0F60E0C08080C0E06030381D0F0F1D1A
:1022B6003830F0F080000080F0F0183933333339CD
:1022C6001F0F30303030B0F0F070383C3E373331CD
:1022D600303000C0FE3F0303000000001F3F3030D7
:1022E6000000000000FEFE0000000000001F1F00AE
:1022F6000000000003033FFEC000000030303F1F17
:10230600000080C06060C0C06020000000000000C7
:1023160000007EFFC3C3FF7E00C6FFFFC000E6F3DA
:10232600FBDBDFCE66E7C3DBFF763C3E33FFFF30E9
:10233600DFDFDBDBFB737EFFDBDBFB700003E3FB36
:102346003F0F66FFDBDBFF66CEDFDBDBFF7EC0C059
:102356000000FEFF0303FFFE010303030301000663
:10236600FFFF000000030303030086C7E3733F1E5D
:1023760003030303030386873333FFCE01030303FB
:102386000301F0FCCFFFFFC0000000030300BFBF46
:102396003333F3E3010303030301FEFF3333F7E6AD
:1023A6000103030303010383E3FB3F0F0003030061
:1023B6000000CEFF3333FFCE0103030303019EBFAC
:1023C6003333FFFE010303030301FFFF0000000098
:1023D60003030303030300000000000000000000E5
:1023E60000001818181818181818181818FFFF18C9
:1023F6001818FF1F1F1F1FE1E1E1E1FF03020202A0
:1024060002030303030300000000000000000000B5
:1024160000000000000000000000000000000000B6
:1024260000000000000000000000000000000000A6
:102436000000000000000000000000000000000096
:102446000000000000000000000000000000000086
:102456000000000000000000000000000000000076
:102466000000C0C1C1810140C30103C00280C24156
:10247600C60106C00780C7410500C5C1C481044026
:10248600CC010CC00D80CD410F00CFC1CE810E40D6
:102496000A00CAC1CB810B40C90109C00880C841E6
:1024A600D80118C01980D9411B00DBC1DA811A4056
:1024B6001E00DEC1DF811F40DD011DC01C80DC4126
:1024C6001400D4C1D5811540D70117C01680D64156
:1024D600D20112C01380D3411100D1C1D081104066
:1024E600F00130C03180F1413300F3C1F281324056
:1024F6003600F6C1F7813740F50135C03480F44126
:102506003C00FCC1FD813D40FF013FC03E80FE41D5
:10251600FA013AC03B80FB413900F9C1F8813840E5
:102526002800E8C1E9812940EB012BC02A80EA4155
:10253600EE012EC02F80EF412D00EDC1EC812C4025
:10254600E40124C02580E5412700E7C1E681264055
:102556002200E2C1E3812340E10121C02080E04165
:10256600A00160C06180A1416300A3C1A281624055
:102576006600A6C1A7816740A50165C06480A44125
:102586006C00ACC1AD816D40AF016FC06E80AE41D5
:10259600AA016AC06B80AB416900A9C1A8816840E5
:1025A6007800B8C1B9817940BB017BC07A80BA4155
:1025B600BE017EC07F80BF417D00BDC1BC817C4025
:1025C600B40174C07580B5417700B7C1B681764055
:1025D6007200B2C1B3817340B10171C07080B04165
:1025E600500090C191815140930153C05280924155
:1025F600960156C057809741550095C19481544025
:102606009C015CC05D809D415F009FC19E815E40D4
:102616005A009AC19B815B40990159C058809841E4
:10262600880148C0498089414B008BC18A814A4054
:102636004E008EC18F814F408D014DC04C808C4124
:10264600440084C185814540870147C04680864154
:10265600820142C043808341410081C18081404064
:10B7040043150A0000004E0514000000000000006C
:10B714000000000000000042041A000042019400EE
:10B72400004204C500A04215A10000411435FE5595
:10B7340014410000000000000000000000000000B0
:10B74400000000000000004204CA00004201920010
:10B75400004214330000420492000041000E0041F4
:10B7640015B4004204C8000041019D0047141D00A7
:10B7740000000000000043141A0000004100000310
:10B7840041069C0041069D00411593144104C700E5
:10B794004106BA0144016FFFFFFFFF44018EFFFF22
:10B7A400FFFF420134FFFF420136FFFF4D0001FF5E
:10B7B40000A60103B0000000000114704D000FFF4B
:10B7C40000B40103B0000000000114704D06ADFF89
:10B7D40000C10103B0000000000114704D15B5FF55
:10B7E40000D001140D000000000114704B143653F6
:10B7F400657373696F6E202323004D14630114363F
:10B804000104B8000000000103CA4D04B801143655
:10B814000115B500000000FF04294D069EFF010F2D
:10B824000103B000000000FF04454D0173FF012E29
:10B834000103B000000000FF04614D03BDFF01617E
:10B844000103B000000000FF04764D1594FF014889
:10B854000103BD00000000FF04924D040DFF0154DC
:10B864000103BD00000000FF04BC4D03B0FF0257FC
:10B8740001140D00000000FF04D84D1456FF02CA45
:10B8840001140D00000000FF052C4D0162FF02FAB7
:10B8940001140D00000000FF0579602A013801FF42
:10B8A400030601145606FF0312FF000301FF0320E1
:10B8B4000103B006FF0330FF8C3601FF033F010193
:10B8C40062000000000000004D140DFF034E01143F
:10B8D4000D0000000001013855001E06FF0358004A
:10B8E400000001FF035C00000000000000000000F5
:10B8F4005515C207FF0358FFAACC07FF035CFFF0EE
:10B90400E9000000000000004D15A3FF035F0000E4
:10B91400000000000001001E4D1424FF036E00000F
:10B9240000000000000115C247019601000000015B
:10B9340014244D0181000000000000000000FF01FC
:02B9440001966A
:10756400E49017F8F090181404F075840F75FFDE9A
:1075740075FFAD12F3CE12EAEAE49004A7F090048A
:1075840095F0900494F09004A604F0E49004A8F01C
:10759400A3F0900496F0A3F09004B1F090049FF04F
:1075A4009004B0744EF090049EF07B007A00790051
:1075B4009004AD12574B9004AA12574B90049B129F
:1075C400574B90049812574B0B7A0679BB9004A33F
:1075D40012574B7A0A79F59004B512574B7A0F7902
:1075E400CF9004A012574B7A1179EC9004B2125741
:1075F4004B7A0479947F007E847D037C0012BB7CEB
:107604007B017A0479A67F007E847D037C0012BB13
:107614007C7F007E9612FC3212FD9175280175293B
:1076240014752A097B017A14793112DF6312BD8043
:10763400126531D2AF12E1E6D2FEE4FF12EBF43070
:10764400D82175610075620F7563FF7564057565F2
:107654009575662D7B717A007D097C007F037E0021
:0676640012A56630D832C9
:10766A009017E71256E3000AFC80E4FFFEFDFC9047
:10767A0017E71256BBD312562840179017E712562F
:10768A009F74FFFBFAF9F81254E29017E71256D7E3
:02769A0080D896
:10769C00E49017F9F0A3F0900418E493FF3395E00D
:1076AC00FE9004A075F012EF125714EE75F012A4B0
:1076BC002583F583125742900007E4125310755B33
:1076CC0000755C017B917D027F0312BF9412F9E07F
:1076DC0090069CE0701B9017F9E475F0011253CFE3
:1076EC00C39017FAE094039017F9E06480948040FB
:1076FC00A690069CE06012755B00755C017B707D4A
:10770C00027F0312BF9412F9E0901576E0FFA3E01C
:10771C009017FBCFF0A3EFF0901578E0FFA3E0906B
:10772C0017FDCFF0A3EFF0E4FF12EBF490069CE012
:10773C00FF12A81FEF70527BFF7A03797EF5567506
:10774C00572DFF12DE7F7BFF7A03798AE4F556759D
:07775C00572D7F0212DE7FB2
:107763009017EB1256E300225510E4FFFEFDFC9048
:1077730017EB1256BBD312562840179017EB12562D
:107783009F74FFFBFAF9F81254E29017EB1256D7E5
:0277930080D89C
:10779500E4FF12EBF47BFF7A037995E4F556755710
:1077A5002DFF12DE7F7564FF7565037566A275672B
:1077B50000756802756900756A2C756B00756C0833
:1077C5007B017A1779FF1288237B017A1779FFE409
:1077D500F54075412D7F0212DD9990069CE06047CA
:1077E5007564FF7565037566BA9017FBE0FAA3E04B
:1077F500FB7C007D64FFAE021253448E678F687C6C
:10780500007D64AF03AE021253448C698D6AA3E018
:10781500F56BA3E0F56C7B017A1779FF1288237B62
:10782500017A1779FF80067BFF7A0379D2E4F54068
:0B78350075412D7F0312DD9930D83221
:107840009017EF1256E300112A88E4FFFEFDFC902A
:1078500017EF1256BBD312562840179017EF125647
:107860009F74FFFBFAF9F81254E29017EF1256D703
:0278700080D8BE
:10787200E4FF12EBF47BFF7A0379E7E4F54075410C
:107882002DFF12DD997B017A15790DE4F5407541E2
:107892002D7F0212DD997B017A157921E4F540757D
:1078A200412D7F0312DD997B017A01799E75620079
:1078B2007563037F107E0212E81490069CE0700349
:1078C2000279C8900418E493FF3395E0FE9004A077
:1078D20075F012EF125714EE75F012A42583F5839A
:1078E200125742900007E41253109004A075F01250
:1078F200EF125714EE75F012A42583F58312574246
:107902009000087403125310E49017F9F0A3F0905A
:1079120017F9E0FEA3E0FFC39410EE648094825056
:107922004D749E2FF58274013EF583E0FF9004189A
:10793200E493FD3395E0FC9004A075F012ED12572C
:1079420014EC75F012A42583F5831257429017FAAE
:10795200E02409FD9017F9E034008D82F583EF12DF
:1079620053109017F9E475F0011253CF80A1755BA3
:1079720002755C127B987D027F0312BF9412F9E0BC
:1079820090157DE030E4047F0080027F01900418AE
:10799200E493FD3395E0FC9004A075F012ED1257CC
:1079A20014EC75F012A42583F58312574290000758
:1079B200EF125310755B00755C017B947D027F03AF
:1079C20012BF9412F9E0E49017F9F0A3F09017F9BE
:1079D200E0FEA3E0FFC39404EE6480948050347C04
:1079E200007D28125332749E2FF974013EFA7B01F6
:1079F200C001742F2FF9740F3EA801FC7D01D00144
:107A02007E007F2812525F9017F9E475F00112533D
:107A1200CF80BAE49017F9F0A3F09017F9E0FEA333
:107A2200E0FFC39402EE6480948050347C007D2495
:107A320012533274CE2FF974023EFA7B01C00174E4
:107A4200CC2FF974043EA801FC7D01D0017E007F99
:107A52002412525F9017F9E475F0011253CF80BAE5
:037A620030D832E7
:107A65009017F31256E3000BAC48E4FFFEFDFC90C3
:107A750017F31256BBD312562840199017F3125616
:107A85009F74FFFBFAF9F81254E29017F31256D7D8
:027A950080D897
:107A9700C2FEE4FF12EBF4752801752904752A92DA
:107AA7007B017A14793312D55A7B017A01799E7555
:107AB70062007563017F107E0212E8149001A1E055
:107AC700540F24FC600C240270109015937414F06A
:107AD700800E9015937428F08006901593740AF021
:107AE7009001A2E09004C7F0901409E0FCA3E0FD28
:107AF7007F017E0012F0139004C7E030E7034403D0
:107B0700F0E49017F9F0A3F09017F9E0FEA3E0FF77
:107B1700C39410EE648094825017749E2FF582747C
:107B2700013EF583E4F09017F975F0011253CF8009
:0C7B3700D7E4901435F07D03FF126D6060
:107B430090157DE030E4047F0080027F01EF702018
:107B5300C3900521E094F0900520E0940040077D58
:107B6300067F01126D6030DE07E4900520F0A3F07C
:107B7300E49017F7F09017F7E0FFC394065053749F
:107B8300017E00A807088005C333CE33CED8F9FFA2
:107B9300ADD8EF5D60349017F7E0FD25E02414F5D0
:107BA30082E43405F583E0FEA3E0C39409EE940078
:107BB30040057F01126D609017F7E025E02414F56E
:107BC30082E43405F583E4F0A3F09017F7E004F0C2
:0D7BD30080A3900498125742E94A4B6023AA
:107BE0009004981257428B228A2389247B007A00C2
:107BF000790090049812574BAB22AA23A924E4FFE2
:037C0000122666E3
:0B7C03009004AA125742E94A4B60238C
:107C0E009004AA1257428B228A2389247B007A0081
:107C1E0079009004AA12574BAB22AA23A9247F0104
:037C2E00122666B5
:107C31009015A1E07002A3E07003027B43E490156C
:107C4100A1F0A3F090069DE0FFB4F018901435F078
:107C5100E4901433F0A3F090000E74FFF0FB7A036C
:107C610079FC801290069DE0FFB4F115901435F077
:107C71007BFF7A04790412FCEAE490069DF0027B12
:107C81004390069DE0FF64F26003027B439014354C
:107C9100EFF07BFF7A04790C12FCEA901432E024B5
:107CA100FBFD901431E034FFFC7B01E4FFFE12E99F
:077CB10043E4F58443EF01F9
:037CB800027B4309
:10F9E00090150BE070FA900498125742E94A4B6068
:01F9F00029ED
:10F9F10090049812574290181512574B90069C7418
:10FA010001F07B007A00790090049812574B90180E
:09FA110015125742E4FF122666AB
:01FA1A0022C9
:0300000002E9D43E
:0CE9D400787FE4F6D8FD75818002EA1B14
:10D8CC002530326420004C49535420454D50545956
:10D8DC00002A004E6F205355004E6F20496E707514
:10D8EC00747300472D466F7263657300496E7075D3
:10D8FC007473004D656D2046756C6C002530326478
:10D90C00004D454D2025644B2F25644B2C20256460
:10D91C002525004C4150532025642C205241544560
:10D92C00203130487A004C4150532025642C205231
:10D93C00415445203230487A004C415053202564E4
:10D94C002C2052415445203430487A0054656D7077
:10D95C002025332E32662046005265632054696DB3
:10D96C00653A2025322E3166204872730053657358
:10D97C007320417661696C3A20256400492F4F3A37
:10D98C0020412D2D2D2D20442D2D20462D2D0050A8
:10D99C006F7765723A2025752525004E6F204C61F6
:10D9AC00707300436F6E7420256400474D5420251E
:10D9BC002B303264004C6170486F6C6420253364EA
:01D9CC00005A
:03B94600011C01E0
:10CE07007B017A187970E4F562F5637F107E021270
:10CE1700E814E4901A81F0901A80F0901A80E0FFED
:10CE2700C39415400302CF3375F019EF90187012B1
:10CE37005714E0FEA3E0F47002EEF4700302CF2A69
:10CE4700901A80E075F019901872125714E0FEA33B
:10CE5700E0F47002EEF4700302CF2A901A81E075B5
:10CE6700F012A42422F9740535F0FA7B017564FFEA
:10CE77007565D87566CC901A80E02401FFE433F518
:10CE8700678F68128823901A80E075F019901874DC
:10CE970012571412569FC006C007901A80E075F00B
:10CEA70019901878125714E0F557A3E0F558E4F5F0
:10CEB70059901A81E075F012A42425F9740535F00C
:10CEC700755A01F55B895CD007D00612B239901A02
:10CED70081E0FF75F007A42470F582E43414F5832C
:10CEE7007406F07BFF7AD979CDEF75F007A4247427
:10CEF700F582E43414F58312574BEF75F012A4242E
:10CF070022F9740535F0FA7B01901A81E075F00774
:10CF1700A42471F582E43414F58312574B901A81D7
:10CF2700E004F0901A80E004F002CE22901A81E02B
:10CF3700FD9015BBF0D394035003E480069015BB16
:10CF4700E024FD9015BEF09015BBE070028002ED65
:10CF5700149015BDF09015BCF0901A81E0FF75F0A4
:10CF670007A42470F582E43414F583E4F0FBFAF99E
:10CF7700EF75F007A42474F582E43414F58312578F
:10CF87004BEF75F007A42471F582E43414F583029E
:02CF9700574BF6
:106D6000151EA81EA605151EA81EA607E51E24F9B9
:026D7000F51E0E
:106D7200E51C60337B017A14790D901CC812574BC5
:106D82001B7A007900901CCB12574B901CCE1257E5
:106D92004BE4901CD3F0901CD2F0901CD1F0901CCC
:106DA200D512574BE4F51CE51E2407F8E6147003D0
:106DB200026F3604600302755D901CC81257429040
:106DC200000612529E7048900006125310901CC882
:106DD20012574290000A125774C003C002C00190B9
:106DE2001CC812574290000612529E75F007A4F575
:106DF2008285F083D001D002D00312529E6010909F
:106E02001CC812574290000674011252CB80BE1267
:106E1200FD7F901CC812574290000912529EB4FF87
:106E220003027043E4FF12EBF475610075620875AA
:106E320063FF75640A7565C175662D7B7A7A00E415
:106E4200FDFCFFFE12A566901CC812574212575451
:106E520012FD57C374149FFFE49EFE7C007D061250
:106E620053327D02125399A81EEFF6FD901CC812F0
:106E7200574212575475582DE4FF12E11D901CC859
:106E820012574290000A125774125285FFB4031926
:106E9200901CC8125742900009E412531090000847
:106EA200E41253109000078069EF640260030271DC
:106EB20010901CC812574290000912529EFF900077
:106EC2000712529EFEC39F4013EF2402FDE433FCDF
:106ED200EED39DEC6480F87480984055901CC812E3
:106EE200574290000712529E9000081253109000D1
:106EF2000612529EFFD39403400F901CC8125742B1
:106F020090000812529EFE700C901CC812574290BC
:106F12000009E48019EF24FDFFEE14FEC39F500424
:106F2200AF068000901CC8125742900009EF12531E
:106F320010027110E51E2408F8E6700302755B1456
:106F4200700302718124FE70030271161470030231
:106F52006FF124FE70030274BC2404600302755DA9
:106F6200901447125742E94A4B6012901CC81257BC
:106F720042C003C002C00190144702700B901CC8AB
:106F820012574290000912529EF470199000081292
:106F9200529ED39400500302755D90000874FF1254
:106FA20052CB027043901CC81257429000061252F4
:106FB2009E700302755D90000812529EFF900009B8
:106FC20012529EFEC39F5008901CC8125742801452
:106FD200EED394004016901CC812574290000974D8
:106FE200FF1252CB90000874FF1252CB0271109024
:106FF200144D125742E94A4B6015901CC812574271
:10700200C003C002C00190144D12574202734B904C
:107012001CC812574290000912529EF4704A900006
:107022000612529E14FF90000812529ED39F4003F4
:1070320002755D901CC812574290000874011252EA
:10704200CB90000812529E75F007A4FFAEF090009C
:107052000A125774E92FF9EA3EFA900001125774A6
:107062007D2D12E41C02755D901CC81257429000DF
:107072000612529EFF700302755D90000912529E25
:10708200FE90000812529EFDC39EC394025046EF2A
:1070920024FFFFE434FFFEED2401FDE433FCC3EDE5
:1070A2009FEE6480F8EC648098901CC8500D1257D3
:1070B2004290000812529E04FF800B125742900029
:1070C2000612529E14FF901CC8125742900008EFFD
:1070D2001253108039901CC8125742900009125264
:1070E2009E2403FFE433FE90000612529EFDC3EF7E
:1070F2009D7480F86E985016901CC81257429000EA
:107102000974011252CB90000874011252CB12AFD3
:10711200CE02755D90144A125742E94A4B60449080
:107122001CC8125742C003C002C00190144A125731
:107132004289828A83D001D002D003125827A81E26
:1071420008125739A81E08125720E94A4B70030249
:10715200755DA81E08125720901CC812574B7D035C
:10716200027447901CC81257429000031257749041
:107172001CC812574BE4901435F07D030273C9907A
:107182001444125742E94A4B6044901CC8125742B9
:10719200C003C002C00190144412574289828A83FC
:1071A200D001D002D003125827A81E08125739A8BE
:1071B2001E08125720E94A4B700302755DA81E088B
:1071C200125720901CC812574B7D01027447901C25
:1071D200C812574290000A125774E94A4B700302D0
:1071E200755D901CC812574290000A125774C00372
:1071F200C002C001901CC812574290000812529E51
:10720200FF75F007A4F58285F083D001D002D00388
:1072120012529E24FE604C24FE700302744B24FE24
:1072220070030273CD1470030272DC1470030273D4
:107232005B2407600302755D901CC8125742EF750C
:10724200F007A4FFAEF090000A125774E92FF9EA92
:107252003EFA900004125774901CC812574B7D01DD
:10726200027447901CC812574290000812529E9016
:107272000007125310E4901435F090000812529E49
:1072820075F007A4FFAEF090000A125774E92FF9C7
:10729200EA3EFA900004125774E94A4B6037901C98
:1072A200C8125742C003C002C001901CC812574204
:1072B20090000A125774E92FF9EA3EFA900004127C
:1072C200577489828A83D001D002D003125827A82A
:1072D2001E081257397D01027447901CC81257428A
:1072E200A81E08125739901CCE12574B7B017A1CEC
:1072F20079CB901CC812574BA81E08125720900039
:107302000812529E75F007A4FFAEF090000A1257C1
:1073120074E92FF9EA3EFA900004125774E94A4BD5
:10732200700302755DA81E08125720C003C002C078
:1073320001A81E0812572090000A125774E92FF96B
:10734200EA3EFA90000412577489828A83D001D0EF
:1073520002D00312582702755D901CC81257429042
:107362000003125774901CC812574B900008125217
:107372009E75F007A4FFAEF090000A125774E92F31
:10738200F9EA3EFA900004125774E94A4B60317BE5
:10739200007A007900C003C002C001901CC81257D5
:1073A2004290000A125774E92FF9EA3EFA9000045B
:1073B20012577489828A83D001D002D003125827CF
:1073C200E4901435F07D01FF0274B6901CC8125788
:1073D2004290000812529E75F007A4FFAEF0900092
:1073E2000A125774E92FF9EA3EFA90000412577410
:1073F200E94A4B6037901CC8125742C003C002C012
:1074020001901CC812574290000A125774E92FF9D2
:10741200EA3EFA90000412577489828A83D001D01E
:1074220002D003125827A81E08125739A81E0812A4
:107432005720E94A4B600CA81E08125720901CC81E
:1074420012574B7D017F00806B901CC812574290EF
:1074520015A612574B901CC81257429000081252A0
:107462009E75F007A4FFAEF090000A125774E92F40
:10747200F9EA3EFA900004125774C003C002C00138
:107482009015AD1257429000041257A4901CC812D6
:107492005742C003C002C0019015AD12574290007E
:1074A2000B1257A47B017A1579A3901CC812574B73
:0A74B2007D017F00126D6002755D20
:1074BC00C2FDC2FE7BFF7A1179237D2D12E41C9054
:1074CC001435E0FFC39405401EEFD3941F50189061
:1074DC00000EE0FF901433E0FCA3E0FD900492E07A
:1074EC00FAA3E0FB12D3FC901435E0FF6405600EA8
:1074FC00EF641E6009EF641B6004EFB41C0612FB02
:10750C00DB12D7C812FCA7E51E2404F8EFF630E70F
:01751C00F37B
:10751D00E4F55BF55C7B937D027F0312BF94E51E62
:10752D002405F8E4F608F6E51E2405F8E6FE08E65F
:10753D00FFE4FCFD7B407A9CF9F8D312562840D02D
:0E754D00E51E2405F80806E61870DC0680D955
:02755B00B2FE7E
:07755D00E51E2409F51E22C2
:10AFCE00901CC812574290000612529E703EF561B8
:10AFDE007562087563FF75640675657775662D7BFA
:10AFEE007AFA7D10FCFFFE12A5667BFF7AD879D225
:10AFFE0012FD57EF75F006A4FFC3747A9FFD7BFF19
:0CB00E007AD879D275585E7F0202E11DED
:10B01A009018527401F0901CC81257429000061200
:10B02A00529EFF7403C39F50047F038000901852FE
:10B03A00E0FED39F400302B23890000912529EFDEF
:10B04A00EE2DFFE433FE7C007D0712533290000A96
:10B05A00125774E92FF9EA3EFA90FFF912529E64E8
:10B06A00036025901CC812574290000912529EFF95
:10B07A00901852E02F14FF90000812529EB507084C
:10B08A00901853747EF08006901853742DF07BFF4D
:10B09A007A0679F190185412574B901CC8125742ED
:10B0AA0090000612529EFFB401087BFF7A0979CDFF
:10B0BA008061901852E0FE24FE6023146025240269
:10B0CA007057901CC812574290000912529E7BFF7B
:10B0DA0070067A0879D980047A0779E58035EF64B1
:10B0EA00027036901CC812574290000912529EFDF7
:10B0FA00EE2DFFE433FE90000612529E7C00B50747
:10B10A000CECB506087BFF7A09795380067BFF7A37
:10B11A0008795F90185412574B901852E075F0084E
:10B12A00A4FDACF07561007562089018541257427C
:10B13A008B638A648965901853E0F5667B7A7A0096
:10B14A00E4FFFE12A566901CC8125742900009122D
:10B15A00529EFF901852E02FFFE433FE7C007D07D9
:10B16A0012533290000A125774E92FF9EA3EFA9004
:10B17A00FFFA12577412FD57EF75F006A4FFC37455
:10B18A007A9F901857F0901CC812574290000912E3
:10B19A00529EFF901852E0FE2F14FD9000071252A3
:10B1AA009E6D7042901CC8125742EFFDEE2DFFE4CF
:10B1BA0033FE7C007D0712533290000A125774E95D
:10B1CA002FF9EA3EFA90FFF912529EB4021890182B
:10B1DA0052E0FF901857E024F4FD7BFF7AD879DD1E
:10B1EA0075585E12E11D901CC81257429000091250
:10B1FA00529EFF901852E02FFFE433FE7C007D0739
:10B20A0012533290000A125774E92FF9EA3EFA9063
:10B21A00FFFA125774901852E0FF901857E0FD7524
:0EB22A00585E12E11D901852E004F002B020B0
:01B2380022F3
:065948008B478A488949E3
:10594E00E4901873F090069CE0700C7BFF7AD87987
:07595E00DF12FCEA026336D0
:10596500AB47AA48A94990000812529EF54A7B0107
:105975007A01799E7562007563037F107E0212E8D5
:1059850014E4901874F0901874E0FFC39404503038
:10599500EF75F028A4FFAEF0249EF974013EFA7B62
:1059A50001C001742F2FF9740F3EA801FC7D01D0B1
:1059B500017E007F2812525F901874E004F080C6C3
:1059C500E4901874F0901874E0FFC394025030EF1F
:1059D50075F024A4FFAEF024CEF974023EFA7B01E3
:1059E500C00174CC2FF974043EA801FC7D01D001DF
:1059F5007E007F2412525F901874E004F080C690F8
:105A05000418E493FF3395E0FE9004A075F012EFBF
:105A1500125714EE75F012A42583F58312574290A0
:105A25000007E41253109004A075F012EF125714FA
:105A3500EE75F012A42583F5831257429000087481
:105A450003125310E4901871F0A3F0901871E0FE62
:105A5500A3E0FFC39410EE9402504D749E2FF5827F
:105A650074013EF583E0FF900418E493FD3395E05F
:105A7500FC9004A075F012ED125714EC75F012A409
:105A85002583F583125742901872E02409FD90187A
:105A950071E034008D82F583EF125310901871E494
:105AA50075F0011253CF80A3755B02755C127B986C
:105AB5007D027F0312BF9490150BE070FA7B017A8B
:105AC50001799E7562007563017F107E0212E814EC
:105AD50090019FE090041CF09001A1E0540F9018F4
:105AE50074F09001A0E075F016900273125714E05F
:105AF500FFA3E090048CCFF0A3EFF09001A0E07538
:105B0500F016900275125714E0FFA3E090048ECFB3
:105B1500F0A3EFF09001A0E075F016900277125710
:105B250014E0FFA3E0900490CFF0A3EFF09001A262
:105B3500E09004C7F09006BA7401F0FB7A0179622F
:105B4500E5478548838549826401700A74626582E8
:105B55007004740165837006740A254AF54AE54A9E
:105B65001257FD5B93005B93016066025B930361D3
:105B75008F04619B0561A306622807628008628D18
:105B85000962CE0A62E00B62F20C00006336E54A58
:105B9500B401089003AF7401F08005E49003AFF001
:105BA5007BFF7A0B796B7D2D12E41CE490047EF06B
:105BB500A3F0A3F0A3F09004651256E300000000E3
:105BC5009004501256E30000000090046B1256E357
:105BD500000000009004561256E3000000009004F7
:105BE5006F1256E30000000090045A1256E30000BD
:105BF5000000E4900473F0A3F090045EF0A3F0902D
:105C05000482F0A3F09004601256E30000000090B7
:105C150004751256E300000000E4900479F0900446
:105C250064F09004841256E300000000900488128A
:105C350056E30000000090157DE054E0FFC41354C6
:105C45000724FC601614601F14602824047030902B
:105C550004091256E33F000000802E9004091256F5
:105C6500E34000000080229004091256E340A000A2
:105C75000080169004091256E341200000800A9026
:105C850004091256E33F80000090157DE0540EC3D1
:105C95001324FE600F240270179006ABE4F0A37482
:105CA50032F080159006AB7403F0A37420F08009E0
:105CB5009006ABE4F0A374FAF0E4901871F0A3F049
:105CC500901871E0FEA3E0FFC39484EE9400502683
:105CD500EF7802C333CE33CED8F924D7F5827415C5
:105CE5003EF5831256E3FFFFFFFF901871E475F050
:105CF500011253CF80CA7B017A01799E75620075C6
:105D050063027F107E0212E81490041CE075F01CFB
:105D15009001AE12571412569F90042C1256D7902C
:105D2500041CE075F01C9001B212571412569F9096
:105D350004301256D790041CE075F01C9001B8127F
:105D45005714E0FFA3E090047ACFF0A3EFF090049E
:105D55001CE075F010A42422F9740535F0FA7B01D6
:105D6500C003C001E075F01CA4249EF9740135F050
:105D75008B4EF54F8950755100755210D001D003E7
:105D850012F4CF90041CE075F010900531125714F1
:105D9500E4F0E54A640370577B017A01799EF56268
:105DA5007563047F107E0212E81490041CE075F000
:105DB5000C90019E12571412569F9004411256D70B
:105DC50090041CE075F00C9001A212571412569F16
:105DD5009004451256D790041CE075F00C9001A86C
:105DE500125714E0FFA3E090047CCFF0A3EFF07B03
:105DF500017A01799E90041CE01313543FFF7E0045
:105E0500901432E024FCFD901431E034FFCD2FF5E1
:105E150063EE3DF5627F107E0212E81474FFFFFE0B
:105E2500FDFC90042C1256BBC3125628600F90043B
:105E35002C12569FEC4D4E4F6003025F317BFF7A6B
:105E4500FC79C990144412574BE54A901435B403B4
:105E5500057409F08003740AF0E4901871F0A3F05A
:105E6500901871E0FAA3E0FBAE027802C333CE339B
:105E7500CED8F9FF90041CE0540375F08490019E80
:105E8500125714E5822FF582E5833EF5831256E31A
:105E950000000000EBAE027803C333CE33CED8F951
:105EA500FBAA062438F58274003AF5831256E300FE
:105EB50000000074342BF58274003AF5831256E322
:105EC50000000000901871E475F0011253CF90188E
:105ED50071E07004A3E06420708690041CE0540314
:105EE50075F08490021E1257141256E3FFFFFFFF50
:105EF5009004211256E3FFFFFFFF7B017A01799E93
:105F050090041CE01313543FFF7E00901432E024EC
:105F1500FCFD901431E034FFCD2FF565EE3DF564C1
:105F25007D107C027F0212EA600262C69003AFE038
:105F3500B4015EE4901871F0A3F0901871E0FEA32F
:105F4500E0FFC39420EE9400503AEF7803C333CEBC
:105F550033CED8F9FBAA062434F58274003AF583CA
:105F65001256E30000000074382BF58274003AF5F0
:105F7500831256E300000000901871E475F00112D9
:105F850053CF80B69004211256E3FFFFFFFF026056
:105F950046E4901871F0A3F0901871E0FAA3E0FBC5
:105FA500C39420EA9400400302602EEBAE0278030E
:105FB500C333CE33CED8F92438F58274003EF58349
:105FC5001256E300000000EBAE027802C333CE3375
:105FD500CED8F9FF90041CE0540375F08490019E1F
:105FE500125714E5822FF582E5833EF58312569FFD
:105FF500C004C005C006C007901871E0FEA3E07894
:1060050003C333CE33CED8F92434F58274003EF57C
:1060150083D007D006D005D0041256D7901871E466
:1060250075F0011253CF025F9D90041CE054037577
:10603500F08490021E12571412569F900421125696
:10604500D77BFF7AF7798490144412574BE54A9031
:106055001435B403067419F00262C6741FF00262A7
:10606500C67BFF7A0B796B7D2D12E41C9003AF7410
:1060750001F0E490047EF0A3F0A3F0A3F090046592
:106085001256E3000000009004501256E300000091
:106095000090046B1256E30000000090045612565F
:1060A500E30000000090046F1256E300000000902A
:1060B500045A1256E300000000E4900473F0A3F0C4
:1060C50090045EF0A3F0A31256E3000000009004D4
:1060D500751256E300000000E4900479F090046422
:1060E500F0901871F0A3F0901871E0FEA3E0FFC3E3
:1060F5009484EE94005026EF7802C333CE33CED885
:10610500F924D7F58274153EF5831256E3FFFFFF98
:10611500FF901871E475F0011253CF80CA7B017AA4
:1061250001799E7562007563047F107E0212E81482
:1061350090041CE075F00C90019E12571412569FA6
:106145009004411256D790041CE075F00C9001A202
:1061550012571412569F9004451256D790041CE00E
:1061650075F00C9001A8125714E0FFA3E090047C91
:10617500CFF0A3EFF07BFF7ACF79999014441257B3
:106185004B9014357420F00262C6E4FF12EBF490D4
:0E619500143574068005901435740EF0805594
:1061A3009018707402F0901870E0FFC39407501EAB
:1061B3009004C7E0FEA807088002C313D8FC54016B
:1061C30090186FF07008901870E004F080D8901861
:1061D3006FE06040A3E0FFB40608901435740EF03E
:1061E3008013EFB405089014357414F08007EF247E
:1061F3000E901435F09018737401F07BFF7AFD79DB
:10620300DD90144712574B7AE0794590144D12579D
:106213004B0263367BFF7AD879E512FCEA9014359A
:0562230074E30263308A
:106228009014357416F09018737401F07BFF7AFDA2
:1062380079DD90144712574B7AE0794590144D1246
:10624800574BE4FF12EBF47561007562087563FF44
:1062580075640A7565C175662D7B7A7A00E4FDFC64
:10626800FFFE12A5667BFF7AD879EF75582D7D243D
:10627800E4FF12E11D026336E4FF12EBF4901435DB
:10628800740DF08039E4FF12EBF475610075620853
:106298007563FF75640A7565C175662D7B7A7A002A
:1062A800E4FDFCFFFE12A5667BFF7AD879F87558E5
:1062B8002D7D2AE4FF12E11D901435740FF090181B
:1062C800737401F08068E4FF12EBF49014357422C3
:1062D800F090187474028050E4FF12EBF4901435B7
:1062E8007421F09018747402803EE4FF12EBF47588
:1062F80061007562087563FF75640A7565C1756626
:106308002D7B7A7A00E4FDFCFFFE12A5667BFF7AFE
:10631800D879F875582D7D2AE4FF12E11D901435BF
:0E6328007423F09018747402F0E4901873F06F
:10633600901873E06042E49004CAF0A3F0900192D2
:10634600F0A3F09006BA04F090001C04F0A3740FBA
:10635600F0754E01754F047550927B017A147933AE
:10636600129F2A90000EEFF0700E7BFF7AD879FF0D
:1063760012FCEAE4901435F0901435E0FF70030245
:02638600651E92
:10638800900418E493FD3395E0FC9004A075F01296
:10639800ED125714EC75F012A42583F583125742B9
:1063A800900007EF125310901874E0FF9004A07546
:1063B800F012ED125714EC75F012A42583F5831230
:1063C8005742900008EF1253109004C7E0FF900462
:1063D800A075F012ED125714EC75F012A42583F590
:1063E80083125742900009EF125310E4F54AE54A28
:1063F80075F028A42447F582E4340FF583E024FBE4
:10640800603224FB705C900418E493FF3395E0FE3F
:106418009004A075F012EF125714EE75F012A4252F
:1064280083F583125742740A254AF582E433F583CB
:106438007403805A900418E493FF3395E0FE9004A7
:10644800A075F012EF125714EE75F012A42583F51B
:1064580083125742740A254AF582E433F58374029D
:10646800802C900418E493FF3395E0FE9004A07507
:10647800F012EF125714EE75F012A42583F583126B
:106488005742740A254AF582E433F583740412539B
:1064980010054AE54A640460030263F69001A0E02F
:1064A80075F016900273125714E0A3E0540FFF9092
:1064B8000418E493FD3395E0FC9004A075F012ED08
:1064C800125714EC75F012A42583F58312574290E5
:1064D800000EEF1253109001A0E075F016900275AF
:1064E800125714E0FEA3E0FF9004A075F012ED121D
:1064F8005714EC75F012A42583F5831257429000C7
:106508000FEE8FF01254B5755B00755C0A7B917DB8
:06651800027F0312BF9494
:10651E007BFF7AC5793C90144A12574B7B007A0068
:02652E007900F2
:016530002248
:10FA52008B478A488949E4901435F0FFFE12F73B40
:10FA6200901432E024FBFD901431E034FFFC7B0162
:10FA72007F057E0012E943126531E4FF12EBF47B4D
:06FA8200017A0379B022B5
:10FB21008B478A488949E4901435F0901432E024D7
:10FB3100FFFD901431E034FFFC7B01E4FFFE12E98C
:10FB410043126531E4FF12EBF47B017A0379B022B1
:10FD0B008B478A488949E4901435F07F01127CBBFC
:0CFD1B00E4FF12EBF47B017A0379B022C4
:06EEC5008B4A8A4B894CC8
:10EECB007B017A1A79837562007563017F107E026C
:10EEDB0012E814900008E0901A83F0900016E0906E
:10EEEB001A84F09006B4E0901A85F0A3E054F0F089
:10EEFB00901593E024D8600D24147010901A86E0BE
:10EF0B002402F08007901A86E02404F07B017A1A21
:10EF1B0079837564007565017D107C027F027E002C
:09EF2B0012EA60AB4AAA4BA94CA2
:01EF340022BA
:10FABC008B478A48894990000812529E24FE600B9D
:10FACC000470109015937414F0800E901593742894
:10FADC00F08006901593740AF012EEC5AB47AA4855
:03FAEC00A9492203
:06CAA9008B478A48894911
:10CAAF00E4901435F07B017A18796FF562756301A4
:10CABF007F107E0212E81490186FE0900008F0903B
:10CACF001871E09006B4F0901870E0900016F0E442
:10CADF00901A81F0A3F0901A7FF0A3F0901A7FE0E4
:10CAEF00FEA3E0FFC3940CEE64809480400302CC5D
:10CAFF0010EFC4F8540FC868FFEEC454F048FE742A
:10CB0F00742FF58274183EF583E0F4700302CC03A2
:10CB1F0074742FF58274183EF583E0700302CC0312
:10CB2F00901A82E0C4F8540FC868FF901A81E0C4CD
:10CB3F0054F048FE74222FF974053EFA7B01C003AE
:10CB4F00C001901A80E0C4F8540FC868FF901A7F94
:10CB5F00E0C454F048FE74742FF974183E8B4EF5F0
:10CB6F004F8950755100755210D001D00312F4CF78
:10CB7F00901A81E0FCA3E0FDC4F8540FC868FFECE5
:10CB8F00C454F048FE74312FF58274053EF583E4EA
:10CB9F00F090147075F007ED125714EC75F007A4B0
:10CBAF002583F5837402F07BFF7AEE79C5901A81A5
:10CBBF00E0FCA3E0FD90147475F007125714EC75A8
:10CBCF00F007A42583F58312574B74222FF97405B0
:10CBDF003EFA7B0190147175F007ED125714EC7546
:10CBEF00F007A42583F58312574B901A81E475F053
:10CBFF00011253CF901A7FE475F0011253CF02CA7E
:10CC0F00EB901A81E0FEA3E0FF90147075F007120D
:10CC1F005714EE75F007A42583F583E4F0FBFAF9BA
:10CC2F0090147475F007EF125714EE75F007A425E2
:10CC3F0083F58312574B90147175F007EF12571449
:10CC4F00EE75F007A42583F58312574B0B7A007905
:01CC5F0001D3
:01CC600022B1
:06C8EE008B478A488949CE
:10C8F400E4901435F07B017A18796FF56275630161
:10C904007F107E0212E81490186FE0900008F090F7
:10C914001871E09006B4F0901870E0900016F0E4FE
:10C92400901A81F0A3F0901A7FF0A3F0901A7FE0A0
:10C93400FEA3E0FFC3940CEE64809480400302CA1B
:10C944005890193475F016EF125714EE75F016A4BA
:10C954002583F583E0F4700302CA4B901A7FA3E0A9
:10C9640090193475F016125714EE75F016A4258339
:10C97400F583E0700302CA4B901A82E0C4F8540FA6
:10C98400C868FF901A81E0C454F048FE74222FF95D
:10C9940074053EFA7B01C003C001901A7FE0FEA338
:10C9A400E0FF7C007D1612533274342FF974193E63
:10C9B4008B4EF54F8950755100755210D001D0033C
:10C9C40012F4CF901A81E0FCA3E0FDC4F8540FC820
:10C9D40068FFECC454F048FE74312FF58274053EB0
:10C9E400F583E4F090147075F007ED125714EC75AC
:10C9F400F007A42583F5837402F07BFF7AEE79C5F2
:10CA0400901A81E0FCA3E0FD90147475F0071257AE
:10CA140014EC75F007A42583F58312574B74222F69
:10CA2400F974053EFA7B0190147175F007ED125705
:10CA340014EC75F007A42583F58312574B901A81E3
:10CA4400E475F0011253CF901A7FE475F00112538C
:10CA5400CF02C930901A81E0FEA3E0FF90147075F4
:10CA6400F007125714EE75F007A42583F583E4F05C
:10CA7400FBFAF990147475F007EF125714EE75F081
:10CA840007A42583F58312574B90147175F007EFB3
:10CA9400125714EE75F007A42583F58312574B0B38
:04CAA4007A0679ADE8
:01CAA800226B
:06C720008B478A4889499D
:10C72600E4901435F07B017A18796FF56275630130
:10C736007F107E0212E81490186FE0900008F090C7
:10C746001871E09006B4F0901870E0900016F07B37
:10C75600017A18796F7562007563027F107E021286
:10C76600E814E4901A81F0A3F0901A7FF0A3F090F9
:10C776001A7FE0FEA3E0FFC39410EE64809480402D
:10C786000302C89D90186F75F01CEF125714EE75D2
:10C79600F01CA42583F583E0F4700302C890901A78
:10C7A6007FA3E090186F75F01C125714EE75F01CFD
:10C7B600A42583F583E0700302C890901A82E0C432
:10C7C600F8540FC868FF901A81E0C454F048FE740C
:10C7D600222FF974053EFA7B01C003C001901A7F2F
:10C7E600E0FEA3E0FF7C007D1C125332746F2FF92C
:10C7F60074183E8B4EF54F8950755100755210D006
:10C8060001D00312F4CF901A81E0FCA3E0FDC4F836
:10C81600540FC868FFECC454F048FE74312FF582FB
:10C8260074053EF583E4F090147075F007ED125729
:10C8360014EC75F007A42583F5837402F07BFF7A68
:10C84600EE79C5901A81E0FCA3E0FD90147475F0B2
:10C8560007125714EC75F007A42583F58312574B7E
:10C8660074222FF974053EFA7B0190147175F00756
:10C87600ED125714EC75F007A42583F58312574B78
:10C88600901A81E475F0011253CF901A7FE475F087
:10C89600011253CF02C775901A81E0FEA3E0FF9004
:10C8A600147075F007125714EE75F007A42583F57A
:10C8B60083E4F0FBFAF990147475F007EF1257143D
:10C8C600EE75F007A42583F58312574B9014717506
:10C8D600F007EF125714EE75F007A42583F58312BF
:07C8E600574B0B7A00790F9C
:01C8ED002228
:06EF35008B478A48894960
:10EF3B007B017A18796F7562007563017F107E0211
:10EF4B0012E81490186FE0900008F0901871E090A0
:10EF5B0006B4F0901870E0900016F0901872E05420
:10EF6B000F24FC60112402701A9015937414F09006
:10EF7B0006A6740180179015937428F09006A6745A
:10EF8B0002800A901593740AF0E49006A6F090069E
:08EF9B00A5F07B017A06799EC6
:01EFA300224B
:10FAEF008B478A48894990000812529E90157D7065
:10FAFF0006E04401F08004E054FEF012FB817B012C
:10FB0F007A15790D7D807C0012EFA4AB47AA48A926
:02FB1F00492279
:10FC83008B478A48894990157DE030E006E490016E
:10FC93007B800590017B7401F090017AF07B017AFF
:04FCA300017973224E
:10FBAF008B478A488949900414E025E0FF90157D22
:10FBBF00E054F14FF012FB817B017A15790D7D80B6
:0CFBCF007C0012EFA4AB47AA48A9492211
:10FC07008B478A48894990157DE0540EC3139004A9
:10FC170015F0900414F0E0D394024008A37401F0A7
:0BFC2700900414F07B017A04790D2298
:10FB51008B478A48894990159BE02402C43354E0BD
:10FB6100FF90157DE0541F4FF012FB817B017A1548
:10FB7100790D7D807C0012EFA4AB47AA48A94922E8
:10F65E008B478A48894990157DE054E0C4135407BE
:10F66E0024FC60101460141460182404701BE490C1
:10F67E00159C801A90159C7402801390159C74032F
:10F68E00800C90159C7404800590159C7401F0906C
:0AF69E00159BF07B017A1579942288
:100003008B4D8A4E894FE4901435F0FBFAF9901426
:0E0013004A12574B12CE077B017A1579B5229F
:06D9CD008B4A8A4B894CD5
:10D9D300E4901435F07B017A01799EF562F5637F5B
:10D9E300107E0212E814E4901A84F0A3F0901A82D5
:10D9F300F0A3F0901A82E0FEA3E0FFC39415EE6457
:10DA0300809480506E90019E75F019EF125714EEBA
:10DA130075F019A42583F583E0FEA3E0F47002EE0C
:10DA2300F46044901A82E0FEA3E09001A075F0191F
:10DA3300125714EE75F019A42583F583E0FEA3E0D5
:10DA4300F47002EEF46020AB4AAA4BA94C90000894
:10DA530012529EFF901A84E475F0011253E5FCE51F
:10DA6300F06F7001EC600C901A82E475F0011253B0
:10DA7300CF80809004B812574212FD57901A84EE5B
:10DA8300F0A3EFF09004B8125742EF24FEFFEE34F8
:10DA9300FFFEE92FF9EA3EFA7564FF7565D97566ED
:10DAA30008901A83E02401F568901A82E03400F5A7
:10DAB300671288237BFF7A00790390144A12574B2D
:06DAC3007B017A0479B832
:01DAC900223A
:0682D1008B478A48894931
:1082D700E4901435F07B017A1479369014631257C1
:1082E7004B7A0479B890146612574B7A0379CA907F
:1082F700146D12574BE490146CF090146BF09014BB
:108307006AF0901469F090186FF0A3F090186FE07E
:10831700FEA3E0FF9003CA75F007125714EE75F03D
:1083270007A42583F5837403F07C007D151253326F
:1083370074222FF974053EFA7B0190186FE0FEA3B3
:10834700E0FF9003CB75F007125714EE75F007A402
:108357002583F58312574B1B7A0079009003CE755E
:10836700F007EF125714EE75F007A42583F5831273
:10837700574B90186FE475F0011253CF90186FE0C8
:108387007004A3E064087084E4900402F0FBFAF937
:10839700A312574B90040612574B9004B81257423A
:1083A70012FD5790186FEEF0A3EFF09004B8125734
:1083B70042EF24FEFFEE34FFFEE92FF9EA3EFA1200
:1083C700E589EF24FFFFEE34FF90186FF0A3EFF07D
:1083D7007B017A1579D790186FE0FEA3E0FF901420
:1083E70032E02FFF901431E03ECF24E7F563EF34FE
:1083F700FFF5627F107E0212E814E490187AF0A36A
:10840700F090187AE0FEA3E0FFC39484EE94005046
:108417002EEF7802C333CE33CED8F924D7F5827442
:10842700153EF58312569F74FFFBFAF9F8C31256EF
:108437003E600C90187AE475F0011253CF80C27B2E
:10844700017A01799EE4F562F5637F107E0212E8F6
:108457001490186FE0FEA3E0FF9001B475F01912B5
:108467005714EE75F019A42583F583E0901871F081
:10847700E0D3940C4002E4F09001B675F019EF12C6
:108487005714EE75F019A42583F583E0901872F060
:10849700E0D394104002E4F090186FE0FEA3E09060
:1084A70001B575F019125714EE75F019A42583F567
:1084B70083E0901873F0E0D3940C4002E4F0901836
:1084C7006FE0FEA3E0FF90019E75F019125714EEBE
:1084D70075F019A42583F583E0FDA3E0901874CD0A
:1084E700F0A3EDF09001A275F019EF125714EE7595
:1084F700F019A42583F58312569F90186FE0FAA30D
:10850700E09001A675F019125714EA75F019A42521
:1085170083F583E0F557A3E0F5587559017A057996
:1085270076755A01755B05755C7612B23990186FCE
:10853700E0FAA3E0FB9001A875F019125714EA7549
:10854700F019A42583F58312569F9001AC75F01995
:10855700EB125714EA75F019A42583F583E0F55754
:10856700A3E0F5587559017A05798B755A01755B42
:1085770005755C8B12B23990186FE0FEA3E0FF908F
:1085870001B275F019125714EE75F019A42583F589
:1085970083E0FCA3E0FD9001B075F019EF125714CA
:1085A700EE75F019A42583F583E0FEA3E0C39DFFD4
:1085B700EE9CCF2401CF3400FE90186FE0FCA3E0BF
:1085C700FD90019E75F019125714EC75F019A4254A
:1085D70083F583E0FAA3E0FB9001A075F019ED1293
:1085E7005714EC75F019A42583F583E0FCA3E0C3C9
:1085F7009BFDEC9ACD2401CD3400CD2FFFED3EFE3F
:10860700E4FCFD9018761256D77564FF7565D97529
:10861700660DE47B02FAF9F890187612569F125508
:10862700888E678F68901431E0C313F569A3E01350
:10863700F56AE47F64FEFDFC9018761256BB12546F
:10864700FDC006C007901431E0FEA3E0FBAA06E4D4
:10865700F9F8D007D0061255888E6B8F6C7B017A9C
:1086670005796112882390186FE0FEA3E09001AEB0
:1086770075F019125714EE75F019A42583F583E0E8
:10868700540F24FE60131460101460188000756482
:10869700FF7565D975661F80147564FF7565D97593
:1086A700663280097564FF7565D975664590187AD5
:1086B700E0F567A3E0F5687B017A0579A0128823C6
:1086C7007B017A01799E7562007563017F107E02D6
:1086D70012E814901871E075F010A424A3F974013E
:1086E70035F0754E01F54F89507551007552107B65
:1086F700017A05792212F4CFE4900531F0901873CE
:10870700E075F016A42463F9740235F0754E01F58F
:108717004F89507551007552107B017A05793712D0
:10872700F4CFE4900546F07B017A01799EF56275F6
:1087370063027F107E0212E814901872E075F01C35
:10874700A4249EF9740135F0754E01F54F895075D3
:1087570051007552107B017A05794C12F4CFE490E1
:10876700055BF07B017A01799E901874E0F562A3AE
:10877700E0F5637F107E0212E8149001E5E0FE3316
:1087870095E090186FF0A3CEF09001E5E0FF7D46ED
:1087970012F14D90187C1256D77564FF7565D9751F
:1087A700665890187C12569F8F6A8E698D688C6701
:0F87B7007B017A0579B51288237B017A147963E7
:0187C6002290
:068C36008B228A23892431
:108C3C00858425E49017E9F0A3F0A3F0A3F0F526C2
:108C4C00901435F0F584C2EDD2EC7BFF7A04791ADE
:108C5C0090146312574B7B017A14790D90146612A1
:108C6C00574B7A0379CA90146D12574BE490146CDD
:108C7C00F090146BF090146AF0901469F09017E770
:108C8C00F0A3F09017E7E0FEA3E0FF9003CA75F0A5
:108C9C0007125714EE75F007A42583F5837403F0BF
:108CAC007C007D1512533274222FF974053EFA7B29
:108CBC00019017E7E0FEA3E0FF9003CB75F00712DD
:108CCC005714EE75F007A42583F58312574B1B7AC6
:108CDC000079009003CE75F007EF125714EE75F083
:108CEC0007A42583F58312574B9017E7E475F00121
:108CFC001253CF9017E7E07004A3E064047084E48F
:108D0C009003E6F0FBFAF9A312574B9003EA1257C3
:108D1C004B8525840B7A01799E7562007563017F02
:108D2C00107E0212E8149001A2E09004C7F07B01BF
:108D3C007A01799EE4F562F5637F107E0212E814E5
:108D4C00E49017E7F0A3F09017E7E0FEA3E0FFC371
:108D5C009415EE94004003028E2E90019E75F0192E
:108D6C00EF125714EE75F019A42583F583E0FEA3DA
:108D7C00E0F47002EEF47003028E219017EBE475B0
:108D8C00F0011253CF9017E7E0FEA3E0FF9001B281
:108D9C0075F019125714EE75F019A42583F583E0BC
:108DAC00FCA3E0FD9001B075F019EF125714EE75AD
:108DBC00F019A42583F583E0FEA3E0C39DFFEE9C90
:108DCC00CF2401CF3400FE9017E7E0FCA3E0FD9028
:108DDC00019E75F019125714EC75F019A42583F542
:108DEC0083E0FAA3E0FB9001A075F019ED12571483
:108DFC00EC75F019A42583F583E0FCA3E0C39BFD7F
:108E0C00EC9ACD2401CD3400CD2FFFED3E9017E927
:108E1C008FF01253CF9017E7E475F0011253CF0285
:108E2C008D53E49017E7F0A3F09017E7E0FEA3E072
:108E3C00FFC39407EE9400502874017E00A8070825
:108E4C008005C333CE33CED8F9FF9004C7E0FDEFD5
:108E5C005D600205269017E7E475F0011253CF8090
:108E6C00C8E526FD7C00901593E0FF7E001253327E
:108E7C00AC06AD07E4124EE6C004C005C006C00740
:108E8C00901409E0FCA3E0FDE4124EE6A804A90549
:108E9C00AA06AB07D007D006D005D004124DC69059
:108EAC0017ED1256D79017ED1256BBC000C001C07B
:108EBC0002C003901593E0FCE4124EEBE4FBFA794C
:108ECC00207841124DC6E4FBFA79207841124DC648
:108EDC00D003D002D001D000124BCC9017ED12561B
:108EEC00D79017ED12569FE4FBFA79617845124C36
:108EFC00BD9017ED1256D7901432E024E1FF901478
:108F0C0031E034FFFE9017E9E0FAA3E0FBC39FEADF
:108F1C009E400C9017ED1256E30000000080279045
:108F2C001432E024E6FF901431E034FFCFC39BFDF4
:108F3C00EF9AFCE4124EE69017ED1256BB124DC69A
:108F4C009017ED1256D77564FF7565D975666590E7
:108F5C0017ED12569F8F6A8E698D688C677B017A2C
:108F6C000579221288237564FF7565D97566799029
:108F7C0017EBE0FEA3E0FFC374159FF568E49EF5C4
:108F8C00677B017A0579371288237564FF7565D97B
:108F9C007566889017EBE0F567A3E0F568756915C1
