:10FFD000436F70797269676874203230313220540F
:10FFE0007261636B2053797374656D73205465631C
:0EFFF000686E6F6C6F676965732C204C4C4314
:10F19300FF7F3F1F0F07030100FEFCF8F0E0C08074
:08F1A300FFFEFCF8F0E0C08063
:10E0830085842775840F75E16FE4F5E275E3C47544
:10E09300A4157580EA75ADFF75A50D759002F5A6FB
:10E0A30075A0FFF5A775B0FF759FFF75F88EF59EF8
:10E0B30075E8FFF59D75D8FF759CE075C8F9F58483
:10E0C30075D98075D84075DA4275DB427B017A15C4
:10E0D300793D12E8209015AAE0D394745006E0C36A
:10E0E300944C50069015AA7460F09015AAE0F5FBC5
:10E0F300E0F5FCE4F58475E8C075D107F5BAF5BB26
:06E1030075BC7085278445
:01E1090022F3
:08D4AB0085842775840FC2CCB3
:10D4B30090184F1249D0000001C2E4FFFEFDFC901A
:10D4C300184F1249A8D3124915401790184F124903
:10D4D3008C74FFFBFAF9F81247CF90184F1249C426
:02D4E30080D8EF
:02D4E500D2CCA7
:10D4E7009018531249D0000001C2E4FFFEFDFC90E2
:10D4F70018531249A8D312491540179018531249C7
:10D507008C74FFFBFAF9F81247CF9018531249C4ED
:02D5170080D8BA
:10D519007DE212DE487B017DE27F0112DE4CE4FBF5
:10D529007DA97F0112DE4C7B017DA97F0112DE4CB2
:10D53900E4FB7DA07F0112DE4C7B017DA07F0112FF
:10D54900DE4CE4FB7DC07F0112DE4C7B017DC07F98
:10D559000112DE4C12DE467B017DAF7F0112DE4CEB
:03D569008527848F
:01D56C00229C
:06DE46007DAFE4FB7F014B
:06DE4C008F778D788B79C1
:10DE5200E4F57AF57B85847C75840FAD797F0112B8
:10DE6200EBDB057BE57B7002057AEF30E70DC3E55E
:10DE72007B9432E57A6480948040E0C2CBE577B44B
:10DE82000104C2C88002D2C8E5796004D2CA800205
:10DE9200D2C98578E8E5796005439C048003439CF8
:10DEA20002E5796005539CFB8003539CFD7F0105CD
:10DEB2007BE57B7002057ADFF6E5796004C2CA80F1
:10DEC20002C2C9D2C8D2CB439C01439C08539CFED8
:09DED200539CF775E8FF857C8480
:01DEDB002224
:10EBDB00AE8475840FBF0104C2C88002D2C8ED6039
:10EBEB000AD2CA439C04539CFB8008D2C9439C02A3
:10EBFB00539CFD7C030FDCFDACE8ED6004C2CA80C6
:0FEC0B0002C2C9D2C8439C01539CFE8E84AF0441
:01EC1A0022D7
:08D864008B528A5389548D5543
:10D86C00E4F556E4F557F558F559E55624B8FD128C
:10D87C00DE48E4FBFD7F0112DE4CE55624B8FD7B4F
:10D88C00017F0112DE4C7B01E4FD7F0112DE4CE4D2
:10D89C00F557F558E558643D45577003755901E542
:10D8AC0055B47E1FE55675F07AA4AB522554F9E5B4
:10D8BC005335F0FAE92558F9EA3557FA124572F45E
:10D8CC00FD801CE55675F07AA4AB522554F9E5534E
:10D8DC0035F0FAE92558F9EA3557FA124572FDABDD
:10D8EC00597FFF12DE4C0558E55870020557C3945A
:10D8FC007AE5579400409D0556E556C394045003B1
:0FD90C0002D86F12DE467B017DAF7F0102DE4C39
:0C98F1008E5B8F5C8C5D8D5E8A5F8B60EF
:1098FD00AE5DAF5E7C007D081246868F6FE55E25FE
:10990D0062CFE55D3561CF24FFCF34FFFE7C007D56
:10991D0008124686C3EF9403EE6480948050028053
:10992D00027F038F70AE5DAF5E7C007D08124686B0
:10993D00901F28EDF0855B6B855C6CC3E56C943DE9
:10994D00E56B6480948050047F0080027F018F71ED
:10995D00E55C2560CFE55B355FCF24FFCF34FFFE9F
:10996D00C3EF9479EE64809480500280047E007F72
:10997D00798E6D8F6EE571B4011874C3256CF56C1D
:10998D0074FF356BF56B74C3256EF56E74FF356D15
:10999D00F56D856F67E567D395704003029BA985CB
:1099AD00716AC3E56F9567FF901F28E02F1313139E
:1099BD00541FF572E571701FE56724B8FD12DE487E
:1099CD00AD6C12DE48E56724B8FD7B017F0112DE28
:1099DD004C7B01E4FD8010E56724B8FD7B017F0120
:1099ED0012DE4CAD6C7B017F0112DE4C856B688500
:1099FD006C69D3E569956EE568956D4003029BA48E
:109A0D00E569643D45687003756A01E567B56F05E5
:109A1D00E4F5748055C3E567956FFFE49400CF249A
:109A2D00FFCF34FFFEAC5FAD6012461FAB63E56543
:109A3D002FF9E5643EFAC3E569956CFFE568956B12
:109A4D00FEE92FF9EA3EFA124572F573901F28E0F0
:109A5D00FF90F19393F45573FEC374089FFFEEA826
:109A6D0007088002C313D8FCF574E567B57029AEFD
:109A7D0061AF627C007D08124686C374089DFFE4C9
:109A8D009CFE901F28E05407D39FEE6480F87480ED
:109A9D00984005E4F5758048C3E567956FFFE4943C
:109AAD0000FEAC5FAD6012461FAB63E5652FF9E5B7
:109ABD00643EFAC3E569956CFFE568956BFEE92F89
:109ACD00F9EA3EFA124572F573901F28E0FF90F106
:109ADD0093935573FEA807088002C333D8FCF57520
:109AED00E5744575F573AB6A7DE07F0112DE4CAD13
:109AFD006A7FFF12EBDB8F76AD6A7FFF12EBDB8F98
:109B0D0076E56624A2601824E2600E24FE60162419
:109B1D00587015E5765273800FE57642738009E52E
:109B2D0076627380036373FFE4901F27F0E56FB5D2
:109B3D00670BA3E090F1A393F4901F27F0E570B5A8
:109B4D006729901F27E0FBE55E2562FFE55D356126
:109B5D00FE7C007D08124686749B2DF58274F13CC7
:109B6D00F583E493FFEB4F901F27F0901F27E0FF45
:109B7D00F45573FEE5765F4EF573AB6A7DEE7F01AE
:0C9B8D0012DE4CAB6AAD737FFF12DE4CA1
:109B99000569E569700205680299FF05670299A2DE
:019BA9002299
:02E18D008F55AC
:10E18F00E4FB7DAE7F0112DE4C7B017DAE7F011281
:10E19F00DE4CE4F556E4F557F558F559E55624B835
:10E1AF00FD12DE48E4FBFD7F0112DE4CE55624B87C
:10E1BF00FD7B017F0112DE4C7B01E4FD7F0112DE4E
:10E1CF004CE4F557F558E558643D455770037559BC
:10E1DF0001AB59AD557FFF12DE4C0558E558700263
:10E1EF000557C3947AE557940040DB0556E556C3AF
:10E1FF00940440A112DE467B017DAF7F0102DE4C0D
:08CE9C008F3E8B3F8A40894163
:10CEA400E5426028900000E0F53E04F05403F0E011
:10CEB40075F008A424C0FD12DE48900000E075F06F
:10CEC40008A424C0FD7B017F0112DE4CE4F544F587
:10CED40045C3E5459475E54464809480400302CFDE
:10CEE40081AB3FAA40A941124572FFC3648094A05C
:10CEF4004041D3EF648094FE5039E53E75F008A4B8
:10CF0400FDACF0C004C005124572FF3395E0FE7C11
:10CF1400007D0512461F743D2FF974213E7563FF91
:10CF2400F5648965756100756208854366D005D02E
:10CF340004801BE53E75F008A4FDACF07561007536
:10CF440062087563FF7564217565DD8543667B053D
:10CF54007A00AF45AE441298F1AB3FAA40A9411202
:10CF64004572600B74012541F541E43540F5407488
:0DCF7400062545F545E43544F54402CED5CB
:01CF8100228D
:08D3E2008F558B578A588959B9
:10D3EA00AF05901F25E4F0A3EFF0C3901F26E09449
:10D3FA0075901F25E064809480400302D4AAAB573D
:10D40A00AA58A959124572FF700302D4AAC3EF643D
:10D41A008094A04049D3EF648094FE5041E555754D
:10D42A00F008A4FDACF0C004C005124572FF3395A4
:10D43A00E0FE7C007D0512461F743D2FF974213EE3
:10D44A007563FFF5648965901F25E0FEA3E0FF750B
:10D45A006100756208855A66D005D0048023E555B7
:10D46A0075F008A4FDACF0901F25E0FEA3E0FF755F
:10D47A0061007562087563FF7564217565DD855AFB
:10D48A00667B057A001298F174012559F559E4353D
:10D49A0058F558901F25E475F0061246BC02D3F4DD
:01D4AA00225F
:08D068008F528B538A54895545
:10D07000E556602A900000E05402F0F55224025474
:10D0800003F075F008A424C0FD12DE48900000E013
:10D0900075F008A424C0FD7B017F0112DE4CE4F58D
:10D0A00058F559C3E5599471E5586480948040035C
:10D0B00002D14BAB53AA54A955124572FFC36480E9
:10D0C00094A0403DD3EF648094FE5035E55275F056
:10D0D00008A4FDACF0756100756210124572FF3353
:10D0E00095E0FEEFC4F8540FC868FFEEC454F04852
:10D0F000FE74B82FF974213E7563FFF5648965806D
:10D1000018E55275F008A4FDACF075610075621069
:10D110007563FF7564237565B88557667B087A006B
:10D12000AF59AE581298F1AB53AA54A95512457293
:10D13000600B74012555F555E43554F554740A25F2
:0BD1400059F559E43558F55802D0A30A
:01D14B0022C1
:08D7AB008F4F8B518A52895304
:10D7B300AF057555008F56C3E5569471E5556480E2
:10D7C3009480400302D863AB51AA52A95312457205
:10D7D300FF700302D863C3EF648094A04043D3EF88
:10D7E300648094FE503BE54F75F008A4FDACF075E2
:10D7F3006100756210AB51AA52A953124572FF33EF
:10D8030095E0FEEFC4F8540FC868FFEEC454F04827
:10D81300FE74B82FF974213E7563FFF56489658042
:10D8230018E54F75F008A4FDACF075610075621042
:10D833007563FF7564237565B88554667B087A0044
:10D84300AF56AE551298F174012553F553E4355292
:10D85300F552740A2556F556E43555F55502D7BAEF
:01D8630022A2
:08DD14008F528B548A55895689
:10DD1C00AF057558008F59C3E5599474E558648064
:10DD2C009480507CAB54AA55A956124572FF607072
:10DD3C00C3EF648094B0402DD3EF648094B9502528
:10DD4C00EF3395E0FE7C007D0C12461F74A82FF972
:10DD5C0074273E7563FFF5648965E552FD756100B6
:10DD6C0075620A8014E552FD7C0075610075620ACB
:10DD7C007563FF75642A75656C8557667B067A003A
:10DD8C00AF59AE581298F174012556F556E4355535
:10DD9C00F55574072559F559E43558F55802DD2326
:01DDAC002254
:10F1FE00E4FB7DC07F0112DE4C7B017DC07F0102EE
:02F20E00DE4CD4
:10F13E008B4C8A4D894E7BFF7A1F79F57D2D12D827
:10F14E0064AB4CAA4DA94E75542D7D077F0102D795
:01F15E00AB05
:1000A60053656C65637420447269766572005365A6
:1000B6006C65637420547261636B0053656C656391
:1000C600742056656869636C650053657373696F60
:1000D6006E730056696577204C61707300457261D6
:1000E600736520446174610053657373696F6E2094
:1000F60044657461696C00313020487A00323020E2
:10010600487A00343020487A0053656C6563742061
:1001160052617465005553205374616E6461726454
:10012600004D65747269630053656C656374205590
:100136006E697473004C617074696D6520486F6CEC
:1001460064004772617068205363616C6500547285
:1001560061636B204C656E677468004C6170205358
:10016600657474696E6773002D302E3520746F20A8
:10017600302E3573002D3120746F202B3173002DF6
:100186003220746F202B3273002D3520746F202B94
:100196003573002D313020746F202B3130730053AE
:1001A600686F7274203C31206D692C312E366B6D70
:1001B600004D656420312D356D692C312E362D3874
:1001C6006B6D004C6F6E6720352B206D692C382BBC
:1001D600206B6D0044697361626C656400456E61F5
:1001E600626C6564004175746F4F6E2028535532FA
:1001F60029004D61696E204D656E75004C61707306
:10020600005175616C696679696E6700447269763A
:100216006500546163680047617567657300436FE5
:100226006D7061737300496E737472756D656E746B
:100236007300475053204C6F636174696F6E0053AF
:10024600746172742053637265656E0044726976D8
:1002560065720056656869636C6500547261636B0C
:100266000053616D706C696E67205261746500455C
:10027600726173652053657373696F6E73005061A5
:10028600636B2053657373696F6E7300474D54201B
:100296004F666673657400436F6E747261737400A3
:1002A600556E697473004C61702F5175616C2053E3
:1002B600657474696E677300466163746F72792042
:1002C60044656661756C7473004175746F4F6E009A
:1002D60053657474696E6773004175746F63726FEA
:1002E6007373202F2052616C6C7900312F38204DAA
:1002F600696C6520436172205465737400312F3434
:10030600204D696C65005461636820262053706532
:1003160065646F00472D466F7263657300536567AA
:100326006D656E742054696D696E6700477320268B
:10033600204C6F636174696F6E00496E70757473DB
:100346000044617461204D6F64650047505320433B
:100356006F6D7061737300436865636B20496E70DF
:10036600757473004F74686572204D6F6465730011
:100376005265636F726420446174610056696577E3
:100386002053657373696F6E73004368616E6765AA
:100396002053657474696E67730043757272656E77
:1003A6007420537461747573004F746865722046C7
:1003B6006561747572657300594553004E4F002090
:1003C60041726520596F7520537572653F00204351
:1003D6006C722053746172742F46696E3F005357D6
:1003E600204D49534D41544348002052656C6F617E
:1003F6006420535700445249564520534146454CC4
:100406005900202044552073772025642E2530324C
:100416006420646174612025640020205355207394
:10042600772025642E25303264206461746120258E
:1004360064002A205355204E4F5420434F4E4E45BC
:1004460043544544202A005468697320756E6974C4
:100456002062656C6F6E677320746F004C6F616409
:10046600696E670053746F72696E670043616E63ED
:10047600656C696E6700030100FF43757272656EF5
:1004860074205374617475730007FF00D9FFC6CAE0
:1004960004FF00E3FFEC5606FF00EEFF8FD90000D5
:1004A600000000000002FF00FDFFF01902FF01033B
:1004B600FFF01902FF0109FFF0190000000000001B
:1004C6000002FF011BFFEFF102FF0127FFEFF10022
:1004D60000000000000007FF013BFFECFD06FF01E6
:1004E60048FFE91406FF0154FFEE78000000000003
:1004F600000002FF016EFFEF9F02FF017BFFEF9FEF
:1005060002FF0185FFEF9F02FF018FFFEF9F02FFB2
:100516000199FFEF9F0000000000000002FF01A507
:10052600FFF06702FF01B7FFF06702FF01C9FFF0A6
:10053600670000000000000002FF01DAFFE37E0210
:10054600FF01E3FFE37E0000000000000002FF0160
:10055600F8FFEFC802FF0202FFEFC802FF0207FF23
:10056600EFC802FF0212FFEFC802FF0218FFEFC832
:1005760002FF021DFFEFC802FF0224FFEFC802FFC1
:10058600022CFFEFC802FF0238FFEFC80000000090
:1005960000000006FF0252FFD22E06FF0259FFCDD1
:1005A600B306FF0261FFCBD006FF0267FFE6010438
:1005B600FF0275FFED9606FF0284FFF17A07FF0240
:1005C60092FFECC707FF029DFFEB9906FF02A6FF0D
:1005D600F08C01FF02AC0103E804FF02BEFFEF76D8
:1005E60006FF02CFFFF0D406FF0245FFEEA3000090
:1005F600000000000007FF0202FF58A707FF0207DE
:10060600FF58A707FF02DFFF58A707FF02F1FF58B1
:10061600A707FF0303FF58A707FF0212FF58A70704
:10062600FF030CFF58A707FF021DFF58A707FF038C
:100636001AFF58A707FF0323FF58A707FF0332FF38
:1006460058A707FF0340FF58A7000000000000005E
:1006560007FF0351FF58A707FF022CFF58A707FF04
:100666000238FF58A707FF035DFF58A700000000E8
:100676000000000F0F0F0FFFFFFFFF0F0F0F0FFF01
:10068600FFFFFFCFCFCFCFCFFFFFFEFC008FCFCF37
:10069600CFCFCFCFCFCFFFFEFEFCFCFEFFFF0F0F6D
:1006A6000F0F0F0F0FFFFFFEF800FFFFFFFF0F0FEB
:1006B6000FFFFFFFFF0F0F0FFFFFFEFC008FCFCFD7
:1006C600CFCFCFCFCFCFFFFEFEFC0F0F0F0FFFFF19
:1006D600FFFF0F0F0F0FFCFEFFFFCFCFCFCFCFCF08
:1006E600FFFFFEFC000000007F7F7FFF0000000090
:1006F6007F7F7F7F03070F1F3F7F7B73613F7F7F76
:100706007B7B7B7B7B7B7B7F7F7F7F1F3F7F7F78B6
:10071600787B7F7F7E7C3F7F7F7F607F7F7F7F00D0
:1007260000007F7F7F7F0000007F7F7F7F3F7F7F8E
:100736007B7B7B7B7B7B7B7F7F7F7F000000007FDB
:100746007F7F7F000000001F3F3F7F7B7B7B7B7BA3
:100756007B7B7B7978FFFFFFFFFFFFFFFFFFFFFF3C
:10076600FFFFFFFFFFFFFFFFFFFFFFFFFFFFFFFF93
:10077600FFFFFFFFFFFFFFFFFFFFFFFFFFFFFFFF83
:10078600FFFFFFFFFFFFFFFFFFFFFFFFFFFFFFFF73
:10079600FFFFFFFFFFFFFFFFFFFFFFFFFFFFFFFF63
:1007A600FFFFFFFFFFFFFFFFFFFFFFFFFFFFFFFF53
:1007B600FFFFFFFFFFFFFFFFFFFFFFFFFFFFFFFF43
:1007C600FFFFFFFFFFFFFFFFFFFFFFFFFFFFFF0032
:1007D6000000000000000000000000000000000013
:1007E6000000000000000000000000000000000003
:1007F60000000000000000000000000000000000F3
:1008060000000000000000000000000000000000E2
:1008160000000000000000000000000000000000D2
:1008260000000000000000000000000000000000C2
:1008360000000000000000000000000000000000B2
:10084600000000000000000000FF000000000000A3
:100856000000000000000000C300000000000000CF
:1008660000000000000000E700000000000000009B
:10087600000000000000C3000000000000000000AF
:10088600000000000055AA00000000000000000063
:100896000000000000C3000000000000000000008F
:1008A60000000000E700000000000000000000005B
:1008B600000000C30000000000000000000000006F
:1008C6000000FF00406070787C7E7C78706040009D
:1008D6000000000000000000000000000000000012
:1008E6000000000000000000000000000000000002
:1008F60000000000000000000000000000000000F2
:1009060000000000000000000000000000000000E1
:1009160000000000000000000000000000000000D1
:1009260000000000000000000000000000000000C1
:1009360000000000000000000000000000000206A9
:100946000E1E3E7E3E1E0E06020000000000000047
:100956000000000000000000000000000000000091
:100966000000000000000000000000000000000081
:100976000000000000000000000000000000000071
:100986000000000000000000000000000000000061
:100996000000000000000000000000000000000051
:1009A6000000000000000000000000000000000041
:1009B6000000000000000000060606060606060601
:1009C600060606000000000000000000000000000F
:1009D6000000000000000000000000000000000011
:1009E6000000000000000000000000000000000001
:1009F60000000000000000000000000000000000F1
:100A060000000000000000000000000000000000E0
:100A160000000000000000000000000000000000D0
:100A260000000000000000000000000000000000C0
:100A36000000606060606060606060606000000090
:100A460000000000000000000000000000000000A0
:100A56000000000000000000000000000000000090
:100A66000000000000000000000000000000000080
:100A76000000000000000000000000000000000070
:100A86000000000000000000000000000000000060
:100A96000000000000000000000000000000000050
:100AA60000000000000000000000000066666666A8
:100AB6006666666666666600000000000000000066
:100AC6000000000000000000000000000000000020
:100AD6000000000000000000000000000000000010
:100AE6000000000000000000000000000000000000
:100AF60000000000000000000000000000000000F0
:100B060000000000000000000000000000000000DF
:100B160000000000000000000000000000000000CF
:100B26000000000000FFFF000081C3E7FF00008116
:100B3600C3E7FFFFFFFFFFFFFFFFFFFFFFFFFFFF13
:100B4600FFFFFFFFFFFFFFFFFFFFFFFFFFFFFFFFAF
:100B5600FFFFFFFFFFFFFFFFFFFFFFFFFFFFFFFF9F
:100B6600FFFFFFFFFFFFFFFFFFFFFFFFFFFFFFFF8F
:100B7600FFFFFFFFFFFFFFFFFFFFFFFFFFFFFFFF7F
:100B8600FFFFFFFFFFFFFFFFFFFFFFFFFFFFFFFF6F
:100B9600FFFFFFFFFFFFFFFFFFFFFFFFFFFFFF2836
:100BA600142814281428142814281428142814285F
:100BB60014280000000000000000000000000000F3
:100BC600000000000000000000000000000000001F
:100BD600000000000000000000000000000000000F
:100BE60000000000000000000000000000000000FF
:100BF60000000000000000000000000000000000EF
:100C060000000000000028142814281428142814B2
:100C16002814281428142814283E7F6363637F7ED3
:100C260060607E7F6363637F3E3C19436343193C88
:100C360060603C19436343193C3E7F7F7F7F7F7E24
:100C460060607E7F7F7F7F7F3E00000000000000A7
:100C56000000000000008080808080C06030180C9A
:100C660018B0E04000000000000000000000000096
:100C760000000000000000000000000080C0C080EE
:100C8600000080C0C0C0C0800080C0C0C0C080005E
:100C9600C0C00000C0C000C0C0C0C000C0C0C0C04E
:100CA600C08000C0C0C0C000C0C08000C0C00080FE
:100CB600C0C0C0C0C000000000000000000000006E
:100CC60000000000000000000000000080FCFE574D
:100CD600AB55AB55AB55ABFEFC060341404080809F
:100CE600808080000000000000000000000000007E
:100CF6000000000000FFFF1919FFFF007FFFC0C0C2
:100D0600E161007FFFC0F0FFFF007FFFC0C0FF7FF3
:100D160000C0FFFFC000FFFF3C7CEFC700C0FFFF25
:100D2600C000FFFF0F7CFFFF007FFFC0CCFC7C00F4
:100D360000000000000000000000000000000000AD
:100D46000000081C3663C160311B0E070607060744
:100D56002321204040444444888888880811111182
:100D660011212222424444000000000000F0F8183D
:100D760098B8B000F8F89898F8F000F0F89898B895
:100D8600300000000000F0F89898B8300018F8F825
:100D96001800F0F81898B8B000F8F8F080F8F800E5
:100DA600E0F03838F0E000F8F8000000000000003D
:100DB600000000000000000000000000000000002D
:100DC600000000000000000000000000000000001D
:100DD60000000000000001010101010202020404FA
:100DE600040000000000000F1F18191F0F001F1F2E
:100DF60001010100000C1D19191F0F000000000061
:100E06000C1D19191F0F00181F1F18000F1F181986
:100E16001F0F001F1F010F1F1F001F1F03031F1F90
:100E2600001F1F181818180000000000000000001E
:100E36000000FCFC0000000000F8FC0C0CFCF800B4
:100E4600F8FC0C0CFCF800FCFCF0B81C0C000CFCCC
:100E5600FC0C00FCFC78E0FCFC00F8FC0CCCDCD8BC
:100E6600000000000000000000000000000000E09C
:100E7600F090D8C8ACA49692CA4A7E3E3090905064
:100E86004828282424242424242444A4140C0404B8
:100E960088502020202020202020202040C0408074
:100EA600000000000000008040201000E7E76666B2
:100EB600666600C3E76666E7C300E3E76666E7C300
:100EC60000070701C3E76660E6C7076660E7E760F5
:100ED600630787C0E3E7C68607E3E06060E0C0001B
:100EE6006060E0E0606000000000E0BE0203C3E175
:100EF60071303476E6C535549494949494949494CD
:100F0600949494941414010202C1E474343474E485
:100F1600C808182890783C1E0D8640203078FCFEC4
:100F2600FFFFFE7C38003F3F06060600001F3F30ED
:100F3600303F1F003F3F061E3B3100000000193BBB
:100F460033363E1C0000003F3F0000003F3F0C0CC4
:100F56003F3F003F3F061E3B310000003F3F000081
:100F6600000000000001010103070E0C0C0E070330
:100F7600020202020202020202020202020202024B
:100F860002020201070E0C0C0E07038242E1F0F882
:100F9600FCFEF9F0E04060F0F8FDFFFDF8F06000BF
:100FA600000000000000000000000000000000003B
:100FB600000000000000000000000000000000002B
:100FC600000000000000000000000000000000001B
:100FD600000000000000000000000000000000000B
:100FE60000000000000000000000000000000000FB
:100FF6000000000000000000000000000080C0E0CB
:10100600F0F8F4E2C18080C0E1F3FFFFF3E1C080B5
:101016004020110B070301000000000000F0F03033
:1010260030F0E000F0F03030F0E000F0F03030303A
:101036003000E0F03030706000E0F030307060007A
:10104600000000F80404E4F43434746404F4F43462
:10105600343404F4F404040404F4F434343404E4BA
:10106600F434347464043434F4F434340404F8008A
:10107600000000C0E07070E0C0003030F0F03030AA
:1010860000000000000000000000000000000080DA
:10109600402010000000003F3F03030301003F3FD4
:1010A6000F1F3B31003F3F3333333000193B33339F
:1010B6003F1E00193B33333F1E000000007F808037
:1010C60099BBB3B3BF9E80BFBFB3B3B080BFBFB041
:1010D600B0B080BFBFB3B3B0809FBFB0B0B8988088
:1010E6008080BFBF808080807F000000003F3F0679
:1010F600063F3F0000003F3F0000000000000000E8
:10110600008040203078FCFEFFFFFE7C38000000A7
:1011160000F0F89898B830001818F8F8181800E099
:10112600F03838F0E000F8F89898F8F0001818F859
:10113600F818180000000080E078180000F8F89809
:101146009898180018F8F81800F8F8F080F8F800E1
:1011560018F8F81800F0F89898B83000F8F8808079
:10116600F8F8000000000000000000000000000089
:101176000000008040E0F0F8FCFEF9F0E04060F08E
:10118600F8FDFFFDF8F060000000000C1D19191FA6
:101196000F0000001F1F0000001F1F03031F1F007A
:1011A6001F1F070F1D180000001F1F00000000185A
:1011B6001E0701000000001F1F0101010000181F8B
:1011C6001F18001F1F010F1F1F00181F1F18000CDC
:1011D6001D19191F0F001F1F01011F1F000000000E
:1011E600000000000080C0E0F0F8F4E2C18080C09A
:1011F600E1F3FFFFF3E1C0804020110B070301007C
:101206000000000000000080601010101010101088
:101216001010101010F000000000000000F070C068
:1012260000000000000000000000000000000000B8
:1012360080C0C0E0E0F0F07878787C7CFCFCFC7C38
:101246007CFCFC7C7CFCFC7C7C7C7878F0F0E0E030
:10125600C0C08000000000000000F01010105050C8
:10126600101010101010101010F0000000000000F8
:1012760000E020A06040603808F8000080C06038B8
:101286004F010002030000000000000000001843A8
:101296008478C08000C0601F00FF000000000000CE
:1012A60000000080E0F8FCFEFFFFFFFFFFFFFFFFEE
:1012B600FFC0C0DBDBC0E4FFFFFCF8C3C3F8FCFFE4
:1012C600FFC0C0DBDBDFFFFFFFFFFFFFFFFFFEFC12
:1012D600F8F0E0807F0087C00000000000000000FA
:1012E60000010CF386FC0000000000FFF700000080
:1012F60000003E01FF1114121310101010101010F0
:10130600101010109090901010101013121511104C
:10131600101010131214141C181010101E1F1F9FEB
:10132600DFFF7F3F1F1F1F1F1F1F1FDF23B9A535AD
:10133600B5A539212121212139A5B535A5B923DF47
:101346001F1F1F1F1F1F1F3F7FFFDF9F171118142F
:1013560017101010909090101010101010101513F8
:101366001F1E10101C1310101010101010101F004C
:1013760000304000400000000000000007050103A7
:101386000203000000000000000000000000000052
:101396000080C0E070381C0E07030100000000004A
:1013A600000000007F7870717130111110363636EA
:1013B600363610111130717170787F000000000010
:1013C600000000000103070E1C3870E0C181000018
:1013D600010000201038280830000000000000003E
:1013E600000000000000000000000000000000F007
:1013F600F878F8D8B858B858B858B858B858B85847
:10140600B870E0C08000000000000000000000008E
:10141600000000000000F0F000808000F0F000C046
:10142600E07070E0C00030F0F030003030F0F030A6
:10143600300030F0F03000F0F0E000F0F000E0F0C6
:1014460030303030000000000000000000000000D6
:101456000000000000000000000000000000000086
:10146600000000000000000000FFFF55AA55AB5722
:10147600AE5DFAF53A353AB5FAF5FAF5FAF5FBF74F
:10148600FEBCF8F0000000000000000000000000B4
:101496003F3F1C0F0F1C3F3F003F3F06063F3F00EC
:1014A600303F3F300000003F3F000000303F3F30FC
:1014B600003F3F031F3F3F001F3F30333F1F0000E9
:1014C6000000000000000000000000000000000016
:1014D6000000000000000000000000000000000006
:1014E600000000071F3D7AF5EAD5AA55FFFFFCFE6E
:1014F600FFFF0F07E311090109010143070FFCF084
:1015060000000000000000000000FCFCCCCCCC0C6D
:1015160000F8FC0C0CFCF800FCFCCCCCFC780000C1
:101526000000000000F8FC0C0C1C1800F0F89C9C55
:10153600F8F000FCFC38F0F038FCFC00FCFCCCCCED
:101546000C00FCFCCCCCFC7800F0F89C9CF8F0007D
:101556000000000000000000000000000000000085
:1015660000000103070F1F1F191B1F1F3E3C387089
:101576007070707072393C1E0F070000000000008A
:10158600000000000F0F0000000000070F0C0C0FFA
:1015960007000F0F03070E0C0000000000000007F5
:1015A6000F0C0C0F07000F0F01010F0F000F0F009C
:1015B6000101000F0F000F0F0C0C0C000F0F03079B
:1015C6000E0C000F0F01010F0F00000000000000BD
:1015D6000000000000F00808C8E86868E8C808E8E5
:1015E600E868686808E8E808080808E8E8686868D5
:1015F60008C8E86868E8C8086868E8E86868080825
:10160600F0000000000000000000000000000000E4
:1016160000000000000000000000000000000000C4
:1016260000000000000000000000000000000000B4
:1016360000000000F80C040404040CFCFCFCFCFC98
:101646000C040404040CF80000000000000000FF75
:101656000000337766667E3C007F7F666660007FAB
:101666007F606060007F7F666660003F7F606070BD
:10167600300000007F7F00000000FF000000000037
:1016860000000000000000000000000000C0201064
:10169600D0D01020C00000000000000000C02010C4
:1016A600D0D01020C0000000000000000000F71C91
:1016B600080808081CFFFFFFFFFF1C080808081C95
:1016C600F700000000000000003031F1F131310177
:1016D600E1F13131F1E10101010101E1F131317154
:1016E60061013131F1F1313101E1F13131F1E101E4
:1016F600E1F13131706000F0F03030300000000070
:1017060000000000F80E03037B7B7B037B7B7B03DF
:10171600838383838383037B7B7B037B7B7B0303C3
:101726000EF8000000000000EF381010101038FF0F
:10173600FFFFFFFF381010101038EF000000000008
:1017460000000000003F3F0000001F3F30303F1FF9
:101756000000000000193B33333F1E0000003F3FEE
:101766000000003F3F06063F3F001F3F30363E1E4B
:10177600003F3F33333000000000000000003F3ED2
:101786003C3C3C3C3C1C0404040C0D0D0D0D0D0DA5
:101796000C0404041C3C3C3C3C3C3E3F0000000066
:1017A60000001F3020202020303F3F3F3F3F3020A9
:1017B600202020301F000000000000000000F0F094
:1017C6003030F0E000F0F030303000C0E07070E013
:1017D600C000F0F03030F0E000F0F00000F0F00073
:1017E6000000003030F0F0303000E0F03030F0E053
:1017F6000000000000000000003F3F071F3B3100D3
:101806003F3F333330003F3F06063F3F003F3F3008
:10181600303F1F0001033F3F0301000000000000AE
:101826003F3F0000001F3F30303F1F000000000018
:10183600000000000000F8F80000000000E0F038AA
:1018460038F0E000F8F80000F8F800F8F8F080F852
:10185600F800F0F81818383000F8F88080F8F8002A
:101866000000000000000000000000000000000072
:10187600001F1F18181818001F1F03031F1F000F33
:101886001F18181F0F001F1F010F1F1F000F1F1803
:10189600181C0C001F1F01011F1F00000000000084
:1018A6000000000000000000000000000000000032
:1018B6000000000000000000000000000000000022
:1018C6000000000000000000000000000000000012
:1018D6000000000000000000000000000000000002
:1018E600000000000000000080E0F8FCFCFE3E1F47
:1018F6000F8F8F8F9FBFBEBEBC10000080E0F8FC2C
:10190600FCFE3E1F0F0F0F0F1FFFFEFEFCF0000038
:1019160000E0FFFFFF7F1F01000000000000000045
:101926000000001F7FFFFFFFF0E0E0E7E7E7FFFFB3
:10193600FF7F3F030000001F7FFFFFFFF0E0E0E0B6
:10194600E0F0F8FE7F7F3F0F0300C0F0F7F7F77374
:101956000000000000000000000000000000000081
:10196600000001010101010101000000000000006A
:10197600000000000000010101010101010000005A
:10198600000000000001010101010000000000004C
:10199600003F3F3F3FFFFFFFFFFFFFFFFF0000004D
:1019A6001C1C1C000000FFFFFFFFFFFFFFFF0000E5
:1019B60000FFFFFFFFFFFFFFFF0000001C1C1C00D5
:1019C6000000FFFFFFFFFFFFFFFF000000FFFFFF1C
:1019D600FFFFFFFFFF000000000000000000FFFF08
:1019E600FFFFFFFFFFFF3F3F3F3F3F3F3FFF00003F
:1019F600001C1C1C0000003F3F3F3F3F3F3F3F0095
:101A060000003F3F3F3F3F3F3F3F0000001C1C1C84
:101A16000000003F3F3F3F3F3F3F3F0000003F3F4A
:101A26003F3F3F3F3F3F0000001C1C1C0000003FA3
:101A36003F3F3F3F3F3F3F000000000000000000E7
:101A4600000000000000000000000000F0F0F0F0D0
:101A5600F0F0F0F0000000C0C0C0000000F0F0F0B0
:101A6600F0F0F0F0F0000000F0F0F0F0F0F0F0F040
:101A7600000000C0C0C0000000F0F0F0F0F0F0F090
:101A8600F0000000F0F0F0F0F0F0F0F000000000E0
:101A96000000000000F0F0F0F0F0F0F0F0000000C0
:101AA6000000000000000000000000000000000030
:101AB6000000000000000000000000000000000020
:101AC600000000000000FFFFFFFFFFFFFFFF000018
:101AD60000C1C1C1000000FFFFFFFFFFFFFFFF00C5
:101AE6000000FFFFFFFFFFFFFFFF000000C1C1C1B5
:101AF600000000FFFFFFFFFFFFFFFF000000FFFFEA
:101B0600FFFFFFFFFFFF000000C0C0C0000000FF96
:101B1600FFFFFFFFFFFFFF000000000000000000C6
:101B26000000000000000000000000C040404040EF
:101B360040404040404040404040C040404040401F
:101B4600434343434343434340C0404141414040F4
:101B56004043434343434343C340404043434343DB
:101B660043434343404040C14141404040434343D7
:101B760043434343434040C04343434343434343B8
:101B8600404040414141C0404043434343434343B7
:101B96004340404040C040404040404040404040BC
:101BA60040404040C0FF8080808080808080808070
:101BB60080808080E18080808080808080808080BE
:101BC600808080F38080808080808080808080809C
:101BD6008080E1808080808080808080808080809E
:101BE60080AAD58080808080808080808080808070
:101BF60080E180808080808080808080808080807E
:101C0600F38080808080808080808080808080E1FA
:101C16008080808080808080808080808080FF00BF
:101C26000000F0F03030F0E000F0F030303000C06E
:101C3600E07070E0C000F0F03030F0E000F0F0004E
:101C460000F0F0000000003030F0F0303000E0F03E
:101C56003030F0E00000000000008080808000004E
:101C660000000000000000C020100806010000006F
:101C76000000000000009F000000000000000001BE
:101C860006081020C0000000000000000000808050
:101C96008080000000000000000000003F3F071F9A
:101CA6003B31003F3F333330003F3F06063F3F00A6
:101CB6003F3F30303F1F0001033F3F03010000005C
:101CC6000000003F3F0000001F3F30303F1F000074
:101CD6000080F0FE0F01010FFEF0800020100C02C4
:101CE60001000000C02010D0D01020C0000000006D
:101CF6003F000000C02010D0D01020C0000000011E
:101D0600020C10200080F0FE0F01010FFEF0800093
:101D16000000000000000000F8F80000000000E0ED
:101D2600F03838F0E000F8F80000F8F800F8F8F0BD
:101D360080F8F800F0F81818383000F8F88080F8C5
:101D4600F80000000000003078F8FCFFE7C0C0C0D3
:101D5600C0C0C0E7FFFCF878300000F80E03037B34
:101D66007B7B037B7B7B03838383838383037B7BF5
:101D76007B037B7B7B03030EF800003078F8FCFFC7
:101D8600E7C0C0C0C0C0C0E7FFFCF8783000000064
:101D960000001F1F18181818001F1F03031F1F001D
:101DA6000F1F18181F0F001F1F010F1F1F000F1FE7
:101DB60018181C0C001F1F01011F1F000000000047
:101DC60000000000010303070707070707030301D5
:101DD60000000000003F3E3C3C3C3C3C1C0404042C
:101DE6000C0D0D0D0D0D0D0C0404041C3C3C3C3C6F
:101DF6003C3E3F00000000000103030707070707FA
:101E06000703030100000000000000F00808C8E80E
:101E16006868E8C808E8E868686808E8E80808083C
:101E260008E8E868686808C8E86868E8C80868688C
:101E3600E8E868680808F0000000000000000000FC
:101E460080F03C06063CF080000000000000000028
:101E5600000000000000000000000000000000007C
:101E6600000000000000000000000000000000006C
:101E76000000000080F03C06063CF08000000000F8
:101E86000000000000FF0000337766667E3C007F9E
:101E96007F666660007F7F606060007F7F66666049
:101EA600003F7F606070300000007F7F0000000010
:101EB600FF0000000002020002070F0E1C1C1C1C83
:101EC6000E0F0702000002020202020202804020F8
:101ED600A2A22242820202000000020202824222E2
:101EE600A2A02040820202020202000002070F0E98
:101EF6001C1C1C1C0E0F0702000202000000003012
:101F060031F1F1313101E1F13131F1E1010101014B
:101F160001E1F131317161013131F1F1313101E12B
:101F2600F13131F1E101E1F13131706000F0F03071
:101F3600303000000000000000000000000000003B
:101F460000000000F01C0607F6F6F707F6F6F7069F
:101F560006060606060606F7F6F607F7F6F6070677
:101F66001CF000000000000000000000000000005F
:101F760000000000000000000000003F3F000000DD
:101F86001F3F30303F1F0000000000193B33333F36
:101F96001E0000003F3F0000003F3F06063F3F0097
:101FA6001F3F30363E1E003F3F33333000000000F7
:101FB60000000000000000000000000000007F7C20
:101FC600787878787838080808181B1B1B1B1B1BA9
:101FD600180808083878787878787C7F0000000040
:101FE600000000000000000000000000000000F8F3
:101FF600FC1E0F0703030303030303030303030387
:10200600030303030303030303030303030303039A
:10201600030303030303030303030303030303038A
:10202600030303030303030303030303030303037A
:10203600030303030303030303030303030303036A
:10204600030303030303030303030303030303035A
:10205600030303030303030303030303030303034A
:1020660003030303070F1EFCF8FFFF000000000038
:10207600000000000000000000000000000000005A
:10208600000000000000000000000000000000004A
:10209600000000000000000000000000000000003A
:1020A600000000000000000000000000000000002A
:1020B600000000000000000000000000000000001A
:1020C600000000000000000000000000000000000A
:1020D60000000000000000000000000000000000FA
:1020E60000FFFFFFFF0000000000000000000000EE
:1020F60000000000000000000000000000000000DA
:1021060000000000000000000000000000000000C9
:1021160000000000000000000000000000000000B9
:1021260000000000000000000000000000000000A9
:102136000000000000000000000000000000800019
:10214600008000C040404080000080408000008049
:102156004040408000C00000804000FFFF1F3F78E5
:10216600F0E0C0C0C0C0C0C0C0C0C0C0C0C0C0C019
:10217600C0C0C0C0C0C0C0C0C0C0C0C0C0C0C0C059
:10218600C0C0C0C0C0C0C0C0C0C0C0C0C0C0C0C049
:10219600C0C0C0C0C0C0C0C0C0C0C0C0C0C0C0C039
:1021A600C0C0C0C0C0C0C0C0C0C0C0C0C0C0C0C029
:1021B600C0C0C0C0C0C0C2C5C8C2C5C8C0DFD2D2B8
:1021C600D2CDC0DFC4C4C4DFC0CFD0D0D0C8C0DF3A
:1021D600C2C5C8D0C0FFFF000000000000005F00BD
:1021E60000000E000E00247E247E24242A7F2A125C
:1021F600261608343236495926500000000E003E95
:1022060041410000000041413E2A1C3E1C2A0808AC
:102216003E080800000040300808080808000000D2
:10222600400020100804023E4549513E00427F40CE
:1022360000724949494622494949361814127F1005
:102246002F494949313E4949493201710905033649
:1022560049494936264949493E00003636000000BC
:1022660026360000182442000014141400004224EC
:10227600180002015109063E415D553E7C121112BD
:102286007C7F494949363E414141227F4141413E99
:102296007F494949417F090909013E4149493A7F38
:1022A6000808087F00417F41002040413F017F0828
:1022B6001422417F404040407F027C027F7F020C17
:1022C600307F3E4141413E7F090909063E41516149
:1022D6007E7F09192946264949493201017F0101B4
:1022E6003F4040403F1F2040201F3F403E403F416F
:1022F600221C2241010678060161514945437F416E
:102306004100000204081020000041417F301C07F4
:102316001C304040404040010204000034545454F4
:10232600787F444444383844444448384444447FDD
:102336003854545458087E090902185454543C7FA2
:102346000808087000047D40002040443D007F10CE
:10235600384400007F4000007C047C04787C040440
:10236600047838444444387E1212120C182424642B
:10237600587C040404084854545424043F44442418
:102386003C4040403C0C3040300C3C4038403C44E3
:1023960028102844004C50503C645454544C083E79
:1023A60041410000007F00000041413E0804020256
:1023B6000402000000000000000000000000000011
:1023C6000000000000FFFF000000000000333300A3
:1023D600000000001E1E001E1E000000000000007F
:1023E600000030FEFE3030FEFE30031F1F03031FC9
:1023F6001F0378FCCCFFFFCCCC8C0C0C0C3F3F0CA5
:102406000F070E1F1BDFFE7C1F07303C0F1F3F36DA
:102416003E1C1CBEF7E3F73E9C800F1F39391F0F89
:102426003F3B000006C6FE7C0000000000000000E6
:1024360000000000FCFE0703000000000F1F3830FC
:10244600000000000307FEFC0000000030381F0FEC
:102456000000CEDEF0FEFEF0DECE1C1E031F1F03C4
:102466001E1CC0C0C0FCFCC0C0C00000000F0F0096
:1024760000000000000000000000000000002C1C0E
:10248600000000C0C0C0C0C0C000000000000000C6
:1024960000000000000000000000000030300000D6
:1024A6000000000000C0F03C0F03303C0F030000AA
:1024B6000000F8FE07030307FEF8071F3830303820
:1024C6001F0700181C0EFFFF0000000030303F3FC2
:1024D60030300C0E0783C3E77E3C3C3E3733313049
:1024E60030300C0EC7C3C3E7FE3C0C1C3830303905
:1024F6001F0F00C0F03C0FFFFF0007070606063F50
:102506003F06FFFF636363E3C3801838303030381B
:102516001F0FFCFEC76363E7C6800F1F38303038D5
:102526001F0F030303C3F37F1F07303C1F07010080
:1025360000003CFEE7C3C3E7FE3C0F1F39303039CD
:102546001F0F7CFEC78383C7FEFC18383131313834
:102556001F0F0000003030000000000000030300E1
:10256600000000008E8E8E0000000000110F070094
:10257600000080C0E070381C0C00000103070E1C30
:10258600180030303030303030300303030303039B
:102596000303000C1C3870E0C08000181C0E0703F3
:1025A60001001C1E0686C6FE7C00000037370100AF
:1025B6000000FEFF03F3FB1BFFFE1F3F30333736E1
:1025C6003733F8FC0E07070EFCF83F3F03030303FF
:1025D6003F3FFFFFC3C3C3E7FE9C3F3F3030303869
:1025E6001F0FFCFE070303070E0C0F1F3830303891
:1025F6001C0CFFFF03030307FEFC3F3F303030385F
:102606001F0FFFFFC3C3C3C3C3033F3F3030303088
:102616003030FFFF6363636303033F3F0000000046
:102626000000FCFE070383878E8C0F1F3830313184
:102636003F1FFFFFC0C0C0C0FFFF3F3F00000000BC
:102646003F3F000303FFFF0303000030303F3F30EE
:10265600300000000303FFFF03031C3C30303F1F24
:102666000000FFFFF0381C0E07033F3F03070E1C58
:102676003830FFFF0000000000003F3F30303030B0
:102686003030FEFF3EF8F83EFFFE3F3F003F3F0082
:102696003F3FFFFF3CF0C000FFFF3F3F0000030F3E
:1026A6003F3FFCFE07030307FEFC0F1F38303038A0
:1026B6001F0FFFFF838383C7FE7C3F3F010101019C
:1026C6000000FCFE07030307FEFC0F1F38363E1C06
:1026D6003F37FFFF838383C7FE7C3F3F03070F1D02
:1026E60038303C7EE7C3C3C78E0C0C1C38303039FB
:1026F6001F0F030303FFFF0303030000003F3F0018
:102706000000FFFF00000000FFFF0F1F38303038C9
:102716001F0FFFFF80000080FFFF00030F3C3C0FF0
:102726000300FFFF00FFFF00FFFF0F3F3F07073FCC
:102736003F0F071F3CF0F03C1F07383E0F03030F07
:102746003E380F7FF8C0C0F87F0F0000013F3F0101
:102756000000030383E3FB3F0F07383E3F3330306F
:1027660030300000FFFF0303000000003F3F303021
:102776000000030F3CF0C000000000000000030F43
:102786003C3000000303FFFF0000000030303F3FF5
:10279600000080C0E07070E0C0800301000000000F
:1027A60001030000000000000000303030303030FF
:1027B6003030000003070E1C180000000000000067
:1027C6000000607030303030F0E01E3F333333337A
:1027D6003F3FFFFF70303070E0C03F1F3830303869
:1027E6001F0FC0E070303070E0C00F1F3830303837
:1027F6001C0CC0E070303070FFFF0F1F38303018EF
:102806003F3FC0E070303070E0C00F1F3B333333C2
:102816003B1B0060FEFF6363030000003F3F0000B8
:102826000000E0F030303030F0E0193B3333333B1A
:102836001F0FFFFF70303070E0C03F3F0000000008
:102846003F3F000060ECEC0000000000003F3F004E
:10285600000000000060ECEC0000183830303F1F2C
:102866000000FFFFC0E0703818003F3F03070E1C52
:102876003830000000FFFF0000000000001F3F305E
:102886000000F0E070F0E070F0E03F3F003F3F00F6
:102896003F3FF0E070303070E0C03F3F0000000086
:1028A6003F3FC0E070303070E0C00F1F3830303826
:1028B6001F0FF0F030303030F0E03F3F03030303EA
:1028C6000301E0F030303030F0F00103030303037E
:1028D6003F3FF0F0E0703070E0C03F3F0000000086
:1028E6000000E0F0303030307060193B3333333362
:1028F6003F1E6060FEFE6060600000001F3F3030DB
:102906003000F0F000000000F0F00F1F38303018F3
:102916003F3F70F0C00000C0F07000030F3C3C0F5A
:102926000300F0F000C0C000F0F00F3F381F1F3862
:102936003F0F60E0C08080C0E06030381D0F0F1D83
:102946003830F0F080000080F0F018393333333936
:102956001F0F30303030B0F0F070383C3E37333136
:10296600303000C0FE3F0303000000001F3F303040
:102976000000000000FEFE0000000000001F1F0017
:102986000000000003033FFEC000000030303F1F80
:10299600000080C06060C0C0602000000000000031
:1029A60000007EFFC3C3FF7E00C6FFFFC000E6F344
:1029B600FBDBDFCE66E7C3DBFF763C3E33FFFF3053
:1029C600DFDFDBDBFB737EFFDBDBFB700003E3FBA0
:1029D6003F0F66FFDBDBFF66CEDFDBDBFF7EC0C0C3
:1029E6000000FEFF0303FFFE0103030303010006CD
:1029F600FFFF000000030303030086C7E3733F1EC7
:102A060003030303030386873333FFCE0103030364
:102A16000301F0FCCFFFFFC0000000030300BFBFAF
:102A26003333F3E3010303030301FEFF3333F7E616
:102A36000103030303010383E3FB3F0F00030300CA
:102A46000000CEFF3333FFCE0103030303019EBF15
:102A56003333FFFE010303030301FFFF0000000001
:102A6600030303030303000000000000000000004E
:102A760000001818181818181818181818FFFF1832
:102A86001818FF1F1F1F1FE1E1E1E1FF0302020209
:102A9600020303030303000000000000000000001F
:102AA6000000000000000000000000000000000020
:102AB6000000000000000000000000000000000010
:102AC6000000000000000000000000000000000000
:102AD60000000000000000000000000000000000F0
:102AE60000000000000000000000000000000000E0
:102AF6000000C0C1C1810140C30103C00280C241C0
:102B0600C60106C00780C7410500C5C1C48104408F
:102B1600CC010CC00D80CD410F00CFC1CE810E403F
:102B26000A00CAC1CB810B40C90109C00880C8414F
:102B3600D80118C01980D9411B00DBC1DA811A40BF
:102B46001E00DEC1DF811F40DD011DC01C80DC418F
:102B56001400D4C1D5811540D70117C01680D641BF
:102B6600D20112C01380D3411100D1C1D0811040CF
:102B7600F00130C03180F1413300F3C1F2813240BF
:102B86003600F6C1F7813740F50135C03480F4418F
:102B96003C00FCC1FD813D40FF013FC03E80FE413F
:102BA600FA013AC03B80FB413900F9C1F88138404F
:102BB6002800E8C1E9812940EB012BC02A80EA41BF
:102BC600EE012EC02F80EF412D00EDC1EC812C408F
:102BD600E40124C02580E5412700E7C1E6812640BF
:102BE6002200E2C1E3812340E10121C02080E041CF
:102BF600A00160C06180A1416300A3C1A2816240BF
:102C06006600A6C1A7816740A50165C06480A4418E
:102C16006C00ACC1AD816D40AF016FC06E80AE413E
:102C2600AA016AC06B80AB416900A9C1A88168404E
:102C36007800B8C1B9817940BB017BC07A80BA41BE
:102C4600BE017EC07F80BF417D00BDC1BC817C408E
:102C5600B40174C07580B5417700B7C1B6817640BE
:102C66007200B2C1B3817340B10171C07080B041CE
:102C7600500090C191815140930153C052809241BE
:102C8600960156C057809741550095C1948154408E
:102C96009C015CC05D809D415F009FC19E815E403E
:102CA6005A009AC19B815B40990159C0588098414E
:102CB600880148C0498089414B008BC18A814A40BE
:102CC6004E008EC18F814F408D014DC04C808C418E
:102CD600440084C185814540870147C046808641BE
:102CE600820142C043808341410081C180814040CE
:10A38D0043153A0000004E0540000000000000009B
:10A39D000000000000000042044500004201BE0024
:10A3AD00004204F000A04215D10000411465FE5595
:10A3BD00147100000000000000000000000000000B
:10A3CD00000000000000004204F500004201BC0046
:10A3DD000042146300004204BD000041000E004124
:10A3ED0015E4004204F300004100360047144B0011
:10A3FD00000000000000431448000000410000036D
:10A40D004106C8004106C9004115C3144104F200BC
:10A41D004106E601440198FFFFFFFF4401B8FFFF2D
:10A42D00FFFF420137FFFF420146FFFF4D0001FFD5
:10A43D0000A60103DB000000000114A04D000FFF7A
:10A44D0000B40103DB000000000114A04D06D9FF8C
:10A45D0000C10103DB000000000114A04D15E5FF54
:10A46D0000D0011439000000000114A04B146653F4
:10A47D00657373696F6E202323004D149301146669
:10A48D000104E3000000000103F54D04E30114662F
:10A49D000115E500000000FF048F4D06CAFF010FF6
:10A4AD000103DB00000000FF04AB4D019CFF012EFA
:10A4BD000103DB00000000FF04C74D03E8FF01614D
:10A4CD000103DB00000000FF04DC4D15C4FF014853
:10A4DD000103E800000000FF04F84D0438FF0154AB
:10A4ED000103E800000000FF05224D1607FF01EBF8
:10A4FD000103DB00000000FF053E4D0139FF024561
:10A50D000103DB00000000FF05534D03DBFF02D606
:10A51D0001143900000000FF05994D1486FF034713
:10A52D0001143900000000FF05FB4D018BFF036A8C
:10A53D0001143900000000FF0656602A014801FF92
:10A54D00037601148606FF0382FF000301FF0390CB
:10A55D000103DB06FF03A0FF930E01FF03AF010113
:10A56D008B000000000000004D1439FF01F80114AC
:10A57D00390000000001014855002006FF03BE0010
:10A58D00000001FF03C200000000000000000000F9
:10A59D005515F207FF03C2FFEB5607FF03BEFFBBC6
:10A5AD00A8000000000000004D15D3FF03C50000FA
:10A5BD0000000000000100204D1452FF03D40000E4
:10A5CD0000000000000115F24701C001000000016C
:10A5DD0014524D01AA000000000000000000FF0110
:02A5ED0001C0AB
:10D62F0090047EE493FF3395E0FE9004CB75F012E7
:10D63F00EF124A01EE75F012A42583F583024A2FEB
:10D64F007E0012454C901836E475F0010246BCE49A
:10D65F00FFFEFDFC1249A8D302491512498C74FF35
:10D66F00FBFAF9F80247CF9004C37B007A007900E8
:10D67F00024A38901836E0FEA3E0FFC32290047EE2
:10D68F00E493FD3395E0FC9004CB75F012ED124A54
:10D69F0001EC22E4901836F0A3F0227B01E4F5426E
:10D6AF0075432D229000071245FD755900755A01DB
:10D6BF00229004C3024A2F25E02440F582E434056A
:10D6CF00F5832274C72FF58274013EF583227C0007
:10D6DF007D64AE020246317B017A0179C775600025
:01D6EF002218
:10616300E4901835F090184D04F0E4A3F075840F13
:1061730075FFDE75FFAD12E7C912E083E49004D228
:10618300F09004C0F09004BFF09004D104F0E490C8
:1061930004D3F0A3F09004C1F0A3F09004DCF090DA
:1061A30004CAF09004DB744EF09004C9F09004D854
:1061B30012D6799004D5124A389004C6124A389000
:1061C30004C3124A380B7A0679E79004CE124A3890
:1061D3007A0B79219004E0124A387A0F79FB900404
:1061E300CB124A387A1279189004DD124A387A04AD
:1061F30079BF1268457B017A0479D11268457F0023
:106203007E9612EF4C12F222752A01752B14752C0F
:10621300357B017A14796112D14C12C04D12745A34
:10622300D2AF12D4ABD2FEE4FF12E18D30D8217588
:10623300610075620F7563FF756406756579756630
:106243002D7B717A007D097C007F037E001298F11B
:0362530030D82020
:106256009018241249D0000AFC8090182412D65EA9
:10626600400E90182412D66A9018241249C480EA67
:1062760012D6A212D62FE412D6B37B9112682A90B8
:1062860006C8E0701412D654C3901837E0940390F1
:106296001836E06480948040DA9006C8E0600AE42C
:1062A600F559F55A7B7012682A9015A6E0FFA3E00F
:1062B6009003D9CFF0A3EFF09015A8E0FFA3E090EC
:1062C600145FCFF0A3EFF090158FE09001B7F0E4E4
:1062D600FF12E18D9006C8E0FF129BAAEF703A7B91
:1062E600FF7A0379E41268647BFF7A0379F0E4F5B8
:0962F6005675572D7F0212D06885
:1062FF009018281249D00022551090182812D65EF7
:10630F00400E90182812D66A9018281249C480EAB5
:10631F00E4FF12E18D7BFF7A0379FBE41268647569
:10632F0066FF756704756808756900756A03756B94
:10633F0000756C1F756D00756E0812683512D6AC3E
:10634F007F0212CE9C9006C8E060317566FF7567BC
:10635F00047568209003D9E0FAA3E0FBFF12D6DDA5
:10636F008E698F6AAF0312D6DD8C6B8D6C90145FC4
:10637F00E0F56DA3E0F56E12683580067BFF7A04B9
:0D638F00793812D6AC7F0312CE9C30D82591
:10639C0090182C1249D000112A88E4FFFEFDFC90C5
:1063AC00182C12D663400E90182C12D66A90182C0A
:0563BC001249C480E558
:1063C100E4FF12E18D7BFF7A04794D12D6ACFF1206
:1063D100CE9C7A15793D12D6AA7F0212CE9C7A15EF
:1063E100795112D6AA7F0312CE9C12D6E6756103AB
:1063F1007F107E0212DDAD9006C8E0FF600E9003B3
:106401006DE0540FFEBE03047E0180027E00900405
:10641100F7EEF0EF607912D62F900007E41245FDF8
:1064210012D63990000874031245FD12D6A212D675
:10643100829410EE64809482502512D6D2E0FF122D
:10644100D68C12D644901837E02409FD901836E016
:1064510034008D82F583EF1245FD12D65480CF753D
:106461005902755A127B981268599001B7E0C3948A
:10647100C8401C9015ADE030E4047F0080027F012C
:1064810012D68C12D644EF12D6B37B9412685912ED
:10649100D6A212D6829404EE6480948050287C00A7
:1064A1007D2812461F74C72FF974013EFA7B01C083
:1064B10001745B2FF9740F3EA801FC7D01D0017FAF
:1064C1002812D64F80CC12D6A212D6829402EE6444
:1064D10080948050287C007D2412461F74F72FF988
:1064E10074023EFA7B01C00174F82FF974043EA8CE
:1064F10001FC7D01D0017F2412D64F80CC30D825FC
:106501009018301249D0000BAC48E4FFFEFDFC901E
:10651100183012D663401090183012D66A90183095
:056521001249C480E5F1
:10652600C2FEE4FF12E18D752A01752B04752CBDA0
:106536007B017A14796312CAD812D6E67561017F97
:10654600107E0212DDAD9001CAE0540F24FC600CEF
:10655600240270109015C37414F0800E9015C37445
:1065660028F080069015C3740AF09001CBE09004E1
:10657600F2F0901435E0FCA3E0FD7F017E0012E40A
:106586005D9004F2E030E7034403F012D6A212D67F
:10659600829410EE64809482500D12D6D2E4F0906C
:1065A600183612D65880E7E4901465F0900446E059
:1065B6002460FE900445E0340990001CF0A3CEF060
:1065C600E4900036F09004F7E0600B7BFF7A1379D5
:0B65D600EF7D2D12D864E490184EF009
:1065E1009004F7E0602B900036E0FF6402601AEF40
:1065F1006404601590001C12D685900446E09F90BB
:106601000445E09E5003026711E49004F7F002672D
:106611001190184EE0707704F07D037F00126EE94F
:106621009006C8E060689015B7E0124AEA664A0130
:10663100664C02664E036652046659056663066639
:106641006A076674080000668F801A801F7D0180CA
:106651000C1268517D0480057D0112681B126805CA
:10666100801D1267E87D0180191267E81268517D6B
:1066710004800F7D041268057F01126EE97D01120D
:10668100681B7F01126EE97D017F01126EE9901591
:10669100ADE030E4047F0080027F01EF7020C39001
:1066A100054DE094F090054CE0940040077D067F95
:1066B10001126EE930DE07E490054CF0A3F0E4909E
:1066C1001834F0901834E0FFC39406504374017EEF
:1066D10000A807088005C333CE33CED8F9FFADD863
:1066E100EF5D6024901834E0FD12D6C6E0FEA3E011
:1066F100C39409EE940040057F01126EE9901834AD
:10670100E012D6C6E4F0A3F0901834E004F080B3B0
:0867110012D6C0E94A4B6017E3
:1067190012D6C08B248A25892612D676AB24AA25BF
:07672900A926E4FF122CF683
:0B6730009004D5124A2FE94A4B602369
:10673B009004D5124A2F8B248A2589267B007A0058
:10674B0079009004D5124A38AB24AA25A9267F01DB
:03675B00122CF607
:10675E009015D1E07002A3E070030265E1E490159C
:10676E00D1F0A3F09006C9E0FFB4F018901465F0D4
:10677E00E4901463F0A3F090000E74FFF0FB7A0423
:10678E00796280129006C9E0FFB4F115901465F09D
:10679E007BFF7A04796A12F13EE49006C9F0026535
:1067AE00E19006C9E0FF64F260030265E1901465B2
:1067BE00EFF07BFF7A04797212F13E901462E024BE
:1067CE00FBFD901461E034FFFC7B01E4FFFE12DE62
:0767DE00DCE4F58443EF0148
:0367E5000265E169
:1067E8007D047F01126EE97D047F01126EE97D044C
:1067F8007F01126EE97D047F01126EE9227F01128A
:106808006EE97D047F01126EE97D047F01126EE955
:106818007D04227F01126EE97D047F01126EE97DFD
:1068280004227D027F0312C7D612EE20227B017A52
:10683800187938127A037B017A187938227F007E1A
:10684800847D037C0012AC9B227D017F01126EE9DE
:10685800227D027F0312C7D612EE2022F556755705
:066868002DFF12D0682292
:0EEE200090153BE070FA12D6C0E94A4B601D17
:10EE2E0012D6C090184F124A389006C87401F012CC
:0DEE3E00D67690184F124A2FE4FF122CF6E2
:01EE4B0022A4
:10C9DF0025332E33662C25332E3366002C25640029
:10C9EF004820253033642C200048202D2D2D2C205D
:10C9FF00005620253032642C20005A252B312E3141
:10CA0F006600542025322E306625630025326420BF
:10CA1F00005461636820262053706565646F00526F
:10CA2F00504D004D5048004B504800204E2F4300B2
:10CA3F0025357500253364004E6F4750530041254F
:10CA4F00642025342E326656200044343A20256463
:10CA5F002044353A20256400523A25357500253497
:10CA6F002E3166202573200025342E326620257343
:10CA7F0020004E20004E45004E5700452000572005
:10CA8F0000534500535700532000253032642F25A3
:10CA9F003032640020253032643A253032643A2532
:10CAAF0030326400253034642D253032642D25302A
:10CABF00326400253032643A25303264001F1C1F67
:09CACF001E1F1E1F1F1E1F1E1F4B
:10AA9400E53F75F028A4247CF582E4340FF5831295
:10AAA400498C9018A61249A80241509015B1E0C4EF
:10AAB400F854F0C868FCA3E0C4540F48FDE4024114
:10AAC400D3901890E0FCA3E0FDEC0241D3AF03EA7D
:10AAD400F0A3EFF0E47B3CFAF9F8901AB912498C30
:10AAE400024875F0E53F75F028A4227566FF756786
:10AAF400C97568EBAB3EAA3FA940223401FE7C0134
:10AB04007D68124631C374689DFF74019CFE7C010C
:10AB14007D68024631AD07AC06E41241D3A804A90E
:10AB240005AA06AB0722AB4AAA49A948A8477C4014
:10AB3400123FAA02420C7561007562087563FF75C5
:10AB4400640B7565A522901AB3E0F569A3E0F56A74
:10AB5400A3E0F56BA3E0F56C22FFE49400FE744BD4
:10AB64002FF58274143EF583E022AB69AA6AA96BBF
:10AB74001246E8FFAEF07C007D04124686ED4C22BE
:10AB840012495CEC1241CE79B47833E4FBFA023F0B
:10AB9400AA7B5C7A8F7982783F023FAA8F4A8E49DA
:10ABA4008D488C47227B017A18798E22901896E082
:10ABB4009400227B3CE4FAF9F802487512498C8F20
:10ABC4006C8E6B8D6A8C69227E007F78124631AC64
:10ABD40006AD07E40241D37B7A7A00E4FDFCFFFE74
:10ABE400227B017A1879982212493C90000412477A
:10ABF40013F55A85F059227C40AB44AA43A942A8D4
:10AC040041023FAAF0E53F75F024A424F8F9740446
:10AC1400222474F582E4340FF5830249A890145079
:10AC2400E0FEA3E0FDEDFF4E227BFF9018A9E0F5C6
:10AC34005A22E0F569A3E0F56A22E475F0010247BF
:10AC44004BE4FFFE7D7A7C480240B32481F582E424
:10AC5400340FF583E0222482F582E4340FF583E097
:10AC640022E56D9FF56DE56C9EF56C229000100257
:10AC7400458B9018A9E0F554227566FF7567CA756F
:10AC84006843227B017A18798E22AB5CAA5DA95EA7
:07AC9400229018A702498C71
:0A8C64008C418D428B3E8A3F89400F
:108C6E0090000612AB8490188F1249C412AAF89085
:108C7E00000A12AB849018931249C4E546C39402BD
:108C8E00501512AAF812ABEC755B0185435C854456
:108C9E005D85455E12B471E5467003128F9DE54603
:108CAE006004640270627566FF7567C97568DF904F
:108CBE00188F12ABC090189312498C8F708E6F8DD7
:108CCE006E8C6D128F809015ADE030E02A12AAEFF7
:108CDE0090000E124713FFAEF0EE3395E0FDFCE46C
:108CEE007B27FAF9F81247EAE47B0CFAF9F812EB53
:108CFE00128E698F6A800E12AAEF90000E12471321
:108D0E00F56A85F069128FB1E5467003128F9DE505
:0A8D1E0046600764036003028F7FC4
:108D280012AAF812AC7054E075F008A4FF90001174
:108D380012458BFDE5F0F54BEF4DF54CE54B30E278
:108D48000744F8F54B854C4C12AAF812AC70541C29
:108D580075F040A4FF90001212458BFDE5F0F54D2B
:108D6800EF4DF54EE54D30E20744F8F54D854E4E92
:108D780012AAF812AC705403FE90001312458BFD32
:108D8800EEF54FEDF550E54F30E10744FCF54F8522
:108D98005050E54C454B7006E54E454D6028AD4EAC
:108DA800AC4DAF4CAE4B12E5338E538F54E5542483
:108DB8000EFFE55312AAFF8C538D547566FF756735
:108DC800C97568EF80097566FF7567C97568F885A4
:108DD800536985546A128FB1128FBBAC4DAD4EECFE
:108DE8001241D3C004C005C006C007AC4DAD4EEC5F
:108DF8001241D3D003D002D001D000123FAAC00440
:108E0800C005C006C007AC4BAD4CEC1241D3C00442
:108E1800C005C006C007AC4BAD4CEC1241D3D00323
:108E2800D002D001D000123FAAD003D002D001D086
:108E380000123EB912DB3312AB9512ABA09015AD00
:108E4800E030E0157F747ED17D0D12AB2A8E518FF4
:108E58005290188E7446F080127466FFFEFD12ABB5
:108E68002A8E518F5290188E7443F07566FF75677D
:108E7800CA75680085516985526A128F809001B75A
:108E8800E0C394C85003028F3D12AAF89000141250
:108E9800458BFFFCE41241D8C004C005C006C007DA
:108EA80012AAAF12AB21D007D006D005D004123ECB
:108EB800B512ABA0E4FFFEFDFCAB4AAA49A948A83D
:108EC80047124150AF4AAE49AD48AC47501BC004A9
:108ED800C005C006C0079015B312AAB2C004C005E9
:108EE800C006C0079015B18016C004C005C006C0F2
:108EF8000712AAAFC004C005C006C0079015B51276
:108F0800AAB2D003D002D001D000123EB512AB21D4
:108F1800D007D006D005D0041240B312ABA07566B6
:108F2800FF7567CA756809854A6C85496B85486A03
:108F3800854769802712AAF890001412458BFF9084
:108F4800188EE0FD12E77212ABA07566FF7567CA4E
:108F580075681112ABC390188EE0F56D128FCF12A1
:108F68008FBB7566FF7567CA75681B9015E4E07559
:078F78006900F56A128FCFBA
:108F7F0022AB43AA44A945127A03AB43AA44A9459D
:108F8F0012F1C2EF2545F545EE3544F54422AB43CA
:108F9F00AA44A94512F1C2EF2545F545EE3544F532
:108FAF004422AB43AA44A945127A0322AB43AA44F5
:108FBF00A94512F1C2EF2545F545EE3544F544229A
:0A8FCF00AB43AA44A945127A03221D
:06B827008B3E8A3F8940C0
:0BB82D0012AC217006F545F546804680
:10B8380012AB1912AC458F448E438D428C417E0069
:10B848009004B8E0540F8E47F5487007FF7D707C70
:10B85800438014E548640F45477005F5477548105F
:10B86800AC47AD4812ABCCAB44AA43A942A841129D
:06B87800AB348E458F4643
:10B87E00C39004BAE095469004B9E0954550047F14
:10B88E007E80027F2D9018A9EFF0647E6004E4FFA5
:10B89E0080027FFF12E18D12AB3A9018A9E0F56697
:10B8AE0012ABDB1298F17ACA792012AC2D7D16E418
:10B8BE00FF12D3E27ACA792E12AC2D7D167F0312B7
:10B8CE00D3E29015ADE07BFF30E0067ACA79328084
:10B8DE00047ACA793612AC2F7D5D7F0312D3E290C3
:10B8EE0004F2E070087BFF7ACA793A80127566FF1F
:10B8FE007567CA75683F85456985466A12B9EC1247
:10B90E00AC767D027F0112D7AB9015E4E0C39403B1
:05B91E00500302B9DB3B
:10B92300AB3EE5402410F9E4353FFA7555017556F1
:10B933001875578E755801755918755A90755B01AE
:10B94300755C18755D9212E20F12AAC5C004C0059A
:10B95300C006C00712AAC5D003D002D001D000127E
:10B963003FAAC004C005C006C00790188E12AAC81B
:10B97300C004C005C006C00790188E12AAC8D00321
:10B98300D002D001D000123FAAD003D002D001D000
:10B9930000123EB912DB3312AB958F448E438D42B6
:10B9A3008C419015ADE030E0087F747ED17D0D8031
:10B9B300057466FFFEFDAB44AA43A942A84112AB3E
:10B9C300328E478F4812AC7D85476985486A12B924
:06B9D300EC12AC767D537E
:10B9D900800B7BFF7ACA794712AC767D467F0112CC
:02B9E900D7ABDA
:10B9EB00227B017A187994127A037B017A18799465
:01B9FB002229
:10B65100E49018A7F09018A7E0FFC3648094844099
:10B661000302B70DEF3395E0FEC374049FFFE49E20
:10B6710012AB61FCE41241D8C004C005C006C0078A
:10B681009018A7E0FF3395E0FE900F7375F028EF57
:10B69100124A01EE75F028A42583F583E0FCE4123B
:10B6A10041D8D003D002D001D000123FAAE4FBFA66
:10B6B100797878431240B39018A31249C47566FF94
:10B6C1007567CA75684D9018A7E0FF3395E0F56975
:10B6D1008F6A9018A312498C8F6E8E6D8D6C8C6B56
:10B6E10012ABA9127A039018A7E0FEA2E71304FF98
:10B6F100EE30E0047D4380027D0612ABA9755A2D20
:10B7010012D3E29018A7E004F002B65690144BE071
:10B7110054FC706390188E7444F0A3743AF0A374CF
:10B7210020F09018A77407F09018A7E0FFC3648079
:10B731009480403C90144BE0FEA807088002C3139C
:10B74100D8FC30E0047F3180027F309018A7E0FD03
:10B751003395E0FCC3740A9DFDE49CFC748E2DF5C9
:10B761008274183CF583EFF09018A7E014F080B8CC
:10B77100E4901899F080337566FF7567CA7568594A
:10B7810090144BE0FF7C0030E4047D0180027D00D9
:10B791008C698D6AEF7E0030E5047F0180027F00B5
:10B7A1008E6B8F6C12ABA9127A0312ABA9755A2D4D
:10B7B1007D017F0312D3E212AC217006F53EF53F05
:02B7C1008042C4
:10B7C30012AB1912AC459018A31249C47E00900421
:10B7D300B8E0540F8E40F5417007FF7D707C4380C5
:10B7E30014E541640F45407005F540754110AC40C8
:10B7F300AD4112ABCC9018A31249A812AB348E3EC4
:02B803008F3F75
:10B805007566FF7567CA756867853E69853F6A1203
:10B81500ABA9127A0312ABA9755A2D7D4B7F030292
:02B82500D3E26C
:02A0F9008F3E98
:0FA0FB00E53E64116009E53E6412600302A19F17
:10A10A00E53E24EFF53FE4FF12E18D12AB3A7566A6
:10A11A002D12ABDB1298F1E53F75F024A42403F568
:10A12A0082E43405F583E412AC0812A3569018AA07
:10A13A00EF12AC0835F0FA7B01E0FD755A2DE4FF09
:10A14A0012D3E2E53EB4111D90144BE030E40B75D6
:10A15A004001754105754204802675400175410527
:10A16A00754210801B90144BE030E50B7540017569
:10A17A0041057542288009754001754105754234CB
:10A18A00AB40AA41A94212A373AB40AA41A94275A6
:02A19A00542D42
:03A19C0002A350CB
:10A19F00E53E24F3F53FFFC374049F12AB5DFB1242
:10A1AF00AAE812AC4FFAEBC39A500D9018A61249B9
:10A1BF00D00000000002A22612AAE812AC5AFFEB50
:10A1CF00D39F400C9018A61249D03F8000008047C3
:10A1DF00C37404953F12AB5DFFEAFDC3EF9DFDE431
:10A1EF009400FCE41241D3C004C005C006C007129E
:10A1FF00AAE812AC4FFF12AAE812AC5AC39FFDE4B3
:10A20F009400FC12AB1DD007D006D005D00412402D
:10A21F00B39018A61249C412AAE812AC1512AAE8F4
:10A22F002478F582E4340FF58312498C123EB590F1
:10A23F0018A61249A8123FAA12AAE812AC15123E8C
:10A24F00B99018A61249C412AAE82480F582E43402
:10A25F000FF583E0601804602424FE702D12AA9479
:10A26F00600640047F7E80027F2D8F40801C12AAE3
:10A27F009470047F7E80027F2D8F40800D12AA94F0
:10A28F0050047F7E80027F2D8F40E540647E600406
:10A29F00E4FF80027FFF12E18D12AB3A8540661218
:10A2AF00ABDB1298F112AAE82466F582E4340FF5BD
:10A2BF0083E412AAE7245BF9740F12A3569018AA2D
:10A2CF00EF12AAE7245BF9740F35F0FA7B01E0FD7A
:10A2DF0085405AE4FF12D3E2E4FFFEFDFC12AAA66A
:10A2EF0040089018A612498C80099018A612498C24
:10A2FF001241BDE4FBFA79207841124150500B75A1
:10A30F0066FF7567CA75686D80097566FF7567CAE0
:10A31F007568779018A612ABC012AAE82467F97473
:10A32F000F35F0756D01F56E896F12AC87127A03D8
:10A33F00E490189AF012AC8712A37312AC87854081
:06A34F00547F0212D7AB9F
:10A355002235F0FA7B0112F1C2C374149FFFE49E0B
:10A36500FE7C007D0612461F7D021246862212F1F2
:10A37500C2C3740D9FFFE49EFE7C007D0912461F3B
:08A385007D02124686AD07229D
:06AE9F008B3E8A3F894052
:10AEA500E92410F9E43AFA75550175561875579065
:10AEB500755801755918755A92755B01755C187549
:10AEC5005D9412E20F901890E0FEA3E0FF4E700B28
:10AED500A3E07002A3E0700302AFC9901892E0FCF2
:10AEE500A3E0FD12E533901896EEF0A3EFF0240EE3
:10AEF500FFEE12AAFF901896ECF0A3EDF0D394475D
:10AF0500EC94015009C3E0941712ABB0500C756670
:10AF1500FF7567CA75688102AFB6C3901897E0944C
:10AF25004412ABB0500C7566FF7567CA756884022C
:10AF3500AFB6D3901897E09427901896E094014007
:10AF45000B7566FF7567CA7568878065C390189726
:10AF5500E0947112ABB0500B7566FF7567CA7568E2
:10AF65008A804ED3901897E094F712ABB0400B75DA
:10AF750066FF7567CA75688D8037C3901897E0942A
:10AF85009E12ABB0500B7566FF7567CA75689080E9
:10AF950020D3901897E094CA12ABB0400B7566FFAA
:10AFA5007567CA75689380097566FF7567CA7568A0
:10AFB5009612ABE5127A0312ABE575542D7D027F2F
:10AFC5000112D7ABAB3EAA3FA94012ABEC755B02B1
:10AFD500755C01755D18755E9812B47112ABE575F7
:10AFE500542D7D227F0112D7AB90189212AAC8C0AA
:10AFF50004C005C006C00790189212AAC8D003D095
:10B0050002D001D000123FAAC004C005C006C00787
:10B0150090189012AAC8C004C005C006C0079018B1
:10B025009012AAC8D003D002D001D000123FAAD0F6
:10B0350003D002D001D000123EB912DB3312AB951A
:10B045008F448E438D428C419015ADE030E0147FE6
:10B05500787ED17D0D12ABFBE4FBFAF9783F123E09
:10B06500B980087466FFFEFD12ABFB12420C901806
:10B075008EEEF0A3EFF012AC7D90188E12AC361266
:10B08500ABE5127A0312ABE575542D7D5C7F0102A9
:02B09500D7AB37
:08B471008F588E578D568C5543
:10B47900E55A45597027901AB7F0A3F0901AB5F01C
:10B48900A3F0901AB3F0A3F0901AAFF0A3F0901ABA
:10B49900ABF0A3F0901AA9F0A3F002B5D090158DE6
:07B4A900E0F4700302B53B63
:10B4B000E0FF3395E0FEFDFC7B807AEE7936780084
:10B4C0001247EAAB58AA57A956A8551247CF8F6220
:10B4D0008E618D608C5FEC33501CE55A155A7002FA
:10B4E0001559E42562FFE5613484FEE560340CFD06
:10B4F000E55F342480317F007E847D0C7C24AB6248
:10B50000AA61A960A85FD31249154023055AE55ADC
:10B5100070020559E5629400FFE5619484FEE560E0
:10B52000940CFDE55F94248F628E618D60F55F85DC
:0BB530006258856157856056855F55A5
:10B53B00E47BE87A03F9F8AF58AE57AD56AC551229
:10B54B004875901AB91249C412AAD812ABB77B1816
:10B55B0012ABB9901AADEEF0A3EFF0E47B107A0EBC
:10B56B0012AADCE47B1812ABBA901AB312AAD1124E
:10B57B00ABB7901AB512AAD1AF03901AB7EAF0A3E2
:10B58B00EFF0AE59AF5A7C007D0712461F901AAEF2
:10B59B00E02FFF901AADE03ECF24A2CF34E0FE9017
:10B5AB001AB1F0A3EFF075660175671A7568AB7584
:10B5BB006901756A1A756BAF8E6CF56D7B017A1A22
:10B5CB0079A912D91BE55B14601E14606624027006
:10B5DB00747566FF7567CA756899901AAB12AC36AD
:10B5EB00901AA912AB55801F7566FF7567CA7568EF
:10B5FB00B3901AAF12AC36901AAB12AB55901AA986
:10B60B00E0F56DA3E0F56E12AC8E127A0312AC8EE0
:10B61B0012F1C2AB5CE55E2FF9E55D3EFA7566FF94
:10B62B007567CA7568A312AB4AA3E0F56DA3E0F585
:10B63B006E800F7566FF7567CA7568C212AB4A12CA
:05B64B00AC8E127A0331
:01B6500022D7
:02E772008D55C3
:10E77400AC07EC1241D89018A71249C4E555644679
:10E784006005E555B46628E4FBFAF9784012AC95C7
:10E794001240B37910784112AB8FE4FBFA79A07878
:10E7A400401240B3E4FBFAF97842123EB9800C12ED
:10E7B400AC95E4FBFAF978401240B39018A71249DB
:04E7C400C412AC953A
:01E7C800222E
:06D91B008B638A6489653C
:10D9210078BD7C1A7D017BFF7ACA79CC7E007F0CA1
:10D9310012454CAB69AA6AA96B740775F0D21247FC
:10D9410083D3E56D946DE56C64809481402C12ABBA
:10D951006E700CE56D646E7004E56C6401601BED26
:10D961004C7E0160047F6D80027F6EC312AC65AB9B
:10D9710069AA6AA96B12AC3E80C712AB6E700690A1
:10D981001ABE741DF0AB66AA67A968E4F5F01247E8
:10D9910083AB66AA67A9681246E824BDF582741AAA
:10D9A10035F0F583E0FF7E00D3E56D9F7480F86567
:10D9B1006C98400812AC6512AC3E80D512AC3EABFF
:0DD9C10063AA64A965E56C856DF0024783DB
:10BED3002530326420004C49535420454D50545969
:10BEE300002A004E6F205355004E6F20496E707527
:10BEF300747300472D466F7263657300496E7075E6
:10BF03007473004D656D2046756C6C00253032648A
:10BF1300004D454D2025644B2F25644B2C20256473
:10BF23002525004C4150532025642C205241544573
:10BF3300203130487A004C4150532025642C205244
:10BF4300415445203230487A004C415053202564F7
:10BF53002C2052415445203430487A0054656D708A
:10BF63002025332E32662046005265632054696DC6
:10BF7300653A2025322E316620487273005365736B
:10BF83007320417661696C3A20256400492F4F3A4A
:10BF930020412D2D2D2D20442D2D20462D2D0050BB
:10BFA3006F7765723A2025752525004E6F204C6109
:10BFB300707300436F6E7420256400474D54202531
:10BFC3002B303264004C6170486F6C6420253364FD
:10BFD30000302D36303A204E2F4100302D36303A86
:10BFE3002025312E3166005245444C4947485400C0
:10BFF30052543A2025312E326600312F383A2531FA
:10C003002E3266003630273A2025312E3266003331
:10C013003330273A25312E326600312F343A253119
:10C023002E326600402025312E31660047733A20B8
:10C0330025312E32660048503A204E6F2057740047
:0AC0430048503A2025312E316600E6
:03A5EF00011C014B
:10686E0090047EE493FF3395E0FE9004CB75F01216
:10687E00EF124A01EE75F012A42583F58322E0FE95
:10688E00A3E0FF9014A075F007124A01EE75F00711
:10689E00A42583F583E4F0FBFAF99014A475F007B0
:1068AE00EF124A01EE75F007A42583F583124A38DC
:1068BE009014A175F007EF124A01EE75F007A425AA
:1068CE0083F58322901F29124A2F90000812458BC0
:1068DE0075F007A4FFAEF090000A124A6190000412
:1068EE00E92FF9EA3EFA024A61E0FEA3E0FF9001C9
:1068FE00DB75F019124A01EE75F019A42583F583A4
:10690E00E0FCA3E0FD9001D975F019EF124A01EEFB
:10691E0075F019A42583F583E022901F29024A2FD2
:10692E00901465E0FF90047EE493FD3395E0FC90B7
:10693E0004CB75F012ED124A01EC227BFF90147A13
:10694E00124A387B007A0079002275610075620860
:10695E007563FF75640B7565A575662D7B7A7A0078
:10696E00E4FDFCFFFE22901898E475F0010246BC8F
:10697E007B017A0179C7900447E01313543FFF7EE1
:10698E0000901462E024FCFD901461E034FF22E0DC
:10699E00FCA3E0FDC4F8540FC868FFECC454F048E3
:1069AE00FE745D2FF58274053EF583E4F09014A01D
:1069BE0075F007ED124A01EC22900447E075F00CD9
:1069CE009001C7124A0112498C90046C1249C4906E
:1069DE000447E075F00C9001CB124A0112498C90DD
:1069EE0004701249C4900447E075F00C229000091F
:1069FE0012458BFF90188EE02FFFE433FE7C007D56
:106A0E000712461F90000A124A61E92FF9EA3EFA70
:106A1E0022C4F8540FC868FFE0C454F048FE744E08
:106A2E002FF974053EFA7B01227B017A0179C77535
:106A3E0060007561017F107E0222E4901465F07B88
:106A4E00017A0179C72235F0754D01F54E894F75E2
:106A5E0050007551102214FF90000802458B7B01E7
:106A6E007A147986901F2F124A387A1F792C901F2C
:106A7E0029024A38FF900447E0540375F0849001D0
:106A8E00C7124A01E5822FF582E5833EF5832290F7
:106A9E001898E0FEA3E0FFC32290147D124A3890AE
:106AAE001477124A3890147A024A387566FF756761
:106ABE00BF7568BE90158DE0FF3395E0F5698F6A5E
:106ACE007B01227BFF901474024A38124A2F740AFB
:106ADE002549F582E433F583229015AAE0F5FBE013
:106AEE00F5FC8F847566FF7567BF7568B6E024A0E8
:106AFE00F56AE434FFF5697B0122FFE433FE900072
:106B0E000602458B7BFF901477024A387B017A157B
:106B1E00793D7D807C002290044C12498C90044873
:106B2E001249A8C30249157566FF7567BF7568C817
:106B3E009015ACE0756900F56A7B012290000902A0
:106B4E00458B124B14A81E08124A26A81E08024A8C
:106B5E000D901496124A387A0379F590149D124AC4
:106B6E0038E490149CF090149BF090149AF09014CA
:106B7E0099F022EFF024FEFFE434FFFE9004E302CE
:106B8E004A2FC39DFFEE9CCF2401CF3400FEE0FCC4
:106B9E00A3E0FD9001C775F019024A017BFFE0FCEE
:106BAE00A3E0FD9014A475F007124A01EC22901494
:106BBE0065F090189A7401F02275F016124A01E0F1
:106BCE00FFA3E02275F028A42473F582E4340FF5B8
:106BDE0083E024FB22FAA3E0FB9001C9ED75F019C6
:106BEE00024A01E4F560F5617F107E0222900447AF
:106BFE00E0540375F084900247024A01124A2FEFC7
:106C0E009000070245FD901896E0FEA3E02212497F
:106C1E008C8F6C8E6B8D6A8C6922CD2FF563EE3D59
:106C2E00F5627D107C027F0222900447E09001D72E
:106C3E0075F01C024A0190147D024A382410F58228
:106C4E0074163EF58312498C9004480249C475F0BF
:106C5E0012A4244EF9740535F0FA7B0122E4901843
:106C6E0098F0A3F02290000EE0FF901463E0FCA3D6
:106C7E00E0FD9004BDE0FAA3E0FB227560007561B3
:106C8E00027F107E02227560007561047F107E0205
:106C9E0022755900755A0A7B917D027F0322124A92
:106CAE002FEF9000090245FDEF9000080245FDFC14
:106CBE00A3E0C39BFDEC9ACD2401CD3400CD2FFF74
:106CCE00ED3E22901AA8E0FF75F007A424A0F582ED
:106CDE00E43414F58322EF75F007A424A4F582E4BE
:106CEE003414F583124A38EF22CD2FF561EE3DF5BF
:106CFE00607F107E0222901465F090189B74022221
:106D0E00E4901824F0A3F02279207841E4FBFA02F3
:106D1E0040B3FF124A01E4F0A3F022901896E075FA
:106D2E00F004901614024A0190000A024A61900083
:106D3E0003024A612414F58274163EF583229015DF
:106D4E00E4E0C3940322E4901465F07B0122124028
:106D5E00B390182A0249C474FF9000080245B87512
:106D6E00F007A424A1F582E43414F58322E4900400
:106D7E009EF0A3F0900489F0A3F0227BFF7ABE79F7
:106D8E00F6755A2D7D24E4FF2212498C74FFFBFA0E
:106D9E00F9F8C302492BA804A905AA06AB07227B62
:106DAE00FF7A1C79257D2D2275F019024A01124AAF
:106DBE002FE94A4B22124B14A81E08024A26CF90E6
:106DCE0004A7F0A3EFF0229015C37428F022E0C4BC
:106DDE00F8540FC868FF227B017A1F790D227E00BE
:106DEE0012454C90189BE004F0229001C9E075F01A
:106DFE001622749B2FF58274183EF583E022124AF8
:106E0E00381B7A0079009003F92275F019A42583B6
:106E1E00F58302498C9000081245FD9004F2E0FFC4
