:1000A60053656C65637420447269766572005365A6
:1000B6006C65637420547261636B0053656C656391
:1000C600742056656869636C650053657373696F60
:1000D6006E730056696577204C61707300457261D6
:1000E600736520446174610053657373696F6E2094
:1000F60044657461696C00313020487A00323020E2
:10010600487A00343020487A0053656C6563742061
:1001160052617465005553205374616E6461726454
:10012600004D65747269630053656C656374205590
:100136006E697473004C617074696D6520486F6CEC
:1001460064004772617068205363616C6500547285
:1001560061636B204C656E677468004C6170205358
:10016600657474696E6773002D302E3520746F20A8
:10017600302E3573002D3120746F202B3173002DF6
:100186003220746F202B3273002D3520746F202B94
:100196003573002D313020746F202B3130730053AE
:1001A600686F7274203C31206D692C312E366B6D70
:1001B600004D656420312D356D692C312E362D3874
:1001C6006B6D004C6F6E6720352B206D692C382BBC
:1001D600206B6D00447269766572005665686963C6
:1001E6006C6500547261636B0053616D706C696E6F
:1001F60067205261746500457261736520536573AB
:1002060073696F6E73005061636B20536573736916
:100216006F6E7300474D54204F66667365740043D6
:100226006F6E747261737400556E697473004C61FD
:10023600702F5175616C2053657474696E67730015
:10024600466163746F72792044656661756C747378
:100256000053657474696E6773004C617073005166
:1002660075616C696679696E67004175746F637252
:100276006F7373202F2052616C6C79005365676D24
:10028600656E742054696D696E670044726976659F
:10029600005461636820262053706565646F0047CB
:1002A600617567657300472D466F72636573004716
:1002B600732026204C6F636174696F6E00496E70FF
:1002C6007574730044617461204D6F646500475016
:1002D6005320436F6D7061737300475053204C6F0A
:1002E600636174696F6E00436865636B20496E7065
:1002F600757473004F74686572204D6F6465730082
:100306005265636F72642044617461005669657753
:100316002053657373696F6E73004368616E67651A
:100326002053657474696E67730043757272656EE7
:100336007420537461747573004F74686572204637
:1003460065617475726573004D61696E204D656EE9
:100356007500594553004E4F002041726520596F74
:100366007520537572653F0020436C72205374618B
:1003760072742F46696E3F005357204D49534D41C5
:10038600544348002052656C6F6164205357004403
:100396005249564520534146454C59002020445564
:1003A6002073772025642E253032642064617461C1
:1003B60020256400202053552073772025642E25A0
:1003C6003032642064617461202564002A2053550C
:1003D600204E4F5420434F4E4E4543544544202A09
:1003E600005468697320756E69742062656C6F6E5F
:1003F600677320746F004C6F6164696E6700537495
:100406006F72696E670043616E63656C696E670043
:10041600030100FF43757272656E74205374617434
:1004260075730007FF00D9FFB21D04FF00E3FFD874
:10043600AD06FF00EEFF7B82000000000000000218
:10044600FF00FDFFDA2102FF0103FFDA2102FF01AF
:1004560009FFDA210000000000000002FF011BFF77
:10046600DC5802FF0127FFDC5800000000000000F6
:1004760007FF013BFFD95406FF0148FFD5B306FF2E
:100486000154FFDB330000000000000002FF016E94
:10049600FFDC2F02FF017BFFDC2F02FF0185FFDC63
:1004A6002F02FF018FFFDC2F02FF0199FFDC2F00D7
:1004B60000000000000002FF01A5FFDCA702FF010B
:1004C600B7FFDCA702FF01C9FFDCA70000000000A0
:1004D600000006FF01DAFFBF6706FF01E1FFBAEC85
:1004E60006FF01E9FFB72B06FF01EFFFD23504FF38
:1004F60001FDFFDA5106FF020CFFDDB107FF021A0C
:10050600FFD91E07FF0225FFD7F006FF022EFFDCEC
:10051600CC01FF02340103BD04FF0246FFDC0600E6
:1005260000000000000007FF0260FF4E2307FF02E5
:1005360065FF4E2307FF0270FF4E2307FF0282FF6F
:100546004E2307FF0291FF4E2307FF0297FF4E231C
:1005560007FF02A5FF4E2307FF02ACFF4E2307FF4E
:1005660002B5FF4E2307FF02C3FF4E230000000023
:1005760000000007FF02D4FF4E2307FF02E0FF4EF4
:100586002307FF02EDFF4E23000000000000000FCE
:100596000F0F0FFFFFFFFF0F0F0F0FFFFFFFFFCF25
:1005A600CFCFCFCFFFFFFEFC008FCFCFCFCFCFCFA8
:1005B600CFCFFFFEFEFCFCFEFFFF0F0F0F0F0F0F4E
:1005C6000FFFFFFEF800FFFFFFFF0F0F0FFFFFFFFC
:1005D600FF0F0F0FFFFFFEFC008FCFCFCFCFCFCF88
:1005E600CFCFFFFEFEFC0F0F0F0FFFFFFFFF0F0F1A
:1005F6000F0FFCFEFFFFCFCFCFCFCFCFFFFFFEFC0D
:10060600000000007F7F7FFF000000007F7F7F7F6C
:1006160003070F1F3F7F7B73613F7F7F7B7B7B7B66
:100626007B7B7B7F7F7F7F1F3F7F7F78787B7F7F92
:100636007E7C3F7F7F7F607F7F7F7F0000007F7FA4
:100646007F7F0000007F7F7F7F3F7F7F7B7B7B7B81
:100656007B7B7B7F7F7F7F000000007F7F7F7F002B
:100666000000001F3F3F7F7B7B7B7B7B7B7B7B7917
:1006760078FFFFFFFFFFFFFFFFFFFFFFFFFFFFFF0B
:10068600FFFFFFFFFFFFFFFFFFFFFFFFFFFFFFFF74
:10069600FFFFFFFFFFFFFFFFFFFFFFFFFFFFFFFF64
:1006A600FFFFFFFFFFFFFFFFFFFFFFFFFFFFFFFF54
:1006B600FFFFFFFFFFFFFFFFFFFFFFFFFFFFFFFF44
:1006C600FFFFFFFFFFFFFFFFFFFFFFFFFFFFFFFF34
:1006D600FFFFFFFFFFFFFFFFFFFFFFFFFFFFFFFF24
:1006E600FFFFFFFFFFFFFFFFFFFFFF00000000000F
:1006F60000000000000000000000000000000000F4
:1007060000000000000000000000000000000000E3
:1007160000000000000000000000000000000000D3
:1007260000000000000000000000000000000000C3
:1007360000000000000000000000000000000000B3
:1007460000000000000000000000000000000000A3
:100756000000000000000000000000000000000093
:100766000000000000FF0000000000000000000084
:1007760000000000C30000000000000000000000B0
:10078600000000E70000000000000000000000007C
:100796000000C30000000000000000000000000090
:1007A6000055AA0000000000000000000000000044
:1007B60000C3000000000000000000000000000070
:1007C600E70000000000000000000000000000C379
:1007D6000000000000000000000000000000FF0014
:1007E600406070787C7E7C7870604000000000007D
:1007F60000000000000000000000000000000000F3
:1008060000000000000000000000000000000000E2
:1008160000000000000000000000000000000000D2
:1008260000000000000000000000000000000000C2
:1008360000000000000000000000000000000000B2
:1008460000000000000000000000000000000000A2
:100856000000000000000000000002060E1E3E7EA2
:100866003E1E0E0602000000000000000000000010
:100876000000000000000000000000000000000072
:100886000000000000000000000000000000000062
:100896000000000000000000000000000000000052
:1008A6000000000000000000000000000000000042
:1008B6000000000000000000000000000000000032
:1008C6000000000000000000000000000000000022
:1008D60000000000060606060606060606060600D0
:1008E6000000000000000000000000000000000002
:1008F60000000000000000000000000000000000F2
:1009060000000000000000000000000000000000E1
:1009160000000000000000000000000000000000D1
:1009260000000000000000000000000000000000C1
:1009360000000000000000000000000000000000B1
:1009460000000000000000000000000000006060E1
:100956006060606060606060600000000000000031
:100966000000000000000000000000000000000081
:100976000000000000000000000000000000000071
:100986000000000000000000000000000000000061
:100996000000000000000000000000000000000051
:1009A6000000000000000000000000000000000041
:1009B6000000000000000000000000000000000031
:1009C60000000000000000006666666666666666F1
:1009D60066666600000000000000000000000000DF
:1009E6000000000000000000000000000000000001
:1009F60000000000000000000000000000000000F1
:100A060000000000000000000000000000000000E0
:100A160000000000000000000000000000000000D0
:100A260000000000000000000000000000000000C0
:100A360000000000000000000000000000000000B0
:100A460000FFFF000081C3E7FF000081C3E7FFFF4F
:100A5600FFFFFFFFFFFFFFFFFFFFFFFFFFFFFFFFA0
:100A6600FFFFFFFFFFFFFFFFFFFFFFFFFFFFFFFF90
:100A7600FFFFFFFFFFFFFFFFFFFFFFFFFFFFFFFF80
:100A8600FFFFFFFFFFFFFFFFFFFFFFFFFFFFFFFF70
:100A9600FFFFFFFFFFFFFFFFFFFFFFFFFFFFFFFF60
:100AA600FFFFFFFFFFFFFFFFFFFFFFFFFFFFFFFF50
:100AB600FFFFFFFFFFFFFFFFFFFFFF28142814289B
:100AC600142814281428142814281428142800007C
:100AD6000000000000000000000000000000000010
:100AE6000000000000000000000000000000000000
:100AF60000000000000000000000000000000000F0
:100B060000000000000000000000000000000000DF
:100B160000000000000000000000000000000000CF
:100B2600000028142814281428142814281428141B
:100B360028142814283E7F6363637F7E60607E7F6F
:100B46006363637F3E3C19436343193C60603C1911
:100B5600436343193C3E7F7F7F7F7F7E60607E7F5D
:100B66007F7F7F7F3E000000000000000000000045
:100B760000008080808080C06030180C18B0E04093
:100B8600000000000000000000000000000000005F
:100B9600000000000000000080C0C080000080C08F
:100BA600C0C0C0800080C0C0C0C08000C0C00000FF
:100BB600C0C000C0C0C0C000C0C0C0C0C08000C0AF
:100BC600C0C0C000C0C08000C0C00080C0C0C0C0DF
:100BD600C00000000000000000000000000000004F
:100BE600000000000000000080FCFE57AB55AB552E
:100BF600AB55ABFEFC060341404080808080800000
:100C060000000000000000000000000000000000DE
:100C160000FFFF1919FFFF007FFFC0C0E161007FE1
:100C2600FFC0F0FFFF007FFFC0C0FF7F00C0FFFFD7
:100C3600C000FFFF3C7CEFC700C0FFFFC000FFFF06
:100C46000F7CFFFF007FFFC0CCFC7C000000000093
:100C56000000000000000000000000000000081C6A
:100C66003663C160311B0E070607060723212040A5
:100C76004044444488888888081111111121222291
:100C8600424444000000000000F0F81898B8B00094
:100C9600F8F89898F8F000F0F89898B83000000046
:100CA6000000F0F89898B8300018F8F81800F0F836
:100CB6001898B8B000F8F8F080F8F800E0F0383886
:100CC600F0E000F8F800000000000000000000005E
:100CD600000000000000000000000000000000000E
:100CE60000000000000000000000000000000000FE
:100CF60000000101010101020202040404000000D7
:100D06000000000F1F18191F0F001F1F010101000F
:100D1600000C1D19191F0F00000000000C1D1919E9
:100D26001F0F00181F1F18000F1F18191F0F001F75
:100D36001F010F1F1F001F1F03031F1F001F1F1868
:100D46001818180000000000000000000000FCFC5D
:100D56000000000000F8FC0C0CFCF800F8FC0C0C81
:100D6600FCF800FCFCF0B81C0C000CFCFC0C00FCB5
:100D7600FC78E0FCFC00F8FC0CCCDCD800000000A1
:100D86000000000000000000000000E0F090D8C85D
:100D9600ACA49692CA4A7E3E3090905048282824A9
:100DA60024242424242444A4140C0404885020203D
:100DB600202020202020202040C04080000000006D
:100DC6000000008040201000E7E76666666600C304
:100DD600E76666E7C300E3E76666E7C30007070161
:100DE600C3E76660E6C7076660E7E760630787C034
:100DF600E3E7C68607E3E06060E0C0006060E0E02D
:100E0600606000000000E0BE0203C3E1713034768A
:100E1600E6C53554949494949494949494949494A8
:100E26001414010202C1E474343474E4C8081828A6
:100E360090783C1E0D8640203078FCFEFFFFFE7C3D
:100E460038003F3F06060600001F3F30303F1F00B8
:100E56003F3F061E3B3100000000193B33363E1C67
:100E66000000003F3F0000003F3F0C0C3F3F003FAB
:100E76003F061E3B310000003F3F0000000000001F
:100E86000001010103070E0C0C0E07030202020209
:100E9600020202020202020202020202020202012D
:100EA600070E0C0C0E07038242E1F0F8FCFEF9F087
:100EB600E04060F0F8FDFFFDF8F060000000000083
:100EC600000000000000000000000000000000001C
:100ED600000000000000000000000000000000000C
:100EE60000000000000000000000000000000000FC
:100EF60000000000000000000000000000000000EC
:100F060000000000000000000000000000000000DB
:100F160000000000000000000080C0E0F0F8F4E2ED
:100F2600C18080C0E1F3FFFFF3E1C0804020110BD8
:100F3600070301000000000000F0F03030F0E00090
:100F4600F0F03030F0E000F0F03030303000E0F01B
:100F56003030706000E0F03030706000000000F863
:100F66000404E4F43434746404F4F434343404F4DB
:100F7600F404040404F4F434343404E4F43434742B
:100F860064043434F4F434340404F800000000C07B
:100F9600E07070E0C0003030F0F03030000000004B
:100FA600000000000000000000000080402010004B
:100FB6000000003F3F03030301003F3F0F1F3B318B
:100FC600003F3F3333333000193B33333F1E0019A4
:100FD6003B33333F1E000000007F808099BBB3B3D4
:100FE600BF9E80BFBFB3B3B080BFBFB0B0B080BF3D
:100FF600BFB3B3B0809FBFB0B0B898808080BFBF8A
:10100600808080807F000000003F3F06063F3F0053
:1010160000003F3F0000000000000000008040206C
:101026003078FCFEFFFFFE7C3800000000F0F898E8
:1010360098B830001818F8F8181800E0F03838F0AA
:10104600E000F8F89898F8F0001818F8F818180062
:1010560000000080E078180000F8F89898981800CA
:1010660018F8F81800F8F8F080F8F80018F8F818EA
:1010760000F0F89898B83000F8F88080F8F800008A
:1010860000000000000000000000000000000080DA
:1010960040E0F0F8FCFEF9F0E04060F0F8FDFFFDFE
:1010A600F8F060000000000C1D19191F0F00000069
:1010B6001F1F0000001F1F03031F1F001F1F070F16
:1010C6001D180000001F1F00000000181E07010069
:1010D6000000001F1F0101010000181F1F18001F3C
:1010E6001F010F1F1F00181F1F18000C1D19191FA5
:1010F6000F001F1F01011F1F00000000000000005D
:101106000080C0E0F0F8F4E2C18080C0E1F3FFFFA8
:10111600F3E1C0804020110B07030100000000002E
:101126000000008060101010101010101010101029
:1011360010F000000000000000F070C00000000089
:1011460000000000000000000000000080C0C0E0B9
:10115600E0F0F07878787C7CFCFCFC7C7CFCFC7C09
:101166007CFCFC7C7C7C7878F0F0E0E0C0C0800001
:10117600000000000000F010101050501010101069
:101186001010101010F000000000000000E020A079
:101196006040603808F8000080C060384F010002E7
:1011A6000300000000000000000018438478C0809F
:1011B60000C0601F00FF000000000000000000806B
:1011C600E0F8FCFEFFFFFFFFFFFFFFFFFFC0C0DBF5
:1011D600DBC0E4FFFFFCF8C3C3F8FCFFFFC0C0DBC5
:1011E600DBDFFFFFFFFFFFFFFFFFFEFCF8F0E08005
:1011F6007F0087C0000000000000000000010CF323
:1012060086FC0000000000FFF700000000003E0121
:10121600FF111412131010101010101010101010CF
:10122600909090101010101312151110101010132A
:101236001214141C181010101E1F1F9FDFFF7F3F73
:101246001F1F1F1F1F1F1FDF23B9A535B5A5392176
:101256002121212139A5B535A5B923DF1F1F1F1F60
:101266001F1F1F3F7FFFDF9F171118141710101045
:101276009090901010101010101015131F1E1010C3
:101286001C1310101010101010101F00003040001A
:1012960040000000000000000705010302030000F3
:1012A6000000000000000000000000000080C0E018
:1012B60070381C0E0703010000000000000000004B
:1012C6007F7870717130111110363636363610113E
:1012D6001130717170787F0000000000000000007E
:1012E6000103070E1C3870E0C181000001000020D8
:1012F6001038280830000000000000000000000040
:101306000000000000FFFFFFFFFFFFFFFF000000DF
:101316001C1C1C000000FFFFFFFFFFFFFFFF00007B
:1013260000FFFFFFFFFFFFFFFF0000001C1C1C006B
:101336000000FFFFFFFFFFFFFFFF000000FFFFFFB2
:10134600FFFFFFFFFF000000000000000000FFFF9E
:10135600FFFFFFFFFFFF3F3F3F3F3F3F3FFF0000D5
:10136600001C1C1C0000003F3F3F3F3F3F3F3F002B
:1013760000003F3F3F3F3F3F3F3F0000001C1C1C1B
:101386000000003F3F3F3F3F3F3F3F0000003F3FE1
:101396003F3F3F3F3F3F0000001C1C1C0000003F3A
:1013A6003F3F3F3F3F3F3F0000000000000000007E
:1013B600000000000000000000000000F0F0F0F067
:1013C600F0F0F0F0000000C0C0C0000000F0F0F047
:1013D600F0F0F0F0F0000000F0F0F0F0F0F0F0F0D7
:1013E600000000C0C0C0000000F0F0F0F0F0F0F027
:1013F600F0000000F0F0F0F0F0F0F0F00000000077
:101406000000000000F0F0F0F0F0F0F0F000000056
:1014160000000000000000000000000000000000C6
:1014260000000000000000000000000000000000B6
:10143600000000000000FFFFFFFFFFFFFFFF0000AE
:1014460000C1C1C1000000FFFFFFFFFFFFFFFF005B
:101456000000FFFFFFFFFFFFFFFF000000C1C1C14B
:10146600000000FFFFFFFFFFFFFFFF000000FFFF80
:10147600FFFFFFFFFFFF000000C0C0C0000000FF2D
:10148600FFFFFFFFFFFFFF0000000000000000005D
:101496000000000000000000000000C04040404086
:1014A60040404040404040404040C04040404040B6
:1014B600434343434343434340C04041414140408B
:1014C6004043434343434343C34040404343434372
:1014D60043434343404040C141414040404343436E
:1014E60043434343434040C043434343434343434F
:1014F600404040414141C04040434343434343434E
:101506004340404040C04040404040404040404052
:1015160040404040C0FF8080808080808080808006
:1015260080808080E1808080808080808080808054
:10153600808080F380808080808080808080808032
:101546008080E18080808080808080808080808034
:1015560080AAD58080808080808080808080808006
:1015660080E1808080808080808080808080808014
:10157600F38080808080808080808080808080E191
:101586008080808080808080808080808080FF0056
:101596000000F0F03030F0E000F0F030303000C005
:1015A600E07070E0C000F0F03030F0E000F0F000E5
:1015B60000F0F0000000003030F0F0303000E0F0D5
:1015C6003030F0E0000000000000808080800000E5
:1015D60000000000000000C0201008060100000006
:1015E6000000000000009F00000000000000000155
:1015F60006081020C00000000000000000008080E7
:101606008080000000000000000000003F3F071F30
:101616003B31003F3F333330003F3F06063F3F003C
:101626003F3F30303F1F0001033F3F0301000000F2
:101636000000003F3F0000001F3F30303F1F00000A
:101646000080F0FE0F01010FFEF0800020100C025A
:1016560001000000C02010D0D01020C00000000003
:101666003F000000C02010D0D01020C000000001B4
:10167600020C10200080F0FE0F01010FFEF080002A
:101686000000000000000000F8F80000000000E084
:10169600F03838F0E000F8F80000F8F800F8F8F054
:1016A60080F8F800F0F81818383000F8F88080F85C
:1016B600F80000000000003078F8FCFFE7C0C0C06A
:1016C600C0C0C0E7FFFCF878300000F80E03037BCB
:1016D6007B7B037B7B7B03838383838383037B7B8C
:1016E6007B037B7B7B03030EF800003078F8FCFF5E
:1016F600E7C0C0C0C0C0C0E7FFFCF87830000000FB
:1017060000001F1F18181818001F1F03031F1F00B3
:101716000F1F18181F0F001F1F010F1F1F000F1F7D
:1017260018181C0C001F1F01011F1F0000000000DD
:10173600000000000103030707070707070303016B
:1017460000000000003F3E3C3C3C3C3C1C040404C2
:101756000C0D0D0D0D0D0D0C0404041C3C3C3C3C05
:101766003C3E3F0000000000010303070707070790
:101776000703030100000000000000F00808C8E8A5
:101786006868E8C808E8E868686808E8E8080808D3
:1017960008E8E868686808C8E86868E8C808686823
:1017A600E8E868680808F000000000000000000093
:1017B60080F03C06063CF0800000000000000000BF
:1017C6000000000000000000000000000000000013
:1017D6000000000000000000000000000000000003
:1017E6000000000080F03C06063CF080000000008F
:1017F6000000000000FF0000337766667E3C007F35
:101806007F666660007F7F606060007F7F666660DF
:10181600003F7F606070300000007F7F00000000A6
:10182600FF0000000002020002070F0E1C1C1C1C19
:101836000E0F07020000020202020202028040208E
:10184600A2A2224282020200000002020282422278
:10185600A2A02040820202020202000002070F0E2E
:101866001C1C1C1C0E0F07020002020000000030A8
:1018760031F1F1313101E1F13131F1E101010101E2
:1018860001E1F131317161013131F1F1313101E1C2
:10189600F13131F1E101E1F13131706000F0F03008
:1018A60030300000000000000000000000000000D2
:1018B60000000000F01C0607F6F6F707F6F6F70636
:1018C60006060606060606F7F6F607F7F6F607060E
:1018D6001CF00000000000000000000000000000F6
:1018E60000000000000000000000003F3F00000074
:1018F6001F3F30303F1F0000000000193B33333FCD
:101906001E0000003F3F0000003F3F06063F3F002D
:101916001F3F30363E1E003F3F333330000000008D
:1019260000000000000000000000000000007F7CB6
:10193600787878787838080808181B1B1B1B1B1B3F
:10194600180808083878787878787C7F00000000D6
:10195600000000000000000000000000000000F889
:10196600FC1E0F070303030303030303030303031D
:101976000303030303030303030303030303030331
:101986000303030303030303030303030303030321
:101996000303030303030303030303030303030311
:1019A6000303030303030303030303030303030301
:1019B60003030303030303030303030303030303F1
:1019C60003030303030303030303030303030303E1
:1019D60003030303070F1EFCF8FFFF0000000000CF
:1019E60000000000000000000000000000000000F1
:1019F60000000000000000000000000000000000E1
:101A060000000000000000000000000000000000D0
:101A160000000000000000000000000000000000C0
:101A260000000000000000000000000000000000B0
:101A360000000000000000000000000000000000A0
:101A46000000000000000000000000000000000090
:101A560000FFFFFFFF000000000000000000000084
:101A66000000000000000000000000000000000070
:101A76000000000000000000000000000000000060
:101A86000000000000000000000000000000000050
:101A96000000000000000000000000000000000040
:101AA60000000000000000000000000000008000B0
:101AB600008000C0404040800000804080000080E0
:101AC6004040408000C00000804000FFFF1F3F787C
:101AD600F0E0C0C0C0C0C0C0C0C0C0C0C0C0C0C0B0
:101AE600C0C0C0C0C0C0C0C0C0C0C0C0C0C0C0C0F0
:101AF600C0C0C0C0C0C0C0C0C0C0C0C0C0C0C0C0E0
:101B0600C0C0C0C0C0C0C0C0C0C0C0C0C0C0C0C0CF
:101B1600C0C0C0C0C0C0C0C0C0C0C0C0C0C0C0C0BF
:101B2600C0C0C0C0C0C0C2C5C8C2C5C8C0DFD2D24E
:101B3600D2CDC0DFC4C4C4DFC0CFD0D0D0C8C0DFD0
:101B4600C2C5C8D0C0FFFF000000000000005F0053
:101B560000000E000E00247E247E24242A7F2A12F2
:101B6600261608343236495926500000000E003E2B
:101B760041410000000041413E2A1C3E1C2A080843
:101B86003E08080000004030080808080800000069
:101B9600400020100804023E4549513E00427F4065
:101BA60000724949494622494949361814127F109C
:101BB6002F494949313E49494932017109050336E0
:101BC60049494936264949493E0000363600000053
:101BD6002636000018244200001414140000422483
:101BE600180002015109063E415D553E7C12111254
:101BF6007C7F494949363E414141227F4141413E30
:101C06007F494949417F090909013E4149493A7FCE
:101C16000808087F00417F41002040413F017F08BE
:101C26001422417F404040407F027C027F7F020CAD
:101C3600307F3E4141413E7F090909063E415161DF
:101C46007E7F09192946264949493201017F01014A
:101C56003F4040403F1F2040201F3F403E403F4105
:101C6600221C2241010678060161514945437F4104
:101C76004100000204081020000041417F301C078B
:101C86001C3040404040400102040000345454548B
:101C9600787F444444383844444448384444447F74
:101CA6003854545458087E090902185454543C7F39
:101CB6000808087000047D40002040443D007F1065
:101CC600384400007F4000007C047C04787C0404D7
:101CD600047838444444387E1212120C18242464C2
:101CE600587C040404084854545424043F444424AF
:101CF6003C4040403C0C3040300C3C4038403C447A
:101D060028102844004C50503C645454544C083E0F
:101D160041410000007F00000041413E08040202EC
:101D260004020000000000000000000000000000A7
:101D36000000000000FFFF00000000000033330039
:101D4600000000001E1E001E1E0000000000000015
:101D5600000030FEFE3030FEFE30031F1F03031F5F
:101D66001F0378FCCCFFFFCCCC8C0C0C0C3F3F0C3B
:101D76000F070E1F1BDFFE7C1F07303C0F1F3F3671
:101D86003E1C1CBEF7E3F73E9C800F1F39391F0F20
:101D96003F3B000006C6FE7C00000000000000007D
:101DA60000000000FCFE0703000000000F1F383093
:101DB600000000000307FEFC0000000030381F0F83
:101DC6000000CEDEF0FEFEF0DECE1C1E031F1F035B
:101DD6001E1CC0C0C0FCFCC0C0C00000000F0F002D
:101DE60000000000000000000000000000002C1CA5
:101DF600000000C0C0C0C0C0C0000000000000005D
:101E0600000000000000000000000000303000006C
:101E16000000000000C0F03C0F03303C0F03000040
:101E26000000F8FE07030307FEF8071F38303038B6
:101E36001F0700181C0EFFFF0000000030303F3F58
:101E460030300C0E0783C3E77E3C3C3E37333130DF
:101E560030300C0EC7C3C3E7FE3C0C1C383030399B
:101E66001F0F00C0F03C0FFFFF0007070606063FE6
:101E76003F06FFFF636363E3C380183830303038B2
:101E86001F0FFCFEC76363E7C6800F1F383030386C
:101E96001F0F030303C3F37F1F07303C1F07010017
:101EA60000003CFEE7C3C3E7FE3C0F1F3930303964
:101EB6001F0F7CFEC78383C7FEFC183831313138CB
:101EC6001F0F000000303000000000000003030078
:101ED600000000008E8E8E0000000000110F07002B
:101EE600000080C0E070381C0C00000103070E1CC7
:101EF6001800303030303030303003030303030332
:101F06000303000C1C3870E0C08000181C0E070389
:101F160001001C1E0686C6FE7C0000003737010045
:101F26000000FEFF03F3FB1BFFFE1F3F3033373677
:101F36003733F8FC0E07070EFCF83F3F0303030395
:101F46003F3FFFFFC3C3C3E7FE9C3F3F30303038FF
:101F56001F0FFCFE070303070E0C0F1F3830303827
:101F66001C0CFFFF03030307FEFC3F3F30303038F5
:101F76001F0FFFFFC3C3C3C3C3033F3F303030301F
:101F86003030FFFF6363636303033F3F00000000DD
:101F96000000FCFE070383878E8C0F1F383031311B
:101FA6003F1FFFFFC0C0C0C0FFFF3F3F0000000053
:101FB6003F3F000303FFFF0303000030303F3F3085
:101FC600300000000303FFFF03031C3C30303F1FBB
:101FD6000000FFFFF0381C0E07033F3F03070E1CEF
:101FE6003830FFFF0000000000003F3F3030303047
:101FF6003030FEFF3EF8F83EFFFE3F3F003F3F0019
:102006003F3FFFFF3CF0C000FFFF3F3F0000030FD4
:102016003F3FFCFE07030307FEFC0F1F3830303836
:102026001F0FFFFF838383C7FE7C3F3F0101010132
:102036000000FCFE07030307FEFC0F1F38363E1C9C
:102046003F37FFFF838383C7FE7C3F3F03070F1D98
:1020560038303C7EE7C3C3C78E0C0C1C3830303991
:102066001F0F030303FFFF0303030000003F3F00AE
:102076000000FFFF00000000FFFF0F1F3830303860
:102086001F0FFFFF80000080FFFF00030F3C3C0F87
:102096000300FFFF00FFFF00FFFF0F3F3F07073F63
:1020A6003F0F071F3CF0F03C1F07383E0F03030F9E
:1020B6003E380F7FF8C0C0F87F0F0000013F3F0198
:1020C6000000030383E3FB3F0F07383E3F33303006
:1020D60030300000FFFF0303000000003F3F3030B8
:1020E6000000030F3CF0C000000000000000030FDA
:1020F6003C3000000303FFFF0000000030303F3F8C
:10210600000080C0E07070E0C080030100000000A5
:102116000103000000000000000030303030303095
:102126003030000003070E1C1800000000000000FD
:102136000000607030303030F0E01E3F3333333310
:102146003F3FFFFF70303070E0C03F1F38303038FF
:102156001F0FC0E070303070E0C00F1F38303038CD
:102166001C0CC0E070303070FFFF0F1F3830301885
:102176003F3FC0E070303070E0C00F1F3B33333359
:102186003B1B0060FEFF6363030000003F3F00004F
:102196000000E0F030303030F0E0193B3333333BB1
:1021A6001F0FFFFF70303070E0C03F3F000000009F
:1021B6003F3F000060ECEC0000000000003F3F00E5
:1021C600000000000060ECEC0000183830303F1FC3
:1021D6000000FFFFC0E0703818003F3F03070E1CE9
:1021E6003830000000FFFF0000000000001F3F30F5
:1021F6000000F0E070F0E070F0E03F3F003F3F008D
:102206003F3FF0E070303070E0C03F3F000000001C
:102216003F3FC0E070303070E0C00F1F38303038BC
:102226001F0FF0F030303030F0E03F3F0303030380
:102236000301E0F030303030F0F001030303030314
:102246003F3FF0F0E0703070E0C03F3F000000001C
:102256000000E0F0303030307060193B33333333F8
:102266003F1E6060FEFE6060600000001F3F303071
:102276003000F0F000000000F0F00F1F383030188A
:102286003F3F70F0C00000C0F07000030F3C3C0FF1
:102296000300F0F000C0C000F0F00F3F381F1F38F9
:1022A6003F0F60E0C08080C0E06030381D0F0F1D1A
:1022B6003830F0F080000080F0F0183933333339CD
:1022C6001F0F30303030B0F0F070383C3E373331CD
:1022D600303000C0FE3F0303000000001F3F3030D7
:1022E6000000000000FEFE0000000000001F1F00AE
:1022F6000000000003033FFEC000000030303F1F17
:10230600000080C06060C0C06020000000000000C7
:1023160000007EFFC3C3FF7E00C6FFFFC000E6F3DA
:10232600FBDBDFCE66E7C3DBFF763C3E33FFFF30E9
:10233600DFDFDBDBFB737EFFDBDBFB700003E3FB36
:102346003F0F66FFDBDBFF66CEDFDBDBFF7EC0C059
:102356000000FEFF0303FFFE010303030301000663
:10236600FFFF000000030303030086C7E3733F1E5D
:1023760003030303030386873333FFCE01030303FB
:102386000301F0FCCFFFFFC0000000030300BFBF46
:102396003333F3E3010303030301FEFF3333F7E6AD
:1023A6000103030303010383E3FB3F0F0003030061
:1023B6000000CEFF3333FFCE0103030303019EBFAC
:1023C6003333FFFE010303030301FFFF0000000098
:1023D60003030303030300000000000000000000E5
:1023E60000001818181818181818181818FFFF18C9
:1023F6001818FF1F1F1F1FE1E1E1E1FF03020202A0
:1024060002030303030300000000000000000000B5
:1024160000000000000000000000000000000000B6
:1024260000000000000000000000000000000000A6
:102436000000000000000000000000000000000096
:102446000000000000000000000000000000000086
:102456000000000000000000000000000000000076
:102466000000C0C1C1810140C30103C00280C24156
:10247600C60106C00780C7410500C5C1C481044026
:10248600CC010CC00D80CD410F00CFC1CE810E40D6
:102496000A00CAC1CB810B40C90109C00880C841E6
:1024A600D80118C01980D9411B00DBC1DA811A4056
:1024B6001E00DEC1DF811F40DD011DC01C80DC4126
:1024C6001400D4C1D5811540D70117C01680D64156
:1024D600D20112C01380D3411100D1C1D081104066
:1024E600F00130C03180F1413300F3C1F281324056
:1024F6003600F6C1F7813740F50135C03480F44126
:102506003C00FCC1FD813D40FF013FC03E80FE41D5
:10251600FA013AC03B80FB413900F9C1F8813840E5
:102526002800E8C1E9812940EB012BC02A80EA4155
:10253600EE012EC02F80EF412D00EDC1EC812C4025
:10254600E40124C02580E5412700E7C1E681264055
:102556002200E2C1E3812340E10121C02080E04165
:10256600A00160C06180A1416300A3C1A281624055
:102576006600A6C1A7816740A50165C06480A44125
:102586006C00ACC1AD816D40AF016FC06E80AE41D5
:10259600AA016AC06B80AB416900A9C1A8816840E5
:1025A6007800B8C1B9817940BB017BC07A80BA4155
:1025B600BE017EC07F80BF417D00BDC1BC817C4025
:1025C600B40174C07580B5417700B7C1B681764055
:1025D6007200B2C1B3817340B10171C07080B04165
:1025E600500090C191815140930153C05280924155
:1025F600960156C057809741550095C19481544025
:102606009C015CC05D809D415F009FC19E815E40D4
:102616005A009AC19B815B40990159C058809841E4
:10262600880148C0498089414B008BC18A814A4054
:102636004E008EC18F814F408D014DC04C808C4124
:10264600440084C185814540870147C04680864154
:10265600820142C043808341410081C18081404064
:1092430043150A0000004E05140000000000000052
:109253000000000000000042041A000042019500D3
:10926300004204C500A04215A10000411435FE557B
:109273001441000000000000000000000000000096
:10928300000000000000004204CA000042019300F5
:10929300004214330000420492000041000E0041DA
:1092A30015B4004204C800004100340047141D00F7
:1092B30000000000000043141A00000041000003F6
:1092C30041069C0041069D00411593144104C700CB
:1092D3004106BA01440170FFFFFFFF44018FFFFF06
:1092E300FFFF420135FFFF420137FFFF4D0001FF42
:1092F30000A60103B0000000000114704D000FFF31
:1093030000B40103B0000000000114704D06ADFF6E
:1093130000C10103B0000000000114704D15B5FF3A
:1093230000D001140D000000000114704B143653DB
:10933300657373696F6E202323004D146301143624
:109343000104B8000000000103CA4D04B80114363B
:109353000115B500000000FF04294D069EFF010F13
:109363000103B000000000FF04454D0174FF012E0E
:109373000103B000000000FF04614D03BDFF016164
:109383000103B000000000FF04764D1594FF01486F
:109393000103BD00000000FF04924D040DFF0154C2
:1093A3000103BD00000000FF04BC4D03B0FF0257E2
:1093B30001140D00000000FF04D84D1456FF02CA2B
:1093C30001140D00000000FF052C4D0163FF02FA9C
:1093D30001140D00000000FF0579602A013901FF27
:1093E300030601145606FF0312FF000301FF0320C7
:1093F3000103B006FF0330FF7EBE01FF033F0101FF
:1094030063000000000000004D140DFF034E011423
:109413000D0000000001013955001E06FF0358002E
:10942300000001FF035C00000000000000000000DA
:109433005515C207FF0358FFAA1107FF035CFFD7A7
:10944300AD000000000000004D15A3FF035F000006
:10945300000000000001001E4D1424FF036E0000F5
:1094630000000000000115C2470197010000000140
:1094730014244D0182000000000000000000FF01E1
:0294830001974F
:10C28E00900418E493FF3395E0FE9004A075F0122D
:10C29E00EF1241B8EE75F012A42583F5830241E644
:10C2AE007E00123D039017F9E475F001023E73E42F
:10C2BE00FFFEFDFC12415FD30240CC12414374FFDE
:10C2CE00FBFAF9F8023F869004987B007A00790019
:10C2DE000241EF9017F9E0FEA3E0FFC3229004188D
:10C2EE00E493FD3395E0FC9004A075F012ED12413D
:10C2FE00B8EC22E49017F9F0A3F0227B01E4F540AC
:10C30E0075412D22900007123DB4755800755901E4
:10C31E00229004980241E625E02414F582E43405C7
:10C32E00F58322749E2FF58274013EF583227C00E4
:10C33E007D64AE02023DE87B017A01799E755F0055
:01C34E0022CC
:105C4900E49017F8F090181404F075840F75FFDECE
:105C590075FFAD12D46812CD8DE49004A7F09004BD
:105C690095F0900494F09004A604F0E49004A8F050
:105C7900A3F0900496F0A3F09004B1F090049FF083
:105C89009004B0744EF090049EF09004AD12C2D806
:105C99009004AA1241EF90049B1241EF90049812CC
:105CA90041EF0B7A0679BB9004A31241EF7A0A7986
:105CB900F59004B51241EF7A0F79CF9004A0124103
:105CC900EF7A1179EC9004B21241EF7A04799412C7
:105CD90061E17B017A0479A61261E17F007E961267
:105CE900DBDC12DE2E752801752914752A097B0162
:105CF9007A14793112BE8512ABB7126769D2AF1225
:105D0900C1CCD2FEE4FF12CE9730D821755E007562
:105D19005F0F7560FF75610575629575632D7B7100
:105D29007A007D097C007F037E00128A4C30D820DE
:105D39009017E7124187000AFC809017E712C2BD4D
:105D4900400E9017E712C2C99017E712417B80EA0B
:105D590012C30112C28EE412C3127B911261C69062
:105D6900069CE0701412C2B3C39017FAE094039032
:105D790017F9E06480948040DA90069CE06008128C
:105D8900C3187B701261C6901576E0FFA3E09017E7
:105D9900FBCFF0A3EFF0901578E0FFA3E09017FD9B
:105DA900CFF0A3EFF0E4FF12CE9790069CE0FF122C
:105DB9008D05EF703A7BFF7A03797E1261F87BFFDC
:0F5DC9007A03798AE4F55375542D7F0212BDA138
:105DD8009017EB124187002255109017EB12C2BDA5
:105DE800400E9017EB12C2C99017EB12417B80EA64
:105DF800E4FF12CE977BFF7A037995E41261F87578
:105E080064FF7565037566A2756700756802756934
:105E180000756A15756B00756C081261D112C30B99
:105E28007F0212BBD590069CE0602F7564FF7565F4
:105E3800037566BA9017FBE0FAA3E0FBFF12C33CB8
:105E48008E678F68AF0312C33C8C698D6AA3E0F537
:105E58006BA3E0F56C1261D180067BFF7A0379D2DF
:0B5E680012C30B7F0312BBD530D825FE
:105E73009017EF12418700112A88E4FFFEFDFC9082
:105E830017EF12C2C2400E9017EF12C2C99017EF5C
:055E930012417B80E5D7
:105E9800E4FF12CE977BFF7A0379E712C30BFF1258
:105EA800BBD57A15790D12C3097F0212BBD57A15B5
:105EB800792112C3097F0312BBD512C3457560034C
:105EC8007F107E0212CAB790069CE0607012C28EE4
:105ED800900007E4123DB412C298900008740312AF
:105EE8003DB412C30112C2E19410EE648094825052
:105EF8002512C331E0FF12C2EB12C2A39017FAE0D9
:105F08002409FD9017F9E034008D82F583EF123DE6
:105F1800B412C2B380CF7558027559127B981261BA
:105F2800ED90157DE030E4047F0080027F0112C20D
:105F3800EB12C2A3EF12C3127B941261ED12C301DC
:105F480012C2E19404EE6480948050287C007D287D
:105F5800123DD6749E2FF974013EFA7B01C001747C
:105F68002F2FF9740F3EA801FC7D01D0017F281264
:105F7800C2AE80CC12C30112C2E19402EE648094D6
:105F88008050287C007D24123DD674CE2FF97402EF
:105F98003EFA7B01C00174CC2FF974043EA801FCC1
:0E5FA8007D01D0017F2412C2AE80CC30D825FE
:105FB6009017F3124187000BAC48E4FFFEFDFC90FE
:105FC60017F312C2C240109017F312C2C99017F30A
:055FD60012417B80E593
:105FDB00C2FEE4FF12CE97752801752904752A922B
:105FEB007B017A14793312B63312C3457560017F86
:105FFB00107E0212CAB79001A1E0540F24FC600C72
:10600B00240270109015937414F0800E90159374F5
:10601B0028F08006901593740AF09001A2E090048A
:10602B00C7F0901409E0FCA3E0FD7F017E0012D0C5
:10603B00F79004C7E030E7034403F012C30112C228
:10604B00E19410EE64809482500D12C331E4F09011
:10605B0017F912C2B780E7E4901435F07D03FF12F5
:02606B006202CF
:10606D0090157DE030E4047F0080027F01EF702009
:10607D00C3900521E094F0900520E0940040077D49
:10608D00067F0112620230DE07E4900520F0A3F0D6
:10609D00E49017F7F09017F7E0FFC39406504374A0
:1060AD00017E00A807088005C333CE33CED8F9FF93
:1060BD00ADD8EF5D60249017F7E0FD12C325E0FE2B
:1060CD00A3E0C39409EE940040057F011262029093
:1060DD0017F7E012C325E4F0A3F09017F7E004F0F2
:0A60ED0080B312C31FE94A4B60178D
:1060F70012C31F8B228A23892412C2D5AB22AA235B
:07610700A924E4FF12266643
:0B610E009004AA1241E6E94A4B60230E
:106119009004AA1241E68B228A2389247B007A0003
:1061290079009004AA1241EFAB22AA23A9247F0186
:03613900122666C5
:10613C009015A1E07002A3E0700302606DE490156D
:10614C00A1F0A3F090069DE0FFB4F018901435F088
:10615C00E4901433F0A3F090000E74FFF0FB7A037C
:10616C0079FC801290069DE0FFB4F115901435F087
:10617C007BFF7A04790412DD5AE490069DF00260EC
:10618C006D90069DE0FF64F2600302606D90143523
:10619C00EFF07BFF7A04790C12DD5A901432E02474
:1061AC00FBFD901431E034FFFC7B01E4FFFE12CBCD
:0761BC00E6E4F58443EF0166
:0361C30002606D0A
:1061C6007D027F0312B32912DADB227B017A17796B
:1061D600FF126D127B017A1779FF227F007E847D84
:1061E600037C0012991A227D027F0312B32912DA68
:0C61F600DB22F55375542DFF12BDA122D1
:0EDADB0090150BE070FA12C31FE94A4B601D54
:10DAE90012C31F9018151241EF90069C7401F01291
:0DDAF900C2D59018151241E6E4FF12266612
:01DB060022FC
:0300000002CC77B8
:0CCC7700787FE4F6D8FD75818002CCBE09
:10B532002530326420004C49535420454D50545913
:10B54200002A004E6F205355004E6F20496E7075D1
:10B55200747300472D466F7263657300496E707590
:10B562007473004D656D2046756C6C002530326435
:10B57200004D454D2025644B2F25644B2C2025641E
:10B582002525004C4150532025642C20524154451E
:10B59200203130487A004C4150532025642C2052EF
:10B5A200415445203230487A004C415053202564A2
:10B5B2002C2052415445203430487A0054656D7035
:10B5C2002025332E32662046005265632054696D71
:10B5D200653A2025322E3166204872730053657316
:10B5E2007320417661696C3A20256400492F4F3AF5
:10B5F20020412D2D2D2D20442D2D20462D2D005066
:10B602006F7765723A2025752525004E6F204C61B3
:10B61200707300436F6E7420256400474D542025DB
:10B622002B303264004C6170486F6C6420253364A7
:01B632000017
:03948500011C01C6
:10561A00900418E493FF3395E0FE9004A075F0120D
:10562A00EF1241B8EE75F012A42583F58322E0FE4D
:10563A00A3E0FF90147075F0071241B8EE75F007F9
:10564A00A42583F583E4F0FBFAF990147475F00746
:10565A00EF1241B8EE75F007A42583F5831241EFE6
:10566A0090147175F007EF1241B8EE75F007A42592
:10567A0083F58322901CB31241E6900008123D4242
:10568A0075F007A4FFAEF090000A124218900004C9
:10569A00E92FF9EA3EFA024218E0FEA3E0FF900180
:1056AA00B275F0191241B8EE75F019A42583F58385
:1056BA00E0FCA3E0FD9001B075F019EF1241B8EEDD
:1056CA0075F019A42583F583E022901CB30241E604
:1056DA007BFF90144A1241EF7B007A0079002290F6
:1056EA00185CE475F001023E737B017A01799E90A1
:1056FA00041CE01313543FFF7E00901432E024FC94
:10570A00FD901431E034FF22755E00755F08756004
:10571A00FF75610A7562C175632D7B7A7A00E4FDB3
:10572A00FCFFFE22FF900418E493FD3395E0FC9001
:10573A0004A075F012ED1241B8EC22E0FCA3E0FDE2
:10574A00C4F8540FC868FFECC454F048FE74312FF3
:10575A00F58274053EF583E4F090147075F007ED58
:10576A001241B8EC22900009123D42FF901852E013
:10577A002FFFE433FE7C007D07123DD690000A120B
:10578A004218E92FF9EA3EFA2290041CE075F00C5F
:10579A0090019E1241B812414390044112417B90FC
:1057AA00041CE075F00C9001A21241B8124143901A
:1057BA00044512417B90041CE075F00C22C4F85495
:1057CA000FC868FFE0C454F048FE74222FF974052C
:1057DA003EFA7B0122E4901435F07B017A01799E2E
:1057EA002235F0754B01F54C894D754E00754F10F9
:1057FA00227B017A147956901CB91241EF7A1C79EE
:10580A00B6901CB30241EFFF90041CE0540375F0FC
:10581A008490019E1241B8E5822FF582E5833EF518
:10582A00832290185CE0FEA3E0FFC32290144D127D
:10583A0041EF9014471241EF90144A0241EF7B0165
:10584A00755F007560017F107E022214FF900008C8
:10585A00023D427564FF7565B675661D90155DE07B
:10586A00FF3395E0F5678F687B01221241E6740ADF
:10587A002547F582E433F5832290157AE0F5FBE0BB
:10588A00F5FC8F847564FF7565B6756615E024A00E
:10589A00F568E434FFF5677B0122FFE433FE9000EC
:1058AA0006023D4290042112414390041D12415FB9
:1058BA00C30240CC7564FF7565B675662790157C82
:1058CA00E0756700F5687B0122900009023D4212EB
:1058DA0042CBA81E081241DDA81E080241C47BFF64
:1058EA009014440241EF9014661241EF7A0379CA88
:1058FA0090146D1241EFE490146CF090146BF090D8
:10590A00146AF0901469F022EFF024FEFFE434FFE9
:10591A00FE9004B80241E6C39DFFEE9CCF2401CF5E
:10592A003400FEE0FCA3E0FD90019E75F0190241EF
:10593A00B87BFFE0FCA3E0FD90147475F0071241F8
:10594A00B8EC2275F0161241B8E0FFA3E02275F018
:10595A0028A42447F582E4340FF583E024FB22FAD5
:10596A00A3E0FB9001A0ED75F0190241B8E4F55FE0
:10597A00F5607F107E02227BFF9014470241EF9070
:10598A00041CE0540375F08490021E0241B890187A
:10599A005AE0FEA3E02290041CE09001AE75F01CD0
:1059AA000241B87B017A15790D7D807C002224D3CF
:1059BA00F58274153EF58312414390041D02417B22
:1059CA0075F012A42422F9740535F0FA7B0122CD70
:1059DA002FF562EE3DF5617D107C027F0222E49094
:1059EA00185CF0A3F02290000EE0FF901433E0FC64
:1059FA00A3E0FD900492E0FAA3E0FB22755F007534
:105A0A0060027F107E022275580075590A7B917DCB
:105A1A00027F0322EF900008023DB4FCA3E0C39B7F
:105A2A00FDEC9ACD2401CD3400CD2FFFED3E22901E
:105A3A001A6CE0FF75F007A42470F582E43414F5BB
:105A4A008322EF75F007A42474F582E43414F583F5
:105A5A001241EFEF22CD2FF560EE3DF55F7F107E0C
:105A6A00022290144D0241EFE49017E7F0A3F022CE
:105A7A001241E6E4900007023DB490047EE4F0A3EC
:105A8A00F0A3F0A3F0221241E6EF900009023DB420
:105A9A00FF1241B8E4F0A3F02290185AE075F0041E
:105AAA009015D70241B890000A02421890000302EA
:105ABA00421824D7F58274153EF5832212386A906B
:105ACA0017ED02417B74FF900008023D6F755F007D
:105ADA007560047F107E022275F007A42471F58296
:105AEA00E43414F58322E4900473F0A3F090045E86
:105AFA00F0A3F0227BFF7AB5795575552D7D24E404
:105B0A00FF2212414374FFFBFAF9F8C30240E21282
:105B1A0041438F6A8E698D688C677B01227BFF7A8D
:105B2A001579957D2D2275F0190241B81241E6E9E1
:105B3A004A4B221242CBA81E080241DD901435F0CE
:105B4A0090185F740222E0C4F8540FC868FF227EDE
:105B5A0000123D0390185FE004F0229001A0E07566
:105B6A00F01622E4901435F07B0122745F2FF5823F
:105B7A0074183EF583E0221241EF1B7A00790090F7
:105B8A0003CE2275F019A42583F5830241431241FD
:105B9A00E6740A2554221241E6740A254C22E0755D
:105BAA00F01CA4249EF9740122E0FEA3E0FF7C000D
:105BBA00023DD67403F07C007D15023DD6E4FBFA63
:105BCA007920784102386A900008123DB49004C7DF
:105BDA00E022F557A3E0F5582275F007A4F582856F
:105BEA00F08322900007023D42901852E0FF90187D
:105BFA0057E022E4900479F0900464F022124143C1
:105C0A0090042102417B90185E7401F0227B017A94
:105C1A000379B022E4F0FBFAF9A30241EF901435BC
:105C2A007418F022900482E4F0A322900482E0FE29
:0F5C3A00A3E0780222AF84E4F58490157AE0228B
:10B103007B017A18795B12597712CAB7E4901A6CEB
:10B11300F0901A6BF0901A6BE0FFC3941540030292
:10B12300B1DF75F019EF90185B1241B8E0FEA3E0B0
:10B13300F47002EEF4700302B1D6901A6BE090182B
:10B143005D125971E0FEA3E0F47002EEF4700302A5
:10B15300B1D6901A6CE01259CA7564FF7565B5755E
:10B163006632901A6BE02401FFE433F5678F6812AF
:10B173006D12901A6BE090185F125B30124143C05E
:10B1830006C007901A6BE0901863125B30E0125B05
:10B19300DCE4F559901A6CE075F012A42425F974D7
:10B1A3000535F0755A01F55B895CD007D00612A20C
:10B1B300E0125A397406F07BFF7AC1790A125A4CAD
:10B1C3001259CA901A6CE0125AE21241EF901A6CAB
:10B1D300E004F0901A6BE004F002B118901A6CE0EE
:10B1E300FD9015BBF0D394035003E480069015BB88
:10B1F300E024FD9015BEF09015BBE070028002EDD7
:10B20300149015BDF09015BCF0125A39E4F0FBFA16
:0AB21300F9125A4C125AE20241EF00
:10620200151EA81EA605151EA81EA607E51E24F922
:02621200F51E77
:10621400E51C60307B017A14790D12580B1B7A004F
:106224007900901CB61241EF901CB91241EFE49032
:106234001CBEF0901CBDF0901CBCF0901CC0124120
:10624400EFE4F51CE51E2407F8E614700302636608
:106254000460030267621256D41258A87033900087
:1062640006123DB41256D4125AB0C003C002C00183
:106274001256D41258A8125BE3D001D002D00312F4
:106284003D42600D1256D49000067401123D6F8099
:10629400D312DE1C1256D41258D3B4FF0302642B5B
:1062A400E4FF12CE97125712128A4C1256D412419E
:1062B400F812DDE2C374149FFFE49EFE7C007D06A9
:1062C400123DD67D02123E3DA81EEFF6FD1256D4B5
:1062D4001241F875552DE4FF12C0411256D4125ADA
:1062E400B0123D29FFB403101256D4E4125A94E4B8
:1062F400125A1F900007804BEF640260030264C3CC
:106304001256D41258D3FF125BEDFEC39F4013EF15
:106314002402FDE433FCEED39DEC6480F874809891
:10632400403D1256D4125BED125A1F1258A8FFD3E7
:10633400940340091256D4125857FE70091256D4C9
:10634400900009E48016EF24FDFFEE14FEC39F5075
:1063540004AF0680001256D4900009EF123DB40237
:1063640064C3E51E2408F8E6700302676014700332
:1063740002651324FE70030264C914607224FE7063
:10638400030266D324046003026762901447125B1D
:1063940036600F1256D4C003C002C00190144702E5
:1063A40064071256D41258D3F47011125857D39468
:1063B400005003026762125ACF02642B1256D412A1
:1063C40058A87003026762125857FF1258D3FEC3CD
:1063D4009F50051256D48011EED39400400E1256ED
:1063E400D490000974FF123D6F125ACF0264C39017
:1063F400144D125B3660121256D4C003C002C001A1
:1064040090144D1241E602660D1256D41258D3F47C
:1064140070301258A8125855D39F40030267621275
:1064240056D47401125AD112585775F007A4FFAE0E
:10643400F0125AB090000112569A7D2D12C408022F
:1064440067621256D41258A8FF700302676212588A
:10645400D3FE125857FDC39EC394025039EF24FF54
:10646400FFE434FFFEED2401FDE433FCC3ED9FEEB5
:106474006480F8EC648098901CB3500A1241E612D0
:10648400585704FF80081241E61258A814FF125608
:10649400D4125A1E80291256D41258D324031258E7
:1064A400A4FDC3EF9D7480F86E9850131256D490D7
:1064B40000097401123D6F9000087401123D6F12BF
:1064C400A86502676290144A125B36602F1256D494
:1064D400C003C002C00190144A1241E689828A8333
:1064E400D001D002D0031258D9E94A4B7003026795
:1064F400621258E212580B7D030266891256D412B6
:106504005AB612580BE4901435F07D03026651908C
:106514001444125B36602F1256D4C003C002C0016B
:106524009014441241E689828A83D001D002D003B8
:106534001258D9E94A4B70030267621258E21258A2
:106544000B7D010266891256D4125AB0E94A4B7087
:10655400030267621256D4125AB0C003C002C001CB
:106564001256D4125857FF125BE3D001D002D00365
:10657400123D4224FE602D24FE700302668D24FE2B
:10658400700302665514605314700302661D2407D9
:1065940060030267621256D4EF12568A12580B7DBA
:1065A400010266891256D4125857125A7EE4901486
:1065B40035F0125684E94A4B601C1256D4C003C00D
:1065C40002C0011256D412569189828A83D001D016
:1065D40002D003125B3D7D010266891256D4125B20
:1065E40040901CB91241EF7B011258071258E21275
:1065F4005684E94A4B70030267621258E2C003C032
:1066040002C0011258E212569189828A83D001D0C5
:1066140002D0031242CB0267621256D4125AB61247
:10662400580B125684E94A4B601C1256E2C003C050
:1066340002C0011256D412569189828A83D001D0A5
:1066440002D0031242CBE4901435F07D01FF0266C0
:10665400CD12567EE94A4B601C1256D4C003C002C8
:10666400C0011256D412569189828A83D001D00275
:10667400D003125B3D1258E2E94A4B60061258E21D
:1066840012580B7D017F0080401256D49015A6123B
:1066940041EF12567EC003C002C0019015AD1241F5
:1066A400E69000041242481256D4C003C002C0014E
:1066B4009015AD1241E690000B1242487B017A1509
:0F66C40079A312580B7D017F00126202026762F8
:1066D300C2FDC2FE7BFF7A1179237D2D12C408907F
:1066E3001435E0FFC39405400CEFD3941F500612FA
:1066F30059F012BCBB901435E0FF6405600EEF64E3
:106703001E6009EF641B6004EFB41C0612DD141253
:0F671300C4BF12DD38E51E2404F8EFF630E7F3BB
:10672200E4F558F5597B937D027F0312B329E51EE8
:106732002405F8E4F608F6E51E2405F8E6FE08E668
:10674200FFE4FCFD7B407A9CF9F8D31240CC40D0A8
:0E675200E51E2405F80806E61870DC0680D95E
:02676000B2FE87
:07676200E51E2409F51E22CB
:10A865001256D41258A87034F55E755F087560FFEE
:10A8750075610675627775632D7B7AFA7D10FCFF2D
:10A88500FE128A4C7BFF7AB5793812AA03FD7BFF4D
:0CA895007AB5793875555E7F0202C0412B
:10A8A1009018527401F01256D41258A8FF7403C3C1
:10A8B1009F50047F038000901852E0FED39F400315
:10A8C10002AA021258D3FDEE2D12577B90FFF91206
:10A8D1003D426403601A1256D41258D3FF901852A5
:10A8E100E02F125855B50708901853747EF0800672
:10A8F100901853742DF07BFF7A0679F19018541259
:10A9010041EF1256D41258A8FFB401087BFF7A090F
:10A9110079CD804E901852E0FE24FE601D14601F18
:10A92100240270441256D41258D37BFF70067A0861
:10A9310079D980047A0779E58028EF6402702912B9
:10A9410056D41258D3FDEE2D1258A47C00B5070C35
:10A95100ECB506087BFF7A09795380067BFF7A08FC
:10A96100795F9018541241EF901852E075F008A4E5
:10A97100FDACF0755E00755F089018541241E68BCE
:10A98100608A618962901853E0F5637B7A7A00E40A
:10A99100FFFE128A4C1256D412576F90FFFA1242E0
:10A9A1001812AA03901857F01256D41258D3FF90D8
:10A9B1001852E0FE2F14FD125BED6D70251256D476
:10A9C100EFFDEE2D12577B90FFF9123D42B40212BA
:10A9D100125BF324F4FD7BFF7AB5794375555E1262
:10A9E100C0411256D412576F90FFFA124218125BEF
:10A9F100F3FD75555E12C041901852E004F002A8B3
:01AA0100A7AD
:0FAA02002212DDE2EF75F006A4FFC3747A9F22E3
:064E23008B448A4589461C
:104E2900E490185EF090069CE0700C7BFF7AB579EF
:074E39004512DD5A0254EF9F
:104E4000AB44AA45A946125857F5471257E4755F77
:104E5000007560037F107E0212CAB7E490185FF0FD
:104E600090185FE0FFC394045028EF75F028A4FF6A
:104E7000AEF0249EF974013EFA7B01C001742F2F1D
:104E8000F9740F3EA801FC7D01D0017F28125B5907
:104E900080CEE490185FF090185FE0FFC39402505A
:104EA00028EF75F024A4FFAEF024CEF974023EFA88
:104EB0007B01C00174CC2FF974043EA801FC7D0174
:104EC000D0017F24125B5980CE12561A125A7A12E0
:104ED00056241241E69000087403123DB41259E8BA
:104EE00012582C9410EE9402502E749E2FF582745A
:104EF000013EF583E012572E12562F1241E690180C
:104F00005DE02409FD90185CE034008D82F583EFAC
:104F1000123DB41256E980C87558027559127B9833
:104F20007D027F0312B32990150BE070FA1257E44B
:104F300012584A12CAB790019FE090041CF09001E9
:104F4000A1E0540F90185FF09001A0E0900273125E
:104F5000594D90048CCFF0A3EFF09001A0E09002A7
:104F60007512594D90048ECFF0A3EFF0125B65904F
:104F70000277125950900490CFF0A3EFF09001A265
:104F8000E09004C7F09006BA7401F0FB7A017963EF
:104F9000E5448545838546826401700A74636582B1
:104FA0007004740165837006740A2547F547E54768
:104FB0001242A14FDE004FDE015340024FDE035389
:104FC000F20453F905540106547B0754A60854AE65
:104FD0000954C10A54CD0B54D90C000054EFE547D5
:104FE000B401089003AF7401F08005E49003AFF0C2
:104FF00012560E125A849004651241870000000078
:105000009004501241870000000090046B12418709
:105010000000000090045612418700000000900438
:105020006F1241870000000090045A12418700006F
:105030000000125AF0900482F0A3F0900460124134
:1050400087000000009004751241870000000012E4
:105050005BFD9004841241870000000090048812D8
:1050600041870000000090157DE054E0FFC4135418
:105070000724FC601614601F14602824047030900C
:1050800004091241873F000000802E90040912415C
:105090008740000000802290040912418740A00050
:1050A00000801690040912418741200000800A9078
:1050B00004091241873F80000090157DE0540EC323
:1050C0001324FE600F240270179006ABE4F0A37463
:1050D00032F080159006AB7403F0A37420F08009C1
:1050E0009006ABE4F0A374FAF01259E812582C942D
:1050F00084EE94005019EF7802C333CE33CED8F942
:10510000125ABC124187FFFFFFFF1256E980DD12E1
:1051100057E4125A0612CAB71259A012414390041A
:105120002C12417B90041CE09001B21259A712414D
:105130004390043012417B90041CE075F01C9001F8
:10514000B812595090047ACFF0A3EFF090041CE00D
:1051500075F0101259CDC003C001125BA835F08B59
:105160004B1257F0D001D00312D51390041CE075F8
:10517000F0109005311241B8E4F0E5476403701C6B
:105180001257E4F55F125ADA12CAB7125793900118
:10519000A812595090047CCFF0A3EFF01256F312EE
:1051A0005A5F12CAB774FFFFFEFDFC90042C125820
:1051B000B7600F90042C124143EC4D4E4F60030238
:1051C00052587ADD797B1258E8E547901435B403DC
:1051D000057409F08003740AF01259E890185CE035
:1051E000FAA3E0FBAE027802C333CE33CED8F91275
:1051F000581112418700000000EBAE027803C33360
:10520000CE33CED8F9FBAA062439F58274003AF5DC
:10521000831241870000000074352BF58274003A38
:10522000F583124187000000001256E990185CE0F7
:105230007004A3E0642070A4125989124187FFFF13
:10524000FFFF900421124187FFFFFFFF1256F31268
:1052500059D912CD030254BC9003AFE0B4014D12F2
:1052600059E812582C9420EE94005033EF7803C381
:1052700033CE33CED8F9FBAA062435F58274003A32
:10528000F5831241870000000074392BF582740009
:105290003AF583124187000000001256E980C3905E
:1052A0000421124187FFFFFFFF0253251259E890A6
:1052B000185CE0FAA3E0FBC39420EA94005060EB92
:1052C000AE027803C333CE33CED8F92439F58274D5
:1052D000003EF58312418700000000EBAE02780229
:1052E000C333CE33CED8F9125811124143C004C093
:1052F00005C006C00790185CE0FEA3E07803C33346
:10530000CE33CED8F92435F58274003EF583D0072C
:10531000D006D005D00412417B1256E90252AF12DA
:105320005989125C077AD879721258E8E5479014C7
:1053300035B403067419F00254BC741FF00254BC57
:1053400012560E9003AF7401F0125A849004651245
:1053500041870000000090045012418700000000C7
:1053600090046B12418700000000900456124187A0
:105370000000000090046F124187000000009004BC
:105380005A12418700000000125AF0A31241870010
:1053900000000090047512418700000000125BFDC0
:1053A0001259E912582C9484EE94005019EF7802A7
:1053B000C333CE33CED8F9125ABC124187FFFFFF58
:1053C000FF1256E980DD1257E4125AD712CAB712FB
:1053D00057939001A812595090047CCFF0A3EFF09E
:1053E0007BFF7AC679DB1258EA9014357420F002FC
:1053F00054BC12560574068005901435740EF08066
:015400005556
:1054010090185B7402F090185BE0FFC39407501E84
:105411009004C7E0FEA807088002C313D8FC54011A
:1054210090185AF0700890185BE004F080D890183A
:105431005AE06035A3E0FFB40608901435740EF00D
:105441008013EFB405089014357414F08007EF242D
:105451000E901435F0125C107A00791E1259817A7F
:10546100C57975125A6C0254EF7BFF7AB5794B12EC
:0A547100DD5A90143574E30254E98B
:10547B009014357416F0125C107A00791E12598153
:10548B007AC57975125A6CE4FF12CE971257121225
:10549B008A4C125AFE12C0410254EF125605740D7B
:1054AB00F0800EE4FF12CE971257121255EE740FC6
:1054BB00F0125C10802EE4FF12CE977422125B4622
:1054CB00801CE4FF12CE977421125B468010E4FF20
:1054DB0012CE971257121255EE7423125B49F0E459
:0454EB0090185EF0C7
:1054EF0090185EE06042E49004CAF0A3F09001933C
:1054FF00F0A3F09006BA04F090001C04F0A3740F10
:10550F00F0754B01754C04754D927B017A1479330C
:10551F0012878790000EEFF0700E7BFF7AB57965DA
:10552F0012DD5AE4901435F0901435E0FF70030249
:02553F0055E62F
:1055410012572F12562F1241E6EF125A7E90185F12
:10555100E0FF12573912562F1241E6125A1E9004DB
:10556100C7E0FF12573912562F125A90E4F547E55A
:1055710047125958600E24FB701412561A125875AE
:105581007403801212561A1258757402800812564A
:105591001A1258757404123DB40547E54764047046
:1055A100CE125B659002731241B8E0A3E0540F1272
:1055B100572E12562F1241E690000EEF123DB412F3
:1055C1005B659002751241B8E0FEA3E0FF12573906
:1055D10012562F1241E690000FEE8FF0123F591232
:0555E1005A1112B3296C
:0755E6007AB979121256DABE
:1055ED0022128A4C7BFF7AB5795E75552D7D2AE4A2
:1055FD00FF12C04190143522E4FF12CE979014355E
:0D560D00227BFF7A0B796B7D2D12C40822E1
:10DA51008B448A458946E4901435F0FFFE12D6D9ED
:10DA6100901432E024FB12570AFC7B017F057E00F3
:0FDA710012CBE6126769E4FF12CE97125C172200
:10DC06008B448A458946E4901435F0901432E0241A
:10DC1600FF12570AFC7B01E4FFFE12CBE61267698E
:09DC2600E4FF12CE97125C1722F4
:10DDB1008B448A458946E4901435F07F0112712520
:09DDC100E4FF12CE97125C172258
:06D29B008B478A48894917
:10D2A1007A1A796E12584812CAB7900008E0901A9B
:10D2B1006EF0900016E0901A6FF09006B4E0901AAC
:10D2C10070F0A3E054F0F0901593E024D8600D24A1
:10D2D100147010901A71E02402F08007901A71E026
:10D2E1002404F07B017A1A796E756100756201126E
:0DD2F10059E17E0012CD03AB47AA48A949C0
:01D2FE00220D
:10DA21008B448A45894612585724FE600B047010B6
:10DA31009015937414F0800E9015937428F080065D
:10DA4100901593740AF012D29BAB44AA45A94622C1
:06BF67008B448A45894667
:10BF6D00125B6D7A18795AF55F12584D12CAB79057
:10BF7D00185AE0900008F090185CE09006B4F0902C
:10BF8D00185BE0900016F0E4901A6CF0A3F0901A94
:10BF9D006AF0A3F0901A6A12582F940CEE648094F4
:10BFAD0080400302C032EF125B51EEC454F048FEE4
:10BFBD00125B75F46066125B756061901A6DE090AE
:10BFCD001A6C1257C7C003C001901A6B125B5090C8
:10BFDD001A6AE0C454F048FE745F2FF974183E8B52
:10BFED004B1257F0D001D00312D513901A6C125783
:10BFFD00451256757402F07AD2799B901A6C1259CB
:10C00D003B1256751241EF1257D4901471125766A8
:10C01D001256751241EF901A6C1256EC901A6A1264
:10C02D0056EC02BFA1901A6C1256381241EF0B7AE2
:03C03D0000790186
:01C0400022DD
:06BAEC008B448A458946E7
:10BAF200125B6D7A18795AF55F12584D12CAB790D7
:10BB0200185AE0900008F090185CE09006B4F090AB
:10BB1200185BE0900016F0E4901A6CF0A3F0901A13
:10BB22006AF0A3F0901A6A12582F940CEE64809473
:10BB320080400302BBC690191F75F016EF1241B880
:10BB4200EE75F0161256CDF46071901A6AA3E09069
:10BB5200191F75F0161241B8EE75F0161256CD6027
:10BB62005A901A6DE0901A6C1257C7C003C0019028
:10BB72001A6A7D16125BB3741F2FF974193E8B4B30
:10BB82001257F0D001D00312D513901A6C125745F8
:10BB92001256757402F07AD2799B901A6C12593B44
:10BBA2001256751241EF1257D49014711257661241
:10BBB20056751241EF901A6C1256EC901A6A125690
:10BBC200EC02BB26901A6C1256381241EF0B7A0621
:02BBD20079AD4B
:01BBD400224E
:06B72B008B448A458946AB
:10B73100125B6D7A18795AF55F12584D12CAB7909B
:10B74100185AE0900008F090185CE09006B4F09070
:10B75100185BE0900016F07B017A18795A125A06AC
:10B7610012CAB7E4901A6CF0A3F0901A6AF0A3F031
:10B77100901A6A12582F9410EE648094804003024C
:10B78100B81290185A75F01CEF1241B8EE75F01C02
:10B791001256CDF46072901A6AA3E090185A1259A9
:10B7A100A7EE75F01C1256CD605E901A6D125B50BB
:10B7B100901A6C1257CEC003C001901A6A7D1C12F8
:10B7C1005BB3745A2FF974183E8B4B1257F0D001AA
:10B7D100D00312D513901A6C125745125675740284
:10B7E100F07BFF7AD2799B901A6C12593D125675F3
:10B7F1001241EF1257D490147112576612567512F6
:10B8010041EF901A6C1256EC901A6A1256EC02B77C
:0FB8110071901A6C1256381241EF0B7A00790FB2
:01B820002205
:06D235008B448A45894686
:10D23B007A18795A12584812CAB790185AE09000C7
:10D24B0008F090185CE09006B4F090185BE090004A
:10D25B0016F090185DE0540F24FC60112402701A34
:10D26B009015937414F09006A67401801790159383
:10D27B007428F09006A67402800A901593740AF035
:0FD28B00E49006A6F09006A5F07B017A06799E46
:01D29A002271
:10DC58008B448A45894612585790157D7006E044D2
:10DC680001F08004E054FEF012DA801259AD12D0AF
:08DC780088AB44AA45A946222D
:10DCCC008B448A45894690157DE030E006E490014E
:10DCDC007C800590017C7401F090017BF07B017AD3
:04DCEC000179742224
:10DCA7008B448A458946900414E025E0FF90157D52
:10DCB700E054F14FF012DA801259AD12D088AB441C
:05DCC700AA45A9462258
:10DB33008B448A45894690157DE0540EC3139004A7
:10DB430015F0900414F0E0D394024008A37401F09C
:0BDB5300900414F07B017A04790D228D
:10DC2F008B448A45894690159BE02402C43354E007
:10DC3F00FF90157DE0541F4FF012DA801259AD128C
:09DC4F00D088AB44AA45A9462285
:10D5B3008B448A45894690157DE054E0C413540793
:10D5C30024FC60101460141460182404701BE4908D
:10D5D300159C801A90159C7402801390159C7403FB
:10D5E300800C90159C7404800590159C7401F09038
:0AD5F300159BF07B017A1579942254
:100003008B4A8A4B894CE4901435F0FBFAF9125869
:0B0013004212B1037B017A1579B5227F
:06C10A008B478A488949B9
:10C110001257DF12597812CAB7E4901A6FF0A3F0E1
:10C12000901A6DF0A3F0901A6D12582F9415EE64CA
:10C13000809480504F90019E1256C2FEA3E0F4708E
:10C1400002EEF46037901A6DE0FEA3E09001A07556
:10C15000F0191256C6FEA3E0F47002EEF4601DABB7
:10C1600047AA48A949125857FF901A6FE475F00181
:10C17000123E89FCE5F06F7001EC6008901A6D12B8
:10C1800056EC80A212591B12DDE2901A6FEEF0A35A
:10C19000EFF012591BEF24FEFFEE34FFFE12578C16
:10C1A0007564FF7565B575666E901A6EE02401F5CD
:10C1B00068901A6DE03400F567126D127BFF7A000B
:0BC1C00079031258427B017A0479B821
:01C1CB002251
:067B82008B448A45894690
:107B8800E4901435F07B017A14793690146312412D
:107B9800EF7A0479B81258F090185AF0A3F01259F5
:107BA80098FF9003CA75F007125671125BBD125701
:107BB800D4125998FF9003CB75F007125671125BD7
:107BC8008112566D1241EF90185A1256EC90185ABD
:107BD800E07004A3E0640870C5900402125C1E9073
:107BE80004061241EF12591B12DDE290185AEEF00A
:107BF800A3EFF012591BEF24FEFFEE34FFFE1257DD
:107C08008C12C78BEF24FFFFEE34FF90185AF0A3B5
:107C1800EFF07B017A1579D7125998FF901432E06A
:107C28002FFF901431E03ECF24E7F560EF34FF12C8
:107C38005A6512CAB7E4901865F0A3F09018651257
:107C4800582F9484EE9400501AEF7802C333CE3341
:107C5800CED8F9125ABC125B0C60089018651256FF
:107C6800EC80D91257E412597712CAB7125998FF03
:107C78009001B475F0191256C690185CF0E0D394D0
:107C88000C4002E4F09001B61256C290185DF0E084
:107C9800D394104002E4F01259989001B575F01988
:107CA8001256C690185EF0E0D3940C4002E4F0122D
:107CB8005998FF90019E75F0191256C6FDA3E090E1
:107CC800185FCDF0A3EDF09001A275F019EF124105
:107CD800B8EE125B8D90185AE0FAA3E09001A61254
:107CE8005935EA1256CA125BDC7559017A0579765C
:107CF800755A01755B05755C7612A2E090185AE01A
:107D0800FAA3E0FB9001A8125935EA125B8D9001A5
:107D1800AC75F019EB1241B8EA1256CA125BDC7561
:107D280059017A05798B755A01755B05755C8B125B
:107D3800A2E090185A1256A3FEA3E090185A1259BE
:107D480021EC1256CA125969EC1256CA125A25FE6B
:107D5800E4FCFD90186112417B7564FF7565B5758B
:107D68006673E47B02FAF9F89018611241431240F5
:107D78002C8E678F68901431E0C313F569A3E01364
:107D8800F56AE47F64FEFDFC90186112415F123FC2
:107D9800A1C006C007901431E0FEA3E0FBAA06E4E8
:107DA800F9F8D007D00612402C8E6B8F6C7B017AC5
:107DB800057961126D121259989001AE75F0191279
:107DC80056C6540F24FE6013146010146018800007
:107DD8007564FF7565B575668580147564FF75658E
:107DE800B575669880097564FF7565B57566AB905D
:107DF8001865E0F567A3E0F5687B017A0579A012BC
:107E08006D121257E412584A12CAB790185CE075FE
:107E1800F010A424A3F974011257EB7B017A0579B9
:107E28002212D513E4900531F090185EE075F01633
:107E3800A42463F974021257EB7B017A057937128F
:107E4800D513E4900546F01257E4F55F125A09126B
:107E5800CAB790185D125BA81257EB7B017A0579B7
:107E68004C12D513E490055BF01257E490185FE0CC
:107E7800F55FA3E012597A12CAB79001E5E0FE3324
:107E880095E090185AF0A3CEF09001E5E0FF7D460A
:107E980012D41190186712417B7564FF7565B5752A
:107EA80066BE901867125B197A0579B5126D127B58
:057EB800017A1479635A
:017EBD0022A2
:067EBE008B228A238924B7
:107EC4008584259017E9125A87F526901435F0F524
:107ED40084C2EDD2EC7BFF7A04791A9014631241C8
:107EE400EF7B017A14790D1258F0125A739017E748
:107EF400E0FEA3E0FF9003CA75F007125671125B0F
:107F0400BD1257D49017E7E0FEA3E0FF9003CB75B2
:107F1400F007125671125B8112566D1241EF9017E1
:107F2400E71256EC9017E7E07004A3E0640470BD18
:107F34009003E6125C1E9003EA1241EF8525840B40
:107F44007A01799E12584A12CAB79001A2E09004AD
:107F5400C7F01257E412597712CAB7125A7290171F
:107F6400E712582F9415EE9400504490019E125637
:107F7400C2FEA3E0F47002EEF4602B9017EB1256ED
:107F8400EC9017E71256A3FEA3E09017E7125921CD
:107F9400EC1256CA125969EC1256CA125A25901795
:107FA400E98FF0123E739017E71256EC027F6212CB
:107FB4005A729017E712582F9407EE9400502474C5
:107FC400017E00A807088005C333CE33CED8F9FF5D
:107FD4009004C7E0FDEF5D600205269017E7125696
:107FE400EC80CFE526FD7C00901593E0FF7E001227
:107FF4003DD6AC06AD07E412398AC004C005C006FC
:10800400C007901409E0FCA3E0FDE412398AA80437
:10801400A905AA06AB07D007D006D005D004125A8A
:10802400C69017ED12415FC000C001C002C00390AA
:108034001593E0FCE412398F125BC7125BC7D003BF
:10804400D002D001D000123670125AC99017ED1226
:108054004143E4FBFA79617845123761125AC990B9
:108064001432E024E1FF12570BFE9017E9E0FAA363
:10807400E0FBC39FEA9E400C9017ED12418700007D
:108084000000801E901432E024E6FF12570BCFC389
:108094009BFDEF9AFCE412398A9017ED12415F12AE
:1080A4005AC67564FF7565B57566CB9017ED125B9E
:1080B400197A057922126D127564FF7565B57566B6
:1080C400DF9017EB12582F74159FF568E49EF5673F
:1080D4007B017A057937126D127564FF7565B57584
:1080E40066EE9017EBE0F567A3E0F5687569157B1C
:1080F400017A057961126D12125A729017E71258BB
:108104002F9404EE9400503BEF2402FF74017E0090
:10811400A807088005C333CE33CED8F9FF9004C72F
:10812400E0FDEF5D60159017E7A3E0FF2430FE74D7
:10813400672FF582E43405F583EEF09017E71256C5
:10814400EC80B89004C7E0FF30E60990056D743404
:10815400F0A304F0EF30E70E9005707452F0A374AE
:1081640050F0A3744DF0E4F584125A7320ED11908D
:1081740017E71256ECFED3E5F09410EE942740EC8A
:108184009017F1E5BFF0A3E5BEF0852584E0241245
:10819400FF9017F1E034FDFE7C007D64123DD67D36
:1081A400FA123DE89017E7EEF0A3EFF07564FF755F
:1081B40065B67566018E67F5687B017A05794C12A0
:0881C4006D127B017A1479634E
:0181CC002290
:06D8AD008B448A45894608
:10D8B3001257DF12597812CAB712591B12DDE290C0
:10D8C300185A12591212578C12C78B90185AEFF02C
:10D8D300D394155005E0FF12B43012B1037B017AE3
:03D8E3001579B5FF
:01D8E600221F
:06B912008B508A5189529E
:10B91800901435E0FFC394054021EFD3941F501BCA
:10B928009004C7E0600F900492E0FCA3E0FD7F0163
:10B938007E0012CF9A1259F012BCBB901435E0FF6A
:10B948006405600EEF641E6009EF641B6004EFB4C9
:10B958001C0612DD1412C4BFE4901435F0900418CC
:10B9680012561E125A7A901593E0FF24F66011249D
:10B97800E260042414700CEF75F00A84F553800318
:10B98800E4F55312561A1241E6E553125BD1FD1243
:10B9980056241241E6900009ED123DB4E4F554E551
:10B9A80054125958602224FB601124F6702812564C
:10B9B8001A125B9812587C7404801812561A125B7B
:10B9C8009812587C7403800B12561A125B981258FE
:10B9D8007C7402123DB40554E554640470C1125AD3
:10B9E8001112B3291256E21258361258EAAB50AA6D
:06B9F80051A952125AB6DB
:01B9FE002226
:10DD7B008B488A49894A9015B4E0C3940340081232
:0BDD8B0056E27F011243EC1256E22228
:10DE0A008B508A5189521256E27F021243EC125603
:02DE1A00E22202
:06AA11008B228A23892438
:10AA1700901409E0FCA3E0FD1257E4901433E0F52D
:10AA270061A3E0F5627F027E0012CD0390048412D9
:10AA3700418700000000E4900482F0A3F01256F36F
:10AA4700125A5F12CAB7E4FBFAEBAE027802C333BD
:10AA5700CE33CED8F9125811124187000000000BEF
:10AA6700BB00010AEB64204A70DF12598912418743
:10AA7700FFFFFFFF1256F31259D912CD031257E405
:10AA8700125A0612CAB790041CE075F01C9001B266
:10AA97001241B8124187000000009004301241872C
:10AAA700000000001259A012418700000000900426
:10AAB7002C1241870000000090041CE075F01C90E8
:10AAC70001B6125A9A75F01CEF9001B8125A9B9072
:10AAD700047AF0A31257E3F5617562021259E1FE99
:10AAE70012CD031257E4125AD712CAB71257BF90A2
:10AAF70001A21241B81241870000000090044512DC
:10AB07004187000000001257BF90019E1241B81202
:10AB170041870000000090044112418700000000B7
:10AB270090041CE075F00C9001A6125A9A75F00C6F
:10AB3700EF9001A8125A9B90047CF0A31257E3F5FB
:10AB4700617562041259E1FE12CD03901409E0FE0B
:10AB5700A3E0FF1257E4901433E0F55FA3E0F5603C
:10AB670012CAB77BFF7AB97912125842901435E0AE
:10AB7700FFB4020F7ADD797B1258EA901435740A14
:10AB8700F08024EFB403117BFF7ADD797B1258EA5A
:10AB97009014357409F0800F1256E21258EA125BCE
:0FABA7002712C408125C271257FB1B7A00790093
:01ABB600227C
:10D7AD008B4D8A4E894F7BFF7AB979121258427A86
:10D7BD00D879721258EA901435E024FD600B04708C
:10D7CD0010901435741FF080119014357419F08079
:10D7DD0009125B2712C408125C271257FB1B7A0033
:03D7ED007900229E
:10D872009014271256DF1258EA7BFF7AD779AD123D
:10D882005842901435E024E7600C24FA701090148A
:10D89200357402F0800E9014357403F080069014F3
:0BD8A200357401F07B017A1479242218
:06B21D008B448A458946BE
:10B223009014357424F0125C2E04F0900421124122
:10B2330087FFFFFFFFE4900425F012591B12DDE2A4
:10B2430090185A12591212578C12C78B90185AEF32
:10B25300F0D3941550227B017A1579D7901432E0FC
:10B2630024E6FF12570BFE90185AE07C002FF5607E
:10B27300EC3E125A6512CAB7E490185AF090185A65
:10B28300E0FFC39484502C75F004EF125AAA125BAA
:10B293000C6020900421124143125AA312415FC350
:10B2A3001240E25006125AA3125C0790185AE004A7
:10B2B300F080CA90185AE0900425F0700B7BFF7A57
:10B2C300B6790D12DD5A80567BFF7A007926125922
:10B2D300837AD67947125A6C9015D71259C19003C5
:10B2E300AF7403F0E4FF12CE97755E00755F0E75C1
:10B2F30060FF75611375620B75632D7B517A007D59
:10B30300097C007F157E00128A4C12AE9D12D72253
:10B313001258AE70047F0180027F0012DBB27ADD27
:05B3230079961256DAD4
:01B328002202
:10D647008B478A488949900425E0FF900482E0B41B
:10D65700000CA3E0B50707125C2E04F080069004C7
:10D66700821256EC125C35C333CE33CED8F9125939
:10D67700B812AE9D12D7221258AE70047F018002F5
:09D687007F0012DBB21256E22210
:100026008B478A488949900482E07004A3E0640102
:10003600700C900425E0FF125C2EEFF0800A90040D
:100046008274FFF5F0123E73125C35C333CE33CEA5
:10005600D8F91259B812AE9D12D7221258AE7004B2
:0D0066007F0180027F0012DBB21256E22201
:10DD96008B478A488949E4901435F0FBFAF9125802
:0BDDA60036AB47AA48A949125AB62222
:04001E0012C5752270
:10C575008B488A49894A901435E01242A1C5A10623
:10C58500C6050EC5B110C5C111C5D012C5DF13C58D
:10C59500EE14C5FD15C61E160000C6249004C7E09E
:10C5A50030E2099014357410F002C6249004C7E0F7
:10C5B50030E3099014357411F002C6249004C7E0E5
:10C5C50030E4089014357412F080549004C7E030BC
:10C5D500E5089014357413F080459004C7E030E603
:10C5E500089014357414F080369004C7E030E608DE
:10C5F5009014357415F08027901435740EF0801F53
:10C605009014357416F0E4FF12CE97125712128A61
:10C615004C125AFE12C04180069014357406F01271
:03C6250056E222B8
:06DB5E008B478A4889494B
:10DB6400125C3F04F0D3947440037474F01258832D
:10DB74007A187967126D127B017A18796712DD5A67
:03DB84001256E254
:01DB8700227B
:06DB88008B478A48894921
:10DB8E00125C3F14F0C3944C5003744CF012588343
:10DB9E007A187967126D127B017A18796712DD5A3D
:03DBAE001256E22A
:01DBB1002251
:10DCF0008B478A488949E4901435F012DA8012592A
:10DD0000AD12D0881256E2125836AB47AA48A9493C
:04DD1000125AB622CB
:06D7F0008B448A458946C6
:10D7F600E4901435F07564FF7565B6756615901579
:10D806007A1258977A18795A126D127B017A18791A
:10D816005A12DD5A7BFF7ADB795E1259837ADB79FD
:0BD8260088125A6C7ADC79F01256DC94
:01D8310022D4
:060076008B478A4889490E
:10007C0090155DE004F0D36480948C4003740CF014
:10008C0012585D7A187967126D127B017A187967AC
:06009C0012DD5A1256E2CB
:0100A200223B
:06DAAE008B478A488949FC
:10DAB40090155DE014F0C364809474500374F4F022
:10DAC40012585D7A187967126D127B017A1879679A
:06DAD40012DD5A1256E2B9
:01DADA002229
:06D91E008B448A45894696
:10D92400E4901435F012585D7A18795A126D127B0E
:10D93400017A18795A12DD5A7BFF7A0079761259E6
:0FD94400837ADA79AE125A6C7ADC79F01256DCFB
:01D9530022B1
:06DB07008B478A488949A2
:10DB0D0090157CE0240AF0D394F0400374F0F012E9
