:1000A60053656C65637420447269766572005365A6
:1000B6006C65637420547261636B0053656C656391
:1000C600742056656869636C650053657373696F60
:1000D6006E730056696577204C61707300457261D6
:1000E600736520446174610053657373696F6E2094
:1000F60044657461696C00313020487A00323020E2
:10010600487A00343020487A0053656C6563742061
:100116005261746500447269766572005665686955
:10012600636C6500547261636B0053616D706C693A
:100136006E67205261746500457261736520536570
:100146007373696F6E7300474D54204F666673650F
:100156007400436F6E7472617374004C61707469DD
:100166006D6520486F6C6400466163746F72792018
:1001760044656661756C74730053657474696E6763
:1001860073004C6170730044726976650054616354
:100196006820262053706565646F00476175676542
:1001A6007300472D466F72636573004773202620E0
:1001B6004C6F636174696F6E00496E70757473007D
:1001C60044617461204D6F64650047505320436F4E
:1001D6006D7061737300475053204C6F636174698F
:1001E6006F6E00436865636B20496E7075747300AB
:1001F6004F74686572204D6F646573005265636F56
:100206007264204461746100566965772053657392
:1002160073696F6E73004368616E6765205365741A
:1002260074696E67730043757272656E74205374D9
:1002360061747573004F74686572204665617475E4
:10024600726573004D61696E204D656E7500594586
:1002560053004E4F002041726520596F752053752B
:1002660072653F0020436C6561722053746172743D
:100276003F005357204D49534D41544348002052A7
:10028600656C6F61642053570044524956452053AC
:100296004146454C5900202044552073772025645B
:1002A6002E2530326420646174612025640020208C
:1002B60053552073772025642E25303264206461DF
:1002C6007461202564002A205355204E4F54204344
:1002D6004F4E4E4543544544202A005468697320C6
:1002E600756E69742062656C6F6E677320746F003B
:1002F6004C6F6164696E670053746F72696E670054
:1003060043616E63656C696E6700436F70797269ED
:100316006768742028432920323030352D37205421
:100326007261636B2053797374656D7320546563D2
:10033600686E6F6C6F676965732C204C4C430003C5
:100346000100FF43757272656E7420537461747593
:10035600730007FF00D9FFACB804FF00E3FFC9979D
:1003660006FF00EEFF663C0000000000000002FFF2
:1003760000FDFFD10002FF0103FFD10002FF0109CA
:10038600FFD1000000000000000006FF011BFFA3D4
:100396008A06FF0122FFA1CF06FF012AFFA0010660
:1003A600FF0130FFC66C04FF013EFFD05E07FF0170
:1003B6004DFFC9F007FF0158FFC8E307FF0161FFC2
:1003C600CAA004FF016EFFD1650000000000000016
:1003D60007FF0188FF52FB07FF018DFF52FB07FF56
:1003E6000193FF52FB07FF01A1FF52FB07FF01A884
:1003F600FF52FB07FF01B1FF52FB07FF01BFFF5290
:10040600FB0000000000000007FF01D0FF52FB07C1
:10041600FF01DCFF52FB07FF01E9FF52FB00000072
:1004260000000000000000000000000000000000C6
:1004360000000000000000000000000000000000B6
:1004460000000000000000000000000000000000A6
:100456000000000000000000000000000000000096
:100466000000000000000000000000000000000086
:100476000000000000000000000000000000000076
:100486000000000000000000000000000000000066
:100496000000000000000000000000000000000056
:1004A60000001E1E1E1EFEFEFEFE1E1E1E1EFEFE62
:1004B600FEFE9E9E9E9E9EFEFEFCF8001E9E9E9E3C
:1004C6009E9E9E9E9EFEFCFCF8F8FCFEFE1E1E1ED8
:1004D6001E1E1E1EFEFEFCF000FEFEFEFE1E1E1E64
:1004E600FEFEFEFE1E1E1EFEFEFCF8001E9E9E9ECC
:1004F6009E9E9E9E9EFEFCFCF81E1E1E1EFEFEFE80
:10050600FE1E1E1E1EF8FCFEFE9E9E9E9E9E9EFECD
:10051600FEFCF800000000000000000000000000E3
:10052600FFFFFFFF00000000FFFFFFFF070F1F3F59
:100536007FFFF7E7C37EFFFFF7F7F7F7F7F7F7FF5A
:10054600FFFFFF3F7FFFFFF0F0F6FEFEFCF87FFFA8
:10055600FFFFC0FFFFFFFF000000FFFFFFFF0000DF
:1005660000FFFFFFFF7EFFFFF7F7F7F7F7F7F7FF4D
:10057600FFFFFF00000000FFFFFFFF000000003F3D
:100586007F7FFFF7F7F7F7F7F7F7F7F3F1000000CC
:100596000000000000000000000000000000000055
:1005A6000000000000000000000000000000000045
:1005B6000000000000000000000000000000000035
:1005C6000000000000000000000000000000000025
:1005D6000000000000000000000000000000000015
:1005E6000000000000000000000000000000000005
:1005F60000000000000000000000000000000000F5
:10060600000000000000000000000000FFFFFFFFE8
:10061600FFFFFFFFFFFFFFFFFFFFFFFFFFFFFFFFE4
:10062600FFFFFFFFFFFFFFFFFFFFFFFFFFFFFFFFD4
:10063600FFFFFFFFFFFFFFFFFFFFFFFFFFFFFFFFC4
:10064600FFFFFFFFFFFFFFFFFFFFFFFFFFFFFFFFB4
:10065600FFFFFFFFFFFFFFFFFFFFFFFFFFFFFFFFA4
:10066600FFFFFFFFFFFFFFFFFFFFFFFFFFFFFFFF94
:10067600FFFFFFFFFFFFFFFFFFFFFFFFFFFFFFFF84
:10068600FFFFFFFFFFFF000000000000000000006A
:100696000000000000000000000000000000000054
:1006A6000000000000000000000000000000000044
:1006B6000000000000000000000000000000000034
:1006C6000000000000000000000000000000000024
:1006D6000000000000000000000000000000000014
:1006E6000000000000000000000000000000000004
:1006F60000000000000000000000000000000000F4
:1007060000406070787C7E7C78706040000000005D
:1007160000000000000000000000000000000000D3
:1007260000000000000000000000000000000000C3
:1007360000000000000000000000000000000000B3
:1007460000000000000000000000000000000000A3
:100756000000000000000000000000000000000093
:100766000000000000000000000000000000000083
:10077600000000000000000000000002060E1E3E01
:100786007E3E1E0E06020000000000000000000073
:100796000000000000000000000000000000000053
:1007A6000000000000000000000000000000000043
:1007B6000000000000000000000000000000000033
:1007C6000000000000000000000000000000000023
:1007D6000000000000000000000000000000000013
:1007E6000000000000000000000000000000000003
:1007F60000000000000606060606060606060606B1
:1008060000000000000000000000000000000000E2
:1008160000000000000000000000000000000000D2
:1008260000000000000000000000000000000000C2
:1008360000000000000000000000000000000000B2
:1008460000000000000000000000000000000000A2
:100856000000000000000000000000000000000092
:100866000000000000000000000000000000006022
:1008760060606060606060606060000000000000B2
:100886000000000000000000000000000000000062
:100896000000000000000000000000000000000052
:1008A6000000000000000000000000000000000042
:1008B6000000000000000000000000000000000032
:1008C6000000000000000000000000000000000022
:1008D6000000000000000000000000000000000012
:1008E6000000000000000000006666666666666638
:1008F600666666660000000000000000000000005A
:1009060000000000000000000000000000000000E1
:1009160000000000000000000000000000000000D1
:1009260000000000000000000000000000000000C1
:1009360000000000000000000000000000000000B1
:1009460000000000000000000000000000000000A1
:100956000000000000000000000000000000000091
:100966000000FFFF000081C3E7FF000081C3E7FF2F
:10097600FFFFFFFFFFFFFFFFFFFFFFFFFFFFFFFF81
:10098600FFFFFFFFFFFFFFFFFFFFFFFFFFFFFFFF71
:10099600FFFFFFFFFFFFFFFFFFFFFFFFFFFFFFFF61
:1009A600FFFFFFFFFFFFFFFFFFFFFFFFFFFFFFFF51
:1009B600FFFFFFFFFFFFFFFFFFFFFFFFFFFFFFFF41
:1009C600FFFFFFFFFFFFFFFFFFFFFFFFFFFFFFFF31
:1009D600FFFFFFFFFFFFFFFFFFFFFFFF28142814A5
:1009E6002814281428142814281428142814280035
:1009F60000000000000000000000000000000000F1
:100A060000000000000000000000000000000000E0
:100A160000000000000000000000000000000000D0
:100A260000000000000000000000000000000000C0
:100A360000000000000000000000000000000000B0
:100A46000000002814281428142814281428142810
:100A560014281428142800000000000000000000DC
:100A66000000008080808080C06030180C18B0E0E4
:100A76004000000000000000000000000000000030
:100A860000000000000000000080C0C08000008060
:100A9600C0C0C0C0800080C0C0C0C08000C0C00050
:100AA60000C0C000C0C0C0C000C0C0C0C0C0800080
:100AB600C0C0C0C000C0C08000C0C00080C0C0C0F0
:100AC600C0C00000000000000000000000000000A0
:100AD60000000000000000000080FCFE57AB55AB94
:100AE60055AB55ABFEFC06034140408080808080BC
:100AF60000000000000000000000000000000000F0
:100B06000000FFFF1919FFFF007FFFC0C0E1610071
:100B16007FFFC0F0FFFF007FFFC0C0FF7F00C0FF68
:100B2600FFC000FFFF3C7CEFC700C0FFFFC000FF17
:100B3600FF0F7CFFFF007FFFC0CCFC7C00000000A5
:100B46000000000000000000000000000000000897
:100B56001C3663C160311B0E0706070607232120DA
:100B66004040444444888888880811111111212284
:100B760022424444000000000000F0F81898B8B083
:100B860000F8F89898F8F000F0F89898B830000057
:100B9600000000F0F89898B8300018F8F81800F03F
:100BA600F81898B8B000F8F8F080F8F800E0F038D7
:100BB60038F0E000F8F80000000000000000000037
:100BC600000000000000000000000000000000001F
:100BD600000000000000000000000000000000000F
:100BE60000000001010101010202020404040000E8
:100BF600000000000F1F18191F0F001F1F01010121
:100C060000000C1D19191F0F00000000000C1D1913
:100C1600191F0F00181F1F18000F1F18191F0F008C
:100C26001F1F010F1F1F001F1F03031F1F001F1F72
:100C3600181818180000000000000000000000004E
:100C46000000000000000000C0C00000000000809E
:100C5600C0C0C0C0800080C0C0C0C08000C0C0008E
:100C660080C0C000C0C0C0C000C0C08000C0C000FE
:100C760080C0C0C0C0C0000000000000E0F090D8F6
:100C8600C8ACA49692CA4A7E3E3090905048282816
:100C96002424242424242444A4140C04048850204A
:100CA60020202020202020202040C040800000005E
:100CB600000000008040201000000000000000003E
:100CC6000000FFFFC0C0C0C0007FFFC0C0FF7F00A4
:100CD6007FFFC0C0FF7F00FFFF3E77E3C000C0FF7D
:100CE600FFC000FFFF0F7CFFFF007FFFC0CCFC7C36
:100CF60000000000000000E0BE0203C3E1713034D2
:100D060076E6C535549494949494949494949494D7
:100D1600941414010202C1E474343474E4C808184B
:100D26002890783C1E0D8640203078FCFEFFFFFEA2
:100D36007C380000000000F8F89898981800F0F841
:100D46001818F8F000F8F89898F8F000000000007D
:100D5600F0F89898B830001818F8F8181800E0F06D
:100D66003838F0E000F8F89898F8F0001818F8F815
:100D7600181801010103070E0C0C0E0703020202EC
:100D8600020202020202020202020202020202023D
:100D960001070E0C0C0E07038242E1F0F8FCFEF987
:100DA600F0E04060F0F8FDFFFDF8F06000000000A4
:100DB600001F1F01010100000F1F18181F0F001F41
:100DC6001F070F1D1800000000000C1D19191F0F2A
:100DD6000000001F1F0000001F1F03031F1F001F2E
:100DE6001F070F1D180000001F1F00000000000055
:100DF60000000000000000000000000000000000ED
:100E06000000000000000000000080C0E0F0F8F4E0
:100E1600E2C18080C0E1F3FFFFF3E1C08040201112
:100E26000B070301000000000000000000000000A6
:100E3600000000000000E0E06060E0C000E0E0606C
:100E460060E0C000E0E06060606000C0E06060E01C
:100E5600C000C0E06060E0C0000000000080C0E0AC
:100E6600E0C080006060E0E060600000000000001C
:100E760000000000008000000000000000000000EC
:100E86000080C0E0603038383858588C0C0C0C0C98
:100E96001818181838306060C08000000000000084
:100EA600000000000000000000000000000000003C
:100EB6007F7F06060703007F7F1E3E7763007F7FE6
:100EC6006666666000337766667E3C0033776666E4
:100ED6007E3C00000000007F7F0C0C7F7F0000003E
:100EE6007F7F0000000000000C0C0C0C0C0C0C7F2B
:100EF6003F1E0C00000000C0FC3E076391902000DE
:100F0600F0909000F000010618F0100808040402A2
:100F160002010103073EFCC0000000003C7E66663D
:100F2600EECC000606FEFE060600F8FCCECEFCF869
:100F360000FEFEE6E67E3C000606FEFE0606000015
:100F460080E0781E06000000FEFE66666606000665
:100F5600FEFE0600FEFE7CE0FEFE0006FEFE06002D
:100F66003C7E6666EECC00FEFE6060FEFE00000083
:100F760000033F7CE0C28404030007040400070466
:100F86008460180F081010202020404080C0E07CAC
:100F96003F030000000003070606070300000007E2
:100FA60007000000070700000707000707010307FF
:100FB6000600000007070000000607010000000009
:100FC60000000707000000000006070706000707E5
:100FD60000030707000607070600030706060703C0
:100FE60000070700000707000000000000000001DE
:100FF60003070E0C1C1C1C1A1A313030303018181E
:1010060018181C0C06060301000000000000000072
:10101600000000008060101010101010101010104A
:101026001010F000000000000000F070C00000008A
:101036000000000000000000000000000080C0C0AA
:10104600E0E0F0F07878787C7CFCFCFC7C7CFCFCB6
:101056007C7CFCFC7C7C7C7878F0F0E0E0C0C08096
:1010660000000000000000F010101050501010108A
:10107600101010101010F000000000000000E0201A
:10108600A06040603808F8000080C060384F01005A
:10109600020300000000000000000018438478C02E
:1010A6008000C0601F00FF0000000000000000007C
:1010B60080E0F8FCFEFFFFFFFFFFFFFFFFFFC0C061
:1010C600DBDBC0E4FFFFFCF8C3C3F8FCFFFFC0C0D6
:1010D600DBDBDFFFFFFFFFFFFFFFFFFEFCF8F0E0BB
:1010E600807F0087C0000000000000000000010CA7
:1010F600F386FC0000000000FFF700000000003E41
:1011060001FF1114121310101010101010101010EF
:10111600109090901010101013121511101010103E
:10112600131214141C181010101E1F1F9FDFFF7FB0
:101136003F1F1F1F1F1F1F1FDF23B9A535B5A53969
:10114600212121212139A5B535A5B923DF1F1F1F6F
:101156001F1F1F1F3F7FFFDF9F1711181417101047
:10116600109090901010101010101015131F1E10D4
:10117600101C1310101010101010101F000030401B
:101186000040000000000000000705010302030004
:10119600000000000000000000000000000080C009
:1011A600E070381C0E07030100000000000000007C
:1011B600007F787071713011111036363636361060
:1011C600111130717170787F00000000000000007E
:1011D600000103070E1C3870E0C181000001000009
:1011E6002010382808300000000000000000000031
:1011F60000000000000000000000000000000000E9
:1012060000000000000000000000000000000000D8
:1012160000000000000000000000000000000000C8
:1012260000000000000000000000000000000000B8
:1012360000000000000000000000000000000000A8
:101246000000000000000000000000000000000098
:101256000000000000000000000000000000000088
:101266000000000000000000000000000000000078
:101276000000000000000000000000000000000068
:101286000000000000FEFEFEFEFEFEFEFE00000068
:10129600383838000000FEFEFEFEFEFEFEFE0000B0
:1012A60000FEFEFEFEFEFEFEFE00000038383800A0
:1012B6000000FEFEFEFEFEFEFEFE000000FEFEFE3E
:1012C600FEFEFEFEFE000000000000000000FEFE26
:1012D600FEFEFEFEFEFE0000000000000000000014
:1012E60000000000000000000000000000000000F8
:1012F6000000000000000000000000000000007F69
:101306007F7F7F7F7F7F7F000000383838000000B6
:101316007F7F7F7F7F7F7F7F0000007F7F7F7F7F54
:101326007F7F7F0000003838380000007F7F7F7F96
:101336007F7F7F7F0000007F7F7F7F7F7F7F7F00B3
:1013460000003838380000007F7F7F7F7F7F7F7FF7
:101356000000000000000000000000000000000087
:101366000000000000000000000000000000000077
:101376000000000000000000000000000000000067
:101386000000000000000000000000000000000057
:101396000000000000000000000000000000000047
:1013A6000000000000000000000000000000000037
:1013B6000000000000000000000000000000000027
:1013C6000000000000000000000000000000000017
:1013D6000000000000000000000000000000F8FC13
:1013E6001E0F07030303030303030303030303039C
:1013F60003030303030303030303030303030303B7
:1014060003030303030303030303030303030303A6
:101416000303030303030303030303030303030396
:101426000303030303030303030303030303030386
:101436000303030303030303030303030303030376
:101446000303030303030303030303030303030366
:10145600030303070F1EFCF8FFFF00000000000057
:101466000000000000000000000000000000000076
:101476000000000000000000000000000000000066
:101486000000000000000000000000000000000056
:101496000000000000000000000000000000000046
:1014A6000000000000000000000000000000000036
:1014B6000000000000000000000000000000000026
:1014C6000000000000000000000000000000000016
:1014D600FFFFFFFF0000000000000000000000000A
:1014E60000000000000000000000000000000000F6
:1014F60000000000000000000000000000000000E6
:1015060000000000000000000000000000000000D5
:1015160000000000000000000000000000000000C5
:101526000000000000000000000000000080000035
:101536008000C04040408000008040800000804025
:1015460040408000C00000804000FFFF1F3F78F051
:10155600E0C0C0C0C0C0C0C0C0C0C0C0C0C0C0C065
:10156600C0C0C0C0C0C0C0C0C0C0C0C0C0C0C0C075
:10157600C0C0C0C0C0C0C0C0C0C0C0C0C0C0C0C065
:10158600C0C0C0C0C0C0C0C0C0C0C0C0C0C0C0C055
:10159600C0C0C0C0C0C0C0C0C0C0C0C0C0C0C0C045
:1015A600C0C0C0C0C0C2C5C8C2C5C8C0DFD2D2D2C2
:1015B600CDC0DFC4C4C4DFC0CFD0D0D0C8C0DFC266
:1015C600C5C8D0C0FFFF000000000000005F00009B
:1015D600000E000E00247E247E24242A7F2A122652
:1015E6001608343236495926500000000E003E4196
:1015F600410000000041413E2A1C3E1C2A08083ECC
:1016060008080000004030080808080800000040EC
:101616000020100804023E4549513E00427F40002A
:10162600724949494622494949361814127F102FF2
:10163600494949313E49494932017109050336494B
:10164600494936264949493E0000363600000026FB
:101656003600001824420000141414000042241816
:101666000002015109063E415D553E7C1211127C75
:101676007F494949363E414141227F4141413E7FB2
:10168600494949417F090909013E4149493A7F08CB
:1016960008087F00417F41002040413F017F081438
:1016A60022417F404040407F027C027F7F020C3017
:1016B6007F3E4141413E7F090909063E4151617E17
:1016C6007F09192946264949493201017F01013F0F
:1016D6004040403F1F2040201F3F403E403F4122A8
:1016E6001C2241010678060161514945437F41416B
:1016F60000000204081020000041417F301C071C36
:1017060030404040404001020400003454545478B4
:101716007F444444383844444448384444447F3839
:1017260054545458087E090902185454543C7F08EE
:1017360008087000047D40002040443D007F1038BA
:101746004400007F4000007C047C04787C04040490
:101756007838444444387E1212120C1824246458F3
:101766007C040404084854545424043F4444243C50
:101776004040403C0C3040300C3C4038403C442813
:10178600102844004C50503C645454544C083E417C
:10179600410000007F00000041413E0804020204AF
:1017A6000200000000000000000000000000000031
:1017B60000000000FFFF00000000000033330000BF
:1017C6000000001E1E001E1E00000000000000009B
:1017D6000030FEFE3030FEFE30031F1F03031F1FC6
:1017E6000378FCCCFFFFCCCC8C0C0C0C3F3F0C0FD1
:1017F600070E1F1BDFFE7C1F07303C0F1F3F363EC8
:101806001C1CBEF7E3F73E9C800F1F39391F0F3FA4
:101816003B000006C6FE7C00000000000000000041
:10182600000000FCFE0703000000000F1F38300018
:101836000000000307FEFC0000000030381F0F0008
:1018460000CEDEF0FEFEF0DECE1C1E031F1F031EC2
:101856001CC0C0C0FCFCC0C0C00000000F0F0000D0
:10186600000000000000000000000000002C1C002A
:101876000000C0C0C0C0C0C00000000000000000E2
:1018860000000000000000000000003030000000F2
:1018960000000000C0F03C0F03303C0F03000000C6
:1018A60000F8FE07030307FEF8071F383030381F1D
:1018B6000700181C0EFFFF0000000030303F3F30CD
:1018C600300C0E0783C3E77E3C3C3E373331303065
:1018D600300C0EC7C3C3E7FE3C0C1C383030391F32
:1018E6000F00C0F03C0FFFFF0007070606063F3F4C
:1018F60006FFFF636363E3C3801838303030381F58
:101906000FFCFEC76363E7C6800F1F383030381FF1
:101916000F030303C3F37F1F07303C1F07010000BB
:10192600003CFEE7C3C3E7FE3C0F1F393030391FCA
:101936000F7CFEC78383C7FEFC1838313131381F50
:101946000F0000003030000000000000030300001C
:101956000000008E8E8E0000000000110F070000B0
:101966000080C0E070381C0C00000103070E1C1834
:1019760000303030303030303003030303030303CC
:1019860003000C1C3870E0C08000181C0E07030111
:10199600001C1E0686C6FE7C0000003737010000CC
:1019A60000FEFF03F3FB1BFFFE1F3F3033373637C6
:1019B60033F8FC0E07070EFCF83F3F030303033F13
:1019C6003FFFFFC3C3C3E7FE9C3F3F303030381FA5
:1019D6000FFCFE070303070E0C0F1F383030381CB0
:1019E6000CFFFF03030307FEFC3F3F303030381F78
:1019F6000FFFFFC3C3C3C3C3033F3F303030303094
:101A060030FFFF6363636303033F3F000000000092
:101A160000FCFE070383878E8C0F1F383031313F61
:101A26001FFFFFC0C0C0C0FFFF3F3F000000003FD8
:101A36003F000303FFFF0303000030303F3F303019
:101A46000000000303FFFF03031C3C30303F1F0070
:101A560000FFFFF0381C0E07033F3F03070E1C383C
:101A660030FFFF0000000000003F3F3030303030D4
:101A760030FEFF3EF8F83EFFFE3F3F003F3F003F8F
:101A86003FFFFF3CF0C000FFFF3F3F0000030F3F5A
:101A96003FFCFE07030307FEFC0F1F383030381FDC
:101AA6000FFFFF838383C7FE7C3F3F0101010100D7
:101AB60000FCFE07030307FEFC0F1F38363E1C3FE3
:101AC60037FFFF838383C7FE7C3F3F03070F1D3825
:101AD600303C7EE7C3C3C78E0C0C1C383030391F30
:101AE6000F030303FFFF0303030000003F3F000053
:101AF60000FFFF00000000FFFF0F1F383030381FC7
:101B06000FFFFF80000080FFFF00030F3C3C0F0328
:101B160000FFFF00FFFF00FFFF0F3F3F07073F3FAC
:101B26000F071F3CF0F03C1F07383E0F03030F3E24
:101B3600380F7FF8C0C0F87F0F0000013F3F01005B
:101B460000030383E3FB3F0F07383E3F333030305B
:101B5600300000FFFF0303000000003F3F3030006D
:101B660000030F3CF0C000000000000000030F3C23
:101B76003000000303FFFF0000000030303F3F004D
:101B86000080C0E07070E0C080030100000000012A
:101B960003000000000000000030303030303030EC
:101BA60030000003070E1C180000000000000000B3
:101BB60000607030303030F0E01E3F333333333F57
:101BC6003FFFFF70303070E0C03F1F383030381FA5
:101BD6000FC0E070303070E0C00F1F383030381C56
:101BE6000CC0E070303070FFFF0F1F383030183FE8
:101BF6003FC0E070303070E0C00F1F3B3333333BE3
:101C06001B0060FEFF6363030000003F3F0000000F
:101C160000E0F030303030F0E0193B3333333B1F17
:101C26000FFFFF70303070E0C03F3F000000003F04
:101C36003F000060ECEC0000000000003F3F0000A9
:101C46000000000060ECEC0000183830303F1F0048
:101C560000FFFFC0E0703818003F3F03070E1C3836
:101C660030000000FFFF0000000000001F3F3000B2
:101C760000F0E070F0E070F0E03F3F003F3F003FD3
:101C86003FF0E070303070E0C03F3F000000003FA2
:101C96003FC0E070303070E0C00F1F383030381F62
:101CA6000FF0F030303030F0E03F3F030303030322
:101CB60001E0F030303030F0F00103030303033F5E
:101CC6003FF0F0E0703070E0C03F3F0000000000E1
:101CD60000E0F0303030307060193B333333333F3F
:101CE6001E6060FEFE6060600000001F3F30303006
:101CF60000F0F000000000F0F00F1F383030183F01
:101D06003F70F0C00000C0F07000030F3C3C0F03B2
:101D160000F0F000C0C000F0F00F3F381F1F383F42
:101D26000F60E0C08080C0E06030381D0F0F1D38A6
:101D360030F0F080000080F0F01839333333391F6B
:101D46000F30303030B0F0F070383C3E3733313041
:101D56003000C0FE3F0303000000001F3F3030008C
:101D660000000000FEFE0000000000001F1F000033
:101D760000000003033FFEC000000030303F1F009C
:101D86000080C06060C0C06020000000000000004D
:101D960000FEFF0303FFFE0103030303010006FF2A
:101DA600FF000000030303030086C7E3733F1E031F
:101DB600030303030386873333FFCE0103030303C1
:101DC60001F0FCCFFFFFC0000000030300BFBF33DC
:101DD60033F3E3010303030301FEFF3333F7E601A5
:101DE60003030303010383E3FB3F0F000303000028
:101DF60000CEFF3333FFCE0103030303019EBF333F
:101E060033FFFE010303030301FFFF00000000038D
:101E160003030303030000000000000000000000AD
:101E26000001071F7FFFFFFF7F1F07010000000063
:101E3600010301000000000080E0F8FEFFFEF8E06C
:101E46008000020303030303030303030200FFFEF0
:101E5600FE7C383810100000010000000000000071
:101E6600000020207070F8FCFCFE0000000000005E
:101E76000001010300FF1F1F1F1FE1E1E1E1FF0356
:101E860002020202030303030300FCF292121292FF
:101E9600F2FC000003030302020303030000000038
:101EA600000000000000000000000000000000002C
:101EB6000000F008088870000070880808F000002C
:101EC6000000010101010101010101010000000002
:101ED60000000000000000000000000000000000FC
:101EE60000000000000000000000000000C3474E94
:101EF600FC3870FFC181FF030202030202020303E2
:101F060003C04040F80808FF0101FF030202030274
:101F16000203020203C0C0C0F80808FF0101FF0364
:101F2600030303020203020203C0C0C0F8F8F8FF6D
:101F36000101FF03030303030303020203C0C0C03E
:101F4600F8F8F8FFFFFFFF0303030303030303038C
:101F5600033078FCCE00FFFF63E3F7BE1C000000F1
:101F66000100030300000103030000C0C1C1810199
:101F760040C30103C00280C241C60106C00780C734
:101F8600410500C5C1C4810440CC010CC00D80CD03
:101F9600410F00CFC1CE810E400A00CAC1CB810BD2
:101FA60040C90109C00880C841D80118C01980D9A4
:101FB600411B00DBC1DA811A401E00DEC1DF811F32
:101FC60040DD011DC01C80DC411400D4C1D5811543
:101FD60040D70117C01680D641D20112C01380D354
:101FE600411100D1C1D0811040F00130C03180F1E3
:101FF600413300F3C1F28132403600F6C1F7813732
:1020060040F50135C03480F4413C00FCC1FD813D02
:1020160040FF013FC03E80FE41FA013AC03B80FBD3
:10202600413900F9C1F88138402800E8C1E9812921
:1020360040EB012BC02A80EA41EE012EC02F80EF33
:10204600412D00EDC1EC812C40E40124C02580E542
:10205600412700E7C1E68126402200E2C1E3812351
:1020660040E10121C02080E041A00160C06180A163
:10207600416300A3C1A28162406600A6C1A7816731
:1020860040A50165C06480A4416C00ACC1AD816D02
:1020960040AF016FC06E80AE41AA016AC06B80ABD3
:1020A600416900A9C1A88168407800B8C1B98179A1
:1020B60040BB017BC07A80BA41BE017EC07F80BF33
:1020C600417D00BDC1BC817C40B40174C07580B542
:1020D600417700B7C1B68176407200B2C1B3817351
:1020E60040B10171C07080B041500090C1918151E2
:1020F60040930153C052809241960156C057809733
:1021060041550095C1948154409C015CC05D809D01
:10211600415F009FC19E815E405A009AC19B815BD0
:1021260040990159C058809841880148C049808922
:10213600414B008BC18A814A404E008EC18F814F30
:10214600408D014DC04C808C41440084C185814541
:1021560040870147C046808641820142C043808352
:0921660041410081C1808140402B
:109456004316490000004E0577000000000000009A
:1094660000000000000000420344000042178D0087
:109476000041160E0055161A0000000000000000FC
:1094860000000000000000000000000000420493FD
:1094960000004200DF000042160C000042039D005F
:1094A6000041000E0041189C004204910000471440
:1094B6007C00000000000000431479000000410019
:1094C60000034105E0004106890041178C14410460
:1094D600900041071B014400CAFFFFFFFF4400DB69
:1094E600FFFFFFFF420034FFFF420036FFFF4D0043
:1094F60001FF00A60102F8000000000105854D00ED
:109506000FFF00B40102F8000000000106974D07A6
:109516000EFF00C10102F8000000000100624D18B4
:109526009DFF00D001146C000000000104954B164D
:109536000F53657373696F6E202323004D163C012C
:10954600160F010483000000000103054D0483018A
:10955600160F01189D00000000FF03584D068AFFF4
:10956600010F0102F800000000FF03744D02F8FF2E
:10957600017F01146C00000000FF03904D162FFFC1
:1095860001C601146C00000000FF03D64D00BDFFAC
:1095960001F601146C00000000FF040E602A00387A
:1095A60001FF020201162F06FF020EFF000301FF54
:1095B600021C0102F806FF022CFF6F9901FF023B15
:1095C6000100BD000000000000004D146CFF024ABF
:1095D60001146C0000000001003855001E06FF0251
:1095E6005400000001FF02580000000000000000C7
:1095F60000005518AA07FF0254FFB30B07FF0258D5
:10960600FFCFE3000000000000004D178FFF025B54
:109616000000000000000001001E4D1483FF026AD6
:10962600000000000000000118AA4700E101000048
:10963600000114834D00CE00000000000000000071
:04964600FF0100E13F
:104B5B00E4901AE0F0901AFE04F075840F75FFDEF6
:104B6B0075FFAD12CA4912C21DE49003B2F0900357
:104B7B00A0F090039FF09003B104F0E49003B3F026
:104B8B00A3F09003A1F0A3F09003BCF09003AAF064
:104B9B009003BB744EF09003A9F07B007A00790070
:104BAB009003B812416A9003B512416A9003A612A2
:104BBB00416A9003A312416A0B7A07791C9003AEEA
:104BCB0012416A7A0B79569003C012416A7A1079B6
:104BDB00309003AB12416A7A12794D9003BD1241AA
:104BEB006A7A03799F7F007E847D037C0012966432
:104BFB007B017A0379B17F007E847D037C00129662
:104C0B00647F007E9612D21912D2E975280175299C
:104C1B0014752A6A7B017A16790A12B4D812A87A0B
:104C2B00125A58D2AF12B90843F840E4FF12C32905
:104C3B007BFF7A04792A7D2D12BB40E4901AE1F0B8
:104C4B00A3F0900347E493FF3395E0FE9003AB751D
:104C5B00F012EF124133EE75F012A42583F5831297
:104C6B004161900007E4123D3D7556007557017B7D
:104C7B00917D027F0312988890164AE070FA900398
:094C8B00A3124161E94A4B6031BA
:104C94009003A31241618B228A2389249005E07436
:104CA40001F07B007A0079009003A312416AAB22E1
:104CB400AA23A924E4FF12216F901AE3EEF0A3EFD4
:014CC400F0FF
:104CC5009005E0E0701E901AE1E475F001123DFCDC
:104CD500C3901AE2E09403901AE1E0648094805056
:104CE50003024C4D9005E0E0604B75560075570189
:104CF5007B707D027F0312988890164AE070FA90C7
:0A4D050003A3124161E94A4B602B41
:104D0F009003A31241618B228A2389247B007A00AE
:104D1F0079009003A312416AAB22AA23A924E4FFCE
:0B4D2F0012216F901AE3EEF0A3EFF0EA
:104D3A00901775E0FFA3E0901AE5CFF0A3EFF0908B
:104D4A001777E0FFA3E0901AE7CFF0A3EFF0E5D8DA
:034D5A0030E03214
:104D5D00901ACF124102000A4CB8E4FFFEFDFC9000
:104D6D001ACF1240DAD31240474017901ACF124093
:104D7D00BE74FFFBFAF9F8123F0F901ACF1240F6EE
:024D8D0080D8CC
:104D8F00E4FF12C3299005E0E0FF128B4CEF705245
:104D9F007BFF7A027978F55675572DFF12B5BE7BDA
:104DAF00FF7A027984E4F55675572D7F0212B5BE4E
:104DBF00901AD312410200225510E4FFFEFDFC9021
:104DCF001AD31240DAD31240474017901AD3124029
:104DDF00BE74FFFBFAF9F8123F0F901AD31240F688
:024DEF0080D86A
:104DF100E4FF12C3297BFF7A02798FE4F5567557D8
:104E01002DFF12B5BE7564FF75650275669C7567E9
:104E110000756801756900756A1E756B00756C0611
:104E21007B017A1A79E9126B867B017A1A79E9E4B6
:104E3100F54075412D7F0212B3F29005E0E0604725
:104E41007564FF7565027566B4901AE5E0FAA3E032
:104E5100FB7C007D64FFAE02123D718E678F687C22
:104E6100007D64AF03AE02123D718C698D6AA3E0CF
:104E7100F56BA3E0F56C7B017A1A79E9126B867BFD
:104E8100017A1A79E980067BFF7A0279CCE4F54050
:0D4E910075412D7F0312B3F2E5D830E032F9
:104E9E00901AD712410200112A88E4FFFEFDFC9001
:104EAE001AD71240DAD31240474017901AD7124041
:104EBE00BE74FFFBFAF9F8123F0F901AD71240F6A4
:024ECE0080D88A
:104ED000E4FF12C3297BFF7A0279E1E4F5407541D2
:104EE0002DFF12B3F27B017A17790CE4F54075417E
:104EF0002D7F0212B3F27B017A177920E4F5407519
:104F0000412D7F0312B3F27B017A0079E8755D00D1
:104F1000755E037F107E0212BF409005E0E07003D3
:104F2000025019900347E493FF3395E0FE9003ABE2
:104F300075F012EF124133EE75F012A42583F5835C
:104F4000124161900007E4123D3D9003AB75F012F1
:104F5000EF124133EE75F012A42583F583124161FF
:104F60009000087403123D3DE4901AE1F0A3F09024
:104F70001AE1E0FEA3E0FFC39410EE648094825037
:104F80004D74E82FF58274003EF583E0FF900347EF
:104F9000E493FD3395E0FC9003AB75F012ED124104
:104FA00033EC75F012A42583F583124161901AE267
:104FB000E02409FD901AE1E034008D82F583EF12C0
:104FC0003D3D901AE1E475F001123DFC80A175565B
:104FD000027557127B987D027F0312988890164ABB
:0E4FE000E070FA9003A3124161E94A4B602B86
:104FEE009003A31241618B228A2389247B007A00CD
:104FFE0079009003A312416AAB22AA23A924E4FFED
:0B500E0012216F901AE3EEF0A3EFF008
:10501900E4901AE1F0A3F0901AE1E0FEA3E0FFC3E7
:105029009404EE6480948050347C007D28123D5FA6
:1050390074E82FF974003EFA7B01C00174902FF9CE
:10504900740F3EA801FC7D01D0017E007F28123C2F
:105059008C901AE1E475F001123DFC80BAE4901AD3
:10506900E1F0A3F0901AE1E0FEA3E0FFC39402EEA1
:105079006480948050347C007D24123D5F74182F25
:10508900F974023EFA7B01C001742F2FF974053EB1
:10509900A801FC7D01D0017E007F24123C8C901A6E
:0F50A900E1E475F001123DFC80BAE5D830E03249
:1050B800901ADB124102000BAC48E4FFFEFDFC90A5
:1050C8001ADB1240DAD31240474017901ADB12401D
:1050D800BE74FFFBFAF9F8123F0F901ADB1240F684
:0250E80080D86E
:1050EA00E4FF12C32953F8BF7B017A0079E8755DA2
:1050FA0000755E017F107E0212BF409000EBE05403
:10510A000F24FC600C2402701090178C7414F08029
:10511A000E90178C7428F0800690178C740AF09001
:10512A0000ECE0900490F090146AE0FCA3E0FD7FAC
:10513A00017E0012C74A900490E030E7034403F06E
:10514A00E4901AE1F0A3F0901AE1E0FEA3E0FFC3B5
:10515A009410EE64809482501774E82FF5827400DC
:10516A003EF583E4F0901AE175F001123DFC80D718
:07517A007D037F0012436773
:10518100C3900584E094F0900583E0940040077D8E
:10519100067F01124367E5D830E607E4900583F006
:1051A100A3F0E4901ADFF0901ADFE0FFC3940650F9
:1051B1005374017E00A807088005C333CE33CED8CF
:1051C100F9FFADD8EF5D6034901ADFE0FD25E024F2
:1051D10077F582E43405F583E0FEA3E0C39409EE9C
:1051E100940040057F01124367901ADFE025E02417
:1051F10077F582E43405F583E4F0A3F0901ADFE05B
:0F52010004F080A39003A3124161E94A4B602B94
:105210009003A31241618B228A2389247B007A00A8
:1052200079009003A312416AAB22AA23A924E4FFC8
:0B52300012216F901AE3EEF0A3EFF0E4
:0B523B009003B5124161E94A4B602B63
:105246009003B51241618B228A2389247B007A0060
:1052560079009003B512416AAB22AA23A9247F01E3
:0B52660012216F901AE3EEF0A3EFF0AE
:1052710090178DE07002A3E07003025181E4901752
:105281008DF0A3F0900689E0FFB4F01890160EF0AF
:10529100E490160CF0A3F090000E74FFF0FB7A027C
:1052A10079F68012900689E0FFB4F11590160EF0A0
:1052B1007BFF7A0279FE12D28EE4900689F00251C8
:1052C10081900689E0FF64F2600302518190160E1D
:1052D100EFF07BFF7A03790612D28E90160BE02451
:1052E100FFFD90160AE034FFFC7B01E4FFFE12C0D3
:0752F10074E4F58443EF01B2
:0352F800025181DF
:0300000002C10535
:0CC10500787FE4F6D8FD75818002C14C03
:10AF3C002530326420004C49535420454D5054590F
:10AF4C00002A004E6F205355004E6F20496E7075CD
:10AF5C00747300472D466F7263657300496E70758C
:10AF6C007473004D656D2046756C6C002530326431
:10AF7C00004D454D2025644B2F25644B2C2025641A
:10AF8C002525004C4150532025642C20524154451A
:10AF9C00203130487A004C4150532025642C2052EB
:10AFAC00415445203230487A004C4150532025649E
:10AFBC002C2052415445203430487A0054656D7031
:10AFCC002025332E32662046005265632054696D6D
:10AFDC00653A2025322E3166204872730053657312
:10AFEC007320417661696C3A20256400492F4F3AF1
:10AFFC0020412D2D2D2D20442D2D20462D2D005062
:10B00C006F7765723A2025752525004E6F204C61AF
:10B01C00707300436F6E7420256400474D542025D7
:10B02C002B303264004C6170486F6C6420253364A3
:01B03C000013
:03964A00011C01FF
:10A6E8007B017A1B7957E4F55DF55E7F107E0212D7
:10A6F800BF40E4901D68F0901D67F0901D67E0FF73
:10A70800C39415400302A81475F019EF901B571253
:10A718004133E0FEA3E0F47002EEF4700302A80BEC
:10A72800901D67E075F019901B59124133E0FEA3A4
:10A73800E0F47002EEF4700302A80B901D68E07557
:10A74800F012A42490F9741435F0FA7B017564FFB3
:10A758007565AF75663C901D67E02401FFE433F52D
:10A76800678F68126B86901D67E075F019901B5B08
:10A778001241331240BEC006C007901D67E075F055
:10A7880019901B5F124133E0F557A3E0F558E4F543
:10A7980059901D68E075F012A42493F9741435F0EB
:10A7A800755A01F55B895CD007D00612868A901D20
:10A7B80068E0FF75F007A42495F582E43404F58376
:10A7C8007406F07BFF7AB0793DEF75F007A4249901
:10A7D800F582E43404F58312416AEF75F012A4247B
:10A7E80090F9741435F0FA7B01901D68E075F00754
:10A7F800A42496F582E43404F58312416A901D6816
:10A80800E004F0901D67E004F002A703901D68E0E3
:10A81800FD9018A3F0D394035003E480069018A386
:10A82800E024FD9018A6F09018A3E070028002EDD5
:10A83800149018A5F09018A4F0901D68E0FF75F02A
:10A8480007A42495F582E43404F583E4F0FBFAF9CF
:10A85800EF75F007A42499F582E43404F5831241D6
:10A868006AEF75F007A42496F582E43404F58302B0
:02A87800416A33
:10436700151EA81EA605151EA81EA607E51E24F9DC
:02437700F51E31
:10437900E51C60337B017A14796C901F7A12416ACB
:104389001B7A007900901F7D12416A901F801241AB
:104399006AE4901F85F0901F84F0901F83F0901FAE
:1043A9008712416AE4F51CE51E2407F8E614700338
:1043B90002453D046003024B54901F7A12416190FB
:1043C9000006123CCB7048900006123D3D901F7AC2
:1043D90012416190000A124193C003C002C00190CA
:1043E9001F7A124161900006123CCB75F007A4F5C3
:1043F9008285F083D001D002D003123CCB601090AB
:104409001F7A1241619000067401123CF880BE12B5
:10441900D2D7901F7A124161900009123CCBB4FFA8
:104429000302464AE4FF12C32975610075620775E4
:1044390063FF7564097565E275662D7B7A7A00E418
:10444900FDFCFFFE128DA1901F7A1241611241738A
:1044590012D2AFC374149FFFE49EFE7C007D061246
:104469003D5F7D02123DC6A81EEFF6FD901F7A1230
:10447900416112417375532DE4FF12B77A901F7A87
:1044890012416190000A124193123CB2FFB4031920
:10449900901F7A124161900009E4123D3D90000895
:1044A900E4123D3D9000078069EF64026003024712
:1044B90017901F7A124161900009123CCBFF9000BE
:1044C90007123CCBFEC39F4013EF2402FDE433FCEB
:1044D900EED39DEC6480F87480984055901F7A1251
:1044E9004161900007123CCB900008123D3D9000BD
:1044F90006123CCBFFD39403400F901F7A124161FF
:10450900900008123CCBFE700C901F7A124161900A
:104519000009E48019EF24FDFFEE14FEC39F500447
:10452900AF068000901F7A124161900009EF123D99
:104539003D024717E51E2408F8E67003024B5114A3
:10454900700302478824FE700302471D147003029A
:1045590045F824FE7003024AC324046003024B5445
:10456900901620124161E94A4B6012901F7A12415C
:1045790061C003C002C001901620024612901F7A42
:10458900124161900009123CCBF470199000081295
:104599003CCBD394005003024B5490000874FF1293
:1045A9003CF802464A901F7A124161900006123C7B
:1045B900CB7003024B54900008123CCBFF900009CA
:1045C900123CCBFEC39F5008901F7A1241618014A0
:1045D900EED394004016901F7A124161900009743D
:1045E900FF123CF890000874FF123CF8024717903C
:1045F9001626124161E94A4B6015901F7A124161F2
:10460900C003C002C00190162612416102495290AE
:104619001F7A124161900009123CCBF4704A900054
:1046290006123CCB14FF900008123CCBD39F4003E9
:10463900024B54901F7A1241619000087401123C98
:10464900F8900008123CCB75F007A4FFAEF090007B
:104659000A124193E92FF9EA3EFA900001124193B7
:104669007D2D12BB40024B54901F7A12416190007C
:1046790006123CCBFF7003024B54900009123CCB4D
:10468900FE900008123CCBFDC39EC394025046EF36
:1046990024FFFFE434FFFEED2401FDE433FCC3ED08
:1046A9009FEE6480F8EC648098901F7A500D124157
:1046B90061900008123CCB04FF800B12416190000D
:1046C90006123CCB14FF901F7A124161900008EF4B
:1046D900123D3D8039901F7A124161900009123CC8
:1046E900CB2403FFE433FE900006123CCBFDC3EF5D
:1046F9009D7480F86E985016901F7A12416190004F
:10470900097401123CF89000087401123CF81284F3
:104719001F024B54901623124161E94A4B604490A1
:104729001F7A124161C003C002C0019016231241D1
:104739006189828A83D001D002D003124246A81E21
:1047490008124158A81E0812413FE94A4B7003025A
:104759004B54A81E0812413F901F7A12416A7D03EB
:10476900024A4E901F7A12416190000312419390C0
:104779001F7A12416AE490160EF07D030249D09027
:10478900161D124161E94A4B6044901F7A1241613A
:10479900C003C002C00190161D12416189828A833B
:1047A900D001D002D003124246A81E08124158A8CF
:1047B9001E0812413FE94A4B7003024B54A81E08D8
:1047C90012413F901F7A12416A7D01024A4E901FA1
:1047D9007A12416190000A124193E94A4B7003022F
:1047E9004B54901F7A12416190000A124193C00301
:1047F900C002C001901F7A124161900008123CCB9F
:10480900FF75F007A4F58285F083D001D002D003AB
:10481900123CCB24FE604C24FE7003024A5224FE53
:1048290070030249D41470030248E3147003024967
:104839006224076003024B54901F7A124161EF759D
:10484900F007A4FFAEF090000A124193E92FF9EAAC
:104859003EFA900004124193901F7A12416A7D0139
:10486900024A4E901F7A124161900008123CCB9087
:104879000007123D3DE490160EF0900008123CCB63
:1048890075F007A4FFAEF090000A124193E92FF9E1
:10489900EA3EFA900004124193E94A4B6037901FAF
:1048A9007A124161C003C002C001901F7A124161AE
:1048B90090000A124193E92FF9EA3EFA9000041296
:1048C900419389828A83D001D002D003124246A83B
:1048D9001E081241587D01024A4E901F7A12416109
:1048E900A81E08124158901F8012416A7B017A1F45
:1048F900797D901F7A12416AA81E0812413F9000E3
:1049090008123CCB75F007A4FFAEF090000A1241E3
:1049190093E92FF9EA3EFA900004124193E94A4BD0
:104929007003024B54A81E0812413FC003C002C0C5
:1049390001A81E0812413F90000A124193E92FF97C
:10494900EA3EFA90000412419389828A83D001D009
:1049590002D003124246024B54901F7A12416190D1
:104969000003124193901F7A12416A900008123C89
:10497900CB75F007A4FFAEF090000A124193E92F1E
:10498900F9EA3EFA900004124193E94A4B60317BFF
:10499900007A007900C003C002C001901F7A124159
:1049A9006190000A124193E92FF9EA3EFA90000456
:1049B90012419389828A83D001D002D003124246E0
:1049C900E490160EF07D01FF024ABD901F7A124154
:1049D90061900008123CCB75F007A4FFAEF090007F
:1049E9000A124193E92FF9EA3EFA90000412419321
:1049F900E94A4B6037901F7A124161C003C002C077
:104A090001901F7A12416190000A124193E92FF92E
:104A1900EA3EFA90000412419389828A83D001D038
:104A290002D003124246A81E08124158A81E0812B5
:104A3900413FE94A4B600CA81E0812413F901F7A7A
:104A490012416A7D017F00806B901F7A124161904B
:104A5900179212416A901F7A124161900008123C24
:104A6900CB75F007A4FFAEF090000A124193E92F2D
:104A7900F9EA3EFA900004124193C003C002C00152
:104A89009017991241619000041241C3901F7A1244
:104A99004161C003C002C0019017991241619000A1
:104AA9000B1241C37B017A17798F901F7A12416AE1
:0A4AB9007D017F00124367024B5499
:104AC30053F8DF53F8BF7BFF7A1079147D2D12BBA7
:104AD3004090160EE0FFC39401401EEFD394135091
:104AE3001890000EE0FF90160CE0FCA3E0FD90038D
:104AF3009DE0FAA3E0FB12AB5A90160EE0B401035B
:104B030012D1C312D26AE51E2404F8EFF630E7F39C
:104B1300E4F556F5577B937D027F03129888E51ED3
:104B23002405F8E4F608F6E51E2405F8E6FE08E693
:104B3300FFE4FCFD7B407A9CF9F8D312404740D058
:0E4B4300E51E2405F80806E61870DC0680D989
:034B510063F840C6
:074B5400E51E2409F51E22F5
:10841F00901F7A124161900006123CCB703EF561BD
:10842F007562077563FF75640675651275662D7B3A
:10843F007AFA7D10FCFFFE128DA17BFF7AAF794295
:10844F0012D2AFEF75F006A4FFC3747A9FFD7BFFC6
:0C845F007AAF794275535E7F0202B77A53
:10846B00901B397401F0901F7A1241619000061233
:10847B003CCBFF7403C39F50047F038000901B39D8
:10848B00E0FED39F4003028689900009123CCBFD8E
:10849B00EE2DFFE433FE7C007D07123D5F90000A5A
:1084AB00124193E92FF9EA3EFA90FFF9123CCB64A3
:1084BB00036025901F7A124161900009123CCBFF9B
:1084CB00901B39E02F14FF900008123CCBB5070826
:1084DB00901B3A747EF08006901B3A742DF07BFF54
:1084EB007A06798C901B3B12416A901F7A1241617C
:1084FB00900006123CCBFFB401087BFF7A0879EEA3
:10850B008061901B39E0FE24FE6023146025240259
:10851B007057901F7A124161900009123CCB7BFF80
:10852B0070067A0779FA80047A0779068035EF644A
:10853B00027036901F7A124161900009123CCBFDFC
:10854B00EE2DFFE433FE900006123CCB7C00B5070A
:10855B000CECB506087BFF7A08797480067BFF7AF2
:10856B00077980901B3B12416A901B39E075F0082C
:10857B00A4FDACF0756100756207901B3B12416165
:10858B008B638A648965901B3AE0F5667B7A7A0087
:10859B00E4FFFE128DA1901F7A1241619000091227
:1085AB003CCBFF901B39E02FFFE433FE7C007D07B3
:1085BB00123D5F90000A124193E92FF9EA3EFA90BF
:1085CB00FFFA12419312D2AFEF75F006A4FFC374FA
:1085DB007A9F901B3EF0901F7A1241619000091216
:1085EB003CCBFF901B39E0FE2F14FD900007123C93
:1085FB00CB6D7042901F7A124161EFFDEE2DFFE4BF
:10860B0033FE7C007D07123D5F90000A124193E917
:10861B002FF9EA3EFA90FFF9123CCBB40218901BEB
:10862B0039E0FF901B3EE024F4FD7BFF7AAF794DE0
:10863B0075535E12B77A901F7A124161900009123E
:10864B003CCBFF901B39E02FFFE433FE7C007D0712
:10865B00123D5F90000A124193E92FF9EA3EFA901E
:10866B00FFFA124193901B39E0FF901B3EE0FD7522
:0E867B00535E12B77A901B39E004F00284714E
:0186890022CE
:0652FB008B478A48894937
:10530100E4901B5AF09005E0E0700C7BFF7AAF79D6
:075311004F12D28E02585D1D
:10531800AB47AA48A949900008123CCBF54A7B0143
:105328007A0079E8755D00755E037F107E0212BF12
:1053380040E4901B5BF0901B5BE0FFC3940450308B
:10534800EF75F028A4FFAEF024E8F974003EFA7B6C
:1053580001C00174902FF9740F3EA801FC7D01D0A3
:10536800017E007F28123C8C901B5BE004F080C615
:10537800E4901B5BF0901B5BE0FFC394025030EF9E
:1053880075F024A4FFAEF02418F974023EFA7B01EC
:10539800C001742F2FF974053EA801FC7D01D001CE
:1053A8007E007F24123C8C901B5BE004F080C6904A
:1053B8000347E493FF3395E0FE9003AB75F012EFDB
:1053C800124133EE75F012A42583F58312416190E2
:1053D8000007E4123D3D9003AB75F012EF12413324
:1053E800EE75F012A42583F58312416190000874CC
:1053F80003123D3DE4901B58F0A3F0901B58E0FECB
:10540800A3E0FFC39410EE9402504D74E82FF58288
:1054180074003EF583E0FF900347E493FD3395E085
:10542800FC9003AB75F012ED124133EC75F012A449
:105438002583F583124161901B59E02409FD901BD7
:1054480058E034008D82F583EF123D3D901B58E4FF
:1054580075F001123DFC80A37556027557127B98B2
:105468007D027F0312988890164AE070FA7B017AD1
:105478000079E8755D00755E017F107E0212BF40FD
:105488009000E9E0900346F09000EBE0540F901B89
:105498005BF09000EAE075F0169001BD124133E030
:1054A800FFA3E0900397CFF0A3EFF09000EAE07538
:1054B800F0169001BF124133E0FFA3E0900399CFAB
:1054C800F0A3EFF09000EAE075F0169001C11241E8
:1054D80033E0FFA3E090039BCFF0A3EFF09000EC44
:1054E800E0900490F090071B7401F0FB7A0079BDFE
:1054F800E5478548838549826401700A74BD6582E1
:105508007004740065837006740A254AF54AE54AF2
:1055180012421C553D0056AC0156BD0256CA0357EF
:105528004F0457A70557B40657F50A58070B5819DB
:105538000C0000585D7BFF7A0A795C7D2D12BB4018
:10554800E4900391F0A3F0A3F0A3F090037A124142
:105558000200000000900365124102000000009064
:1055680003801241020000000090036B1241020008
:105578000000009003841241020000000090036FB5
:1055880012410200000000E4900388F0A3F09003A9
:1055980073F0A3F0A31241020000000090038A12E6
:1055A800410200000000E490038EF0900379F0902F
:1055B8001B58F0A3F0901B58E0FEA3E0FFC39484AF
:1055C800EE94005026EF7802C333CE33CED8F924B8
:1055D800BFF58274183EF583124102FFFFFFFF906A
:1055E8001B58E475F001123DFC80CA7B017A0079F2
:1055F800E8755D00755E027F107E0212BF40900361
:1056080046E075F01C9000F81241331240BE90033A
:10561800561240F6900346E075F01C9000FC1241CB
:10562800331240BE90035A1240F6900346E075F0DC
:105638001C900100124133E0FFA3E090035ECFF01D
:10564800A3EFF0900346E075F01C9001021241337D
:10565800E0FFA3E090038FCFF0A3EFF074FFFFFE0D
:10566800FDFC9003561240DAC3124047600C9003C9
:10567800561240BEEC4D4E4F70157BFF7AD0792103
:1056880090161D12416A90160E7405F00257ED7BB4
:10569800FF7AD179EF90161D12416A90160E741395
:1056A800F00257EDE4FF12C32990160E7402F09031
:1056B8001B5A14806790160E7409F0901B5A7401D7
:0256C800805A06
:1056CA00901B577402F0901B57E0FFC39407501EBB
:1056DA00900490E0FEA807088002C313D8FC540186
:1056EA00901B56F07008901B57E004F080D8901B6E
:1056FA0056E06040A3E0FFB4060890160E7409F065
:10570A008013EFB4050890160E740FF08007EF248B
:10571A000990160EF0901B5A7401F07BFF7AD37928
:10572A004090162012416A7AB679A2901626124142
:10573A006A02585D7BFF7AAF795512D28E90160EA7
:05574A0074E402585751
:10574F0090160E7411F0901B5A7401F07BFF7AD3F0
:10575F00794090162012416A7AB679A290162612D5
:10576F00416AE4FF12C3297561007562077563FF13
:10577F007564097565E275662D7B7A7A00E4FDFC28
:10578F00FFFE128DA17BFF7AAF795F75532D7D24BC
:10579F00E4FF12B77A02585DE4FF12C32990160E88
:1057AF007408F08039E4FF12C32975610075620730
:1057BF007563FF7564097565E275662D7B7A7A00EE
:1057CF00E4FDFCFFFE128DA17BFF7AAF7968755364
:1057DF002D7D2AE4FF12B77A90160E740AF0901BF3
:1057EF005A7401F08068E4FF12C32990160E7415E5
:1057FF00F0901B5B74028050E4FF12C32990160EC9
:10580F007414F0901B5B7402803EE4FF12C3297581
:10581F0061007562077563FF7564097565E27566EA
:10582F002D7B7A7A00E4FDFCFFFE128DA17BFF7ABF
:10583F00AF796875532D7D2AE4FF12B77A90160E53
:0E584F007416F0901B5B7402F0E4901B5AF08C
:10585D00901B5AE06042E4900493F0A3F09000DFB7
:10586D00F0A3F090071B04F090001C04F0A3740F3C
:10587D00F0754E01754F0375509D7B017A16790CAD
:10588D00127E4F90000EEFF0700E7BFF7AAF796FA6
:10589D0012D28EE490160EF090160EE0FF700302F9
:0258AD005A455A
:1058AF00900347E493FD3395E0FC9003AB75F01242
:1058BF00ED124133EC75F012A42583F5831241618B
:1058CF00900007EF123D3D901B5BE0FF9003AB751F
:1058DF00F012ED124133EC75F012A42583F583120B
:1058EF004161900008EF123D3D900490E0FF90035E
:1058FF00AB75F012ED124133EC75F012A42583F560
:10590F0083124161900009EF123D3DE4F54AE54AEB
:10591F0075F028A424A8F582E4340FF583E024FB66
:10592F00603224FB705C900347E493FF3395E0FEF5
:10593F009003AB75F012EF124133EE75F012A42500
:10594F0083F583124161740A254AF582E433F583A6
:10595F007403805A900347E493FF3395E0FE90035E
:10596F00AB75F012EF124133EE75F012A42583F5EB
:10597F0083124161740A254AF582E433F583740278
:10598F00802C900347E493FF3395E0FE9003AB75B3
:10599F00F012EF124133EE75F012A42583F5831246
:1059AF004161740A254AF582E433F5837404123D8C
:1059BF003D054AE54A6404600302591D9000EAE080
:1059CF0075F0169001BD124133E0A3E0540FFF9024
:1059DF000347E493FD3395E0FC9003AB75F012EDB4
:1059EF00124133EC75F012A42583F58312416190B7
:1059FF00000EEF123D3D9000EAE075F0169001BFEA
:105A0F00124133E0FEA3E0FF9003AB75F012ED12ED
:105A1F004133EC75F012A42583F583124161900098
:105A2F000FEE8FF0123EE275560075570A7B917D8F
:065A3F00027F03129888AB
:105A45007BFF7A9E793090162312416A7B007A009B
:025A55007900D6
:015A5700222C
:10D05E008B478A488949E490160EF0FFFE12CD7672
:10D06E0090160BE024FFFD90160AE034FFFC7B01C6
:10D07E007F047E0012C074125A58E4FF12C3297B3B
:06D08E00017A0279F8228C
:10D165008B478A488949E490160EF090160BE02407
:10D17500FFFD90160AE034FFFC7B01E4FFFE12C0C0
:10D1850074125A58E4FF12C3297B017A0279F822F6
:06C5FC008B4A8A4B894CBA
:10C602007B017A1D796A755D00755E017F107E027D
:10C6120012BF40900008E0901D6AF0900016E09072
:10C622001D6BF0900715E0901D6CF0A3E054F0F044
:10C6320090178CE024D8600D24147010901D6DE0CA
:10C642002402F08007901D6DE02404F07B017A1D26
:10C65200796A755F007560017D107C027F027E0041
:09C6620012C191AB4AAA4BA94C8C
:01C66B0022AC
:10D100008B478A488949900008123CCB24FE600B6B
:10D1100004701090178C7414F0800E90178C742883
:10D12000F0800690178C740AF012C5FCAB47AA4831
:03D13000A94922E8
:06A38A008B478A48894957
:10A39000E490160EF07B017A1B7956F55D755E012F
:10A3A0007F107E0212BF40901B56E0900008F09094
:10A3B0001B58E0900715F0901B57E0900016F0E452
:10A3C000901D68F0A3F0901D66F0A3F0901D66E06C
:10A3D000FEA3E0FFC3940CEE64809480400302A4CB
:10A3E000F1EFC4F8540FC868FFEEC454F048FE748F
:10A3F0005B2FF582741B3EF583E0F4700302A4E446
:10A40000745B2FF582741B3EF583E0700302A4E4B5
:10A41000901D69E0C4F8540FC868FF901D68E0C43F
:10A4200054F048FE744C2FF974163EFA7B01C003B9
:10A43000C001901D67E0C4F8540FC868FF901D6606
:10A44000E0C454F048FE745B2FF9741B3E8B4DF54D
:10A450004E894F755000755110D001D00312CB9F1B
:10A46000901D68E0FCA3E0FDC4F8540FC868FFEC41
:10A47000C454F048FE745B2FF58274163EF583E4F5
:10A48000F090058575F007ED124133EC75F007A4E7
:10A490002583F5837402F07BFF7AC579FC901D68F3
:10A4A000E0FCA3E0FD90058975F007124133EC75DF
:10A4B000F007A42583F58312416A744C2FF97416B2
:10A4C0003EFA7B0190058675F007ED124133EC757D
:10A4D000F007A42583F58312416A901D68E475F0A6
:10A4E00001123DFC901D66E475F001123DFC02A3D3
:10A4F000CC901D68E0FEA3E0FF90058575F0071283
:10A500004133EE75F007A42583F583E4F0FBFAF9F7
:10A5100090058975F007EF124133EE75F007A42519
:10A5200083F58312416A90058675F007EF12413377
:10A53000EE75F007A42583F58312416A0B7A007942
:01A540000119
:01A5410022F7
:06A1CF008B478A48894914
:10A1D500E490160EF07B017A1B7956F55D755E01EC
:10A1E5007F107E0212BF40901B56E0900008F09051
:10A1F5001B58E0900715F0901B57E0900016F0E40F
:10A20500901D68F0A3F0901D66F0A3F0901D66E028
:10A21500FEA3E0FFC3940CEE64809480400302A388
:10A2250039901C1B75F016EF124133EE75F016A42C
:10A235002583F583E0F4700302A32C901D66A3E04B
:10A24500901C1B75F016124133EE75F016A425838C
:10A25500F583E0700302A32C901D69E0C4F8540F48
:10A26500C868FF901D68E0C454F048FE74C32FF918
:10A2750074033EFA7B01C003C001901D66E0FEA396
:10A28500E0FF7C007D16123D5F741B2FF9741C3EA8
:10A295008B4DF54E894F755000755110D001D00387
:10A2A50012CB9F901D68E0FCA3E0FDC4F8540FC8D5
:10A2B50068FFECC454F048FE74D22FF58274033E57
:10A2C500F583E4F090006275F007ED124133EC750B
:10A2D500F007A42583F5837402F07BFF7AC579FC2A
:10A2E500901D68E0FCA3E0FD90006675F007124143
:10A2F50033EC75F007A42583F58312416A74C32FE7
:10A30500F974033EFA7B0190006375F007ED124185
:10A3150033EC75F007A42583F58312416A901D6817
:10A32500E475F001123DFC901D66E475F001123DE7
:10A33500FC02A211901D68E0FEA3E0FF900062758B
:10A34500F007124133EE75F007A42583F583E4F099
:10A35500FBFAF990006675F007EF124133EE75F0E0
:10A3650007A42583F58312416A90006375F007EF12
:10A37500124133EE75F007A42583F58312416A0B6C
:04A385007A07790ECC
:01A3890022B1
:06A001008B478A488949E3
:10A00700E490160EF07B017A1B7956F55D755E01BB
:10A017007F107E0212BF40901B56E0900008F09020
:10A027001B58E0900715F0901B57E0900016F07B47
:10A03700017A1B7956755D00755E027F107E0212EC
:10A04700BF40E4901D68F0A3F0901D66F0A3F09068
:10A057001D66E0FEA3E0FFC39410EE648094804089
:10A067000302A17E901B5675F01CEF124133EE756B
:10A07700F01CA42583F583E0F4700302A171901D01
:10A0870066A3E0901B5675F01C124133EE75F01C69
:10A09700A42583F583E0700302A171901D69E0C4D4
:10A0A700F8540FC868FF901D68E0C454F048FE7468
:10A0B7009C2FF974173EFA7B01C003C001901D66FF
:10A0C700E0FEA3E0FF7C007D1C123D5F74562FF974
:10A0D700741B3E8B4DF54E894F755000755110D04E
:10A0E70001D00312CB9F901D68E0FCA3E0FDC4F8EC
:10A0F700540FC868FFECC454F048FE74AB2FF582C8
:10A1070074173EF583E4F090069775F007ED12415A
:10A1170033EC75F007A42583F5837402F07BFF7A8F
:10A12700C579FC901D68E0FCA3E0FD90069B75F0E7
:10A1370007124133EC75F007A42583F58312416AB2
:10A14700749C2FF974173EFA7B0190069875F007F7
:10A15700ED124133EC75F007A42583F58312416AAC
:10A16700901D68E475F001123DFC901D66E475F0E2
:10A1770001123DFC02A056901D68E0FEA3E0FF908F
:10A18700069775F007124133EE75F007A42583F59E
:10A1970083E4F0FBFAF990069B75F007EF12413361
:10A1A700EE75F007A42583F58312416A900698752A
:10A1B700F007EF124133EE75F007A42583F58312FC
:07A1C700416A0B7A00790FD9
:01A1CE00226E
:06C66C008B478A48894952
:10C672007B017A1B7956755D00755E017F107E0223
:10C6820012BF40901B56E0900008F0901B58E090BB
:10C692000715F0901B57E0900016F0901B59E054DC
:10C6A2000F24FC60112402701A90178C7414F090FD
:10C6B20006927401801790178C7428F09006927479
:10C6C20002800A90178C740AF0E4900692F09006A9
:08C6D20091F07B017A06798AE0
:01C6DA00223D
:100003008B228A23892490160E7417F012A6E87B9C
:06001300017A18799D221C
:06B03D008B4A8A4B894C8E
:10B04300E490160EF07B017A0079E8F55DF55E7FFA
:10B05300107E0212BF40E4901D6BF0A3F0901D69B7
:10B06300F0A3F0901D69E0FEA3E0FFC39415EE6426
:10B07300809480506E9000E875F019EF124133EE22
:10B0830075F019A42583F583E0FEA3E0F47002EEC6
:10B09300F46044901D69E0FEA3E09000EA75F019A6
:10B0A300124133EE75F019A42583F583E0FEA3E086
:10B0B300F47002EEF46020AB4AAA4BA94C9000084E
:10B0C300123CCBFF901D6BE475F001123E12FCE5C0
:10B0D300F06F7001EC600C901D69E475F001123D96
:10B0E300FC808090048312416112D2AF901D6BEEFD
:10B0F300F0A3EFF0900483124161EF24FEFFEE34DE
:10B10300FFFEE92FF9EA3EFA7564FF7565AF7566D0
:10B1130078901D6AE02401F568901D69E03400F51C
:0AB1230067126B867B017A047983C2
:01B12D0022FF
:06663C008B478A488949E2
:10664200E490160EF07B017A16790F90163C1241F7
:106652006A7A04798390163F12416A7A0379059027
:10666200164612416AE4901645F0901644F09016D0
:1066720043F0901642F0901B56F0A3F0901B56E0A8
:10668200FEA3E0FF90030575F007124133EE75F0AB
:1066920007A42583F5837403F07C007D15123D5F0A
:1066A20074E12FF974053EFA7B01901B56E0FEA3BC
:1066B200E0FF90030675F007124133EE75F007A470
:1066C2002583F58312416A1B7A00790090030975CC
:1066D200F007EF124133EE75F007A42583F583121C
:1066E200416A901B56E475F001123DFC901B56E086
:1066F2007004A3E064087084E490033DF0FBFAF9AF
:10670200A312416A90034112416A900483124161CB
:1067120012D2AF901B56EEF0A3EFF0900483124119
:1067220061EF24FEFFEE34FFFEE92FF9EA3EFA1292
:10673200BCADEF24FFFFEE34FF901B56F0A3EFF049
:106742007B017A1879BF901B56E0FEA3E0FF9016FA
:106752000BE02FFF90160AE03ECF24EBF55EEF34FC
:10676200FFF55D7F107E0212BF40E4901B61F0A333
:10677200F0901B61E0FEA3E0FFC39484EE9400500E
:106782002EEF7802C333CE33CED8F924BFF582740C
:10679200183EF5831240BE74FFFBFAF9F8C31240AB
:1067A2005D600C901B61E475F001123DFC80C27BC0
:1067B200017A0079E8E4F55DF55E7F107E0212BF92
:1067C20040901B56E0FEA3E0FF9000FE75F0191208
:1067D2004133EE75F019A42583F583E0901B58F040
:1067E200E0D3940C4002E4F090010075F019EF122E
:1067F2004133EE75F019A42583F583E0901B59F01F
:10680200E0D394104002E4F0901B56E0FEA3E09027
:1068120000FF75F019124133EE75F019A42583F5C6
:1068220083E0901B5AF0E0D3940C4002E4F0901BFA
:1068320056E0FEA3E0FF9000E875F019124133EE36
:1068420075F019A42583F583E0FDA3E0901B5BCDD1
:10685200F0A3EDF09000EC75F019EF124133EE75F4
:10686200F019A42583F5831240BE901B56E0FAA3CB
:10687200E09000F075F019124133EA75F019A42581
:1068820083F583E0F557A3E0F558755901755A0170
:10689200755B06755C3512868A901B56E0FAA3E09A
:1068A200FB9000F275F019124133EA75F019A42534
:1068B20083F5831240BE9000F675F019EB12413356
:1068C200EA75F019A42583F583E0F557A3E0F5589E
:1068D200755901755A01755B06755C4A12868A9074
:1068E2001B56E0FEA3E0FF9000FC75F01912413345
:1068F200EE75F019A42583F583E0FCA3E0FD90007A
:10690200FA75F019EF124133EE75F019A42583F5EB
:1069120083E0FEA3E0C39DFFEE9CCF2401CF3400B1
:10692200FE901B56E0FCA3E0FD9000E875F0191202
:106932004133EC75F019A42583F583E0FAA3E0FB5B
:106942009000EA75F019ED124133EC75F019A425A7
:1069520083F583E0FCA3E0C39BFDEC9ACD2401CD3B
:106962003400CD2FFFED3EFEE4FCFD901B5D124096
:10697200F67564FF7565AF75667DE47B02FAF9F81A
:10698200901B5D1240BE123FA78E678F6890160A59
:10699200E0C313F569A3E013F56AE47F64FEFDFC2E
:1069A200901B5D1240DA123F1CC006C00790160A07
:1069B200E0FEA3E0FBAA06E4F9F8D007D006123FF6
:1069C200A78E6B8F6C7B017A067920126B86901BE7
:1069D20056E0FEA3E09000F875F019124133EE750F
:1069E200F019A42583F583E0540F24FE601314608C
:1069F2001014601880007564FF7565AF75668F802E
:106A0200147564FF7565AF7566A280097564FF75BC
:106A120065AF7566B5901B61E0F567A3E0F5687B2D
:106A2200017A06795F126B867B017A0079E8755DDF
:106A320000755E017F107E0212BF40901B58E07508
:106A4200F010A424EDF9740035F0754D01F54E896E
:106A52004F7550007551107B017A0579E112CB9F79
:106A6200E49005F0F0901B5AE075F016A424ADF9FD
:106A7200740135F0754D01F54E894F755000755111
:106A8200107B017A0579F612CB9FE4900605F07B24
:106A9200017A0079E8F55D755E027F107E0212BF11
:106AA20040901B59E075F01CA424E8F9740035F0FD
:106AB200754D01F54E894F7550007551107B017A65
:106AC20006790B12CB9FE490061AF07B017A0079CB
:106AD200E8901B5BE0F55DA3E0F55E7F107E02129D
:106AE200BF4090012FE0FE3395E0901B56F0A3CEFD
:106AF200F090012FE0FF7D4612C825901B631240E3
:106B0200F67564FF7565AF7566C8901B631240BE6B
:106B12008F6A8E698D688C677B017A067974126B35
:076B2200867B017A16793C25
:016B29002249
:066F99008B228A238924EB
:106F9F00858425E4901AD1F0A3F0A3F0A3F0F52691
:106FAF0090160EF0F584C2EDD2EC7BFF7A0379498F
:106FBF0090163C12416A7B017A14796C90163F123D
:106FCF00416A7A03790590164612416AE490164594
:106FDF00F0901644F0901643F0901642F0901ACFAE
:106FEF00F0A3F0901ACFE0FEA3E0FF90030575F039
:106FFF0007124133EE75F007A42583F5837403F070
:10700F007C007D15123D5F74E12FF974053EFA7B0C
:10701F0001901ACFE0FEA3E0FF90030675F0071270
:10702F004133EE75F007A42583F58312416A1B7A6D
:10703F0000790090030975F007EF124133EE75F0F8
:10704F0007A42583F58312416A901ACFE475F001E6
:10705F00123DFC901ACFE07004A3E064047084E446
:10706F00900321F0FBFAF9A312416A900325124114
:10707F006A8525840B7A0079E8755D00755E017F5E
:10708F00107E0212BF409000ECE0900490F07B0164
:10709F007A0079E8E4F55DF55E7F107E0212BF405D
:1070AF00E4901ACFF0A3F0901ACFE0FEA3E0FFC355
:1070BF009415EE940040030271919000E875F01959
:1070CF00EF124133EE75F019A42583F583E0FEA38B
:1070DF00E0F47002EEF47003027184901AD3E47539
:1070EF00F001123DFC901ACFE0FEA3E0FF9000FCF0
:1070FF0075F019124133EE75F019A42583F583E06D
:10710F00FCA3E0FD9000FA75F019EF124133EE7514
:10711F00F019A42583F583E0FEA3E0C39DFFEE9C49
:10712F00CF2401CF3400FE901ACFE0FCA3E0FD90F6
:10713F0000E875F019124133EC75F019A42583F5A9
:10714F0083E0FAA3E0FB9000EA75F019ED124133EA
:10715F00EC75F019A42583F583E0FCA3E0C39BFD38
:10716F00EC9ACD2401CD3400CD2FFFED3E901AD1F6
:10717F008FF0123DFC901ACFE475F001123DFC0226
:10718F0070B6E4901ACFF0A3F0901ACFE0FEA3E010
:10719F00FFC39407EE9400502874017E00A80708DF
:1071AF008005C333CE33CED8F9FF900490E0FDEFC6
:1071BF005D60020526901ACFE475F001123DFC8048
:1071CF00C8E526FD7C0090178CE0FF7E00123D5F26
:1071DF00AC06AD07E4123913C004C005C006C007E2
:1071EF0090146AE0FCA3E0FDE4123913A804A9058A
:1071FF00AA06AB07D007D006D005D0041237F390FC
:10720F001AD51240F6901AD51240DAC000C001C04C
:10721F0002C00390178CE0FCE4123918E4FBFA79F2
:10722F002078411237F3E4FBFA792078411237F3D3
:10723F00D003D002D001D0001235F9901AD51240E8
:10724F00F6901AD51240BEE4FBFA796178451236F2
:10725F00EA901AD51240F690160BE024EAFF90162A
:10726F000AE034FFFE901AD1E0FCA3E0FDC3EF9DCE
:10727F00FDEE9CFCE4123913901AD51240DA123746
:10728F00F3901AD51240F67564FF7565AF7566D524
:10729F00901AD51240BE8F6A8E698D688C677B01FC
:1072AF007A0579E1126B867564FF7565AF7566E9CE
:1072BF00901AD3E0FEA3E0FFC374159FF568E49E18
:1072CF00F5677B017A0579F6126B867564FF756534
:1072DF00AF7566F8901AD3E0F567A3E0F5687569A6
:1072EF00157B017A067920126B86E4901ACFF0A3F2
:1072FF00F0901ACFE0FEA3E0FFC39404EE94005089
:10730F003FEF2402FF74017E00A807088005C333F6
:10731F00CE33CED8F9FF900490E0FDEF5D6015906D
:10732F001ACFA3E0FF2430FE74262FF582E4340633
:10733F00F583EEF0901ACFE475F001123DFC80B1A9
:10734F00900490E0FF30E60990062C7434F0A3040B
:10735F00F0EF30E70E90062F7452F0A37450F0A3A5
:10736F00744DF0E4F584901ACFF0A3F020ED159052
:10737F001ACFE475F001123DFCFED3E5F09410EE48
:10738F00942740E8901AD9E5BFF0A3E5BEF0852514
:10739F0084E02412FF901AD9E034FDFE7C007D6456
:1073AF00123D5F7DFA123D71901ACFEEF0A3EFF010
:1073BF007564FF7565B075660B8E67F5687B017A2E
:0C73CF0006790B126B867B017A16793C64
:0173DB00228F
:06C997008B478A48894924
:10C99D00E490160EF07B017A0079E8F55DF55E7F87
:10C9AD00107E0212BF4090048312416112D2AF90EB
:10C9BD001B56EFF024FEFFE434FFFE90048312417A
:10C9CD0061E92FF9EA3EFA12BCAD901B56EFF0D398
:10C9DD0094155005E0FF12A54212A6E87B017A18C6
:02C9ED00799D32
:01C9EF002225
:069E30008B4E8A4F8950A1
:109E360090160EE0FFC394014033EFD39413502DD8
:109E4600900490E0600F90039DE0FCA3E0FD7F018D
:109E56007E0012C3AB90000EE0FF90160CE0FCA350
:109E6600E0FD90039DE0FAA3E0FB12AB5A90160EBC
:109E7600E0B4010312D1C3E490160EF090034793A9
:109E8600FF3395E0FE9003AB75F012EF124133EE0F
:109E960075F012A42583F583124161900007E41240
:109EA6003D3D90178CE0FF24F6601124E260042407
:109EB60014700CEF75F00A84F5518003E4F55190A7
:109EC6000347E493FF3395E0FE9003AB75F012EF82
:109ED600124133EE75F012A42583F5831241619089
:109EE6000008E551123D3D900490E0FD9003AB75EE
:109EF600F012EF124133EE75F012A42583F58312AA
:109F06004161900009ED123D3DE4F552E55275F0D0
:109F160028A424A8F582E4340FF583E024FB6067C7
:109F260024FB603524F66003029FBC900347E4934C
:109F3600FF3395E0FE9003AB75F012EF124133EE5E
:109F460075F012A42583F583124161740A2552F532
:109F560082E433F5837404805A900347E493FF3315
:109F660095E0FE9003AB75F012EF124133EE75F0FB
:109F760012A42583F583124161740A2552F582E401
:109F860033F5837403802C900347E493FF3395E005
:109F9600FE9003AB75F012EF124133EE75F012A48A
:109FA6002583F583124161740A2552F582E433F55F
:109FB600837402123D3D0552E55264046003029F1C
:109FC600127556007557077B917D027F031298889C
:109FD6007B007A00790090162612416A90162012AC
:109FE600416A90162312416A90161D12416AAB4EC1
:0A9FF600AA4FA950900003124193F6
:01A00000223D
:10D021008B4B8A4C894D90189CE0C3940340279008
:10D03100160E7401F07B007A007900FF12608A7B82
:10D04100FF7A1179FC7D2D12BB407B007A007900BB
:0DD0510090161D12416A7B007A00790022C2
:10B30B008B228A23892490146AE0FCA3E0FD7B0145
:10B31B007A0079E890160CE0F55FA3E0F5607F0208
:10B32B007E0012C1917B017A0079E8755D00755E34
:10B33B00027F107E0212BF40900346E0FB75F01CAB
:10B34B009000FC124133124102FFFFFFFF75F01C0E
:10B35B00EB9000F8124133124102FFFFFFFF900305
:10B36B0046E0FF75F01C90010012413374FFF0A30F
:10B37B00F075F01CEF900102124133E4F0A3F07B67
:10B38B00017A0079E8F55F7560027D107C027F021F
:10B39B00FE12C19190146AE0FEA3E0FF7B017A00DC
:10B3AB0079E890160CE0F55DA3E0F55E12BF407BEB
:10B3BB00FF7A9E793090162312416A7AD0792190C8
:10B3CB00161D12416A90160E7405F07B017A1679E0
:10B3DB002F901F8012416A7A1F797D901F7A12413C
:07B3EB006A1B7A00790022C1
:10CFE3008B4B8A4C894D7BFF7A9E793090162312A6
:10CFF300416A7AD179EF90161D12416A90160E7428
:10D0030013F07B017A16792F901F8012416A7A1FE1
:0ED01300797D901F7A12416A1B7A0079002203
:10D1EF0090148612416A7B007A00790090161D1206
:10D1FF00416A7BFF7ACF79E390162312416AE4905C
:0AD20F00160EF07B017A14798322D9
:06ACB8008B478A48894920
:10ACBE00E490160EF0900395F0A304F090034B125F
:10ACCE004102FFFFFFFFE490034FF0900483124117
:10ACDE006112D2AF901B56EFF024FEFFE434FFFE5C
:10ACEE00900483124161E92FF9EA3EFA12BCAD904D
:10ACFE001B56EFF0D3941550287B017A1879BF902C
:10AD0E00160BE024EAFF90160AE034FFFE901B5665
:10AD1E00E07C002FF55EEC3EF55D7F107E0212BFEB
:10AD2E0040E4901B56F0901B56E0FFC394845053A2
:10AD3E0075F004EF9018BF1241331240BE74FFFB42
:10AD4E00FAF9F8C312405D603A90034B1240BE9080
:10AD5E001B56E075F0049018BF1241331240DAC34F
:10AD6E0012405D5016901B56E075F0049018BF12FD
:10AD7E0041331240BE90034B1240F6901B56E00436
:10AD8E00F080A3901B56E090034FF070177BFF7A74
:10AD9E00B0791712D28E7BFF7A0079769016231235
:10ADAE00416A805B7BFF7AC4799F90162012416ABC
:10ADBE007AC5791490162612416A7A007976901621
:10ADCE002312416A9018BF1240BE9003471240F6FC
:10ADDE007A1179FC7D2D12BB401281901200267FD4
:10ADEE000112CCE090034B1240BE9003471240DAA2
:10ADFE00C312404770047F0180027F0012D0947B03
:05AE0E00007A0079004C
:01AE1300221C
:10C49F008B4A8A4B894C90034FE0FF900395E0B491
:10C4AF00000FA3E0B5070A900395E4F0A304F08012
:10C4BF000A900395E475F001123DFC900395E0FEA0
:10C4CF00A3E07802C333CE33CED8F924BBF5827400
:10C4DF00183EF5831240BE9003471240F61281902A
:10C4EF0012002690034B1240BE9003471240DAC34E
:10C4FF0012404770047F0180027F0012D0947B00AE
:05C50F007A0079002212
:10C514008B4A8A4B894C900395E07004A3E0640134
:10C52400700F90034FE0FF900395E4F0A3EFF080C9
:10C534000A90039574FFF5F0123DFC900395E0FE1C
:10C54400A3E07802C333CE33CED8F924BBF582748A
:10C55400183EF5831240BE9003471240F6128190B4
:10C5640012002690034B1240BE9003471240DAC3D8
:10C5740012404770047F0180027F0012D0947B0038
:05C584007A007900229D
:100076008B4A8A4B894CE490160EF0FBFAF99016DF
:100086002612416A90162012416A90162312416A7E
:0D009600AB4AAA4BA94C90000312419322E3
:04D3400012B6A2225D
:10B6A2008B4B8A4C894D90160EE012421CB6CE028C
:10B6B200B73209B6DE0BB6EE0CB6FD0DB70C0EB7FF
:10B6C2001B0FB72A10B76D110000B773900490E0FA
:10B6D20030E20990160E740BF002B773900490E0FA
:10B6E20030E30990160E740CF002B773900490E0E8
:10B6F20030E40890160E740DF08076900490E030DD
:10B70200E50890160E740EF08067900490E030E623
:10B712000890160E740FF08058900490E030E608FE
:10B7220090160E7410F0804990160E7409F0804144
:10B7320090160E7411F0E4FF12C329756100756250
:10B74200077563FF7564097565E275662D7B7A7A04
:10B7520000E4FDFCFFFE128DA17BFF7AAF795F75DD
:10B76200532D7D24E4FF12B77A800690160E7402E0
:08B77200F07B007A007900224F
:06CBF1008B4A8A4B894CBF
:10CBF700AF84E4F584901779E004F0D3947440038C
:10CC07007474F0901779E0F5FBE0F5FC8F84756498
:10CC1700FF7565B075661FE024A0F568E434FFF57D
:10CC2700677B017A1B7963126B867B017A1B7963B9
:09CC370012D28E7B007A00790014
:01CC400022D1
:06CC41008B4A8A4B894C6E
:10CC4700AF84E4F584901779E014F0C3944C500353
:10CC5700744CF0901779E0F5FBE0F5FC8F84756470
:10CC6700FF7565B075661FE024A0F568E434FFF52D
:10CC7700677B017A1B7963126B867B017A1B796369
:09CC870012D28E7B007A007900C4
:01CC90002281
:10CF63008B4A8A4B894CE490160EF012D1957B01C3
:10CF73007A17790C7D807C0012C6DB7B007A0079FE
:10CF83000090162612416A90162012416A901623C9
:10CF930012416AAB4AAA4BA94C9000031241932257
:06C8E3008B478A488949D9
:10C8E900E490160EF07564FF7565B075661F9017B4
:10C8F90079E024A0F568E434FFF5677B017A1B79B8
:10C9090056126B867B017A1B795612D28E7BFF7A7F
:10C91900CB79F190162012416A7ACC79419016268A
:10C9290012416A7ACF796390162312416A7B007AA1
:03C9390000790082
:01C93C0022D8
:06CE97008B4A8A4B894C16
:10CE9D0090175CE004F0D36480948C4003740CF024
:10CEAD007564FF7565B075662790175CE0FF339567
:10CEBD00E0F5678F687B017A1B7963126B867B01C6
:0DCECD007A1B796312D28E7B007A00790007
:01CEDA002235
:06CEDB008B4A8A4B894CD2
:10CEE10090175CE014F0C364809474500374F4F000
:10CEF1007564FF7565B075662790175CE0FF339523
:10CF0100E0F5678F687B017A1B7963126B867B0181
:0DCF11007A1B796312D28E7B007A007900C2
:01CF1E0022F0
:06C9F0008B478A488949CB
:10C9F600E490160EF07564FF7565B075662790179E
:10CA06005CE0FF3395E0F5678F687B017A1B79560A
:10CA1600126B867B017A1B795612D28E7BFF7ACEF9
:10CA2600799790162012416A7ACE79DB90162612F3
:10CA3600416A7ACF796390162312416A7B007A00A5
:02CA4600790075
:01CA480022CB
:06CFA3008B4A8A4B894C09
:10CFA90090177BE0240AF0D394F0400374F0F075F5
:10CFB90064FF7565B075663190177BE0756700F59C
:10CFC900687B017A1B7963126B867B017A1B796313
:09CFD90012D28E7B007A0079006F
:01CFE200222C
:06CE52008B4A8A4B894C5B
:10CE580090177BE0D3940A5004E4F0800790177B86
:10CE6800E024F6F07564FF7565B075663190177B40
:10CE7800E0756700F5687B017A1B7963126B867B26
:0ECE8800017A1B796312D28E7B007A0079004A
:01CE96002279
:06CAA0008B478A4889491A
:10CAA600E490160EF07564FF7565B07566319017E3
:10CAB6007BE0756700F5687B017A1B7956126B86F9
:10CAC6007B017A1B795612D28E7BFF7ACF79A3909F
:10CAD600162012416A7ACE795290162612416A7A47
:0FCAE600CF796390162312416A7B007A007900A2
:01CAF500221E
