:10990600436F707972696768742028432920323062
:1099160030342D3920547261636B2053797374652A
:109926006D7320546563686E6F6C6F676965732C21
:10993600204C4C43000200FF000000C0C1C1810161
:1099460040C30103C00280C241C60106C00780C7EA
:10995600410500C5C1C4810440CC010CC00D80CDB9
:10996600410F00CFC1CE810E400A00CAC1CB810B88
:1099760040C90109C00880C841D80118C01980D95A
:10998600411B00DBC1DA811A401E00DEC1DF811FE8
:1099960040DD011DC01C80DC411400D4C1D58115F9
:1099A60040D70117C01680D641D20112C01380D30A
:1099B600411100D1C1D0811040F00130C03180F199
:1099C600413300F3C1F28132403600F6C1F78137E8
:1099D60040F50135C03480F4413C00FCC1FD813DB9
:1099E60040FF013FC03E80FE41FA013AC03B80FB8A
:1099F600413900F9C1F88138402800E8C1E98129D8
:109A060040EB012BC02A80EA41EE012EC02F80EFE9
:109A1600412D00EDC1EC812C40E40124C02580E5F8
:109A2600412700E7C1E68126402200E2C1E3812307
:109A360040E10121C02080E041A00160C06180A119
:109A4600416300A3C1A28162406600A6C1A78167E7
:109A560040A50165C06480A4416C00ACC1AD816DB8
:109A660040AF016FC06E80AE41AA016AC06B80AB89
:109A7600416900A9C1A88168407800B8C1B9817957
:109A860040BB017BC07A80BA41BE017EC07F80BFE9
:109A9600417D00BDC1BC817C40B40174C07580B5F8
:109AA600417700B7C1B68176407200B2C1B3817307
:109AB60040B10171C07080B041500090C191815198
:109AC60040930153C052809241960156C0578097E9
:109AD60041550095C1948154409C015CC05D809DB8
:109AE600415F009FC19E815E405A009AC19B815B87
:109AF60040990159C058809841880148C0498089D9
:109B0600414B008BC18A814A404E008EC18F814FE6
:109B1600408D014DC04C808C41440084C1858145F7
:109B260040870147C046808641820142C043808308
:099B360041410081C180814040E1
:10B7780050001B0000000000000000000000000056
:10B78800000000430C32000000410C2400410CB5BD
:10B798000A41000500027900000275000050002FE0
:10B7A8000000000000000000000000000000000091
:10B7B800017D004102A800410CBC004200020000CB
:10B7C800410CB80042026B000042005700004202E0
:10B7D800BB00A0410CB700410CBB004202BE0000F8
:10B7E80041000100410004004102EE00410BDE006F
:10B7F800410CB600027E0000027700004202C10040
:10B80800004102BD004102EF0041000000410CBDB3
:10B8180000410018004102ED0044002BFFFFFFFF2C
:10B8280044003FFFFFFFFF420016FFFF420019FFE1
:05B83800FF4102F004D5
:1017E600E4F52DF52CF52BF52A900CE3F0A3F0A3E8
:1017F6007406F075840F75FFDE75FFAD12C26D12AB
:10180600BF8EC2B4C2B5C2B6120026753E01753F80
:10181600097540487B017A0C792212B69612B55AA0
:10182600900CB57414F0E49002BDF012A398125611
:1018360052E4900CDFF0A3F0900CDFE0FAA3E0FB9B
:101846009002CD75F0151233CBEA75F015A42583F9
:10185600F58312335C000000009002C975F015EBA9
:101866001233CBEA75F015A42583F58312335C0099
:10187600000000900CDFE0FAA3E0FB9002C375F0D5
:10188600151233CBEA75F015A42583F58312335C64
:10189600000000009002D175F015EB1233CBEA750B
:1018A600F015A42583F583E4F0A3F0900CDFE0FEA9
:1018B600A3E0FF9002C775F0151233CBEE75F01555
:1018C600A42583F583E4F0A3F09002D675F015EF16
:1018D6001233CBEE75F015A42583F583E4F0900260
:1018E600D575F015EF1233CBEE75F015A42583F5FB
:1018F60083E4F09002D475F015EF1233CBEE75F059
:1019060015A42583F583E4F09002D375F015EF1244
:1019160033CBEE75F015A42583F583E4F09002D75A
:1019260075F015EF1233CBEE75F015A42583F5830C
:10193600E4F0900CDF75F001122FC7900CDFE07019
:1019460004A3E06402600302183EE4900000F01273
:10195600C14F7F007E9612C60D12C6D112C443E453
:10196600900282F09002957402F090029E744EF0FE
:101976007B017A0279F19002911233F07A09794A61
:101986009002A41233F07A07792B90028E1233F06C
:101996007A0B79DF9002A11233F0E4900281F09085
:1019A600029404F090028B744EF0E4900296F0A339
:1019B600F0900283F0A3F09002A0F090028DF090D8
:1019C600029FF090028CF01BFAF990029B1233F002
:1019D6009002981233F09002881233F0900285122A
:1019E60033F00B7A0279817F007EC27D017C001282
:1019F6009F9F900018E07B017A02799460067F80B1
:101A06007E2580047F007EE17D007C00129F9F90F2
:101A16000018E060247B017A02797190005312333A
:101A2600F07A0279A99000501233F0E490004CF05D
:101A3600A3F0900056F012C6BB12AFEC20E8137864
:101A46002A1233307B807A9679987800D312324303
:021A560050EA54
:101A5800900CC012335C0000AFC8E4FFFEFDFC90A0
:101A68000CC0123314D312322D4017900CC012330D
:101A78000874FFFBFAF9F81230DA900CC0123350F0
:021A880080D804
:101A8A00E49002C1F0A3F0F53E753F00754077FB84
:0F1A9A007A00797E12B419D2AF900018E060354F
:101AA900900CC412335C00006978E4FFFEFDFC90E1
:101AB9000CC4123314D312322D4017900CC41233B4
:101AC9000874FFFBFAF9F81230DA900CC41233509B
:021AD90080D8B3
:101ADB00128D671200A6900CBD7401F0E4900C26D9
:101AEB00F0900C31F0900C2BF0A3F0900C29F0A39C
:101AFB00F0A2DA33900C28F090026CE02458FE90A0
:101B0B00026BE03400900C2FF0A3CEF0900057E066
:101B1B00FCA3E0FD2406FEE43C900C2DF0A3CEF0DC
:101B2B00ED2405FEE43C900CE1F0A3CEF0E5D85497
:101B3B0003600C900C25E064036004E4F080557B9B
:101B4B00017A0079597558007559037F107E02127E
:101B5B00BC639001FFE0540F900008F09001FFE090
:101B6B0054F0C4540F900009F0900008E0B4031F28
:101B7B00900C25E06403601CE5D85403FFBF0205FD
:101B8B007402F0800F900C257401F0A3F08005E433
:101B9B00900C25F0E4900CDFF0A3F0900948E0FEE8
:101BAB00A3E0FF900CDFE0FCA3E0FDC39FEC9E5095
:101BBB001774592DF58274003CF583E4F0900CDF1B
:101BCB0075F001122FC780D3900CA6E0F46009E0EA
:101BDB006006900C2474E0F09002A8E06020C390A3
:0D1BEB000020E094B890001FE0940B501112
:101BF80012B15A12007E8F38E53830E7F6C2FF80FE
:011C0800FEDD
:101C0900900C25E0FF64037040900057E0FCA3E0CE
:101C1900FD900CE1E0B50413A3E0B5050EA3740132
:101C2900F0900CE1E475F001122FC730DC09900C3B
:101C3900277403F0021E4C900C2730DB067404F065
:101C4900021E4C7402F0021E4CEF64026003021E75
:011C59004C3E
:101C5A00F538900057E0FAA3E0FB900CE1E0B502FA
:101C6A0013A3E0B5030EA37401F0900CE1E475F040
:101C7A0001122FC730DB17900C27E06404700302AF
:101C8A001D547404F0900CE37401F0021D54900C7E
:101C9A0027E0B404297402F090026CE02403FE9059
:101CAA00026BE03400900C2FF0A3CEF0A2DAE433FA
:101CBA00900C28F0E4900C31F0900CE304F0900CB6
:101CCA002FE0FEA3E0FF90026BE0FCA3E0FD6F7043
:101CDA0002EC6E7075A2DA33FF900C28E0FE6F708A
:101CEA0034900C31E0C394025005E004F0804EEECB
:101CFA006012900C27E0640260437402F0900CE3D7
:101D0A0014F08039900C27E0640160317401F0907E
:101D1A000CE3F08028900C27E0640360097403F058
:101D2A00900CE37401F0900C28E070047F018002AB
:101D3A007F00900C28EFF0900C317401F0ED2458DC
:101D4A00FEE43C900C2FF0A3CEF0900C26E0600449
:101D5A00A3E07017900C277401F0900C26F0EB2486
:101D6A0005FEE43A900C2DF0A3CEF0900C2DE0FE87
:101D7A00A3E0FF900057E0B50619A3E0B507149059
:101D8A000C2DE475F00A122FC7900C27E0B401035A
:101D9A00753801900C24E0B4E103E4F538E53860C5
:101DAA001A900C267405F090026CE02403FE90024F
:101DBA006BE03400900C2BF0A3CEF0900C2BE0FEDD
:101DCA00A3E0FF90026BE0FCA3E0FD6F7002EC6EF3
:101DDA007070900C26E024FD604B24FE601A14609B
:101DEA004A2404705D900C267403F0ED2450FEE43E
:101DFA003C900C2BF0A3CEF0900C26E0B40517749F
:101E0A0006F090026CE02428FE90026BE034009009
:101E1A000C2BF0A3CEF0900C25E024FE6003047096
:101E2A0021D2CC801D900C267404F0900C26E0B4CC
:101E3A0006037401F0900C25E024FE60030470028E
:021E4A00C2CC08
:0B1E4C009002851233E7E94A4B602B3F
:101E57009002851233E78B388A39893A7B007A00FA
:101E670079009002851233F0AB38AA39A93AE4FF1A
:0B1E7700124498900CDDEEF0A3EFF099
:101E8200900CA5E020E003D38001C35003021F3869
:101E92009002C2E094F09002C1E094005003021F4D
:011EA2003807
:101EA30012B15A12007E8F38E53830E7F69002ED12
:101EB300E0B40204C2CA8076900C25E06402706E1E
:081EC300900C27E06401606649
:101ECB00900CC812335C000DBBA0E4FFFEFDFC9030
:101EDB000CC8123314D312322D4017900CC8123386
:101EEB000874FFFBFAF9F81230DA900CC812335071
:021EFB0080D88D
:021EFD00D2CC45
:101EFF00900CCC12335C00112A88E4FFFEFDFC909D
:101F0F000CCC123314D312322D4017900CCC123349
:101F1F000874FFFBFAF9F81230DA900CCC12335038
:021F2F0080D858
:071F3100C2FFE4F5F880FE99
:101F380020E803021FE5C39002C2E094099002C1A1
:101F4800E094005003021FDE900C24E02420600A75
:0A1F580014606014606724E2707CDE
:101F6200900CA5E030E175127922900057E0FEA3B3
:101F7200E0FF900CA8E02FFF900CA7E03E900CBE73
:101F8200F0A3EFF090026BE0F538A3E0F539753E6F
:101F920000753F007540777B007A00797E12909A37
:101FA200900005EFF07008C2B6900C24F0802D90DE
:091FB2000C2474E1F0D2B6802386
:101FBB00900CA5E030E11C12B162900CA6E0F4602D
:101FCB000BE06008900C2474E0F08005E4900C2486
:101FDB00F0C2B5E49002C1F0A3F0900CB7E070032F
:101FEB00022135E4F09002EEE0F460030220C6908B
:101FFB000C25E0FFB40305C2CA0220BAEF640260ED
:0D200B00030220BA900C27E0B40436D2CCBA
:10201800900CD012335C0001B774E4FFFEFDFC9015
:102028000CD0123314D312322D4017900CD0123327
:102038000874FFFBFAF9F81230DA900CD01233501A
:0220480080D83E
:0A204A00C2CC900C27E06401606630
:10205400900CD412335C000DBBA0E4FFFEFDFC9099
:102064000CD4123314D312322D4017900CD41233E3
:102074000874FFFBFAF9F81230DA900CD4123350DA
:0220840080D802
:02208600D2CCBA
:10208800900CD812335C00112A88E4FFFEFDFC9006
:102098000CD8123314D312322D4017900CD81233A7
:1020A8000874FFFBFAF9F81230DA900CD8123350A2
:0220B80080D8CE
:1020BA00C2B3C2B6C2B5C2B4C2FF80FE9002EEE09D
:1020CA00FF64F07022900C24EFF0E4F57EF57F9027
:1020DA00000574FFF0D2B3D2B6D2B5D2B4C2A853B7
:1020EA00E7FD53E7BF8010EFB4F113900C24F0C260
:1020FA00B3C2B6C2B5C2B4E49002EEF0802DEF646A
:10210A00F27028900C24EFF0D2B3D2B6D2B5D2B482
:10211A00900C23E024FFFD900C22E034FFFCE4FB4A
:10212A00FFFE12C076E4F58443EF01900C24E0FF31
:10213A0064E06008EF64E16003021BE39002A8E038
:10214A007003022295D3900020E094B890001FE01B
:10215A00940B4007E49002A8F080069002A874014C
:10216A00F0C3E57A940AE57964809480400675792B
:10217A0000757A09900018E06007E49002A7F080E1
:10218A0035900021E0FEA3E0FFEF24FBFFEE34EBE5
:10219A00FEE434FFFDE434FFFCE47BE87A03F9F85B
:1021AA001230F5E47BE57A24F9F812C4D29002A73A
:1021BA00EFF0E024CEF0900C24E064E16003021B0F
:1021CA00E39002F0E06003021BE3C3E576940AE5BC
:1021DA007564809480400675750075760990001DB7
:1021EA00E0540FFD90001BE0540FC4F854F0C8E40B
:1021FA00C4540F482DFF90006E75F033E57A123300
:10220A00CBE57975F033A42583F58375F003E5767C
:10221A001233CBE57575F003A42583F583EFF090AF
:10222A00001BA3E0FF90006F75F033E57A1233CB01
:10223A00E57975F033A42583F58375F003E5761205
:10224A0033CBE57575F003A42583F583EFF0900091
:10225A001DA3E0FF90007075F033E57A1233CBE5E9
:10226A007975F033A42583F58375F003E576123387
:10227A00CBE57575F003A42583F583EFF00576E5C4
:10228A007670020575129380021BE39002A0E0FFAC
:0A229A0090029FE06F7003022538E8
:1022A400EF75F0DCA4FF9002A41233E7E92FF9EAFA
:1022B40035F08B38F539893A9002A0E0FFB4020476
:1022C4007F008003EF04FF9002A0EFF09002A7E0EC
:1022D400FF90006D75F033E57A1233CBE57975F034
:1022E40033A42583F583EFF0AE79AF7A7C007D3398
:1022F400122F2A74592FF974003E753E01F53F8957
:1023040040AB38AA39A93A124D8390006975F0336D
:10231400E57A1233CBE57975F033A42583F583E0B0
:1023240054E075F008A4FFAEF090006A75F033E550
:102334007A1233CBE57975F033A42583F583E0FD78
:10234400EEF52EEF4DF52FE52E30E20744F8F52E8D
:10235400852F2F90006975F033E57A1233CBE57938
:1023640075F033A42583F583E0541C75F040A4FF75
:10237400AEF090006B75F033E57A1233CBE57975E6
:10238400F033A42583F583E0FDEEF530EF4DF53110
:10239400E53030E20744F8F530853131AC30AD3109
:1023A400EC122B2BC004C005C006C007AC30AD3105
:1023B400EC122B2BD003D002D001D000122902C082
:1023C40004C005C006C007AC2EAD2FEC122B2BC0E9
:1023D40004C005C006C007AC2EAD2FEC122B2BD0C9
:1023E40003D002D001D000122902D003D002D001C0
:1023F400D00012281112BA7B7B5C7A8F7982783FE5
:102404001229028F378E368D358C347F747ED17DC0
:102414000D7C40AB37AA36A935A834122902122BF9
:10242400648E328F33900C24E064E17066E53345AA
:1024340032601C900057E0FEA3E0FF900CA8E02F50
:10244400FF900CA7E03E900CBEF0A3EFF080449008
:102454000CBEE0FEA3E0FF900057E06E7003A3E023
:102464006F7030900CA7E0F47003A3E0F460249044
:102474000CA7E07002A3E0601A12B162900CA6E00F
:10248400F4600BE06008900C2474E0F08005E490A4
:102494000C24F0900C24E064E06003021BE3900C35
:1024A400E4E07002A3E0600D900CE474FFF5F01218
:1024B4002FC7021BE3900CBBE0D394055003021B0F
:1024C400E39002BFE0942C9002BEE094014003022A
:1024D4001BE3900CA6E0FFC3E5339FE53294005064
:1024E40003021BE3900C2474E1F01279229000574C
:1024F400E0FEA3E0FF900CA8E02FFF900CA7E03EC5
:10250400900CBEF0A3EFF0753E00753F0075407768
:102514007B007A00797E12909A900005EFF07009A2
:10252400C2B6900C24F0021BE3900C2474E1F0D2A8
:01253400B6F0
:10253500021BE3900CBCE0FD7017900002E0FEA3C7
:10254500E0FF90026BE06E7003A3E06F6003021B77
:10255500E3900CB5E0FF74A08FF08475F00AA4FF3A
:1025650090026CE02401FB90026BE03400CB2FFE5F
:10257500EB35F0900002F0A3CEF0ED700E900CBBA1
:10258500F090000274FFF5F0122FC7900C24E0FFC5
:1025950064E160030227EF9002F0E0FE700302267B
:1025A5005BEF64E1600302265B900CBCE070030204
:1025B50027EF900C25E0FFB4031A30DC059002F0FC
:1025C5008008D2CA9002F030DB057401F0805DE02E
:0F25D50014F08058EF6055900C24E064E1704DD5
:1025E400A3E0B40207900C27E0B40408900C25E0A3
:1025F40064026039900CB5E0900CDCB428057406D4
:10260400F080037404F0900CDCE0B50620900C26F6
:102614007402F0900C29E0FEA3E0FF90026CE02F1E
:0D262400FF90026BE03E900C2BF0A3EFF056
:102631009002F0E014F060030227EFF575F576F5EE
:1026410079F57A900949E024FFFE900948E034FFCA
:10265100900006F0A3CEF00227EFC3E576940AE5D9
:10266100756480948040030227ECE5764575707AA5
:10267100900C90E0540FFD900C8EE0540FC4F85470
:10268100F0C8E4C4540F482DFF90006E75F033E597
:102691007A1233CBE57975F033A42583F58375F090
:1026A10003E5761233CBE57575F003A42583F58335
:1026B100EFF0900C8EE0A3E0FF90006F75F033E532
:1026C1007A1233CBE57975F033A42583F58375F060
:1026D10003E5761233CBE57575F003A42583F58305
:1026E100EFF0900C90E0A30227B690006B75F033E9
:1026F100E57A1233CBE57975F033A42583F583753B
:10270100F003E5761233CBE57575F003A42583F567
:1027110083E0FF90006E75F033E57A1233CBE579F3
:1027210075F033A42583F58375F003E5761233CB79
:10273100E57575F003A42583F583EFF090006C75C2
:10274100F033E57A1233CBE57975F033A42583F5BF
:102751008375F003E5761233CBE57575F003A42597
:1027610083F583E0FF90006F75F033E57A1233CB88
:10277100E57975F033A42583F58375F003E57612C9
:1027810033CBE57575F003A42583F583EFF0900055
:102791006D75F033E57A1233CBE57975F033A42505
:1027A10083F58375F003E5761233CBE57575F00398
:1027B100A42583F583E0FF90007075F033E57A126C
:1027C10033CBE57975F033A42583F58375F003E503
:1027D100761233CBE57575F003A42583F583EFF00D
:1027E1000576E5767002057502265B12BB21E49041
:1027F1000CBCF09002EFF0900CBBE06007B2B5E4C6
:09280100F0021BE3C2B5021BE367
:10BB2100C3E57A9409E57964809480500302BBBB34
:10BB3100900948E0FCA3E0FD7B017A007959857EFC
:10BB41005D857F5E7F027E0012BD88E57824FFFF60
:10BB5100E57734FFFEC3E57F9FE57E9E402AAD7801
:10BB6100AC777F017E0012BF13900005E0FFAB7838
:10BB7100AA77AD7FAC7E12B2BBE4900C24F0900C9E
:10BB8100BBF0C2B6C2B58008057FE57F7002057EB5
:10BB9100E4FFFED3900949E09F900948E09E4013DD
:10BBA10074592FF58274003EF583E4F00FBF000154
:10BBB1000E80E0E4F579F57A8008057AE57A70027D
:07BBC1000579E4F575F57646
:01BBC800225A
:08B15A00C2B3C2B6C2B5C2B413
:10B16200C2B6C2B5900C24E064E170279002F0E010
:10B1720070119002BDE0600BAD78AC777F017E006C
:10B1820012BF13900005E0FFAB78AA77AD7FAC7ECB
:10B1920012B2BB900C25E0B40305C2CA02B2AF9052
:07B1A2000C26E0640370704D
:10B1A900900CE612335C00015F90E4FFFEFDFC9019
:10B1B9000CE6123314D312322D4017900CE61233D9
:10B1C9000874FFFBFAF9F81230DA900CE6123350E2
:02B1D90080D81C
:03B1DB00E4F5C8D0
:10B1DE00900CEA12335C00020F58E4FFFEFDFC9067
:10B1EE000CEA123314D312322D4017900CEA12339C
:10B1FE000874FFFBFAF9F81230DA900CEA123350A9
:02B20E0080D8E6
:10B21000900C267401F0A304F0900C25E0FFB4021A
:10B2200008900C27E06404600DEF6402607B900CD2
:06B2300026E064047073C7
:10B23600900CEE12335C00015F90E4FFFEFDFC9083
:10B246000CEE123314D312322D4017900CEE12333B
:10B256000874FFFBFAF9F81230DA900CEE1233504C
:02B2660080D88E
:0DB26800900C25E024FE6003047036D2CC6B
:10B27500900CF212335C0001B774E4FFFEFDFC9004
:10B285000CF2123314D312322D4017900CF21233F4
:10B295000874FFFBFAF9F81230DA900CF212335009
:02B2A50080D84F
:10B2A700C2CC900C267401F0900C25E06403600377
:04B2B700E4F5C822D0
:1079220090026BE0F53DA3E0F53EE4F579F57AF5DA
:1079320075F576900CBBF0A3F0900948E0FEA3E049
:10794200FF7B017A00795975580075590112BC63A1
:1079520090005CE0540F900BDEF090005DE0900C24
:10796200B6F090005BE075F01690012E1233CBE07A
:10797200A3E0540F9002C0F090005BE075F0169007
:1079820001301233CBE0FFA3E09002B9CFF0A3EFB6
:10799200F0900BDEE024FC601424027027900CB5FA
:1079A2007414F0900C29E4F0A374608026900CB556
:1079B2007428F0900C29E4F0A37462F09002F07441
:1079C20006F08016900CB5740AF0900C297401F040
:1079D200A37458F09002F07404F0900CB6E0900298
:1079E200BDF09002B9E0FCA3E0FD4C700890000CE1
:1079F200F0A3F080679002C0E0701E122B2BA80447
:107A0200A905AA06AB07E4FFFE7D7A7C48122A0B81
:107A1200122B647C007DF080389002C0E0B40F032A
:107A22007410F09002B9E0FCA3E0FDE4122B2BA845
:107A320004A905AA06AB07E4FFFE7D7A7C48122A58
:107A42000B122B649002C0E0FD74788DF084FD7CF3
:107A520000122F2A90000CEEF0A3EFF0E5D85403A9
:107A620070079002BDF0027D3F7B017A0079597563
:107A720058007559037F107E0212BC63E4F53BF592
:107A82003C90007175F028E53C1233CBE53B75F074
:107A920028A42583F583E024FB601524FB7022745F
:107AA2006D253CF5827402353BF5837403F080202A
:107AB200746D253CF5827402353BF5837402F080C7
:107AC2000F746D253CF5827402353BF5837404F026
:107AD200053CE53C7002053B6404453B70A3E4F5BC
:107AE2003BF53C90007E75F028E53C1233CBE53B3C
:107AF20075F028A42583F583E0FDE53C25E0FFE54C
:107B02003B33FE740F2FF58274003EF583EDF09047
:107B1200007275F028E53C1233CBE53B75F028A4E2
:107B22002583F58312331490007675F028E53C1214
:107B320033CBE53B75F028A42583F5831233081275
:107B4200280DC004C005C006C00790007275F02859
:107B5200E53C1233CBE53B75F028A42583F583126F
:107B6200331490007A75F028E53C1233CBE53B756F
:107B7200F028A42583F58312330812280DD003D0F0
:107B820002D001D000122A0BE4FBFAF9F8122AA85B
:107B920090007275F02860054003027C1DE53C12DE
:107BA20033CBE53B75F028A42583F583123314907B
:107BB200007675F028E53C1233CBE53B75F028A43E
:107BC2002583F58312330812280DC004C005C006B0
:107BD200C00790007275F028E53C1233CBE53B7587
:107BE200F028A42583F58312331490007A75F028C7
:107BF200E53C1233CBE53B75F028A42583F58312CF
:107C0200330812280DD003D002D001D000122A0B63
:107C1200C004C005C006C007027CA3E53C1233CBFA
:107C2200E53B75F028A42583F58312331490007682
:107C320075F028E53C1233CBE53B75F028A425838B
:107C4200F58312330812280DC004C005C006C00710
:107C520090007275F028E53C1233CBE53B75F028B5
:107C6200A42583F58312331490007A75F028E53C3D
:107C72001233CBE53B75F028A42583F58312330834
:107C820012280DD003D002D001D000122A0B122BE1
:107C920015AB07AA06A905A804C000C001C002C00E
:107CA2000390007F75F028E53C1233CBE53B75F07D
:107CB20028A42583F583E0FF90008075F028E53C39
:107CC2001233CBE53B75F028A42583F583E0C39FEF
:107CD200FDE49400FCE4122B2BD003D002D001D09F
:107CE20000122902C004C005C006C00790007F75BB
:107CF200F028E53C1233CBE53B75F028A42583F54B
:107D020083E0FCE4122B30D003D002D001D0001269
:107D12002811122B64AD07E53C25E0FFE53B33FE5D
:107D2200740E2FF58274003EF583EDF0053CE53CC0
:107D32007002053B6404453B6003027AE59002BD94
:107D4200E030E7034403F0E4F53BF53CD390094906
:107D5200E0953C900948E0953B40187459253CF564
:107D6200827400353BF583E4F0053CE53C70DD05AB
:037D72003B80D97A
:017D750022EB
:099380009002BDE0700302965B4F
:03938900753B062B
:10938C00AF3B9002BDE0FEA807088002C313D8FCD7
:10939C0020E00302964DE53B12348295220095198C
:1093AC0001940A02940A0393C80493C80593C00657
:1093BC00000095AFE5D8F4F53C0295AFAF3BEF3329
:1093CC0095E0FEEF25E0FFEE33FE741F2FF582745F
:1093DC00003EF583E0FEA3E0FFAD3BED3395E0FCF2
:1093EC00746B2DF58274023CF583E0FDEFA8050843
:0E93FC008005CEC313CE13D8F9F53C0295AF11
:10940A00E4F53DAF3BEF3395E0FEEF25E0FFEE33A9
:10941A00FE741F2FF58274003EF583E0FEA3E0FF81
:10942A00AD3BED3395E0FC746B2DF58274023CF58F
:10943A0083E0FBEFA803088005CEC313CE13D8F947
:10944A00F53C74062DF58274003CF583E0640260F5
:10945A00030295AFAF3BEF3395E0FEEF25E0FFEE59
:10946A0033FE740B2FF58274003EF583E06023040B
:10947A00604624FE706A740A2FF58274003EF583F2
:10948A00E0FFE53CD39F40047F0180027F008F3DCF
:10949A00804EAF3BEF3395E0FEEF25E0FFEE33FE63
:1094AA00740A2FF58274003EF583E0B53C047F010F
:1094BA0080027F008F3D8028AF3BEF3395E0FEEFBF
:1094CA0025E0FFEE33FE740A2FF58274003EF58321
:1094DA00E0FFE53CC39F50047F0180027F008F3D7F
:1094EA00E53D6015E53B2402FF7401A807088002E8
:1094FA00C333D8FC42C80295AFE53B2402FF74018E
:0F950A00A807088002C333D8FCF452C80295AFFB
:09951900900269E0F53C0295AFF7
:10952200900269E0FEA3E0FFF53C90000CE0FCA392
:10953200E0FD4C6078EF4E6074D3ED9FEC9E5038A6
:10954200E4F53DF53E7408253EF5827400353DF59F
:1095520083E0B40113E53E2404FF7401A8070880E8
:1095620002C333D8FCF452C8053EE53E7002053D05
:109572006402453D70CF8035E4F53DF53E74082523
:109582003EF5827400353DF583E0B40112E53E24D8
:1095920004FF7401A807088002C333D8FC42C8053F
:0D95A2003EE53E7002053D6402453D70D07F
:1095AF0075450075460075473C900006E0FAA3E04C
:1095BF00FB7D017C007F017E0012BE12900006E051
:1095CF007002A3E0600C90000674FFF5F0122FC735
:1095DF00806CAD78AC777F017E0012BF13E57824E5
:1095EF00FFFFE57734FFFEC3E57F9FE57E9E402AB0
:1095FF00900005E0FFAB78AA77AD7FAC7E12B2BBCF
:10960F00E4900C24F0900CBBF0C2B6C2B5900C25C0
:10961F00E064036029E4F5C88024E57815787002CA
:10962F001577900948E0FCA3E0FD24FFFEEC34FF22
:0E963F00900006F0A3CEF07F017E0012C0E383
:0E964D00153BC3E53B64809480400302938C80
:01965B0022EC
:10C1B8008B5C8A5D895EE92DF9EA3C8B5FF56089C5
:10C1C80061E4F562F563C3856083856182E55E9508
:10C1D80082E55D9583502F785CE475F0011233D7C2
:10C1E800122E7DFFE5636F25E0FFE433FE743F2FD9
:10C1F800F58274993EF583E562FFE493F562740174
:0AC20800936FF56380C0AE62AF6370
:01C212002209
:10B55A00E4900D86F07B017A0C793512C2C4900C06
:10B56A009EE07004A3E064FB700C900CA0E07004F1
:10B57A00A3E064086018900C9EE4F0A374FBF090BA
:10B58A000CA0E4F0A37408F0900D867401F0900CFE
:10B59A0087E0B4FF17900018E0900C87600574C824
:10B5AA00F080037464F0900D867401F0900C86E0CC
:10B5BA00640160077401F0900D86F0900C22E0FCA3
:10B5CA00A3E0FDB40015ECB41011900CA3E030E434
:10B5DA000AE054EFF0900D867401F0E4B50515EC1D
:10B5EA00B42011900CA3E020E40AE04410F0900D7E
:10B5FA00867401F0900C35E0FF12005E400D900C4D
:10B60A0035E06007E4F0900D8604F0900C49E0FF05
:10B61A0012005E400D900C49E06007E4F0900D8640
:10B62A0004F0900C5DE0FF12005E400D900C5DE0AE
:10B63A006007E4F0900D8604F0900CA6E0B4FF07D2
:10B64A00E4F0900D8604F0900CA7E0B4FF11A3E09B
:10B65A00B4FF0CE4900CA7F0A3F0900D8604F090D0
:10B66A000D86E0601012C5DF7B017A0C79357D808A
:10B67A007C0012C007900018E06010900CA5E03022
:0BB68A00E4047F0080027F0112C6373D
:01B695002292
:10C5DF00AF84E4F584781EF608F6A2AF33FEC2AF3F
:10C5EF0043B701758F0718E6FC08E6F5828C83E4E4
:0DC5FF00F0F58F53B7FEEE24FF92AF8F844E
:01C60C00220B
:0AC007008B4F8A5089518C528D53E3
:10C01100858454E4F584781EF608F6A2AF33FFC296
:10C02100AF43B701758F05E4F555F556C3E5569550
:10C0310053E5526480F8E5556480985029784FE4BF
:10C0410075F0011233D7122E7DFE781E0806E61810
:10C05100860470010614F5828C83EEF00556E556D0
:10C0610070CA055580C6E4F58F53B7FEEF24FF92E1
:04C07100AF855484BF
:01C0750022A8
:06C2C4008B4F8A508951E6
:10C2CA00858452E4F553F554F584A2AF33F555C28B
:10C2DA00AF758F04E4FFFE0554E554AC53700205B4
:10C2EA005314F5828C83E493FD784FE475F00112C0
:10C2FA0033D7ED122EF60FBF00010EEF64804E7099
:0DC30A00D6E4F58FE55524FF92AF855284EF
:01C317002203
:0EBD88008E568F578C588D598B5A8A5B895C6A
:09BD960012007EEF30E7F9C2F95A
:10BD9F00E4F561F5620562E5627002056164404594
:03BDAF006170F2CE
:10BDB200E5576401455670047F8480027F87120034
:10BDC2003EE4FF12003EE4FF12003EE4FF12003E9A
:10BDD200E4F55FF560C3E5609559E5586480F8E5E0
:10BDE2005F648098501DAB5AAA5BA95C856082850E
:10BDF2005F83122E96FF12003E0560E56070D60545
:10BE02005F80D2D2F9AD5EAC5DAF57AE5602BF13C2
:08BF13008E638F648C658D665E
:10BF1B00900948E0FEA3E0FF12BBC98F6712007EB9
:06BF2B00EF30E7F9C2F956
:10BF3100E4F568F5690569E56970020568644045DD
:03BF41006870F233
:10BF4400E5676010E5646401456370047F838012D3
:10BF54007F86800EE5646401456370047F828002FD
:10BF64007F8512003EE566AE657806CEA2E713CE65
:10BF740013D8F8FF12003EAF66EF25E025E0FF126C
:09BF8400003EE4FF12003ED2F978
:01BF8D002291
:0CBE12008E3F8F408C418D428A438B4450
:09BE1E0012007EEF30E7F9C2F9D1
:10BE2700E4F54AF54B054BE54B7002054A6440457E
:03BE37004A70F25C
:10BE3A00E5406401453F70047F8480027F871200D9
:10BE4A003EE4FF12003EE5435403FF12003EAF44B6
:10BE5A00E54412003EE4F548F549C3E5499542E553
:10BE6A00416480F8E548648098501DAB45AA46A90C
:10BE7A0047854982854883122E96FF12003E05495E
:0ABE8A00E54970D6054880D2D2F9D0
:01BE9400228B
:08C0E3008E418F428C438D4415
:09C0EB0012007EEF30E7F9C2F902
:10C0F400E4F547F5480548E54870020547644045BE
:03C104004770F28F
:10C10700E5426401454170047F8480027F87120005
:10C117003EE4FF12003EE4FF12003EE4FF12003E41
:10C12700E4F545F546C3E5469544E5436480F8E5FF
:10C1370045648098500F7FFF12003E0546E5467024
:07C14700E4054580E0D2F998
:01C14E0022CE
:02007E00C2F9C5
:10008000E4F573F5740574E5747002057364404516
:030090007370F298
:0C0093007FD712003EE4FF12003ED2F9BD
:01009F00223E
:0ABC63008E538F548B558A56895773
:09BC6D0012007EEF30E7F9C2F984
:10BC7600E4F55CF55D055DE55D7002055C644045D7
:03BC86005C70F2FD
:10BC89007FD212003EE559AE587806CEA2E713CE10
:10BC990013D8F8FF12003EAF59EF25E025E0FF1257
:10BCA900003EE4FF12003EE4FF12003EE4FF1200F2
:10BCB9003EE4FF12003EE4FF12003EE4F55AF55B54
:10BCC900C3E55B9554E5536480F8E55A6480985060
:10BCD9001FE4FF12003EAB55AA56A957855B828522
:10BCE9005A83EF122F08055BE55B70D4055A80D0A3
:02BCF900D2F97E
:01BCFB002226
:08BBC9008E6A8F6B8C6C8D6D90
:0CBBD100756E0112007EEF30E7F9C2F93A
:10BBDD00E4F571F5720572E5727002057164404508
:03BBED007170F282
:10BBF0007FD212003EE56DAE6C7806CEA2E713CE82
:10BC000013D8F8FF12003EAF6DEF25E025E0FF12DC
:10BC1000003EE4FF12003EE4FF12003EE4FF12008B
:10BC20003EE4FF12003EE4FF12003EE4F56FF570C3
:10BC3000C3E570956BE56A6480F8E56F64809850A1
:10BC40001DE4FF12003EBFFF047F0180027F008FD2
:10BC50006EEF600A0570E57070D6056F80D2D2F97C
:02BC6000AF6EC5
:01BC620022BF
:04C3B1008E528F53C6
:09C3B50012007EEF30E7F9C2F935
:10C3BE00E4F554F5550555E55570020554644045B0
:03C3CE005470F2B6
:10C3D1007F5012003EE553AE527806CEC313CE1302
:10C3E100D8F9FF12003EAF53EF25E025E0FF120020
:08C3F1003EE4FF12003ED2F908
:01C3F9002221
:04C3FA008E538F547B
:09C3FE0012007EEF30E7F9C2F9EC
:10C40700E4F555F5560556E5567002055564404561
:03C417005570F26B
:10C41A007F8112003EE554AE537806CEC313CE1385
:10C42A00D8F9FF12003EAF54EF25E025E0FF1200D5
:08C43A003EE4FF12003ED2F9BE
:01C4420022D7
:06C076008C4D8D4E8B4F36
:10C07C00E54F6002C2B68E508F51D3E551954EE517
:10C08C0050954D504BE55154077034C3E54E9551C6
:10C09C00FFE54D9550FEC3EF9408EE94004020E56B
:10C0AC004F6008E551543F7002B2B6AF51AE50121A
:10C0BC00C3B174072551F551E43550F5508007AFE5
:10C0CC0051AE5012C3FA0551E55170AE055080AA1D
:06C0DC00E54F6002C2B650
:01C0E200223B
:06B696008B3B8A3C893D5C
:06B69C00D2F8D2F9C2FA57
:10B6A200E4F541F5420542E5427002054164404538
:03B6B2004170F2F2
:02B6B500D2FAC7
:10B6B700E4F541F5420542E5427002054164404523
:03B6C7004170F2DD
:10B6CA0012007EEF543C123482B6EC0CB6F614B774
:10B6DA00001CB70A24B7252CB74034B75B3C0000DE
:10B6EA00B777AB3BAA3CA93D7402801CAB3BAA3C92
:10B6FA00A93D74048012AB3BAA3CA93D740880089A
:10B70A00AB3BAA3CA93D741075F00012308EAB3EDB
:10B71A00AA3FA940740175F008804FAB3BAA3CA927
:10B72A003D741075F00012308EAB3EAA3FA94074EA
:10B73A000275F0108034AB3BAA3CA93D742075F029
:10B74A000012308EAB3EAA3FA940740275F01080F9
:10B75A0019AB3BAA3CA93D742075F00012308EABA0
:0DB76A003EAA3FA940740475F02012308EF5
:01B7770022AF
:10FE00008E4E8F4F8E4E8F4FE4F550F551A2AF338B
:10FE1000F552C2AFE4F58443B701758F03C3E550D3
:10FE200094FC50168551828550837488F0E42551E6
:10FE3000F55174043550F55080E3E4F58FF550F535
:10FE400051F555F55675840FE55654037002B2B658
:10FE500012FFB58F57E55730E7F6C2F9E4F558F5CC
:10FE6000590559E559700205586440455870F27FAC
:10FE7000D212FFA4E556AE557806CEC313CE13D8E2
:10FE8000F9FF12FFA412FF9CE4FF12FFA4E4FF128B
:10FE9000FFA4E4FF12FFA4E4FF12FFA4E4FF12FF9B
:10FEA000A4E4F553F554E4FF12FFA474592554F566
:10FEB0008274003553F583EFF00554E55470020564
:10FEC00053C3E553940240DED2F9E4F584758F0103
:10FED000F553F55474592554F58274003553F58360
:10FEE000E0FF0551E551AC507002055014F5828CCD
:10FEF00083EFF00554E55470020553B400D6E55382
:10FF0000B402D1E4F58F0556E55670020555C39449
:07FF10007FE555940050034A
:10FF170002FE45E4F58F53B7FEE55224FF92AFE4A6
:10FF2700F5D075840FF555F556C3E5559420505413
:10FF3700E556543F7002B2B512FFB58F57E55730FB
:10FF4700E7F6C2F9E4F558F5590559E55970020580
:10FF5700586440455870F27F5012FFA4E556AE55DD
:10FF67007806CEC313CE13D8F9FF12FFA412FF9C55
:10FF7700E4FF12FFA4D2F974082556F556E4355567
:10FF8700F55580A512FFB58F57E55730E7F6E4F52D
:05FF97008443EF01228C
:10FF9C00AF56EF25E025E0FFAE84E4F5848F9B306F
:09FFAC00FFFDC2FFAF9B8E842211
:10FFB500C2F9E4F55AF55B055BE55B7002055A6429
:10FFC50040455A70F27FD712FFA4E4FF12FFA4D276
:02FFD500F9220F
:10A58C00900C2474E2F090993BE493FFAB3CAA3D11
:10A59C00A93E900001122E96FDE4F556F5577B0668
:04A5AC008F538B55E9
:10A5B0007558FFE4F559F55AED90993B93F55B74A6
:10A5C000312DF582E4340CF5837464F090993BE40A
:10A5D00093B55319E55564066013E5556415600D90
:10A5E000741E2DF582E4340CF583E555F0E55B75BA
:10A5F000F013A4248EF582E43402F5831233E77459
:10A6000016122EF6E55B75F013A4248EF582E43461
:10A6100002F5831233E7900001E553122F08E55B42
:10A6200075F013A4248EF582E43402F5831233E727
:10A63000900002ED122F0874022557F557E43556A5
:10A64000F556FFE55B75F013A4248EF582E4340221
:10A65000F5831233E7900003EF122F08E55B75F0E6
:10A6600013A4248EF582E43402F5831233E79000BC
:10A6700004E557122F08E55B75F013A4248EF582CC
:10A68000E43402F5831233E7900005E555122F08F4
:10A69000E4FEFFE55B75F013A4248EF582E434023A
:10A6A000F5831233E78F828E83122E9662580FBF86
:10A6B00000010EEF64064E70DAE55B75F013A4241A
:10A6C0008EF582E43402F5831233E7900006E558F4
:10A6D000122F0874FE2557F55774FF3556F556E5C9
:10A6E0005B75F013A4248EF582E43402F5831233F3
:10A6F000E7E92407F9E43AFAAD57AC5612C1B88E2F
:10A70000598F5AEEFFE55B75F013A4248EF582E4B1
:10A710003402F5831233E70557E5577002055624D6
:10A7200006F582E43556F583EF122F08E55B75F0E8
:10A7300013A4248EF582E43402F5831233E705571F
:10A74000E557700205562406F582E43556F583E593
:10A750005A122F08E55B75F013A42481F9740235B1
:10A76000F0FA7B01E5572407FDE43556FC12C213CD
:09A77000E5572407FFE43556FE0D
:01A7790022BD
:084498008F3B8B3C8A3D893EFD
:1044A000E4900CF2F0A3F0900003122E96FE900020
:1044B00004122E967C002400FFEC3ECF24FECF3465
:1044C000FFFE900CF4F0FCA3EFF0FDE92407F9E403
:1044D0003AFA12C367900CF2EEF0A3EFF04E603A96
:1044E000AB3CAA3DA93E900005122E96FF641570C4
:1044F00003024D7AEF64067003024D7A90000112B8
:104500002E962431F582E4340CF5837464F0900027
:0A45100001122E96FF7D04024903FC
:10451A00AB3CAA3DA93E900002122E96FF90993B11
:10452A00E4936F70030245D4EFF470030245D4EFAD
:10453A0093FF3395E0FE90028E75F013EF1233CBA2
:10454A00EE75F013A42583F5831233E7E92407F9FE
:10455A00E43A8B44F5458946E53E2407F9E4353DBE
:10456A00853C41F5428943E4F53FF540D3900CF58B
:10457A00E09540900CF4E0953F40247841E475F0D2
:10458A00011233D7122E7DFF7844E475F0011233FD
:10459A00D7EF122EF60540E54070D1053F80CDAB2E
:1045AA003CAA3DA93E900001122E96FF90000212ED
:1045BA002E96FD900005122E96FB900CF4E0F5560F
:1045CA00A3E0F55712A5AC024D7AAB3CAA3DA93E31
:1045DA00900005122E96123482463806467310460B
:1045EA005C154938304A5D314A85324AAD334B9DB4
:1045FA00344AD5354AFD364B25374B9D384B4D3914
:10460A004B753A484D4048A14148A1424BC9504CCC
:10461A001B51496D5547807047DD714699904D068B
:10462A00914BC1934A259447219800004D4690002A
:10463A0001122E96241EF582E4340CF583AB3CAAB3
:10464A003DA93E900001122E96241EF582E4340CF8
:10465A008010AB3CAA3DA93E122E7D241FF582E4B0
:10466A00340CF583E4F0024D33900C24E0FF64E14E
:10467A006004EFB4E20512C318800312A592900CED
:0F468A00F2EEF0A3EFF0AB3CAA3DA93E024D3398
:10469900900C24E0FF64E16004EFB4E20512C31852
:1046A9008065AB3CAA3DA93E900007122E96FE906C
:1046B9000008122E967C002400F548EC3EF547E5EB
:1046C9003B75F013A4248EF582E43402F58312338A
:1046D900E7E92407F9E43AFA900948E0FEA3E0FF84
:1046E90085475885485912BC6390993BE493FFABC1
:1046F9003CAA3DA93E900001122E96FD900948E082
:10470900F556A3E012A5A8900CF2EEF0A3EFF0ABDA
:084719003CAA3DA93E024D330C
:10472100900C24E0FF64E16004EFB4E20512C318C9
:10473100803CAB3CAA3DA93E900007122E96FE900C
:104741000008122E967C002400F548EC3EF54790B7
:104751000948E0FCA3E0FDE92409F9E43AFA8547B8
:104761005D85485E7F027E0012BD8812A592900C85
:0F477100F2EEF0A3EFF0AB3CAA3DA93E024D33B0
:10478000900C24E0FF64E16004EFB4E20512C3186A
:10479000803AE53B75F013A4248EF582E43402F5EB
:1047A000831233E7E92407F9E43AFA12C2C4909974
:1047B0003BE493FFAB3CAA3DA93E900001122E962C
:1047C000FD7556007557807B0612A5AC900CF2EE75
:1047D000F0A3EFF0AB3CAA3DA93E024D33900C2470
:1047E000E0FF64E16004EFB4E20512C318804D12EB
:1047F000C5DFAB3CE53E2407F9E4353DFA900CF407
:10480000E0FEA3E0FFC39480EE94005006AC06AD3A
:104810000780047C007D8012C0077B017A0C79350B
:1048200012C2C4900018E06010900CA5E030E404BF
:104830007F0080027F0112C63712A592900CF2EE23
:0D484000F0A3EFF0AB3CAA3DA93E024D33C2
:10484D00900C24E0FFF547AB3CAA3DA93E9000013A
:10485D00122E962431F582E4340CF583E4F0EF64E6
:10486D00E16007900C24E0B4E20C900001122E964A
:10487D00FF7D2002490312A58C900CF2EEF0A3EF00
:10488D00F0AB3CAA3DA93E900007122E96FF12AC4C
:04489D00E302492FBA
:1048A100900C24E0FFF547AB3CAA3DA93E900005E2
:1048B100122E96FE7C00B441047D0080027D058CA1
:1048C100488D49EE900C23E024FFFD900C22E0344A
:1048D100FFFC8C4A8D4BAB3CAA3DA93E90000112D6
:1048E1002E962431F582E4340CF583E4F0EF64E193
:1048F1006007900C24E0B4E217900001122E96FF9D
:104901007D2012C327900CF2EEF0A3EFF0024D7A56
:1049110012A58C900CF2EEF0A3EFF0E4FFFE12C3AF
:10492100FA7B01AD4BAC4AAF49AE4812C076900C50
:0749310024E547F0024D7A76
:1049380012A592900CF2EEF0A3EFF0AB3CAA3DA9C1
:104948003E900001122E962431F582E4340CF58352
:10495800E4F012007E8F47E54730E7F6E4F584433C
:05496800EF01024D7A91
:10496D0012A592900CF2EEF0A3EFF07B017A027992
:0C497D00817F007EE17D007C00129F9F86
:10498900900CE612335C00004650E4FFFEFDFC90FB
:104999000CE6123314D312322D4017900CE6123361
:1049A9000874FFFBFAF9F81230DA900CE61233506A
:0249B90080D8A4
:1049BB00E4F584C2ACC298D29975840153E7BFC2A7
:0349CB0098D299E6
:1049CE0075840F30E815C39002C2E094099002C1BD
:1049DE00E094004006E4F58443EF01E4F58430985A
:1049EE0017758401309911C299F584859947C2983B
:1049FE00B2B47584018547997584013098C2E4F587
:104A0E00843099BCC299758401859947C298B2B514
:054A1E00F584854799B5
:104A230080A912A592900CF2EEF0A3EFF0AB3CAA92
:104A33003DA93E900001122E962431F582E4340CF8
:104A4300F583E4F0900018E07003024D7A900007BC
:104A5300122E96FF12C637024D7A12A592900CF2CF
:104A6300EEF0A3EFF0AB3CAA3DA93E900001122E5D
:104A7300962431F582E4340CF583E4F012366602B1
:104A83004D7A12A592900CF2EEF0A3EFF0AB3CAA94
:104A93003DA93E900001122E962431F582E4340C98
:104AA300F583E4F0125D7F024D7A12A592900CF229
:104AB300EEF0A3EFF0AB3CAA3DA93E900001122E0D
:104AC300962431F582E4340CF583E4F012965C020B
:104AD3004D7A12A592900CF2EEF0A3EFF0AB3CAA44
:104AE3003DA93E900001122E962431F582E4340C48
:104AF300F583E4F0126AD4024D7A12A592900CF277
:104B0300EEF0A3EFF0AB3CAA3DA93E900001122EBC
:104B1300962431F582E4340CF583E4F012647302D5
:104B23004D7A12A592900CF2EEF0A3EFF0AB3CAAF3
:104B33003DA93E900001122E962431F582E4340CF7
:104B4300F583E4F0127D76024D7A12A592900CF271
:104B5300EEF0A3EFF0AB3CAA3DA93E900001122E6C
:104B6300962431F582E4340CF583E4F01274C80220
:104B73004D7A12A592900CF2EEF0A3EFF0AB3CAAA3
:104B83003DA93E900001122E962431F582E4340CA7
:104B9300F583E4F0129D76024D7AAB3CAA3DA93E23
:104BA300900001122E962431F582E4340CF583E44F
:104BB300F0900005122E96FF1289E7024D7A9002BB
:104BC300EE74FF024C9E900C24E064F07027754F46
:104BD30001755000755105AB3CAA3DA93E12B91DA4
:104BE30012A592900CF2EEF0A3EFF0057FE57F7033
:104BF3001E057E801AAB3CAA3DA93E900001122EF1
:104C030096FF7D0812C327900CF2EEF0A3EFF0ABF2
:104C13003CAA3DA93E024D33900C24E0B4F114AB01
:104C23003CAA3DA93E900007122E96FF900005E096
:104C33006F6072AB3CAA3DA93E900001122E96FF15
:104C43007D0812C327900CF2EEF0A3EFF0AB3CAA61
:104C53003DA93E900001122E962431F582E4340CD6
:044C6300F583E4F001
:104C6700900CEA12335C0000AFC8E4FFFEFDFC9035
:104C77000CEA123314D312322D4017900CEA123378
:104C87000874FFFBFAF9F81230DA900CEA12335085
:024C970080D8C3
:104C99009002EE74F2F0900CB77401F0024D7A12A2
:104CA900A592900CF2EEF0A3EFF0AB3CAA3DA93E21
:104CB900900001122E962431F582E4340CF583E438
:014CC900F0FA
:104CCA00900CEE12335C0000AFC8E4FFFEFDFC90CE
:104CDA000CEE123314D312322D4017900CEE12330D
:104CEA000874FFFBFAF9F81230DA900CEE1233501E
:024CFA0080D860
:104CFC00AF7FAE7E12C516024D7A900CB77401F0E0
:104D0C00AB3CAA3DA93E900007122E969002EEF005
:104D1C0090993BE493FF12A59E900CF2EEF0A3EF5A
:104D2C00F0AB3CAA3DA93E900001122E962431F521
:104D3C0082E4340CF583E4F08034AB3CAA3DA93E0C
:104D4C00900001122E962431F582E4340CF5837414
:104D5C0064F0900001122E96FF7D0212C327900C76
:0E4D6C00F2EEF0A3EFF074FF900CF2F0A3F063
:084D7A00900CF2E0FEA3E0FF43
:014D8200220E
:0AC367008B4C8A4D894E8C4F8D508F
:10C3710012C1B88E518F52AB4CAA4DA94E85508235
:10C38100854F83122E967F00FEE5502401FDE43592
:10C391004F8D82F583122E962FFFE43EFEE552B5B6
:0FC3A1000709E551B50604E4FEFF227EFF7FFF8A
:01C3B000226A
:0FC31800AB3CAA3DA93E900001122E96FF7D205E
:10C32700AE07EE90993B93FB3395E0FA90028E753A
:10C33700F013EB1233CBEA75F013A42583F58312C0
:10C3470033E7900007ED122F0890993BE493FFAD78
:10C35700067556007557017B1512A5ACE4FEFF2242
:06B91D008B4C8A4D894E9F
:10B92300E4F552F553900003122E96FE9000041294
:10B933002E96FDEEF554EDF555E4F552F553E55528
:10B9430024FEFFE55434FFFEC364809482500280DA
:10B95300047E027F00C3E5539FEE6480F8E55264E2
:10B9630080985048AB4FAA50A951C003C002C001F0
:10B97300122E7DFFAB4CAA4DA94EE5532407FDE4DF
:10B9830035528D82F583122E96FE74592553F58216
:10B9930074003552F583EEF06FD001D002D003125C
:10B9A3002EF60553E5537096055280927E00E57F8F
:10B9B3005401FF900948E0FCA3E0FD7B017A007984
:0AB9C30059857E5D857F5E02BD8818
:04C516008E4C8F4D6B
:10C51A0090FE00E493FE740193FF900CF9EEF0A3F1
:10C52A00EFF0BE8012BFFE0F7B007AFE7902900CFC
:0EC53A00F61233F00234D5AF7FAE7E12FE0053
:01C5480022D0
:10C57C00564F4C5453004F4E004F46460044726980
:10C58C0076657241004361724100547261636B4184
:10C59C0000416E616C6F6778004469676974616C07
:02C5AC00780015
:06B419008B3B8A3C893DDB
:10B41F007B017A007959E4F558F5597F107E0212B5
:10B42F00BC63AB3BAA3CA93DE475F00412308E908F
:10B43F000C22E0FFA3E0AB3EAA3FA940CF8FF01252
:10B44F00308EE4900CE6F0900CE6E0FFC3941540CC
:10B45F000302B54075F019EF9000591233CBE0FE9F
:10B46F00A3E0F47002EEF4700302B537900CE6E03F
:10B47F0075F01990005B1233CBE0FCA3E0F470027F
:10B48F00ECF4700302B537AB3BAA3CA93D122FF386
:10B49F00FDACF075F019EF90005B1233CBE0FEA31B
:10B4AF00E0D39DEE9C4014900CE6E075F0199000EF
:10B4BF005B1233CBE0FEA3E0FF8004AE04AF05AB1D
:10B4CF003BAA3CA93DEE8FF012308E900CE6E0FFC8
:10B4DF0075F01990006D1233CBE0FCA3E0F470020D
:10B4EF00ECF46044AB3EAA3FA940122FF3FDACF041
:10B4FF0075F019EF90006D1233CBE0FEA3E0C39D02
:10B50F00EE9C5014900CE6E075F01990006D12331C
:10B51F00CBE0FEA3E0FF8004AE04AF05AB3EAA3F35
:10B52F00A940EE8FF012308E900CE6E004F002B4DA
:10B53F0056AB3BAA3CA93DE475F001123056AB3E29
:0BB54F00AA3FA94074FFF5F00230563F
:06909A008B3B8A3C893D7E
:1090A00090003F12335CFFFFFFFF90002B12335CF8
:1090B000FFFFFFFF74FF900019F0A3F0900016F07F
:1090C000A3F07B017A0C79E67558007559017F1081
:1090D0007E0212BC63900CE6E0900EF6F0900CE776
:1090E000E0900EF7F0900CE8E0900EF8F0900CE9AC
:1090F000E0540F900EF9F0E024FC600C2402701094
:10910000900CB57414F0800E900CB57428F08006A5
:10911000900CB5740AF09000067402F0A3740FF07E
:109120009002BDE030E7034403F0900948E0FCA35F
:10913000E0FD7F017E0012C0E312C14F1200A67B4A
:10914000017A0C79E6E4F558F5597F107E0212BCDD
:1091500063AB3BAA3CA93DE475F00412308EE49069
:109160000EFAF0900C22E0FFA3E0AB3EAA3FA9402C
:10917000CF8FF012308EE4900EFBF0900EFBE0FFEC
:10918000C39415400302927675F019EF900CE61225
:1091900033CBE0FEA3E0FFBEFF16BFFF13900EFA35
:1091A000E0600302926DA3E004900EFAF002926D6B
:1091B000900EFBE0FF75F019900CE81233CBE0FC49
:1091C000A3E0F47002ECF4700302926DAB3BAA3C96
:1091D000A93D122FF3FDACF075F019EF900CE812D9
:1091E00033CBE0FEA3E0D39DEE9C4014900EFBE059
:1091F00075F019900CE81233CBE0FEA3E0FF800479
:10920000AE04AF05AB3BAA3CA93DEE8FF012308E09
:10921000900EFBE0FF75F019900CFA1233CBE0FCD6
:10922000A3E0F47002ECF46044AB3EAA3FA9401204
:109230002FF3FDACF075F019EF900CFA1233CBE080
:10924000FEA3E0C39DEE9C5014900EFBE075F01958
:10925000900CFA1233CBE0FEA3E0FF8004AE04AF23
:1092600005AB3EAA3FA940EE8FF012308E900EFB68
:10927000E004F002917B900EFAE07002FF22AB3E18
:10928000AA3FA940122FF3FFAEF0AB3BAA3CA93D89
:10929000122FF3C39FE5F09E40037F0022E475F098
:1092A00001123056AB3EAA3FA94074FFF5F01230D0
:1092B00056AB3BAA3CA93D122FF3FFAEF0D3940569
:1092C000EE9400400280047E007F05900EFAE0FDDF
:1092D00075F019900CCD1233CBEEF0A3EFF09002A5
:1092E000BDE0FF600EAB3EAA3FA940122FF3FBAAE0
:1092F000F080047AFF7BFF75F019ED900CDF1233DC
:10930000CBEAF0A3EBF075F019ED900CE11233CB42
:1093100074FFF0A3F075F019ED900CDE1233CBEF73
:10932000F0900EF6E0FF75F019ED900CE31233CBE0
:10933000EFF0900EF8E0FF75F019ED900CE41233A9
:10934000CBEFF0900EF7E0FF75F019ED900CE51201
:1093500033CBEFF0900EF9E0FF75F019ED900CDDD6
:109360001233CBEFF07B017A0C79E6E4F55DF55E24
:0F9370007D107C027F02FE12BD88900EFAE0FF96
:01937F0022CB
:0AB2BB008F3F8C408D418A428B4387
:10B2C500153F7B017A0E79FEE4F558F5597F107E1E
:10B2D5000212BC6374FFFFFEFDFC90002B123314B9
:10B2E500C3123243705F75F019E53F900F081233B2
:10B2F500CB12335CFFFFFFFF75F019E53F900F029E
:10B305001233CB12335CFFFFFFFF75F019E53F9059
:10B315000F0C1233CB74FFF0A3F075F019E53F90D5
:10B325000F061233CB74FFF0A3F075F019E53F90CB
:10B335000F001233CB74FFF0A3F075F019E53F90C1
:10B345000EFE02B3FC90002B12330875F019E53F91
:10B35500900F021233CB123350900016E0FEA3E09B
:10B36500FF75F019E53F900F061233CBEEF0A3EF12
:10B37500F090003F12330875F019E53F900F081261
:10B3850033CB123350900019E0FEA3E0FF75F0199E
:10B39500E53F900F0C1233CBEEF0A3EFF075F019EB
:10B3A500E53F900F001233CBE540F0A3E541F09067
:10B3B50002BDE0602A75F019E53F900F101233CBFE
:10B3C500E0FEA3E0F47002EEF4601475F019E53FB9
:10B3D500900F121233CBE542F0A3E543F0802075C0
:10B3E500F019E53F900F121233CB74FFF0A3F075FF
:10B3F500F019E53F900F101233CB74FFF0A3F07BEB
:10B40500017A0E79FEE4F55DF55E7D107C027F0222
:04B41500FE02BD88EE
:10A39800E4900EFCF0A3F07B017A0C79EAF558F50D
:10A3A800597F107E0212BC63E4900EFCF0A3F0907B
:10A3B8000EFCE0FEA3E0FFC39415EE9400400302F8
:10A3C800A58B900CEA75F019EF1233CBEE75F019E6
:10A3D800A42583F583E0FEA3E0F47002EEF4700395
:10A3E80002A57E900EFCE0FEA3E0900CF275F01939
:10A3F8001233CBEE75F019A42583F583E0FCA3E0B6
:0AA40800F47002ECF4600302A56C8E
:10A41200900EFCE0FCA3E0FD900CEA75F0191233FB
:10A42200CBEC75F019A42583F583E0FBA3E0900E35
:10A43200FACBF0A3EBF0900CFC75F019ED1233CBD4
:10A44200EC75F019A42583F583E0FDA3E0900CE6FA
:10A45200CDF0A3EDF0900CFE75F019EF1233CBEEB8
:10A4620075F019A42583F583E0FFA3E0900CE8CFF3
:10A47200F0A3EFF07B017A0C79EA900EFAE0F5583E
:10A48200A3E0F5597F107E0212BC63900CEA1233EE
:10A492000890002B123350900CEEE0FFA3E09000E6
:10A4A20016CFF0A3EFF0900C23E024FFFF900C22D4
:10A4B200E034FFFEC3900EFBE09F900EFAE09E4058
:10A4C2000302A56C7B017A0C79EAE0F558A3E0F56A
:10A4D200597F107E0212BC6374FFFFFEFDFC900CDC
:10A4E200EA123314C312324370737B017A0C79EA95
:10A4F200900EFBE024FFF559900EFAE034FFF55878
:10A502007F107E0212BC63900CEA12330890003F67
:10A51200123350900CEEE0FFA3E0900019CFF0A3AD
:10A52200EFF0900CE8E0B4FF12A3E0B4FF0D900C42
:10A53200E6E0FFA3E0A3CFF0A3EFF0900EFCA3E0D0
:10A5420004FF900EFBE024FFFD900EFAE034FFFCC6
:10A55200900CE8E0FAA3E0FB12B2BB800D900EFA79
:0AA56200E475F001122FC702A4A84F
:10A56C007B017A0C79EAE4F558F5597F107E0212DA
:0FA57C00BC63900EFCE475F001122FC702A3B769
:01A58B0022AD
:02ACE3008F4C94
:10ACE5007B017A0C79F6E4F558F5597F107E02124E
:10ACF500BC6375F019E54C900CDD1233CBE0FEA377
:10AD0500E0F47002EEF4603B75F019E54C900CDF51
:10AD15001233CBE0FEA3E0F47002EEF4602575F08B
:10AD250019E54C900CDD1233CBE0FEA3E0FF75F086
:10AD350019E54C900CDF1233CBE0FCA3E0FD7B0161
:10AD450012C0767B017A0C79F6E4F558F5597F1037
:10AD55007E0212BC6375F019E54C900CEF1233CBF3
:10AD6500E0FEA3E0F47002EEF4603B75F019E54CEB
:10AD7500900CF11233CBE0FEA3E0F47002EEF46028
:10AD85002575F019E54C900CF11233CBE0FEA3E0EC
:10AD9500FF75F019E54C900CEF1233CBE0FCA3E006
:10ADA500FD7B0112C0767B017A0C79F6E4F558F546
:10ADB500597F107E0212BC6375F019E54C900CF1B9
:10ADC5001233CB74FFF0A3F075F019E54C900CEF3E
:10ADD5001233CB74FFF0A3F075F019E54C900CDF3E
:10ADE5001233CB74FFF0A3F075F019E54C900CDD30
:10ADF5001233CB74FFF0A3F075F019E54C900CE716
:10AE05001233CB12335CFFFFFFFF75F019E54C9051
:10AE15000CE11233CB12335CFFFFFFFF75F019E530
:10AE25004C900CEB1233CB74FFF0A3F075F019E5E1
:10AE35004C900CE51233CB74FFF0A3F075F019E5D7
:10AE45004C900CEE1233CBE4F075F019E54C900CF8
:10AE5500ED1233CBE4F07B017A0C79F6F55DF55E06
:0AAE65007D107C027F02FE02BD8812
:10565200E4F53C7B017A0D790BF5587559017F1001
:105662007E0212BC6374FFFFFEFDFC900D0B123331
:1056720014C31232436003025750753C01900D0D62
:10568200F0900D0CF0900D0BF0900D0F7480F090D7
:085692000D0E7402F0E4F53B7B
:10569A0078E67C0C7D017BFF7AC579897E007F08DC
:1056AA00122E57E53B2441900CECF0E53B75F010C7
:1056BA00A42410F9740D35F0A801FC7D017B017A50
:0656CA000C79E61235A781
:0A56D000053BE53BB40CC3E4F53BD9
:1056DA0078EE7C0C7D017BFF7AC579917E007F058F
:1056EA00122E57E53B2441900CF1F0E53B75F0167C
:1056FA00A424D0F9740D35F0A801FC7D017B017A50
:10570A000C79EE1235A775F016E53B900DE01233D1
:10571A00CBE4F0A37404F075F016E53B900DE212A9
:10572A0033CB7417F0A37470F075F016E53B900D47
:0B573A00E41233CB741BF0A37458F092
:10574500053BE53B640C708D025827900D0BE0D3AB
:10575500940C4005E4F0753C01900D0CE0D39410D9
:105765004005E4F0753C01900D0DE0D3940C400527
:10577500E4F0753C01E4F53B75F010E53B900D1048
:105785001233CBE0FF12005E401E75F010E53B9032
:105795000D101233CBE0601075F010E53B900D1045
:1057A5001233CBE4F0753C01053BE53BC3940C405B
:1057B500C7E4F53B75F016E53B900DD01233CBE011
:1057C500FF12005E405375F016E53B900DD0123385
:1057D500CBE0604575F016E53B900DD01233CBE478
:1057E500F075F016E53B900DE01233CBE4F0A374B1
:1057F50004F075F016E53B900DE21233CB7417F00B
:10580500A37470F075F016E53B900DE41233CB747C
:105815001BF0A37458F0753C01053BE53BC3940CA4
:105825004092E53C60177B017A0D790B755D00753B
:105835005E017D107C027F027E0012BD887B017AAD
:105845000D790B7558007559027F107E0212BC63E5
:10585500E4F53C900D0BE0F460030258F1A3E0F48D
:0A58650060030258F1753C01F53BA9
:10586F0078F37C0C7D017BFF7AC579967E007F07EC
:10587F00122E57E53B2441900CF8F0E53B75F01CD8
:10588F00A4240BF9740D35F0A801FC7D017B017A7E
:10589F000C79F31235A775F01CE53B900D1F1233F1
:1058AF00CB12335C0000000075F01CE53B900D1B24
:1058BF001233CB12335C0000000075F01CE53B90F7
:1058CF000D231233CBE4F0A3F075F01CE53B900DE4
:0858DF00251233CBE4F0A3F025
:1058E700053BE53B64107080807EE4F53B75F01C5A
:1058F700E53B900D0B1233CBE0FF12005E40607565
:10590700F01CE53B900D0B1233CBE0605275F01C99
:10591700E53B900D0B1233CBE4F075F01CE53B90A3
:105927000D1F1233CB12335C0000000075F01CE52D
:105937003B900D1B1233CB12335C0000000075F057
:105947001CE53B900D231233CBE4F0A3F075F01C5C
:10595700E53B900D251233CBE4F0A3F0753C010530
:105967003BE53BC394104085E53C60177B017A0D0E
:10597700790B755D00755E027D107C027F027E00EB
:1059870012BD88E4F53C7B017A0D790BF558755902
:10599700047F107E0212BC63900D0BE0F4600302DB
:1059A7005A5BA3E0F46003025A5B753C01F53B7553
:1059B700F00CE53B900D0F1233CB12335C00000067
:1059C7000075F00CE53B900D0B1233CB12335C00E6
:1059D70000000075F00CE53B900D131233CBE4F09B
:1059E700A3F075F00CE53B900D151233CBE4F0A353
:0B59F700F0053BE53BB410B7E4F53BC6
:105A020075F014E53B900DCD1233CBE4F0A3F075A5
:105A1200F014E53B900DCB1233CBE4F0A3F0F53D4F
:105A2200F53EE53E25E0FFE53D33FE75F014E53B2E
:105A3200900DCF1233CBE5822FF582E5833EF583BD
:105A4200E4F0A3F0053EE53E7002053D6408453DE5
:025A520070D012
:105A5400053BE53BB40CA7E53C60177B017A0D7967
:105A64000B755D00755E047D107C027F027E001262
:105A7400BD88E4F53C7B017A0D790BF55875590323
:105A84007F107E0212BC6374FFFFFEFDFC900D0BC1
:105A9400123314C31232436003025C3F753C01F5B8
:015AA4003BC6
:105AA50078FA7C0C7D017BFF7AC5799D7E007F08A5
:105AB500122E57E53B2430900D00F0E53B75F0289C
:105AC500A4240BF9740D35F0A801FC7D017B017A46
:105AD5000C79FA1235A7E53B75F028A42417F9745B
:105AE5000D35F0A801FC7D017BFF7AC5797C123567
:105AF500A775F028E53B900D231233CB7414F07590
:105B0500F028E53B900D241233CB12335C000000E6
:105B15000075F028E53B900D281233CB12335C411C
:105B2500A0000075F028E53B900D2C1233CB123305
:105B35005C41A0000075F028E53B900D301233CB99
:105B45007401F075F028E53B900D311233CBE4F08C
:0E5B550075F028E53B900D321233CB74F8F05A
:0E5B6300053BE53B64046003025AA5E4F53BF4
:105B710078027C0D7D017BFF7AC579A57E007F09C6
:105B8100122E57E53B2430900D09F0E53B75F024CA
:105B9100A424ABF9740D35F0A801FC7D017B017AD9
:105BA1000D79021235A7E53B75F024A424B7F974E9
:105BB1000D35F0A801FC7D017BFF7AC57982123594
:105BC100A7E53B75F024A424C3F9740D35F0A801B1
:0C5BD100FC7D017BFF7AC579851235A7A9
:105BDD00053BE53BB4078DE4F53B75F005E53B90E2
:105BED000EA91233CBE4F0A3F075F005E53B900E52
:105BFD00A71233CBE4F0A3F075F005E53B900EABA7
:105C0D001233CB7401F0053BE53BB402CDE4F53B1B
:105C1D0074B1253BF582E4340EF583E4F0053BE5E4
:105C2D003BB402EC900EB17403F0900EB314F0027D
:105C3D005D63E4F53B75F028E53B900D0B1233CB1E
:105C4D00E0FF12005E5003025CE575F028E53B9025
:105C5D000D0B1233CBE07003025CE575F028E53BCC
:105C6D00900D0B1233CBE4F075F028E53B900D232E
:105C7D001233CB7414F075F028E53B900D241233DC
:105C8D00CB12335C0000000075F028E53B900D2829
:105C9D001233CB12335C41A0000075F028E53B9028
:105CAD000D2C1233CB12335C41A0000075F028E5AA
:105CBD003B900D301233CB7401F075F028E53B901D
:105CCD000D311233CBE4F075F028E53B900D321217
:105CDD0033CB74F8F0753C01053BE53BC3940450A0
:105CED0003025C42E4F53B75F024E53B900DAB12ED
:105CFD0033CBE0FF12005E405475F024E53B900D70
:105D0D00AB1233CBE0604675F024E53B900DAB1242
:105D1D0033CBE4F0E53B75F024A424B7F9740D35CD
:105D2D00F0A801FC7D017BFF7AC579821235A7E5CC
:105D3D003B75F024A424C3F9740D35F0A801FC7D46
:105D4D00017BFF7AC579851235A7753C01053BE5C9
:105D5D003BC394074091E53C60177B017A0D790BAD
:105D6D00755D00755E037D107C027F027E0012BDA5
:015D7D00889D
:015D7E002202
:10C14F008584417B017A0C793512C2C4900018E0C6
:10C15F00702EF58475D98075D84075DA4275DB423B
:10C16F00900C9AE0A3E0F5FB900C9AE0A3E0F5FCAD
:10C17F00900C9CE0A3E0F5FD900C9CE0A3E0F5FE95
:10C18F00900CB5E0FD7C007E057F00122F3C8E7B6E
:10C19F008F7CE4F58475E8C075D107F5BAF5BB75EA
:08C1AF00BC7043E702854184E6
:01C1B7002265
:03007B0002AB2CA9
:10AB2C00C0E0C0F0C083C082C0D075D000C000C0EF
:0BAB3C0002C003C004C005C006C00733
:10AB4700758400C2EDE57D25E0242FF582E434000D
:10AB5700F583E5BF85BEF0122FC7E57D123482ABC2
:10AB67008200AB8A01AB9202ABA503ABAD04ABB5D8
:10AB770005ABBD06ABC5070000ABCB75BB01757D4B
:10AB870001804175BB02757D028039900018E06035
:10AB97000575BB07800375BB08757D03802675BBEC
:10ABA70003757D04801E75BB04757D05801675BB16
:10ABB70005757D06800E75BB06757D07800675BB1E
:10ABC70000757D00E57C157C7002157B14457B6064
:04ABD7000302ACBE0B
:10ABDB00900CB5E0FF74A08FF0841313543F7522D3
:10ABEB0000F523E4FBFAEB64034A7026900018E0AF
:10ABFB007020900CB5E075F00A84FF7E0090003554
:10AC0B00E0FCA3E0FD122F2A900021EEF0A3EFF061
:10AC1B008037EB25E0FFEA33FE742F2FF5827400AB
:10AC2B003EF583E0FEA3E0FFAC22AD23122F3CAC3C
:10AC3B0006AD07EB25E0FFEA33FE741B2FF582749C
:10AC4B00003EF583ECF0A3EDF0EB25E0FFEA33FEDD
:10AC5B00742F2FF58274003EF583E4F0A3F00BBB49
:10AC6B0000010AEB64084A600302ABF1900004E0B8
:10AC7B007029900C94E0FEA3E0FF900C93E02FFF63
:10AC8B00900C92E03EFE90001BE0FCA3E0FDC3EFB6
:10AC9B009DFFEE9C90001BF0A3EFF0900CB5E0FD38
:10ACAB007C007E057F00122F3C8E7B8F7C9002A850
:03ACBB007401F031
:0CACBE00E57D7003D38001C34002D2EC9E
:10ACCA00D007D006D005D004D003D002D000D0D00F
:09ACDA00D082D083D0F0D0E0322A
:03B83D000119FFEF
:10BF8E00AF8475840F75E1EF75E20775E34475A410
:10BF9E00157580EA75ADFF75A53D759001E4F5A6A2
:10BFAE0075A0FFF59E75E8FFE5E854E0FEBEC004FF
:10BFBE007E0180027E00900018EEF0600875B07968
:10BFCE0075A7FE800675B07E75A7F8E4F5C8759C5A
:10BFDE00FFF59D75D8FF900018E0FE600875F89784
:10BFEE00759FF78006759FFF75F8F7EE6006C2FC29
:08BFFE00D2FB8002D2FC8F840B
:01C006002217
:10C44300AF84E4F584F5D875D980F5F9F5FAF5E903
:10C4530075EA0C75DC4675D840900CB9F0A3F090E2
:10C463000269F0A3F0F584C28C758905438E08F543
:10C473008AF58CC28DD28C7584017588807589305C
:07C48300D2A943E6308F84CB
:01C48A00228F
:0DC6D100AF84E4F584C289D288D2A88F849A
:01C6DE002239
:03005B0002AE6F83
:10AE6F00C0E0C0F0C083C082C0D075D000C000C0A9
:0DAE7F0001C002C003C004C005C006C0072A
:10AE8C0053E6CF758400AF8CEFFEAD8A7C00E42DC9
:10AE9C00F525EC3EF524900CB9E0FEA3E0FFC3E5EC
:10AEAC00259FFFE5249EFED3EF9464EE940050039F
:10AEBC0002AFC8C28C758A00758C00C28DD28CE52D
:04AECC0019F47041C4
:10AED000F519F526AE24AF25E52625E02443F582B5
:10AEE000E43400F583EEF0A3EFF0E4FCFDE51D2F64
:10AEF000FFE51C3EFEED351BFDEC351A8F1D8E1C4B
:0EAF00008D1BF51A0526E526B404C9900269DA
:10AF0E0002AFBA0519E519C394044003751900E59B
:10AF1E001925E02443F582E43400F583E0FEA3E036
:10AF2E00FBC3E51D9BFFE51C9EFEE51B9400FDE5A6
:10AF3E001A94008F1D8E1C8D1BF51AAE24AF25E5BD
:10AF4E001925E02443F582E43400F583EEF0A3EFF7
:10AF5E00F0E4FCFDE51D2FFFE51C3EFEED351BFD6F
:10AF6E00EC351A8F1D8E1C8D1BF51AE47B04FAF935
:10AF7E00F8AC1A1231808E248F25C390026AE095A8
:10AF8E0025FF900269E09524FEC394004006AC06AE
:10AF9E00AD078009C3E49FFFE49EFCAD07900269F4
:10AFAE00E0C313FFC3ED9FEC94004007E524F0A32C
:10AFBE00E525F0900CB9E4F0A3F07584015388CF29
:03AFCE0043E63027
:10AFD100D007D006D005D004D003D002D001D000D4
:0BAFE100D0D0D082D083D0F0D0E0327E
:0300530002C48B59
:10C48B00C0E0C083C082C0D075D000C004C005C05E
:10C49B0006C00753E6CF758400AF8CEFFEAD8A7CE8
:10C4AB0000E42DFFEC3E900CB9F0A3EFF075840186
:10C4BB005388CF43E630D007D006D005D004D0D078
:07C4CB00D082D083D0E032E3
:03000B0002C549E2
:10C54900C0E0C083C08253E6CF758400C28C758A6F
:10C5590000758C00D28C900CB9E4F0A3F0900269BC
:10C56900F0A3F07584015388CF43E630D082D0839D
:03C57900D0E032DD
:0300030002BE95A5
:10BE9500C0E0C0F0C083C082C0D075D000C000C073
:09BEA50003C004C005C006C0077B
:10BEAE00A2AFE433FB900CBC7401F0900CB5E0FD36
:10BEBE007C007E057F00122F3C8E7B8F7C757D0073
:10BECE007F1090002FE4F0A3DFFCC2AF53E7FE75A6
:10BEDE008400C2ECC2ED75BB0075840175C8007498
:0EBEEE00FFF5CDF5CC43E70143C8042B92AF1E
:10BEFC00D007D006D005D004D003D000D0D0D0824B
:07BF0C00D083D0F0D0E03239
:02FDFE0080FE85
:1081B300257300506C61636520756E697420666C6D
:1081C3006174206F6E206C6576656C2073757266C2
:1081D3006163652E00466C6970206F7665722E2090
:1081E3004661636520646F776E2E00486F6C642070
:1081F300766572746963616C2C2047505320616EFD
:1082030074656E6E61206A61636B2075702E004821
:108213006F6C6420766572746963616C2C204750BF
:108223005320616E74656E6E61206A61636B2064B6
:108233006F776E2E005374616E64206F6E207269C7
:1082430067687420736964652E005374616E6420DB
:108253006F6E206C65667420736964652E00496EC9
:1082630076657274696E6720582056616C75657304
:1082730000496E76657274696E6720592056616C89
:1082830075657300496E76657274696E67205A204E
:1082930056616C7565730020005A65726F20506FCC
:1082A300696E74733A20582025752C205920257542
:1082B3002C205A20257500582052616E67653A209C
:1082C30025752C20257500592052616E67653A206B
:1082D30025752C202575005A2052616E67653A205A
:1082E30025752C2025750053746F72696E672043C2
:1082F300616C6962726174696F6E2044617461209C
:10830300696E20466C6173682E0043616C6962720A
:108313006174696F6E20436F6D706C6574652E00B8
:108323005A65726F696E6720582C20592050574D3B
:108333000046696E616C2043616C3A2025752C25DB
:10834300750046696E616C2056616C3A2025752C68
:1083530025750044617461666C61736820546573AC
:1083630074002A2A20466C617368204641494C45B3
:1083730044202A2A2C20706167652025642C206202
:1083830079746525640050616765202564206F6BEF
:108393000054657374205061737365642E00496ED5
:1083A300707574205465737400444947494E3A20EC
:1083B3000031003000583A2025752C20593A2025E9
:1083C30075005A3A2025752C2035563A202575001C
:1083D30035563A2025752C20543A20257500413016
:1083E3003A2025752C2041313A2025750041323A37
:1083F3002025752C2041333A20257500496E707570
:10840300745465737420436F6D706C6574652E00CE
:108413004F757470757420546573740062697420A9
:108423002564004F75747075745465737420436FBD
:108433006D706C6574652E00412F44205465737410
:1084430000426F61726420666C61742E2054657300
:1084530074206669787475726520617474616368E9
:1084630065642E005820205920203556205A20209C
:10847300413020413120413220413300312020203E
:108483000030202020004144546573742050415330
:10849300532E002A2A2041445465737420464149CF
:1084A3004C202A2A004469676974616C20494F2073
:1084B30054657374004F6E6C792056616C69642047
:1084C300666F7220535532202D2045786974696E8A
:1084D300672E00446967494F5465737420506F6970
:1084E3006E74202564002A2A20204641494C202A04
:1084F3002A00446967494F546573742050415353AC
:108503002E002A2A20446967494F54657374204614
:1085130041494C202A2A004175746F4F6E205465DF
:10852300737400456E61626C696E67204175746F88
:108533004F6E2E2E2E0044726F7070696E67203559
:108543005620456E61626C650044697361626C69B3
:108553006E67204175746F4F6E2E2E2E0041757419
:108563006F4F6E5465737420504153532E00534D17
:108573004275732054657374202D204D61737465A7
:10858300720025752042797465732C20257520436C
:1085930079636C6573002A2A20534D427573205406
:1085A300657374204641494C202A2A00534D427575
:1085B30073205465737420506173732E00534D42BE
:1085C30075732054657374202D20536C6176650098
:1085D300010204081020408001020408102040809A
:1036660085844C9000047401F075840FFB7A0C7904
:103676003512C2C4E4900C85F090993B93900C8669
:10368600F0900018E0900C87600574C8F080037411
:1036960064F0900C9EE4F0A374FBF0900CA0E4F0B0
:1036A600A37408F074FFFFFEFDFC900C881233141F
:1036B600C3123243700A900C8812335C000000007B
:1036C600900C8CE0B4FF037401F0900C8DE0B4FF15
:1036D600037409F0900CA274FFF0A3F0900C8E74A2
:1036E60008F0A3E4F0900C907408F0A3E4F0900CBA
:1036F60035F0900C49F0900C5DF0900C9CF0A374A2
:10370600A0F0900C9AE4F0A374A0F0E49002C1F04B
:0A371600A3F0D2B3D2B6D2B5D2B4FC
:10372000900CF612335C00015F90E4FFFEFDFC900C
:103730000CF6123314D312322D4017900CF61233BC
:103740000874FFFBFAF9F81230DA900CF6123350D5
:0237500080D81F
:1037520090993CE493FF3395E0FE90028E75F0134E
:10376200EF1233CBEE75F013A42583F5831233E702
:10377200E92407F9E43AFA7556FF7557817558B38B
:103782007559FF755A81755BB61270B590993CE414
:1037920093FF3395E0FE90028E75F013EF1233CB58
:1037A200EE75F013A42583F5831233E7E92407F9B4
:1037B200E43AFA12000EEF2401F557E43EF5569072
:0C37C200993BE493FF7B737D0112A5ACE2
:1037CE00900CFA12335C00015F90E4FFFEFDFC905A
:1037DE000CFA123314D312322D4017900CFA123306
:1037EE000874FFFBFAF9F81230DA900CFA12335023
:0237FE0080D871
:1038000012A959900018E06065901118E0FEA3E03D
:10381000FF901113E02FFF901112E03EC313FEEF53
:1038200013FF900C8EEEF0A3EFF090111AE0FEA3C0
:10383000E0FF901115E02FFF901114E03EC313FE3E
:10384000EF13FF900C90EEF0A3EFF090111CE0FE50
:10385000A3E0FF901117E02FFF901116E03EC31375
:10386000FEEF13FF900CADEEF0A3EFF08003128596
:10387000E3900018E07003023950C2B3C2B59099CA
:103880003CE493FF3395E0FE90028E75F013EF1247
:1038900033CBEE75F013A42583F5831233E7E924C7
:1038A00007F9E43AFA7556FF7557817558B375599B
:1038B000FF755A81755BD81270B590993CE493FFFF
:1038C0003395E0FE90028E75F013EF1233CBEE7558
:1038D000F013A42583F5831233E7E92407F9E43ACA
:1038E000FA12000EEF2401F557E43EF55690993B8D
:0A38F000E493FF7B737D0112A5AC89
:1038FA00900CFE12335C00015F90E4FFFEFDFC9029
:10390A000CFE123314D312322D4017900CFE1233D0
:10391A000874FFFBFAF9F81230DA900CFE123350F1
:02392A0080D843
:10392C0012A95990111CE0FEA3E0FF901117E02F93
:10393C00FF901116E03EC313FEEF13FF900CABEE9D
:10394C00F0A3EFF0C2B3C2B6C2B5C2B490993CE4D6
:10395C0093FF3395E0FE90028E75F013EF1233CB8C
:10396C00EE75F013A42583F5831233E7E92407F9E8
:10397C00E43AFA7556FF7557817558B37559FF754A
:10398C005A81755BEE1270B590993CE493FF3395B8
:10399C00E0FE90028E75F013EF1233CBEE75F01340
:1039AC00A42583F5831233E7E92407F9E43AFA12E4
:1039BC00000EEF2401F557E43EF55690993BE49345
:0839CC00FF7B737D0112A5AC25
:1039D400900D0212335C00015F90E4FFFEFDFC9049
:1039E4000D02123314D312322D4017900D021233EC
:1039F4000874FFFBFAF9F81230DA900D0212335012
:023A040080D868
:103A060012A959901118E0FEA3E0FF901113E02FC0
:103A1600FF901112E03EC313FEEF13FF900C94EEDD
:103A2600F0A3EFF0900018E0602190111CE0FEA3D7
:103A3600E0FF901117E02FFF901116E03EC313FE32
:103A4600EF13FF900CA9EEF0A3EFF0D2B390993CE0
:103A5600E493FF3395E0FE90028E75F013EF123378
:103A6600CBEE75F013A42583F5831233E7E924071B
:103A7600F9E43AFA7556FF7557817558B37559FFCB
:103A8600755A82755B121270B590993CE493FF33B8
:103A960095E0FE90028E75F013EF1233CBEE75F0C3
:103AA60013A42583F5831233E7E92407F9E43AFAE8
:103AB60012000EEF2401F557E43EF55690993BE4CB
:093AC60093FF7B737D0112A5AC96
:103ACF00900D0612335C00015F90E4FFFEFDFC9049
:103ADF000D06123314D312322D4017900D061233E8
:103AEF000874FFFBFAF9F81230DA900D0612335012
:023AFF0080D86D
:103B010012A959901118E0FEA3E0FF901113E02FC4
:103B1100FF901112E03EC313FEEF13FF900C92EEE3
:103B2100F0A3EFF0D2B690993CE493FF3395E0FE19
:103B310090028E75F013EF1233CBEE75F013A425BE
:103B410083F5831233E7E92407F9E43AFA7556FF5E
:103B51007557817558B37559FF755A82755B38125F
:103B610070B590993CE493FF3395E0FE90028E7519
:103B7100F013EF1233CBEE75F013A42583F5831206
:103B810033E7E92407F9E43AFA12000EEF2401F5CC
:103B910057E43EF55690993BE493FF7B737D011208
:023BA100A5ACD1
:103BA300900D0A12335C00015F90E4FFFEFDFC9070
:103BB3000D0A123314D312322D4017900D0A12330B
:103BC3000874FFFBFAF9F81230DA900D0A12335039
:023BD30080D898
:103BD50012A95990111AE0FEA3E0FF901115E02FEC
:103BE500FF901114E03EC313FEEF13FF900C96EE09
:103BF500F0A3EFF0D2B590993CE493FF3395E0FE46
:103C050090028E75F013EF1233CBEE75F013A425E9
:103C150083F5831233E7E92407F9E43AFA7556FF89
:103C25007557817558B37559FF755A82755B4D1275
:103C350070B590993CE493FF3395E0FE90028E7544
:103C4500F013EF1233CBEE75F013A42583F5831231
:103C550033E7E92407F9E43AFA12000EEF2401F5F7
:103C650057E43EF55690993BE493FF7B737D011233
:023C7500A5ACFC
:103C7700900D0E12335C00015F90E4FFFEFDFC9097
:103C87000D0E123314D312322D4017900D0E12332E
:103C97000874FFFBFAF9F81230DA900D0E12335060
:023CA70080D8C3
:103CA90012A95990111AE0FEA3E0FF901115E02F17
:103CB900FF901114E03EC313FEEF13FF900C98EE32
:103CC900F0A3EFF0D2B4900C92E0FEA3E0FFC39012
:103CD9000C95E09F900C94E09E4003023DB89099AA
:103CE9003CE493FF3395E0FE90028E75F013EF12DA
:103CF90033CBEE75F013A42583F5831233E7E9245A
:103D090007F9E43AFA7556FF7557817558B375592D
:103D1900FF755A82755B611270B590993CE493FF07
:103D29003395E0FE90028E75F013EF1233CBEE75EA
:103D3900F013A42583F5831233E7E92407F9E43A5C
:103D4900FA12000EEF2401F557E43EF55690993B1F
:0A3D5900E493FF7B737D0112A5AC1B
:103D6300900D1212335C00015F90E4FFFEFDFC90A6
:103D73000D12123314D312322D4017900D12123339
:103D83000874FFFBFAF9F81230DA900D121233506F
:023D930080D8D6
:103D9500900C94E0F54DA3E0F54E900C92E0FFA356
:103DA500E0900C94CFF0A3EFF0900C92E54DF0A3CA
:103DB500E54EF0900C96E0FEA3E0FFC3900C99E071
:103DC5009F900C98E09E4003023EA190993CE4939D
:103DD500FF3395E0FE90028E75F013EF1233CBEEB4
:103DE50075F013A42583F5831233E7E92407F9E475
:103DF5003AFA7556FF7557817558B37559FF755A57
:103E050082755B741270B590993CE493FF3395E02D
:103E1500FE90028E75F013EF1233CBEE75F013A4FE
:103E25002583F5831233E7E92407F9E43AFA12000A
:103E35000EEF2401F557E43EF55690993BE493FFC8
:073E45007B737D0112A5ACA7
:103E4C00900D1612335C00015F90E4FFFEFDFC90B8
:103E5C000D16123314D312322D4017900D16123347
:103E6C000874FFFBFAF9F81230DA900D1612335081
:023E7C0080D8EC
:103E7E00900C98E0F54DA3E0F54E900C96E0FFA364
:103E8E00E0900C98CFF0A3EFF0900C96E54DF0A3D8
:103E9E00E54EF0900018E07003023F93900CABE0FB
:103EAE00FEA3E0FFC3900CAEE09F900CADE09E40F1
:103EBE0003023F9390993CE493FF3395E0FE90020A
:103ECE008E75F013EF1233CBEE75F013A42583F538
:103EDE00831233E7E92407F9E43AFA7556FF75576A
:103EEE00817558B37559FF755A82755B871270B517
:103EFE0090993CE493FF3395E0FE90028E75F0139B
:103F0E00EF1233CBEE75F013A42583F5831233E74E
:103F1E00E92407F9E43AFA12000EEF2401F557E40A
:103F2E003EF55690993BE493FF7B737D0112A5AC51
:103F3E00900D1A12335C00015F90E4FFFEFDFC90C1
:103F4E000D1A123314D312322D4017900D1A12334C
:103F5E000874FFFBFAF9F81230DA900D1A1233508A
:023F6E0080D8F9
:103F7000900CADE0F54DA3E0F54E900CABE0FFA347
:103F8000E0900CADCFF0A3EFF0900CABE54DF0A3BB
:103F9000E54EF090993CE493FF3395E0FE90028E5D
:103FA00075F013EF1233CBEE75F013A42583F58370
:103FB0001233E7E92407F9E43AFA7556FF75578199
:103FC0007558B37559FF755A82755B9A1270B59022
:103FD000993CE493FF3395E0FE90028E75F013EF69
:103FE0001233CBEE75F013A42583F5831233E7E982
:103FF0002407F9E43AFA12000EEF2401F557E43EE3
:0F400000F55690993BE493FF7B737D0112A5ACBD
:10400F00900D1E12335C00015F90E4FFFEFDFC90EB
:10401F000D1E123314D312322D4017900D1E123372
:10402F000874FFFBFAF9F81230DA900D1E123350B4
:02403F0080D827
:104041007556FF75578275589C900C8EE0F559A3F3
:10405100E0F55A900C90E0F55BA3E0F55C900CA9BB
:10406100E0F55DA3E0F55E7B017A0D79361270B55E
:1040710090993CE493FF3395E0FE90028E75F01326
:10408100EF1233CBEE75F013A42583F5831233E7DA
:10409100E92407F9E43AFA7556FF7557817558B363
:1040A100755901755A0D755B361270B590993CE4DE
:1040B10093FF3395E0FE90028E75F013EF1233CB30
:1040C100EE75F013A42583F5831233E7E92407F98C
:1040D100E43AFA12000EEF2401F557E43EF556904A
:0C40E100993BE493FF7B737D0112A5ACBA
:1040ED00900D2212335C00015F90E4FFFEFDFC9009
:1040FD000D22123314D312322D4017900D2212338C
:10410D000874FFFBFAF9F81230DA900D22123350D1
:02411D0080D848
:10411F0090993CE493FF3395E0FE90028E75F01377
:10412F00EF1233CBEE75F013A42583F5831233E72B
:10413F00E92407F9E43AFA7556FF7557827558BAAC
:10414F00900C92E0F559A3E0F55A900C94E0F55BD2
:10415F00A3E0F55C1270B590993CE493FF3395E0C2
:10416F00FE90028E75F013EF1233CBEE75F013A4A1
:10417F002583F5831233E7E92407F9E43AFA1200AD
:10418F000EEF2401F557E43EF55690993BE493FF6B
:07419F007B737D0112A5AC4A
:1041A600900D2612335C00015F90E4FFFEFDFC904B
:1041B6000D26123314D312322D4017900D261233CA
:1041C6000874FFFBFAF9F81230DA900D2612335014
:0241D60080D88F
:1041D80090993CE493FF3395E0FE90028E75F013BE
:1041E800EF1233CBEE75F013A42583F5831233E772
:1041F800E92407F9E43AFA7556FF7557827558CAE3
:10420800900C96E0F559A3E0F55A900C98E0F55B10
:10421800A3E0F55C1270B590993CE493FF3395E008
:10422800FE90028E75F013EF1233CBEE75F013A4E7
:104238002583F5831233E7E92407F9E43AFA1200F3
:104248000EEF2401F557E43EF55690993BE493FFB1
:074258007B737D0112A5AC90
:10425F00900D2A12335C00015F90E4FFFEFDFC908D
:10426F000D2A123314D312322D4017900D2A123308
:10427F000874FFFBFAF9F81230DA900D2A12335056
