:108A9200436F7079726967687420284329203230E5
:108AA20030342D3920547261636B205379737465AD
:108AB2006D7320546563686E6F6C6F676965732CA4
:108AC200204C4C43000200FF000000C0C1C18101E4
:108AD20040C30103C00280C241C60106C00780C76D
:108AE200410500C5C1C4810440CC010CC00D80CD3C
:108AF200410F00CFC1CE810E400A00CAC1CB810B0B
:108B020040C90109C00880C841D80118C01980D9DC
:108B1200411B00DBC1DA811A401E00DEC1DF811F6A
:108B220040DD011DC01C80DC411400D4C1D581157B
:108B320040D70117C01680D641D20112C01380D38C
:108B4200411100D1C1D0811040F00130C03180F11B
:108B5200413300F3C1F28132403600F6C1F781376A
:108B620040F50135C03480F4413C00FCC1FD813D3B
:108B720040FF013FC03E80FE41FA013AC03B80FB0C
:108B8200413900F9C1F88138402800E8C1E981295A
:108B920040EB012BC02A80EA41EE012EC02F80EF6C
:108BA200412D00EDC1EC812C40E40124C02580E57B
:108BB200412700E7C1E68126402200E2C1E381238A
:108BC20040E10121C02080E041A00160C06180A19C
:108BD200416300A3C1A28162406600A6C1A781676A
:108BE20040A50165C06480A4416C00ACC1AD816D3B
:108BF20040AF016FC06E80AE41AA016AC06B80AB0C
:108C0200416900A9C1A88168407800B8C1B98179D9
:108C120040BB017BC07A80BA41BE017EC07F80BF6B
:108C2200417D00BDC1BC817C40B40174C07580B57A
:108C3200417700B7C1B68176407200B2C1B3817389
:108C420040B10171C07080B041500090C19181511A
:108C520040930153C052809241960156C05780976B
:108C620041550095C1948154409C015CC05D809D3A
:108C7200415F009FC19E815E405A009AC19B815B09
:108C820040990159C058809841880148C04980895B
:108C9200414B008BC18A814A404E008EC18F814F69
:108CA200408D014DC04C808C41440084C18581457A
:108CB20040870147C046808641820142C04380838B
:098CC20041410081C18081404064
:10A31D0050001500000000000000000000000000CB
:10A32D00000000430C24000000410C2300410CA749
:10A33D000A41000500026F0000026B00005000256D
:10A34D000000000000000000000000000000000000
:10A35D000173004102A700410CAE00420002000053
:10A36D00410CAA0042026A0000420049000042026C
:10A37D00BA00A0410CA900410CAD004202BD000085
:10A38D0041000100410004004102ED00410BDD00E0
:10A39D00410CA80002740000026D00004202C000D2
:10A3AD00004102BC004102EE0041000000410CAF33
:0DA3BD0000410014004102EC004102EF04D9
:10261800E4F52DF52CF52BF52A900CC9F075840FEF
:1026280075FFDE75FFAD12AB40129C751200267562
:1026380034017535097536477B017A0C792112A268
:102648003B12A115900CA77414F0E49002BCF09012
:102658000CC5F0A3F0900CC5E0FAA3E0FB9002CC07
:1026680075F015123FAAEA75F015A42583F58312B3
:102678003F3B000000009002C875F015EB123FAA1E
:10268800EA75F015A42583F583123F3B000000008E
:10269800900CC5E0FAA3E0FB9002C275F015123F5A
:1026A800AAEA75F015A42583F583123F3B000000C4
:1026B800009002D075F015EB123FAAEA75F015A448
:1026C8002583F583E4F0A3F0900CC5E0FEA3E0FFBA
:1026D8009002C675F015123FAAEE75F015A4258371
:1026E800F583E4F0A3F09002D575F015EF123FAA38
:1026F800EE75F015A42583F583E4F09002D475F007
:1027080015EF123FAAEE75F015A42583F583E4F0C2
:102718009002D375F015EF123FAAEE75F015A425B7
:1027280083F583E4F09002D275F015EF123FAAEE1C
:1027380075F015A42583F583E4F09002D675F0159D
:10274800EF123FAAEE75F015A42583F583E4F09007
:102758000CC575F001123BDE900CC5E07004A3E0D7
:102768006402600302265DE4900000F012AA227F52
:10277800007E9612AEAE12AF7212AD16E4900281D0
:10278800F09002947402F090029D744EF07B017AEE
:102798000279F0900290123FCF7A0979499002A30A
:1027A800123FCF7A07792A90028D123FCF7A0B79A0
:1027B800DE9002A0123FCFE4900280F090029304D2
:1027C800F090028A744EF0E4900295F0A3F0900223
:1027D80082F0A3F090029FF090028CF090029EF09D
:1027E80090028BF01BFAF990029A123FCF90029751
:1027F800123FCF900287123FCF900284123FCF0B37
:102808007A0279807F007E847D037C0012912B9070
:102818000014E07B017A02799360067F807E258030
:10282800047F007EE17D007C0012912B900014E073
:1028380060247B017A027970900045123FCF7A02BA
:1028480079A8900042123FCFE490003EF0A3F090A8
:0E2858000048F012AF5CD2AF900014E0603583
:10286600900CB2123F3B00006978E4FFFEFDFC903D
:102876000CB2123EF3D3123E0C4017900CB2123E2D
:10288600E774FFFBFAF9F8123CB9900CB2123F2F2D
:0228960080D8E8
:102898001282771200A6900CAF7401F0E490025DEA
:1028A800F0A3F0A3F0900269F0900263F0A3F09017
:1028B8000261F0A3F0A2DA33900260F090026BE0BC
:1028C8002458FE90026AE03400900267F0A3CEF02C
:1028D800900049E0FCA3E0FD2406FEE43C9002657C
:1028E800F0A3CEF0ED2409FEE43C900CC7F0A3CE93
:1028F800F0E5D8540360749002ECE0B40202806BF7
:102908007B017A00794B754E00754F037F107E026C
:1029180012A69E9001F1E0540F900006F09001F18C
:10292800E054F0C4540F900007F0900006E06403F0
:10293800702AE5D85403FFBF020890025D7404F0C2
:10294800802E900007E090025DB403097403F0A3A1
:102958007401F0801B7401F0A3F08014900007E06C
:10296800B4030890025D7402F08005E490025DF003
:10297800E4900CC5F0A3F0900947E0FEA3E0FF90B7
:102988000CC5E0FCA3E0FDC39FEC9E5017744B2DD3
:10299800F58274003CF583E4F0900CC575F00112E3
:1029A8003BDE80D39002A7E06028C390001AE09431
:1029B800B8900019E0940B5019C2B3C2B6C2B5C2A0
:1029C800B4E4F54CF54D7B937D037F0212953E12DE
:1029D8009FA99002ECE064027040900049E0FEA3D9
:1029E800E0FF900CC7E0B50613A3E0B5070EA3748B
:1029F80001F0900CC7E475F001123BDE30DC099061
:102A0800025F7403F0022C3B90025F30DB06740413
:102A1800F0022C3B7402F0022C3B90025DE064044F
:052A28006003022C3BDD
:102A2D00F52E900049E0FAA3E0FB900CC7E0B5024B
:102A3D0013A3E0B5030EA37401F0900CC7E475F079
:102A4D0001123BDE30DB1790025FE064047003027D
:102A5D002B277404F0900CC97401F0022B279002FF
:102A6D005FE0B404297402F090026BE02403FE9041
:102A7D00026AE03400900267F0A3CEF0A2DAE433EC
:102A8D00900260F0E4900269F0900CC904F090029D
:102A9D0067E0FEA3E0FF90026AE0FCA3E0FD6F702B
:102AAD0002EC6E7075A2DA33FF900260E0FE6F707B
:102ABD0034900269E0C394025005E004F0804EEEBC
:102ACD00601290025FE0640260437402F0900CC9E2
:102ADD0014F0803990025FE0640160317401F09070
:102AED000CC9F0802890025FE0640360097403F064
:102AFD00900CC97401F0900260E070047F018002B7
:102B0D007F00900260EFF09002697401F0ED24589F
:102B1D00FEE43C900267F0A3CEF090025EE060040C
:102B2D00A3E0701790025F7401F090025EF0EB2449
:102B3D0005FEE43A900265F0A3CEF0900265E0FE4A
:102B4D00A3E0FF900049E0B50619A3E0B507149086
:102B5D000265E475F00A123BDE90025FE0B40103FA
:102B6D00752E01900C23E0FFC394054009EFD3941B
:102B7D001F5003E4F52EE52E601A90025E7405F0E9
:102B8D0090026BE02403FE90026AE0340090026331
:102B9D00F0A3CEF0900263E0FEA3E0FF90026AE0A6
:102BAD00FCA3E0FD6F7002EC6E6003022C3B900203
:102BBD005EE024FD605324FE601A146052240470FC
:102BCD006D90025E7403F0ED2428FEE43C900263E8
:102BDD00F0A3CEF090025EE0B405177406F09002FB
:102BED006BE02428FE90026AE03400900263F0A3AB
:102BFD00CEF090025DE024FD600B146004240370A0
:102C0D002DD2CC8029D2CC802590025E7404F09018
:102C1D00025EE0B406037401F090025DE024FD60F5
:0E2C2D000B14600424037006C2CC8002C2CCDB
:102C3B00900C23E0FFC394054006EFD3941F404351
:102C4B00900CC9E0603DE4F090025FE0FF908ACA0F
:102C5B00E493FD3395E0FC90028D75F013ED123F7C
:102C6B00AAEC75F013A42583F583123FC6900007D9
:102C7B00EF123B1F754C00754D017B297D037F02C5
:0E2C8B0012953E900284123FC6E94A4B602B20
:102C9900900284123FC68B2E8A2F89307B007A00DE
:102CA9007900900284123FCFAB2EAA2FA930E4FFFE
:0B2CB90012415C900CC3EEF0A3EFF0A2
:102CC400900CA9E07003022EBDE4F09002EDE0F454
:102CD4006003022DA79002ECE0B40205C2CA022DE3
:102CE4009B90025DE064046003022D9B90025FE010
:052CF400B40436D2CC4F
:102CF900900CB6123F3B0001B774E4FFFEFDFC9057
:102D09000CB6123EF3D3123E0C4017900CB6123E8D
:102D1900E774FFFBFAF9F8123CB9900CB6123F2F91
:022D290080D850
:0A2D2B00C2CC90025FE06401606614
:102D3500900CBA123F3B000DBBA0E4FFFEFDFC90DA
:102D45000CBA123EF3D3123E0C4017900CBA123E49
:102D5500E774FFFBFAF9F8123CB9900CBA123F2F51
:022D650080D814
:022D6700D2CCCC
:102D6900900CBE123F3B00112A88E4FFFEFDFC9047
:102D79000CBE123EF3D3123E0C4017900CBE123E0D
:102D8900E774FFFBFAF9F8123CB9900CBE123F2F19
:022D990080D8E0
:102D9B00C2B3C2B6C2B5C2B4C2FF80FE9002EDE0B0
:102DAB00FF64F07023900C23EFF0E4F574F575904D
:102DBB00000574FFF0D2B3D2B6D2B5D2B4C2A853C9
:102DCB00E7FD53E7BF022EB8EFB4F10F900C23F0E1
:102DDB00C2B3C2B6C2B5C2B4022EB8EF64F2702B46
:102DEB00900C23EFF0D2B3D2B6D2B5D2B4900C2262
:102DFB00E024FFFD900C21E034FFFCE4FBFFFE120E
:102E0B00A9B5E4F58443EF01022EBD9002EDE0FF7E
:102E1B00C394054008EFD3941F5002D2B69002ED35
:102E2B00E0FFC39405400CEFD3942350067E007F44
:102E3B000180047E007F00900C23E0FDC3940540CD
:102E4B000CEDD3942350067C007D0180047C007D27
:102E5B0000ED6F7002EC6E604C9002EDE0FFC394DE
:102E6B0005403FEFD3942350391276E012AA221279
:102E7B0000A6E4900CAEF0900CA7E0FF74A08FF0CE
:102E8B008475F00AA4FF90026BE02401FD90026AA6
:102E9B00E03400CD2FFEED35F0900002F0A3CEF024
:102EAB008003129FA99002EDE0900C23F0E49002B6
:102EBB00EDF0900C23E0FFC3940550030229ACEF17
:102ECB00D3942340030229AC900284123FC6E94AF3
:102EDB004B60030229AC900C26E060030229AC90F6
:102EEB000287123FC6E94A4B60030229AC9002A746
:102EFB00E070030231DD90001AE094B8900019E005
:102F0B00940B4007E49002A7F080069002A774018F
:102F1B00F0C3E570940AE56F648094804006756F8A
:102F2B0000757009900014E06007E49002A6F08031
:102F3B003590001BE0FEA3E0FFEF24FBFFEE34EB2C
:102F4B00FEE434FFFDE434FFFCE47BE87A03F9F89C
:102F5B00123CD4E47BE57A24F9F812ADA59002A6D5
:102F6B00EFF0E024CEF0900017E0540FFD90001529
:102F7B00E0540FC4F854F0C8E4C4540F482DFF902C
:102F8B008ACAE493FD3395E0FC90028D75F013ED46
:102F9B00123FAAEC75F013A42583F583123FC6905C
:102FAB000007EF123B1F90006175F033E570123F85
:102FBB00AAE56F75F033A42583F58375F003E56CF3
:102FCB00123FAAE56B75F003A42583F583E0FF9010
:102FDB000015A3E0FEEF2EFF908ACAE4933395E031
:102FEB00FC90028D75F013ED123FAAEC75F013A453
:102FFB002583F583123FC6900008EF123B1F90000C
:10300B006275F033E570123FAAE56F75F033A425B6
:10301B0083F58375F003E56C123FAAE56B75F0033E
:10302B00A42583F583E0FF900017A3E0FEEF2EFFAE
:10303B00908ACAE4933395E0FC90028D75F013ED02
:10304B00123FAAEC75F013A42583F583123FC690AB
:10305B000009EF123B1FE5D8F4FF90028D75F013BA
:10306B00ED123FAAEC75F013A42583F583123FC62E
:10307B0090000AEF123B1F90026FE0FF900023E0DD
:10308B00FEA3E0A807088005CEC313CE13D8F9FF23
:10309B00908ACAE493FD3395E0FC90028D75F01392
:1030AB00ED123FAAEC75F013A42583F583123FC6EE
:1030BB0090000BEF123B1F90026EE0FF900021E09F
:1030CB00FEA3E0A807088005CEC313CE13D8F9FFE3
:1030DB00908ACAE493FD3395E0FC90028D75F01352
:1030EB00ED123FAAEC75F013A42583F583123FC6AE
:1030FB0090000CEF123B1F90026DE0FF90001FE061
:10310B00FEA3E0A807088005CEC313CE13D8F9FFA2
:10311B00908ACAE493FD3395E0FC90028D75F01311
:10312B00ED123FAAEC75F013A42583F583123FC66D
:10313B0090000DEF123B1F90026CE0FF90001DE022
:10314B00FEA3E0A807088005CEC313CE13D8F9FF62
:10315B00908ACAE493FD3395E0FC90028D75F013D1
:10316B00ED123FAAEC75F013A42583F583123FC62D
:10317B0090000EEF123B1F90025BE0A3FF90028DBD
:10318B0075F013ED123FAAEC75F013A42583F583AC
:10319B00123FC690000FEF123B1F90025BA3E0FFA4
:1031AB0090028D75F013ED123FAAEC75F013A42568
:1031BB0083F583123FC6900010EF123B1F754C0036
:1031CB00754D0A7B927D037F0212953E1288540245
:0E31DB0029AC90029FE0FF90029EE06F606DB5
:1031E900EF75F0DCA4FF9002A3123FC6E92FF9EABC
:1031F90035F08B2EF52F893090029FE0FFB4020441
:103209007F008003EF04FF90029FEFF09002A6E099
:10321900FF90005F75F033E570123FAAE56F75F016
:1032290033A42583F583EFF0AE6FAF707C007D3357
:10323900123B41744B2FF974003E753401F5358901
:0A32490036AB2EAA2FA930124A99C5
:103253000229AC900CAEE0FD7017900002E0FEA3D3
:10326300E0FF90026AE06E7003A3E06F600302293F
:10327300AC900CA7E0FF74A08FF08475F00AA4FF54
:1032830090026BE02401FB90026AE03400CB2FFE36
:10329300EB35F0900002F0A3CEF0ED700E900CAD84
:1032A300F090000274FFF5F0123BDE9002EFE0FFB6
:1032B3007003023359900C23E0FEC39405500302BC
:1032C3003359EED3941F4003023359900CAEE07090
:1032D300030234069002ECE0B40202D2CA90025D0B
:1032E300E0FE605C900C23E0FDC394054052EDD3F7
:0432F300941F504C88
:1032F700EEB4040790025FE0B4040890025DE06456
:10330700046039900CA7E0900CC2B428057406F04D
:1033170080037404F0900CC2E0B5072090025E743D
:1033270002F0900261E0FEA3E0FF90026BE02FFF46
:0C33370090026AE03E900263F0A3EFF009
:103343009002EFE014F06003023406F56BF56CF5C0
:063353006FF57002340664
:10335900900CADE0FF908ACAE493FD3395E0FC90B0
:10336900028D75F013ED123FAAEC75F013A42583B5
:10337900F583123FC6900007EF123B1F9002BDE094
:10338900A3FF90028D75F013ED123FAAEC75F013AF
:10339900A42583F583123FC6900008EF123B1F90C6
:1033A90002BDA3E0FF90028D75F013ED123FAAEC68
:1033B90075F013A42583F583123FC6900009EF1217
:1033C9003B1F754C00754D037B277D037F021295CA
:1033D9003EE4F52EF52FD3900948E0952F90094743
:1033E900E0952E4018744B252FF5827400352EF583
:0D33F90083E4F0052FE52F70DD052E80D94F
:10340600E4900CAEF09002EEF0900CADE06007B2E6
:0B341600B5E4F00229ACC2B50229ACFD
:109FA900C2B6C2B59002ECE0B40205C2CA02A10968
:089FB90090025EE06403707089
:109FC100900CCA123F3B00015F90E4FFFEFDFC9044
:109FD1000CCA123EF3D3123E0C4017900CCA123E2B
:109FE100E774FFFBFAF9F8123CB9900CCA123F2F43
:029FF10080D816
:039FF300E4F5C8CA
:109FF600900CCE123F3B00020F58E4FFFEFDFC9092
:10A006000CCE123EF3D3123E0C4017900CCE123EED
:10A01600E774FFFBFAF9F8123CB9900CCE123F2F09
:02A0260080D8E0
:10A0280090025E7401F0A304F090025DE0FFB404B6
:10A038000890025FE064046013EF6404700302A1F7
:0CA048000390025EE06404600302A103C8
:10A05400900CD2123F3B00015F90E4FFFEFDFC90A8
:10A064000CD2123EF3D3123E0C4017900CD2123E87
:10A07400E774FFFBFAF9F8123CB9900CD2123F2FA7
:02A0840080D882
:10A0860090025DE024FD603F1460042403706ED2EC
:01A09600CCFD
:10A09700900CD6123F3B0001B774E4FFFEFDFC9025
:10A0A7000CD6123EF3D3123E0C4017900CD6123E3C
:10A0B700E774FFFBFAF9F8123CB9900CD6123F2F60
:02A0C70080D83F
:06A0C900C2CC8036D2CCAF
:10A0CF00900CDA123F3B0001B774E4FFFEFDFC90E9
:10A0DF000CDA123EF3D3123E0C4017900CDA123EFC
:10A0EF00E774FFFBFAF9F8123CB9900CDA123F2F24
:02A0FF0080D807
:10A10100C2CC90025E7401F09002ECE06402600344
:04A11100E4F5C82287
:1076E00090026AE0F533A3E0F534E4F56FF570F548
:1076F0006BF56C900CADF0A3F0900947E0FEA3E0B1
:10770000FF7B017A00794B754E00754F0112A69EE2
:10771000900BDDE024FC601424027027900CA77409
:1077200014F0900261E4F0A374F08026900CA7742A
:1077300028F0900261E4F0A374A4F09002EF7406C4
:10774000F08016900CA7740AF09002617402F0A306
:107750007434F09002EF7404F0900CA8E09002BC36
:10776000F09002B8E0FCA3E0FD4C700890000AF035
:10777000A3F080679002BFE0701E123742A804A9F0
:1077800005AA06AB07E4FFFE7D7A7C48123622127A
:10779000377B7C007DF080389002BFE0B40F03742B
:1077A00010F09002B8E0FCA3E0FDE4123742A80418
:1077B000A905AA06AB07E4FFFE7D7A7C48123622B3
:1077C00012377B9002BFE0FD74788DF084FD7C0061
:1077D000123B4190000AEEF0A3EFF0E5D85403709D
:1077E000079002BCF0027ABC7B017A00794B754E9F
:1077F00000754F037F107E0212A69EE4F531F5322C
:1078000090006375F028E532123FAAE53175F02843
:10781000A42583F583E024FB601524FB7022746C9F
:107820002532F58274023531F5837403F0802074BB
:107830006C2532F58274023531F5837402F0800FC5
:10784000746C2532F58274023531F5837404F005C9
:1078500032E532700205316404453170A3E4F5313C
:10786000F53290007075F028E532123FAAE53175C7
:10787000F028A42583F583E0FDE53225E0FFE5311E
:1078800033FE740D2FF58274003EF583EDF0900009
:107890006475F028E532123FAAE53175F028A42579
:1078A00083F583123EF390006875F028E532123FAD
:1078B000AAE53175F028A42583F583123EE712343A
:1078C00024C004C005C006C00790006475F028E518
:1078D00032123FAAE53175F028A42583F583123EC4
:1078E000F390006C75F028E532123FAAE53175F08F
:1078F00028A42583F583123EE7123424D003D00256
:10790000D001D000123622E4FBFAF9F81236BF900B
:10791000006475F0286005400302799AE532123F51
:10792000AAE53175F028A42583F583123EF3900073
:107930006875F028E532123FAAE53175F028A425D4
:1079400083F583123EE7123424C004C005C006C08C
:107950000790006475F028E532123FAAE53175F012
:1079600028A42583F583123EF390006C75F028E57A
:1079700032123FAAE53175F028A42583F583123E23
:10798000E7123424D003D002D001D000123622C036
:1079900004C005C006C007027A20E532123FAAE5FE
:1079A0003175F028A42583F583123EF390006875A5
:1079B000F028E532123FAAE53175F028A42583F5B9
:1079C00083123EE7123424C004C005C006C00790ED
:1079D000006475F028E532123FAAE53175F028A45D
:1079E0002583F583123EF390006C75F028E5321282
:1079F0003FAAE53175F028A42583F583123EE712EE
:107A00003424D003D002D001D00012362212372CF9
:107A1000AB07AA06A905A804C000C001C002C003A4
:107A200090007175F028E532123FAAE53175F02813
:107A3000A42583F583E0FF90007275F028E53212EB
:107A40003FAAE53175F028A42583F583E0C39FFDA7
:107A5000E49400FCE4123742D003D002D001D000FD
:107A6000123519C004C005C006C00790007175F03A
:107A700028E532123FAAE53175F028A42583F58365
:107A8000E0FCE4123747D003D002D001D00012341A
:107A90002812377BAD07E53225E0FFE53133FE7470
:107AA0000C2FF58274003EF583EDF00532E532705F
:107AB0000205316404453160030278629002BCE043
:107AC00030E7034403F0E4F531F532D3900948E0A0
:107AD0009532900947E095314018744B2532F58274
:107AE00074003531F583E4F00532E53270DD05319F
:027AF00080D93B
:017AF2002271
:098854009002BCE07003028A915D
:03885D007531066C
:10886000AF319002BCE0FEA807088002C313D8FC19
:1088700020E003028A83E53112406189F60089ED28
:108880000188DE0288DE03889C04889C05889406A3
:1088900000008A83E5D8F4F532028A83AF31EF33E2
:1088A00095E0FEEF25E0FFEE33FE74192FF582749C
:1088B000003EF583E0FEA3E0FFAD31ED3395E0FC33
:1088C000746A2DF58274023CF583E0FDEFA805087B
:0E88D0008005CEC313CE13D8F9F532028A8389
:1088DE00E4F533AF31EF3395E0FEEF25E0FFEE33F5
:1088EE00FE74192FF58274003EF583E0FEA3E0FFBF
:1088FE00AD31ED3395E0FC746A2DF58274023CF5D2
:10890E0083E0FBEFA803088005CEC313CE13D8F97E
:10891E00F53274042DF58274003CF583E064026038
:10892E0003028A83AF31EF3395E0FEEF25E0FFEED1
:10893E0033FE74092FF58274003EF583E060230444
:10894E00604624FE706A74082FF58274003EF5832B
:10895E00E0FFE532D39F40047F0180027F008F331A
:10896E00804EAF31EF3395E0FEEF25E0FFEE33FEA4
:10897E0074082FF58274003EF583E0B532047F0152
:10898E0080027F008F338028AF31EF3395E0FEEF0A
:10899E0025E0FFEE33FE74082FF58274003EF5835A
:1089AE00E0FFE532C39F50047F0180027F008F33CA
:1089BE00E5336015E5312402FF7401A80708800233
:1089CE00C333D8FC42C8028A83E5312402FF740106
:0F89DE00A807088002C333D8FCF452C8028A836A
:0989ED0090025BE0F532028A837E
:1089F60090025BE0FEA3E0FFF53290000AE0FCA3E4
:108A0600E0FD4C6078EF4E6074D3ED9FEC9E5038DD
:108A1600E4F533F53474062534F58274003533F500
:108A260083E0B40113E5342404FF7401A807088029
:108A360002C333D8FCF452C80534E534700205335A
:108A46006402453370CF8035E4F533F5347406257A
:108A560034F58274003533F583E0B40112E534242D
:108A660004FF7401A807088002C333D8FC42C80576
:0D8A760034E534700205336402453370D0DE
:0E8A83001531C3E531648094804003028860A1
:018A910022C2
:10AA8B008B528A538954E92DF9EA3C8B55F556893B
:10AA9B0057E4F558F559C3855683855782E5549588
:10AAAB0082E5539583502F7852E475F001123FB62F
:10AABB00123A94FFE5596F25E0FFE433FE74CB2F78
:10AACB00F582748A3EF583E558FFE493F5587401DB
:0AAADB00936FF55980C0AE58AF59D3
:01AAE500224E
:10A11500E4900D6AF07B017A0C792712AB97900CCD
:10A1250090E07004A3E064F9700C900C92E0700468
:10A13500A3E064086018900C90E4F0A374F9F09023
:10A145000C92E4F0A37408F0900D6A7401F0900C81
:10A1550079E0B4FF17900014E0900C79600574C89D
:10A16500F080037464F0900D6A7401F0900C78E04F
:10A17500640160077401F0900D6AF0900C21E0FC19
:10A18500A3E0FDB40015ECB41011900C95E030E49B
:10A195000AE054EFF0900D6A7401F0E4B50515EC92
:10A1A500B42011900C95E020E40AE04410F0900DE5
:10A1B5006A7401F0900C27E0FF12005E400D900CD0
:10A1C50027E06007E4F0900D6A04F0900C3BE0FF97
:10A1D50012005E400D900C3BE06007E4F0900D6AC4
:10A1E50004F0900C4FE0FF12005E400D900C4FE024
:10A1F5006007E4F0900D6A04F0900C98E0B4FF0756
:10A20500E4F0900D6A04F0900C99E0B4FF11A3E01E
:10A21500B4FF0CE4900C99F0A3F0900D6A04F09053
:10A225000D6AE0601012AE807B017A0C79277D8083
:05A235007C0012A946A7
:01A23A002201
:10AE8000AF84E4F584781EF608F6A2AF33FEC2AFB5
:10AE900043B701758F0718E6FC08E6F5828C83E45A
:0DAEA000F0F58F53B7FEEE24FF92AF8F84C4
:01AEAD002282
:0AA946008B458A4689478C488D49ED
:10A9500085844AE4F584781EF608F6A2AF33FFC278
:10A96000AF43B701758F05E4F54BF54CC3E54C9546
:10A9700049E5486480F8E54B64809850297845E4BF
:10A9800075F001123FB6123A94FE781E0806E618DA
:10A99000860470010614F5828C83EEF0054CE54CBC
:10A9A00070CA054B80C6E4F58F53B7FEEF24FF92C3
:04A9B000AF854A84A1
:01A9B4002280
:06AB97008B458A46894748
:10AB9D00858448E4F549F54AF584A2AF33F54BC2F7
:10ABAD00AF758F04E4FFFE054AE54AAC4970020516
:10ABBD004914F5828C83E493FD7845E475F0011218
:10ABCD003FB6ED123B0D0FBF00010EEF64804E70CE
:0DABDD00D6E4F58FE54B24FF92AF85488448
:01ABEA002248
:0EA7C3008E4C8F4D8C4E8D4F8B508A5189528B
:09A7D10012007EEF30E7F9C2F935
:10A7DA00E4F557F5580558E55870020557644045A1
:03A7EA005770F2B3
:10A7ED00E54D6401454C70047F8480027F87120023
:10A7FD003EE4FF12003EE4FF12003EE4FF12003E75
:10A80D00E4F555F556C3E556954FE54E6480F8E5EC
:10A81D0055648098501DAB50AA51A952855682851A
:10A82D005583123AADFF12003E0556E55670D6051A
:10A83D005580D2D2F9AD54AC53AF4DAE4C02A8CB2E
:08A8CB008E598F5A8C5B8D5CE5
:10A8D300900947E0FEA3E0FF12A6048F5D12007EFD
:06A8E300EF30E7F9C2F9B5
:10A8E900E4F55EF55F055FE55F7002055E6440456E
:03A8F9005E70F29C
:10A8FC00E55D6010E55A6401455970047F83801250
:10A90C007F86800EE55A6401455970047F8280026F
:10A91C007F8512003EE55CAE5B7806CEA2E713CED7
:10A92C0013D8F8FF12003EAF5CEF25E025E0FF12D4
:09A93C00003EE4FF12003ED2F9D6
:01A9450022EF
:02007E00C2F9C5
:10008000E4F569F56A056AE56A7002056964404548
:030090006970F2A2
:0C0093007FD712003EE4FF12003ED2F9BD
:01009F00223E
:0AA69E008E498F4A8B4B8A4C894D80
:09A6A80012007EEF30E7F9C2F95F
:10A6B100E4F552F5530553E55370020552644045E4
:03A6C1005270F2E2
:10A6C4007FD212003EE54FAE4E7806CEA2E713CEFF
:10A6D40013D8F8FF12003EAF4FEF25E025E0FF123C
:10A6E400003EE4FF12003EE4FF12003EE4FF1200CD
:10A6F4003EE4FF12003EE4FF12003EE4F550F55143
:10A70400C3E551954AE5496480F8E5506480985062
:10A714001FE4FF12003EAB4BAA4CA94D8551828524
:10A724005083EF123B1F0551E55170D4055080D082
:02A73400D2F958
:01A736002200
:08A604008E608F618C628D6392
:0CA60C0075640112007EEF30E7F9C2F91E
:10A61800E4F567F5680568E5687002056764404514
:03A628006770F266
:10A62B007FD212003EE563AE627806CEA2E713CE70
:10A63B0013D8F8FF12003EAF63EF25E025E0FF12C1
:10A64B00003EE4FF12003EE4FF12003EE4FF120066
:10A65B003EE4FF12003EE4FF12003EE4F565F566B2
:10A66B00C3E5669561E5606480F8E56564809850A4
:10A67B001DE4FF12003EBFFF047F0180027F008FAD
:10A68B0064EF600A0566E56670D6056580D2D2F97F
:02A69B00AF64AA
:01A69D00229A
:04AC84008E478F4820
:09AC880012007EEF30E7F9C2F979
:10AC9100E4F549F54A054AE54A700205496440452B
:03ACA1004970F205
:10ACA4007F5012003EE548AE477806CEC313CE135C
:10ACB400D8F9FF12003EAF48EF25E025E0FF12006F
:08ACC4003EE4FF12003ED2F94C
:01ACCC002265
:04ACCD008E498F4AD3
:09ACD10012007EEF30E7F9C2F930
:10ACDA00E4F54BF54C054CE54C7002054B644045D8
:03ACEA004B70F2BA
:10ACED007F8112003EE54AAE497806CEC313CE13DE
:10ACFD00D8F9FF12003EAF4AEF25E025E0FF120024
:08AD0D003EE4FF12003ED2F902
:01AD1500221B
:06A9B5008C428D438B442F
:10A9BB00E5446002C2B68E458F46D3E5469543E526
:10A9CB00459542504BE54654077034C3E5439546D5
:10A9DB00FFE5429545FEC3EF9408EE94004020E559
:10A9EB00446008E546543F7002B2B6AF46AE45121E
:10A9FB00AC8474072546F546E43545F5458007AF2D
:10AA0B0046AE4512ACCD0546E54670AE054580AA6F
:06AA1B00E5446002C2B632
:01AA21002212
:06A23B008B318A328933E9
:06A24100D2F8D2F9C2FAC6
:10A24700E4F537F5380538E53870020537644045D9
:03A257003770F26B
:02A25A00D2FA36
:10A25C00E4F537F5380538E53870020537644045C4
:03A26C003770F256
:10A26F0012007EEF543C124061A2910CA29B14A2EB
:10A27F00A51CA2AF24A2CA2CA2E534A3003C000067
:10A28F00A31CAB31AA32A9337402801CAB31AA32A2
:10A29F00A93374048012AB31AA32A9337408800831
:10A2AF00AB31AA32A933741075F000123C6DAB3488
:10A2BF00AA35A936740175F008804FAB31AA32A9BF
:10A2CF0033741075F000123C6DAB34AA35A9367497
:10A2DF000275F0108034AB31AA32A933742075F0B7
:10A2EF0000123C6DAB34AA35A936740275F010809C
:10A2FF0019AB31AA32A933742075F000123C6DAB43
:0DA30F0034AA35A936740475F020123C6D97
:01A31C00221E
:10FE00008E448F458E448F45E4F546F547A2AF33C7
:10FE1000F548C2AFE4F58443B701758F03C3E546E7
:10FE200094FC50168547828546837488F0E4254704
:10FE3000F54774043546F54680E3E4F58FF546F55D
:10FE400047F54BF54C75840FE54C54037002B2B680
:10FE500012FFB58F4DE54D30E7F6C2F9E4F54EF5EA
:10FE60004F054FE54F7002054E6440454E70F27FDE
:10FE7000D212FFA4E54CAE4B7806CEC313CE13D8F6
:10FE8000F9FF12FFA412FF9CE4FF12FFA4E4FF128B
:10FE9000FFA4E4FF12FFA4E4FF12FFA4E4FF12FF9B
:10FEA000A4E4F549F54AE4FF12FFA4744B254AF592
:10FEB0008274003549F583EFF0054AE54A70020582
:10FEC00049C3E549940240DED2F9E4F584758F0117
:10FED000F549F54A744B254AF58274003549F58396
:10FEE000E0FF0547E547AC467002054614F5828CF5
:10FEF00083EFF0054AE54A70020549B400D6E549AA
:10FF0000B402D1E4F58F054CE54C7002054BC39467
:07FF10007FE54B9400500354
:10FF170002FE45E4F58F53B7FEE54824FF92AFE4B0
:10FF2700F5D075840FF54BF54CC3E54B9420505431
:10FF3700E54C543F7002B2B512FFB58F4DE54D3019
:10FF4700E7F6C2F9E4F54EF54F054FE54F700205A8
:10FF57004E6440454E70F27F5012FFA4E54CAE4B05
:10FF67007806CEC313CE13D8F9FF12FFA412FF9C55
:10FF7700E4FF12FFA4D2F97408254CF54CE4354B85
:10FF8700F54B80A512FFB58F4DE54D30E7F6E4F54B
:05FF97008443EF01228C
:10FF9C00AF4CEF25E025E0FFAE84E4F5848F9B3079
:09FFAC00FFFDC2FFAF9B8E842211
:10FFB500C2F9E4F550F5510551E55170020550645B
:10FFC50040455070F27FD712FFA4E4FF12FFA4D280
:02FFD500F9220F
:10952400908AC7E493FFAB32AA33A93490000112A6
:0A9534003AADFDE4F54CF54D7B0661
:04953E008F498B4B7B
:10954200754EFFE4F54FF550ED908AC793F55174CF
:10955200232DF582E4340CF5837464F0908AC7E419
:1095620093B54919E54B64066013E54B6415600D2C
:10957200741D2DF582E4340CF583E54BF0E551754D
:10958200F013A4248DF582E43402F583123FC674ED
:1095920016123B0DE55175F013A4248DF582E434C7
:1095A20002F583123FC6900001E549123B1FE551C7
:1095B20075F013A4248DF582E43402F583123FC6BC
:1095C200900002ED123B1F7402254DF54DE4354C1F
:1095D200F54CFFE55175F013A4248DF582E43402B5
:1095E200F583123FC6900003EF123B1FE55175F061
:1095F20013A4248DF582E43402F583123FC6900051
:1096020004E54D123B1FE55175F013A4248DF5823C
:10961200E43402F583123FC6900005E54B123B1F6E
:10962200E4FEFFE55175F013A4248DF582E43402C3
:10963200F583123FC68F828E83123AAD624E0FBF00
:1096420000010EEF64064E70DAE55175F013A424A2
:109652008DF582E43402F583123FC6900006E54E92
:10966200123B1F74FE254DF54D74FF354CF54CE54C
:109672005175F013A4248DF582E43402F583123F70
:10968200C6E92407F9E43AFAAD4DAC4C12AA8B8E26
:109692004F8F50EEFFE55175F013A4248DF582E44F
:1096A2003402F583123FC6054DE54D7002054C2488
:1096B20006F582E4354CF583EF123B1FE55175F058
:1096C20013A4248DF582E43402F583123FC6054DBE
:1096D200E54D7002054C2406F582E4354CF583E530
:1096E20050123B1FE55175F013A42480F974023522
:1096F200F0FA7B01E54D2407FDE4354CFC12AAE6A5
:09970200E54D2407FFE4354CFE9F
:01970B00223B
:08415C008F318B328A33893464
:10416400E4900CD6F0A3F0900003123AADFE900058
:1041740004123AAD7C002400FFEC3ECF24FECF3481
:10418400FFFE900CD8F0FCA3EFF0FDE92407F9E45E
:104194003AFA12AC3A900CD6EEF0A3EFF04E603A35
:1041A400AB32AA33A934900005123AADFF641570FE
:1041B40003024A90EF64067003024A9090000112D1
:1041C4003AAD2423F582E4340CF5837464F0900052
:0A41D40001123AADFF7D0402459D83
:1041DE00AB32AA33A934900002123AADFF908AC7CF
:1041EE00E4936F7003024298EFF47003024298EF6B
:1041FE0093FF3395E0FE90028D75F013EF123FAAF8
:10420E00EE75F013A42583F583123FC6E92407F952
:10421E00E43A8B3AF53B893CE5342407F9E435332F
:10422E00853237F5388939E4F535F536D3900CD922
:10423E00E09536900CD8E0953540247837E475F04B
:10424E0001123FB6123A94FF783AE475F001123F2C
:10425E00B6EF123B0D0536E53670D1053580CDAB88
:10426E0032AA33A934900001123AADFF9000021227
:10427E003AADFD900005123AADFB900CD8E0F54C2E
:10428E00A3E0F54D12953E024A90AB32AA33A93403
:10429E00900005123AAD12406142F90643341043C4
:1042AE001D1545D83046FD31472532474D33483D23
:1042BE0034477535479D3647C537483D3847ED3944
:1042CE0048153A45314145314248695048BB51463F
:1042DE000D5544567044BA7143619049A691486198
:1042EE009346C59443F09800004A5C900001123A40
:1042FE00AD241DF582E4340CF583AB32AA33A93418
:10430E00900001123AAD241DF582E4340C8010ABFE
:10431E0032AA33A934123A94241EF582E4340CF5F1
:10432E0083E4F0024A49900C23E0FFC39405400653
:10433E00EFD3941F4004EFB4E20512ABEB800312EF
:10434E009524900CD6EEF0A3EFF0AB32AA33A9343D
:03435E00024A49C7
:10436100900C23E0FFC394054006EFD3941F400453
:10437100EFB4E20512ABEB8065AB32AA33A93490FE
:104381000007123AADFE900008123AAD7C002400FD
:10439100F53EEC3EF53DE53175F013A4248DF58233
:1043A100E43402F583123FC6E92407F9E43AFA90AE
:1043B1000947E0FEA3E0FF853D4E853E4F12A69ED4
:1043C100908AC7E493FFAB32AA33A934900001125B
:1043D1003AADFD900947E0F54CA3E012953A900CF7
:0F43E100D6EEF0A3EFF0AB32AA33A934024A496B
:1043F000900C23E0FFC394054006EFD3941F4004C4
:10440000EFB4E20512ABEB803CAB32AA33A9349097
:104410000007123AADFE900008123AAD7C0024006D
:10442000F53EEC3EF53D900947E0FCA3E0FDE924B4
:1044300009F9E43AFA853D53853E547F027E001225
:10444000A7C3129524900CD6EEF0A3EFF0AB32AADE
:0644500033A934024A49C1
:10445600900C23E0FFC394054006EFD3941F40045D
:10446600EFB4E20512ABEB803AE53175F013A42404
:104476008DF582E43402F583123FC6E92407F9E498
:104486003AFA12AB97908AC7E493FFAB32AA33A9E4
:1044960034900001123AADFD754C00754D807B06D7
:1044A60012953E900CD6EEF0A3EFF0AB32AA33A9EC
:1044B60034024A49900C23E0FFC394054006EFD32B
:1044C600941F4004EFB4E20512ABEB804D12AE80B0
:1044D600AB32E5342407F9E43533FA900CD8E0FE24
:1044E600A3E0FFC39480EE94005006AC06AD0780AF
:1044F600047C007D8012A9467B017A0C792712ABD9
:1045060097900014E06010900C97E030E4047F0070
:1045160080027F0112AED8129524900CD6EEF0A33D
:0B452600EFF0AB32AA33A934024A497F
:10453100900C23E0FFF53DAB32AA33A9349000057E
:10454100123AADFE7C00B441047D0080027D058CF1
:104551003E8D3FEE900C22E024FFFD900C21E034D3
:10456100FFFC8C408D41AB32AA33A934900001127B
:104571003AAD2423F582E4340CF583E4F0EFC394DF
:10458100054009900C23E0D3941F4007900C23E0D1
:10459100B4E217900001123AADFF7D2012ABFA9000
:1045A1000CD6EEF0A3EFF0024A90900C2374E2F0E7
:1045B100129524900CD6EEF0A3EFF0E4FFFE12ACBE
:1045C100CD7B01AD41AC40AF3FAE3E12A9B5900CE1
:0745D10023E53DF0024A90D2
:1045D800129524900CD6EEF0A3EFF0AB32AA33A9D3
:1045E80034900001123AAD2423F582E4340CF583AB
:1045F800E4F012007E8F3DE53D30E7F6E4F58443B4
:05460800EF01024A90E1
:10460D00129524900CD6EEF0A3EFF07B017A02798F
:0C461D00807F007EE17D007C0012912B6C
:10462900900CCA123F3B00004650E4FFFEFDFC908F
:104639000CCA123EF3D3123E0C4017900CCA123E1C
:10464900E774FFFBFAF9F8123CB9900CCA123F2F34
:0246590080D807
:10465B00E4F584C2ACC298D29975840153E7BFC20A
:03466B0098D29949
:10466E0075840F30E815C39002C1E094099002C022
:10467E00E094004006E4F58443EF01E4F5843098BD
:10468E0017758401309911C299F58485993DC298A8
:10469E00B2B4758401853D997584013098C2E4F5F4
:1046AE00843099BCC29975840185993DC298B2B582
:0546BE00F584853D9923
:1046C30080A9129524900CD6EEF0A3EFF0AB32AA9A
:1046D30033A934900001123AAD2423F582E4340C5B
:1046E300F583E4F0900014E07003024A9090000711
:1046F300123AADFF12AED8024A90129524900CD60E
:10470300EEF0A3EFF0AB32AA33A934900001123AD2
:10471300AD2423F582E4340CF583E4F01217E602AA
:104723004A90129524900CD6EEF0A3EFF0AB32AA88
:1047330033A934900001123AAD2423F582E4340CFA
:10474300F583E4F01252D0024A90129524900CD6CD
:10475300EEF0A3EFF0AB32AA33A934900001123A82
:10476300AD2423F582E4340CF583E4F01285AA0228
:104773004A90129524900CD6EEF0A3EFF0AB32AA38
:1047830033A934900001123AAD2423F582E4340CAA
:10479300F583E4F0126025024A90129524900CD61A
:1047A300EEF0A3EFF0AB32AA33A934900001123A32
:1047B300AD2423F582E4340CF583E4F01259C402EA
:1047C3004A90129524900CD6EEF0A3EFF0AB32AAE8
:1047D30033A934900001123AAD2423F582E4340C5A
:1047E300F583E4F0126E73024A90129524900CD66E
:1047F300EEF0A3EFF0AB32AA33A934900001123AE2
:10480300AD2423F582E4340CF583E4F0126A190233
:104813004A90129524900CD6EEF0A3EFF0AB32AA97
:1048230033A934900001123AAD2423F582E4340C09
:10483300F583E4F0128F02024A90AB32AA33A93413
:10484300900001123AAD2423F582E4340CF583E49D
:10485300F0900005123AADFF127EF7024A909002E3
:10486300ED74FF02493E900C23E064F07027754518
:1048730001754600754705AB32AA33A93412A4AAC1
:10488300129524900CD6EEF0A3EFF00575E5757044
:104893001E0574801AAB32AA33A934900001123A70
:1048A300ADFF7D0812ABFA900CD6EEF0A3EFF0ABA0
:1048B30032AA33A934024A49900C23E0B4F114AB71
:1048C30032AA33A934900007123AADFF900005E0F5
:1048D3006F6072AB32AA33A934900001123AADFF74
:1048E3007D0812ABFA900CD6EEF0A3EFF0AB32AA30
:1048F30033A934900001123AAD2423F582E4340C39
:04490300F583E4F064
:10490700900CCE123F3B0000AFC8E4FFFEFDFC90C9
:104917000CCE123EF3D3123E0C4017900CCE123E33
:10492700E774FFFBFAF9F8123CB9900CCE123F2F4F
:0249370080D826
:104939009002ED74F2F0900CA97401F0024A901201
:104949009524900CD6EEF0A3EFF0AB32AA33A9343C
:10495900900001123AAD2423F582E4340CF583E486
:01496900F05D
:10496A00900CD2123F3B0000AFC8E4FFFEFDFC9062
:10497A000CD2123EF3D3123E0C4017900CD2123EC8
:10498A00E774FFFBFAF9F8123CB9900CD2123F2FE8
:02499A0080D8C3
:10499C00AF75AE7412ADE9024A90900CA97401F097
:1049AC00AB32AA33A934900007123AAD9002EDF065
:1049BC00D3900CD9E09401900CD8E09400406D9009
:1049CC000008123AAD540F900BDDF0900009123A2A
:1049DC00AD900CA8F0E4F535F536AB32AA33A9341A
:1049EC00E536240AFFE435358F82F583123AADFFA4
:1049FC00746C2536F58274023535F583EFF0053687
:104A0C00E536700205356404453570CEAB32AA33F9
:104A1C00A93490000E123AAD9002BFF090000F1224
:104A2C003C35FF9002B8E5F0F0A3EFF0129524901E
:104A3C000CD6EEF0A3EFF0AB32AA33A93490000100
:104A4C00123AAD2423F582E4340CF583E4F080347F
:104A5C00AB32AA33A934900001123AAD2423F5826B
:104A6C00E4340CF5837464F0900001123AADFF7DD0
:104A7C000212ABFA900CD6EEF0A3EFF074FF900C90
:044A8C00D6F0A3F0CD
:084A9000900CD6E0FEA3E0FF4C
:014A980022FB
:0AAC3A008B428A4389448C458D4605
:10AC440012AA8B8E478F48AB42AA43A944854682F9
:10AC5400854583123AAD7F00FEE5462401FDE435C7
:10AC6400458D82F583123AAD2FFFE43EFEE548B5EB
:0FAC74000709E547B50604E4FEFF227EFF7FFFD8
:01AC830022AE
:0FABEB00AB32AA33A934900001123AADFF7D209E
:10ABFA00AE07EE908AC793FB3395E0FA90028D7503
:10AC0A00F013EB123FAAEA75F013A42583F5831219
:10AC1A003FC6900007ED123B1F908AC7E493FFAD31
:10AC2A0006754C00754D017B1512953EE4FEFF2218
:06A4AA008B428A43894445
:10A4B000E4F548F549900003123AADFE900004120D
:10A4C0003AADFDEEF54AEDF54BE4F548F549E54BBF
:10A4D00024FEFFE54A34FFFEC3648094825002806C
:10A4E000047E027F00C3E5499FEE6480F8E548647E
:10A4F00080985048AB45AA46A947C003C002C00196
:10A50000123A94FFAB42AA43A944E5492407FDE46B
:10A5100035488D82F583123AADFE744B2549F5829C
:10A5200074003548F583EEF06FD001D002D00312ED
:10A530003B0D0549E5497096054880927E00E5751A
:10A540005401FF900947E0FCA3E0FD7B017A00790C
:0AA550004B85745385755402A7C3B0
:04ADE9008E428F43C4
:10ADED0090FE00E493FE740193FF900CDDEEF0A352
:10ADFD00EFF0BE8012BFFE0F7B007AFE7902900C41
:0EAE0D00DA123FCF0240B4AF75AE7412FE00F1
:01AE1B002214
:10AA22008584317B017A0C792712AB97900014E070
:10AA3200702EF58475D98075D84075DA4275DB427F
:10AA4200900C8CE0A3E0F5FB900C8CE0A3E0F5FC0D
:10AA5200900C8EE0A3E0F5FD900C8EE0A3E0F5FEF5
:10AA6200900CA7E0FD7C007E057F00123B538E71A7
:10AA72008F72E4F58475E8C075D107F5BAF5BB7538
:08AA8200BC7043E7028531843A
:01AA8A0022A9
:03007B00029ABE28
:109ABE00C0E0C0F0C083C082C0D075D000C000C06E
:0B9ACE0002C003C004C005C006C007B2
:109AD900758400C2EDE57325E02425F582E43400A0
:109AE900F583E5BF85BEF0123BDEE5731240619B4D
:109AF90014009B1C019B24029B37039B3F049B473B
:109B0900059B4F069B570700009B5D75BB0175734D
:109B190001804175BB027573028039900014E060C1
:109B29000575BB07800375BB08757303802675BB74
:109B390003757304801E75BB04757305801675BBA8
:109B490005757306800E75BB06757307800675BBB0
:109B590000757300E5721572700215711445716014
:049B690003029C5007
:109B6D00900CA7E0FF74A08FF0841313543F75225F
:109B7D0000F523E4FBFAEB64034A7026900014E031
:109B8D007020900CA7E075F00A84FF7E0090002BEA
:109B9D00E0FCA3E0FD123B4190001BEEF0A3EFF0C3
:109BAD008037EB25E0FFEA33FE74252FF582740034
:109BBD003EF583E0FEA3E0FFAC22AD23123B53AC98
:109BCD0006AD07EB25E0FFEA33FE74152FF5827421
:109BDD00003EF583ECF0A3EDF0EB25E0FFEA33FE5C
:109BED0074252FF58274003EF583E4F0A3F00BBBD2
:109BFD0000010AEB64084A6003029B83900004E0B5
:109C0D007029900C86E0FEA3E0FF900C85E02FFFFD
:109C1D00900C84E03EFE900015E0FCA3E0FDC3EF48
:109C2D009DFFEE9C900015F0A3EFF0900CA7E0FDCA
:109C3D007C007E057F00123B538E718F729002A7C0
:039C4D007401F0AF
:0C9C5000E5737003D38001C34002D2EC26
:109C5C00D007D006D005D004D003D002D000D0D08D
:099C6C00D082D083D0F0D0E032A8
:03A3CA000119FF77
:109C750085843175840F75E1EF75E20775E34475E9
:109C8500A4157580EA75ADFF75A53D759001E4F5E0
:109C9500A675A0FFF59E75E8FFE5E854E0FFBFC097
:109CA500047F0180027F00900014EFF0600875B01A
:109CB5007975A7FE800675B07E75A7F8E4F5C875B9
:109CC5009CFFF59D75D8FF900014E0FF600875F8BE
:109CD50097759FF78006759FFF75F8F7EF6004C2CB
:109CE500FC8002D2FCD2B3C2B6C2B5C2B430D8032E
:099CF500029E2820D903029E28DA
:109CFE00E4F532F533EF6002D2FBD2B4C2C8C2CA69
:109D0E00900CCA123F3B00001194E4FFFEFDFC9044
:109D1E000CCA123EF3D3123E0C4017900CCA123EE0
:109D2E00E774FFFBFAF9F8123CB9900CCA123F2FF8
:029D3E0080D8CB
:0E9D400020DB03029E2220DC03029E22D2CAF8
:109D4E00900CCE123F3B00001194E4FFFEFDFC9000
:109D5E000CCE123EF3D3123E0C4017900CCE123E98
:109D6E00E774FFFBFAF9F8123CB9900CCE123F2FB4
:029D7E0080D88B
:109D8000E4F532F53330DC100533E533700205328B
:0E9D9000B488F2E532B413ED30DC03029E22FB
:0F9D9E00753555D2B5E4F534E5351392C8B2CA20
:109DAD00900CD2123F3B000008CAE4FFFEFDFC9070
:109DBD000CD2123EF3D3123E0C4017900CD2123E31
:109DCD00E774FFFBFAF9F8123CB9900CD2123F2F51
:029DDD0080D82C
:109DDF00E535C313F5350534E534B408BAE4F53287
:109DEF00F53320DC100533E53370020532B488F209
:109DFF00E532B413ED9002EC30DC077402F0D2B60A
:109E0F0080037401F0D2C8C2CAD2B3C2B4C2B5C201
:019E1F00B68C
:089E200080069002EC7401F0D1
:039E2800853184FD
:019E2B002214
:10AD1600AF84E4F584F5D875D980F5F9F5FAF5E947
:10AD260075EA0C75DC4675D840900CABF0A3F09034
:10AD3600025BF0A3F0F584C28C758905438E08F595
:10AD46008AF58CC28DD28C758401758880758930A0
:07AD5600D2A943E6308F840F
:01AD5D0022D3
:0DAF7200AF84E4F584C289D288D2A88F8410
:01AF7F0022AF
:03005B00029E2CD6
:109E2C00C0E0C0F0C083C082C0D075D000C000C0FC
:0D9E3C0001C002C003C004C005C006C0077D
:109E490053E6CF758400AF8CEFFEAD8A7C00E42D1C
:109E5900F525EC3EF524900CABE0FEA3E0FFC3E54D
:109E6900259FFFE5249EFED3EF9464EE94005003F2
:109E7900029F85C28C758A00758C00C28DD28CE5D3
:049E890019F4704117
:109E8D00F519F526AE24AF25E52625E02435F58216
:109E9D00E43400F583EEF0A3EFF0E4FCFDE51D2FB7
:109EAD00FFE51C3EFEED351BFDEC351A8F1D8E1C9E
:0E9EBD008D1BF51A0526E526B404C990025B3C
:109ECB00029F770519E519C394044003751900E542
:109EDB001925E02435F582E43400F583E0FEA3E098
:109EEB00FBC3E51D9BFFE51C9EFEE51B9400FDE5FA
:109EFB001A94008F1D8E1C8D1BF51AAE24AF25E511
:109F0B001925E02435F582E43400F583EEF0A3EF58
:109F1B00F0E4FCFDE51D2FFFE51C3EFEED351BFDC2
:109F2B00EC351A8F1D8E1C8D1BF51AE47B04FAF988
:109F3B00F8AC1A123D5F8E248F25C390025CE0951E
:109F4B0025FF90025BE09524FEC394004006AC060F
:109F5B00AD078009C3E49FFFE49EFCAD0790025B55
:109F6B00E0C313FFC3ED9FEC94004007E524F0A37F
:109F7B00E525F0900CABE4F0A3F07584015388CF8A
:039F8B0043E6307A
:109F8E00D007D006D005D004D003D002D001D00027
:0B9F9E00D0D0D082D083D0F0D0E032D1
:0300530002AD5E9D
:10AD5E00C0E0C083C082C0D075D000C004C005C0A2
:10AD6E0006C00753E6CF758400AF8CEFFEAD8A7C2C
:10AD7E0000E42DFFEC3E900CABF0A3EFF0758401D8
:10AD8E005388CF43E630D007D006D005D004D0D0BC
:07AD9E00D082D083D0E03227
:03000B0002AE1C26
:10AE1C00C0E0C083C08253E6CF758400C28C758AB3
:10AE2C0000758C00D28C900CABE4F0A3F090025B1C
:10AE3C00F0A3F07584015388CF43E630D082D083E1
:03AE4C00D0E03221
:0300030002A84D03
:10A84D00C0E0C0F0C083C082C0D075D000C000C0D1
:09A85D0003C004C005C006C007D9
:10A86600A2AFE433FB900CAE7401F0900CA7E0FDB0
:10A876007C007E057F00123B538E718F72757300CC
:10A886007F10900025E4F0A3DFFCC2AF53E7FE750E
:10A896008400C2ECC2ED75BB0075840175C80074F6
:0EA8A600FFF5CDF5CC43E70143C8042B92AF7C
:10A8B400D007D006D005D004D003D000D0D0D082A9
:07A8C400D083D0F0D0E03298
:02FDFE0080FE85
:1072B000257300506C61636520756E697420666C7F
:1072C0006174206F6E206C6576656C2073757266D4
:1072D0006163652E00466C6970206F7665722E20A2
:1072E0004661636520646F776E2E00486F6C642082
:1072F000766572746963616C2C2047505320616E0F
:1073000074656E6E61206A61636B2075702E004833
:107310006F6C6420766572746963616C2C204750D1
:107320005320616E74656E6E61206A61636B2064C8
:107330006F776E2E005374616E64206F6E207269D9
:1073400067687420736964652E005374616E6420ED
:107350006F6E206C65667420736964652E00496EDB
:1073600076657274696E6720582056616C75657316
:1073700000496E76657274696E6720592056616C9B
:1073800075657300496E76657274696E67205A2060
:1073900056616C7565730020005A65726F20506FDE
:1073A000696E74733A20582025752C205920257554
:1073B0002C205A20257500582052616E67653A20AE
:1073C00025752C20257500592052616E67653A207D
:1073D00025752C202575005A2052616E67653A206C
:1073E00025752C2025750053746F72696E672043D4
:1073F000616C6962726174696F6E204461746120AE
:10740000696E20466C6173682E0043616C6962721C
:107410006174696F6E20436F6D706C6574652E00CA
:107420005A65726F696E6720582C20592050574D4D
:107430000046696E616C2043616C3A2025752C25ED
:10744000750046696E616C2056616C3A2025752C7A
:1074500025750044617461666C61736820546573BE
:1074600074002A2A20466C617368204641494C45C5
:1074700044202A2A2C20706167652025642C206214
:1074800079746525640050616765202564206F6B01
:107490000054657374205061737365642E00496EE7
:1074A000707574205465737400444947494E3A20FE
:1074B0000031003000583A2025752C20593A2025FB
:1074C00075005A3A2025752C2035563A202575002E
:1074D00035563A2025752C20543A20257500413028
:1074E0003A2025752C2041313A2025750041323A49
:1074F0002025752C2041333A20257500496E707582
:10750000745465737420436F6D706C6574652E00E0
:107510004F757470757420546573740062697420BB
:107520002564004F75747075745465737420436FCF
:107530006D706C6574652E00412F44205465737422
:1075400000426F61726420666C61742E2054657312
:1075500074206669787475726520617474616368FB
:1075600065642E005820205920203556205A2020AE
:107570004130204131204132204133003120202050
:107580000030202020004144546573742050415342
:10759000532E002A2A2041445465737420464149E1
:1075A0004C202A2A004469676974616C20494F2085
:1075B00054657374004F6E6C792056616C69642059
:1075C000666F7220535532202D2045786974696E9C
:1075D000672E00446967494F5465737420506F6982
:1075E0006E74202564002A2A20204641494C202A16
:1075F0002A00446967494F546573742050415353BE
:107600002E002A2A20446967494F54657374204626
:1076100041494C202A2A004175746F4F6E205465F1
:10762000737400456E61626C696E67204175746F9A
:107630004F6E2E2E2E0044726F7070696E6720356B
:107640005620456E61626C650044697361626C69C5
:107650006E67204175746F4F6E2E2E2E004175742B
:107660006F4F6E5465737420504153532E00534D29
:107670004275732054657374202D204D61737465B9
:10768000720025752042797465732C20257520437E
:1076900079636C6573002A2A20534D427573205418
:1076A000657374204641494C202A2A00534D427587
:1076B00073205465737420506173732E00534D42D0
:1076C00075732054657374202D20536C61766500AA
:1076D00001020408102040800102040810204080AC
:1017E6008584429000047401F075840FFB7A0C79AD
:1017F6002712AB97E4900C77F0908AC793900C78F9
:10180600F0900014E0900C79600574C8F0800374C1
:1018160064F0900C90E4F0A374F9F0900C92E4F06C
:10182600A37408F074FFFFFEFDFC900C7A123EF3E1
:10183600C3123E22700A900C7A123F3B0000000051
:10184600900C7EE0B4FF037401F0900C7FE0B4FFCF
:10185600037409F0900C9474FFF0A3F0900C80745C
:1018660008F0A3E4F0900C827408F0A3E4F0900C66
:1018760027F0900C3BF0900C4FF0900C8EF0A37478
:10188600A0F0900C8CE4F0A374A0F0E49002C0F0F9
:0A189600A3F0D2B3D2B6D2B5D2B49B
:1018A000900CDA123F3B00015F90E4FFFEFDFC90DC
:1018B0000CDA123EF3D3123E0C4017900CDA123EB3
:1018C000E774FFFBFAF9F8123CB9900CDA123F2FDB
:0218D00080D8BE
:1018D200908AC8E493FF3395E0FE90028D75F01371
:1018E200EF123FAAEE75F013A42583F583123FC6CB
:1018F200E92407F9E43AFA754CFF754D72754EB05A
:10190200754FFF7550727551B3126606908AC8E41E
:1019120093FF3395E0FE90028D75F013EF123FAA0C
:10192200EE75F013A42583F583123FC6E92407F967
:10193200E43AFA12000EEF2401F54DE43EF54C9024
:0C1942008AC7E493FF7B737D0112953E81
:10194E00900CDE123F3B00015F90E4FFFEFDFC9029
:10195E000CDE123EF3D3123E0C4017900CDE123EFC
:10196E00E774FFFBFAF9F8123CB9900CDE123F2F28
:02197E0080D80F
:101980001298EB900014E06065900DD0E0FEA3E0AB
:10199000FF900DCBE02FFF900DCAE03EC313FEEF8A
:1019A00013FF900C80EEF0A3EFF0900DD2E0FEA3B9
:1019B000E0FF900DCDE02FFF900DCCE03EC313FE75
:1019C000EF13FF900C82EEF0A3EFF0900DD4E0FE49
:1019D000A3E0FF900DCFE02FFF900DCEE03EC313AC
:1019E000FEEF13FF900C9FEEF0A3EFF08003127A4E
:1019F000F3900014E07003021AD0C2B3C2B5908A0B
:101A0000C8E493FF3395E0FE90028D75F013EF125A
:101A10003FAAEE75F013A42583F583123FC6E9248F
:101A200007F9E43AFA754CFF754D72754EB0754F73
:101A3000FF7550727551D5126606908AC8E493FFFF
:101A40003395E0FE90028D75F013EF123FAAEE750C
:101A5000F013A42583F583123FC6E92407F9E43A7D
:101A6000FA12000EEF2401F54DE43EF54C908AC7C2
:0A1A7000E493FF7B737D0112953EA5
:101A7A00900CE2123F3B00015F90E4FFFEFDFC90F8
:101A8A000CE2123EF3D3123E0C4017900CE2123EC7
:101A9A00E774FFFBFAF9F8123CB9900CE2123F2FF7
:021AAA0080D8E2
:101AAC001298EB900DD4E0FEA3E0FF900DCFE02F49
:101ABC00FF900DCEE03EC313FEEF13FF900C9DEE96
:101ACC00F0A3EFF0C2B3C2B6C2B5C2B4908AC8E4F8
:101ADC0093FF3395E0FE90028D75F013EF123FAA41
:101AEC00EE75F013A42583F583123FC6E92407F99C
:101AFC00E43AFA754CFF754D72754EB0754FFF7523
:101B0C0050727551EB126606908AC8E493FF3395B8
:101B1C00E0FE90028D75F013EF123FAAEE75F013F4
:101B2C00A42583F583123FC6E92407F9E43AFA1297
:101B3C00000EEF2401F54DE43EF54C908AC7E4937A
:081B4C00FF7B737D0112953E41
:101B5400900CE6123F3B00015F90E4FFFEFDFC9019
:101B64000CE6123EF3D3123E0C4017900CE6123EE4
:101B7400E774FFFBFAF9F8123CB9900CE6123F2F18
:021B840080D807
:101B86001298EB900DD0E0FEA3E0FF900DCBE02F76
:101B9600FF900DCAE03EC313FEEF13FF900C86EED6
:101BA600F0A3EFF0900014E06021900DD4E0FEA3C6
:101BB600E0FF900DCFE02FFF900DCEE03EC313FE69
:101BC600EF13FF900C9BEEF0A3EFF0D2B3908AC810
:101BD600E493FF3395E0FE90028D75F013EF123F0C
:101BE600AAEE75F013A42583F583123FC6E92407F0
:101BF600F9E43AFA754CFF754D72754EB0754FFFA4
:101C060075507375510F126606908AC8E493FF33B8
:101C160095E0FE90028D75F013EF123FAAEE75F077
:101C260013A42583F583123FC6E92407F9E43AFA9B
:101C360012000EEF2401F54DE43EF54C908AC7E400
:091C460093FF7B737D0112953EB2
:101C4F00900CEA123F3B00015F90E4FFFEFDFC9019
:101C5F000CEA123EF3D3123E0C4017900CEA123EE0
:101C6F00E774FFFBFAF9F8123CB9900CEA123F2F18
:021C7F0080D80B
:101C81001298EB900DD0E0FEA3E0FF900DCBE02F7A
:101C9100FF900DCAE03EC313FEEF13FF900C84EEDC
:101CA100F0A3EFF0D2B6908AC8E493FF3395E0FE3B
:101CB10090028D75F013EF123FAAEE75F013A42573
:101CC10083F583123FC6E92407F9E43AFA754CFF1C
:101CD100754D72754EB0754FFF7550737551351254
:101CE1006606908AC8E493FF3395E0FE90028D75F5
:101CF100F013EF123FAAEE75F013A42583F58312BA
:101D01003FC6E92407F9E43AFA12000EEF2401F57F
:101D11004DE43EF54C908AC7E493FF7B737D01123D
:021D2100953EED
:101D2300900CEE123F3B00015F90E4FFFEFDFC9040
:101D33000CEE123EF3D3123E0C4017900CEE123E03
:101D4300E774FFFBFAF9F8123CB9900CEE123F2F3F
:021D530080D836
:101D55001298EB900DD2E0FEA3E0FF900DCDE02FA1
:101D6500FF900DCCE03EC313FEEF13FF900C88EE01
:101D7500F0A3EFF0D2B5908AC8E493FF3395E0FE67
:101D850090028D75F013EF123FAAEE75F013A4259E
:101D950083F583123FC6E92407F9E43AFA754CFF47
:101DA500754D72754EB0754FFF75507375514A126A
:101DB5006606908AC8E493FF3395E0FE90028D7520
:101DC500F013EF123FAAEE75F013A42583F58312E5
:101DD5003FC6E92407F9E43AFA12000EEF2401F5AB
:101DE5004DE43EF54C908AC7E493FF7B737D011269
:021DF500953E19
:101DF700900CF2123F3B00015F90E4FFFEFDFC9068
:101E07000CF2123EF3D3123E0C4017900CF2123E26
:101E1700E774FFFBFAF9F8123CB9900CF2123F2F66
:021E270080D861
:101E29001298EB900DD2E0FEA3E0FF900DCDE02FCC
:101E3900FF900DCCE03EC313FEEF13FF900C8AEE2A
:101E4900F0A3EFF0D2B4900C84E0FEA3E0FFC390BE
:101E59000C87E09F900C86E09E4003021F38908A11
:101E6900C8E493FF3395E0FE90028D75F013EF12ED
:101E79003FAAEE75F013A42583F583123FC6E92422
:101E890007F9E43AFA754CFF754D72754EB0754F06
:101E9900FF75507375515E126606908AC8E493FF08
:101EA9003395E0FE90028D75F013EF123FAAEE759F
:101EB900F013A42583F583123FC6E92407F9E43A10
:101EC900FA12000EEF2401F54DE43EF54C908AC755
:0A1ED900E493FF7B737D0112953E38
:101EE300900CF6123F3B00015F90E4FFFEFDFC9077
:101EF3000CF6123EF3D3123E0C4017900CF6123E32
:101F0300E774FFFBFAF9F8123CB9900CF6123F2F75
:021F130080D874
:101F1500900C86E0F543A3E0F544900C84E0FFA324
:101F2500E0900C86CFF0A3EFF0900C84E543F0A38E
:101F3500E544F0900C88E0FEA3E0FFC3900C8BE035
:101F45009F900C8AE09E4003022021908AC8E4936A
:101F5500FF3395E0FE90028D75F013EF123FAAEE68
:101F650075F013A42583F583123FC6E92407F9E428
:101F75003AFA754CFF754D72754EB0754FFF755039
:101F850073755171126606908AC8E493FF3395E024
:101F9500FE90028D75F013EF123FAAEE75F013A4B3
:101FA5002583F583123FC6E92407F9E43AFA1200BE
:101FB5000EEF2401F54DE43EF54C908AC7E493FFFE
:071FC5007B737D0112953EC4
:101FCC00900CFA123F3B00015F90E4FFFEFDFC9089
:101FDC000CFA123EF3D3123E0C4017900CFA123E40
:101FEC00E774FFFBFAF9F8123CB9900CFA123F2F88
:021FFC0080D88B
:101FFE00900C8AE0F543A3E0F544900C88E0FFA333
:10200E00E0900C8ACFF0A3EFF0900C88E543F0A39C
:10201E00E544F0900014E07003022113900C9DE053
:10202E00FEA3E0FFC3900CA0E09F900C9FE09E40AB
:10203E0003022113908AC8E493FF3395E0FE9002C9
:10204E008D75F013EF123FAAEE75F013A42583F5EC
:10205E0083123FC6E92407F9E43AFA754CFF754D31
:10206E0072754EB0754FFF755073755184126606BA
:10207E00908AC8E493FF3395E0FE90028D75F013BD
:10208E00EF123FAAEE75F013A42583F583123FC617
:10209E00E92407F9E43AFA12000EEF2401F54DE4B3
:1020AE003EF54C908AC7E493FF7B737D0112953EFB
:1020BE00900CFE123F3B00015F90E4FFFEFDFC9092
:1020CE000CFE123EF3D3123E0C4017900CFE123E45
:1020DE00E774FFFBFAF9F8123CB9900CFE123F2F91
:0220EE0080D898
:1020F000900C9FE0F543A3E0F544900C9DE0FFA316
:10210000E0900C9FCFF0A3EFF0900C9DE543F0A37F
:10211000E544F0908AC8E493FF3395E0FE90028D89
:1021200075F013EF123FAAEE75F013A42583F58323
:10213000123FC6E92407F9E43AFA754CFF754D726F
:10214000754EB0754FFF75507375519712660690B6
:102150008AC8E493FF3395E0FE90028D75F013EF8B
:10216000123FAAEE75F013A42583F583123FC6E94A
:102170002407F9E43AFA12000EEF2401F54DE43E8B
:0F218000F54C908AC7E493FF7B737D0112953E67
:10218F00900D02123F3B00015F90E4FFFEFDFC90BB
:10219F000D02123EF3D3123E0C4017900D02123E69
:1021AF00E774FFFBFAF9F8123CB9900D02123F2FBA
:0221BF0080D8C6
:1021C100754CFF754D73754E99900C80E0F54FA3DA
:1021D100E0F550900C82E0F551A3E0F552900C9B94
:1021E100E0F553A3E0F5547B017A0D791A126606E6
:1021F100908AC8E493FF3395E0FE90028D75F01349
:10220100EF123FAAEE75F013A42583F583123FC6A2
:10221100E92407F9E43AFA754CFF754D72754EB031
:10222100754F0175500D75511A126606908AC8E4F2
:1022310093FF3395E0FE90028D75F013EF123FAAE4
:10224100EE75F013A42583F583123FC6E92407F93F
:10225100E43AFA12000EEF2401F54DE43EF54C90FC
:0C2261008AC7E493FF7B737D0112953E59
:10226D00900D06123F3B00015F90E4FFFEFDFC90D8
:10227D000D06123EF3D3123E0C4017900D06123E82
:10228D00E774FFFBFAF9F8123CB9900D06123F2FD7
:02229D0080D8E7
:10229F00908AC8E493FF3395E0FE90028D75F0139A
:1022AF00EF123FAAEE75F013A42583F583123FC6F4
:1022BF00E92407F9E43AFA754CFF754D73754EB77B
:1022CF00900C84E0F54FA3E0F550900C86E0F551AB
:1022DF00A3E0F552126606908AC8E493FF3395E0A7
:1022EF00FE90028D75F013EF123FAAEE75F013A456
:1022FF002583F583123FC6E92407F9E43AFA120061
:10230F000EEF2401F54DE43EF54C908AC7E493FFA0
:07231F007B737D0112953E66
:10232600900D0A123F3B00015F90E4FFFEFDFC901A
:102336000D0A123EF3D3123E0C4017900D0A123EC0
:10234600E774FFFBFAF9F8123CB9900D0A123F2F19
:0223560080D82D
:10235800908AC8E493FF3395E0FE90028D75F013E0
:10236800EF123FAAEE75F013A42583F583123FC63A
:10237800E92407F9E43AFA754CFF754D73754EC7B1
:10238800900C88E0F54FA3E0F550900C8AE0F551E9
:10239800A3E0F552126606908AC8E493FF3395E0ED
:1023A800FE90028D75F013EF123FAAEE75F013A49C
:1023B8002583F583123FC6E92407F9E43AFA1200A7
:1023C8000EEF2401F54DE43EF54C908AC7E493FFE7
:0723D8007B737D0112953EAD
:1023DF00900D0E123F3B00015F90E4FFFEFDFC905D
:1023EF000D0E123EF3D3123E0C4017900D0E123EFF
:1023FF00E774FFFBFAF9F8123CB9900D0E123F2F5C
:02240F0080D873
:10241100908AC8E493FF3395E0FE90028D75F01326
:10242100EF123FAAEE75F013A42583F583123FC680
:10243100E92407F9E43AFA754CFF754D73754ED7E7
:10244100900C9DE0F54FA3E0F550900C9FE0F55105
:10245100A3E0F552126606908AC8E493FF3395E033
:10246100FE90028D75F013EF123FAAEE75F013A4E2
:102471002583F583123FC6E92407F9E43AFA1200ED
:102481000EEF2401F54DE43EF54C908AC7E493FF2D
:072491007B737D0112953EF3
:10249800900D12123F3B00015F90E4FFFEFDFC909F
:1024A8000D12123EF3D3123E0C4017900D12123E3D
:1024B800E774FFFBFAF9F8123CB9900D12123F2F9E
:0224C80080D8BA
:1024CA00908AC8E493FF3395E0FE90028D75F0136D
:1024DA00EF123FAAEE75F013A42583F583123FC6C7
:1024EA00E92407F9E43AFA754CFF754D72754EB056
:1024FA00754FFF7550737551E7126606908AC8E4E6
:10250A0093FF3395E0FE90028D75F013EF123FAA08
:10251A00EE75F013A42583F583123FC6E92407F963
:10252A00E43AFA12000EEF2401F54DE43EF54C9020
:10253A008AC7E493FF7B737D0112953E12AE807BBE
:0C254A00017A0C79277D7A7C0012A946EA
:10255600900D16123F3B00015F90E4FFFEFDFC90DC
:102566000D16123EF3D3123E0C4017900D16123E76
:10257600E774FFFBFAF9F8123CB9900D16123F2FDB
:0225860080D8FB
:10258800908AC8E493FF3395E0FE90028D75F013AE
:10259800EF123FAAEE75F013A42583F583123FC608
:1025A800E92407F9E43AFA754CFF754D72754EB097
:1025B800754FFF75507475510A126606908AC8E403
:1025C80093FF3395E0FE90028D75F013EF123FAA4A
:1025D800EE75F013A42583F583123FC6E92407F9A5
:1025E800E43AFA12000EEF2401F54DE43EF54C9062
:1025F8008AC7E493FF7B737D0112953ED2B3C2B6BE
:0F260800C2B5C2B4E4900004F012A1158542845B
:0126170022A0
:1098EB00900DCE740FF0A374FFF0900DCC740FF0AD
:1098FB00A374FFF0900DCA740FF0A374FFF0E49003
:10990B000DD4F0A3F0900DD2F0A3F0900DD0F0A3F6
:10991B00F0FFFE9002A7E060FA900015E0FCA3E0D8
:10992B00FD900DCAE0FAA3E0FBC39DEA9C5006AC88
:10993B0002AD038008900015E0FCA3E0FD900DCA7A
:10994B00ECF0A3EDF0900017E0FCA3E0FD900DCC44
:10995B00E0FAA3E0FBC39DEA9C5006AC02AD03808A
:10996B0008900017E0FCA3E0FD900DCCECF0A3ED0C
:10997B00F090001BE0FCA3E0FD900DCEE0FAA3E01D
:10998B00FBC39DEA9C5006AC02AD03800890001B04
:10999B00E0FCA3E0FD900DCEECF0A3EDF0900015F4
:1099AB00E0FCA3E0FD900DD0E0FAA3E0FBD39DEA31
:1099BB009C4006AC02AD038008900015E0FCA3E0D0
:1099CB00FD900DD0ECF0A3EDF0900017E0FCA3E0C0
:1099DB00FD900DD2E0FAA3E0FBD39DEA9C4006ACD0
:1099EB0002AD038008900017E0FCA3E0FD900DD2C0
:1099FB00ECF0A3EDF090001BE0FCA3E0FD900DD488
:109A0B00E0FAA3E0FBD39DEA9C4006AC02AD0380D9
:109A1B000890001BE0FCA3E0FD900DD4ECF0A3ED4F
:109A2B00F0E49002A7F00FBF00010EEF64284E6028
:109A3B000302991E900DCCE0FEA3E0FF900DD2E047
:109A4B00FCA3E0FDC39FFFEC9EFEC394004002808D
:109A5B0016900DCCE0FEA3E0FFC3ED9FFFEC9EFE46
:109A6B00C3E49FFFE49EFED3EF9404EE9400400307
:109A7B000298EB900DCAE0FEA3E0FF900DD0E0FC46
:109A8B00A3E0FDC39FFFEC9EFEC394004002801633
:109A9B00900DCAE0FEA3E0FFC3ED9FFFEC9EFEC35B
:109AAB00E49FFFE49EFED3EF9404EE940040030288
:029ABB0098EB26
:019ABD002286
:107AF300E4F545F546F584900C8EE0A3E0F5FD90A2
:107B03000C8EE0A3E0F5FE900C8CE0A3E0F5FB9077
:107B13000C8CE0A3E0F5FC908AC8E493FF3395E076
:107B2300FE90028D75F013EF123FAAEE75F013A4C9
:107B33002583F583123FC6E92407F9E43AFA754C25
:107B4300FF754D72754EB0754FFF755074755120AA
:107B5300126606908AC8E493FF3395E0FE90028D87
:107B630075F013EF123FAAEE75F013A42583F58386
:107B7300123FC6E92407F9E43AFA12000EEF240192
:107B8300F54DE43EF54C908AC7E493FF7B737D018A
:037B930012953E0A
:107B9600900D6A123F3B00015F90E4FFFEFDFC90F2
:107BA6000D6A123EF3D3123E0C4017900D6A123E38
:107BB600E774FFFBFAF9F8123CB9900D6A123F2FF1
:027BC60080D865
:107BC8009002A7E060FAE49002A7F09002A7E060B4
:107BD800FAE545700F900015E0FFA3E0900C80CF08
:107BE800F0A3EFF0E546700F900017E0FFA3E090D8
:107BF8000C82CFF0A3EFF0E49002A7F0E545704BBC
:107C0800900C80E0FEA3E02400EE34F8C364809476
:107C1800804010900C80E0FEA3E02400FFEE34F8D2
:107C2800FE8015900C80E0FEA3E02400FFEE34F8FF
:107C3800FEC3E49FFFE49EFED3EF9405EE648094B8
:107C48008050047F0180027F008F45E5457048C35E
:107C5800900C80E094085015900C8CE07002A3E022
:107C680070028014900C8C74FFF5F08017900C8CC7
:107C7800E07003A3E0F47005754501800A900C8C50
:107C8800E475F001123BDE900C8CE0A3E0F5FB906C
:107C98000C8CE0A3E0F5FCE546704B900C82E0FE0E
:107CA800A3E02400EE34F8C3648094804010900C64
:107CB80082E0FEA3E02400FFEE34F8FE8015900C6D
:107CC80082E0FEA3E02400FFEE34F8FEC3E49FFF49
:107CD800E49EFED3EF9405EE6480948050047F0107
:107CE80080027F008F46E5467048C3900C82E0947E
:107CF800085015900C8EE07002A3E070028014907A
:107D08000C8E74FFF5F08017900C8EE07003A3E0E2
:107D1800F47005754601800A900C8EE475F0011226
:107D28003BDE900C8EE0A3E0F5FD900C8EE0A3E026
:107D3800F5FEE5457003027BC8E5467003027BC883
:107D48001298EB900015E0FFA3E0900C80CFF0A311
:107D5800EFF0900017E0FFA3E0900C82CFF0A3EFC4
:107D6800F0908AC8E493FF3395E0FE90028D75F099
:107D780013EF123FAAEE75F013A42583F583123F83
:107D8800C6E92407F9E43AFA754CFF754D74754E47
:107D980031900C8CE0F54FA3E0F550900C8EE0F597
:107DA80051A3E0F552126606908AC8E493FF339512
:107DB800E0FE90028D75F013EF123FAAEE75F013F6
:107DC800A42583F583123FC6E92407F9E43AFA1299
:107DD800000EEF2401F54DE43EF54C908AC7E4937C
:087DE800FF7B737D0112953E43
:107DF000900D6E123F3B00015F90E4FFFEFDFC9092
:107E00000D6E123EF3D3123E0C4017900D6E123ED3
:107E1000E774FFFBFAF9F8123CB9900D6E123F2F90
:027E200080D808
:107E2200754CFF754D74754E42900C80E0F54FA372
:107E3200E0F550900C82E0F551A3E0F5527B017A17
:107E42000D7976126606908AC8E493FF3395E0FEB8
:107E520090028D75F013EF123FAAEE75F013A42570
:107E620083F583123FC6E92407F9E43AFA754CFF19
:107E7200754D72754EB0754F0175500D7551761274
:107E82006606908AC8E493FF3395E0FE90028D75F2
:107E9200F013EF123FAAEE75F013A42583F58312B7
:107EA2003FC6E92407F9E43AFA12000EEF2401F57D
:107EB2004DE43EF54C908AC7E493FF7B737D01123B
:027EC200953EEB
:107EC400900D72123F3B00015F90E4FFFEFDFC90B9
:107ED4000D72123EF3D3123E0C4017900D72123EF7
:107EE400E774FFFBFAF9F8123CB9900D72123F2FB8
:027EF40080D834
:017EF6002269
:027EF7008F42B8
:107EF900858443E4F544F545F548908AC893FF33F2
:107F090095E0FE90028D75F013EF123FAAEE75F021
:107F190013A42583F583123FC6E92407F9E43AFA45
:107F2900754CFF754D72754EB0754FFF7550747570
:107F39005153126606908AC8E493FF3395E0FE9088
:107F4900028D75F013EF123FAAEE75F013A4258385
:107F5900F583123FC6E92407F9E43AFA12000EEF55
:107F69002401F54DE43EF54C908AC7E493FF7B73F9
:107F79007D0112953EE49002C0F0A3F0F546F54765
:107F8900D3900948E09547900947E095464023AECC
:107F990046AF477C017D00123BA8744B2547F5820B
:107FA90074003546F583EDF00547E547700205464F
:107FB90080CE75840F30E819C39002C1E09409900E
:107FC90002C0E0940040030281BEE49002C0F0A325
:107FD900F0900947E0FCA3E0FD7B017A00794B852D
:107FE9004453854554E4FFFE12A7C3900947E0FEB8
:107FF900A3E0FF7B017A00794B85444E85454F12FA
:10800900A69EE4F546F547D3900948E095479009BF
:1080190047E09546402DAE46AF477C017D00123BB7
:10802900A8744B2547F58274003546F583E06D70D9
:1080390001EC6005754801800A0547E547700205AE
:108049004680C4E54870030280D5908AC8E493FF4E
:108059003395E0FE90028D75F013EF123FAAEE758D
:10806900F013A42583F583123FC6E92407F9E43AFE
:10807900FA754CFF754D74754E6285444F854550B0
:10808900854651854752126606908AC8E493FF33A4
:1080990095E0FE90028D75F013EF123FAAEE75F090
:1080A90013A42583F583123FC6E92407F9E43AFAB4
:1080B90012000EEF2401F54DE43EF54C908AC7E419
:0C80C90093FF7B737D0112953E0281BE87
:1080D500900CDA123F3B00015F90E4FFFEFDFC903F
:1080E5000CDA123EF3D3123E0C4017900CDA123E16
:1080F500E774FFFBFAF9F8123CB9900CDA123F2F3E
:0281050080D820
:10810700908AC8E493FF3395E0FE90028D75F013D3
:10811700EF123FAAEE75F013A42583F583123FC62D
:10812700E92407F9E43AFA754CFF754D74754E86E4
:1081370085444F854550126606908AC8E493FF33FD
:1081470095E0FE90028D75F013EF123FAAEE75F0E1
:1081570013A42583F583123FC6E92407F9E43AFA05
:1081670012000EEF2401F54DE43EF54C908AC7E46A
:1081770093FF7B737D0112953EAF45AE4412ACCDA4
:10818700D3900C22E09545900C21E095445007E4EC
:10819700F544F54580080545E54570020544E54287
:1081A70064347003027FBBD3E5459404E5446480DF
:0E81B70094805003027FBBE49002C0F0A3F05E
:1081C500900CDE123F3B00015F90E4FFFEFDFC904A
:1081D5000CDE123EF3D3123E0C4017900CDE123E1D
:1081E500E774FFFBFAF9F8123CB9900CDE123F2F49
:0281F50080D830
:1081F700908AC8E493FF3395E0FE90028D75F013E3
:10820700EF123FAAEE75F013A42583F583123FC63C
:10821700E92407F9E43AFA754CFF754D72754EB0CB
:10822700754FFF755074755191126606908AC8E4B0
:1082370093FF3395E0FE90028D75F013EF123FAA7E
:10824700EE75F013A42583F583123FC6E92407F9D9
:10825700E43AFA12000EEF2401F54DE43EF54C9096
:0F8267008AC7E493FF7B737D0112953E854384A4
:0182760022E5
:1052D00085844278FA7C0C7D017BFF7A7679D07EDA
:0C52E000007F08123A6E9000047401F088
:1052EC00900CDA123F3B00015F90E4FFFEFDFC9056
:1052FC000CDA123EF3D3123E0C4017900CDA123E2D
:10530C00E774FFFBFAF9F8123CB9900CDA123F2F54
:02531C0080D837
:10531E00908AC8E493FF3395E0FE90028D75F013EA
:10532E00EF123FAAEE75F013A42583F583123FC644
:10533E00E92407F9E43AFA754CFF754D72754EB0D3
:10534E00754FFF75507475519E126606908AC8E4AB
:10535E0093FF3395E0FE90028D75F013EF123FAA86
:10536E00EE75F013A42583F583123FC6E92407F9E1
:10537E00E43AFA12000EEF2401F54DE43EF54C909E
:10538E008AC7E493FF7B737D0112953EE49002C0C1
:03539E00F0A3F089
:1053A10075840F30E819C39002C1E094099002C0DE
:1053B100E0940040030258FEE49002C0F0A3F09094
:0A53C10002A7E060DBE4F085D843AA
:1053CB00900CDE123F3B0006DDD0E4FFFEFDFC90AF
:1053DB000CDE123EF3D3123E0C4017900CDE123E45
:1053EB00E774FFFBFAF9F8123CB9900CDE123F2F71
:0253FB0080D858
:1053FD00908AC8E493FF3395E0FE90028D75F0130B
:10540D00EF123FAAEE75F013A42583F583123FC664
:10541D00E92407F9E43AFA754CFF754D72754EB0F3
:10542D00754FFF755073755197126606908AC8E4D3
:10543D0093FF3395E0FE90028D75F013EF123FAAA6
:10544D00EE75F013A42583F583123FC6E92407F901
:10545D00E43AFA12000EEF2401F54DE43EF54C90BE
:0C546D008AC7E493FF7B737D0112953E1B
:10547900900CE2123F3B00015F90E4FFFEFDFC90BF
:105489000CE2123EF3D3123E0C4017900CE2123E8E
:10549900E774FFFBFAF9F8123CB9900CE2123F2FBE
:0254A90080D8A9
:1054AB00754CFF754D74754EA97B017A0D790212FF
:1054BB0066067544007545067B017A0D790212006C
:1054CB000E74022FF9740D3EFA7B01C003C002C0AB
:1054DB000174FA2545F582740C3544F583E0554388
:1054EB007BFF60067A7479B180047A7479B38B4C44
:1054FB008A4D894ED001D002D003126606E54515C0
:10550B004570021544C3E5446480948050AA908A88
:10551B00C8E493FF3395E0FE90028D75F013EF1204
:10552B003FAAEE75F013A42583F583123FC6E92439
:10553B0007F9E43AFA754CFF754D72754EB0754F1D
:10554B000175500D755102126606908AC8E493FFDF
:10555B003395E0FE90028D75F013EF123FAAEE75B6
:10556B00F013A42583F583123FC6E92407F9E43A27
:10557B00FA12000EEF2401F54DE43EF54C908AC76C
:0A558B00E493FF7B737D0112953E4F
:10559500900CE6123F3B00015F90E4FFFEFDFC909E
:1055A5000CE6123EF3D3123E0C4017900CE6123E69
:1055B500E774FFFBFAF9F8123CB9900CE6123F2F9D
:0255C50080D88C
:1055C700754CFF754D74754EB5900015E0F54FA3FA
:1055D700E0F550A3E0F551A3E0F5527B017A0D7990
:1055E70002126606908AC8E493FF3395E0FE9002A4
:1055F7008D75F013EF123FAAEE75F013A42583F50E
:1056070083123FC6E92407F9E43AFA754CFF754D52
:1056170072754EB0754F0175500D755102126606C1
:10562700908AC8E493FF3395E0FE90028D75F013DE
:10563700EF123FAAEE75F013A42583F583123FC638
:10564700E92407F9E43AFA12000EEF2401F54DE4D4
:105657003EF54C908AC7E493FF7B737D0112953E1C
:10566700900CEA123F3B00015F90E4FFFEFDFC90C7
:105677000CEA123EF3D3123E0C4017900CEA123E8E
:10568700E774FFFBFAF9F8123CB9900CEA123F2FC6
:0256970080D8B9
:10569900900014E06018754CFF754D74754EC290FA
:1056A900001BE0F54FA3E0F5509000198014754CEC
:1056B900FF754D74754ED0900019E0F54FA3E0F5D4
:1056C90050A3E0F551A3E0F5527B017A0D7902125E
:1056D9006606908AC8E493FF3395E0FE90028D75C3
:1056E900F013EF123FAAEE75F013A42583F5831288
:1056F9003FC6E92407F9E43AFA754CFF754D72750E
:105709004EB0754F0175500D755102126606908A9B
:10571900C8E493FF3395E0FE90028D75F013EF1204
:105729003FAAEE75F013A42583F583123FC6E92439
:1057390007F9E43AFA12000EEF2401F54DE43EF5BB
:0E5749004C908AC7E493FF7B737D0112953E5E
:10575700900CEE123F3B00015F90E4FFFEFDFC90D2
:105767000CEE123EF3D3123E0C4017900CEE123E95
:10577700E774FFFBFAF9F8123CB9900CEE123F2FD1
:0257870080D8C8
:10578900754CFF754D74754EDE90001DE0F54FA305
:10579900E0F550A3E0F551A3E0F5527B017A0D79CC
:1057A90002126606908AC8E493FF3395E0FE9002E0
:1057B9008D75F013EF123FAAEE75F013A42583F54A
:1057C90083123FC6E92407F9E43AFA754CFF754D8F
:1057D90072754EB0754F0175500D755102126606FE
:1057E900908AC8E493FF3395E0FE90028D75F0131B
:1057F900EF123FAAEE75F013A42583F583123FC675
:10580900E92407F9E43AFA12000EEF2401F54DE410
:105819003EF54C908AC7E493FF7B737D0112953E58
:10582900900CF2123F3B00015F90E4FFFEFDFC90FB
:105839000CF2123EF3D3123E0C4017900CF2123EBA
:10584900E774FFFBFAF9F8123CB9900CF2123F2FFA
:0258590080D8F5
:10585B00754CFF754D74754EED900021E0F54FA31F
:10586B00E0F550A3E0F551A3E0F5527B017A0D79F9
:10587B0002126606908AC8E493FF3395E0FE90020D
:10588B008D75F013EF123FAAEE75F013A42583F577
:10589B0083123FC6E92407F9E43AFA754CFF754DBC
:1058AB0072754EB0754F0175500D7551021266062B
:1058BB00908AC8E493FF3395E0FE90028D75F01348
:1058CB00EF123FAAEE75F013A42583F583123FC6A2
:1058DB00E92407F9E43AFA12000EEF2401F54DE43E
:1058EB003EF54C908AC7E493FF7B737D0112953E86
:0A58FB000253A1E49002C0F0A3F0F4
:10590500900CF6123F3B00015F90E4FFFEFDFC901A
:105915000CF6123EF3D3123E0C4017900CF6123ED5
:10592500E774FFFBFAF9F8123CB9900CF6123F2F19
:0259350080D818
:10593700908AC8E493FF3395E0FE90028D75F013CB
:10594700EF123FAAEE75F013A42583F583123FC625
:10595700E92407F9E43AFA754CFF754D72754EB0B4
:10596700754FFF7550747551FC126606908AC8E42E
:1059770093FF3395E0FE90028D75F013EF123FAA67
:10598700EE75F013A42583F583123FC6E92407F9C2
:10599700E43AFA12000EEF2401F54DE43EF54C907F
:1059A7008AC7E493FF7B737D0112953ED2B3C2B6DB
:0C59B700C2B5C2B4E4900004F085428444
:0159C30022C1
:1085AA00858442E4F545F54678E67C0C7D017BFF3F
:0A85BA007A7679D8FE7F08123A6E37
:1085C400900CDA123F3B00015F90E4FFFEFDFC904B
:1085D4000CDA123EF3D3123E0C4017900CDA123E22
:1085E400E774FFFBFAF9F8123CB9900CDA123F2F4A
:0285F40080D82D
:1085F600908AC8E493FF3395E0FE90028D75F013E0
:10860600EF123FAAEE75F013A42583F583123FC639
:10861600E92407F9E43AFA754CFF754D72754EB0C8
:10862600754FFF755075755110126606908AC8E42D
:1086360093FF3395E0FE90028D75F013EF123FAA7B
:10864600EE75F013A42583F583123FC6E92407F9D6
:10865600E43AFA12000EEF2401F54DE43EF54C9093
:0C8666008AC7E493FF7B737D0112953EF0
:10867200900CDE123F3B00015F90E4FFFEFDFC9098
:108682000CDE123EF3D3123E0C4017900CDE123E6B
:10869200E774FFFBFAF9F8123CB9900CDE123F2F97
:0286A20080D87E
:1086A400E49002C0F0A3F090026BE024A0F54490A3
:1086B400026AE03400F54375840F30E819C3900270
