:1000A60053656C65637420447269766572005365A6
:1000B6006C65637420547261636B0053656C656391
:1000C600742056656869636C650053657373696F60
:1000D6006E730056696577204C61707300457261D6
:1000E600736520446174610053657373696F6E2094
:1000F60044657461696C00313020487A00323020E2
:10010600487A00343020487A0053656C6563742061
:1001160052617465005553205374616E6461726454
:10012600004D65747269630053656C656374205590
:100136006E697473004C617074696D6520486F6CEC
:1001460064004772617068205363616C6500547285
:1001560061636B204C656E677468004C6170205358
:10016600657474696E6773002D302E3520746F20A8
:10017600302E3573002D3120746F202B3173002DF6
:100186003220746F202B3273002D3520746F202B94
:100196003573002D313020746F202B3130730053AE
:1001A600686F7274203C31206D692C312E366B6D70
:1001B600004D656420312D356D692C312E362D3874
:1001C6006B6D004C6F6E6720352B206D692C382BBC
:1001D600206B6D00447269766572005665686963C6
:1001E6006C6500547261636B0053616D706C696E6F
:1001F60067205261746500457261736520536573AB
:1002060073696F6E73005061636B20536573736916
:100216006F6E7300474D54204F66667365740043D6
:100226006F6E747261737400556E697473004C61FD
:10023600702F5175616C2053657474696E67730015
:10024600466163746F72792044656661756C747378
:100256000053657474696E6773004C617073005166
:1002660075616C696679696E67004175746F637252
:100276006F7373202F2052616C6C79005365676D24
:10028600656E742054696D696E670044726976659F
:10029600005461636820262053706565646F0047CB
:1002A600617567657300472D466F72636573004716
:1002B600732026204C6F636174696F6E00496E70FF
:1002C6007574730044617461204D6F646500475016
:1002D6005320436F6D7061737300475053204C6F0A
:1002E600636174696F6E00436865636B20496E7065
:1002F600757473004F74686572204D6F6465730082
:100306005265636F72642044617461005669657753
:100316002053657373696F6E73004368616E67651A
:100326002053657474696E67730043757272656EE7
:100336007420537461747573004F74686572204637
:1003460065617475726573004D61696E204D656EE9
:100356007500594553004E4F002041726520596F74
:100366007520537572653F0020436C72205374618B
:1003760072742F46696E3F005357204D49534D41C5
:10038600544348002052656C6F6164205357004403
:100396005249564520534146454C59002020445564
:1003A6002073772025642E253032642064617461C1
:1003B60020256400202053552073772025642E25A0
:1003C6003032642064617461202564002A2053550C
:1003D600204E4F5420434F4E4E4543544544202A09
:1003E600005468697320756E69742062656C6F6E5F
:1003F600677320746F004C6F6164696E6700537495
:100406006F72696E670043616E63656C696E670043
:10041600030100FF43757272656E74205374617434
:1004260075730007FF00D9FFCFB804FF00E3FFF3A1
:10043600B206FF00EEFF837A000000000000000213
:10044600FF00FDFFFAD402FF0103FFFAD402FF0109
:1004560009FFFAD40000000000000002FF011BFFA4
:10046600FB0702FF0127FFFB07000000000000005A
:1004760007FF013BFFF4BB06FF0148FFF73C06FF01
:100486000154FFFC1F0000000000000002FF016E87
:10049600FFFB6902FF017BFFFB6902FF0185FFFB92
:1004A6006902FF018FFFFB6902FF0199FFFB6900EB
:1004B60000000000000002FF01A5FFFBC702FF01CC
:1004C600B7FFFBC702FF01C9FFFBC7000000000022
:1004D600000006FF01DAFFC94906FF01E1FFC78EEA
:1004E60006FF01E9FFC5C006FF01EFFFEF5C04FF51
:1004F60001FDFFFA6A06FF020CFFFD2507FF021A3F
:10050600FFF40B07FF0225FFF2FE06FF022EFFFC9B
:100516009B01FF02340103BD04FF0246FFFB3900C5
:1005260000000000000007FF0260FF594007FF02BD
:1005360065FF594007FF0270FF594007FF0282FF1F
:10054600594007FF0291FF594007FF0297FF5940A4
:1005560007FF02A5FF594007FF02ACFF594007FFFE
:1005660002B5FF594007FF02C3FF594000000000D3
:1005760000000007FF02D4FF594007FF02E0FF59C1
:100586004007FF02EDFF5940000000000000000F89
:100596000F0F0FFFFFFFFF0F0F0F0FFFFFFFFFCF25
:1005A600CFCFCFCFFFFFFEFC008FCFCFCFCFCFCFA8
:1005B600CFCFFFFEFEFCFCFEFFFF0F0F0F0F0F0F4E
:1005C6000FFFFFFEF800FFFFFFFF0F0F0FFFFFFFFC
:1005D600FF0F0F0FFFFFFEFC008FCFCFCFCFCFCF88
:1005E600CFCFFFFEFEFC0F0F0F0FFFFFFFFF0F0F1A
:1005F6000F0FFCFEFFFFCFCFCFCFCFCFFFFFFEFC0D
:10060600000000007F7F7FFF000000007F7F7F7F6C
:1006160003070F1F3F7F7B73613F7F7F7B7B7B7B66
:100626007B7B7B7F7F7F7F1F3F7F7F78787B7F7F92
:100636007E7C3F7F7F7F607F7F7F7F0000007F7FA4
:100646007F7F0000007F7F7F7F3F7F7F7B7B7B7B81
:100656007B7B7B7F7F7F7F000000007F7F7F7F002B
:100666000000001F3F3F7F7B7B7B7B7B7B7B7B7917
:1006760078FFFFFFFFFFFFFFFFFFFFFFFFFFFFFF0B
:10068600FFFFFFFFFFFFFFFFFFFFFFFFFFFFFFFF74
:10069600FFFFFFFFFFFFFFFFFFFFFFFFFFFFFFFF64
:1006A600FFFFFFFFFFFFFFFFFFFFFFFFFFFFFFFF54
:1006B600FFFFFFFFFFFFFFFFFFFFFFFFFFFFFFFF44
:1006C600FFFFFFFFFFFFFFFFFFFFFFFFFFFFFFFF34
:1006D600FFFFFFFFFFFFFFFFFFFFFFFFFFFFFFFF24
:1006E600FFFFFFFFFFFFFFFFFFFFFF00000000000F
:1006F60000000000000000000000000000000000F4
:1007060000000000000000000000000000000000E3
:1007160000000000000000000000000000000000D3
:1007260000000000000000000000000000000000C3
:1007360000000000000000000000000000000000B3
:1007460000000000000000000000000000000000A3
:100756000000000000000000000000000000000093
:100766000000000000FF0000000000000000000084
:1007760000000000C30000000000000000000000B0
:10078600000000E70000000000000000000000007C
:100796000000C30000000000000000000000000090
:1007A6000055AA0000000000000000000000000044
:1007B60000C3000000000000000000000000000070
:1007C600E70000000000000000000000000000C379
:1007D6000000000000000000000000000000FF0014
:1007E600406070787C7E7C7870604000000000007D
:1007F60000000000000000000000000000000000F3
:1008060000000000000000000000000000000000E2
:1008160000000000000000000000000000000000D2
:1008260000000000000000000000000000000000C2
:1008360000000000000000000000000000000000B2
:1008460000000000000000000000000000000000A2
:100856000000000000000000000002060E1E3E7EA2
:100866003E1E0E0602000000000000000000000010
:100876000000000000000000000000000000000072
:100886000000000000000000000000000000000062
:100896000000000000000000000000000000000052
:1008A6000000000000000000000000000000000042
:1008B6000000000000000000000000000000000032
:1008C6000000000000000000000000000000000022
:1008D60000000000060606060606060606060600D0
:1008E6000000000000000000000000000000000002
:1008F60000000000000000000000000000000000F2
:1009060000000000000000000000000000000000E1
:1009160000000000000000000000000000000000D1
:1009260000000000000000000000000000000000C1
:1009360000000000000000000000000000000000B1
:1009460000000000000000000000000000006060E1
:100956006060606060606060600000000000000031
:100966000000000000000000000000000000000081
:100976000000000000000000000000000000000071
:100986000000000000000000000000000000000061
:100996000000000000000000000000000000000051
:1009A6000000000000000000000000000000000041
:1009B6000000000000000000000000000000000031
:1009C60000000000000000006666666666666666F1
:1009D60066666600000000000000000000000000DF
:1009E6000000000000000000000000000000000001
:1009F60000000000000000000000000000000000F1
:100A060000000000000000000000000000000000E0
:100A160000000000000000000000000000000000D0
:100A260000000000000000000000000000000000C0
:100A360000000000000000000000000000000000B0
:100A460000FFFF000081C3E7FF000081C3E7FFFF4F
:100A5600FFFFFFFFFFFFFFFFFFFFFFFFFFFFFFFFA0
:100A6600FFFFFFFFFFFFFFFFFFFFFFFFFFFFFFFF90
:100A7600FFFFFFFFFFFFFFFFFFFFFFFFFFFFFFFF80
:100A8600FFFFFFFFFFFFFFFFFFFFFFFFFFFFFFFF70
:100A9600FFFFFFFFFFFFFFFFFFFFFFFFFFFFFFFF60
:100AA600FFFFFFFFFFFFFFFFFFFFFFFFFFFFFFFF50
:100AB600FFFFFFFFFFFFFFFFFFFFFF28142814289B
:100AC600142814281428142814281428142800007C
:100AD6000000000000000000000000000000000010
:100AE6000000000000000000000000000000000000
:100AF60000000000000000000000000000000000F0
:100B060000000000000000000000000000000000DF
:100B160000000000000000000000000000000000CF
:100B2600000028142814281428142814281428141B
:100B360028142814283E7F6363637F7E60607E7F6F
:100B46006363637F3E3C19436343193C60603C1911
:100B5600436343193C3E7F7F7F7F7F7E60607E7F5D
:100B66007F7F7F7F3E000000000000000000000045
:100B760000008080808080C06030180C18B0E04093
:100B8600000000000000000000000000000000005F
:100B9600000000000000000080C0C080000080C08F
:100BA600C0C0C0800080C0C0C0C08000C0C00000FF
:100BB600C0C000C0C0C0C000C0C0C0C0C08000C0AF
:100BC600C0C0C000C0C08000C0C00080C0C0C0C0DF
:100BD600C00000000000000000000000000000004F
:100BE600000000000000000080FCFE57AB55AB552E
:100BF600AB55ABFEFC060341404080808080800000
:100C060000000000000000000000000000000000DE
:100C160000FFFF1919FFFF007FFFC0C0E161007FE1
:100C2600FFC0F0FFFF007FFFC0C0FF7F00C0FFFFD7
:100C3600C000FFFF3C7CEFC700C0FFFFC000FFFF06
:100C46000F7CFFFF007FFFC0CCFC7C000000000093
:100C56000000000000000000000000000000081C6A
:100C66003663C160311B0E070607060723212040A5
:100C76004044444488888888081111111121222291
:100C8600424444000000000000F0F81898B8B00094
:100C9600F8F89898F8F000F0F89898B83000000046
:100CA6000000F0F89898B8300018F8F81800F0F836
:100CB6001898B8B000F8F8F080F8F800E0F0383886
:100CC600F0E000F8F800000000000000000000005E
:100CD600000000000000000000000000000000000E
:100CE60000000000000000000000000000000000FE
:100CF60000000101010101020202040404000000D7
:100D06000000000F1F18191F0F001F1F010101000F
:100D1600000C1D19191F0F00000000000C1D1919E9
:100D26001F0F00181F1F18000F1F18191F0F001F75
:100D36001F010F1F1F001F1F03031F1F001F1F1868
:100D46001818180000000000000000000000FCFC5D
:100D56000000000000F8FC0C0CFCF800F8FC0C0C81
:100D6600FCF800FCFCF0B81C0C000CFCFC0C00FCB5
:100D7600FC78E0FCFC00F8FC0CCCDCD800000000A1
:100D86000000000000000000000000E0F090D8C85D
:100D9600ACA49692CA4A7E3E3090905048282824A9
:100DA60024242424242444A4140C0404885020203D
:100DB600202020202020202040C04080000000006D
:100DC6000000008040201000E7E76666666600C304
:100DD600E76666E7C300E3E76666E7C30007070161
:100DE600C3E76660E6C7076660E7E760630787C034
:100DF600E3E7C68607E3E06060E0C0006060E0E02D
:100E0600606000000000E0BE0203C3E1713034768A
:100E1600E6C53554949494949494949494949494A8
:100E26001414010202C1E474343474E4C8081828A6
:100E360090783C1E0D8640203078FCFEFFFFFE7C3D
:100E460038003F3F06060600001F3F30303F1F00B8
:100E56003F3F061E3B3100000000193B33363E1C67
:100E66000000003F3F0000003F3F0C0C3F3F003FAB
:100E76003F061E3B310000003F3F0000000000001F
:100E86000001010103070E0C0C0E07030202020209
:100E9600020202020202020202020202020202012D
:100EA600070E0C0C0E07038242E1F0F8FCFEF9F087
:100EB600E04060F0F8FDFFFDF8F060000000000083
:100EC600000000000000000000000000000000001C
:100ED600000000000000000000000000000000000C
:100EE60000000000000000000000000000000000FC
:100EF60000000000000000000000000000000000EC
:100F060000000000000000000000000000000000DB
:100F160000000000000000000080C0E0F0F8F4E2ED
:100F2600C18080C0E1F3FFFFF3E1C0804020110BD8
:100F3600070301000000000000F0F03030F0E00090
:100F4600F0F03030F0E000F0F03030303000E0F01B
:100F56003030706000E0F03030706000000000F863
:100F66000404E4F43434746404F4F434343404F4DB
:100F7600F404040404F4F434343404E4F43434742B
:100F860064043434F4F434340404F800000000C07B
:100F9600E07070E0C0003030F0F03030000000004B
:100FA600000000000000000000000080402010004B
:100FB6000000003F3F03030301003F3F0F1F3B318B
:100FC600003F3F3333333000193B33333F1E0019A4
:100FD6003B33333F1E000000007F808099BBB3B3D4
:100FE600BF9E80BFBFB3B3B080BFBFB0B0B080BF3D
:100FF600BFB3B3B0809FBFB0B0B898808080BFBF8A
:10100600808080807F000000003F3F06063F3F0053
:1010160000003F3F0000000000000000008040206C
:101026003078FCFEFFFFFE7C3800000000F0F898E8
:1010360098B830001818F8F8181800E0F03838F0AA
:10104600E000F8F89898F8F0001818F8F818180062
:1010560000000080E078180000F8F89898981800CA
:1010660018F8F81800F8F8F080F8F80018F8F818EA
:1010760000F0F89898B83000F8F88080F8F800008A
:1010860000000000000000000000000000000080DA
:1010960040E0F0F8FCFEF9F0E04060F0F8FDFFFDFE
:1010A600F8F060000000000C1D19191F0F00000069
:1010B6001F1F0000001F1F03031F1F001F1F070F16
:1010C6001D180000001F1F00000000181E07010069
:1010D6000000001F1F0101010000181F1F18001F3C
:1010E6001F010F1F1F00181F1F18000C1D19191FA5
:1010F6000F001F1F01011F1F00000000000000005D
:101106000080C0E0F0F8F4E2C18080C0E1F3FFFFA8
:10111600F3E1C0804020110B07030100000000002E
:101126000000008060101010101010101010101029
:1011360010F000000000000000F070C00000000089
:1011460000000000000000000000000080C0C0E0B9
:10115600E0F0F07878787C7CFCFCFC7C7CFCFC7C09
:101166007CFCFC7C7C7C7878F0F0E0E0C0C0800001
:10117600000000000000F010101050501010101069
:101186001010101010F000000000000000E020A079
:101196006040603808F8000080C060384F010002E7
:1011A6000300000000000000000018438478C0809F
:1011B60000C0601F00FF000000000000000000806B
:1011C600E0F8FCFEFFFFFFFFFFFFFFFFFFC0C0DBF5
:1011D600DBC0E4FFFFFCF8C3C3F8FCFFFFC0C0DBC5
:1011E600DBDFFFFFFFFFFFFFFFFFFEFCF8F0E08005
:1011F6007F0087C0000000000000000000010CF323
:1012060086FC0000000000FFF700000000003E0121
:10121600FF111412131010101010101010101010CF
:10122600909090101010101312151110101010132A
:101236001214141C181010101E1F1F9FDFFF7F3F73
:101246001F1F1F1F1F1F1FDF23B9A535B5A5392176
:101256002121212139A5B535A5B923DF1F1F1F1F60
:101266001F1F1F3F7FFFDF9F171118141710101045
:101276009090901010101010101015131F1E1010C3
:101286001C1310101010101010101F00003040001A
:1012960040000000000000000705010302030000F3
:1012A6000000000000000000000000000080C0E018
:1012B60070381C0E0703010000000000000000004B
:1012C6007F7870717130111110363636363610113E
:1012D6001130717170787F0000000000000000007E
:1012E6000103070E1C3870E0C181000001000020D8
:1012F6001038280830000000000000000000000040
:101306000000000000FFFFFFFFFFFFFFFF000000DF
:101316001C1C1C000000FFFFFFFFFFFFFFFF00007B
:1013260000FFFFFFFFFFFFFFFF0000001C1C1C006B
:101336000000FFFFFFFFFFFFFFFF000000FFFFFFB2
:10134600FFFFFFFFFF000000000000000000FFFF9E
:10135600FFFFFFFFFFFF3F3F3F3F3F3F3FFF0000D5
:10136600001C1C1C0000003F3F3F3F3F3F3F3F002B
:1013760000003F3F3F3F3F3F3F3F0000001C1C1C1B
:101386000000003F3F3F3F3F3F3F3F0000003F3FE1
:101396003F3F3F3F3F3F0000001C1C1C0000003F3A
:1013A6003F3F3F3F3F3F3F0000000000000000007E
:1013B600000000000000000000000000F0F0F0F067
:1013C600F0F0F0F0000000C0C0C0000000F0F0F047
:1013D600F0F0F0F0F0000000F0F0F0F0F0F0F0F0D7
:1013E600000000C0C0C0000000F0F0F0F0F0F0F027
:1013F600F0000000F0F0F0F0F0F0F0F00000000077
:101406000000000000F0F0F0F0F0F0F0F000000056
:1014160000000000000000000000000000000000C6
:1014260000000000000000000000000000000000B6
:10143600000000000000FFFFFFFFFFFFFFFF0000AE
:1014460000C1C1C1000000FFFFFFFFFFFFFFFF005B
:101456000000FFFFFFFFFFFFFFFF000000C1C1C14B
:10146600000000FFFFFFFFFFFFFFFF000000FFFF80
:10147600FFFFFFFFFFFF000000C0C0C0000000FF2D
:10148600FFFFFFFFFFFFFF0000000000000000005D
:101496000000000000000000000000C04040404086
:1014A60040404040404040404040C04040404040B6
:1014B600434343434343434340C04041414140408B
:1014C6004043434343434343C34040404343434372
:1014D60043434343404040C141414040404343436E
:1014E60043434343434040C043434343434343434F
:1014F600404040414141C04040434343434343434E
:101506004340404040C04040404040404040404052
:1015160040404040C0FF8080808080808080808006
:1015260080808080E1808080808080808080808054
:10153600808080F380808080808080808080808032
:101546008080E18080808080808080808080808034
:1015560080AAD58080808080808080808080808006
:1015660080E1808080808080808080808080808014
:10157600F38080808080808080808080808080E191
:101586008080808080808080808080808080FF0056
:101596000000F0F03030F0E000F0F030303000C005
:1015A600E07070E0C000F0F03030F0E000F0F000E5
:1015B60000F0F0000000003030F0F0303000E0F0D5
:1015C6003030F0E0000000000000808080800000E5
:1015D60000000000000000C0201008060100000006
:1015E6000000000000009F00000000000000000155
:1015F60006081020C00000000000000000008080E7
:101606008080000000000000000000003F3F071F30
:101616003B31003F3F333330003F3F06063F3F003C
:101626003F3F30303F1F0001033F3F0301000000F2
:101636000000003F3F0000001F3F30303F1F00000A
:101646000080F0FE0F01010FFEF0800020100C025A
:1016560001000000C02010D0D01020C00000000003
:101666003F000000C02010D0D01020C000000001B4
:10167600020C10200080F0FE0F01010FFEF080002A
:101686000000000000000000F8F80000000000E084
:10169600F03838F0E000F8F80000F8F800F8F8F054
:1016A60080F8F800F0F81818383000F8F88080F85C
:1016B600F80000000000003078F8FCFFE7C0C0C06A
:1016C600C0C0C0E7FFFCF878300000F80E03037BCB
:1016D6007B7B037B7B7B03838383838383037B7B8C
:1016E6007B037B7B7B03030EF800003078F8FCFF5E
:1016F600E7C0C0C0C0C0C0E7FFFCF87830000000FB
:1017060000001F1F18181818001F1F03031F1F00B3
:101716000F1F18181F0F001F1F010F1F1F000F1F7D
:1017260018181C0C001F1F01011F1F0000000000DD
:10173600000000000103030707070707070303016B
:1017460000000000003F3E3C3C3C3C3C1C040404C2
:101756000C0D0D0D0D0D0D0C0404041C3C3C3C3C05
:101766003C3E3F0000000000010303070707070790
:101776000703030100000000000000F00808C8E8A5
:101786006868E8C808E8E868686808E8E8080808D3
:1017960008E8E868686808C8E86868E8C808686823
:1017A600E8E868680808F000000000000000000093
:1017B60080F03C06063CF0800000000000000000BF
:1017C6000000000000000000000000000000000013
:1017D6000000000000000000000000000000000003
:1017E6000000000080F03C06063CF080000000008F
:1017F6000000000000FF0000337766667E3C007F35
:101806007F666660007F7F606060007F7F666660DF
:10181600003F7F606070300000007F7F00000000A6
:10182600FF0000000002020002070F0E1C1C1C1C19
:101836000E0F07020000020202020202028040208E
:10184600A2A2224282020200000002020282422278
:10185600A2A02040820202020202000002070F0E2E
:101866001C1C1C1C0E0F07020002020000000030A8
:1018760031F1F1313101E1F13131F1E101010101E2
:1018860001E1F131317161013131F1F1313101E1C2
:10189600F13131F1E101E1F13131706000F0F03008
:1018A60030300000000000000000000000000000D2
:1018B60000000000F01C0607F6F6F707F6F6F70636
:1018C60006060606060606F7F6F607F7F6F607060E
:1018D6001CF00000000000000000000000000000F6
:1018E60000000000000000000000003F3F00000074
:1018F6001F3F30303F1F0000000000193B33333FCD
:101906001E0000003F3F0000003F3F06063F3F002D
:101916001F3F30363E1E003F3F333330000000008D
:1019260000000000000000000000000000007F7CB6
:10193600787878787838080808181B1B1B1B1B1B3F
:10194600180808083878787878787C7F00000000D6
:10195600000000000000000000000000000000F889
:10196600FC1E0F070303030303030303030303031D
:101976000303030303030303030303030303030331
:101986000303030303030303030303030303030321
:101996000303030303030303030303030303030311
:1019A6000303030303030303030303030303030301
:1019B60003030303030303030303030303030303F1
:1019C60003030303030303030303030303030303E1
:1019D60003030303070F1EFCF8FFFF0000000000CF
:1019E60000000000000000000000000000000000F1
:1019F60000000000000000000000000000000000E1
:101A060000000000000000000000000000000000D0
:101A160000000000000000000000000000000000C0
:101A260000000000000000000000000000000000B0
:101A360000000000000000000000000000000000A0
:101A46000000000000000000000000000000000090
:101A560000FFFFFFFF000000000000000000000084
:101A66000000000000000000000000000000000070
:101A76000000000000000000000000000000000060
:101A86000000000000000000000000000000000050
:101A96000000000000000000000000000000000040
:101AA60000000000000000000000000000008000B0
:101AB600008000C0404040800000804080000080E0
:101AC6004040408000C00000804000FFFF1F3F787C
:101AD600F0E0C0C0C0C0C0C0C0C0C0C0C0C0C0C0B0
:101AE600C0C0C0C0C0C0C0C0C0C0C0C0C0C0C0C0F0
:101AF600C0C0C0C0C0C0C0C0C0C0C0C0C0C0C0C0E0
:101B0600C0C0C0C0C0C0C0C0C0C0C0C0C0C0C0C0CF
:101B1600C0C0C0C0C0C0C0C0C0C0C0C0C0C0C0C0BF
:101B2600C0C0C0C0C0C0C2C5C8C2C5C8C0DFD2D24E
:101B3600D2CDC0DFC4C4C4DFC0CFD0D0D0C8C0DFD0
:101B4600C2C5C8D0C0FFFF000000000000005F0053
:101B560000000E000E00247E247E24242A7F2A12F2
:101B6600261608343236495926500000000E003E2B
:101B760041410000000041413E2A1C3E1C2A080843
:101B86003E08080000004030080808080800000069
:101B9600400020100804023E4549513E00427F4065
:101BA60000724949494622494949361814127F109C
:101BB6002F494949313E49494932017109050336E0
:101BC60049494936264949493E0000363600000053
:101BD6002636000018244200001414140000422483
:101BE600180002015109063E415D553E7C12111254
:101BF6007C7F494949363E414141227F4141413E30
:101C06007F494949417F090909013E4149493A7FCE
:101C16000808087F00417F41002040413F017F08BE
:101C26001422417F404040407F027C027F7F020CAD
:101C3600307F3E4141413E7F090909063E415161DF
:101C46007E7F09192946264949493201017F01014A
:101C56003F4040403F1F2040201F3F403E403F4105
:101C6600221C2241010678060161514945437F4104
:101C76004100000204081020000041417F301C078B
:101C86001C3040404040400102040000345454548B
:101C9600787F444444383844444448384444447F74
:101CA6003854545458087E090902185454543C7F39
:101CB6000808087000047D40002040443D007F1065
:101CC600384400007F4000007C047C04787C0404D7
:101CD600047838444444387E1212120C18242464C2
:101CE600587C040404084854545424043F444424AF
:101CF6003C4040403C0C3040300C3C4038403C447A
:101D060028102844004C50503C645454544C083E0F
:101D160041410000007F00000041413E08040202EC
:101D260004020000000000000000000000000000A7
:101D36000000000000FFFF00000000000033330039
:101D4600000000001E1E001E1E0000000000000015
:101D5600000030FEFE3030FEFE30031F1F03031F5F
:101D66001F0378FCCCFFFFCCCC8C0C0C0C3F3F0C3B
:101D76000F070E1F1BDFFE7C1F07303C0F1F3F3671
:101D86003E1C1CBEF7E3F73E9C800F1F39391F0F20
:101D96003F3B000006C6FE7C00000000000000007D
:101DA60000000000FCFE0703000000000F1F383093
:101DB600000000000307FEFC0000000030381F0F83
:101DC6000000CEDEF0FEFEF0DECE1C1E031F1F035B
:101DD6001E1CC0C0C0FCFCC0C0C00000000F0F002D
:101DE60000000000000000000000000000002C1CA5
:101DF600000000C0C0C0C0C0C0000000000000005D
:101E0600000000000000000000000000303000006C
:101E16000000000000C0F03C0F03303C0F03000040
:101E26000000F8FE07030307FEF8071F38303038B6
:101E36001F0700181C0EFFFF0000000030303F3F58
:101E460030300C0E0783C3E77E3C3C3E37333130DF
:101E560030300C0EC7C3C3E7FE3C0C1C383030399B
:101E66001F0F00C0F03C0FFFFF0007070606063FE6
:101E76003F06FFFF636363E3C380183830303038B2
:101E86001F0FFCFEC76363E7C6800F1F383030386C
:101E96001F0F030303C3F37F1F07303C1F07010017
:101EA60000003CFEE7C3C3E7FE3C0F1F3930303964
:101EB6001F0F7CFEC78383C7FEFC183831313138CB
:101EC6001F0F000000303000000000000003030078
:101ED600000000008E8E8E0000000000110F07002B
:101EE600000080C0E070381C0C00000103070E1CC7
:101EF6001800303030303030303003030303030332
:101F06000303000C1C3870E0C08000181C0E070389
:101F160001001C1E0686C6FE7C0000003737010045
:101F26000000FEFF03F3FB1BFFFE1F3F3033373677
:101F36003733F8FC0E07070EFCF83F3F0303030395
:101F46003F3FFFFFC3C3C3E7FE9C3F3F30303038FF
:101F56001F0FFCFE070303070E0C0F1F3830303827
:101F66001C0CFFFF03030307FEFC3F3F30303038F5
:101F76001F0FFFFFC3C3C3C3C3033F3F303030301F
:101F86003030FFFF6363636303033F3F00000000DD
:101F96000000FCFE070383878E8C0F1F383031311B
:101FA6003F1FFFFFC0C0C0C0FFFF3F3F0000000053
:101FB6003F3F000303FFFF0303000030303F3F3085
:101FC600300000000303FFFF03031C3C30303F1FBB
:101FD6000000FFFFF0381C0E07033F3F03070E1CEF
:101FE6003830FFFF0000000000003F3F3030303047
:101FF6003030FEFF3EF8F83EFFFE3F3F003F3F0019
:102006003F3FFFFF3CF0C000FFFF3F3F0000030FD4
:102016003F3FFCFE07030307FEFC0F1F3830303836
:102026001F0FFFFF838383C7FE7C3F3F0101010132
:102036000000FCFE07030307FEFC0F1F38363E1C9C
:102046003F37FFFF838383C7FE7C3F3F03070F1D98
:1020560038303C7EE7C3C3C78E0C0C1C3830303991
:102066001F0F030303FFFF0303030000003F3F00AE
:102076000000FFFF00000000FFFF0F1F3830303860
:102086001F0FFFFF80000080FFFF00030F3C3C0F87
:102096000300FFFF00FFFF00FFFF0F3F3F07073F63
:1020A6003F0F071F3CF0F03C1F07383E0F03030F9E
:1020B6003E380F7FF8C0C0F87F0F0000013F3F0198
:1020C6000000030383E3FB3F0F07383E3F33303006
:1020D60030300000FFFF0303000000003F3F3030B8
:1020E6000000030F3CF0C000000000000000030FDA
:1020F6003C3000000303FFFF0000000030303F3F8C
:10210600000080C0E07070E0C080030100000000A5
:102116000103000000000000000030303030303095
:102126003030000003070E1C1800000000000000FD
:102136000000607030303030F0E01E3F3333333310
:102146003F3FFFFF70303070E0C03F1F38303038FF
:102156001F0FC0E070303070E0C00F1F38303038CD
:102166001C0CC0E070303070FFFF0F1F3830301885
:102176003F3FC0E070303070E0C00F1F3B33333359
:102186003B1B0060FEFF6363030000003F3F00004F
:102196000000E0F030303030F0E0193B3333333BB1
:1021A6001F0FFFFF70303070E0C03F3F000000009F
:1021B6003F3F000060ECEC0000000000003F3F00E5
:1021C600000000000060ECEC0000183830303F1FC3
:1021D6000000FFFFC0E0703818003F3F03070E1CE9
:1021E6003830000000FFFF0000000000001F3F30F5
:1021F6000000F0E070F0E070F0E03F3F003F3F008D
:102206003F3FF0E070303070E0C03F3F000000001C
:102216003F3FC0E070303070E0C00F1F38303038BC
:102226001F0FF0F030303030F0E03F3F0303030380
:102236000301E0F030303030F0F001030303030314
:102246003F3FF0F0E0703070E0C03F3F000000001C
:102256000000E0F0303030307060193B33333333F8
:102266003F1E6060FEFE6060600000001F3F303071
:102276003000F0F000000000F0F00F1F383030188A
:102286003F3F70F0C00000C0F07000030F3C3C0FF1
:102296000300F0F000C0C000F0F00F3F381F1F38F9
:1022A6003F0F60E0C08080C0E06030381D0F0F1D1A
:1022B6003830F0F080000080F0F0183933333339CD
:1022C6001F0F30303030B0F0F070383C3E373331CD
:1022D600303000C0FE3F0303000000001F3F3030D7
:1022E6000000000000FEFE0000000000001F1F00AE
:1022F6000000000003033FFEC000000030303F1F17
:10230600000080C06060C0C06020000000000000C7
:1023160000007EFFC3C3FF7E00C6FFFFC000E6F3DA
:10232600FBDBDFCE66E7C3DBFF763C3E33FFFF30E9
:10233600DFDFDBDBFB737EFFDBDBFB700003E3FB36
:102346003F0F66FFDBDBFF66CEDFDBDBFF7EC0C059
:102356000000FEFF0303FFFE010303030301000663
:10236600FFFF000000030303030086C7E3733F1E5D
:1023760003030303030386873333FFCE01030303FB
:102386000301F0FCCFFFFFC0000000030300BFBF46
:102396003333F3E3010303030301FEFF3333F7E6AD
:1023A6000103030303010383E3FB3F0F0003030061
:1023B6000000CEFF3333FFCE0103030303019EBFAC
:1023C6003333FFFE010303030301FFFF0000000098
:1023D60003030303030300000000000000000000E5
:1023E60000001818181818181818181818FFFF18C9
:1023F6001818FF1F1F1F1FE1E1E1E1FF03020202A0
:1024060002030303030300000000000000000000B5
:1024160000000000000000000000000000000000B6
:1024260000000000000000000000000000000000A6
:102436000000000000000000000000000000000096
:102446000000000000000000000000000000000086
:102456000000000000000000000000000000000076
:102466000000C0C1C1810140C30103C00280C24156
:10247600C60106C00780C7410500C5C1C481044026
:10248600CC010CC00D80CD410F00CFC1CE810E40D6
:102496000A00CAC1CB810B40C90109C00880C841E6
:1024A600D80118C01980D9411B00DBC1DA811A4056
:1024B6001E00DEC1DF811F40DD011DC01C80DC4126
:1024C6001400D4C1D5811540D70117C01680D64156
:1024D600D20112C01380D3411100D1C1D081104066
:1024E600F00130C03180F1413300F3C1F281324056
:1024F6003600F6C1F7813740F50135C03480F44126
:102506003C00FCC1FD813D40FF013FC03E80FE41D5
:10251600FA013AC03B80FB413900F9C1F8813840E5
:102526002800E8C1E9812940EB012BC02A80EA4155
:10253600EE012EC02F80EF412D00EDC1EC812C4025
:10254600E40124C02580E5412700E7C1E681264055
:102556002200E2C1E3812340E10121C02080E04165
:10256600A00160C06180A1416300A3C1A281624055
:102576006600A6C1A7816740A50165C06480A44125
:102586006C00ACC1AD816D40AF016FC06E80AE41D5
:10259600AA016AC06B80AB416900A9C1A8816840E5
:1025A6007800B8C1B9817940BB017BC07A80BA4155
:1025B600BE017EC07F80BF417D00BDC1BC817C4025
:1025C600B40174C07580B5417700B7C1B681764055
:1025D6007200B2C1B3817340B10171C07080B04165
:1025E600500090C191815140930153C05280924155
:1025F600960156C057809741550095C19481544025
:102606009C015CC05D809D415F009FC19E815E40D4
:102616005A009AC19B815B40990159C058809841E4
:10262600880148C0498089414B008BC18A814A4054
:102636004E008EC18F814F408D014DC04C808C4124
:10264600440084C185814540870147C04680864154
:10265600820142C043808341410081C18081404064
:10B7980043150A0000004E051400000000000000D8
:10B7A8000000000000000042041A0000420194005A
:10B7B800004204C500A04215A10000411435FE5501
:10B7C800144100000000000000000000000000001C
:10B7D800000000000000004204CA0000420192007C
:10B7E800004214330000420492000041000E004160
:10B7F80015B4004204C8000041019D0047141D0013
:10B8080000000000000043141A000000410000037B
:10B8180041069C0041069D00411593144104C70050
:10B828004106BA0144016FFFFFFFFF44018EFFFF8D
:10B83800FFFF420134FFFF420136FFFF4D0001FFC9
:10B8480000A60103B0000000000114704D000FFFB6
:10B8580000B40103B0000000000114704D06ADFFF4
:10B8680000C10103B0000000000114704D15B5FFC0
:10B8780000D001140D000000000114704B14365361
:10B88800657373696F6E202323004D1463011436AA
:10B898000104B8000000000103CA4D04B8011436C1
:10B8A8000115B500000000FF04294D069EFF010F99
:10B8B8000103B000000000FF04454D0173FF012E95
:10B8C8000103B000000000FF04614D03BDFF0161EA
:10B8D8000103B000000000FF04764D1594FF0148F5
:10B8E8000103BD00000000FF04924D040DFF015448
:10B8F8000103BD00000000FF04BC4D03B0FF025768
:10B9080001140D00000000FF04D84D1456FF02CAB0
:10B9180001140D00000000FF052C4D0162FF02FA22
:10B9280001140D00000000FF0579602A013801FFAD
:10B93800030601145606FF0312FF000301FF03204C
:10B948000103B006FF0330FF8CDF01FF033F010155
:10B9580062000000000000004D140DFF034E0114AA
:10B968000D0000000001013855001E06FF035800B5
:10B97800000001FF035C0000000000000000000060
:10B988005515C207FF0358FFAB6007FF035CFFF1C3
:10B998007F000000000000004D15A3FF035F0000BA
:10B9A800000000000001001E4D1424FF036E00007B
:10B9B80000000000000115C24701960100000001C7
:10B9C80014244D0181000000000000000000FF0168
:02B9D8000196D6
:10755F00E49017FCF090181A04F075840F75FFDE95
:10756F0075FFAD12F46412EB0DE49004A7F09004D4
:10757F0095F0900494F09004A604F0E49004A8F021
:10758F00A3F0900496F0A3F09004B1F090049FF054
:10759F009004B0744EF090049EF07B007A00790056
:1075AF009004AD1257439004AA12574390049B12B4
:1075BF0057439004981257430B7A0679BB9004A354
:1075CF001257437A0A79F59004B51257437A0F7917
:1075DF00CF9004A01257437A1179EC9004B212574E
:1075EF00437A0479947F007E847D037C0012BC1063
:1075FF007B017A0479A67F007E847D037C0012BC18
:10760F00107F007E9612FC4A12FDAB75280175297A
:10761F0014752A097B017A14793112DE8D12D12A61
:10762F00126529D2AF12E1F843F840E4FF12EC19CA
:10763F00E5D830E02175610075620F7563FF7564E1
:10764F000575659575662D7B717A007D097C007FC8
:0B765F00037E0012A5FAE5D830E032EF
:10766A009017E71256DB0005265CE4FFFEFDFC904E
:10767A0017E71256B3D312562040179017E712563F
:10768A009774FFFBFAF9F81254DA9017E71256CFFB
:02769A0080D896
:10769C00E49017FDF0A3F0900418E493FF3395E009
:1076AC00FE9004A075F012EF12570CEE75F012A4B8
:1076BC002583F58312573A900007E4125308755B43
:1076CC0000755C017B917D027F0312BE3490150B1B
:0E76DC00E070FA90049812573AE94A4B603178
:1076EA0090049812573A8B228A23892490069C7414
:1076FA0001F07B007A007900900498125743AB227C
:10770A00AA23A924E4FF1226669017FFEEF0A3EF3E
:01771A00F07E
:10771B0090069CE0701E9017FDE475F0011253C7A4
:10772B00C39017FEE094039017FDE06480948050A3
:10773B00030276A390069CE0604B755B00755C01C1
:10774B007B707D027F0312BE3490150BE070FA90B4
:0A775B00049812573AE94A4B602BDC
:1077650090049812573A8B228A2389247B007A0049
:107775007900900498125743AB22AA23A924E4FF69
:0B7785001226669017FFEEF0A3EFF055
:10779000901576E0FFA3E0901801CFF0A3EFF090F2
:1077A0001578E0FFA3E0901803CFF0A3EFF0E5D841
:0377B00030E03294
:1077B3009017EB1256DB000A4CB8E4FFFEFDFC9079
:1077C30017EB1256B3D312562040179017EB1256ED
:1077D3009774FFFBFAF9F81254DA9017EB1256CFAD
:0277E30080D84C
:1077E500E4FF12EC1990069CE0FF12A8B3EF70526B
:1077F5007BFF7A03797EF55675572DFF12DF737B74
:10780500FF7A03798AE4F55675572D7F0212DF73E7
:107815009017EF1256DB00225510E4FFFEFDFC9099
:1078250017EF1256B3D312562040179017EF125682
:107835009774FFFBFAF9F81254DA9017EF1256CF46
:0278450080D8E9
:10784700E4FF12EC197BFF7A037995E4F556755737
:107857002DFF12DF737564FF7565037566A2756783
:1078670000756802756900756A0A756B00756C08A2
:107877007B017A1879051288CC7B017A187905E49F
:10788700F54075412D7F0212DDA790069CE0604709
:107897007564FF7565037566BA901801E0FAA3E091
:1078A700FB7C007D64FFAE0212533C8E678F687CC1
:1078B700007D64AF03AE0212533C8C698D6AA3E06E
:1078C700F56BA3E0F56C7B017A1879051288CC7B00
:1078D700017A18790580067BFF7A0379D2E4F540AF
:0D78E70075412D7F0312DDA7E5D830E0329A
:1078F4009017F31256DB00112A88E4FFFEFDFC907A
:1079040017F31256B3D312562040179017F312569A
:107914009774FFFBFAF9F81254DA9017F31256CF62
:0279240080D809
:10792600E4FF12EC197BFF7A0379E7E4F540754131
:107936002DFF12DDA77B017A15790DE4F54075411F
:107946002D7F0212DDA77B017A157921E4F54075BA
:10795600412D7F0312DDA77B017A01799E756200B6
:107966007563037F107E0212E83090069CE0700378
:10797600027A6F900418E493FF3395E0FE9004A01A
:1079860075F012EF12570CEE75F012A42583F583ED
:1079960012573A900007E41253089004A075F012AB
:1079A600EF12570CEE75F012A42583F58312573AA1
:1079B6009000087403125308E49017FDF0A3F090AA
:1079C60017FDE0FEA3E0FFC39410EE64809482509E
:1079D6004D749E2FF58274013EF583E0FF900418E6
:1079E600E493FD3395E0FC9004A075F012ED125778
:1079F6000CEC75F012A42583F58312573A9017FE06
:107A0600E02409FD9017FDE034008D82F583EF1226
:107A160053089017FDE475F0011253C780A1755BFA
:107A260002755C127B987D027F0312BE3490150BA3
:0E7A3600E070FA90049812573AE94A4B602B20
:107A440090049812573A8B228A2389247B007A0067
:107A54007900900498125743AB22AA23A924E4FF87
:0B7A64001226669017FFEEF0A3EFF073
:107A6F00E49017FDF0A3F09017FDE0FEA3E0FFC335
:107A7F009404EE6480948050347C007D2812532A45
:107A8F00749E2FF974013EFA7B01C001742F2FF9F8
:107A9F00740F3EA801FC7D01D0017E007F28125299
:107AAF00579017FDE475F0011253C780BAE4901791
:107ABF00FDF0A3F09017FDE0FEA3E0FFC39402EEEC
:107ACF006480948050347C007D2412532A74CE2F0E
:107ADF00F974023EFA7B01C00174CC2FF974043E95
:107AEF00A801FC7D01D0017E007F24125257901710
:0F7AFF00FDE475F0011253C780BAE5D830E032CC
:107B0E009017F71256DB000BAC48E4FFFEFDFC901D
:107B1E0017F71256B3D312562040179017F7125676
:107B2E009774FFFBFAF9F81254DA9017F71256CF42
:027B3E0080D8ED
:107B4000E4FF12EC19752801752904752A927B014E
:107B50007A14793312D5687B017A01799E756200B7
:107B60007563017F107E0212E8309001A1E0540F8E
:107B700024FC600C240270109015937414F0800E95
:107B80009015937428F08006901593740AF0900174
:107B9000A2E09004C7F0901409E0FCA3E0FD7F018F
:107BA0007E0012F03A9004C7E030E7034403F0E4AB
:107BB0009017FDF0A3F09017FDE0FEA3E0FFC39443
:107BC00010EE648094825017749E2FF58274013EEB
:107BD000F583E4F09017FD75F0011253C780D7E4E8
:0A7BE000901435F07D03FF126D587C
:107BEA00C3900521E094F0900520E0940040077DC1
:107BFA00067F01126D58E5D830E607E4900520F0BB
:107C0A00A3F0E49017FBF09017FBE0FFC394065033
:107C1A005374017E00A807088005C333CE33CED83B
:107C2A00F9FFADD8EF5D60349017FBE0FD25E02445
:107C3A0014F582E43405F583E0FEA3E0C39409EE6B
:107C4A00940040057F01126D589017FBE025E0244F
:107C5A0014F582E43405F583E4F0A3F09017FBE011
:0F7C6A0004F080A390049812573AE94A4B602B1C
:107C790090049812573A8B228A2389247B007A0030
:107C89007900900498125743AB22AA23A924E4FF50
:0B7C99001226669017FFEEF0A3EFF03C
:0B7CA4009004AA12573AE94A4B602BEB
:107CAF009004AA12573A8B228A2389247B007A00E8
:107CBF0079009004AA125743AB22AA23A9247F016B
:0B7CCF001226669017FFEEF0A3EFF006
:107CDA009015A1E07002A3E07003027BEAE490151C
:107CEA00A1F0A3F090069DE0FFB4F018901435F0CF
:107CFA00E4901433F0A3F090000E74FFF0FB7A03C3
:107D0A0079FC801290069DE0FFB4F115901435F0CD
:107D1A007BFF7A04790412FD04E490069DF0027B4D
:107D2A00EA90069DE0FF64F26003027BEA90143554
:107D3A00EFF07BFF7A04790C12FD04901432E024F0
:107D4A00FBFD901431E034FFFC7B01E4FFFE12E9F5
:077D5A0064E4F58443EF012E
:037D6100027BEAB8
:0300000002E9F51D
:0CE9F500787FE4F6D8FD75818002EA3CD2
:10D8DA002530326420004C49535420454D50545948
:10D8EA00002A004E6F205355004E6F20496E707506
:10D8FA00747300472D466F7263657300496E7075C5
:10D90A007473004D656D2046756C6C002530326469
:10D91A00004D454D2025644B2F25644B2C20256452
:10D92A002525004C4150532025642C205241544552
:10D93A00203130487A004C4150532025642C205223
:10D94A00415445203230487A004C415053202564D6
:10D95A002C2052415445203430487A0054656D7069
:10D96A002025332E32662046005265632054696DA5
:10D97A00653A2025322E316620487273005365734A
:10D98A007320417661696C3A20256400492F4F3A29
:10D99A0020412D2D2D2D20442D2D20462D2D00509A
:10D9AA006F7765723A2025752525004E6F204C61E8
:10D9BA00707300436F6E7420256400474D54202510
:10D9CA002B303264004C6170486F6C6420253364DC
:01D9DA00004C
:03B9DA00011C014C
:10CCA7007B017A187973E4F562F5637F107E0212CF
:10CCB700E830E4901A84F0901A83F0901A83E0FF2A
:10CCC700C39415400302CDD375F019EF9018731272
:10CCD700570CE0FEA3E0F47002EEF4700302CDCA35
:10CCE700901A83E075F01990187512570CE0FEA39F
:10CCF700E0F47002EEF4700302CDCA901A84E07576
:10CD0700F012A42422F9740535F0FA7B017564FF4B
:10CD17007565D87566DA901A83E02401FFE433F568
:10CD2700678F681288CC901A83E075F0199018778E
:10CD370012570C125697C006C007901A83E075F079
:10CD47001990187B12570CE0F557A3E0F558E4F556
:10CD570059901A84E075F012A42425F9740535F06A
:10CD6700755A01F55B895CD007D00612B2CD901ACF
:10CD770084E0FF75F007A42470F582E43414F5838A
:10CD87007406F07BFF7AD979DBEF75F007A424747A
:10CD9700F582E43414F583125743EF75F012A42497
:10CDA70022F9740535F0FA7B01901A84E075F007D3
:10CDB700A42471F582E43414F583125743901A843E
:10CDC700E004F0901A83E004F002CCC2901A84E0E9
:10CDD700FD9015BBF0D394035003E480069015BB78
:10CDE700E024FD9015BEF09015BBE070028002EDC7
:10CDF700149015BDF09015BCF0901A84E0FF75F003
:10CE070007A42470F582E43414F583E4F0FBFAF9FF
:10CE1700EF75F007A42474F582E43414F5831257F0
:10CE270043EF75F007A42471F582E43414F5830207
:02CE370057435F
:106D5800151EA81EA605151EA81EA607E51E24F9C1
:026D6800F51E16
:106D6A00E51C60337B017A14790D901CCB125743D2
:106D7A001B7A007900901CCE125743901CD11257EF
:106D8A0043E4901CD6F0901CD5F0901CD4F0901CD3
:106D9A00D8125743E4F51CE51E2407F8E6147003DD
:106DAA00026F2E046003027558901CCB12573A905A
:106DBA0000061252967048900006125308901CCB97
:106DCA0012573A90000A12576CC003C002C00190D1
:106DDA001CCB12573A90000612529675F007A4F58A
:106DEA008285F083D001D002D003125296601090AF
:106DFA001CCB12573A90000674011252C380BE127D
:106E0A00FD99901CCB12573A900009125296B4FF82
:106E1A000302703BE4FF12EC197561007562087594
:106E2A0063FF75640A7565C175662D7B7A7A00E41D
:106E3A00FDFCFFFE12A5FA901CCB12573A12574CD2
:106E4A0012FD71C374149FFFE49EFE7C007D06123E
:106E5A00532A7D02125391A81EEFF6FD901CCB1205
:106E6A00573A12574C75582DE4FF12E12F901CCB5C
:106E7A0012573A90000A12576C12527DFFB4031946
:106E8A00901CCB12573A900009E41253089000085C
:106E9A00E41253089000078069EF640260030271EC
:106EAA0008901CCB12573A900009125296FF900094
:106EBA0007125296FEC39F4013EF2402FDE433FCEF
:106ECA00EED39DEC6480F87480984055901CCB12E8
:106EDA00573A9000071252969000081253089000F1
:106EEA0006125296FFD39403400F901CCB12573AC6
:106EFA00900008125296FE700C901CCB12573A90D2
:106F0A000009E48019EF24FDFFEE14FEC39F50042C
:106F1A00AF068000901CCB12573A900009EF12532B
:106F2A0008027108E51E2408F8E670030275551474
:106F3A00700302717924FE700302710E1470030249
:106F4A006FE924FE70030274B424046003027558C6
:106F5A0090144712573AE94A4B6012901CCB1257C9
:106F6A003AC003C002C001901447027003901CCBC0
:106F7A0012573A900009125296F4701990000812AA
:106F8A005296D39400500302755890000874FF1269
:106F9A0052C302703B901CCB12573A900006125211
:106FAA00967003027558900008125296FF900009D5
:106FBA00125296FEC39F5008901CCB12573A801467
:106FCA00EED394004016901CCB12573A90000974E5
:106FDA00FF1252C390000874FF1252C30271089044
:106FEA00144D12573AE94A4B6015901CCB12573A86
:106FFA00C003C002C00190144D12573A0273439065
:10700A001CCB12573A900009125296F4704A90001B
:10701A000612529614FF900008125296D39F40030C
:10702A00027558901CCB12573A90000874011252FC
:10703A00C390000812529675F007A4FFAEF09000B4
:10704A000A12576CE92FF9EA3EFA90000112576CBE
:10705A007D2D12E430027558901CCB12573A9000DD
:10706A0006125296FF700302755890000912529642
:10707A00FE900008125296FDC39EC394025046EF3A
:10708A0024FFFFE434FFFEED2401FDE433FCC3EDED
:10709A009FEE6480F8EC648098901CCB500D1257D8
:1070AA003A90000812529604FF800B12573A900049
:1070BA000612529614FF901CCB12573A900008EF12
:1070CA001253088039901CCB12573A900009125279
:1070DA00962403FFE433FE900006125296FDC3EF96
:1070EA009D7480F86E985016901CCB12573A9000F7
:1070FA000974011252C390000874011252C312B0EB
:10710A006202755890144A12573AE94A4B60449001
:10711A001CCB12573AC003C002C00190144A12573E
:10712A003A89828A83D001D002D00312581FA81E3E
:10713A0008125731A81E08125718E94A4B70030261
:10714A007558A81E08125718901CCB1257437D0376
:10715A0002743F901CCB12573A90000312576C905E
:10716A001CCB125743E4901435F07D030273C1908F
:10717A00144412573AE94A4B6044901CCB12573ACE
:10718A00C003C002C00190144412573A89828A830C
:10719A00D001D002D00312581FA81E08125731A8D6
:1071AA001E08125718E94A4B7003027558A81E08A0
:1071BA00125718901CCB1257437D0102743F901C42
:1071CA00CB12573A90000A12576CE94A4B700302E5
:1071DA007558901CCB12573A90000A12576CC0038C
:1071EA00C002C001901CCB12573A90000812529666
:1071FA00FF75F007A4F58285F083D001D002D00391
:10720A0012529624FE604C24FE700302744324FE3C
:10721A0070030273C51470030272D41470030273EC
:10722A005324076003027558901CCB12573AEF7526
:10723A00F007A4FFAEF090000A12576CE92FF9EAA2
:10724A003EFA90000412576C901CCB1257437D01F2
:10725A0002743F901CCB12573A9000081252969033
:10726A000007125308E4901435F090000812529661
:10727A0075F007A4FFAEF090000A12576CE92FF9D7
:10728A00EA3EFA90000412576CE94A4B6037901CA8
:10729A00CB12573AC003C002C001901CCB12573A16
:1072AA0090000A12576CE92FF9EA3EFA900004128C
:1072BA00576C89828A83D001D002D00312581FA842
:1072CA001E081257317D0102743F901CCB12573AA7
:1072DA00A81E08125731901CD11257437B017A1C01
:1072EA0079CE901CCB125743A81E0812571890004B
:1072FA000812529675F007A4FFAEF090000A1257D2
:10730A006CE92FF9EA3EFA90000412576CE94A4BED
:10731A007003027558A81E08125718C003C002C08D
:10732A0001A81E0812571890000A12576CE92FF983
:10733A00EA3EFA90000412576C89828A83D001D0FF
:10734A0002D00312581F027558901CCB12573A905C
:10735A00000312576C901CCB12574390000812522C
:10736A009675F007A4FFAEF090000A12576CE92F49
:10737A00F9EA3EFA90000412576CE94A4B60317BF5
:10738A00007A007900C003C002C001901CCB1257DA
:10739A003A90000A12576CE92FF9EA3EFA90000473
:1073AA0012576C89828A83D001D002D00312581FE7
:1073BA00E4901435F07D01FF0274AE901CCB125795
:1073CA003A90000812529675F007A4FFAEF09000AA
:1073DA000A12576CE92FF9EA3EFA90000412576C28
:1073EA00E94A4B6037901CCB12573AC003C002C01F
:1073FA0001901CCB12573A90000A12576CE92FF9E8
:10740A00EA3EFA90000412576C89828A83D001D02E
:10741A0002D00312581FA81E08125731A81E0812BC
:10742A005718E94A4B600CA81E08125718901CCB33
:10743A001257437D017F00806B901CCB12573A9004
:10744A0015A6125743901CCB12573A9000081252B5
:10745A009675F007A4FFAEF090000A12576CE92F58
:10746A00F9EA3EFA90000412576CC003C002C00148
:10747A009015AD12573A90000412579C901CCB12EB
:10748A00573AC003C002C0019015AD12573A900096
:10749A000B12579C7B017A1579A3901CCB12574388
:0A74AA007D017F00126D5802755835
:1074B40053F8DF53F8BF7BFF7A1179237D2D12E453
:1074C40030901435E0FFC39405401EEFD3941F5051
:1074D4001890000EE0FF901433E0FCA3E0FD90044C
:1074E40092E0FAA3E0FB12D40A901435E0FF64059D
:1074F400600EEF641E6009EF641B6004EFB41C06A9
:1075040012FBF312D7D612FCBFE51E2404F8EFF6E3
:0375140030E7F36A
:10751700E4F55BF55C7B937D027F0312BE34E51EC9
:107527002405F8E4F608F6E51E2405F8E6FE08E665
:10753700FFE4FCFD7B407A9CF9F8D312562040D03B
:0E754700E51E2405F80806E61870DC0680D95B
:0375550063F84098
:07755800E51E2409F51E22C7
:10B06200901CCB12573A900006125296703EF56130
:10B072007562087563FF75640675657775662D7B65
:10B082007AFA7D10FCFFFE12A5FA7BFF7AD879E0EE
:10B0920012FD71EF75F006A4FFC3747A9FFD7BFF6A
:0CB0A2007AD879E075585E7F0202E12F39
:10B0AE009018557401F0901CCB12573A900006126E
:10B0BE005296FF7403C39F50047F0380009018556F
:10B0CE00E0FED39F400302B2CC900009125296FDCF
:10B0DE00EE2DFFE433FE7C007D0712532A90000A0A
:10B0EE0012576CE92FF9EA3EFA90FFF91252966464
:10B0FE00036025901CCB12573A900009125296FF0E
:10B10E00901855E02F14FF900008125296B50708BC
:10B11E00901856747EF08006901856742DF07BFFB2
:10B12E007A0679F1901857125743901CCB12573A62
:10B13E00900006125296FFB401087BFF7A0979CD72
:10B14E008061901855E0FE24FE60231460252402D1
:10B15E007057901CCB12573A9000091252967BFFF3
:10B16E0070067A0879D980047A0779E58035EF641C
:10B17E00027036901CCB12573A900009125296FD6F
:10B18E00EE2DFFE433FE9000061252967C00B507BA
:10B19E000CECB506087BFF7A09795380067BFF7AA3
:10B1AE0008795F901857125743901855E075F008BC
:10B1BE00A4FDACF075610075620890185712573AED
:10B1CE008B638A648965901856E0F5667B7A7A00FF
:10B1DE00E4FFFE12A5FA901CCB12573A900009120A
:10B1EE005296FF901855E02FFFE433FE7C007D074A
:10B1FE0012532A90000A12576CE92FF9EA3EFA9080
:10B20E00FFFA12576C12FD71EF75F006A4FFC374AE
:10B21E007A9F90185AF0901CCB12573A9000091250
:10B22E005296FF901855E0FE2F14FD900007125213
:10B23E00966D7042901CCB12573AEFFDEE2DFFE447
:10B24E0033FE7C007D0712532A90000A12576CE9D8
:10B25E002FF9EA3EFA90FFF9125296B4021890189E
:10B26E0055E0FF90185AE024F4FD7BFF7AD879EB75
:10B27E0075585E12E12F901CCB12573A90000912AE
:10B28E005296FF901855E02FFFE433FE7C007D07A9
:10B29E0012532A90000A12576CE92FF9EA3EFA90DF
:10B2AE00FFFA12576C901855E0FF90185AE0FD7592
:0EB2BE00585E12E12F901855E004F002B0B473
:01B2CC00225F
:065940008B478A488949EB
:10594600E4901876F090069CE0700C7BFF7AD8798C
:07595600ED12FD0402632EB7
:10595D00AB47AA48A949900008125296F54A7B0117
:10596D007A01799E7562007563037F107E0212E8DD
:10597D0030E4901877F0901877E0FFC3940450301E
:10598D00EF75F028A4FFAEF0249EF974013EFA7B6A
:10599D0001C001742F2FF9740F3EA801FC7D01D0B9
:1059AD00017E007F28125257901877E004F080C6D0
:1059BD00E4901877F0901877E0FFC394025030EF21
:1059CD0075F024A4FFAEF024CEF974023EFA7B01EB
:1059DD00C00174CC2FF974043EA801FC7D01D001E7
:1059ED007E007F24125257901877E004F080C69005
:1059FD000418E493FF3395E0FE9004A075F012EFC8
:105A0D0012570CEE75F012A42583F58312573A90B8
:105A1D000007E41253089004A075F012EF12570C12
:105A2D00EE75F012A42583F58312573A9000087491
:105A3D0003125308E4901874F0A3F0901874E0FE6C
:105A4D00A3E0FFC39410EE9402504D749E2FF58287
:105A5D0074013EF583E0FF900418E493FD3395E067
:105A6D00FC9004A075F012ED12570CEC75F012A419
:105A7D002583F58312573A901875E02409FD901887
:105A8D0074E034008D82F583EF125308901874E49E
:105A9D0075F0011253C780A3755B02755C127B987C
:105AAD007D027F0312BE3490150BE070FA7B017AF4
:105ABD0001799E7562007563017F107E0212E830D8
:105ACD0090019FE090041CF09001A1E0540F9018FC
:105ADD0077F09001A0E075F01690027312570CE06C
:105AED00FFA3E090048CCFF0A3EFF09001A0E07540
:105AFD00F01690027512570CE0FFA3E090048ECFC4
:105B0D00F0A3EFF09001A0E075F016900277125718
:105B1D000CE0FFA3E0900490CFF0A3EFF09001A272
:105B2D00E09004C7F09006BA7401F0FB7A01796237
:105B3D00E5478548838549826401700A74626582F0
:105B4D007004740165837006740A254AF54AE54AA6
:105B5D001257F55B8B005B8B01605E025B8B036103
:105B6D008704619305619B06622007627808628550
:105B7D000962C60A62D80B62EA0C0000632EE54A80
:105B8D00B401089003AF7401F08005E49003AFF009
:105B9D007BFF7A0B796B7D2D12E430E490047EF05F
:105BAD00A3F0A3F0A3F09004651256DB00000000F3
:105BBD009004501256DB0000000090046B1256DB6F
:105BCD00000000009004561256DB00000000900407
:105BDD006F1256DB0000000090045A1256DB0000D5
:105BED000000E4900473F0A3F090045EF0A3F09035
:105BFD000482F0A3F09004601256DB0000000090C8
:105C0D0004751256DB00000000E4900479F0900456
:105C1D0064F09004841256DB00000000900488129A
:105C2D0056DB0000000090157DE054E0FFC41354D6
:105C3D000724FC601614601F146028240470309033
:105C4D0004091256DB3F000000802E900409125605
:105C5D00DB4000000080229004091256DB40A000BA
:105C6D000080169004091256DB41200000800A9036
:105C7D0004091256DB3F80000090157DE0540EC3E1
:105C8D001324FE600F240270179006ABE4F0A3748A
:105C9D0032F080159006AB7403F0A37420F08009E8
:105CAD009006ABE4F0A374FAF0E4901874F0A3F04E
:105CBD00901874E0FEA3E0FFC39484EE9400502688
:105CCD00EF7802C333CE33CED8F924D7F5827415CD
:105CDD003EF5831256DBFFFFFFFF901874E475F05D
:105CED00011253C780CA7B017A01799E75620075D6
:105CFD0063027F107E0212E83090041CE075F01CE8
:105D0D009001AE12570C12569790042C1256CF904C
:105D1D00041CE075F01C9001B212570C12569790AE
:105D2D0004301256CF90041CE075F01C9001B8128F
:105D3D00570CE0FFA3E090047ACFF0A3EFF09004AE
:105D4D001CE075F010A42422F9740535F0FA7B01DE
:105D5D00C003C001E075F01CA4249EF9740135F058
:105D6D008B4EF54F8950755100755210D001D003EF
:105D7D0012F56590041CE075F01090053112570C6A
:105D8D00E4F0E54A640370577B017A01799EF56270
:105D9D007563047F107E0212E83090041CE075F0EC
:105DAD000C90019E12570C1256979004411256CF2B
:105DBD0090041CE075F00C9001A212570C1256972E
:105DCD009004451256CF90041CE075F00C9001A87C
:105DDD0012570CE0FFA3E090047CCFF0A3EFF07B13
:105DED00017A01799E90041CE01313543FFF7E004D
:105DFD00901432E024FCFD901431E034FFCD2FF5EA
:105E0D0063EE3DF5627F107E0212E83074FFFFFEF7
:105E1D00FDFC90042C1256B3C3125620600F900453
:105E2D002C125697EC4D4E4F6003025F297BFF7A83
:105E3D00FC79E3901444125743E54A901435B403AA
:105E4D00057409F08003740AF0E4901874F0A3F05F
:105E5D00901874E0FAA3E0FBAE027802C333CE33A0
:105E6D00CED8F9FF90041CE0540375F08490019E88
:105E7D0012570CE5822FF582E5833EF5831256DB32
:105E8D0000000000EBAE027803C333CE33CED8F959
:105E9D00FBAA062438F58274003AF5831256DB000E
:105EAD0000000074342BF58274003AF5831256DB32
:105EBD0000000000901874E475F0011253C790189B
:105ECD0074E07004A3E06420708690041CE0540319
:105EDD0075F08490021E12570C1256DBFFFFFFFF68
:105EED009004211256DBFFFFFFFF7B017A01799EA3
:105EFD0090041CE01313543FFF7E00901432E024F5
:105F0D00FCFD901431E034FFCD2FF565EE3DF564C9
:105F1D007D107C027F0212EA810262BE9003AFE027
:105F2D00B4015EE4901874F0A3F0901874E0FEA331
:105F3D00E0FFC39420EE9400503AEF7803C333CEC4
:105F4D0033CED8F9FBAA062434F58274003AF583D2
:105F5D001256DB0000000074382BF58274003AF500
:105F6D00831256DB00000000901874E475F00112E6
:105F7D0053C780B69004211256DBFFFFFFFF02606E
:105F8D003EE4901874F0A3F0901874E0FAA3E0FBCF
:105F9D00C39420EA94004003026026EBAE0278031E
:105FAD00C333CE33CED8F92438F58274003EF58351
:105FBD001256DB00000000EBAE027802C333CE3385
:105FCD00CED8F9FF90041CE0540375F08490019E27
:105FDD0012570CE5822FF582E5833EF58312569715
:105FED00C004C005C006C007901874E0FEA3E07899
:105FFD0003C333CE33CED8F92434F58274003EF585
:10600D0083D007D006D005D0041256CF901874E473
:10601D0075F0011253C7025F9590041CE05403758F
:10602D00F08490021E12570C1256979004211256AE
:10603D00CF7BFF7AF779D0901444125743E54A90FD
:10604D001435B403067419F00262BE741FF00262B7
:10605D00BE7BFF7A0B796B7D2D12E4309003AF740C
:10606D0001F0E490047EF0A3F0A3F0A3F09004659A
:10607D001256DB000000009004501256DB000000A9
:10608D000090046B1256DB0000000090045612566F
:10609D00DB0000000090046F1256DB000000009042
:1060AD00045A1256DB00000000E4900473F0A3F0D4
:1060BD0090045EF0A3F0A31256DB000000009004E4
:1060CD00751256DB00000000E4900479F090046432
:1060DD00F0901874F0A3F0901874E0FEA3E0FFC3E5
:1060ED009484EE94005026EF7802C333CE33CED88D
:1060FD00F924D7F58274153EF5831256DBFFFFFFA9
:10610D00FF901874E475F0011253C780CA7B017AB1
:10611D0001799E7562007563047F107E0212E8306E
:10612D0090041CE075F00C90019E12570C125697BE
:10613D009004411256CF90041CE075F00C9001A212
:10614D0012570C1256979004451256CF90041CE02E
:10615D0075F00C9001A812570CE0FFA3E090047CA1
:10616D00CFF0A3EFF07BFF7ACE793990144412571C
:10617D00439014357420F00262BEE4FF12EC1990C6
:0E618D00143574068005901435740EF080559C
:10619B009018737402F0901873E0FFC39407501EAD
:1061AB009004C7E0FEA807088002C313D8FC540173
:1061BB00901872F07008901873E004F080D8901863
:1061CB0072E06040A3E0FFB40608901435740EF043
:1061DB008013EFB405089014357414F08007EF2486
:1061EB000E901435F09018767401F07BFF7AFD79E0
:1061FB00F79014471257437AE0795790144D125782
:10620B004302632E7BFF7AD879F312FD0490143589
:05621B0074E30263289A
:106220009014357416F09018767401F07BFF7AFDA7
:1062300079F79014471257437AE0795790144D122A
:106240005743E4FF12EC197561007562087563FF2E
:1062500075640A7565C175662D7B7A7A00E4FDFC6C
:10626000FFFE12A5FA7BFF7AD879FD75582D7D24A3
:10627000E4FF12E12F02632EE4FF12EC19901435B3
:10628000740DF08039E4FF12EC1975610075620835
:106290007563FF75640A7565C175662D7B7A7A0032
:1062A000E4FDFCFFFE12A5FA7BFF7AD9790675584A
:1062B0002D7D2AE4FF12E12F901435740FF0901811
:1062C000767401F08068E4FF12EC199014357422A2
:1062D000F090187774028050E4FF12EC1990143596
:1062E0007421F09018777402803EE4FF12EC197567
:1062F00061007562087563FF75640A7565C175662E
:106300002D7B7A7A00E4FDFCFFFE12A5FA7BFF7A72
:10631000D9790675582D7D2AE4FF12E12F901435A6
:0E6320007423F09018777402F0E4901876F071
:10632E00901876E06042E49004CAF0A3F0900192D7
:10633E00F0A3F09006BA04F090001C04F0A3740FC2
:10634E00F0754E01754F047550927B017A147933B6
:10635E00129FBE90000EEFF0700E7BFF7AD9790D72
:10636E0012FD04E4901435F0901435E0FF70030232
:02637E006516A2
:10638000900418E493FD3395E0FC9004A075F0129E
:10639000ED12570CEC75F012A42583F58312573AD1
:1063A000900007EF125308901877E0FF9004A07553
:1063B000F012ED12570CEC75F012A42583F5831240
:1063C000573A900008EF1253089004C7E0FF90047A
:1063D000A075F012ED12570CEC75F012A42583F5A0
:1063E0008312573A900009EF125308E4F54AE54A40
:1063F00075F028A42447F582E4340FF583E024FBEC
:10640000603224FB705C900418E493FF3395E0FE47
:106410009004A075F012EF12570CEE75F012A4253F
:1064200083F58312573A740A254AF582E433F583DB
:106430007403805A900418E493FF3395E0FE9004AF
:10644000A075F012EF12570CEE75F012A42583F52B
:106450008312573A740A254AF582E433F5837402AD
:10646000802C900418E493FF3395E0FE9004A0750F
:10647000F012EF12570CEE75F012A42583F583127B
:10648000573A740A254AF582E433F58374041253AB
:1064900008054AE54A640460030263EE9001A0E047
:1064A00075F01690027312570CE0A3E0540FFF90A2
:1064B0000418E493FD3395E0FC9004A075F012ED10
:1064C00012570CEC75F012A42583F58312573A90FD
:1064D000000EEF1253089001A0E075F016900275BF
:1064E00012570CE0FEA3E0FF9004A075F012ED122D
:1064F000570CEC75F012A42583F58312573A9000DF
:106500000FEE8FF01254AD755B00755C0A7B917DC8
:06651000027F0312BE34FD
:106516007BFF7AC379DC90144A1257437B007A00DA
:026526007900FA
:016528002250
:10FA6A008B478A488949E4901435F0FFFE12F6F173
:10FA7A00901432E024FBFD901431E034FFFC7B014A
:10FA8A007F057E0012E964126529E4FF12EC197BF6
:06FA9A00017A0379B0229D
:10FB39008B478A488949E4901435F0901432E024BF
:10FB4900FFFD901431E034FFFC7B01E4FFFE12E974
:10FB590064126529E4FF12EC197B017A0379B0225A
:10FD25008B478A488949E4901435F07F01127D6438
:0CFD3500E4FF12EC197B017A0379B02284
:06EEEC008B4A8A4B894CA1
:10EEF2007B017A1A79867562007563017F107E0242
:10EF020012E830900008E0901A86F0900016E09027
:10EF12001A87F09006B4E0901A88F0A3E054F0F05B
:10EF2200901593E024D8600D24147010901A89E093
:10EF32002402F08007901A89E02404F07B017A1AF7
:10EF420079867564007565017D107C027F027E0002
:09EF520012EA81AB4AAA4BA94C5A
:01EF5B002293
:10FAD4008B478A48894990000812529624FE600B8D
:10FAE4000470109015937414F0800E90159374287C
:10FAF400F08006901593740AF012EEECAB47AA4816
:03FB0400A94922EA
:06C949008B478A48894972
:10C94F00E4901435F07B017A187972F56275630102
:10C95F007F107E0212E830901872E0900008F0907D
:10C96F001874E09006B4F0901873E0900016F0E49D
:10C97F00901A84F0A3F0901A82F0A3F0901A82E03C
:10C98F00FEA3E0FFC3940CEE64809480400302CAC0
:10C99F00B0EFC4F8540FC868FFEEC454F048FE74EB
:10C9AF00772FF58274183EF583E0F4700302CAA363
:10C9BF0074772FF58274183EF583E0700302CAA3D3
:10C9CF00901A85E0C4F8540FC868FF901A84E0C429
:10C9DF0054F048FE74222FF974053EFA7B01C00310
:10C9EF00C001901A83E0C4F8540FC868FF901A82F0
:10C9FF00E0C454F048FE74772FF974183E8B4EF54F
:10CA0F004F8950755100755210D001D00312F56542
:10CA1F00901A84E0FCA3E0FDC4F8540FC868FFEC43
:10CA2F00C454F048FE74312FF58274053EF583E44B
:10CA3F00F090147075F007ED12570CEC75F007A419
:10CA4F002583F5837402F07BFF7AEE79EC901A84DC
:10CA5F00E0FCA3E0FD90147475F00712570CEC7511
:10CA6F00F007A42583F58312574374222FF9740519
:10CA7F003EFA7B0190147175F007ED12570CEC75AF
:10CA8F00F007A42583F583125743901A84E475F0B9
:10CA9F00011253C7901A82E475F0011253C702C9ED
:10CAAF008B901A84E0FEA3E0FF90147075F00712CC
:10CABF00570CEE75F007A42583F583E4F0FBFAF924
:10CACF0090147475F007EF12570CEE75F007A4254C
:10CADF0083F58312574390147175F007EF12570CBB
:10CAEF00EE75F007A42583F5831257430B7A00796F
:01CAFF000135
:01CB00002212
:06C78E008B478A4889492F
:10C79400E4901435F07B017A187972F562756301BF
:10C7A4007F107E0212E830901872E0900008F0903A
:10C7B4001874E09006B4F0901873E0900016F0E45A
:10C7C400901A84F0A3F0901A82F0A3F0901A82E0F9
:10C7D400FEA3E0FFC3940CEE64809480400302C87F
:10C7E400F890193775F016EF12570CEE75F016A481
:10C7F4002583F583E0F4700302C8EB901A82A3E06A
:10C8040090193775F01612570CEE75F016A425839F
:10C81400F583E0700302C8EB901A85E0C4F8540F66
:10C82400C868FF901A84E0C454F048FE74222FF9BB
:10C8340074053EFA7B01C003C001901A82E0FEA396
:10C84400E0FF7C007D1612532A74372FF974193EC9
:10C854008B4EF54F8950755100755210D001D0039D
:10C8640012F565901A84E0FCA3E0FDC4F8540FC8E7
:10C8740068FFECC454F048FE74312FF58274053E11
:10C88400F583E4F090147075F007ED12570CEC7515
:10C89400F007A42583F5837402F07BFF7AEE79EC2C
:10C8A400901A84E0FCA3E0FD90147475F00712570D
:10C8B4000CEC75F007A42583F58312574374222FDB
:10C8C400F974053EFA7B0190147175F007ED125767
:10C8D4000CEC75F007A42583F583125743901A8452
:10C8E400E475F0011253C7901A82E475F0011253F3
:10C8F400C702C7D0901A84E0FEA3E0FF90147075BD
:10C90400F00712570CEE75F007A42583F583E4F0C5
:10C91400FBFAF990147475F007EF12570CEE75F0EA
:10C9240007A42583F58312574390147175F007EF1C
:10C9340012570CEE75F007A42583F5831257430BA9
:04C944007A0679AD49
:01C9480022CC
:06C5C0008B478A488949FF
:10C5C600E4901435F07B017A187972F5627563018F
:10C5D6007F107E0212E830901872E0900008F0900A
:10C5E6001874E09006B4F0901873E0900016F07B93
:10C5F600017A1879727562007563027F107E0212E5
:10C60600E830E4901A84F0A3F0901A82F0A3F09038
:10C616001A82E0FEA3E0FFC39410EE64809480408B
:10C626000302C73D90187275F01CEF12570CEE7599
:10C63600F01CA42583F583E0F4700302C730901A3A
:10C6460082A3E090187275F01C12570CEE75F01C60
:10C65600A42583F583E0700302C730901A85E0C4F1
:10C66600F8540FC868FF901A84E0C454F048FE746A
:10C67600222FF974053EFA7B01C003C001901A828D
:10C68600E0FEA3E0FF7C007D1C12532A74722FF992
:10C6960074183E8B4EF54F8950755100755210D067
:10C6A60001D00312F565901A84E0FCA3E0FDC4F8FE
:10C6B600540FC868FFECC454F048FE74312FF5825D
:10C6C60074053EF583E4F090147075F007ED12578B
:10C6D6000CEC75F007A42583F5837402F07BFF7AD2
:10C6E600EE79EC901A84E0FCA3E0FD90147475F0EA
:10C6F6000712570CEC75F007A42583F583125743F0
:10C7060074222FF974053EFA7B0190147175F007B7
:10C71600ED12570CEC75F007A42583F583125743E9
:10C72600901A84E475F0011253C7901A82E475F0EA
:10C73600011253C702C615901A84E0FEA3E0FF90CB
:10C74600147075F00712570CEE75F007A42583F5E3
:10C7560083E4F0FBFAF990147475F007EF12570CA6
:10C76600EE75F007A42583F583125743901471756F
:10C77600F007EF12570CEE75F007A42583F5831228
:07C7860057430B7A00790F05
:01C78D002289
:06EF5C008B478A48894939
:10EF62007B017A1879727562007563017F107E02E7
:10EF720012E830901872E0900008F0901874E09057
:10EF820006B4F0901873E0900016F0901875E054F3
:10EF92000F24FC60112402701A9015937414F090DF
:10EFA20006A6740180179015937428F09006A67433
:10EFB20002800A901593740AF0E49006A6F0900677
:08EFC200A5F07B017A06799E9F
:01EFCA002224
:10FB07008B478A48894990000812529690157D7054
:10FB170006E04401F08004E054FEF012FB997B01FB
:10FB27007A15790D7D807C0012EFCBAB47AA48A9E7
:02FB3700492261
:10FC9B008B478A48894990157DE030E006E4900156
:10FCAB007B800590017B7401F090017AF07B017AE7
:04FCBB000179732236
:10FBC7008B478A488949900414E025E0FF90157D0A
:10FBD700E054F14FF012FB997B017A15790D7D8086
:0CFBE7007C0012EFCBAB47AA48A94922D2
:10FC1F008B478A48894990157DE0540EC313900491
:10FC2F0015F0900414F0E0D394024008A37401F08F
:0BFC3F00900414F07B017A04790D2280
:10FB69008B478A48894990159BE02402C43354E0A5
:10FB7900FF90157DE0541F4FF012FB997B017A1518
:10FB8900790D7D807C0012EFCBAB47AA48A94922A9
:10F73C008B478A48894990157DE054E0C4135407DF
:10F74C0024FC60101460141460182404701BE490E2
:10F75C00159C801A90159C7402801390159C740350
:10F76C00800C90159C7404800590159C7401F0908D
:0AF77C00159BF07B017A15799422A9
:100003008B4D8A4E894FE4901435F0FBFAF9901426
:0E0013004A12574312CCA77B017A1579B52209
:06D9DB008B4A8A4B894CC7
:10D9E100E4901435F07B017A01799EF562F5637F4D
:10D9F100107E0212E830E4901A87F0A3F0901A85A5
:10DA0100F0A3F0901A85E0FEA3E0FFC39415EE6445
:10DA1100809480506E90019E75F019EF12570CEEB4
:10DA210075F019A42583F583E0FEA3E0F47002EEFE
:10DA3100F46044901A85E0FEA3E09001A075F0190E
:10DA410012570CEE75F019A42583F583E0FEA3E0CF
:10DA5100F47002EEF46020AB4AAA4BA94C90000886
:10DA6100125296FF901A87E475F0011253DDFCE51E
:10DA7100F06F7001EC600C901A85E475F00112539F
:10DA8100C780809004B812573A12FD71901A87EE40
:10DA9100F0A3EFF09004B812573AEF24FEFFEE34F2
:10DAA100FFFEE92FF9EA3EFA7564FF7565D97566DF
:10DAB10016901A86E02401F568901A85E03400F585
:10DAC100671288CC7BFF7A00790390144A1257437E
:06DAD1007B017A0479B824
:01DAD700222C
:06837A008B478A48894987
:10838000E4901435F07B017A147936901463125717
:10839000437A0479B89014661257437A0379CA90E5
:1083A000146D125743E490146CF090146BF0901419
:1083B0006AF0901469F0901872F0A3F0901872E0CF
:1083C000FEA3E0FF9003CA75F00712570CEE75F09C
:1083D00007A42583F5837403F07C007D1512532ACE
:1083E00074222FF974053EFA7B01901872E0FEA307
:1083F000E0FF9003CB75F00712570CEE75F007A461
:108400002583F5831257431B7A0079009003CE75BC
:10841000F007EF12570CEE75F007A42583F58312D1
:108420005743901872E475F0011253C7901872E028
:108430007004A3E064087084E4900402F0FBFAF98D
:10844000A31257439004061257439004B812573AA8
:1084500012FD71901872EEF0A3EFF09004B812576D
:108460003AEF24FEFFEE34FFFEE92FF9EA3EFA125E
:10847000E59DEF24FFFFEE34FF901872F0A3EFF0BC
:108480007B017A1579D7901872E0FEA3E0FF901473
:1084900032E02FFF901431E03ECF24E7F563EF3454
:1084A000FFF5627F107E0212E830E490187DF0A3A1
:1084B000F090187DE0FEA3E0FFC39484EE9400509A
:1084C0002EEF7802C333CE33CED8F924D7F5827499
:1084D000153EF58312569774FFFBFAF9F8C312564E
:1084E00036600C90187DE475F0011253C780C27B92
:1084F000017A01799EE4F562F5637F107E0212E84D
:1085000030901872E0FEA3E0FF9001B475F01912EC
:10851000570CEE75F019A42583F583E0901874F0DC
:10852000E0D3940C4002E4F09001B675F019EF121C
:10853000570CEE75F019A42583F583E0901875F0BB
:10854000E0D394104002E4F0901872E0FEA3E090B3
:1085500001B575F01912570CEE75F019A42583F5C5
:1085600083E0901876F0E0D3940C4002E4F0901889
:1085700072E0FEA3E0FF90019E75F01912570CEE19
:1085800075F019A42583F583E0FDA3E0901877CD5D
:10859000F0A3EDF09001A275F019EF12570CEE75F3
:1085A000F019A42583F583125697901872E0FAA368
:1085B000E09001A675F01912570CEA75F019A42580
:1085C00083F583E0F557A3E0F5587559017A0579ED
:1085D00076755A01755B05755C7612B2CD9018728E
:1085E000E0FAA3E0FB9001A875F01912570CEA75A8
:1085F000F019A42583F5831256979001AC75F019F4
:10860000EB12570CEA75F019A42583F583E0F557B2
:10861000A3E0F5587559017A05798B755A01755B98
:1086200005755C8B12B2CD901872E0FEA3E0FF904E
:1086300001B275F01912570CEE75F019A42583F5E7
:1086400083E0FCA3E0FD9001B075F019EF12570C28
:10865000EE75F019A42583F583E0FEA3E0C39DFF2A
:10866000EE9CCF2401CF3400FE901872E0FCA3E012
:10867000FD90019E75F01912570CEC75F019A425A8
:1086800083F583E0FAA3E0FB9001A075F019ED12E9
:10869000570CEC75F019A42583F583E0FCA3E0C327
:1086A0009BFDEC9ACD2401CD3400CD2FFFED3EFE95
:1086B000E4FCFD9018791256CF7564FF7565D97585
:1086C000661BE47B02FAF9F8901879125697125556
:1086D000808E678F68901431E0C313F569A3E013AF
:1086E000F56AE47F64FEFDFC9018791256B31254CB
:1086F000F5C006C007901431E0FEA3E0FBAA06E433
:10870000F9F8D007D0061255808E6B8F6C7B017AFA
:108710000579611288CC901872E0FEA3E09001AE5A
:1087200075F01912570CEE75F019A42583F583E046
:10873000540F24FE601314601014601880007564D8
:10874000FF7565D975662D80147564FF7565D975DB
:10875000664080097564FF7565D975665390187D0C
:10876000E0F567A3E0F5687B017A0579A01288CC73
:108770007B017A01799E7562007563017F107E022C
:1087800012E830901874E075F010A424A3F9740175
:1087900035F0754E01F54F89507551007552107BBB
:1087A000017A05792212F565E4900531F09018768A
:1087B000E075F016A42463F9740235F0754E01F5E6
:1087C0004F89507551007552107B017A0579371227
:1087D000F565E4900546F07B017A01799EF56275B6
:1087E00063027F107E0212E830901875E075F01C6D
:1087F000A4249EF9740135F0754E01F54F8950752A
:1088000051007552107B017A05794C12F565E490A0
:10881000055BF07B017A01799E901877E0F562A301
:10882000E0F5637F107E0212E8309001E5E0FE3350
:1088300095E0901872F0A3CEF09001E5E0FF7D4640
:1088400012F1E390187F1256CF7564FF7565D975E4
:10885000666690187F1256978F6A8E698D688C674E
:0F8860007B017A0579B51288CC7B017A14796394
:01886F0022E6
:068CDF008B228A23892488
:108CE500858425E49017E9F0A3F0A3F0A3F0F52619
:108CF500901435F0F584C2EDD2EC7BFF7A04791A35
:108D05009014631257437B017A14790D90146612FF
:108D150057437A0379CA90146D125743E490146C43
:108D2500F090146BF090146AF0901469F09017E7C6
:108D3500F0A3F09017E7E0FEA3E0FF9003CA75F0FB
:108D45000712570CEE75F007A42583F5837403F01D
:108D55007C007D1512532A74222FF974053EFA7B87
:108D6500019017E7E0FEA3E0FF9003CB75F0071233
:108D7500570CEE75F007A42583F5831257431B7A2C
:108D85000079009003CE75F007EF12570CEE75F0E1
:108D950007A42583F5831257439017E7E475F0017F
:108DA5001253C79017E7E07004A3E064047084E4ED
:108DB5009003E6F0FBFAF9A31257439003EA125722
:108DC500438525840B7A01799E7562007563017F61
:108DD500107E0212E8309001A2E09004C7F07B01FA
:108DE5007A01799EE4F562F5637F107E0212E83020
:108DF500E49017E7F0A3F09017E7E0FEA3E0FFC3C8
:108E05009415EE94004003028ED790019E75F019DB
:108E1500EF12570CEE75F019A42583F583E0FEA338
:108E2500E0F47002EEF47003028ECA9017EBE4755D
:108E3500F0011253C79017E7E0FEA3E0FF9001B2DF
:108E450075F01912570CEE75F019A42583F583E01A
:108E5500FCA3E0FD9001B075F019EF12570CEE750B
:108E6500F019A42583F583E0FEA3E0C39DFFEE9CE6
:108E7500CF2401CF3400FE9017E7E0FCA3E0FD907E
:108E8500019E75F01912570CEC75F019A42583F5A0
:108E950083E0FAA3E0FB9001A075F019ED12570CE1
:108EA500EC75F019A42583F583E0FCA3E0C39BFDD5
:108EB500EC9ACD2401CD3400CD2FFFED3E9017E97E
:108EC5008FF01253C79017E7E475F0011253C702EC
:108ED5008DFCE49017E7F0A3F09017E7E0FEA3E020
:108EE500FFC39407EE9400502874017E00A807087C
:108EF5008005C333CE33CED8F9FF9004C7E0FDEF2C
:108F05005D600205269017E7E475F0011253C780EE
:108F1500C8E526FD7C00901593E0FF7E0012532ADC
:108F2500AC06AD07E4124EDEC004C005C006C0079E
:108F3500901409E0FCA3E0FDE4124EDEA804A905A7
:108F4500AA06AB07D007D006D005D004124DBE90B7
:108F550017ED1256CF9017ED1256B3C000C001C0E1
:108F650002C003901593E0FCE4124EE3E4FBFA79AA
:108F7500207841124DBEE4FBFA79207841124DBEAE
:108F8500D003D002D001D000124BC49017ED125679
:108F9500CF9017ED125697E4FBFA79617845124C9C
:108FA500B59017ED1256CF901432E024E1FF9014DE
:108FB50031E034FFFE9017E9E0FAA3E0FBC39FEA36
:108FC5009E400C9017ED1256DB00000000802790A4
:108FD5001432E024E6FF901431E034FFCFC39BFD4B
