:10746A00436F707972696768742028432920323023
:10747A0030352D3820547261636B205379737465EB
:10748A006D7320546563686E6F6C6F676965732CE2
:10749A00204C4C43000200FF000000C0C1C1810122
:1074AA0040C30103C00280C241C60106C00780C7AB
:1074BA00410500C5C1C4810440CC010CC00D80CD7A
:1074CA00410F00CFC1CE810E400A00CAC1CB810B49
:1074DA0040C90109C00880C841D80118C01980D91B
:1074EA00411B00DBC1DA811A401E00DEC1DF811FA9
:1074FA0040DD011DC01C80DC411400D4C1D58115BA
:10750A0040D70117C01680D641D20112C01380D3CA
:10751A00411100D1C1D0811040F00130C03180F159
:10752A00413300F3C1F28132403600F6C1F78137A8
:10753A0040F50135C03480F4413C00FCC1FD813D79
:10754A0040FF013FC03E80FE41FA013AC03B80FB4A
:10755A00413900F9C1F88138402800E8C1E9812998
:10756A0040EB012BC02A80EA41EE012EC02F80EFAA
:10757A00412D00EDC1EC812C40E40124C02580E5B9
:10758A00412700E7C1E68126402200E2C1E38123C8
:10759A0040E10121C02080E041A00160C06180A1DA
:1075AA00416300A3C1A28162406600A6C1A78167A8
:1075BA0040A50165C06480A4416C00ACC1AD816D79
:1075CA0040AF016FC06E80AE41AA016AC06B80AB4A
:1075DA00416900A9C1A88168407800B8C1B9817918
:1075EA0040BB017BC07A80BA41BE017EC07F80BFAA
:1075FA00417D00BDC1BC817C40B40174C07580B5B9
:10760A00417700B7C1B68176407200B2C1B38173C7
:10761A0040B10171C07080B041500090C191815158
:10762A0040930153C052809241960156C0578097A9
:10763A0041550095C1948154409C015CC05D809D78
:10764A00415F009FC19E815E405A009AC19B815B47
:10765A0040990159C058809841880148C049808999
:10766A00414B008BC18A814A404E008EC18F814FA7
:10767A00408D014DC04C808C41440084C1858145B8
:10768A0040870147C046808641820142C0438083C9
:09769A0041410081C180814040A2
:108B140050001A00000000000000000000000000E7
:108B2400000000430C04000000410C0300410C87CA
:108B34000A41000500027900000275000050002E71
:108B44000000000000000000000000000000000021
:108B5400017D0041029800410C8E00420002000099
:108B6400410C8A0042026B000042004A00004202AB
:108B74009B00A0410C8900410C8D0042029E000024
:108B840041000100410004004102CD00410BBD0041
:108B9400410C8800027E0000027700004202A1001E
:108BA4000041029D004102CE004100000044002A21
:108BB400FFFFFFFF44003EFFFFFFFF420016FFFFE1
:098BC400420018FFFF4102CF043A
:100F4600E4F52DF52CF52BF52A75840F75FFDE7566
:100F5600FFAD12959212963D53B0BF53B0DF53B01A
:100F6600EF12005E753E01753F097540277B017AD9
:100F76000C7901128A2E128916900C877414F0E4EB
:100F860090029DF012850512402BE4900000F0902F
:100F96000000E0FFC3942A5018EF75F015A424A3AF
:100FA600F582E43402F583E4F0900000E004F0807A
:100FB600DEE4900000F01294797F007E96120026FF
:100FC6001299C51297BDE4900272F09002857402E0
:100FD600F090028E744EF07B017A0279D0900281F5
:100FE60012296C7A09792990029412296C7A077968
:100FF6000A90027E12296C7A0B79BE900291122910
:101006006CE4900271F090028404F090027B744EBE
:10101600F0E4900286F0A3F0900273F0A3F0900241
:1010260090F090027DF090028FF090027CF01BFA17
:10103600F990028B12296C90028812296C90027822
:1010460012296C90027512296CE490025EF0A3F0EE
:10105600A3F090026AF0900264F0A3F0900262F0AE
:10106600A3F0E5D830E2047F0180027F00900261A0
:10107600EFF090026CE02458FE90026BE034009092
:101086000268F0A3CEF090004AE0FCA3E0FD24063F
:10109600FEE43C900266F0A3CEF0ED2405FEE43CAF
:1010A600900CACF0A3CEF07B017A0279717F007EC2
:1010B600C27D017C001278DA7B017A0279847F0096
:1010C6007EE17D007C001278DAE5E820E013782ADC
:1010D6001228C67B807A9679987800D31227D95041
:0110E600E821
:1010E700900C911228F20000AFC8E4FFFEFDFC90BF
:1010F7000C911228AAD31227C34017900C911228DB
:101107009E74FFFBFAF9F8122670900C911228E6EC
:0211170080D87E
:10111900E49002A1F0A3F0F53E753F00754077FB1E
:101129007A00797E1287D5D2AF43F880E5D8540387
:101139007002806C7B017A00794C755700755803F1
:101149007F107E02128FF99001F2E0540F9000088F
:10115900F09001F2E054F0C4540F900009F09000AF
:1011690008E06403702AE5D85403FFBF020890021F
:101179005E7404F0802E900009E090025EB40309C9
:101189007403F0A37401F0801B7401F0A3F08014C0
:10119900900009E0B4030890025E7402F08005E44F
:1011A90090025EF0E4FFFED3900928E09F900927A2
:1011B900E09E4013744C2FF58274003EF583E4F0F1
:1011C9000FBF00010E80E0900C78E0F46009E06048
:1011D90006900C0374E0F0900298E06021C390003F
:0C11E9001FE094B890001EE0940B501220
:1011F50012806812007E8F38E53830E7F653F87FA5
:0212050080FE69
:0B12070090025EE064046003021384A8
:10121200F538F53990004AE0FAA3E0FB900CACE017
:10122200B50212A3E0B5030D753801900CACE4755C
:10123200F00112255DE5D830E314900260E0640409
:1012420070030213137404F0753801021313900231
:1012520060E06404702F7402F090026CE02403FEDC
:1012620090026BE03400900268F0A3CEF0E5D83033
:10127200E2047F0180027F00900261EFF0E49002BD
:101282006AF0753801900268E0FEA3E0FF90026BFD
:10129200E0FCA3E0FD6F7002EC6E7075E5D830E201
:1012A200047F0180027F00900261E0FE6F70309047
:1012B200026AE0C394025005E004F08047EE601039
:1012C200900260E06402603C7402F0753801803480
:1012D200900260E06401602C7401F0F53880259082
:1012E2000260E0640360067403F0753801900261E5
:1012F200E070047F0180027F00900261EFF09002B3
:101302006A7401F0ED2458FEE43C900268F0A3CE2A
:10131200F090025FE06004A3E07017900260740135
:10132200F090025FF0EB2405FEE43A900266F0A32F
:10133200CEF0900266E0FEA3E0FF90004AE0B50620
:1013420019A3E0B50714900266E475F00A12255D50
:10135200900260E0B40103753901900C03E0B4E13E
:1013620003E4F539E539601A90025F7405F09002E2
:101372006CE02403FE90026BE03400900264F0A360
:02138200CEF0AB
:10138400900264E0FEA3E0FF90026BE0FCA3E0FDAA
:101394006F7002EC6E600302141C90025FE024FD87
:1013A400605224FE601A1460512404706B90025F32
:1013B4007403F0ED2450FEE43C900264F0A3CEF0FC
:1013C40090025FE0B405177406F090026CE02428E4
:1013D400FE90026BE03400900264F0A3CEF0900221
:1013E4005EE024FD60091460042403702B80004334
:1013F400C810802490025F7404F090025FE0B40689
:10140400037401F090025EE024FD6009146004247A
:10141400037005800053C8EF900275122963E94AEE
:031424004B602BEF
:101427009002751229638B388A39893A7B007A00D2
:10143700790090027512296CAB38AA39A93AE4FFF2
:0B144700124753900CAAEEF0A3EFF048
:10145200900C77E020E003D38001C350030214FF15
:101462009002A2E094F09002A1E0940050030214D2
:01147200FF7A
:1014730012806812007E8F38E53830E7F690025EFE
:0D148300E06404706F900260E06401606737
:10149000900C951228F2000DBBA0E4FFFEFDFC901D
:1014A0000C951228AAD31227C34017900C95122826
:1014B0009E74FFFBFAF9F8122670900C951228E63C
:0214C00080D8D2
:0314C20043C8100C
:1014C500900C991228F200112A88E4FFFEFDFC9089
:1014D5000C991228AAD31227C34017900C991228E9
:1014E5009E74FFFBFAF9F8122670900C991228E603
:0214F50080D89D
:0814F70053F87FE4F5F880FED4
:1014FF00E5E820E0030215B4C39002A2E09409903E
:10150F0002A1E0940050030215AD900C03E02420DB
:0F151F00600D14606514606C24E260030215AD6A
:10152E00900C77E030E178125F2990004AE0FEA33C
:10153E00E0FF900C7AE02FFF900C79E03E900C8F3C
:10154E00F0A3EFF090026BE0F538A3E0F539753EAD
:10155E0000753F007540777B007A00797E1266E851
:10156E00900005EFF0700953B0BF900C03F0802F80
:0B157E00900C0374E1F043B0408024A7
:10158900900C77E030E11D128074900C78E0F460E3
:101599000BE06008900C0374E0F08005E4900C0304
:1015A900F053B0DFE49002A1F0A3F0900C89E07051
:1015B9000302170FE4F09002CDE0F46003021694E1
:1015C90090025EE064046003021683900260E064A6
:0615D90004703843C81045
:1015DF00900C9D1228F20001B774E4FFFEFDFC9001
:1015EF000C9D1228AAD31227C34017900C9D1228C6
:1015FF009E74FFFBFAF9F8122670900C9D1228E6E4
:02160F0080D881
:0B16110053C8EF900260E064016067C6
:10161C00900CA11228F2000DBBA0E4FFFEFDFC9083
:10162C000CA11228AAD31227C34017900CA1122880
:10163C009E74FFFBFAF9F8122670900CA11228E6A2
:02164C0080D844
:03164E0043C8107E
:10165100900CA51228F200112A88E4FFFEFDFC90EF
:101661000CA51228AAD31227C34017900CA5122843
:101671009E74FFFBFAF9F8122670900CA51228E669
:0216810080D80F
:1016830053B0F753B0BF53B0DF53B0EF53F87F807D
:10169300FE9002CDE0FF64F07026900C03EFF0E4BF
:1016A300F57EF57F90000574FFF043B00843B0402A
:1016B30043B02043B010C2A853E7FD53E7BF8014E3
:1016C300EFB4F117900C03F053B0F753B0BF53B01E
:1016D300DF53B0EFE49002CDF08031EF64F2702C71
:1016E300900C03EFF043B00843B04043B02043B045
:1016F30010900C02E024FFFD900C01E034FFFCE4A9
:10170300FBFFFE12932CE4F58443EF01900C03E0FE
:10171300FF64E06008EF64E160030211E090029867
:10172300E07003021862D390001FE094B890001E8B
:10173300E0940B4007E4900298F0800690029874BE
:1017430001F0C3E57A940AE57964809480400675D4
:101753007900757A09900020E0FEA3E0FFEF24FBF7
:10176300FFEE34EBFEE434FFFDE434FFFCE47BE8FE
:101773007A03F9F812268BE47BE57A24F9F81298B8
:101783004C900297EFF0E024CEF0900C03E064E17C
:1017930060030211E09002CFE060030211E0C3E5B1
:1017A30076940AE5756480948040067575007576B5
:1017B3000990001CE0540FFD90001AE0540FC4F888
:1017C30054F0C8E4C4540F482DFF90006175F03302
:1017D300E57A122947E57975F033A42583F58375F6
:1017E300F003E576122947E57575F003A42583F523
:1017F30083EFF090001AA3E0FF90006275F033E5E9
:101803007A122947E57975F033A42583F58375F0BA
:1018130003E576122947E57575F003A42583F5835F
:10182300EFF090001CA3E0FF90006375F033E57ABE
:10183300122947E57975F033A42583F58375F00301
:10184300E576122947E57575F003A42583F583EF43
:10185300F00576E576700205751269CE0211E09007
:0E1863000290E0FF90028FE06F7003021ADA2D
:10187100EF75F0DCA4FF900294122963E92FF9EAD5
:1018810035F08B38F539893A900290E0FFB40204C3
:101891007F008003EF04FF900290EFF0900297E049
:1018A100FF90006075F033E57A122947E57975F00C
:1018B10033A42583F583EFF0AE79AF7A7C007D33D5
:1018C1001224C0744C2FF974003E753E01F53F8916
:1018D10040AB38AA39A93A12375C90005C75F033F5
:1018E100E57A122947E57975F033A42583F583E07C
:1018F10054E075F008A4FFAEF090005D75F033E59B
:101901007A122947E57975F033A42583F583E0FD43
:10191100EEF52EEF4DF52FE52E30E20744F8F52ECA
:10192100852F2F90005C75F033E57A122947E57910
:1019310075F033A42583F583E0541C75F040A4FFB2
:10194100AEF090005E75F033E57A122947E57975BE
:10195100F033A42583F583E0FDEEF530EF4DF5314D
:10196100E53030E20744F8F530853131AC30AD3146
:10197100EC1220C1C004C005C006C007AC30AD31B7
:10198100EC1220C1D003D002D001D000121E98C0A9
:1019910004C005C006C007AC2EAD2FEC1220C1C09B
:1019A10004C005C006C007AC2EAD2FEC1220C1D07B
:1019B10003D002D001D000121E98D003D002D00172
:1019C100D000121DA7128EB77B5C7A8F7982783F87
:1019D100121E988F378E368D358C347F747ED17D73
:1019E1000D7C40AB37AA36A935A834121E981220B7
:1019F100FA8E328F33900C03E064E17050E5334589
:101A010032601C90004AE0FEA3E0FF900C7AE02FC8
:101A1100FF900C79E03E900C8FF0A3EFF0802E90B8
:101A21000C8FE0FEA3E0FF90004AE0B5061FA3E0A3
:101A3100B5071A128074900C78E0F4600BE060082E
:101A4100900C0374E0F08005E4900C03F0900C031B
:101A5100E064E060030211E0900C8DE0D394055046
:101A6100030211E090029FE0942C90029EE0940109
:101A710040030211E0900C78E0FFC3E5339FE532AB
:101A8100940050030211E0900C0374E1F0125F29FD
:101A910090004AE0FEA3E0FF900C7AE02FFF900C4B
:101AA10079E03E900C8FF0A3EFF0753E00753F009A
:101AB1007540777B007A00797E1266E8900005EF29
:101AC100F0700A53B0BF900C03F00211E0900C03C8
:061AD10074E1F043B04097
:101AD7000211E0900C8EE0FD7017900002E0FEA36B
:101AE700E0FF90026BE06E7003A3E06F60030211EA
:101AF700E0900C87E0FF74A08FF08475F00AA4FFD4
:101B070090026CE02401FB90026BE03400CB2FFEC7
:101B1700EB35F0900002F0A3CEF0ED700E900C8D37
:101B2700F090000274FFF5F012255D900C03E0FFC2
:101B370064E16003021D839002CFE0FE7003021B85
:101B4700DEEF64E16003021BDE900C8EE07003029F
:101B57001D8390025EE0FF6054900C03E064E17027
:011B67004C31
:101B6800EFB40407900260E0B4040890025EE064F9
:101B7800046039900C87E0900CA9B428057406F02D
:101B880080037404F0900CA9E0B5062090025F74FD
:101B980002F0900262E0FEA3E0FF90026CE02FFFEB
:0C1BA80090026BE03E900264F0A3EFF0AE
:101BB4009002CFE014F06003021D83F575F576F50D
:101BC40079F57A900928E024FFFE900927E034FF94
:101BD400900006F0A3CEF0021D83900C03E0FF6496
:101BE400E06008EF64E16003021D83C3E576940AB4
:101BF400E575648094804003021D80E57645757028
:101C04007A900C62E0540FFD900C60E0540FC4F81D
:101C140054F0C8E4C4540F482DFF90006175F033AC
:101C2400E57A122947E57975F033A42583F58375A0
:101C3400F003E576122947E57575F003A42583F5CD
:101C440083EFF0900C60E0A3E0FF90006275F03346
:101C5400E57A122947E57975F033A42583F5837570
:101C6400F003E576122947E57575F003A42583F59D
:101C740083EFF0900C62E0A3021D4A90005E75F0C1
:101C840033E57A122947E57975F033A42583F58382
:101C940075F003E576122947E57575F003A42583ED
:101CA400F583E0FF90006175F033E57A122947E58A
:101CB4007975F033A42583F58375F003E57612294D
:101CC40047E57575F003A42583F583EFF090005F75
:101CD40075F033E57A122947E57975F033A4258345
:101CE400F58375F003E576122947E57575F003A4CD
:101CF4002583F583E0FF90006275F033E57A1229BD
:101D040047E57975F033A42583F58375F003E5760B
:101D1400122947E57575F003A42583F583EFF09048
:101D2400006075F033E57A122947E57975F033A43C
:101D34002583F58375F003E576122947E57575F07B
:101D440003A42583F583E0FF90006375F033E57AFF
:101D5400122947E57975F033A42583F58375F003DB
:101D6400E576122947E57575F003A42583F583EF1D
:101D7400F00576E57670020575021BEF128E09E414
:101D8400900C8EF09002CEF0900C8DE0600863B061
:0C1D940020E4F00211E053B0DF0211E087
:108E0900C3E57A9409E579648094805003028EA5BC
:108E1900900927E0FCA3E0FD7B017A00794C857E6F
:108E29005D857F5E7F027E00129094E57824FFFFC6
:108E3900E57734FFFEC3E57F9FE57E9E402CAD7844
:108E4900AC777F017E001292AF900005E0FFAB780E
:108E5900AA77AD7FAC7E128677E4900C03F0900C74
:108E69008DF053B0BF53B0DF8008057FE57F7002F6
:108E7900057EE4FFFED3900928E09F900927E09E34
:108E89004013744C2FF58274003EF583E4F00FBF54
:108E990000010E80E0E4F579F57A8008057AE57A33
:098EA90070020579E4F575F57617
:018EB200229D
:0C80680053B0F753B0BF53B0DF53B0EF7C
:1080740053B0BF53B0DF900C03E064E1702790026B
:10808400CFE0701190029DE0600BAD78AC777F017A
:108094007E001292AF900005E0FFAB78AA77AD7F27
:0D80A400AC7E12867790025FE0640370707E
:1080B100900CAE1228F200015F90E4FFFEFDFC90EF
:1080C1000CAE1228AAD31227C34017900CAE122867
:1080D1009E74FFFBFAF9F8122670900CAE1228E696
:0280E10080D845
:0380E300E4F5C8F9
:1080E600900CB21228F200020F58E4FFFEFDFC903D
:1080F6000CB21228AAD31227C34017900CB212282A
:108106009E74FFFBFAF9F8122670900CB21228E65C
:0281160080D80F
:1081180090025F7401F0A304F090025EE0FFB404E3
:1081280008900260E064046013EF64047003028145
:0C813800F290025FE0640460030281F238
:10814400900CB61228F200015F90E4FFFEFDFC9053
:108154000CB61228AAD31227C34017900CB61228C3
:108164009E74FFFBFAF9F8122670900CB61228E6FA
:0281740080D8B1
:1081760090025EE024FD603C1460042403706D43AD
:02818600C8101F
:10818800900CBA1228F20001B774E4FFFEFDFC90CF
:108198000CBA1228AAD31227C3404C900CBA122842
:1081A8009E74FFFBFAF9F8122670900CBA1228E6B2
:0281B80080D86D
:0381BA0043C810A7
:1081BD00900CBE1228F20001B774E4FFFEFDFC9096
:1081CD000CBE1228AAD31227C34017900CBE12283A
:1081DD009E74FFFBFAF9F8122670900CBE1228E679
:0281ED0080D838
:0D81EF0053C8EF90025F7401F0E4F5C82260
:105F290090026BE0F53DA3E0F53EE4F579F57AF5ED
:105F390075F576900C8DF0A3F0900927E0FEA3E0AB
:105F4900FF7B017A00794C755700755801128FF95A
:105F590090004FE0540F900BBDF0900050E0900C72
:105F690088F090004EE075F016900121122947E063
:105F7900A3E0540F9002A0F090004EE075F0169047
:105F89000123122947E0FFA3E0900299CFF0A3EF84
:105F9900F0900BBDE024FC601424027027900C875C
:105FA9007414F0900262E4F0A374608026900C8768
:105FB9007428F0900262E4F0A37462F09002CF7446
:105FC90006F08016900C87740AF09002627401F052
:105FD900A37458F09002CF7404F0900C88E09002FA
:105FE9009DF0900299E0FCA3E0FD4C700890000C34
:105FF900F0A3F080679002A0E0701E1220C1A804EF
:10600900A905AA06AB07E4FFFE7D7A7C48121FA109
:106019001220FA7C007DF080389002A0E0B40F03D2
:106029007410F0900299E0FCA3E0FDE41220C1A8ED
:1060390004A905AA06AB07E4FFFE7D7A7C48121F76
:10604900A11220FA9002A0E0FD74788DF084FD7C05
:10605900001224C090000CEEF0A3EFF0E5D8540331
:10606900700790029DF00263467B017A00794C75B6
:1060790057007558037F107E02128FF9E4F53BF53E
:106089003C90006475F028E53C122947E53B75F022
:1060990028A42583F583E024FB601524FB70227472
:1060A9006D253CF5827402353BF5837403F080203D
:1060B900746D253CF5827402353BF5837402F080DA
:1060C9000F746D253CF5827402353BF5837404F039
:1060D900053CE53C7002053B6404453B70A3E4F5CF
:1060E9003BF53C90007175F028E53C122947E53BEA
:1060F90075F028A42583F583E0FDE53C25E0FFE55F
:106109003B33FE740F2FF58274003EF583EDF0905A
:10611900006575F028E53C122947E53B75F028A490
:106129002583F5831228AA90006975F028E53C12A9
:106139002947E53B75F028A42583F58312289E128B
:106149001DA3C004C005C006C00790006575F028EE
:10615900E53C122947E53B75F028A42583F5831210
:1061690028AA90006D75F028E53C122947E53B7592
:10617900F028A42583F58312289E121DA3D003D0ED
:1061890002D001D000121FA1E4FBFAF9F812203E57
:1061990090006575F02860054003026224E53C1211
:1061A9002947E53B75F028A42583F5831228AA9091
:1061B900006975F028E53C122947E53B75F028A4EC
:1061C9002583F58312289E121DA3C004C005C006AD
:1061D900C00790006575F028E53C122947E53B7535
:1061E900F028A42583F5831228AA90006D75F0285C
:1061F900E53C122947E53B75F028A42583F5831270
:10620900289E121DA3D003D002D001D000121FA1D5
:10621900C004C005C006C0070262AAE53C122947AE
:10622900E53B75F028A42583F5831228AA90006917
:1062390075F028E53C122947E53B75F028A425832C
:10624900F58312289E121DA3C004C005C006C0070D
:1062590090006575F028E53C122947E53B75F02863
:10626900A42583F5831228AA90006D75F028E53CD2
:10627900122947E53B75F028A42583F58312289E4A
:10628900121DA3D003D002D001D000121FA11220E9
:10629900ABAB07AA06A905A804C000C001C002C08B
:1062A9000390007275F028E53C122947E53B75F02B
:1062B90028A42583F583E0FF90007375F028E53C59
:1062C900122947E53B75F028A42583F583E0C39F90
:1062D900FDE49400FCE41220C1D003D002D001D027
:1062E90000121E98C004C005C006C0079000727550
:1062F900F028E53C122947E53B75F028A42583F5EC
:1063090083E0FCE41220C6D003D002D001D00012F1
:106319001DA71220FAAD07E53C25E0FFE53B33FE5A
:10632900740E2FF58274003EF583EDF0053CE53CD3
:106339007002053B6404453B60030260EC90029DDA
:10634900E030E7034403F0E4F53BF53CD39009283A
:10635900E0953C900927E0953B4018744C253CF5A5
:10636900827400353BF583E4F0053CE53C70DD05BE
:036379003B80D98D
:01637C0022FE
:0969CE0090029DE07003026CA22E
:0369D700753B0607
:1069DA00AF3B90029DE0FEA807088002C313D8FCD3
:1069EA0020E003026C94E53B1229FE6B70006B6792
:1069FA00016A58026A58036A16046A16056A0E067C
:106A0A0000006BFDE5D8F4F53C026BFDAF3BEF33BC
:106A1A0095E0FEEF25E0FFEE33FE741E2FF582743B
:106A2A00003EF583E0FEA3E0FFAD3BED3395E0FCCD
:106A3A00746B2DF58274023CF583E0FDEFA805081E
:0E6A4A008005CEC313CE13D8F9F53C026BFDC8
:106A5800E4F53DAF3BEF3395E0FEEF25E0FFEE3385
:106A6800FE741E2FF58274003EF583E0FEA3E0FF5E
:106A7800AD3BED3395E0FC746B2DF58274023CF56B
:106A880083E0FBEFA803088005CEC313CE13D8F923
:106A9800F53C74062DF58274003CF583E0640260D1
:106AA80003026BFDAF3BEF3395E0FEEF25E0FFEE11
:106AB80033FE740B2FF58274003EF583E0602304E7
:106AC800604624FE706A740A2FF58274003EF583CE
:106AD800E0FFE53CD39F40047F0180027F008F3DAB
:106AE800804EAF3BEF3395E0FEEF25E0FFEE33FE3F
:106AF800740A2FF58274003EF583E0B53C047F01EB
:106B080080027F008F3D8028AF3BEF3395E0FEEF9A
:106B180025E0FFEE33FE740A2FF58274003EF583FC
:106B2800E0FFE53CC39F50047F0180027F008F3D5A
:106B3800E53D6015E53B2402FF7401A807088002C3
:106B4800C333D8FC42C8026BFDE53B2402FF740145
:0F6B5800A807088002C333D8FCF452C8026BFDB3
:096B670090025CE0F53C026BFDBC
:106B700090025CE0FEA3E0FFF53C90000CE0FCA37B
:106B8000E0FD4C6078EF4E6074D3ED9FEC9E503882
:106B9000E4F53DF53E7408253EF5827400353DF57B
:106BA00083E0B40113E53E2404FF7401A8070880C4
:106BB00002C333D8FCF452C8053EE53E7002053DE1
:106BC0006402453D70CF8035E4F53DF53E740825FF
:106BD0003EF5827400353DF583E0B40112E53E24B4
:106BE00004FF7401A807088002C333D8FC42C8051B
:0D6BF0003EE53E7002053D6402453D70D05B
:106BFD0075450075460075473C900006E0FAA3E028
:106C0D00FB7D017C007F017E001291AC900006E0BF
:106C1D007002A3E0600C90000674FFF5F012255D84
:106C2D008065AD78AC777F017E001292AFE5782458
:106C3D00FFFFE57734FFFEC3E57F9FE57E9E402392
:106C4D00900005E0FFAB78AA77AD7FAC7E1286771A
:106C5D00E4900C03F0900C8DF053B0BF53B0DFF502
:106C6D00C88024E578157870021577900927E0FC27
:106C7D00A3E0FD24FFFEEC34FF900006F0A3CEF060
:076C8D007F017E0012940B51
:0E6C9400153BC3E53B6480948040030269DA3F
:016CA20022CF
:1094DD008B5B8A5C895DE92DF9EA3C8B5EF55F89D2
:1094ED0060E4F561F562C3855F83856082E55D9516
:1094FD0082E55C9583502F785BE475F0011229535A
:10950D00122413FFE5626F25E0FFE433FE74A32FF1
:10951D00F58274743EF583E561FFE493F5617401A2
:0A952D00936FF56280C0AE61AF627B
:019537002211
:10891600E4900CEEF07B017A0C79071295E9900C45
:1089260070E07004A3E064D2700C900C72E07004E6
:10893600A3E064086018900C70E4F0A374D2F09081
:108946000C72E4F0A37408F0900CEE7401F0900C35
:1089560059E0B46508900C58E064016010900C5919
:108966007465F0900C587401F0900CEEF0900C01C8
:10897600E0FCA3E0FDB40015ECB41011900C75E01A
:1089860030E40AE054EFF0900CEE7401F0E4B50523
:1089960015ECB42011900C75E020E40AE04410F0C8
:1089A600900CEE7401F0900C07E0FF1299B6400DA2
:1089B600900C07E06007E4F0900CEE04F0900C1BBE
:1089C600E0FF1299B6400D900C1BE06007E4F090B2
:1089D6000CEE04F0900C2FE0FF1299B6400D900CAF
:1089E6002FE06007E4F0900CEE04F0900C78E0B411
:1089F600FF07E4F0900CEE04F0900C79E0B4FF1160
:108A0600A3E0B4FF0CE4900C79F0A3F0900CEE0414
:108A1600F0900CEEE060101299287B017A0C790731
:078A26007D807C0012939C8F
:018A2D002226
:10992800AF84E4F584781EF608F6A2AF33FEC2AF22
:1099380043B701758F0718E6FC08E6F5828C83E4C7
:0D994800F0F58F53B7FEEE24FF92AF8F8431
:0199550022EF
:0A939C008B4F8A5089518C528D537B
:1093A600858454E4F584781EF608F6A2AF33FFC22E
:1093B600AF43B701758F05E4F555F556C3E55695E8
:1093C60053E5526480F8E5556480985029784FE457
:1093D60075F001122953122413FE781E0806E618AA
:1093E600860470010614F5828C83EEF00556E55668
:1093F60070CA055580C6E4F58F53B7FEEF24FF9279
:04940600AF85548456
:01940A00223F
:0695E9008B4F8A508951EE
:1095EF00858452E4F553F554F584A2AF33F555C293
:1095FF00AF758F04E4FFFE0554E554AC53700205BC
:10960F005314F5828C83E493FD784FE475F00112C7
:10961F002953ED12248C0FBF00010EEF64804E70A2
:0D962F00D6E4F58FE55524FF92AF855284F7
:01963C00220B
:0E9094008E568F578C588D598B5A8A5B895C8B
:0A90A20012007EEF30E7F953F8FDED
:1090AC00E4F561F5620562E56270020561644045B4
:0390BC006170F2EE
:1090BF00E5576401455670047F8480027F871299BB
:1090CF00A5E4FF1299A5E4FF1299A5E4FF1299A553
:1090DF00E4F55FF560C3E5609559E5586480F8E500
:1090EF005F648098501DAB5AAA5BA95C856082852E
:1090FF005F8312242CFF1299A50560E56070D605D9
:10910F005F80D243F802AD5EAC5DAF57AE560292B0
:01911F00AFA0
:0892AF008E638F648C658D66EF
:1092B700900927E0FEA3E0FF128F5D8F6712007E03
:0792C700EF30E7F953F8FD59
:1092CE00E4F568F5690569E569700205686440456D
:0392DE006870F2C3
:1092E100E5676010E5646401456370047F83801263
:1092F1007F86800EE5646401456370047F8280028D
:109301007F851299A5E566AE657806CEA2E713CEF4
:1093110013D8F8FF1299A5AF66EF25E025E0FF12FB
:0A93210099A5E4FF1299A543F80294
:01932B00221F
:0C91AC008E3F8F408C418D428A438B44E3
:0A91B80012007EEF30E7F953F8FDD6
:1091C200E4F54AF54B054BE54B7002054A64404510
:0391D2004A70F2EE
:1091D500E5406401453F70047F8480027F871299D2
:1091E500A5E4FF1299A5E5435403FF1299A5AF44E1
:1091F500E5441299A5E4F548F549C3E5499542E5E5
:10920500416480F8E548648098501DAB45AA46A99D
:109215004785498285488312242CFF1299A5054963
:0B922500E54970D6054880D243F802EE
:01923000221B
:08940B008E418F428C438D4419
:0A94130012007EEF30E7F953F8FD78
:10941D00E4F547F5480548E54870020547644045C1
:03942D004770F293
:10943000E5426401454170047F8480027F87129970
:10944000A5E4FF1299A5E4FF1299A5E4FF1299A5DE
:10945000E4F545F546C3E5469544E5436480F8E503
:1094600045648098500F7FFF1299A50546E5467028
:08947000E4054580E043F80229
:0194780022D1
:03007E0053F8FD37
:10008100E4F573F5740574E5747002057364404515
:030091007370F297
:0D0094007FD71299A5E4FF1299A543F80249
:0100A100223C
:0A8FF9008E528F538B548A5589560F
:0A90030012007EEF30E7F953F8FD8C
:10900D00E4F55BF55C055CE55C7002055B64404571
:03901D005B70F293
:109020007FD21299A5E558AE577806CEA2E713CEA7
:1090300013D8F8FF1299A5AF58EF25E025E0FF12ED
:1090400099A5E4FF1299A5E4FF1299A5E4FF1299EE
:10905000A5E4FF1299A5E4FF1299A5E4F559F55A84
:10906000C3E55A9553E5526480F8E55964809850F9
:109070001FE4FF1299A5AB54AA55A956855A8285BB
:109080005983EF12249E055AE55A70D4055980D0B1
:0390900043F802A0
:0190930022BA
:088F5D008E6A8F6B8C6C8D6D28
:0D8F6500756E0112007EEF30E7F953F8FD44
:108F7200E4F571F5720572E572700205716440459F
:038F82007170F219
:108F85007FD21299A5E56DAE6C7806CEA2E713CE19
:108F950013D8F8FF1299A5AF6DEF25E025E0FF1274
:108FA50099A5E4FF1299A5E4FF1299A5E4FF12998A
:108FB500A5E4FF1299A5E4FF1299A5E4F56FF570F4
:108FC500C3E570956BE56A6480F8E56F6480985039
:108FD5001DE4FF1299A5BFFF047F0180027F008F6A
:108FE5006EEF600A0570E57070D6056F80D243F8A4
:038FF50002AF6E5A
:018FF8002256
:0496DD008E528F53C7
:0A96E10012007EEF30E7F953F8FDA8
:1096EB00E4F554F5550555E55570020554644045B0
:0396FB005470F2B6
:1096FE007F501299A5E553AE527806CEC313CE1302
:10970E00D8F9FF1299A5AF53EF25E025E0FF129986
:09971E00A5E4FF1299A543F8022D
:01972700221F
:049728008E528F537B
:0A972C0012007EEF30E7F953F8FD5C
:10973600E4F554F5550555E5557002055464404564
:039746005470F26A
:109749007F811299A5E553AE527806CEC313CE1385
:10975900D8F9FF1299A5AF53EF25E025E0FF12993B
:09976900A5E4FF1299A543F802E2
:0197720022D4
:06932C008C4D8D4E8B4FAD
:10933200E54F600353B0BF8E508F51D3E551954E28
:10934200E550954D504CE55154077035C3E54E95A7
:1093520051FFE54D9550FEC3EF9408EE9400402175
:10936200E54F6009E551543F700363B040AF51AE21
:10937200501296DD74072551F551E43550F55080B1
:1093820007AF51AE501297280551E55170AD055007
:0993920080A9E54F600353B0BF50
:01939B0022AF
:068A2E008B3B8A3C893DF0
:098A340043F80143F80253F8FB7A
:108A3D00E4F541F5420542E54270020541644045C9
:038A4D004170F283
:038A500043F804E4
:108A5300E4F541F5420542E54270020541644045B3
:038A63004170F26D
:108A660012007EEF543C1229FE8A880C8A92148AE0
:108A76009C1C8AA6248AC12C8ADC348AF73C000016
:108A86008B13AB3BAA3CA93D7402801CAB3BAA3CB2
:108A9600A93D74048012AB3BAA3CA93D740880082A
:108AA600AB3BAA3CA93D741075F000122624AB3EE0
:108AB600AA3FA940740175F008804FAB3BAA3CA9B8
:108AC6003D741075F000122624AB3EAA3FA94074EF
:108AD6000275F0108034AB3BAA3CA93D742075F0BA
:108AE60000122624AB3EAA3FA940740275F01080FE
:108AF60019AB3BAA3CA93D742075F000122624ABA5
:0D8B06003EAA3FA940740475F020122624F9
:018B1300223F
:106CA300257300506C61636520756E697420666C92
:106CB3006174206F6E206C6576656C2073757266E7
:106CC3006163652E00486F6C642076657274696336
:106CD300616C2C2047505320616E74656E6E612089
:106CE3006A61636B2075702E00486F6C6420766553
:106CF30072746963616C2C2047505320616E746514
:106D03006E6E61206A61636B20646F776E2E005331
:106D130074616E64206F6E20726967687420736992
:106D230064652E005374616E64206F6E206C65661B
:106D33007420736964652E00496E76657274696E9A
:106D43006720582056616C75657300496E766572CD
:106D530074696E6720592056616C75657300200055
:106D630043616C6962726174696F6E2056616C7500
:106D730065733A2025752C20257500416374756170
:106D83006C205A65726F20506F696E74733A205885
:106D93002025752C205920257500582052616E67D7
:106DA300653A2025642C20256400592052616E67C2
:106DB300653A2025642C2025640053746F72696E34
:106DC300672043616C6962726174696F6E2044610C
:106DD300746120696E20466C6173682E0043616C98
:106DE3006962726174696F6E20436F6D706C657454
:106DF300652E00547261716D61746520496E707502
:106E030074205465737400444947494E3A20003155
:106E1300003000583A2025752C20593A202575005A
:106E230035563A2025752C20543A202575004130DB
:106E33003A2025752C2041313A2025750041323AFC
:106E43002025752C2041333A20257500496E707535
:106E5300745465737420436F6D706C6574652E0094
:106E6300547261716D617465204F7574707574200F
:106E73005465737400626974202564004F757470DF
:106E830075745465737420436F6D706C6574652EEF
:106E93000025752C25750043616C3A2025642C254B
:106EA300640056616C3A2025752C257500582C20FA
:106EB30059205A65726F6564204F75740046696E78
:106EC300616C2043616C3A2025642C25640046697B
:106ED3006E616C2056616C3A2025752C2575004433
:106EE300617461666C6173682054657374002A2A47
:106EF3002A2A2A2A20466C617368205772697465AE
:106F0300204641494C4544202A2A2A2A2A2A2C2051
:106F1300706167652025642C20627974652564009F
:106F2300466C617368206F6B207061676520256410
:106F33000044617461666C617368546573742043C3
:106F43006F6D706C6574652E00010204081020409B
:096F5300800102040810204080B6
:102BE20085844C9000047401F075840FFB7A0C7993
:102BF200071295E9E4900C57F090749F93900C584B
:102C0200F0A37465F0900C70E4F0A374D2F0900C11
:102C120072E4F0A37408F074FFFFFEFDFC900C5AFE
:102C22001228AAC31227D9700A900C5A1228F2004D
:102C3200000000900C5EE0B4FF037401F0900C5FA2
:102C4200E0B4FF037408F0900C7474FFF0A3F090EA
:102C52000C607408F0A3E4F0900C627408F0A3E432
:102C6200F0900C07F0900C1BF0900C2FF0900C6E73
:102C7200F0A374A0F0900C6CE4F0A374A0F0E490C4
:102C820002A1F0A3F043B00843B04043B02043B0E8
:102C9200109074A093FF3395E0FE90027E75F013BE
:102CA200EF122947EE75F013A42583F583122963E9
:102CB200E92407F9E43AFA7555FF75566C7557A37E
:102CC2007558FF75596C755AA6125B169074A0E47C
:102CD20093FF3395E0FE90027E75F013EF122947C1
:102CE200EE75F013A42583F583122963E92407F90D
:102CF200E43AFA12000EEF2401F556E43EF555903F
:102D0200749FE493FF7B737D01127CF712720C12A5
:0E2D1200552D53B0F753B0BF53B0DF53B0EFA1
:102D2000900CBA1228F2000107ACE4FFFEFDFC9003
:102D30000CBA1228AAD31227C34017900CBA122833
:102D40009E74FFFBFAF9F8122670900CBA1228E66E
:022D500080D829
:102D52009074A0E493FF3395E0FE90027E75F01329
:102D6200EF122947EE75F013A42583F58312296328
:102D7200E92407F9E43AFA7555FF75566C7557A3BD
:102D82007558FF75596C755AC8125B169074A0E499
:102D920093FF3395E0FE90027E75F013EF12294700
:102DA200EE75F013A42583F583122963E92407F94C
:102DB200E43AFA12000EEF2401F556E43EF555907E
:102DC200749FE493FF7B737D01127CF712720C9067
:102DD20010DEE0FEA3E0FF9010DBE02FFF9010DAA0
:102DE200E03EC313FEEF13FF900C66EEF0A3EFF08C
:032DF20043B008E3
:102DF500900CBE1228F2000107ACE4FFFEFDFC902A
:102E05000CBE1228AAD31227C34017900CBE122855
:102E15009E74FFFBFAF9F8122670900CBE1228E694
:022E250080D853
:102E27009074A0E493FF3395E0FE90027E75F01353
:102E3700EF122947EE75F013A42583F58312296352
:102E4700E92407F9E43AFA7555FF75566C7557A3E7
:102E57007558FF75596C755AEC125B169074A0E49F
:102E670093FF3395E0FE90027E75F013EF1229472A
:102E7700EE75F013A42583F583122963E92407F976
:102E8700E43AFA12000EEF2401F556E43EF55590A8
:102E9700749FE493FF7B737D01127CF712720C9091
:102EA70010DEE0FEA3E0FF9010DBE02FFF9010DACA
:102EB700E03EC313FEEF13FF900C64EEF0A3EFF0B8
:032EC70043B040D5
:102ECA00900CC21228F2000107ACE4FFFEFDFC9050
:102EDA000CC21228AAD31227C34017900CC2122878
:102EEA009E74FFFBFAF9F8122670900CC21228E6BB
:022EFA0080D87E
:102EFC009074A0E493FF3395E0FE90027E75F0137E
:102F0C00EF122947EE75F013A42583F5831229637C
:102F1C00E92407F9E43AFA7555FF75566C7557A311
:102F2C007558FF75596D755A12125B169074A0E4A2
:102F3C0093FF3395E0FE90027E75F013EF12294754
:102F4C00EE75F013A42583F583122963E92407F9A0
:102F5C00E43AFA12000EEF2401F556E43EF55590D2
:102F6C00749FE493FF7B737D01127CF712720C90BB
:102F7C0010E0E0FEA3E0FF9010DDE02FFF9010DCEE
:102F8C00E03EC313FEEF13FF900C68EEF0A3EFF0DE
:032F9C0043B0201F
:102F9F00900CC61228F2000107ACE4FFFEFDFC9076
:102FAF000CC61228AAD31227C34017900CC612289A
:102FBF009E74FFFBFAF9F8122670900CC61228E6E1
:022FCF0080D8A8
:102FD1009074A0E493FF3395E0FE90027E75F013A8
:102FE100EF122947EE75F013A42583F583122963A7
:102FF100E92407F9E43AFA7555FF75566C7557A33C
:103001007558FF75596D755A27125B169074A0E4B7
:1030110093FF3395E0FE90027E75F013EF1229477E
:10302100EE75F013A42583F583122963E92407F9CA
:10303100E43AFA12000EEF2401F556E43EF55590FC
:10304100749FE493FF7B737D01127CF712720C90E5
:1030510010E0E0FEA3E0FF9010DDE02FFF9010DC18
:10306100E03EC313FEEF13FF900C6AEEF0A3EFF006
:1030710043B010900C64E0FEA3E0FFC3900C67E046
:0B3081009F900C66E09E400302315D52
:10308C00900CCA1228F2000107ACE4FFFEFDFC9084
:10309C000CCA1228AAD31227C34017900CCA1228A4
:1030AC009E74FFFBFAF9F8122670900CCA1228E6EF
:0230BC0080D8BA
:1030BE009074A0E493FF3395E0FE90027E75F013BA
:1030CE00EF122947EE75F013A42583F583122963B9
:1030DE00E92407F9E43AFA7555FF75566C7557A34E
:1030EE007558FF75596D755A3B125B169074A0E4B6
:1030FE0093FF3395E0FE90027E75F013EF12294791
:10310E00EE75F013A42583F583122963E92407F9DC
:10311E00E43AFA12000EEF2401F556E43EF555900E
:10312E00749FE493FF7B737D01127CF7900C66E035
:10313E00F54DA3E0F54E900C64E0FFA3E0900C6615
:10314E00CFF0A3EFF0900C64E54DF0A3E54EF090B8
:10315E000C68E0FEA3E0FFC3900C6BE09F900C6A3E
:07316E00E09E40030232461F
:10317500900CCE1228F2000107ACE4FFFEFDFC9096
:103185000CCE1228AAD31227C34017900CCE1228B2
:103195009E74FFFBFAF9F8122670900CCE1228E601
:0231A50080D8D0
:1031A7009074A0E493FF3395E0FE90027E75F013D0
:1031B700EF122947EE75F013A42583F583122963CF
:1031C700E92407F9E43AFA7555FF75566C7557A364
:1031D7007558FF75596D755A4E125B169074A0E4B9
:1031E70093FF3395E0FE90027E75F013EF122947A7
:1031F700EE75F013A42583F583122963E92407F9F3
:10320700E43AFA12000EEF2401F556E43EF5559024
:10321700749FE493FF7B737D01127CF7900C6AE047
:10322700F54DA3E0F54E900C68E0FFA3E0900C6A23
:0F323700CFF0A3EFF0900C68E54DF0A3E54EF05B
:10324600900CD21228F2000107ACE4FFFEFDFC90C0
:103256000CD21228AAD31227C34017900CD21228D8
:103266009E74FFFBFAF9F8122670900CD21228E62B
:0232760080D8FE
:103278009074A0E493FF3395E0FE90027E75F013FE
:10328800EF122947EE75F013A42583F583122963FD
:10329800E92407F9E43AFA7555FF75566C7557A392
:1032A8007558FF75596D755A61125B169074A0E4D4
:1032B80093FF3395E0FE90027E75F013EF122947D5
:1032C800EE75F013A42583F583122963E92407F921
:1032D800E43AFA12000EEF2401F556E43EF5559053
:0C32E800749FE493FF7B737D01127CF760
:1032F400900CD61228F2000107ACE4FFFEFDFC900E
:103304000CD61228AAD31227C34017900CD6122821
:103314009E74FFFBFAF9F8122670900CD61228E678
:0233240080D84F
:103326009074A0E493FF3395E0FE90027E75F0134F
:10333600EF122947EE75F013A42583F5831229634E
:10334600E92407F9E43AFA7555FF75566D75576322
:10335600900C6CE0F558A3E0F559900C6EE0F55A28
:10336600A3E0F55B125B169074A0E493FF3395E03F
:10337600FE90027E75F013EF122947EE75F013A446
:103386002583F583122963E92407F9E43AFA120042
:103396000EEF2401F556E43EF55590749FE493FF35
:0733A6007B737D01127CF72F
:1033AD00900CDA1228F2000107ACE4FFFEFDFC9050
:1033BD000CDA1228AAD31227C34017900CDA122860
:1033CD009E74FFFBFAF9F8122670900CDA1228E6BB
:0233DD0080D896
:1033DF009074A0E493FF3395E0FE90027E75F01396
:1033EF00EF122947EE75F013A42583F58312296395
:1033FF00E92407F9E43AFA7555FF75566D75577E4E
:10340F00900C60E0F558A3E0F559900C62E0F55A86
:10341F00A3E0F55B125B169074A0E493FF3395E085
:10342F00FE90027E75F013EF122947EE75F013A48C
:10343F002583F583122963E92407F9E43AFA120088
:10344F000EEF2401F556E43EF55590749FE493FF7B
:07345F007B737D01127CF775
:10346600900CDE1228F2000107ACE4FFFEFDFC9092
:103476000CDE1228AAD31227C34017900CDE12289E
:103486009E74FFFBFAF9F8122670900CDE1228E6FD
:0234960080D8DC
:103498009074A0E493FF3395E0FE90027E75F013DC
:1034A800EF122947EE75F013A42583F583122963DB
:1034B800E92407F9E43AFA7555FF75566D75579D75
:1034C800900C64E0F558A3E0F559900C66E0F55AC5
:1034D800A3E0F55B125B169074A0E493FF3395E0CC
:1034E800FE90027E75F013EF122947EE75F013A4D3
:1034F8002583F583122963E92407F9E43AFA1200CF
:103508000EEF2401F556E43EF55590749FE493FFC1
:073518007B737D01127CF7BB
:10351F00900CE21228F2000107ACE4FFFEFDFC90D4
:10352F000CE21228AAD31227C34017900CE21228DC
:10353F009E74FFFBFAF9F8122670900CE21228E63F
:02354F0080D822
:103551009074A0E493FF3395E0FE90027E75F01322
:10356100EF122947EE75F013A42583F58312296321
:10357100E92407F9E43AFA7555FF75566D7557ADAB
:10358100900C68E0F558A3E0F559900C6AE0F55A03
:10359100A3E0F55B125B169074A0E493FF3395E012
:1035A100FE90027E75F013EF122947EE75F013A419
:1035B1002583F583122963E92407F9E43AFA120015
:1035C1000EEF2401F556E43EF55590749FE493FF08
:0735D1007B737D01127CF702
:1035D800900CE61228F2000107ACE4FFFEFDFC9017
:1035E8000CE61228AAD31227C34017900CE612281B
:1035F8009E74FFFBFAF9F8122670900CE61228E682
:0236080080D868
:10360A009074A0E493FF3395E0FE90027E75F01368
:10361A00EF122947EE75F013A42583F58312296367
:10362A00E92407F9E43AFA7555FF75566C7557A3FC
:10363A007558FF75596D755ABD125B169074A0E4E2
:10364A0093FF3395E0FE90027E75F013EF1229473F
:10365A00EE75F013A42583F583122963E92407F98B
:10366A00E43AFA12000EEF2401F556E43EF55590BD
:10367A00749FE493FF7B737D01127CF71299287B78
:0C368A00017A0C79077D747C0012939C7F
:10369600900CEA1228F2000107ACE4FFFEFDFC9054
:1036A6000CEA1228AAD31227C34017900CEA122854
:1036B6009E74FFFBFAF9F8122670900CEA1228E6BF
:0236C60080D8AA
:1036C8009074A0E493FF3395E0FE90027E75F013AA
:1036D800EF122947EE75F013A42583F583122963A9
:1036E800E92407F9E43AFA7555FF75566C7557A33E
:1036F8007558FF75596D755AE0125B169074A0E401
:1037080093FF3395E0FE90027E75F013EF12294780
:10371800EE75F013A42583F583122963E92407F9CC
:10372800E43AFA12000EEF2401F556E43EF55590FE
:10373800749FE493FF7B737D01127CF743B00853B9
:10374800B0BF53B0DF53B0EFE4900004F012891615
:03375800854C8419
:01375B00224B
:104E510085844C78DA7C0C7D017BFF7A6F794C7EFE
:0C4E6100007F081223ED9000047401F0A3
:104E6D00900CBA1228F2000107ACE4FFFEFDFC9095
:104E7D000CBA1228AAD31227C34017900CBA1228C5
:104E8D009E74FFFBFAF9F8122670900CBA1228E600
:024E9D0080D8BB
:104E9F009074A0E493FF3395E0FE90027E75F013BB
:104EAF00EF122947EE75F013A42583F583122963BA
:104EBF00E92407F9E43AFA7555FF75566C7557A34F
:104ECF007558FF75596D755AF6125B169074A0E4FC
:104EDF0093FF3395E0FE90027E75F013EF12294792
:104EEF00EE75F013A42583F583122963E92407F9DE
:104EFF00E43AFA12000EEF2401F556E43EF5559010
:104F0F00749FE493FF7B737D01127CF7E49002A101
:034F1F00F0A3F00C
:104F220075840FE5E830E019C39002A2E09409907D
:104F320002A1E094004003025463E49002A1F0A3B2
:0C4F4200F0900298E060D9E4F085D84DB2
:104F4E00900CBE1228F20006DDD0E4FFFEFDFC90B0
:104F5E000CBE1228AAD31227C34017900CBE1228DB
:104F6E009E74FFFBFAF9F8122670900CBE1228E61A
:024F7E0080D8D9
:104F80009074A0E493FF3395E0FE90027E75F013D9
:104F9000EF122947EE75F013A42583F583122963D8
:104FA000E92407F9E43AFA7555FF75566C7557A36D
:104FB0007558FF75596D755A61125B169074A0E4AF
:104FC00093FF3395E0FE90027E75F013EF122947B0
:104FD000EE75F013A42583F583122963E92407F9FC
:104FE000E43AFA12000EEF2401F556E43EF555902E
:0C4FF000749FE493FF7B737D01127CF73B
:104FFC00900CC21228F2000107ACE4FFFEFDFC90FD
:10500C000CC21228AAD31227C34017900CC2122824
:10501C009E74FFFBFAF9F8122670900CC21228E667
:02502C0080D82A
:10502E007555FF75566E75570A7B017A0C79E2122B
:10503E005B16754E00754F067B017A0C79E21200F5
:10504E000E74E22FF9740C3EFA7B01C003C002C04D
:10505E000174DA254FF582740C354EF583E0554D0B
:10506E007BFF60067A6E791280047A6E79148B5506
:10507E008A568957D001D002D003125B16E54F1520
:10508E004F7002154EC3E54E6480948050AA907402
:10509E00A0E493FF3395E0FE90027E75F013EF12BD
:1050AE002947EE75F013A42583F583122963E924AD
:1050BE0007F9E43AFA7555FF75566C7557A375588E
:1050CE000175590C755AE2125B169074A0E493FFA9
:1050DE003395E0FE90027E75F013EF122947EE75C0
:1050EE00F013A42583F583122963E92407F9E43A22
:1050FE00FA12000EEF2401F556E43EF55590749F1A
:0A510E00E493FF7B737D01127CF730
:10511800900CC61228F2000107ACE4FFFEFDFC90DB
:105128000CC61228AAD31227C34017900CC61228FF
:105138009E74FFFBFAF9F8122670900CC61228E646
:0251480080D80D
:10514A007555FF75566E75571690001AE0F558A3F7
:10515A00E0F559A3E0F55AA3E0F55B7B017A0C79F7
:10516A00E2125B169074A0E493FF3395E0FE90027E
:10517A007E75F013EF122947EE75F013A42583F517
:10518A0083122963E92407F9E43AFA7555FF75563B
:10519A006C7557A375580175590C755AE2125B164E
:1051AA009074A0E493FF3395E0FE90027E75F013AD
:1051BA00EF122947EE75F013A42583F583122963AC
:1051CA00E92407F9E43AFA12000EEF2401F556E44D
:1051DA003EF55590749FE493FF7B737D01127CF733
:1051EA00900CCA1228F2000107ACE4FFFEFDFC9005
:1051FA000CCA1228AAD31227C34017900CCA122825
:10520A009E74FFFBFAF9F8122670900CCA1228E66F
:02521A0080D83A
:10521C007555FF75566E75572390001EE0F558A313
:10522C00E0F559A3E0F55AA3E0F55B7B017A0C7924
:10523C00E2125B169074A0E493FF3395E0FE9002AB
:10524C007E75F013EF122947EE75F013A42583F544
:10525C0083122963E92407F9E43AFA7555FF755668
:10526C006C7557A375580175590C755AE2125B167B
:10527C009074A0E493FF3395E0FE90027E75F013DA
:10528C00EF122947EE75F013A42583F583122963D9
:10529C00E92407F9E43AFA12000EEF2401F556E47A
:1052AC003EF55590749FE493FF7B737D01127CF760
:1052BC00900CCE1228F2000107ACE4FFFEFDFC902E
:1052CC000CCE1228AAD31227C34017900CCE12284A
:1052DC009E74FFFBFAF9F8122670900CCE1228E699
:0252EC0080D868
:1052EE007555FF75566E755731900022E0F558A32F
:1052FE00E0F559A3E0F55AA3E0F55B7B017A0C7952
:10530E00E2125B169074A0E493FF3395E0FE9002D8
:10531E007E75F013EF122947EE75F013A42583F571
:10532E0083122963E92407F9E43AFA7555FF755695
:10533E006C7557A375580175590C755AE2125B16A8
:10534E009074A0E493FF3395E0FE90027E75F01307
:10535E00EF122947EE75F013A42583F58312296306
:10536E00E92407F9E43AFA12000EEF2401F556E4A7
:10537E003EF55590749FE493FF7B737D01127CF78D
:10538E00900CD21228F2000107ACE4FFFEFDFC9057
:10539E000CD21228AAD31227C34017900CD212286F
:1053AE009E74FFFBFAF9F8122670900CD21228E6C2
:0253BE0080D895
:1053C0007555FF75566E755740900026E0F558A349
:1053D000E0F559A3E0F55AA3E0F55B7B017A0C797F
:1053E000E2125B169074A0E493FF3395E0FE900206
:1053F0007E75F013EF122947EE75F013A42583F59F
:1054000083122963E92407F9E43AFA7555FF7556C2
:105410006C7557A375580175590C755AE2125B16D5
:105420009074A0E493FF3395E0FE90027E75F01334
:10543000EF122947EE75F013A42583F58312296333
:10544000E92407F9E43AFA12000EEF2401F556E4D4
:105450003EF55590749FE493FF7B737D01127CF7BA
:0A546000024F22E49002A1F0A3F035
:10546A00900CD61228F2000107ACE4FFFEFDFC9076
:10547A000CD61228AAD31227C34017900CD612288A
:10548A009E74FFFBFAF9F8122670900CD61228E6E1
:02549A0080D8B8
:10549C009074A0E493FF3395E0FE90027E75F013B8
:1054AC00EF122947EE75F013A42583F583122963B7
:1054BC00E92407F9E43AFA7555FF75566C7557A34C
:1054CC007558FF75596E755A4F125B169074A0E49F
:1054DC0093FF3395E0FE90027E75F013EF1229478F
:1054EC00EE75F013A42583F583122963E92407F9DB
:1054FC00E43AFA12000EEF2401F556E43EF555900D
:10550C00749FE493FF7B737D01127CF743B00853C7
:10551C00B0BF53B0DF53B0EFE4900004F0854C847F
:01552C00225C
:106F5C0085844CE4F54FF55078C67C0C7D017BFFA5
:0A6F6C007A6F7954FE7F081223EDBE
:106F7600900CBA1228F2000107ACE4FFFEFDFC906B
:106F86000CBA1228AAD31227C34017900CBA12289B
:106F96009E74FFFBFAF9F8122670900CBA1228E6D6
:026FA60080D891
:106FA8009074A0E493FF3395E0FE90027E75F01391
:106FB800EF122947EE75F013A42583F58312296390
:106FC800E92407F9E43AFA7555FF75566C7557A325
:106FD8007558FF75596E755A63125B169074A0E464
:106FE80093FF3395E0FE90027E75F013EF12294768
:106FF800EE75F013A42583F583122963E92407F9B4
:10700800E43AFA12000EEF2401F556E43EF55590E5
:0C701800749FE493FF7B737D01127CF7F2
:10702400900CBE1228F2000107ACE4FFFEFDFC90B8
:107034000CBE1228AAD31227C34017900CBE1228E4
:107044009E74FFFBFAF9F8122670900CBE1228E623
:0270540080D8E2
:10705600E49002A1F0A3F090026CE024A0F54E901B
:10706600026BE03400F54D75840FE5E830E019C396
:107076009002A2E094099002A1E0940040030271FC
:1070860047E49002A1F0A3F090026BE0FEA3E0FFBC
:10709600B54ED4EEB54DD0EF24A0F54EE43EF54DF9
:1070A6009074A0E493FF3395E0FE90027E75F01392
:1070B600EF122947EE75F013A42583F58312296391
:1070C600E92407F9E43AFA7555FF75566E7557784F
:1070D600854F58855059125B169074A0E493FF3380
:1070E60095E0FE90027E75F013EF122947EE75F0DB
:1070F60013A42583F583122963E92407F9E43AFAF0
:1071060012000EEF2401F556E43EF55590749FE407
:1071160093FF7B737D01127CF774C62550F582744C
:107126000C354FF583E0F5C80550E5507002054F64
:10713600FFAE4F7C007D071225278C4F8D500270C5
:087146006DE49002A1F0A3F03A
:10714E00900CC21228F2000107ACE4FFFEFDFC9089
:10715E000CC21228AAD31227C34017900CC21228B1
:10716E009E74FFFBFAF9F8122670900CC21228E6F4
:02717E0080D8B7
:107180009074A0E493FF3395E0FE90027E75F013B7
:10719000EF122947EE75F013A42583F583122963B6
:1071A000E92407F9E43AFA7555FF75566C7557A34B
:1071B0007558FF75596E755A7F125B169074A0E46E
:1071C00093FF3395E0FE90027E75F013EF1229478E
:1071D000EE75F013A42583F583122963E92407F9DA
:1071E000E43AFA12000EEF2401F556E43EF555900C
:1071F000749FE493FF7B737D01127CF743B00853C7
:0B720000B0BF53B0DF53B0EF854C84EB
:01720B002260
:10720C00E4F54FF550E4F54FF550900298E060FA34
:10721C0090001AE0FEA3E0FF9010DEEEF0A3EFF07A
:10722C009010DAEEF0A3EFF090001CE0FEA3E0FF6C
:10723C009010E0EEF0A3EFF09010DCEEF0A3EFF086
:10724C00E4900298F0C3E5509428E54F6480948054
:10725C0040030273EB900298E060EAAE4FAF507CB3
:0D726C00007D0A122527ED4C600302734BD4
:10727900900CEE1228F2000107ACE4FFFEFDFC9031
:107289000CEE1228AAD31227C34017900CEE12282D
:107299009E74FFFBFAF9F8122670900CEE1228E69C
:0272A90080D88B
:1072AB007555FF75566E75579490001AE0F558A3F7
:1072BB00E0F559A3E0F55AA3E0F55B7B017A0C7975
:1072CB00F2125B169074A0E493FF3395E0FE9002EC
:1072DB007E75F013EF122947EE75F013A42583F595
:1072EB0083122963E92407F9E43AFA7555FF7556B9
:1072FB006C7557A375580175590C755AF2125B16BC
:10730B009074A0E493FF3395E0FE90027E75F0132A
:10731B00EF122947EE75F013A42583F58312296329
:10732B00E92407F9E43AFA12000EEF2401F556E4CA
:10733B003EF55590749FE493FF7B737D01127CF7B0
:10734B0090001AE0FEA3E0FF9010DAE0FCA3E0FD52
:10735B00C39FEC9E5006AE04AF0580009010DAEE92
:10736B00F0A3EFF090001CE0FEA3E0FF9010DCE038
:10737B00FCA3E0FDC39FEC9E5006AE04AF0580005E
:10738B009010DCEEF0A3EFF090001AE0FEA3E0FF0C
:10739B009010DEE0FCA3E0FDD39FEC9E4006AE0414
:1073AB00AF0580009010DEEEF0A3EFF090001CE034
:1073BB00FEA3E0FF9010E0E0FCA3E0FDD39FEC9E6A
:1073CB004006AE04AF0580009010E0EEF0A3EFF0A6
:1073DB00E4900298F00550E5507002054F0272518F
:1073EB009010DCE0FEA3E0FF9010E0E0FCA3E0FDDA
:1073FB00C39FFFEC9EFEC39400400280169010DCEE
:10740B00E0FEA3E0FFC3ED9FFFEC9EFEC3E49FFFF6
:10741B00E49EFED3EF9404EE9400400302721190AD
:10742B0010DAE0FEA3E0FF9010DEE0FCA3E0FDC36A
:10743B009FFFEC9EFEC39400400280169010DAE092
:10744B00FEA3E0FFC3ED9FFFEC9EFEC3E49FFFE4B2
:0E745B009EFED3EF9404EE94004003027211E3
:017469002200
:10552D00E4F54FF550F584900C6EE0A3E0F5FD9099
:10553D000C6EE0A3E0F5FE900C6CE0A3E0F5FB90A3
:10554D000C6CE0A3E0F5FC900298E0700302584863
:10555D00E4F0E54F700F90001AE0FFA3E0900C60AF
:10556D00CFF0A3EFF0E550700F90001CE0FFA3E02B
:08557D00900C62CFF0A3EFF0E7
:10558500900CEE1228F2000107ACE4FFFEFDFC9042
:105595000CEE1228AAD31227C34017900CEE12283E
:1055A5009E74FFFBFAF9F8122670900CEE1228E6AD
:0255B50080D89C
:1055B7009074A0E493FF3395E0FE90027E75F0139C
:1055C700EF122947EE75F013A42583F5831229639B
:1055D700E92407F9E43AFA7555FF75566E75579A37
:1055E700900C6CE0F558A3E0F559900C6EE0F55A75
:1055F700A3E0F55B125B169074A0E493FF3395E08C
:10560700FE90027E75F013EF122947EE75F013A492
:105617002583F583122963E92407F9E43AFA12008E
:105627000EEF2401F556E43EF55590749FE493FF81
:105637007B737D01127CF77555FF75566E7557A5FF
:10564700900C60E0F558A3E0F559900C62E0F55A2C
:0D565700A3E0F55B7B017A0D7902125B1672
:10566400900CF21228F2000107ACE4FFFEFDFC905E
:105674000CF21228AAD31227C34017900CF2122856
:105684009E74FFFBFAF9F8122670900CF21228E6C9
:0256940080D8BC
:105696009074A0E493FF3395E0FE90027E75F013BC
:1056A600EF122947EE75F013A42583F583122963BB
:1056B600E92407F9E43AFA7555FF75566C7557A350
:1056C60075580175590D755A02125B169074A0E44F
:1056D60093FF3395E0FE90027E75F013EF12294793
:1056E600EE75F013A42583F583122963E92407F9DF
:1056F600E43AFA12000EEF2401F556E43EF5559011
:10570600749FE493FF7B737D01127CF7E54F704B2A
:10571600900C60E0FEA3E02400EE34F8C3648094AD
:10572600804010900C60E0FEA3E02400FFEE34F809
:10573600FE8015900C60E0FEA3E02400FFEE34F836
:10574600FEC3E49FFFE49EFED3EF9414EE648094C0
:105756008050047F0180027F008F4FE54F7048C361
:10576600900C60E094085015900C6CE07002A3E079
:1057760070028014900C6C74FFF5F08017900C6C1E
:10578600E07003A3E0F47005754F01800A900C6C7D
:10579600E475F00112255D900C6CE0A3E0F5FB903A
:1057A6000C6CE0A3E0F5FCE550704B900C62E0FE5B
:1057B600A3E02400EE34F8C3648094804010900C7B
:1057C60062E0FEA3E02400FFEE34F8FE8015900CA4
:1057D60062E0FEA3E02400FFEE34F8FEC3E49FFF80
:1057E600E49EFED3EF9414EE6480948050047F010F
:1057F60080027F008F50E5507048C3900C62E094A1
:10580600085015900C6EE07002A3E07002801490B0
:105816000C6E74FFF5F08017900C6EE07003A3E039
:10582600F47005755001800A900C6EE475F0011253
:10583600255D900C6EE0A3E0F5FD900C6EE0A3E014
:10584600F5FEE54F7003025554E5507003025554BA
:10585600900CF61228F2000107ACE4FFFEFDFC9066
:105866000CF61228AAD31227C34017900CF612285A
:105876009E74FFFBFAF9F8122670900CF61228E6D1
:0258860080D8C8
:105888009074A0E493FF3395E0FE90027E75F013C8
:10589800EF122947EE75F013A42583F583122963C7
:1058A800E92407F9E43AFA7555FF75566C7557A35C
:1058B8007558FF75596E755AB0125B169074A0E44E
:1058C80093FF3395E0FE90027E75F013EF1229479F
:1058D800EE75F013A42583F583122963E92407F9EB
:1058E800E43AFA12000EEF2401F556E43EF555901D
:1058F800749FE493FF7B737D01127CF7900298E01C
:1059080060FAE4900298F090001AE0FFA3E0900C8F
:1059180060CFF0A3EFF090001CE0FFA3E0900C62D2
:05592800CFF0A3EFF039
:10592D00900CFA1228F2000107ACE4FFFEFDFC908A
:10593D000CFA1228AAD31227C34017900CFA12287A
:10594D009E74FFFBFAF9F8122670900CFA1228E6F5
:02595D0080D8F0
:10595F009074A0E493FF3395E0FE90027E75F013F0
:10596F00EF122947EE75F013A42583F583122963EF
:10597F00E92407F9E43AFA7555FF75566E7557C065
:10598F00900C6CE0F558A3E0F559900C6EE0F55AC9
:10599F00A3E0F55B125B169074A0E493FF3395E0E0
:1059AF00FE90027E75F013EF122947EE75F013A4E7
:1059BF002583F583122963E92407F9E43AFA1200E3
:1059CF000EEF2401F556E43EF55590749FE493FFD6
:1059DF007B737D01127CF77555FF75566E7557D128
:1059EF00900C60E0F558A3E0F559900C62E0F55A81
:0D59FF00A3E0F55B7B017A0D7902125B16C7
:105A0C00900CFE1228F2000107ACE4FFFEFDFC90A6
:105A1C000CFE1228AAD31227C34017900CFE122892
:105A2C009E74FFFBFAF9F8122670900CFE1228E611
:025A3C0080D810
:105A3E009074A0E493FF3395E0FE90027E75F01310
:105A4E00EF122947EE75F013A42583F5831229630F
:105A5E00E92407F9E43AFA7555FF75566C7557A3A4
:105A6E0075580175590D755A02125B169074A0E4A3
:105A7E0093FF3395E0FE90027E75F013EF122947E7
:105A8E00EE75F013A42583F583122963E92407F933
:105A9E00E43AFA12000EEF2401F556E43EF5559065
:0C5AAE00749FE493FF7B737D01027CF782
:10637D0085844CE4F54DF54EF5519074A093FF33A3
:10638D0095E0FE90027E75F013EF122947EE75F041
:10639D0013A42583F583122963E92407F9E43AFA56
:1063AD007555FF75566C7557A37558FF75596E75F4
:1063BD005AE2125B169074A0E493FF3395E0FE90C1
:1063CD00027E75F013EF122947EE75F013A42583A5
:1063DD00F583122963E92407F9E43AFA12000EEF66
:1063ED002401F556E43EF55590749FE493FF7B73BD
:1063FD007D01127CF7E49002A1F0A3F0F54FF5506A
:10640D00D3900928E09550900927E0954F4023AE91
:10641D004FAF507C017D00122527744C2550F5821D
:10642D007400354FF583EDF00550E5507002054FC2
:10643D0080CE75840FE5E830E019C39002A2E09498
:10644D00099002A1E09400400302662FE49002A19E
:10645D00F0A3F0900927E0FCA3E0FD7B017A007921
:10646D004C854D5D854E5EE4FFFE1290949009279C
:10647D00E0FEA3E0FF7B017A00794C854D57854EF8
:10648D0058128FF9E4F54FF550D3900928E0955047
:10649D00900927E0954F402DAE4FAF507C017D0008
:1064AD00122527744C2550F5827400354FF583E085
:1064BD006D7001EC6005755101800A0550E5507055
:1064CD0002054F80C4E551700302655B9074A0E432
:1064DD0093FF3395E0FE90027E75F013EF1229477E
:1064ED00EE75F013A42583F583122963E92407F9CA
:1064FD00E43AFA7555FF75566E7557F1854D588509
:10650D004E59854F5A85505B125B169074A0E493DB
:10651D00FF3395E0FE90027E75F013EF122947EEE2
:10652D0075F013A42583F583122963E92407F9E493
:10653D003AFA12000EEF2401F556E43EF55590742B
:0E654D009FE493FF7B737D01127CF702662FA3
:10655B00900CBA1228F2000107ACE4FFFEFDFC9090
:10656B000CBA1228AAD31227C34017900CBA1228C0
:10657B009E74FFFBFAF9F8122670900CBA1228E6FB
:02658B0080D8B6
:10658D009074A0E493FF3395E0FE90027E75F013B6
:10659D00EF122947EE75F013A42583F583122963B5
:1065AD00E92407F9E43AFA7555FF75566F755723C7
:1065BD00854D58854E59125B169074A0E493FF33A8
:1065CD0095E0FE90027E75F013EF122947EE75F0FF
:1065DD0013A42583F583122963E92407F9E43AFA14
:1065ED0012000EEF2401F556E43EF55590749FE42C
:1065FD0093FF7B737D01127CF7AF4EAE4D12972842
:10660D00D3900C02E0954E900C01E0954D5008E4AE
:10661D00F54DF54E02643F054EE54E7002054D02F7
:09662D00643FE49002A1F0A3F027
:10663600900CBE1228F2000107ACE4FFFEFDFC90B0
:106646000CBE1228AAD31227C34017900CBE1228DC
:106656009E74FFFBFAF9F8122670900CBE1228E61B
:0266660080D8DA
:106668009074A0E493FF3395E0FE90027E75F013DA
:10667800EF122947EE75F013A42583F583122963D9
:10668800E92407F9E43AFA7555FF75566C7557A36E
:106698007558FF75596F755A34125B169074A0E4DB
:1066A80093FF3395E0FE90027E75F013EF122947B1
:1066B800EE75F013A42583F583122963E92407F9FD
:1066C800E43AFA12000EEF2401F556E43EF555902F
:0F66D800749FE493FF7B737D01127CF7854C84E4
:0166E7002290
:10FE00008E4E8F4F8E4E8F4FE4F550F551A2AF338B
:10FE1000F552C2AFE4F58443B701758F03C3E550D3
:10FE200094FC50168551828550837488F0E42551E6
:10FE3000F55174043550F55080E3E4F58FF550F535
:10FE400051F555F55675840FE5565403700363B0AC
:10FE50004012FFBB8F57E55730E7F653F8FDE4F546
:10FE600058F5590559E559700205586440455870D0
:10FE7000F27FD212FFAAE556AE557806CEC313CE56
:10FE800013D8F9FF12FFAA12FFA2E4FF12FFAAE49F
:10FE9000FF12FFAAE4FF12FFAAE4FF12FFAAE4FF89
:10FEA00012FFAAE4F553F554E4FF12FFAA744C259F
:10FEB00054F58274003553F583EFF00554E5547022
:10FEC000020553C3E553940240DE43F802E4F5848F
:10FED000758F01F553F554744C2554F58274003533
:10FEE00053F583E0FF0551E551AC50700205501405
:10FEF000F5828C83EFF00554E55470020553B4008D
:10FF0000D6E553B402D1E4F58F0556E556700205E7
:0AFF100055C3947FE555940050039B
:10FF1A0002FE45E4F58F53B7FEE55224FF92AFE4A3
:10FF2A00F5D075840FF555F556C3E555942050570D
:10FF3A00E556543F700363B02012FFBB8F57E55755
:10FF4A0030E7F653F8FDE4F558F5590559E55970C7
:10FF5A000205586440455870F27F5012FFAAE556D0
:10FF6A00AE557806CEC313CE13D8F9FF12FFAA12E4
:10FF7A00FFA2E4FF12FFAA43F80274082556F556B9
:10FF8A00E43555F55580A212FFBB8F57E55730E788
:08FF9A00F6E4F58443EF0122B7
:10FFA200AF56EF25E025E0FFAE84E4F5848F9B3069
:09FFB200FFFDC2FFAF9B8E84220B
:10FFBB0053F8FDE4F55AF55B055BE55B7002055AFA
:10FFCB006440455A70F27FD712FFAAE4FF12FFAAD2
:04FFDB0043F80222C3
:107CD700900C0374E2F090749FE493FFAB3CAA3DD1
:107CE700A93E90000112242CFDE4F555F5567B06BC
:047CF7008F528B54C9
:107CFB007557FFE4F558F559ED90749F93F55A7449
:107D0B00032DF582E4340CF5837464F090749FE4D6
:107D1B0093B55219E55464066013E5546415600D70
:107D2B0074FD2DF582E4340BF583E554F0E55A75BB
:107D3B00F013A4247EF582E43402F58312296374D4
:107D4B001612248CE55A75F013A4247EF582E434C4
:107D5B0002F583122963900001E55212249EE55A25
:107D6B0075F013A4247EF582E43402F583122963A3
:107D7B00900002ED12249E74022556F556E43555FB
:107D8B00F555FFE55A75F013A4247EF582E4340211
:107D9B00F583122963900003EF12249EE55A75F0C8
:107DAB0013A4247EF582E43402F583122963900038
:107DBB0004E55612249EE55A75F013A4247EF58231
:107DCB00E43402F583122963900005E55412249ED6
:107DDB00E4FEFFE55A75F013A4247EF582E4340229
:107DEB00F5831229638F828E8312242C62570FBF67
:107DFB0000010EEF64064E70DAE55A75F013A424F9
:107E0B007EF582E43402F583122963900006E55770
:107E1B0012249E74FE2556F55674FF3555F555E51F
:107E2B005A75F013A4247EF582E43402F5831229EB
:107E3B0063E92407F9E43AFAAD56AC551294DD8E9A
:107E4B00588F59EEFFE55A75F013A4247EF582E4A2
:107E5B003402F5831229630556E556700205552445
:107E6B0006F582E43555F583EF12249EE55A75F03D
:107E7B0013A4247EF582E43402F58312296305569C
:107E8B00E556700205552406F582E43555F583E574
:107E9B005912249EE55A75F013A42471F974023516
:107EAB00F0FA7B01E5562407FDE43555FC129538B5
:097EBB00E5562407FFE43555FEED
:017EC400229B
:084753008F3B8B3C8A3D893E3F
:10475B00E4900CB6F0A3F090000312242CFE900012
:10476B000412242C7C002400FFEC3ECF24FECF341B
:10477B00FFFE900CB8F0FCA3EFF0FDE92407F9E481
:10478B003AFA129773900CB6EEF0A3EFF04E603A34
:10479B00AB3CAA3DA93E90000512242CFF6415707A
:1047AB0003024E48EF64067003024E48900001125C
:1047BB00242C2403F582E4340CF5837464F090000C
:0A47CB000112242CFF7D04024B9024
:1047D500AB3CAA3DA93E90000212242CFF90749F89
:1047E500E4936F700302488FEFF4700302488FEF74
:1047F50093FF3395E0FE90027E75F013EF12294783
:10480500EE75F013A42583F583122963E92407F9CE
:10481500E43A8B44F5458946E53E2407F9E4353D00
:10482500853C41F5428943E4F53FF540D3900CB909
:10483500E09540900CB8E0953F40247841E475F050
:1048450001122953122413FF7844E475F00112294B
:1048550053EF12248C0540E54070D1053F80CDAB68
:104865003CAA3DA93E90000112242CFF90000212A3
:10487500242CFD90000512242CFB900CB8E0F55576
:10488500A3E0F556127CF7024E48AB3CAA3DA93E83
:1048950090000512242C1229FE48DB064916104803
:1048A500FF154BC5304BFA314C22324C4A334C7212
:1048B500344ADA404B2E414B2E424C97504CE9512D
:1048C5004A23704A8071493C904DD4914C8F93494D
:1048D500C49800004E1490000112242C24FDF5828A
:1048E500E4340BF583AB3CAA3DA93E9000011224AC
:1048F5002C24FDF582E4340B8010AB3CAA3DA93E87
:1049050012241324FEF582E4340BF583E4F0024E01
:1049150001900C03E0FF64E16004EFB4E205129638
:104925008E8003127CDD900CB6EEF0A3EFF0AB3C6D
:07493500AA3DA93E024E015C
:10493C00900C03E0FF64E16004EFB4E20512968E84
:10494C008065AB3CAA3DA93E90000712242CFE903A
:10495C00000812242C7C002400F548EC3EF547E5B9
:10496C003B75F013A4247EF582E43402F5831229FE
:10497C0063E92407F9E43AFA900927E0FEA3E0FF83
:10498C00854757854858128FF990749FE493FFAB75
:10499C003CAA3DA93E90000112242CFD900927E071
:1049AC00F555A3E0127CF3900CB6EEF0A3EFF0AB50
:0849BC003CAA3DA93E024E0198
:1049C400900C03E0FF64E16004EFB4E20512968EFC
:1049D400803CAB3CAA3DA93E90000712242CFE90DB
:1049E400000812242C7C002400F548EC3EF5479086
:1049F4000927E0FCA3E0FDE92409F9E43AFA854734
:104A04005D85485E7F027E00129094127CDD900CDE
:0F4A1400B6EEF0A3EFF0AB3CAA3DA93E024E0177
:104A2300900C03E0FF64E16004EFB4E20512968E9C
:104A3300803AE53B75F013A4247EF582E43402F555
:104A430083122963E92407F9E43AFA1295E9907489
:104A53009FE493FFAB3CAA3DA93E90000112242C96
:104A6300FD7555007556807B06127CF7900CB6EEEB
:104A7300F0A3EFF0AB3CAA3DA93E024E01900C031C
:104A8300E0FF64E16004EFB4E20512968E80371212
:104A93009928AB3CE53E2407F9E4353DFA900CB880
:104AA300E0FEA3E0FFC39480EE94005006AC06AD95
:104AB3000780047C007D8012939C7B017A0C79072C
:104AC3001295E9127CDD900CB6EEF0A3EFF0AB3C4F
:074AD300AA3DA93E024E01BD
:104ADA00900C03E0FFF547AB3CAA3DA93E900001CC
:104AEA0012242C2403F582E4340CF583E4F0EF64F9
:104AFA00E16007900C03E0B4E20C90000112242C50
:104B0A00FF7D20024B90127CD7900CB6EEF0A3EFFB
:104B1A00F0AB3CAA3DA93E90000712242CFF12815B
:044B2A00FC024BBC82
:104B2E00900C03E0FFF547AB3CAA3DA93E90000573
:104B3E0012242CFE7C00B441047D0080027D058C85
:104B4E00488D49EE900C02E024FFFD900C01E034FC
:104B5E00FFFC8C4A8D4BAB3CAA3DA93E9000011246
:104B6E00242C2403F582E4340CF583E4F0EF64E1A5
:104B7E006007900C03E0B4E21790000112242CFFA2
:104B8E007D2012969D900CB6EEF0A3EFF0024E48EB
:104B9E00127CD7900CB6EEF0A3EFF0E4FFFE129766
:104BAE00287B01AD4BAC4AAF49AE4812932C900C0A
:074BBE0003E547F0024E4839
:104BC500127CDD900CB6EEF0A3EFF0AB3CAA3DA94C
:104BD5003E90000112242C2403F582E4340CF58365
:104BE500E4F012007E8F47E54730E7F6E4F58443AD
:054BF500EF01024E4833
:104BFA00127CDD900CB6EEF0A3EFF0AB3CAA3DA917
:104C0A003E90000112242C2403F582E4340CF5832F
:104C1A00E4F0122BE2024E48127CDD900CB6EEF064
:104C2A00A3EFF0AB3CAA3DA93E90000112242C242C
:104C3A0003F582E4340CF583E4F0124E51024E4837
:104C4A00127CDD900CB6EEF0A3EFF0AB3CAA3DA9C6
:104C5A003E90000112242C2403F582E4340CF583DF
:104C6A00E4F0126F5C024E48AB3CAA3DA93E9000AC
:104C7A000112242C2403F582E4340CF583E4F012A7
:104C8A00637D024E489002CD74FF024D6C900C0376
:104C9A00E064F07027754F01755000755105AB3C03
:104CAA00AA3DA93E128CAD127CDD900CB6EEF0A3A3
:104CBA00EFF0057FE57F701E057E801AAB3CAA3DAA
:104CCA00A93E90000112242CFF7D0812969D900C9B
:104CDA00B6EEF0A3EFF0AB3CAA3DA93E024E01901E
:104CEA000C03E0B4F114AB3CAA3DA93E90000712B4
:104CFA00242CFF900005E06F6072AB3CAA3DA93EF0
:104D0A0090000112242CFF7D0812969D900CB6EE9D
:104D1A00F0A3EFF0AB3CAA3DA93E90000112242C6F
:0B4D2A002403F582E4340CF583E4F070
:104D3500900CAE1228F20000AFC8E4FFFEFDFC9017
:104D45000CAE1228AAD31227C34017900CAE122816
:104D55009E74FFFBFAF9F8122670900CAE1228E645
:024D650080D8F4
:104D67009002CD74F2F0900C897401F0024E481253
:104D77007CDD900CB6EEF0A3EFF0AB3CAA3DA93E6C
:104D870090000112242C2403F582E4340CF583E40B
:014D9700F02B
:104D9800900CB21228F20000AFC8E4FFFEFDFC90B0
:104DA8000CB21228AAD31227C34017900CB21228AB
:104DB8009E74FFFBFAF9F8122670900CB21228E6DE
:024DC80080D891
:104DCA00AF7FAE7E129890024E48900C897401F023
:104DDA00AB3CAA3DA93E90000712242C9002CDF0CC
:104DEA0090749FE493FF127CE9900CB6EEF0A3EF67
:104DFA00F0AB3CAA3DA93E90000112242C2403F5F5
:104E0A0082E4340CF583E4F08034AB3CAA3DA93E3D
:104E1A0090000112242C2403F582E4340CF58374E7
:104E2A0064F090000112242CFF7D0212969D900CD2
:0E4E3A00B6EEF0A3EFF074FF900CB6F0A3F00C
:084E4800900CB6E0FEA3E0FFB0
:014E5000223F
:0A9773008B4C8A4D894E8C4F8D50AF
:10977D001294DD8E518F52AB4CAA4DA94E8550825D
:10978D00854F8312242C7F00FEE5502401FDE43526
:10979D004F8D82F58312242C2FFFE43EFEE552B54A
:0F97AD000709E551B50604E4FEFF227EFF7FFFAA
:0197BC00228A
:0F968E00AB3CAA3DA93E90000112242CFF7D2089
:10969D00AE07EE90749F93FB3395E0FA90027E75C2
:1096AD00F013EB122947EA75F013A42583F5831205
:1096BD002963900007ED12249E90749FE493FFADF3
:1096CD00067555007556017B15127CF7E4FEFF22D9
:068CAD008B4C8A4D894E3C
:108CB300E4F552F55390000312242CFE90000412A5
:108CC300242CFDEEF554EDF555E4F552F553E55539
:108CD30024FEFFE55434FFFEC36480948250028077
:108CE300047E027F00C3E5539FEE6480F8E552647F
:108CF30080985048AB4FAA50A951C003C002C0018D
:108D0300122413FFAB4CAA4DA94EE5532407FDE4EF
:108D130035528D82F58312242CFE744C2553F58233
:108D230074003552F583EEF06FD001D002D00312F8
:108D3300248C0553E5537096055280927E00E57F9F
:108D43005401FF900927E0FCA3E0FD7B017A007941
:0A8D53004C857E5D857F5E029094E2
:049890008E4C8F4D1E
:1098940090FE00E493FE740193FF900CBDEEF0A3E0
:1098A400EFF0BE8012BFFE0F7B007AFE7902900CAF
:0E98B400BA12296C022A51AF7FAE7E12FE005E
:0198C2002283
:1098F600564F4C5453004F4E004F46460044726933
:1099060076657241004361724100547261636B4136
:1099160000416E616C6F6778004469676974616CB9
:029926007800C7
:0687D5008B3B8A3C893D4C
:1087DB007B017A00794CE4F557F5587F107E021235
:1087EB008FF9AB3BAA3CA93DE475F004122624900B
:1087FB000C01E0FFA3E0AB3EAA3FA940CF8FF012E4
:10880B002624E4900CAEF0900CAEE0FFC394154020
:10881B00030288FC75F019EF90004C122947E0FE1B
:10882B00A3E0F47002EEF470030288F3900CAEE058
:10883B0075F01990004E122947E0FCA3E0F470028A
:10884B00ECF470030288F3AB3BAA3CA93D122589DB
:10885B00FDACF075F019EF90004E122947E0FEA326
:10886B00E0D39DEE9C4014900CAEE075F019900097
:10887B004E122947E0FEA3E0FF8004AE04AF05AB28
:10888B003BAA3CA93DEE8FF0122624900CAEE0FFE4
:10889B0075F019900060122947E0FCA3E0F4700218
:1088AB00ECF46044AB3EAA3FA940122589FDACF025
:1088BB0075F019EF900060122947E0FEA3E0C39D0D
:1088CB00EE9C5014900CAEE075F0199000601229DC
:1088DB0047E0FEA3E0FF8004AE04AF05AB3EAA3F2A
:1088EB00A940EE8FF0122624900CAEE004F0028823
:1088FB0012AB3BAA3CA93DE475F0011225ECAB3E53
:0B890B00AA3FA94074FFF5F00225EC24
:0666E8008B3B8A3C893D5A
:1066EE0090003E1228F2FFFFFFFF90002A1228F2C0
:1066FE00FFFFFFFF74FF900018F0A3F0900016F05C
:10670E00A3F07B017A0C79AE7557007558017F1096
:10671E007E02128FF9900CAEE0900EBEF0900CAF90
:10672E00E0900EBFF0900CB0E0900EC0F0900CB167
:10673E00E0540F900EC1F0E024FC600C24027010A7
:10674E00900C877414F0800E900C877428F08006DD
:10675E00900C87740AF09000067402F0A3740FF088
:10676E0090029DE030E7034403F0900927E0FCA37C
:10677E00E0FD7F017E0012940B1294791200A67B2D
:10678E00017A0C79AEE4F557F5587F107E02128F20
:10679E00F9AB3BAA3CA93DE475F004122624E49023
:1067AE000EC2F0900C01E0FFA3E0AB3EAA3FA94061
:1067BE00CF8FF0122624E4900EC3F0900EC3E0FFAC
:1067CE00C3941540030268C475F019EF900CAE1215
:1067DE002947E0FEA3E0FFBEFF16BFFF13900EC2D7
:1067EE00E060030268BBA3E004900EC2F00268BB37
:1067FE00900EC3E0FF75F019900CB0122947E0FC23
:10680E00A3E0F47002ECF470030268BBAB3BAA3C4D
:10681E00A93D122589FDACF075F019EF900CB01260
:10682E002947E0FEA3E0D39DEE9C4014900EC3E0FA
:10683E0075F019900CB0122947E0FEA3E0FF80041A
:10684E00AE04AF05AB3BAA3CA93DEE8FF012262459
:10685E00900EC3E0FF75F019900CC2122947E0FCB0
:10686E00A3E0F47002ECF46044AB3EAA3FA94012E0
:10687E002589FDACF075F019EF900CC2122947E096
:10688E00FEA3E0C39DEE9C5014900EC3E075F0196C
:10689E00900CC2122947E0FEA3E0FF8004AE04AFC5
:1068AE0005AB3EAA3FA940EE8FF0122624900EC3F0
:1068BE00E004F00267C9900EC2E07002FF22AB3E08
:1068CE00AA3FA940122589FFAEF0AB3BAA3CA93DD9
:1068DE00122589C39FE5F09E40037F0022E475F0E8
:1068EE00011225ECAB3EAA3FA94074FFF5F012252C
:1068FE00ECAB3BAA3CA93D122589FFAEF0D3940523
:10690E00EE9400400280047E007F05900EC2E0FDF2
:10691E0075F019900C95122947EEF0A3EFF0900246
:10692E009DE0FF600EAB3EAA3FA940122589FBAA4F
:10693E00F080047AFF7BFF75F019ED900CA71229F9
:10694E0047EAF0A3EBF075F019ED900CA912294768
:10695E0074FFF0A3F075F019ED900CA6122947EF15
:10696E00F0900EBEE0FF75F019ED900CAB122947BA
:10697E00EFF0900EC0E0FF75F019ED900CAC1229FF
:10698E0047EFF0900EBFE0FF75F019ED900CAD12D1
:10699E002947EFF0900EC1E0FF75F019ED900CA5B0
:1069AE00122947EFF07B017A0C79AEE4F55DF55EC6
:0F69BE007D107C027F02FE129094900EC2E0FFCB
:0169CD0022A7
:0A8677008F3F8C408D418A428B43F7
:10868100153F7B017A0E79C6E4F557F5587F107EC8
:1086910002128FF974FFFFFEFDFC90002A1228AA36
:1086A100C31227D9705F75F019E53F900ED01229DA
:1086B100471228F2FFFFFFFF75F019E53F900ECA40
:1086C1001229471228F2FFFFFFFF75F019E53F90CD
:1086D1000ED412294774FFF0A3F075F019E53F900D
:1086E1000ECE12294774FFF0A3F075F019E53F9003
:1086F1000EC812294774FFF0A3F075F019E53F90F9
:108701000EC60287B890002A12289E75F019E53F1F
:10871100900ECA1229471228E6900016E0FEA3E047
:10872100FF75F019E53F900ECE122947EEF0A3EF49
:10873100F090003E12289E75F019E53F900ED01280
:1087410029471228E6900018E0FEA3E0FF75F01912
:10875100E53F900ED4122947EEF0A3EFF075F01922
:10876100E53F900EC8122947E540F0A3E541F0909E
:10877100029DE0602A75F019E53F900ED812294755
:10878100E0FEA3E0F47002EEF4601475F019E53F29
:10879100900EDA122947E542F0A3E543F0802075F7
:1087A100F019E53F900EDA12294774FFF0A3F07536
:1087B100F019E53F900ED812294774FFF0A3F07B22
:1087C100017A0E79C6E4F55DF55E7D107C027F02CB
:0487D100FE02909480
:10850500E4900EC4F0A3F07B017A0C79B2F557F52F
:10851500587F107E02128FF9E4900EC4F0A3F090FC
:108525000EC4E0FEA3E0FFC39415EE9400400302E1
:108535008676900CB275F019EF122947EE75F01991
:10854500A42583F583E0FEA3E0F47002EEF4700346
:10855500028669900EC4E0FEA3E0900CBA75F0198E
:10856500122947EE75F019A42583F583E0FCA3E0F5
:0A857500F47002ECF4600302866962
:10857F00900CC475F019EF122947EE75F019A42568
:10858F0083F583E0FDA3E0900CAECDF0A3EDF0906A
:10859F000CC675F019EF122947EE75F019A4258353
:1085AF00F583E0FFA3E0900CB0CFF0A3EFF0900EB7
:1085BF00C4A3E0900CB275F019122947EE75F019AB
:1085CF00A42583F583E0FFA3E0900EC2CFF0A3EFC5
:1085DF00F0900C02E024FFFF900C01E034FFFEC38B
:1085EF00900EC3E09F900EC2E09E506E7B017A0CFE
:1085FF0079B2E0F557A3E0F5587F107E02128FF99C
