:10751000436F70797269676874202843292032307C
:1075200030352D3820547261636B20537973746544
:107530006D7320546563686E6F6C6F676965732C3B
:10754000204C4C43000200FF000000C0C1C181017B
:1075500040C30103C00280C241C60106C00780C704
:10756000410500C5C1C4810440CC010CC00D80CDD3
:10757000410F00CFC1CE810E400A00CAC1CB810BA2
:1075800040C90109C00880C841D80118C01980D974
:10759000411B00DBC1DA811A401E00DEC1DF811F02
:1075A00040DD011DC01C80DC411400D4C1D5811513
:1075B00040D70117C01680D641D20112C01380D324
:1075C000411100D1C1D0811040F00130C03180F1B3
:1075D000413300F3C1F28132403600F6C1F7813702
:1075E00040F50135C03480F4413C00FCC1FD813DD3
:1075F00040FF013FC03E80FE41FA013AC03B80FBA4
:10760000413900F9C1F88138402800E8C1E98129F1
:1076100040EB012BC02A80EA41EE012EC02F80EF03
:10762000412D00EDC1EC812C40E40124C02580E512
:10763000412700E7C1E68126402200E2C1E3812321
:1076400040E10121C02080E041A00160C06180A133
:10765000416300A3C1A28162406600A6C1A7816701
:1076600040A50165C06480A4416C00ACC1AD816DD2
:1076700040AF016FC06E80AE41AA016AC06B80ABA3
:10768000416900A9C1A88168407800B8C1B9817971
:1076900040BB017BC07A80BA41BE017EC07F80BF03
:1076A000417D00BDC1BC817C40B40174C07580B512
:1076B000417700B7C1B68176407200B2C1B3817321
:1076C00040B10171C07080B041500090C1918151B2
:1076D00040930153C052809241960156C057809703
:1076E00041550095C1948154409C015CC05D809DD2
:1076F000415F009FC19E815E405A009AC19B815BA1
:1077000040990159C058809841880148C0498089F2
:10771000414B008BC18A814A404E008EC18F814F00
:10772000408D014DC04C808C41440084C185814511
:1077300040870147C046808641820142C043808322
:0977400041410081C180814040FB
:108BBA0050001A0000000000000000000000000041
:108BCA00000000430C04000000410C0300410C8724
:108BDA000A41000500027900000275000050002ECB
:108BEA00000000000000000000000000000000007B
:108BFA00017D0041029800410C8E004200020000F3
:108C0A00410C8A0042026B000042004A0000420204
:108C1A009B00A0410C8900410C8D0042029E00007D
:108C2A0041000100410004004102CD00410BBD009A
:108C3A00410C8800027E0000027700004202A10077
:108C4A000041029D004102CE0041000000410C8F0C
:108C5A000044002AFFFFFFFF44003EFFFFFFFF42E0
:0D8C6A000016FFFF420018FFFF4102CF047B
:100F7800E4F52DF52CF52BF52A900CAFF0A37406AB
:100F8800F0E4A3F0A3F0A3F0A3F0A3F0A3F075841A
:100F98000F75FFDE75FFAD1296381296E353B0BF9A
:100FA80053B0DF53B0EF12005E753E01753F09750F
:100FB80040277B017A0C7901128AD41289BC900CE3
:100FC800877414F0E490029DF01285AB1240D1E4CE
:100FD800900000F0900000E0FFC3942A5018EF75CD
:100FE800F015A424A3F582E43402F583E4F090001C
:100FF80000E004F080DEE4900000F012951F7F000E
:101008007E96120026129A6B129863E4900272F090
:101018009002857402F090028E744EF07B017A0281
:1010280079D0900281122A127A09792990029412B1
:101038002A127A07790A90027E122A127A0B79BE4E
:10104800900291122A12E4900271F090028404F046
:1010580090027B744EF0E4900286F0A3F090027345
:10106800F0A3F0900290F090027DF090028FF09043
:10107800027CF01BFAF990028B122A129002881255
:101088002A12900278122A12900275122A120B7AEA
:101098000279717F007EC27D017C001279807B011C
:1010A8007A0279847F007EE17D007C00127980439A
:1010B800F880E5E820E013782A12296C7B807A967C
:0A10C80079987800D312287F50E8D1
:1010D200900C921229980000AFC8E4FFFEFDFC902C
:1010E2000C92122950D31228694017900C9212299F
:1010F2004474FFFBFAF9F8122716900C9212298C0D
:0211020080D893
:10110400E49002A1F0A3F0F53E753F00754077FB33
:101114007A00797E12887BD2AF1200A6900C8F746D
:1011240001F0E490025EF0A3F0A3F090026AF09064
:101134000264F0A3F0900262F0A3F0E5D830E20478
:101144007F0180027F00900261EFF090026CE02446
:1011540058FE90026BE03400900268F0A3CEF09049
:10116400004AE0FCA3E0FD2406FEE43C900266F0A5
:10117400A3CEF0ED2405FEE43C900CADF0A3CEF03C
:10118400E5D854037002806C7B017A00794C755762
:10119400007558037F107E0212909F9001F2E05474
:1011A4000F900008F09001F2E054F0C4540F900046
:1011B40009F0900008E06403702AE5D85403FFBFE7
:1011C400020890025E7404F0802E900009E0900200
:1011D4005EB403097403F0A37401F0801B7401F07E
:1011E400A3F08014900009E0B4030890025E740236
:1011F400F08005E490025EF0E4FFFED3900928E05D
:101204009F900927E09E4013744C2FF58274003E92
:10121400F583E4F00FBF00010E80E0900C78E0F459
:101224006009E06006900C0374E0F0900CB5E4757E
:10123400F001122603900298E06021C390001FE0A1
:0A12440094B890001EE0940B5012C5
:10124E0012810E12007E8F38E53830E7F653F87FA4
:02125E0080FE10
:0B12600090025EE0640460030213EEE5
:10126B00F538F53990004AE0FAA3E0FB900CADE0BD
:10127B00B50212A3E0B5030D753801900CADE47502
:10128B00F001122603E5D830E314900260E0640409
:10129B00700302137D7404F075380102137D900204
:1012AB0060E06404702F7402F090026CE02403FE83
:1012BB0090026BE03400900268F0A3CEF0E5D830DA
:1012CB00E2047F0180027F00900261EFF0E4900264
:1012DB006AF0753801900268E0FEA3E0FF90026BA4
:1012EB00E0FCA3E0FDD39FEC9E400A900CB3E475A9
:1012FB00F001122603ED6F7002EC6E7075E5D830BD
:10130B00E2047F0180027F00900261E0FE6F70308B
:10131B0090026AE0C394025005E004F08047EE604F
:10132B0010900260E06402603C7402F0753801803A
:10133B0034900260E06401602C7401F0F538802574
:10134B00900260E0640360067403F075380190024C
:10135B0061E070047F0180027F00900261EFF090EA
:10136B00026A7401F0ED2458FEE43C900268F0A38D
:10137B00CEF090025FE06004A3E0701790026074FF
:10138B0001F090025FF0EB2405FEE43A900266F068
:10139B00A3CEF0900266E0FEA3E0FF90004AE0B51A
:1013AB000619A3E0B50714900266E475F00A12263D
:1013BB0003900260E0B40103753901900C03E0B4B3
:1013CB00E103E4F539E539601A90025F7405F0909A
:1013DB00026CE02403FE90026BE03400900264F098
:0313EB00A3CEF09E
:1013EE00900264E0FEA3E0FF90026BE0FCA3E0FD40
:1013FE006F7002EC6E600302148690025FE024FDB3
:10140E00605224FE601A1460512404706B90025FC7
:10141E007403F0ED2450FEE43C900264F0A3CEF091
:10142E0090025FE0B405177406F090026CE0242879
:10143E00FE90026BE03400900264F0A3CEF09002B6
:10144E005EE024FD60091460042403702B800043C9
:10145E00C810802490025F7404F090025FE0B4061E
:10146E00037401F090025EE024FD60091460042410
:10147E00037005800053C8EF900275122A09E94ADD
:03148E004B602B85
:10149100900275122A098B388A39893A7B007A00C1
:1014A1007900900275122A12AB38AA39A93AE4FFE1
:0B14B1001247F9900CABEEF0A3EFF037
:1014BC00900C77E020E003D38001C3500302156940
:1014CC009002A2E094F09002A1E094005003021567
:0114DC0069A6
:1014DD0012810E12007E8F38E53830E7F690025EED
:0D14ED00E06404706F900260E064016067CD
:1014FA00900C96122998000DBBA0E4FFFEFDFC900B
:10150A000C96122950D31228694017900C9612296A
:10151A004474FFFBFAF9F8122716900C9612298CDC
:02152A0080D867
:03152C0043C810A1
:10152F00900C9A12299800112A88E4FFFEFDFC9076
:10153F000C9A122950D31228694017900C9A12292D
:10154F004474FFFBFAF9F8122716900C9A12298CA3
:02155F0080D832
:0815610053F87FE4F5F880FE69
:10156900E5E820E00302161EC39002A2E094099068
:1015790002A1E094005003021617900C03E0242006
:0F158900600D14606514606C24E2600302161795
:10159800900C77E030E178125FCF90004AE0FEA32C
:1015A800E0FF900C7AE02FFF900C79E03E900C90D1
:1015B800F0A3EFF090026BE0F538A3E0F539753E43
:1015C80000753F007540777B007A00797E12678E40
:1015D800900005EFF0700953B0BF900C03F0802F16
:0B15E800900C0374E1F043B04080243D
:1015F300900C77E030E11D12811A900C78E0F460D2
:101603000BE06008900C0374E0F08005E4900C0399
:10161300F053B0DFE49002A1F0A3F0900C89E070E6
:1016230003021779E4F09002CDE0F460030216FEA2
:1016330090025EE0640460030216ED900260E064D1
:0616430004703843C810DA
:10164900900C9E1229980001B774E4FFFEFDFC90EE
:101659000C9E122950D31228694017900C9E12290A
:101669004474FFFBFAF9F8122716900C9E12298C84
:0216790080D817
:0B167B0053C8EF900260E0640160675C
:10168600900CA2122998000DBBA0E4FFFEFDFC9071
:101696000CA2122950D31228694017900CA21229C5
:1016A6004474FFFBFAF9F8122716900CA212298C43
:0216B60080D8DA
:0316B80043C81014
:1016BB00900CA612299800112A88E4FFFEFDFC90DD
:1016CB000CA6122950D31228694017900CA6122988
:1016DB004474FFFBFAF9F8122716900CA612298C0A
:0216EB0080D8A5
:1016ED0053B0F753B0BF53B0DF53B0EF53F87F8013
:1016FD00FE9002CDE0FF64F07026900C03EFF0E455
:10170D00F57EF57F90000574FFF043B00843B040BF
:10171D0043B02043B010C2A853E7FD53E7BF801478
:10172D00EFB4F117900C03F053B0F753B0BF53B0B3
:10173D00DF53B0EFE49002CDF08031EF64F2702C06
:10174D00900C03EFF043B00843B04043B02043B0DA
:10175D0010900C02E024FFFD900C01E034FFFCE43E
:10176D00FBFFFE1293D2E4F58443EF0190026BE090
:10177D00FFA3E0900CB1CFF0A3EFF0900C03E0FFCE
:10178D0064E06008EF64E1600302122F900298E0BC
:10179D0070030218DBD390001FE094B890001EE098
:1017AD00940B4007E4900298F08006900298740123
:1017BD00F0C3E57A940AE5796480948040067579E2
:1017CD0000757A09900020E0FEA3E0FFEF24FBFFF7
:1017DD00EE34EBFEE434FFFDE434FFFCE47BE87A09
:1017ED0003F9F8122731E47BE57A24F9F81298F21F
:1017FD00900297EFF0E024CEF0900C03E064E160EE
:10180D000302122F9002CFE0600302122FC3E57680
:10181D00940AE575648094804006757500757609A7
:10182D0090001CE0540FFD90001AE0540FC4F854C2
:10183D00F0C8E4C4540F482DFF90006175F033E5F6
:10184D007A1229EDE57975F033A42583F58375F0CA
:10185D0003E5761229EDE57575F003A42583F5836F
:10186D00EFF090001AA3E0FF90006275F033E57A77
:10187D001229EDE57975F033A42583F58375F00311
:10188D00E5761229EDE57575F003A42583F583EF53
:10189D00F090001CA3E0FF90006375F033E57A1221
:1018AD0029EDE57975F033A42583F58375F003E50E
:1018BD00761229EDE57575F003A42583F583EFF018
:1018CD000576E57670020575126A7402122F900284
:0D18DD0090E0FF90028FE06F7003021B800F
:1018EA00EF75F0DCA4FF900294122A09E92FF9EAB5
:1018FA0035F08B38F539893A900290E0FFB402044A
:10190A007F008003EF04FF900290EFF0900297E0CF
:10191A00FF90006075F033E57A1229EDE57975F0EC
:10192A0033A42583F583EFF0AE79AF7A7C007D335B
:10193A00122566744C2FF974003E753E01F53F89F5
:10194A0040AB38AA39A93A12380290005C75F033D4
:10195A00E57A1229EDE57975F033A42583F583E05C
:10196A0054E075F008A4FFAEF090005D75F033E521
:10197A007A1229EDE57975F033A42583F583E0FD24
:10198A00EEF52EEF4DF52FE52E30E20744F8F52E51
:10199A00852F2F90005C75F033E57A1229EDE579F1
:1019AA0075F033A42583F583E0541C75F040A4FF39
:1019BA00AEF090005E75F033E57A1229EDE579759F
:1019CA00F033A42583F583E0FDEEF530EF4DF531D4
:1019DA00E53030E20744F8F530853131AC30AD31CD
:1019EA00EC122167C004C005C006C007AC30AD3197
:1019FA00EC122167D003D002D001D000121F3EC0E2
:101A0A0004C005C006C007AC2EAD2FEC122167C07A
:101A1A0004C005C006C007AC2EAD2FEC122167D05A
:101A2A0003D002D001D000121F3ED003D002D00151
:101A3A00D000121E4D128F5D7B5C7A8F7982783FBF
:101A4A00121F3E8F378E368D358C347F747ED17D52
:101A5A000D7C40AB37AA36A935A834121F3E122195
:101A6A00A08E328F33900C03E064E17066E5334553
:101A7A0032601C90004AE0FEA3E0FF900C7AE02F4F
:101A8A00FF900C79E03E900C90F0A3EFF080449028
:101A9A000C90E0FEA3E0FF90004AE06E7003A3E022
:101AAA006F7030900C79E0F47003A3E0F460249036
:101ABA000C79E07002A3E0601A12811A900C78E0A7
:101ACA00F4600BE06008900C0374E0F08005E49089
:101ADA000C03F0900C03E064E0600302122F900CF8
:101AEA00AFE07002A3E0600D900CAF74FFF5F01246
:101AFA00260302122F900C8DE0D394055003021294
:101B0A002F90029FE0942C90029EE09401400302E1
:101B1A00122F900C78E0FFC3E5339FE53294005012
:101B2A000302122F900C0374E1F0125FCF90004A67
:101B3A00E0FEA3E0FF900C7AE02FFF900C79E03EE4
:101B4A00900C90F0A3EFF0753E00753F007540775A
:101B5A007B007A00797E12678E900005EFF0700A9A
:101B6A0053B0BF900C03F002122F900C0374E1F0F3
:031B7A0043B04035
:101B7D0002122F900C8EE0FD7017900002E0FEA374
:101B8D00E0FF90026BE06E7003A3E06F6003021242
:101B9D002F900C87E0FF74A08FF08475F00AA4FFDE
:101BAD0090026CE02401FB90026BE03400CB2FFE21
:101BBD00EB35F0900002F0A3CEF0ED700E900C8D91
:101BCD00F090000274FFF5F0122603900C03E0FF75
:101BDD0064E16003021E299002CFE0FE7003021C37
:101BED0084EF64E16003021C84900C8EE0700302AC
:101BFD001E2990025EE0FF6054900C03E064E170DA
:011C0D004C8A
:101C0E00EFB40407900260E0B4040890025EE06452
:101C1E00046039900C87E0900CAAB428057406F085
:101C2E0080037404F0900CAAE0B5062090025F7455
:101C3E0002F0900262E0FEA3E0FF90026CE02FFF44
:0C1C4E0090026BE03E900264F0A3EFF007
:101C5A009002CFE014F06003021E29F575F576F5BF
:101C6A0079F57A900928E024FFFE900927E034FFED
:101C7A00900006F0A3CEF0021E29900C03E0FF6448
:101C8A00E06008EF64E16003021E29C3E576940A66
:101C9A00E575648094804003021E26E576457570DA
:101CAA007A900C62E0540FFD900C60E0540FC4F877
:101CBA0054F0C8E4C4540F482DFF90006175F03306
:101CCA00E57A1229EDE57975F033A42583F5837554
:101CDA00F003E5761229EDE57575F003A42583F581
:101CEA0083EFF0900C60E0A3E0FF90006275F033A0
:101CFA00E57A1229EDE57975F033A42583F5837524
:101D0A00F003E5761229EDE57575F003A42583F550
:101D1A0083EFF0900C62E0A3021DF090005E75F074
:101D2A0033E57A1229EDE57975F033A42583F58335
:101D3A0075F003E5761229EDE57575F003A42583A0
:101D4A00F583E0FF90006175F033E57A1229EDE53D
:101D5A007975F033A42583F58375F003E5761229A6
:101D6A00EDE57575F003A42583F583EFF090005F28
:101D7A0075F033E57A1229EDE57975F033A42583F8
:101D8A00F58375F003E5761229EDE57575F003A480
:101D9A002583F583E0FF90006275F033E57A122916
:101DAA00EDE57975F033A42583F58375F003E576BF
:101DBA001229EDE57575F003A42583F583EFF090FC
:101DCA00006075F033E57A1229EDE57975F033A4F0
:101DDA002583F58375F003E5761229EDE57575F02F
:101DEA0003A42583F583E0FF90006375F033E57A59
:101DFA001229EDE57975F033A42583F58375F0038F
:101E0A00E5761229EDE57575F003A42583F583EFD0
:101E1A00F00576E57670020575021C95128EAFE420
:101E2A00900C8EF09002CEF0900C8DE0600863B0BA
:0C1E3A0020E4F002122F53B0DF02122F40
:108EAF00C3E57A9409E579648094805003028F4B6F
:108EBF00900927E0FCA3E0FD7B017A00794C857EC9
:108ECF005D857F5E7F027E0012913AE57824FFFF79
:108EDF00E57734FFFEC3E57F9FE57E9E402CAD789E
:108EEF00AC777F017E00129355900005E0FFAB78C1
:108EFF00AA77AD7FAC7E12871DE4900C03F0900C27
:108F0F008DF053B0BF53B0DF8008057FE57F70024F
:108F1F00057EE4FFFED3900928E09F900927E09E8D
:108F2F004013744C2FF58274003EF583E4F00FBFAD
:108F3F0000010E80E0E4F579F57A8008057AE57A8C
:098F4F0070020579E4F575F57670
:018F580022F6
:0C810E0053B0F753B0BF53B0DF53B0EFD5
:10811A0053B0BF53B0DF900C03E064E170279002C4
:10812A00CFE0701190029DE0600BAD78AC777F01D3
:10813A007E00129355900005E0FFAB78AA77AD7FD9
:0D814A00AC7E12871D90025FE06403707030
:10815700900CB712299800015F90E4FFFEFDFC9098
:108167000CB7122950D31228694017900CB712295F
:108177004474FFFBFAF9F8122716900CB712298CF2
:0281870080D89E
:03818900E4F5C852
:10818C00900CBB12299800020F58E4FFFEFDFC90E6
:10819C000CBB122950D31228694017900CBB122922
:1081AC004474FFFBFAF9F8122716900CBB12298CB9
:0281BC0080D869
:1081BE0090025F7401F0A304F090025EE0FFB4043D
:1081CE0008900260E064046013EF6404700302829E
:0C81DE009890025FE06404600302829845
:1081EA00900CBF12299800015F90E4FFFEFDFC90FD
:1081FA000CBF122950D31228694017900CBF1229BC
:10820A004474FFFBFAF9F8122716900CBF12298C56
:02821A0080D80A
:10821C0090025EE024FD603C1460042403706D4306
:02822C00C81078
:10822E00900CC31229980001B774E4FFFEFDFC9078
:10823E000CC3122950D3122869404C900CC312293A
:10824E004474FFFBFAF9F8122716900CC312298C0E
:02825E0080D8C6
:0382600043C81000
:10826300900CC71229980001B774E4FFFEFDFC903F
:108273000CC7122950D31228694017900CC7122932
:108283004474FFFBFAF9F8122716900CC712298CD5
:0282930080D891
:0D82950053C8EF90025F7401F0E4F5C822B9
:105FCF0090026BE0F53DA3E0F53EE4F579F57AF547
:105FDF0075F576900C8DF0A3F0900927E0FEA3E005
:105FEF00FF7B017A00794C75570075580112909F0D
:105FFF0090004FE0540F900BBDF0900050E0900CCC
:10600F0088F090004EE075F0169001211229EDE016
:10601F00A3E0540F9002A0F090004EE075F01690A0
:10602F0001231229EDE0FFA3E0900299CFF0A3EF37
:10603F00F0900BBDE024FC601424027027900C87B5
:10604F007414F0900262E4F0A374608026900C87C1
:10605F007428F0900262E4F0A37462F09002CF749F
:10606F0006F08016900C87740AF09002627401F0AB
:10607F00A37458F09002CF7404F0900C88E0900253
:10608F009DF0900299E0FCA3E0FD4C700890000C8D
:10609F00F0A3F080679002A0E0701E122167A804A1
:1060AF00A905AA06AB07E4FFFE7D7A7C48122047BC
:1060BF001221A07C007DF080389002A0E0B40F0385
:1060CF007410F0900299E0FCA3E0FDE4122167A8A0
:1060DF0004A905AA06AB07E4FFFE7D7A7C481220CF
:1060EF00471221A09002A0E0FD74788DF084FD7C12
:1060FF000012256690000CEEF0A3EFF0E5D85403E4
:10610F00700790029DF00263EC7B017A00794C7569
:10611F0057007558037F107E0212909FE4F53BF5F0
:10612F003C90006475F028E53C1229EDE53B75F0D5
:10613F0028A42583F583E024FB601524FB702274CB
:10614F006D253CF5827402353BF5837403F0802096
:10615F00746D253CF5827402353BF5837402F08033
:10616F000F746D253CF5827402353BF5837404F092
:10617F00053CE53C7002053B6404453B70A3E4F528
:10618F003BF53C90007175F028E53C1229EDE53B9D
:10619F0075F028A42583F583E0FDE53C25E0FFE5B8
:1061AF003B33FE740F2FF58274003EF583EDF090B4
:1061BF00006575F028E53C1229EDE53B75F028A444
:1061CF002583F58312295090006975F028E53C125C
:1061DF0029EDE53B75F028A42583F5831229441298
:1061EF001E49C004C005C006C00790006575F028A1
:1061FF00E53C1229EDE53B75F028A42583F58312C4
:10620F00295090006D75F028E53C1229EDE53B759E
:10621F00F028A42583F583122944121E49D003D0F8
:10622F0002D001D000122047E4FBFAF9F81220E463
:10623F0090006575F028600540030262CAE53C12C4
:10624F0029EDE53B75F028A42583F583122950909D
:10625F00006975F028E53C1229EDE53B75F028A49F
:10626F002583F583122944121E49C004C005C006B8
:10627F00C00790006575F028E53C1229EDE53B75E8
:10628F00F028A42583F58312295090006D75F0280E
:10629F00E53C1229EDE53B75F028A42583F5831223
:1062AF002944121E49D003D002D001D0001220473A
:1062BF00C004C005C006C007026350E53C1229EDBB
:1062CF00E53B75F028A42583F583122950900069CA
:1062DF0075F028E53C1229EDE53B75F028A42583E0
:1062EF00F583122944121E49C004C005C006C00719
:1062FF0090006575F028E53C1229EDE53B75F02817
:10630F00A42583F58312295090006D75F028E53C84
:10631F001229EDE53B75F028A42583F58312294456
:10632F00121E49D003D002D001D0001220471221F3
:10633F0051AB07AA06A905A804C000C001C002C03E
:10634F000390007275F028E53C1229EDE53B75F0DE
:10635F0028A42583F583E0FF90007375F028E53CB2
:10636F001229EDE53B75F028A42583F583E0C39F43
:10637F00FDE49400FCE4122167D003D002D001D0D9
:10638F0000121F3EC004C005C006C0079000727502
:10639F00F028E53C1229EDE53B75F028A42583F59F
:1063AF0083E0FCE412216CD003D002D001D00012A4
:1063BF001E4D1221A0AD07E53C25E0FFE53B33FE66
:1063CF00740E2FF58274003EF583EDF0053CE53C2D
:1063DF007002053B6404453B600302619290029D8D
:1063EF00E030E7034403F0E4F53BF53CD390092894
:1063FF00E0953C900927E0953B4018744C253CF5FF
:10640F00827400353BF583E4F0053CE53C70DD0517
:03641F003B80D9E6
:016422002257
:096A740090029DE07003026D48E0
:036A7D00753B0660
:106A8000AF3B90029DE0FEA807088002C313D8FC2C
:106A900020E003026D3AE53B122AA46C16006C0D4F
:106AA000016AFE026AFE036ABC046ABC056AB40697
:106AB00000006CA3E5D8F4F53C026CA3AF3BEF33C8
:106AC00095E0FEEF25E0FFEE33FE741E2FF5827495
:106AD000003EF583E0FEA3E0FFAD3BED3395E0FC27
:106AE000746B2DF58274023CF583E0FDEFA8050878
:0E6AF0008005CEC313CE13D8F9F53C026CA37B
:106AFE00E4F53DAF3BEF3395E0FEEF25E0FFEE33DF
:106B0E00FE741E2FF58274003EF583E0FEA3E0FFB7
:106B1E00AD3BED3395E0FC746B2DF58274023CF5C4
:106B2E0083E0FBEFA803088005CEC313CE13D8F97C
:106B3E00F53C74062DF58274003CF583E06402602A
:106B4E0003026CA3AF3BEF3395E0FEEF25E0FFEEC3
:106B5E0033FE740B2FF58274003EF583E060230440
:106B6E00604624FE706A740A2FF58274003EF58327
:106B7E00E0FFE53CD39F40047F0180027F008F3D04
:106B8E00804EAF3BEF3395E0FEEF25E0FFEE33FE98
:106B9E00740A2FF58274003EF583E0B53C047F0144
:106BAE0080027F008F3D8028AF3BEF3395E0FEEFF4
:106BBE0025E0FFEE33FE740A2FF58274003EF58356
:106BCE00E0FFE53CC39F50047F0180027F008F3DB4
:106BDE00E53D6015E53B2402FF7401A8070880021D
:106BEE00C333D8FC42C8026CA3E53B2402FF7401F8
:0F6BFE00A807088002C333D8FCF452C8026CA366
:096C0D0090025CE0F53C026CA36E
:106C160090025CE0FEA3E0FFF53C90000CE0FCA3D4
:106C2600E0FD4C6078EF4E6074D3ED9FEC9E5038DB
:106C3600E4F53DF53E7408253EF5827400353DF5D4
:106C460083E0B40113E53E2404FF7401A80708801D
:106C560002C333D8FCF452C8053EE53E7002053D3A
:106C66006402453D70CF8035E4F53DF53E74082558
:106C76003EF5827400353DF583E0B40112E53E240D
:106C860004FF7401A807088002C333D8FC42C80574
:0D6C96003EE53E7002053D6402453D70D0B4
:106CA30075450075460075473C900006E0FAA3E081
:106CB300FB7D017C007F017E00129252900006E072
:106CC3007002A3E0600C90000674FFF5F012260337
:106CD3008065AD78AC777F017E00129355E578240B
:106CE300FFFFE57734FFFEC3E57F9FE57E9E4023EC
:106CF300900005E0FFAB78AA77AD7FAC7E12871DCD
:106D0300E4900C03F0900C8DF053B0BF53B0DFF55B
:106D1300C88024E578157870021577900927E0FC80
:106D2300A3E0FD24FFFEEC34FF900006F0A3CEF0B9
:076D33007F017E001294B104
:0E6D3A00153BC3E53B648094804003026A80F1
:016D48002228
:109583008B5B8A5C895DE92DF9EA3C8B5EF55F892B
:1095930060E4F561F562C3855F83856082E55D956F
:1095A30082E55C9583502F785BE475F0011229F90D
:1095B3001224B9FFE5626F25E0FFE433FE74492FFF
:1095C300F58274753EF583E561FFE493F5617401FB
:0A95D300936FF56280C0AE61AF62D5
:0195DD00226B
:1089BC00E4900CF7F07B017A0C790712968F900CEF
:1089CC0070E07004A3E064D7700C900C72E070043B
:1089DC00A3E064086018900C70E4F0A374D7F090D6
:1089EC000C72E4F0A37408F0900CF77401F0900C86
:1089FC0059E0B46508900C58E064016010900C5973
:108A0C007465F0900C587401F0900CF7F0900C0118
:108A1C00E0FCA3E0FDB40015ECB41011900C75E073
:108A2C0030E40AE054EFF0900CF77401F0E4B50573
:108A3C0015ECB42011900C75E020E40AE04410F021
:108A4C00900CF77401F0900C07E0FF129A5C400D4B
:108A5C00900C07E06007E4F0900CF704F0900C1B0E
:108A6C00E0FF129A5C400D900C1BE06007E4F09064
:108A7C000CF704F0900C2FE0FF129A5C400D900C58
:108A8C002FE06007E4F0900CF704F0900C78E0B461
:108A9C00FF07E4F0900CF704F0900C79E0B4FF11B0
:108AAC00A3E0B4FF0CE4900C79F0A3F0900CF70465
:108ABC00F0900CF7E060101299CE7B017A0C7907DC
:078ACC007D807C0012944242
:018AD3002280
:1099CE00AF84E4F584781EF608F6A2AF33FEC2AF7C
:1099DE0043B701758F0718E6FC08E6F5828C83E421
:0D99EE00F0F58F53B7FEEE24FF92AF8F848B
:0199FB002249
:0A9442008B4F8A5089518C528D53D4
:10944C00858454E4F584781EF608F6A2AF33FFC287
:10945C00AF43B701758F05E4F555F556C3E5569541
:10946C0053E5526480F8E5556480985029784FE4B0
:10947C0075F0011229F91224B9FE781E0806E618B7
:10948C00860470010614F5828C83EEF00556E556C1
:10949C0070CA055580C6E4F58F53B7FEEF24FF92D2
:0494AC00AF855484B0
:0194B0002299
:06968F008B4F8A50895147
:10969500858452E4F553F554F584A2AF33F555C2EC
:1096A500AF758F04E4FFFE0554E554AC5370020515
:1096B5005314F5828C83E493FD784FE475F0011221
:1096C50029F9ED1225320FBF00010EEF64804E70AF
:0D96D500D6E4F58FE55524FF92AF85528451
:0196E2002265
:0E913A008E568F578C588D598B5A8A5B895CE4
:0A91480012007EEF30E7F953F8FD46
:10915200E4F561F5620562E562700205616440450D
:039162006170F247
:10916500E5576401455670047F8480027F87129A13
:109175004BE4FF129A4BE4FF129A4BE4FF129A4B11
:10918500E4F55FF560C3E5609559E5586480F8E559
:109195005F648098501DAB5AAA5BA95C8560828587
:1091A5005F831224D2FF129A4B0560E56070D605E5
:1091B5005F80D243F802AD5EAC5DAF57AE56029309
:0191C5005554
:089355008E638F648C658D6648
:10935D00900927E0FEA3E0FF1290038F6712007EB5
:07936D00EF30E7F953F8FDB2
:10937400E4F568F5690569E56970020568644045C6
:039384006870F21C
:10938700E5676010E5646401456370047F838012BC
:109397007F86800EE5646401456370047F828002E6
:1093A7007F85129A4BE566AE657806CEA2E713CEA7
:1093B70013D8F8FF129A4BAF66EF25E025E0FF12AE
:0A93C7009A4BE4FF129A4B43F802A0
:0193D1002279
:0C9252008E3F8F408C418D428A438B443C
:0A925E0012007EEF30E7F953F8FD2F
:10926800E4F54AF54B054BE54B7002054A64404569
:039278004A70F247
:10927B00E5406401453F70047F8480027F87129A2A
:10928B004BE4FF129A4BE5435403FF129A4BAF4446
:10929B00E544129A4BE4F548F549C3E5499542E597
:1092AB00416480F8E548648098501DAB45AA46A9F7
:1092BB00478549828548831224D2FF129A4B054970
:0B92CB00E54970D6054880D243F80248
:0192D6002275
:0894B1008E418F428C438D4473
:0A94B90012007EEF30E7F953F8FDD2
:1094C300E4F547F5480548E548700205476440451B
:0394D3004770F2ED
:1094D600E5426401454170047F8480027F87129AC9
:1094E6004BE4FF129A4BE4FF129A4BE4FF129A4B9D
:1094F600E4F545F546C3E5469544E5436480F8E55D
:1095060045648098500F7FFF129A4B0546E54670DA
:08951600E4054580E043F80282
:01951E00222A
:03007E0053F8FD37
:10008100E4F573F5740574E5747002057364404515
:030091007370F297
:0D0094007FD7129A4BE4FF129A4B43F802FB
:0100A100223C
:0A909F008E528F538B548A55895668
:0A90A90012007EEF30E7F953F8FDE6
:1090B300E4F55BF55C055CE55C7002055B644045CB
:0390C3005B70F2ED
:1090C6007FD2129A4BE558AE577806CEA2E713CE5A
:1090D60013D8F8FF129A4BAF58EF25E025E0FF12A0
:1090E6009A4BE4FF129A4BE4FF129A4BE4FF129A52
:1090F6004BE4FF129A4BE4FF129A4BE4F559F55AEA
:10910600C3E55A9553E5526480F8E5596480985052
:109116001FE4FF129A4BAB54AA55A956855A82856D
:109126005983EF122544055AE55A70D4055980D063
:0391360043F802F9
:019139002213
:089003008E6A8F6B8C6C8D6D81
:0D900B00756E0112007EEF30E7F953F8FD9D
:10901800E4F571F5720572E57270020571644045F8
:039028007170F272
:10902B007FD2129A4BE56DAE6C7806CEA2E713CECB
:10903B0013D8F8FF129A4BAF6DEF25E025E0FF1226
:10904B009A4BE4FF129A4BE4FF129A4BE4FF129AED
:10905B004BE4FF129A4BE4FF129A4BE4F56FF57059
:10906B00C3E570956BE56A6480F8E56F6480985092
:10907B001DE4FF129A4BBFFF047F0180027F008F1C
:10908B006EEF600A0570E57070D6056F80D243F8FD
:03909B0002AF6EB3
:01909E0022AF
:049783008E528F5320
:0A97870012007EEF30E7F953F8FD01
:10979100E4F554F5550555E5557002055464404509
:0397A1005470F20F
:1097A4007F50129A4BE553AE527806CEC313CE13B4
:1097B400D8F9FF129A4BAF53EF25E025E0FF129A38
:0997C4004BE4FF129A4B43F8023A
:0197CD002279
:0497CE008E528F53D5
:0A97D20012007EEF30E7F953F8FDB6
:1097DC00E4F554F5550555E55570020554644045BE
:0397EC005470F2C4
:1097EF007F81129A4BE553AE527806CEC313CE1338
:1097FF00D8F9FF129A4BAF53EF25E025E0FF129AED
:09980F004BE4FF129A4B43F802EE
:01981800222D
:0693D2008C4D8D4E8B4F07
:1093D800E54F600353B0BF8E508F51D3E551954E82
:1093E800E550954D504CE55154077035C3E54E9501
:1093F80051FFE54D9550FEC3EF9408EE94004021CF
:10940800E54F6009E551543F700363B040AF51AE7A
:109418005012978374072551F551E43550F5508063
:1094280007AF51AE501297CE0551E55170AD0550BA
:0994380080A9E54F600353B0BFA9
:019441002208
:068AD4008B3B8A3C893D4A
:098ADA0043F80143F80253F8FBD4
:108AE300E4F541F5420542E5427002054164404523
:038AF3004170F2DD
:038AF60043F8043E
:108AF900E4F541F5420542E542700205416440450D
:038B09004170F2C6
:108B0C0012007EEF543C122AA48B2E0C8B38148B43
:108B1C00421C8B4C248B672C8B82348B9D3C00002D
:108B2C008BB9AB3BAA3CA93D7402801CAB3BAA3C65
:108B3C00A93D74048012AB3BAA3CA93D7408800883
:108B4C00AB3BAA3CA93D741075F0001226CAAB3E93
:108B5C00AA3FA940740175F008804FAB3BAA3CA911
:108B6C003D741075F0001226CAAB3EAA3FA94074A2
:108B7C000275F0108034AB3BAA3CA93D742075F013
:108B8C00001226CAAB3EAA3FA940740275F01080B1
:108B9C0019AB3BAA3CA93D742075F0001226CAAB58
:0D8BAC003EAA3FA940740475F0201226CAAD
:018BB9002299
:106D4900257300506C61636520756E697420666CEB
:106D59006174206F6E206C6576656C207375726640
:106D69006163652E00486F6C64207665727469638F
:106D7900616C2C2047505320616E74656E6E6120E2
:106D89006A61636B2075702E00486F6C64207665AC
:106D990072746963616C2C2047505320616E74656D
:106DA9006E6E61206A61636B20646F776E2E00538B
:106DB90074616E64206F6E207269676874207369EC
:106DC90064652E005374616E64206F6E206C656675
:106DD9007420736964652E00496E76657274696EF4
:106DE9006720582056616C75657300496E76657227
:106DF90074696E6720592056616C756573002000AF
:106E090043616C6962726174696F6E2056616C7559
:106E190065733A2025752C202575004163747561C9
:106E29006C205A65726F20506F696E74733A2058DE
:106E39002025752C205920257500582052616E6730
:106E4900653A2025642C20256400592052616E671B
:106E5900653A2025642C2025640053746F72696E8D
:106E6900672043616C6962726174696F6E20446165
:106E7900746120696E20466C6173682E0043616CF1
:106E89006962726174696F6E20436F6D706C6574AD
:106E9900652E00547261716D61746520496E70755B
:106EA90074205465737400444947494E3A200031AF
:106EB900003000583A2025752C20593A20257500B4
:106EC90035563A2025752C20543A20257500413035
:106ED9003A2025752C2041313A2025750041323A56
:106EE9002025752C2041333A20257500496E70758F
:106EF900745465737420436F6D706C6574652E00EE
:106F0900547261716D617465204F75747075742068
:106F19005465737400626974202564004F75747038
:106F290075745465737420436F6D706C6574652E48
:106F39000025752C25750043616C3A2025642C25A4
:106F4900640056616C3A2025752C257500582C2053
:106F590059205A65726F6564204F75740046696ED1
:106F6900616C2043616C3A2025642C2564004669D4
:106F79006E616C2056616C3A2025752C257500448C
:106F8900617461666C6173682054657374002A2AA0
:106F99002A2A2A2A20466C61736820577269746507
:106FA900204641494C4544202A2A2A2A2A2A2C20AB
:106FB900706167652025642C2062797465256400F9
:106FC900466C617368206F6B20706167652025646A
:106FD9000044617461666C6173685465737420431D
:106FE9006F6D706C6574652E0001020408102040F5
:096FF90080010204081020408010
:102C880085844C9000047401F075840FFB7A0C79EC
:102C98000712968FE4900C57F090754593900C5856
:102CA800F0A37465F0900C70E4F0A374D7F0900C66
:102CB80072E4F0A37408F074FFFFFEFDFC900C5A58
:102CC800122950C312287F700A900C5A12299800B2
:102CD800000000900C5EE0B4FF037401F0900C5FFC
:102CE800E0B4FF037408F0900C7474FFF0A3F09044
:102CF8000C607408F0A3E4F0900C627408F0A3E48C
:102D0800F0900C07F0900C1BF0900C2FF0900C6ECC
:102D1800F0A374A0F0900C6CE4F0A374A0F0E4901D
:102D280002A1F0A3F043B00843B04043B02043B041
:102D38001090754693FF3395E0FE90027E75F01370
:102D4800EF1229EDEE75F013A42583F583122A09F5
:102D5800E92407F9E43AFA7555FF75566D75574930
:102D68007558FF75596D755A4C125BBC907546E4E1
:102D780093FF3395E0FE90027E75F013EF1229ED74
:102D8800EE75F013A42583F583122A09E92407F9BF
:102D9800E43AFA12000EEF2401F556E43EF5559098
:102DA8007545E493FF7B737D01127D9D1272B2120B
:0E2DB80055D353B0F753B0BF53B0DF53B0EF55
:102DC600900CC3122998000107ACE4FFFEFDFC90AD
:102DD6000CC3122950D31228694017900CC312292C
:102DE6004474FFFBFAF9F8122716900CC312298CCB
:022DF60080D883
:102DF800907546E493FF3395E0FE90027E75F013DC
:102E0800EF1229EDEE75F013A42583F583122A0934
:102E1800E92407F9E43AFA7555FF75566D7557496F
:102E28007558FF75596D755A6E125BBC907546E4FE
:102E380093FF3395E0FE90027E75F013EF1229EDB3
:102E4800EE75F013A42583F583122A09E92407F9FE
:102E5800E43AFA12000EEF2401F556E43EF55590D7
:102E68007545E493FF7B737D01127D9D1272B290CC
:102E780010E7E0FEA3E0FF9010E4E02FFF9010E3DE
:102E8800E03EC313FEEF13FF900C66EEF0A3EFF0E5
:032E980043B0083C
:102E9B00900CC7122998000107ACE4FFFEFDFC90D3
:102EAB000CC7122950D31228694017900CC712294E
:102EBB004474FFFBFAF9F8122716900CC712298CF1
:022ECB0080D8AD
:102ECD00907546E493FF3395E0FE90027E75F01306
:102EDD00EF1229EDEE75F013A42583F583122A095F
:102EED00E92407F9E43AFA7555FF75566D7557499A
:102EFD007558FF75596D755A92125BBC907546E405
:102F0D0093FF3395E0FE90027E75F013EF1229EDDD
:102F1D00EE75F013A42583F583122A09E92407F928
:102F2D00E43AFA12000EEF2401F556E43EF5559001
:102F3D007545E493FF7B737D01127D9D1272B290F6
:102F4D0010E7E0FEA3E0FF9010E4E02FFF9010E308
:102F5D00E03EC313FEEF13FF900C64EEF0A3EFF011
:032F6D0043B0402E
:102F7000900CCB122998000107ACE4FFFEFDFC90F9
:102F80000CCB122950D31228694017900CCB122970
:102F90004474FFFBFAF9F8122716900CCB12298C17
:022FA00080D8D7
:102FA200907546E493FF3395E0FE90027E75F01330
:102FB200EF1229EDEE75F013A42583F583122A0989
:102FC200E92407F9E43AFA7555FF75566D755749C4
:102FD2007558FF75596D755AB8125BBC907546E409
:102FE20093FF3395E0FE90027E75F013EF1229ED08
:102FF200EE75F013A42583F583122A09E92407F953
:10300200E43AFA12000EEF2401F556E43EF555902B
:103012007545E493FF7B737D01127D9D1272B29020
:1030220010E9E0FEA3E0FF9010E6E02FFF9010E52C
:10303200E03EC313FEEF13FF900C68EEF0A3EFF037
:0330420043B02078
:10304500900CCF122998000107ACE4FFFEFDFC901F
:103055000CCF122950D31228694017900CCF122992
:103065004474FFFBFAF9F8122716900CCF12298C3D
:0230750080D801
:10307700907546E493FF3395E0FE90027E75F0135A
:10308700EF1229EDEE75F013A42583F583122A09B3
:10309700E92407F9E43AFA7555FF75566D755749EE
:1030A7007558FF75596D755ACD125BBC907546E41E
:1030B70093FF3395E0FE90027E75F013EF1229ED32
:1030C700EE75F013A42583F583122A09E92407F97D
:1030D700E43AFA12000EEF2401F556E43EF5559056
:1030E7007545E493FF7B737D01127D9D1272B2904B
:1030F70010E9E0FEA3E0FF9010E6E02FFF9010E557
:10310700E03EC313FEEF13FF900C6AEEF0A3EFF05F
:1031170043B010900C64E0FEA3E0FFC3900C67E09F
:0B3127009F900C66E09E400302320304
:10313200900CD3122998000107ACE4FFFEFDFC902D
:103142000CD3122950D31228694017900CD312299C
:103152004474FFFBFAF9F8122716900CD312298C4B
:0231620080D813
:10316400907546E493FF3395E0FE90027E75F0136C
:10317400EF1229EDEE75F013A42583F583122A09C5
:10318400E92407F9E43AFA7555FF75566D75574900
:103194007558FF75596D755AE1125BBC907546E41C
:1031A40093FF3395E0FE90027E75F013EF1229ED44
:1031B400EE75F013A42583F583122A09E92407F98F
:1031C400E43AFA12000EEF2401F556E43EF5559068
:1031D4007545E493FF7B737D01127D9D900C66E041
:1031E400F54DA3E0F54E900C64E0FFA3E0900C666F
:1031F400CFF0A3EFF0900C64E54DF0A3E54EF09012
:103204000C68E0FEA3E0FFC3900C6BE09F900C6A97
:07321400E09E40030232ECD2
:10321B00900CD7122998000107ACE4FFFEFDFC903F
:10322B000CD7122950D31228694017900CD71229AA
:10323B004474FFFBFAF9F8122716900CD712298C5D
:02324B0080D829
:10324D00907546E493FF3395E0FE90027E75F01382
:10325D00EF1229EDEE75F013A42583F583122A09DB
:10326D00E92407F9E43AFA7555FF75566D75574916
:10327D007558FF75596D755AF4125BBC907546E41F
:10328D0093FF3395E0FE90027E75F013EF1229ED5A
:10329D00EE75F013A42583F583122A09E92407F9A5
:1032AD00E43AFA12000EEF2401F556E43EF555907E
:1032BD007545E493FF7B737D01127D9D900C6AE053
:1032CD00F54DA3E0F54E900C68E0FFA3E0900C6A7D
:0F32DD00CFF0A3EFF0900C68E54DF0A3E54EF0B5
:1032EC00900CDB122998000107ACE4FFFEFDFC906A
:1032FC000CDB122950D31228694017900CDB1229D1
:10330C004474FFFBFAF9F8122716900CDB12298C87
:02331C0080D857
:10331E00907546E493FF3395E0FE90027E75F013B0
:10332E00EF1229EDEE75F013A42583F583122A0909
:10333E00E92407F9E43AFA7555FF75566D75574944
:10334E007558FF75596E755A07125BBC907546E439
:10335E0093FF3395E0FE90027E75F013EF1229ED88
:10336E00EE75F013A42583F583122A09E92407F9D3
:10337E00E43AFA12000EEF2401F556E43EF55590AC
:0C338E007545E493FF7B737D01127D9D6B
:10339A00900CDF122998000107ACE4FFFEFDFC90B7
:1033AA000CDF122950D31228694017900CDF12291A
:1033BA004474FFFBFAF9F8122716900CDF12298CD5
:0233CA0080D8A9
:1033CC00907546E493FF3395E0FE90027E75F01302
:1033DC00EF1229EDEE75F013A42583F583122A095B
:1033EC00E92407F9E43AFA7555FF75566E755709D5
:1033FC00900C6CE0F558A3E0F559900C6EE0F55A82
:10340C00A3E0F55B125BBC907546E493FF3395E04B
:10341C00FE90027E75F013EF1229EDEE75F013A4F9
:10342C002583F583122A09E92407F9E43AFA1200F4
:10343C000EEF2401F556E43EF555907545E493FFE7
:07344C007B737D01127D9DE1
:10345300900CE3122998000107ACE4FFFEFDFC90F9
:103463000CE3122950D31228694017900CE3122958
:103473004474FFFBFAF9F8122716900CE312298C17
:0234830080D8EF
:10348500907546E493FF3395E0FE90027E75F01348
:10349500EF1229EDEE75F013A42583F583122A09A1
:1034A500E92407F9E43AFA7555FF75566E75572400
:1034B500900C60E0F558A3E0F559900C62E0F55AE0
:1034C500A3E0F55B125BBC907546E493FF3395E092
:1034D500FE90027E75F013EF1229EDEE75F013A440
:1034E5002583F583122A09E92407F9E43AFA12003B
:1034F5000EEF2401F556E43EF555907545E493FF2E
:073505007B737D01127D9D27
:10350C00900CE7122998000107ACE4FFFEFDFC903B
:10351C000CE7122950D31228694017900CE7122996
:10352C004474FFFBFAF9F8122716900CE712298C59
:02353C0080D835
:10353E00907546E493FF3395E0FE90027E75F0138E
:10354E00EF1229EDEE75F013A42583F583122A09E7
:10355E00E92407F9E43AFA7555FF75566E75574327
:10356E00900C64E0F558A3E0F559900C66E0F55A1E
:10357E00A3E0F55B125BBC907546E493FF3395E0D8
:10358E00FE90027E75F013EF1229EDEE75F013A486
:10359E002583F583122A09E92407F9E43AFA120081
:1035AE000EEF2401F556E43EF555907545E493FF74
:0735BE007B737D01127D9D6E
:1035C500900CEB122998000107ACE4FFFEFDFC907E
:1035D5000CEB122950D31228694017900CEB1229D5
:1035E5004474FFFBFAF9F8122716900CEB12298C9C
:0235F50080D87C
:1035F700907546E493FF3395E0FE90027E75F013D5
:10360700EF1229EDEE75F013A42583F583122A092D
:10361700E92407F9E43AFA7555FF75566E7557535D
:10362700900C68E0F558A3E0F559900C6AE0F55A5C
:10363700A3E0F55B125BBC907546E493FF3395E01E
:10364700FE90027E75F013EF1229EDEE75F013A4CC
:103657002583F583122A09E92407F9E43AFA1200C7
:103667000EEF2401F556E43EF555907545E493FFBA
:073677007B737D01127D9DB4
:10367E00900CEF122998000107ACE4FFFEFDFC90C0
:10368E000CEF122950D31228694017900CEF122913
:10369E004474FFFBFAF9F8122716900CEF12298CDE
:0236AE0080D8C2
:1036B000907546E493FF3395E0FE90027E75F0131B
:1036C000EF1229EDEE75F013A42583F583122A0974
:1036D000E92407F9E43AFA7555FF75566D755749AF
:1036E0007558FF75596E755A63125BBC907546E448
:1036F00093FF3395E0FE90027E75F013EF1229EDF3
:10370000EE75F013A42583F583122A09E92407F93D
:10371000E43AFA12000EEF2401F556E43EF5559016
:103720007545E493FF7B737D01127D9D1299CE7BDD
:0C373000017A0C79077D747C0012944231
:10373C00900CF3122998000107ACE4FFFEFDFC90FD
:10374C000CF3122950D31228694017900CF312294C
:10375C004474FFFBFAF9F8122716900CF312298C1B
:02376C0080D803
:10376E00907546E493FF3395E0FE90027E75F0135C
:10377E00EF1229EDEE75F013A42583F583122A09B5
:10378E00E92407F9E43AFA7555FF75566D755749F0
:10379E007558FF75596E755A86125BBC907546E466
:1037AE0093FF3395E0FE90027E75F013EF1229ED34
:1037BE00EE75F013A42583F583122A09E92407F97F
:1037CE00E43AFA12000EEF2401F556E43EF5559058
:1037DE007545E493FF7B737D01127D9D43B00853C5
:1037EE00B0BF53B0DF53B0EFE4900004F01289BCC9
:0337FE00854C8473
:0138010022A4
:104EF70085844C78E37C0C7D017BFF7A6F79F27EA9
:0C4F0700007F081224939000047401F055
:104F1300900CC3122998000107ACE4FFFEFDFC903E
:104F23000CC3122950D31228694017900CC31229BD
:104F33004474FFFBFAF9F8122716900CC312298C5C
:024F430080D814
:104F4500907546E493FF3395E0FE90027E75F0136D
:104F5500EF1229EDEE75F013A42583F583122A09C6
:104F6500E92407F9E43AFA7555FF75566D75574901
:104F75007558FF75596E755A9C125BBC907546E461
:104F850093FF3395E0FE90027E75F013EF1229ED45
:104F9500EE75F013A42583F583122A09E92407F990
:104FA500E43AFA12000EEF2401F556E43EF5559069
:104FB5007545E493FF7B737D01127D9DE49002A10D
:034FC500F0A3F066
:104FC80075840FE5E830E019C39002A2E0940990D7
:104FD80002A1E094004003025509E49002A1F0A365
:0C4FE800F0900298E060D9E4F085D84D0C
:104FF400900CC71229980006DDD0E4FFFEFDFC905A
:105004000CC7122950D31228694017900CC71229D3
:105014004474FFFBFAF9F8122716900CC712298C76
:0250240080D832
:10502600907546E493FF3395E0FE90027E75F0138B
:10503600EF1229EDEE75F013A42583F583122A09E4
:10504600E92407F9E43AFA7555FF75566D7557491F
:105056007558FF75596E755A07125BBC907546E414
:1050660093FF3395E0FE90027E75F013EF1229ED63
:10507600EE75F013A42583F583122A09E92407F9AE
:10508600E43AFA12000EEF2401F556E43EF5559087
:0C5096007545E493FF7B737D01127D9D46
:1050A200900CCB122998000107ACE4FFFEFDFC90A6
:1050B2000CCB122950D31228694017900CCB12291D
:1050C2004474FFFBFAF9F8122716900CCB12298CC4
:0250D20080D884
:1050D4007555FF75566E7557B07B017A0C79EB12D6
:1050E4005BBC754E00754F067B017A0C79EB1200A0
:1050F4000E74EB2FF9740C3EFA7B01C003C002C09E
:105104000174E3254FF582740C354EF583E0554D5B
:105114007BFF60067A6E79B880047A6E79BA8B5513
:105124008A568957D001D002D003125BBCE54F15D3
:105134004F7002154EC3E54E6480948050AA90755A
:1051440046E493FF3395E0FE90027E75F013EF1270
:1051540029EDEE75F013A42583F583122A09E924B9
:1051640007F9E43AFA7555FF75566D755749755840
:105174000175590C755AEB125BBC907546E493FFAC
:105184003395E0FE90027E75F013EF1229EDEE7573
:10519400F013A42583F583122A09E92407F9E43AD4
:1051A400FA12000EEF2401F556E43EF555907545CC
:0A51B400E493FF7B737D01127D9DE3
:1051BE00900CCF122998000107ACE4FFFEFDFC9085
:1051CE000CCF122950D31228694017900CCF1229F8
:1051DE004474FFFBFAF9F8122716900CCF12298CA3
:0251EE0080D867
:1051F0007555FF75566E7557BC90001AE0F558A3AB
:10520000E0F559A3E0F55AA3E0F55B7B017A0C7950
:10521000EB125BBC907546E493FF3395E0FE900281
:105220007E75F013EF1229EDEE75F013A42583F5CA
:1052300083122A09E92407F9E43AFA7555FF7556ED
:105240006D75574975580175590C755AEB125BBC51
:10525000907546E493FF3395E0FE90027E75F0135F
:10526000EF1229EDEE75F013A42583F583122A09B8
:10527000E92407F9E43AFA12000EEF2401F556E4A6
:105280003EF555907545E493FF7B737D01127D9D3E
:10529000900CD3122998000107ACE4FFFEFDFC90AE
:1052A0000CD3122950D31228694017900CD312291D
:1052B0004474FFFBFAF9F8122716900CD312298CCC
:0252C00080D894
:1052C2007555FF75566E7557C990001EE0F558A3C7
:1052D200E0F559A3E0F55AA3E0F55B7B017A0C797E
:1052E200EB125BBC907546E493FF3395E0FE9002AF
:1052F2007E75F013EF1229EDEE75F013A42583F5F8
:1053020083122A09E92407F9E43AFA7555FF75561A
:105312006D75574975580175590C755AEB125BBC7E
:10532200907546E493FF3395E0FE90027E75F0138C
:10533200EF1229EDEE75F013A42583F583122A09E5
:10534200E92407F9E43AFA12000EEF2401F556E4D3
:105352003EF555907545E493FF7B737D01127D9D6B
:10536200900CD7122998000107ACE4FFFEFDFC90D7
:105372000CD7122950D31228694017900CD7122942
:105382004474FFFBFAF9F8122716900CD712298CF5
:0253920080D8C1
:105394007555FF75566E7557D7900022E0F558A3E2
:1053A400E0F559A3E0F55AA3E0F55B7B017A0C79AB
:1053B400EB125BBC907546E493FF3395E0FE9002DC
:1053C4007E75F013EF1229EDEE75F013A42583F525
:1053D40083122A09E92407F9E43AFA7555FF755648
:1053E4006D75574975580175590C755AEB125BBCAC
:1053F400907546E493FF3395E0FE90027E75F013BA
:10540400EF1229EDEE75F013A42583F583122A0912
:10541400E92407F9E43AFA12000EEF2401F556E400
:105424003EF555907545E493FF7B737D01127D9D98
:10543400900CDB122998000107ACE4FFFEFDFC9000
:105444000CDB122950D31228694017900CDB122967
:105454004474FFFBFAF9F8122716900CDB12298C1E
:0254640080D8EE
:105466007555FF75566E7557E6900026E0F558A3FC
:10547600E0F559A3E0F55AA3E0F55B7B017A0C79D8
:10548600EB125BBC907546E493FF3395E0FE900209
:105496007E75F013EF1229EDEE75F013A42583F552
:1054A60083122A09E92407F9E43AFA7555FF755675
:1054B6006D75574975580175590C755AEB125BBCD9
:1054C600907546E493FF3395E0FE90027E75F013E7
:1054D600EF1229EDEE75F013A42583F583122A0940
:1054E600E92407F9E43AFA12000EEF2401F556E42E
:1054F6003EF555907545E493FF7B737D01127D9DC6
:0A550600024FC8E49002A1F0A3F0E8
:10551000900CDF122998000107ACE4FFFEFDFC901F
:105520000CDF122950D31228694017900CDF122982
:105530004474FFFBFAF9F8122716900CDF12298C3D
:0255400080D811
:10554200907546E493FF3395E0FE90027E75F0136A
:10555200EF1229EDEE75F013A42583F583122A09C3
:10556200E92407F9E43AFA7555FF75566D755749FE
:105572007558FF75596E755AF5125BBC907546E405
:1055820093FF3395E0FE90027E75F013EF1229ED42
:10559200EE75F013A42583F583122A09E92407F98D
:1055A200E43AFA12000EEF2401F556E43EF5559066
:1055B2007545E493FF7B737D01127D9D43B00853D3
:1055C200B0BF53B0DF53B0EFE4900004F0854C84D9
:0155D20022B6
:1070020085844CE4F54FF55078CF7C0C7D017BFFF5
:0A7012007A6F79FAFE7F08122493CA
:10701C00900CC3122998000107ACE4FFFEFDFC9014
:10702C000CC3122950D31228694017900CC3122993
:10703C004474FFFBFAF9F8122716900CC312298C32
:02704C0080D8EA
:10704E00907546E493FF3395E0FE90027E75F01343
:10705E00EF1229EDEE75F013A42583F583122A099C
:10706E00E92407F9E43AFA7555FF75566D755749D7
:10707E007558FF75596F755A09125BBC907546E4C9
:10708E0093FF3395E0FE90027E75F013EF1229ED1B
:10709E00EE75F013A42583F583122A09E92407F966
:1070AE00E43AFA12000EEF2401F556E43EF555903F
:0C70BE007545E493FF7B737D01127D9DFE
:1070CA00900CC7122998000107ACE4FFFEFDFC9062
:1070DA000CC7122950D31228694017900CC71229DD
:1070EA004474FFFBFAF9F8122716900CC712298C80
:0270FA0080D83C
:1070FC00E49002A1F0A3F090026CE024A0F54E9075
:10710C00026BE03400F54D75840FE5E830E019C3EF
:10711C009002A2E094099002A1E094004003027155
:10712C00EDE49002A1F0A3F090026BE0FEA3E0FF6F
:10713C00B54ED4EEB54DD0EF24A0F54EE43EF54D52
:10714C00907546E493FF3395E0FE90027E75F01344
:10715C00EF1229EDEE75F013A42583F583122A099D
:10716C00E92407F9E43AFA7555FF75566F75571E01
:10717C00854F58855059125BBC907546E493FF338C
:10718C0095E0FE90027E75F013EF1229EDEE75F08E
:10719C0013A42583F583122A09E92407F9E43AFAA2
:1071AC0012000EEF2401F556E43EF555907545E4BA
:1071BC0093FF7B737D01127D9D74CF2550F58274F6
:1071CC000C354FF583E0F5C80550E5507002054FBE
:1071DC00FFAE4F7C007D071225CD8C4F8D50027178
:0871EC0013E49002A1F0A3F0EE
:1071F400900CCB122998000107ACE4FFFEFDFC9033
:107204000CCB122950D31228694017900CCB1229A9
:107214004474FFFBFAF9F8122716900CCB12298C50
:0272240080D810
:10722600907546E493FF3395E0FE90027E75F01369
:10723600EF1229EDEE75F013A42583F583122A09C2
:10724600E92407F9E43AFA7555FF75566D755749FD
:107256007558FF75596F755A25125BBC907546E4D3
:1072660093FF3395E0FE90027E75F013EF1229ED41
:10727600EE75F013A42583F583122A09E92407F98C
:10728600E43AFA12000EEF2401F556E43EF5559065
:107296007545E493FF7B737D01127D9D43B00853D2
:0B72A600B0BF53B0DF53B0EF854C8445
:0172B10022BA
:1072B200E4F54FF550E4F54FF550900298E060FA8E
:1072C20090001AE0FEA3E0FF9010E7EEF0A3EFF0CB
:1072D2009010E3EEF0A3EFF090001CE0FEA3E0FFBD
:1072E2009010E9EEF0A3EFF09010E5EEF0A3EFF0CE
:1072F200E4900298F0C3E5509428E54F64809480AE
:107302004003027491900298E060EAAE4FAF507C65
:0D731200007D0A1225CDED4C60030273F1E1
:10731F00900CF7122998000107ACE4FFFEFDFC90DA
:10732F000CF7122950D31228694017900CF7122925
:10733F004474FFFBFAF9F8122716900CF712298CF8
:02734F0080D8E4
:107351007555FF75566F75573A90001AE0F558A3A9
:10736100E0F559A3E0F55AA3E0F55B7B017A0C79CE
:10737100FB125BBC907546E493FF3395E0FE9002EF
:107381007E75F013EF1229EDEE75F013A42583F548
:1073910083122A09E92407F9E43AFA7555FF75566B
:1073A1006D75574975580175590C755AFB125BBCBF
:1073B100907546E493FF3395E0FE90027E75F013DD
:1073C100EF1229EDEE75F013A42583F583122A0936
:1073D100E92407F9E43AFA12000EEF2401F556E424
:1073E1003EF555907545E493FF7B737D01127D9DBC
:1073F10090001AE0FEA3E0FF9010E3E0FCA3E0FDA3
:10740100C39FEC9E5006AE04AF0580009010E3EEE2
:10741100F0A3EFF090001CE0FEA3E0FF9010E5E088
:10742100FCA3E0FDC39FEC9E5006AE04AF058000B7
:107431009010E5EEF0A3EFF090001AE0FEA3E0FF5C
:107441009010E7E0FCA3E0FDD39FEC9E4006AE0464
:10745100AF0580009010E7EEF0A3EFF090001CE084
:10746100FEA3E0FF9010E9E0FCA3E0FDD39FEC9EBA
:107471004006AE04AF0580009010E9EEF0A3EFF0F6
:10748100E4900298F00550E5507002054F0272F742
:107491009010E5E0FEA3E0FF9010E9E0FCA3E0FD21
:1074A100C39FFFEC9EFEC39400400280169010E53E
:1074B100E0FEA3E0FFC3ED9FFFEC9EFEC3E49FFF50
:1074C100E49EFED3EF9404EE940040030272B79061
:1074D10010E3E0FEA3E0FF9010E7E0FCA3E0FDC3B2
:1074E1009FFFEC9EFEC39400400280169010E3E0E3
:1074F100FEA3E0FFC3ED9FFFEC9EFEC3E49FFFE40C
:0E7501009EFED3EF9404EE940040030272B796
:01750F002259
:1055D300E4F54FF550F584900C6EE0A3E0F5FD90F3
:1055E3000C6EE0A3E0F5FE900C6CE0A3E0F5FB90FD
:1055F3000C6CE0A3E0F5FC900298E070030258EE17
:10560300E4F0E54F700F90001AE0FFA3E0900C6008
:10561300CFF0A3EFF0E550700F90001CE0FFA3E084
:08562300900C62CFF0A3EFF040
:10562B00900CF7122998000107ACE4FFFEFDFC90EB
:10563B000CF7122950D31228694017900CF7122936
:10564B004474FFFBFAF9F8122716900CF712298C09
:02565B0080D8F5
:10565D00907546E493FF3395E0FE90027E75F0134E
:10566D00EF1229EDEE75F013A42583F583122A09A7
:10567D00E92407F9E43AFA7555FF75566F755740E9
:10568D00900C6CE0F558A3E0F559900C6EE0F55ACE
:10569D00A3E0F55B125BBC907546E493FF3395E098
:1056AD00FE90027E75F013EF1229EDEE75F013A446
:1056BD002583F583122A09E92407F9E43AFA120041
:1056CD000EEF2401F556E43EF555907545E493FF34
:1056DD007B737D01127D9D7555FF75566F75574B0B
:1056ED00900C60E0F558A3E0F559900C62E0F55A86
:0D56FD00A3E0F55B7B017A0D790B125BBC1D
:10570A00900CFB122998000107ACE4FFFEFDFC9007
:10571A000CFB122950D31228694017900CFB12294E
:10572A004474FFFBFAF9F8122716900CFB12298C25
:02573A0080D815
:10573C00907546E493FF3395E0FE90027E75F0136E
:10574C00EF1229EDEE75F013A42583F583122A09C7
:10575C00E92407F9E43AFA7555FF75566D75574902
:10576C0075580175590D755A0B125BBC907546E452
:10577C0093FF3395E0FE90027E75F013EF1229ED46
:10578C00EE75F013A42583F583122A09E92407F991
:10579C00E43AFA12000EEF2401F556E43EF555906A
:1057AC007545E493FF7B737D01127D9DE54F704B36
:1057BC00900C60E0FEA3E02400EE34F8C364809407
:1057CC00804010900C60E0FEA3E02400FFEE34F863
:1057DC00FE8015900C60E0FEA3E02400FFEE34F890
:1057EC00FEC3E49FFFE49EFED3EF9414EE6480941A
:1057FC008050047F0180027F008F4FE54F7048C3BB
:10580C00900C60E094085015900C6CE07002A3E0D2
:10581C0070028014900C6C74FFF5F08017900C6C77
:10582C00E07003A3E0F47005754F01800A900C6CD6
:10583C00E475F001122603900C6CE0A3E0F5FB90EC
:10584C000C6CE0A3E0F5FCE550704B900C62E0FEB4
:10585C00A3E02400EE34F8C3648094804010900CD4
:10586C0062E0FEA3E02400FFEE34F8FE8015900CFD
:10587C0062E0FEA3E02400FFEE34F8FEC3E49FFFD9
:10588C00E49EFED3EF9414EE6480948050047F0168
:10589C0080027F008F50E5507048C3900C62E094FA
:1058AC00085015900C6EE07002A3E070028014900A
:1058BC000C6E74FFF5F08017900C6EE07003A3E093
:1058CC00F47005755001800A900C6EE475F00112AD
:1058DC002603900C6EE0A3E0F5FD900C6EE0A3E0C7
:1058EC00F5FEE54F70030255FAE55070030255FAC8
:1058FC00900CFF122998000107ACE4FFFEFDFC9010
:10590C000CFF122950D31228694017900CFF122952
:10591C004474FFFBFAF9F8122716900CFF12298C2D
:02592C0080D821
:10592E00907546E493FF3395E0FE90027E75F0137A
:10593E00EF1229EDEE75F013A42583F583122A09D3
:10594E00E92407F9E43AFA7555FF75566D7557490E
:10595E007558FF75596F755A56125BBC907546E4B3
:10596E0093FF3395E0FE90027E75F013EF1229ED52
:10597E00EE75F013A42583F583122A09E92407F99D
:10598E00E43AFA12000EEF2401F556E43EF5559076
:10599E007545E493FF7B737D01127D9D900298E027
:1059AE0060FAE4900298F090001AE0FFA3E0900CE9
:1059BE0060CFF0A3EFF090001CE0FFA3E0900C622C
:0559CE00CFF0A3EFF093
:1059D300900D03122998000107ACE4FFFEFDFC9033
:1059E3000D03122950D31228694017900D03122971
:1059F3004474FFFBFAF9F8122716900D0312298C51
:025A030080D849
:105A0500907546E493FF3395E0FE90027E75F013A2
:105A1500EF1229EDEE75F013A42583F583122A09FB
:105A2500E92407F9E43AFA7555FF75566F75576617
:105A3500900C6CE0F558A3E0F559900C6EE0F55A22
:105A4500A3E0F55B125BBC907546E493FF3395E0EC
:105A5500FE90027E75F013EF1229EDEE75F013A49A
:105A65002583F583122A09E92407F9E43AFA120095
:105A75000EEF2401F556E43EF555907545E493FF88
:105A85007B737D01127D9D7555FF75566F75577733
:105A9500900C60E0F558A3E0F559900C62E0F55ADA
:0D5AA500A3E0F55B7B017A0D790B125BBC71
:105AB200900D07122998000107ACE4FFFEFDFC904F
:105AC2000D07122950D31228694017900D07122989
:105AD2004474FFFBFAF9F8122716900D0712298C6D
:025AE20080D86A
:105AE400907546E493FF3395E0FE90027E75F013C3
:105AF400EF1229EDEE75F013A42583F583122A091C
:105B0400E92407F9E43AFA7555FF75566D75574956
:105B140075580175590D755A0B125BBC907546E4A6
:105B240093FF3395E0FE90027E75F013EF1229ED9A
:105B3400EE75F013A42583F583122A09E92407F9E5
:105B4400E43AFA12000EEF2401F556E43EF55590BE
:0C5B54007545E493FF7B737D01027D9D8D
:1064230085844CE4F54DF54EF55190754693FF3355
:1064330095E0FE90027E75F013EF1229EDEE75F0F4
:1064430013A42583F583122A09E92407F9E43AFA08
:106453007555FF75566D7557497558FF75596F75A5
:106463005A88125BBC907546E493FF3395E0FE9027
:10647300027E75F013EF1229EDEE75F013A4258358
:10648300F583122A09E92407F9E43AFA12000EEF18
:106493002401F556E43EF555907545E493FF7B736F
:1064A3007D01127D9DE49002A1F0A3F0F54FF5501C
:1064B300D3900928E09550900927E0954F4023AEEB
:1064C3004FAF507C017D001225CD744C2550F582D1
:1064D3007400354FF583EDF00550E5507002054F1C
:1064E30080CE75840FE5E830E019C39002A2E094F2
:1064F300099002A1E0940040030266D5E49002A152
:10650300F0A3F0900927E0FCA3E0FD7B017A00797A
:106513004C854D5D854E5EE4FFFE12913A9009274E
:10652300E0FEA3E0FF7B017A00794C854D57854E51
:106533005812909FE4F54FF550D3900928E09550F9
:10654300900927E0954F402DAE4FAF507C017D0061
:106553001225CD744C2550F5827400354FF583E038
:106563006D7001EC6005755101800A0550E55070AE
:1065730002054F80C4E5517003026601907546E43D
:1065830093FF3395E0FE90027E75F013EF1229ED31
:10659300EE75F013A42583F583122A09E92407F97C
:1065A300E43AFA7555FF75566F755797854D5885BB
:1065B3004E59854F5A85505B125BBC907546E493E8
:1065C300FF3395E0FE90027E75F013EF1229EDEE96
:1065D30075F013A42583F583122A09E92407F9E446
:1065E3003AFA12000EEF2401F556E43EF555907584
:0E65F30045E493FF7B737D01127D9D0266D50A
:10660100900CC3122998000107ACE4FFFEFDFC9039
:106611000CC3122950D31228694017900CC31229B8
:106621004474FFFBFAF9F8122716900CC312298C57
:0266310080D80F
:10663300907546E493FF3395E0FE90027E75F01368
:10664300EF1229EDEE75F013A42583F583122A09C1
:10665300E92407F9E43AFA7555FF75566F7557C97A
:10666300854D58854E59125BBC907546E493FF33B4
:1066730095E0FE90027E75F013EF1229EDEE75F0B2
:1066830013A42583F583122A09E92407F9E43AFAC6
:1066930012000EEF2401F556E43EF555907545E4DE
:1066A30093FF7B737D01127D9DAF4EAE4D1297CE4E
:1066B300D3900C02E0954E900C01E0954D5008E408
:1066C300F54DF54E0264E5054EE54E7002054D02AB
:0966D30064E5E49002A1F0A3F0DB
:1066DC00900CC7122998000107ACE4FFFEFDFC905A
:1066EC000CC7122950D31228694017900CC71229D5
:1066FC004474FFFBFAF9F8122716900CC712298C78
:02670C0080D833
:10670E00907546E493FF3395E0FE90027E75F0138C
:10671E00EF1229EDEE75F013A42583F583122A09E5
:10672E00E92407F9E43AFA7555FF75566D75574920
:10673E007558FF75596F755ADA125BBC907546E441
:10674E0093FF3395E0FE90027E75F013EF1229ED64
:10675E00EE75F013A42583F583122A09E92407F9AF
:10676E00E43AFA12000EEF2401F556E43EF5559088
:0F677E007545E493FF7B737D01127D9D854C84EF
:01678D0022E9
:10FE00008E4E8F4F8E4E8F4FE4F550F551A2AF338B
:10FE1000F552C2AFE4F58443B701758F03C3E550D3
:10FE200094FC50168551828550837488F0E42551E6
:10FE3000F55174043550F55080E3E4F58FF550F535
:10FE400051F555F55675840FE5565403700363B0AC
:10FE50004012FFBB8F57E55730E7F653F8FDE4F546
:10FE600058F5590559E559700205586440455870D0
:10FE7000F27FD212FFAAE556AE557806CEC313CE56
:10FE800013D8F9FF12FFAA12FFA2E4FF12FFAAE49F
:10FE9000FF12FFAAE4FF12FFAAE4FF12FFAAE4FF89
:10FEA00012FFAAE4F553F554E4FF12FFAA744C259F
:10FEB00054F58274003553F583EFF00554E5547022
:10FEC000020553C3E553940240DE43F802E4F5848F
:10FED000758F01F553F554744C2554F58274003533
:10FEE00053F583E0FF0551E551AC50700205501405
:10FEF000F5828C83EFF00554E55470020553B4008D
:10FF0000D6E553B402D1E4F58F0556E556700205E7
:0AFF100055C3947FE555940050039B
:10FF1A0002FE45E4F58F53B7FEE55224FF92AFE4A3
:10FF2A00F5D075840FF555F556C3E555942050570D
:10FF3A00E556543F700363B02012FFBB8F57E55755
:10FF4A0030E7F653F8FDE4F558F5590559E55970C7
:10FF5A000205586440455870F27F5012FFAAE556D0
:10FF6A00AE557806CEC313CE13D8F9FF12FFAA12E4
:10FF7A00FFA2E4FF12FFAA43F80274082556F556B9
:10FF8A00E43555F55580A212FFBB8F57E55730E788
:08FF9A00F6E4F58443EF0122B7
:10FFA200AF56EF25E025E0FFAE84E4F5848F9B3069
:09FFB200FFFDC2FFAF9B8E84220B
:10FFBB0053F8FDE4F55AF55B055BE55B7002055AFA
:10FFCB006440455A70F27FD712FFAAE4FF12FFAAD2
:04FFDB0043F80222C3
:107D7D00900C0374E2F0907545E493FFAB3CAA3D83
:107D8D00A93E9000011224D2FDE4F555F5567B066F
:047D9D008F528B5422
:107DA1007557FFE4F558F559ED90754593F55A74FB
:107DB100032DF582E4340CF5837464F0907545E489
:107DC10093B55219E55464066013E5546415600DCA
:107DD10074FD2DF582E4340BF583E554F0E55A7515
:107DE100F013A4247EF582E43402F583122A097487
:107DF10016122532E55A75F013A4247EF582E43477
:107E010002F583122A09900001E552122544E55A30
:107E110075F013A4247EF582E43402F583122A0955
:107E2100900002ED12254474022556F556E43555AD
:107E3100F555FFE55A75F013A4247EF582E434026A
:107E4100F583122A09900003EF122544E55A75F0D3
:107E510013A4247EF582E43402F583122A099000EA
:107E610004E556122544E55A75F013A4247EF582E3
:107E7100E43402F583122A09900005E554122544E1
:107E8100E4FEFFE55A75F013A4247EF582E4340282
:107E9100F583122A098F828E831224D262570FBF73
:107EA10000010EEF64064E70DAE55A75F013A42452
:107EB1007EF582E43402F583122A09900006E55723
:107EC10012254474FE2556F55674FF3555F555E5D2
:107ED1005A75F013A4247EF582E43402F583122A44
:107EE10009E92407F9E43AFAAD56AC551295838EA7
:107EF100588F59EEFFE55A75F013A4247EF582E4FC
:107F01003402F583122A090556E5567002055524F7
:107F110006F582E43555F583EF122544E55A75F0EF
:107F210013A4247EF582E43402F583122A0905564E
:107F3100E556700205552406F582E43555F583E5CD
:107F410059122544E55A75F013A42471F9740235C8
:107F5100F0FA7B01E5562407FDE43555FC1295DE68
:097F6100E5562407FFE43555FE46
:017F6A0022F4
:0847F9008F3B8B3C8A3D893E99
:10480100E4900CBFF0A3F09000031224D2FE9000BC
:10481100041224D27C002400FFEC3ECF24FECF34CE
:10482100FFFE900CC1F0FCA3EFF0FDE92407F9E4D1
:104831003AFA129819900CBFEEF0A3EFF04E603ADD
:10484100AB3CAA3DA93E9000051224D2FF6415702D
:1048510003024EEEEF64067003024EEE9000011269
:1048610024D22403F582E4340CF5837464F09000BF
:0A487100011224D2FF7D04024C3630
:10487B00AB3CAA3DA93E9000021224D2FF90754595
:10488B00E4936F7003024935EFF47003024935EF7F
:10489B0093FF3395E0FE90027E75F013EF1229ED36
:1048AB00EE75F013A42583F583122A09E92407F981
:1048BB00E43A8B44F5458946E53E2407F9E4353D5A
:1048CB00853C41F5428943E4F53FF540D3900CC25A
:1048DB00E09540900CC1E0953F40247841E475F0A1
:1048EB00011229F91224B9FF7844E475F001122959
:1048FB00F9EF1225320540E54070D1053F80CDAB75
:10490B003CAA3DA93E9000011224D2FF9000021256
:10491B0024D2FD9000051224D2FB900CC1E0F5557A
:10492B00A3E0F556127D9D024EEEAB3CAA3DA93E8F
:10493B009000051224D2122AA449810649BC1049C1
:10494B00A5154C6B304CA0314CC8324CF0334D1884
:10495B00344B80404BD4414BD4424D3D504D8F5145
:10496B004AC9704B267149E2904E7A914D35934A64
:10497B006A9800004EBA9000011224D224FDF582F1
:10498B00E4340BF583AB3CAA3DA93E900001122405
:10499B00D224FDF582E4340B8010AB3CAA3DA93E3A
:1049AB001224B924FEF582E4340BF583E4F0024EB5
:1049BB00A7900C03E0FF64E16004EFB4E2051297EB
:1049CB00348003127D83900CBFEEF0A3EFF0AB3C71
:0749DB00AA3DA93E024EA710
:1049E200900C03E0FF64E16004EFB4E20512973437
:1049F2008065AB3CAA3DA93E9000071224D2FE90EE
:104A020000081224D27C002400F548EC3EF547E56C
:104A12003B75F013A4247EF582E43402F583122A56
:104A220009E92407F9E43AFA900927E0FEA3E0FF36
:104A320085475785485812909F907545E493FFAB80
:104A42003CAA3DA93E9000011224D2FD900927E024
:104A5200F555A3E0127D99900CBFEEF0A3EFF0ABF9
:084A62003CAA3DA93E024EA74B
:104A6A00900C03E0FF64E16004EFB4E205129734AE
:104A7A00803CAB3CAA3DA93E9000071224D2FE908E
:104A8A0000081224D27C002400F548EC3EF5479039
:104A9A000927E0FCA3E0FDE92409F9E43AFA85478D
:104AAA005D85485E7F027E0012913A127D83900CEA
:0F4ABA00BFEEF0A3EFF0AB3CAA3DA93E024EA722
:104AC900900C03E0FF64E16004EFB4E2051297344F
:104AD900803AE53B75F013A4247EF582E43402F5AF
:104AE90083122A09E92407F9E43AFA12968F907594
:104AF90045E493FFAB3CAA3DA93E9000011224D2A4
:104B0900FD7555007556807B06127D9D900CBFEE94
:104B1900F0A3EFF0AB3CAA3DA93E024EA7900C03CF
:104B2900E0FF64E16004EFB4E205129734803712C4
:104B390099CEAB3CE53E2407F9E4353DFA900CC12A
:104B4900E0FEA3E0FFC39480EE94005006AC06ADEE
:104B59000780047C007D801294427B017A0C7907DE
:104B690012968F127D83900CBFEEF0A3EFF0AB3C51
:074B7900AA3DA93E024EA770
:104B8000900C03E0FFF547AB3CAA3DA93E90000125
:104B90001224D22403F582E4340CF583E4F0EF64AC
:104BA000E16007900C03E0B4E20C9000011224D203
:104BB000FF7D20024C36127D7D900CBFEEF0A3EFFE
:104BC000F0AB3CAA3DA93E9000071224D2FF12820E
:044BD000A2024C628F
:104BD400900C03E0FFF547AB3CAA3DA93E900005CD
:104BE4001224D2FE7C00B441047D0080027D058C39
:104BF400488D49EE900C02E024FFFD900C01E03456
:104C0400FFFC8C4A8D4BAB3CAA3DA93E900001129F
:104C140024D22403F582E4340CF583E4F0EF64E158
:104C24006007900C03E0B4E2179000011224D2FF55
:104C34007D20129743900CBFEEF0A3EFF0024EEEEE
:104C4400127D7D900CBFEEF0A3EFF0E4FFFE12970F
:104C5400CE7B01AD4BAC4AAF49AE481293D2900C17
:074C640003E547F0024EEEEC
:104C6B00127D83900CBFEEF0A3EFF0AB3CAA3DA9F5
:104C7B003E9000011224D22403F582E4340CF58318
:104C8B00E4F012007E8F47E54730E7F6E4F5844306
:054C9B00EF01024EEEE6
:104CA000127D83900CBFEEF0A3EFF0AB3CAA3DA9C0
:104CB0003E9000011224D22403F582E4340CF583E3
:104CC000E4F0122C88024EEE127D83900CBFEEF0C1
:104CD000A3EFF0AB3CAA3DA93E9000011224D224E0
:104CE00003F582E4340CF583E4F0124EF7024EEE45
:104CF000127D83900CBFEEF0A3EFF0AB3CAA3DA970
:104D00003E9000011224D22403F582E4340CF58392
:104D1000E4F0127002024EEEAB3CAA3DA93E9000B8
:104D2000011224D22403F582E4340CF583E4F0125A
:104D30006423024EEE9002CD74FF024E12900C03DB
:104D4000E064F07027754F01755000755105AB3C5C
:104D5000AA3DA93E128D53127D83900CBFEEF0A3A5
:104D6000EFF0057FE57F701E057E801AAB3CAA3D03
:104D7000A93E9000011224D2FF7D08129743900CA7
:104D8000BFEEF0A3EFF0AB3CAA3DA93E024EA790C8
:104D90000C03E0B4F114AB3CAA3DA93E900007120D
:104DA00024D2FF900005E06F6072AB3CAA3DA93EA3
:104DB0009000011224D2FF7D08129743900CBFEEA1
:104DC000F0A3EFF0AB3CAA3DA93E9000011224D223
:0B4DD0002403F582E4340CF583E4F0CA
:104DDB00900CB71229980000AFC8E4FFFEFDFC90C1
:104DEB000CB7122950D31228694017900CB712290F
:104DFB004474FFFBFAF9F8122716900CB712298CA2
:024E0B0080D84D
:104E0D009002CD74F2F0900C897401F0024EEE1206
:104E1D007D83900CBFEEF0A3EFF0AB3CAA3DA93E15
:104E2D009000011224D22403F582E4340CF583E4BE
:014E3D00F084
:104E3E00900CBB1229980000AFC8E4FFFEFDFC9059
:104E4E000CBB122950D31228694017900CBB1229A3
:104E5E004474FFFBFAF9F8122716900CBB12298C3A
:024E6E0080D8EA
:104E7000AF7FAE7E129936024EEE900C897401F02F
:104E8000AB3CAA3DA93E9000071224D29002CDF07F
:104E9000907545E493FF127D8F900CBFEEF0A3EF69
:104EA000F0AB3CAA3DA93E9000011224D22403F5A8
:104EB00082E4340CF583E4F08034AB3CAA3DA93E97
:104EC0009000011224D22403F582E4340CF583749B
:104ED00064F09000011224D2FF7D02129743900CDF
:0E4EE000BFEEF0A3EFF074FF900CBFF0A3F054
:084EEE00900CBFE0FEA3E0FF01
:014EF6002299
:0A9819008B4C8A4D894E8C4F8D5008
:109823001295838E518F52AB4CAA4DA94E8550820F
:10983300854F831224D27F00FEE5502401FDE435D9
:109843004F8D82F5831224D22FFFE43EFEE552B5FD
:0F9853000709E551B50604E4FEFF227EFF7FFF03
:0198620022E3
:0F973400AB3CAA3DA93E9000011224D2FF7D203C
:10974300AE07EE90754593FB3395E0FA90027E7574
:10975300F013EB1229EDEA75F013A42583F58312B8
:109763002A09900007ED122544907545E493FFAD57
:10977300067555007556017B15127D9DE4FEFF228B
:068D53008B4C8A4D894E95
:108D5900E4F552F5539000031224D2FE9000041258
:108D690024D2FDEEF554EDF555E4F552F553E555EC
:108D790024FEFFE55434FFFEC364809482500280D0
:108D8900047E027F00C3E5539FEE6480F8E55264D8
:108D990080985048AB4FAA50A951C003C002C001E6
:108DA9001224B9FFAB4CAA4DA94EE5532407FDE4A3
:108DB90035528D82F5831224D2FE744C2553F582E7
:108DC90074003552F583EEF06FD001D002D0031252
:108DD90025320553E5537096055280927E00E57F52
:108DE9005401FF900927E0FCA3E0FD7B017A00799B
:0A8DF9004C857E5D857F5E02913A95
:049936008E4C8F4D77
:10993A0090FE00E493FE740193FF900CC6EEF0A330
:10994A00EFF0BE8012BFFE0F7B007AFE7902900C08
:0E995A00C3122A12022AF7AF7FAE7E12FE0061
:0199680022DC
:10999C00564F4C5453004F4E004F4646004472698C
:1099AC0076657241004361724100547261636B4190
:1099BC0000416E616C6F6778004469676974616C13
:0299CC00780021
:06887B008B3B8A3C893DA5
:108881007B017A00794CE4F557F5587F107E02128E
:10889100909FAB3BAA3CA93DE475F0041226CA9017
:1088A1000C01E0FFA3E0AB3EAA3FA940CF8FF0123D
:1088B10026CAE4900CB7F0900CB7E0FFC3941540C2
:1088C100030289A275F019EF90004C1229EDE0FE28
:1088D100A3E0F47002EEF47003028999900CB7E002
:1088E10075F01990004E1229EDE0FCA3E0F470023E
:1088F100ECF47003028999AB3BAA3CA93D12262FE7
:10890100FDACF075F019EF90004E1229EDE0FEA3D9
:10891100E0D39DEE9C4014900CB7E075F0199000E7
:108921004E1229EDE0FEA3E0FF8004AE04AF05ABDB
:108931003BAA3CA93DEE8FF01226CA900CB7E0FF8E
:1089410075F0199000601229EDE0FCA3E0F47002CB
:10895100ECF46044AB3EAA3FA94012262FFDACF0D7
:1089610075F019EF9000601229EDE0FEA3E0C39DC0
:10897100EE9C5014900CB7E075F01990006012292C
:10898100EDE0FEA3E0FF8004AE04AF05AB3EAA3FDD
:10899100A940EE8FF01226CA900CB7E004F00288CD
:1089A100B8AB3BAA3CA93DE475F001122692AB3E5F
:0B89B100AA3FA94074FFF5F0022692D7
:06678E008B3B8A3C893DB3
:1067940090003E122998FFFFFFFF90002A122998CB
:1067A400FFFFFFFF74FF900018F0A3F0900016F0B5
:1067B400A3F07B017A0C79B77557007558017F10E7
:1067C4007E0212909F900CB7E0900EC7F0900CB828
:1067D400E0900EC8F0900CB9E0900EC9F0900CBA9D
:1067E400E0540F900ECAF0E024FC600C24027010F8
:1067F400900C877414F0800E900C877428F0800637
:10680400900C87740AF09000067402F0A3740FF0E1
:1068140090029DE030E7034403F0900927E0FCA3D5
:10682400E0FD7F017E001294B112951F1200A67B39
:10683400017A0C79B7E4F557F5587F107E0212906F
:106844009FAB3BAA3CA93DE475F0041226CAE49030
:106854000ECBF0900C01E0FFA3E0AB3EAA3FA940B1
:10686400CF8FF01226CAE4900ECCF0900ECCE0FF4D
:10687400C39415400302696A75F019EF900CB712BE
:1068840029EDE0FEA3E0FFBEFF16BFFF13900ECB81
:10689400E06003026961A3E004900ECBF002696139
:1068A400900ECCE0FF75F019900CB91229EDE0FCC4
:1068B400A3E0F47002ECF47003026961AB3BAA3C00
:1068C400A93D12262FFDACF075F019EF900CB9120A
:1068D40029EDE0FEA3E0D39DEE9C4014900ECCE0A5
:1068E40075F019900CB91229EDE0FEA3E0FF8004C5
:1068F400AE04AF05AB3BAA3CA93DEE8FF01226CA0D
:10690400900ECCE0FF75F019900CCB1229EDE0FC51
:10691400A3E0F47002ECF46044AB3EAA3FA9401239
:10692400262FFDACF075F019EF900CCB1229EDE099
:10693400FEA3E0C39DEE9C5014900ECCE075F019BC
:10694400900CCB1229EDE0FEA3E0FF8004AE04AF6F
:1069540005AB3EAA3FA940EE8FF01226CA900ECC9A
:10696400E004F002686F900ECBE07002FF22AB3EB1
:10697400AA3FA94012262FFFAEF0AB3BAA3CA93D8B
:1069840012262FC39FE5F09E40037F0022E475F09A
:1069940001122692AB3EAA3FA94074FFF5F01226DD
:1069A40092AB3BAA3CA93D12262FFFAEF0D394052F
:1069B400EE9400400280047E007F05900ECBE0FD43
:1069C40075F019900C9E1229EDEEF0A3EFF09002F1
:1069D4009DE0FF600EAB3EAA3FA94012262FFBAA02
:1069E400F080047AFF7BFF75F019ED900CB012294A
:1069F400EDEAF0A3EBF075F019ED900CB21229ED6D
:106A040074FFF0A3F075F019ED900CAF1229EDEFBF
:106A1400F0900EC7E0FF75F019ED900CB41229ED5B
:106A2400EFF0900EC9E0FF75F019ED900CB5122946
:106A3400EDEFF0900EC8E0FF75F019ED900CB61272
:106A440029EDEFF0900ECAE0FF75F019ED900CAE51
:106A54001229EDEFF07B017A0C79B7E4F55DF55E70
:0F6A64007D107C027F02FE12913A900ECBE0FF74
:016A73002200
:0A871D008F3F8C408D418A428B4350
:10872700153F7B017A0E79CFE4F557F5587F107E18
:108737000212909F74FFFFFEFDFC90002A12295041
:10874700C312287F705F75F019E53F900ED9122983
:10875700ED122998FFFFFFFF75F019E53F900ED343
:108767001229ED122998FFFFFFFF75F019E53F90D9
:108777000EDD1229ED74FFF0A3F075F019E53F90B7
:108787000ED71229ED74FFF0A3F075F019E53F90AD
:108797000ED11229ED74FFF0A3F075F019E53F90A3
:1087A7000ECF02885E90002A12294475F019E53F22
:1087B700900ED31229ED12298C900016E0FEA3E04B
:1087C700FF75F019E53F900ED71229EDEEF0A3EFF4
:1087D700F090003E12294475F019E53F900ED9122A
:1087E70029ED12298C900018E0FEA3E0FF75F0191F
:1087F700E53F900EDD1229EDEEF0A3EFF075F019CD
:10880700E53F900ED11229EDE540F0A3E541F09048
:10881700029DE0602A75F019E53F900EE11229EDFF
:10882700E0FEA3E0F47002EEF4601475F019E53F82
:10883700900EE31229EDE542F0A3E543F0802075A1
:10884700F019E53F900EE31229ED74FFF0A3F075E0
:10885700F019E53F900EE11229ED74FFF0A3F07BCC
:10886700017A0E79CFE4F55DF55E7D107C027F021B
:04887700FE02913A32
:1085AB00E4900ECDF0A3F07B017A0C79BBF557F577
:1085BB00587F107E0212909FE4900ECDF0A3F090A6
:1085CB000ECDE0FEA3E0FFC39415EE940040030232
:1085DB00871C900CBB75F019EF1229EDEE75F01995
:1085EB00A42583F583E0FEA3E0F47002EEF47003A0
:1085FB0002870F900ECDE0FEA3E0900CC375F0192F
:10860B001229EDEE75F019A42583F583E0FCA3E0A8
:0A861B00F47002ECF4600302870F14
:10862500900CCD75F019EF1229EDEE75F019A42512
