:1099BA00436F7079726967687420284329203230AE
:1099CA0030342D3920547261636B20537973746576
:1099DA006D7320546563686E6F6C6F676965732C6D
:1099EA00204C4C43000200FF000000C0C1C18101AD
:1099FA0040C30103C00280C241C60106C00780C736
:109A0A00410500C5C1C4810440CC010CC00D80CD04
:109A1A00410F00CFC1CE810E400A00CAC1CB810BD3
:109A2A0040C90109C00880C841D80118C01980D9A5
:109A3A00411B00DBC1DA811A401E00DEC1DF811F33
:109A4A0040DD011DC01C80DC411400D4C1D5811544
:109A5A0040D70117C01680D641D20112C01380D355
:109A6A00411100D1C1D0811040F00130C03180F1E4
:109A7A00413300F3C1F28132403600F6C1F7813733
:109A8A0040F50135C03480F4413C00FCC1FD813D04
:109A9A0040FF013FC03E80FE41FA013AC03B80FBD5
:109AAA00413900F9C1F88138402800E8C1E9812923
:109ABA0040EB012BC02A80EA41EE012EC02F80EF35
:109ACA00412D00EDC1EC812C40E40124C02580E544
:109ADA00412700E7C1E68126402200E2C1E3812353
:109AEA0040E10121C02080E041A00160C06180A165
:109AFA00416300A3C1A28162406600A6C1A7816733
:109B0A0040A50165C06480A4416C00ACC1AD816D03
:109B1A0040AF016FC06E80AE41AA016AC06B80ABD4
:109B2A00416900A9C1A88168407800B8C1B98179A2
:109B3A0040BB017BC07A80BA41BE017EC07F80BF34
:109B4A00417D00BDC1BC817C40B40174C07580B543
:109B5A00417700B7C1B68176407200B2C1B3817352
:109B6A0040B10171C07080B041500090C1918151E3
:109B7A0040930153C052809241960156C057809734
:109B8A0041550095C1948154409C015CC05D809D03
:109B9A00415F009FC19E815E405A009AC19B815BD2
:109BAA0040990159C058809841880148C049808924
:109BBA00414B008BC18A814A404E008EC18F814F32
:109BCA00408D014DC04C808C41440084C185814543
:109BDA0040870147C046808641820142C043808354
:099BEA0041410081C1808140402D
:10B6700050001B000000000000000000000000005F
:10B68000000000430C32000000410C3100410CB5B9
:10B690000A41000500027900000275000050002FE9
:10B6A000000000000000000000000000000000009A
:10B6B000017D004102B500410CBC004200020000C7
:10B6C000410CB800420278000042005700004202DC
:10B6D000C800A0410CB700410CBB004202CB0000E7
:10B6E00041000100410004004102FB00410BEB005E
:10B6F000410CB600027E0000027700004202CE003C
:10B70000004102CA004102FC0041000000410CBDA2
:10B7100000410018004102FA0044002BFFFFFFFF28
:10B7200044003FFFFFFFFF420016FFFF420019FFEA
:05B73000FF4102FD04D1
:1017E600E4F52DF52CF52BF52A900CE1F0A3740603
:1017F600F075840F75FFDE75FFAD12C0EC12AB6E8F
:10180600120026753E01753F097540557B017A0C1D
:10181600792F12B58E12B452900CB57414F0E49070
:1018260002CAF012A22312551CE4900000F09000A8
:1018360000E0FFC3942A5018EF75F015A424D0F5E4
:1018460082E43402F583E4F0900000E004F080DEE8
:10185600E4900000F012BFCE7F007E9612C48C1278
:10186600C55012C2C2E490028FF09002A27402F038
:101876009002AB744EF07B017A0279FE90029E12C2
:1018860032BA7A0979579002B11232BA7A077938A0
:1018960090029B1232BA7A0B79EC9002AE1232BAEF
:1018A600E490028EF09002A104F0900298744EF03B
:1018B600E49002A3F0A3F0900290F0A3F09002ADA2
:1018C600F090029AF09002ACF0900299F01BFAF9AF
:1018D6009002A81232BA9002A51232BA900295125C
:1018E60032BA9002921232BA0B7A02798E7F007E59
:1018F600C27D017C00129E2A900018E07B017A02CC
:1019060079A160067F807E2580047F007EE17D00D0
:101916007C00129E2A900018E060247B017A0279EE
:101926007E9000531232BA7A0279B6900050123283
:10193600BAE490004CF0A3F0900056F012C53A209D
:10194600E813782A1231FA7B807A9679987800D350
:0519560012310D50EA02
:10195B00900CC01232260000AFC8E4FFFEFDFC90D5
:10196B000CC01231DED31230F74017900CC012317D
:10197B00D274FFFBFAF9F8122FA4900CC012321A92
:02198B0080D802
:10198D00E49002CEF0A3F0F53E753F00754077FB75
:0F199D007A00797E12B311D2AF900018E0603556
:1019AC00900CC412322600006978E4FFFEFDFC9016
:1019BC000CC41231DED31230F74017900CC4123124
:1019CC00D274FFFBFAF9F8122FA4900CC412321A3D
:0219DC0080D8B1
:1019DE00128E241200A6900CBD7401F0E490026BDE
:1019EE00F0A3F0A3F0900277F0900271F0A3F090C4
:1019FE00026FF0A3F0A2DA3390026EF0900279E05B
:101A0E002458FE900278E03400900275F0A3CEF0D8
:101A1E00900057E0FCA3E0FD2406FEE43C90027328
:101A2E00F0A3CEF0ED2405FEE43C900CDFF0A3CE47
:101A3E00F0E5D8540360749002FAE0B40202806BB1
:101A4E007B017A0079597558007559037F107E0213
:101A5E0012BB5B9001FFE0540F900008F09001FF65
:101A6E00E054F0C4540F900009F0900008E06403B5
:101A7E00702AE5D85403FFBF020890026B7404F07D
:101A8E00802E900009E090026BB403097403F0A35A
:101A9E007401F0801B7401F0A3F08014900009E033
:101AAE00B4030890026B7402F08005E490026BF0B0
:101ABE00E4FFFED3900956E09F900955E09E401337
:101ACE0074592FF58274003EF583E4F00FBF0001C8
:101ADE000E80E0900CA6E0F46009E06006900C31F8
:101AEE0074E0F09002B5E06020C3900020E094B85E
:081AFE0090001FE0940B501151
:101B060012AD1212007E8F38E53830E7F6C2FF803C
:011B1600FED0
:101B17009002FAE0B4021E20DC0990026D7403F013
:101B2700021CA790026D30DB067402F0021CA7743A
:101B370004F0021CA790026BE064046003021CA778
:101B4700F538F539900057E0FAA3E0FB900CDFE099
:101B5700B50212A3E0B5030D753801900CDFE475EB
:101B6700F001122E9130DB1490026DE064047003D3
:101B7700021C367404F0753801021C3690026DE0C1
:101B8700B404277402F0900279E02403FE900278EF
:101B9700E03400900275F0A3CEF0A2DAE4339002AD
:101BA7006EF0E4900277F0753801900275E0FEA3BD
:101BB700E0FF900278E0FCA3E0FD6F7002EC6E702E
:101BC7006EA2DA33FF90026EE0FE6F7030900277FC
:101BD700E0C394025005E004F08047EE60109002E5
:101BE7006DE06402603C7402F07538018034900245
:101BF7006DE06401602C7401F0F538802590026D6A
:101C0700E0640360067403F075380190026EE070BB
:101C1700047F0180027F0090026EEFF090027774DC
:101C270001F0ED2458FEE43C900275F0A3CEF0904D
:101C3700026CE06004A3E0701790026D7401F090ED
:101C4700026CF0EB2405FEE43A900273F0A3CEF0A9
:101C5700900273E0FEA3E0FF900057E0B50619A3DA
:101C6700E0B50714900273E475F00A122E91900202
:101C77006DE0B40103753901900C31E0B4E103E480
:101C8700F539E539601A90026C7405F0900279E035
:101C97002403FE900278E03400900271F0A3CEF0A6
:101CA700900271E0FEA3E0FF900278E0FCA3E0FD64
:101CB7006F7002EC6E6003021D4190026CE024FD20
:101CC700605324FE601A1460522404706D90026CF5
:101CD7007403F0ED2450FEE43C900271F0A3CEF0C3
:101CE70090026CE0B405177406F0900279E024289E
:101CF700FE900278E03400900271F0A3CEF09002DB
:101D07006BE024FD600B1460042403702DD2CC809B
:101D170029D2CC802590026C7404F090026CE0B458
:101D270006037401F090026BE024FD600B1460045D
:101D370024037006C2CC8002C2CC9002921232B148
:051D4700E94A4B602B8E
:101D4C009002921232B18B388A39893A7B007A0030
:101D5C0079009002921232BAAB38AA39A93AE4FF50
:0B1D6C00124362900CDDEEF0A3EFF0DC
:101D7700900CA5E020E003D38001C35003021E228C
:101D87009002CFE094F09002CEE094005003021E40
:011D97002229
:101D980012AD1212007E8F38E53830E7F690026BEC
:0D1DA800E06404706E90026DE064016066FE
:101DB500900CC8123226000DBBA0E4FFFEFDFC907E
:101DC5000CC81231DED31230F74017900CC812310F
:101DD500D274FFFBFAF9F8122FA4900CC812321A2C
:021DE50080D8A4
:021DE700D2CC5C
:101DE900900CCC12322600112A88E4FFFEFDFC90EB
:101DF9000CCC1231DED31230F74017900CCC1231D3
:101E0900D274FFFBFAF9F8122FA4900CCC12321AF3
:021E190080D86F
:071E1B00C2FFE4F5F880FEB0
:101E220020E803021ECFC39002CFE094099002CEB5
:101E3200E094005003021EC8900C31E02420600A96
:0A1E420014606014606724E2707CF5
:101E4C00900CA5E030E17512724B900057E0FEA3A8
:101E5C00E0FF900CA8E02FFF900CA7E03E900CBE8A
:101E6C00F0A3EFF0900278E0F538A3E0F539753E79
:101E7C0000753F007540777B007A00797E12915790
:101E8C00900005EFF07008C2B6900C31F0802D90E8
:091E9C000C3174E1F0D2B6802390
:101EA500900CA5E030E11C12AD1A900CA6E0F46090
:101EB5000BE06008900C3174E0F08005E4900C3183
:101EC500F0C2B5E49002CEF0A3F0900CB7E0700339
:101ED500022015E4F09002FBE0F46003021FA690D7
:101EE500026BE064046003021F9A90026DE0B40483
:031EF50036D2CC16
:101EF800900CD01232260001B774E4FFFEFDFC906E
:101F08000CD01231DED31230F74017900CD01231BA
:101F1800D274FFFBFAF9F8122FA4900CD012321ADF
:021F280080D85F
:0A1F2A00C2CC90026DE06401606615
:101F3400900CD4123226000DBBA0E4FFFEFDFC90F1
:101F44000CD41231DED31230F74017900CD4123176
:101F5400D274FFFBFAF9F8122FA4900CD412321A9F
:021F640080D823
:021F6600D2CCDB
:101F6800900CD812322600112A88E4FFFEFDFC905E
:101F78000CD81231DED31230F74017900CD812313A
:101F8800D274FFFBFAF9F8122FA4900CD812321A67
:021F980080D8EF
:101F9A00C2B3C2B6C2B5C2B4C2FF80FE9002FBE0B1
:101FAA00FF64F07022900C31EFF0E4F57EF57F903B
:101FBA00000574FFF0D2B3D2B6D2B5D2B4C2A853D8
:101FCA00E7FD53E7BF8010EFB4F113900C31F0C274
:101FDA00B3C2B6C2B5C2B4E49002FBF0802DEF647E
:101FEA00F27028900C31EFF0D2B3D2B6D2B5D2B497
:101FFA00900C30E024FFFD900C2FE034FFFCE4FB52
:10200A00FFFE12BEF5E4F58443EF01900C31E0FFC8
:10201A0064E06008EF64E16003021AF19002B5E03F
:10202A007003022175D3900020E094B890001FE05D
:10203A00940B4007E49002B5F080069002B5740153
:10204A00F0C3E57A940AE57964809480400675794C
:10205A0000757A09900018E06007E49002B4F080F5
:10206A0035900021E0FEA3E0FFEF24FBFFEE34EB06
:10207A00FEE434FFFDE434FFFCE47BE87A03F9F87C
:10208A00122FBFE47BE57A24F9F812C3519002B407
:10209A00EFF0E024CEF0900C31E064E16003021A24
:1020AA00F19002FDE06003021AF1C3E576940AE5B5
:1020BA007564809480400675750075760990001DD8
:1020CA00E0540FFD90001BE0540FC4F854F0C8E42C
:1020DA00C4540F482DFF90006E75F033E57A123222
:1020EA0095E57975F033A42583F58375F003E576D4
:1020FA00123295E57575F003A42583F583EFF09008
:10210A00001BA3E0FF90006F75F033E57A12329559
:10211A00E57975F033A42583F58375F003E5761226
:10212A003295E57575F003A42583F583EFF09000E9
:10213A001DA3E0FF90007075F033E57A123295E541
:10214A007975F033A42583F58375F003E5761232A9
:10215A0095E57575F003A42583F583EFF00576E51B
:10216A00767002057512943D021AF19002ADE0FFF5
:0A217A009002ACE06F70030224181D
:10218400EF75F0DCA4FF9002B11232B1E92FF9EA45
:1021940035F08B38F539893A9002ADE0FFB402048A
:1021A4007F008003EF04FF9002ADEFF09002B4E0F3
:1021B400FF90006D75F033E57A123295E57975F08C
:1021C40033A42583F583EFF0AE79AF7A7C007D33B9
:1021D400122DF474592FF974003E753E01F53F89B0
:1021E40040AB38AA39A93A124C4D90006975F033C6
:1021F400E57A123295E57975F033A42583F583E009
:1022040054E075F008A4FFAEF090006A75F033E571
:102214007A123295E57975F033A42583F583E0FDD0
:10222400EEF52EEF4DF52FE52E30E20744F8F52EAE
:10223400852F2F90006975F033E57A123295E57990
:1022440075F033A42583F583E0541C75F040A4FF96
:10225400AEF090006B75F033E57A123295E579753E
:10226400F033A42583F583E0FDEEF530EF4DF53131
:10227400E53030E20744F8F530853131AC30AD312A
:10228400EC1229F5C004C005C006C007AC30AD315E
:10229400EC1229F5D003D002D001D0001227CCC013
:1022A40004C005C006C007AC2EAD2FEC1229F5C042
:1022B40004C005C006C007AC2EAD2FEC1229F5D022
:1022C40003D002D001D0001227CCD003D002D00119
:1022D400D0001226DB12B9737B5C7A8F7982783F47
:1022E4001227CC8F378E368D358C347F747ED17D1A
:1022F4000D7C40AB37AA36A935A8341227CC122A54
:102304002E8E328F33900C31E064E17066E53345F4
:1023140032601C900057E0FEA3E0FF900CA8E02F71
:10232400FF900CA7E03E900CBEF0A3EFF080449029
:102334000CBEE0FEA3E0FF900057E06E7003A3E044
:102344006F7030900CA7E0F47003A3E0F460249065
:102354000CA7E07002A3E0601A12AD1A900CA6E07C
:10236400F4600BE06008900C3174E0F08005E490B8
:102374000C31F0900C31E064E06003021AF1900C2F
:10238400E1E07002A3E0600D900CE174FFF5F0123F
:102394002E91021AF1900CBBE0D394055003021A5B
:1023A400F19002CCE0942C9002CBE0940140030223
:1023B4001AF1900CA6E0FFC3E5339FE53294005078
:1023C40003021AF1900C3174E1F012724B90005731
:1023D400E0FEA3E0FF900CA8E02FFF900CA7E03EE6
:1023E400900CBEF0A3EFF0753E00753F007540778A
:1023F4007B007A00797E129157900005EFF0700906
:10240400C2B6900C31F0021AF1900C3174E1F0D2A2
:01241400B611
:10241500021AF1900CBCE0FD7017900002E0FEA3DB
:10242500E0FF900278E06E7003A3E06F6003021A8C
:10243500F1900CB5E0FF74A08FF08475F00AA4FF4D
:10244500900279E02401FB900278E03400CB2FFE66
:10245500EB35F0900002F0A3CEF0ED700E900CBBC2
:10246500F090000274FFF5F0122E91900C31E0FF10
:1024750064E160030226B99002FDE0FE70030225C7
:1024850025EF64E16003022525900CBCE070030292
:1024950026B99002FAE0B40202D2CA90026BE0FFBC
:0A24A5006054900C31E064E1704CCB
:1024AF00EFB4040790026DE0B4040890026BE0648F
:1024BF00046039900CB5E0900CDCB428057406F07C
:1024CF0080037404F0900CDCE0B5062090026C746D
:1024DF0002F090026FE0FEA3E0FF900279E02FFF81
:0C24EF00900278E03E900271F0A3EFF044
:1024FB009002FDE014F060030226B9F575F576F550
:10250B0079F57A900956E024FFFE900955E034FFE7
:10251B00900006F0A3CEF00226B9C3E576940AE547
:10252B00756480948040030226B6E5764575707A13
:10253B00900C90E0540FFD900C8EE0540FC4F854A7
:10254B00F0C8E4C4540F482DFF90006E75F033E5CE
:10255B007A123295E57975F033A42583F58375F0FE
:10256B0003E576123295E57575F003A42583F583A3
:10257B00EFF0900C8EE0A3E0FF90006F75F033E569
:10258B007A123295E57975F033A42583F58375F0CE
:10259B0003E576123295E57575F003A42583F58373
:1025AB00EFF0900C90E0A302268090006B75F03357
:1025BB00E57A123295E57975F033A42583F58375A9
:1025CB00F003E576123295E57575F003A42583F5D6
:1025DB0083E0FF90006E75F033E57A123295E57962
:1025EB0075F033A42583F58375F003E576123295E8
:1025FB00E57575F003A42583F583EFF090006C75FA
:10260B00F033E57A123295E57975F033A42583F52D
:10261B008375F003E576123295E57575F003A42505
:10262B0083F583E0FF90006F75F033E57A123295F6
:10263B00E57975F033A42583F58375F003E5761200
:10264B003295E57575F003A42583F583EFF09000C3
:10265B006D75F033E57A123295E57975F033A42573
:10266B0083F58375F003E576123295E57575F00306
:10267B00A42583F583E0FF90007075F033E57A12A3
:10268B003295E57975F033A42583F58375F003E571
:10269B0076123295E57575F003A42583F583EFF07B
:1026AB000576E5767002057502252512BA19E490B8
:1026BB000CBCF09002FCF0900CBBE06007B2B5E4F0
:0926CB00F0021AF1C2B5021AF185
:10BA1900C3E57A9409E57964809480500302BAB346
:10BA2900900955E0FCA3E0FD7B017A007959857EF8
:10BA39005D857F5E7F027E0012BC80E57824FFFF72
:10BA4900E57734FFFEC3E57F9FE57E9E402AAD780A
:10BA5900AC777F017E0012BE0B900005E0FFAB784A
:10BA6900AA77AD7FAC7E12B1B3E4900C31F0900CA3
:10BA7900BBF0C2B6C2B58008057FE57F7002057EBE
:10BA8900E4FFFED3900956E09F900955E09E4013CC
:10BA990074592FF58274003EF583E4F00FBF00015D
:10BAA9000E80E0E4F579F57A8008057AE57A700286
:07BAB9000579E4F575F5764F
:01BAC0002263
:08AD1200C2B3C2B6C2B5C2B45F
:10AD1A00C2B6C2B5900C31E064E170279002FDE042
:10AD2A0070119002CAE0600BAD78AC777F017E00AB
:10AD3A0012BE0B900005E0FFAB78AA77AD7FAC7E20
:10AD4A0012B1B39002FAE0B40202C2CA90026CE0F5
:04AD5A0064037070AE
:10AD5E00900CE312322600015F90E4FFFEFDFC90A2
:10AD6E000CE31231DED31230F74017900CE31231A0
:10AD7E00D274FFFBFAF9F8122FA4900CE312321AD8
:02AD8E0080D86B
:03AD9000E4F5C81F
:10AD9300900CE712322600020F58E4FFFEFDFC90F0
:10ADA3000CE71231DED31230F74017900CE7123163
:10ADB300D274FFFBFAF9F8122FA4900CE712321A9F
:02ADC30080D836
:10ADC50090026C7401F0A304F090026BE0FFB404F0
:10ADD5000890026DE064046013EF6404700302AE32
:0CADE500A090026CE06404600302AEA0C9
:10ADF100900CEB12322600015F90E4FFFEFDFC9007
:10AE01000CEB1231DED31230F74017900CEB1231FC
:10AE1100D274FFFBFAF9F8122FA4900CEB12321A3C
:02AE210080D8D7
:10AE230090026BE024FD603F1460042403706ED233
:01AE3300CC52
:10AE3400900CEF1232260001B774E4FFFEFDFC9083
:10AE44000CEF1231DED31230F74017900CEF1231B1
:10AE5400D274FFFBFAF9F8122FA4900CEF12321AF5
:02AE640080D894
:06AE6600C2CC8036D2CC04
:10AE6C00900CF31232260001B774E4FFFEFDFC9047
:10AE7C000CF31231DED31230F74017900CF3123171
:10AE8C00D274FFFBFAF9F8122FA4900CF312321AB9
:02AE9C0080D85C
:0CAE9E00C2CC90026C7401F0E4F5C822F4
:10724B00900278E0F53DA3E0F53EE4F579F57AF5AB
:10725B0075F576900CBBF0A3F0900955E0FEA3E01A
:10726B00FF7B017A00795975580075590112BB5B88
:10727B0090005CE0540F900BEBF090005DE0900CF5
:10728B00B6F090005BE075F01690012E123295E08F
:10729B00A3E0540F9002CDF090005BE075F01690D8
:1072AB000130123295E0FFA3E09002C6CFF0A3EFBE
:1072BB00F0900BEBE024FC601424027027900CB5CB
:1072CB007414F090026FE4F0A374608026900CB5F8
:1072DB007428F090026FE4F0A37462F09002FD74D6
:1072EB0006F08016900CB5740AF090026F7401F0E2
:1072FB00A37458F09002FD7404F0900CB6E0900269
:10730B00CAF09002C6E0FCA3E0FD4C700890000CA4
:10731B00F0A3F080679002CDE0701E1229F5A8044F
:10732B00A905AA06AB07E4FFFE7D7A7C481228D597
:10733B00122A2E7C007DF080389002CDE0B40F0332
:10734B007410F09002C6E0FCA3E0FDE41229F5A84E
:10735B0004A905AA06AB07E4FFFE7D7A7C48122838
:10736B00D5122A2E9002CDE0FD74788DF084FD7C31
:10737B0000122DF490000CEEF0A3EFF0E5D85403BF
:10738B0070079002CAF00276687B017A0079597512
:10739B0058007559037F107E0212BB5BE4F53BF579
:1073AB003C90007175F028E53C123295E53B75F089
:1073BB0028A42583F583E024FB601524FB7022743D
:1073CB007A253CF5827402353BF5837403F08020FB
:1073DB00747A253CF5827402353BF5837402F08098
:1073EB000F747A253CF5827402353BF5837404F0F7
:1073FB00053CE53C7002053B6404453B70A3E4F59A
:10740B003BF53C90007E75F028E53C123295E53B50
:10741B0075F028A42583F583E0FDE53C25E0FFE529
:10742B003B33FE740F2FF58274003EF583EDF09025
:10743B00007275F028E53C123295E53B75F028A4F7
:10744B002583F5831231DE90007675F028E53C122A
:10745B003295E53B75F028A42583F5831231D212C2
:10746B0026D7C004C005C006C00790007275F0286F
:10747B00E53C123295E53B75F028A42583F5831284
:10748B0031DE90007A75F028E53C123295E53B75BC
:10749B00F028A42583F5831231D21226D7D003D03E
:1074AB0002D001D0001228D5E4FBFAF9F8122972A8
:1074BB0090007275F02860054003027546E53C129A
:1074CB003295E53B75F028A42583F5831231DE90C8
:1074DB00007675F028E53C123295E53B75F028A453
:1074EB002583F5831231D21226D7C004C005C006FE
:1074FB00C00790007275F028E53C123295E53B759C
:10750B00F028A42583F5831231DE90007A75F028DC
:10751B00E53C123295E53B75F028A42583F58312E3
:10752B0031D21226D7D003D002D001D0001228D5E9
:10753B00C004C005C006C0070275CCE53C123295ED
:10754B00E53B75F028A42583F5831231DE90007698
:10755B0075F028E53C123295E53B75F028A42583A0
:10756B00F5831231D21226D7C004C005C006C0075E
:10757B0090007275F028E53C123295E53B75F028CA
:10758B00A42583F5831231DE90007A75F028E53C53
:10759B00123295E53B75F028A42583F5831231D281
:1075AB001226D7D003D002D001D0001228D5122931
:1075BB00DFAB07AA06A905A804C000C001C002C022
:1075CB000390007F75F028E53C123295E53B75F092
:1075DB0028A42583F583E0FF90008075F028E53C17
:1075EB00123295E53B75F028A42583F583E0C39F04
:1075FB00FDE49400FCE41229F5D003D002D001D0B5
:10760B00001227CCC004C005C006C00790007F75D0
:10761B00F028E53C123295E53B75F028A42583F55F
:10762B0083E0FCE41229FAD003D002D001D000127F
:10763B0026DB122A2EAD07E53C25E0FFE53B33FEAA
:10764B00740E2FF58274003EF583EDF0053CE53C9E
:10765B007002053B6404453B600302740E9002CA42
:10766B00E030E7034403F0E4F53BF53CD3900956D7
:10767B00E0953C900955E0953B40187459253CF535
:10768B00827400353BF583E4F0053CE53C70DD0589
:03769B003B80D958
:01769E0022C9
:09943D009002CAE0700302970FCF
:03944600753B066D
:10944900AF3B9002CAE0FEA807088002C313D8FC0C
:1094590020E003029701E53B12334C95DF0095D6D6
:109469000194C70294C703948504948505947D06E5
:109479000000966CE5D8F4F53C02966CAF3BEF33EF
:1094890095E0FEEF25E0FFEE33FE741F2FF58274A1
:10949900003EF583E0FEA3E0FFAD3BED3395E0FC34
:1094A90074782DF58274023CF583E0FDEFA8050878
:0E94B9008005CEC313CE13D8F9F53C02966C95
:1094C700E4F53DAF3BEF3395E0FEEF25E0FFEE33EC
:1094D700FE741F2FF58274003EF583E0FEA3E0FFC4
:1094E700AD3BED3395E0FC74782DF58274023CF5C5
:1094F70083E0FBEFA803088005CEC313CE13D8F98A
:10950700F53C74062DF58274003CF583E064026037
:109517000302966CAF3BEF3395E0FEEF25E0FFEEDD
:1095270033FE740B2FF58274003EF583E06023044D
:10953700604624FE706A740A2FF58274003EF58334
:10954700E0FFE53CD39F40047F0180027F008F3D11
:10955700804EAF3BEF3395E0FEEF25E0FFEE33FEA5
:10956700740A2FF58274003EF583E0B53C047F0151
:1095770080027F008F3D8028AF3BEF3395E0FEEF01
:1095870025E0FFEE33FE740A2FF58274003EF58363
:10959700E0FFE53CC39F50047F0180027F008F3DC1
:1095A700E53D6015E53B2402FF7401A8070880022A
:1095B700C333D8FC42C802966CE53B2402FF740112
:0F95C700A807088002C333D8FCF452C802966C80
:0995D600900269E0F53C02966C7C
:1095DF00900269E0FEA3E0FFF53C90000CE0FCA3D5
:1095EF00E0FD4C6078EF4E6074D3ED9FEC9E5038E9
:1095FF00E4F53DF53E7408253EF5827400353DF5E2
:10960F0083E0B40113E53E2404FF7401A80708802A
:10961F0002C333D8FCF452C8053EE53E7002053D47
:10962F006402453D70CF8035E4F53DF53E74082565
:10963F003EF5827400353DF583E0B40112E53E241A
:10964F0004FF7401A807088002C333D8FC42C80581
:0D965F003EE53E7002053D6402453D70D0C1
:10966C0075450075460075473C900006E0FAA3E08E
:10967C00FB7D017C007F017E0012BD0A900006E09C
:10968C007002A3E0600C90000674FFF5F0122E91AE
:10969C008063AD78AC777F017E0012BE0BE5782439
:1096AC00FFFFE57734FFFEC3E57F9FE57E9E4021FB
:1096BC00900005E0FFAB78AA77AD7FAC7E12B1B31A
:1096CC00E4900C31F0900CBBF0C2B6C2B5F5C8807A
:1096DC0024E578157870021577900955E0FCA3E025
:1096EC00FD24FFFEEC34FF900006F0A3CEF07F01CA
:0596FC007E0012BF62B8
:0E970100153BC3E53B6480948040030294490D
:01970F002237
:10C037008B5C8A5D895EE92DF9EA3C8B5FF5608947
:10C0470061E4F562F563C3856083856182E55E958A
:10C0570082E55D9583502F785CE475F0011232A17B
:10C06700122D47FFE5636F25E0FFE433FE74F32FDE
:10C07700F58274993EF583E562FFE493F5627401F6
:0AC08700936FF56380C0AE62AF63F3
:01C09100228C
:10B45200E4900D83F07B017A0C793512C143900C94
:10B462009EE07004A3E064F2700C900CA0E0700403
:10B47200A3E064086018900C9EE4F0A374F2F090CC
:10B482000CA0E4F0A37408F0900D837401F0900C0A
:10B4920087E0B4FF17900018E0900C87600574C82D
:10B4A200F080037464F0900D837401F0900C86E0D8
:10B4B200640160077401F0900D83F0900C2FE0FCA2
:10B4C200A3E0FDB40015ECB41011900CA3E030E43D
:10B4D2000AE054EFF0900D837401F0E4B50515EC29
:10B4E200B42011900CA3E020E40AE04410F0900D87
:10B4F200837401F0900C35E0FF12005E400D900C59
:10B5020035E06007E4F0900D8304F0900C49E0FF11
:10B5120012005E400D900C49E06007E4F0900D834C
:10B5220004F0900C5DE0FF12005E400D900C5DE0B7
:10B532006007E4F0900D8304F0900CA6E0B4FF07DE
:10B54200E4F0900D8304F0900CA7E0B4FF11A3E0A7
:10B55200B4FF0CE4900CA7F0A3F0900D8304F090DC
:10B562000D83E0601012C45E7B017A0C79357D8018
:10B572007C0012BE86900018E06010900CA5E030AE
:0BB58200E4047F0080027F0112C4B6C9
:01B58D00229B
:10C45E00AF84E4F584781EF608F6A2AF33FEC2AFC1
:10C46E0043B701758F0718E6FC08E6F5828C83E466
:0DC47E00F0F58F53B7FEEE24FF92AF8F84D0
:01C48B00228E
:0ABE86008B4F8A5089518C528D5366
:10BE9000858454E4F584781EF608F6A2AF33FFC219
:10BEA000AF43B701758F05E4F555F556C3E55695D3
:10BEB00053E5526480F8E5556480985029784FE442
:10BEC00075F0011232A1122D47FE781E0806E61801
:10BED000860470010614F5828C83EEF00556E55653
:10BEE00070CA055580C6E4F58F53B7FEEF24FF9264
:04BEF000AF85548442
:01BEF400222B
:06C143008B4F8A50895168
:10C14900858452E4F553F554F584A2AF33F555C20D
:10C15900AF758F04E4FFFE0554E554AC5370020536
:10C169005314F5828C83E493FD784FE475F0011242
:10C1790032A1ED122DC00FBF00010EEF64804E7089
:0DC18900D6E4F58FE55524FF92AF85528472
:01C196002286
:0EBC80008E568F578C588D598B5A8A5B895C73
:09BC8E0012007EEF30E7F9C2F963
:10BC9700E4F561F5620562E562700205616440459D
:03BCA7006170F2D7
:10BCAA00E5576401455670047F8480027F8712003D
:10BCBA003EE4FF12003EE4FF12003EE4FF12003EA3
:10BCCA00E4F55FF560C3E5609559E5586480F8E5E9
:10BCDA005F648098501DAB5AAA5BA95C8560828517
:10BCEA005F83122D60FF12003E0560E56070D60585
:10BCFA005F80D2D2F9AD5EAC5DAF57AE5602BE0BD5
:08BE0B008E638F648C658D6667
:10BE1300900955E0FEA3E0FF12BAC18F6712007EBE
:06BE2300EF30E7F9C2F95F
:10BE2900E4F568F5690569E56970020568644045E6
:03BE39006870F23C
:10BE3C00E5676010E5646401456370047F838012DC
:10BE4C007F86800EE5646401456370047F82800206
:10BE5C007F8512003EE566AE657806CEA2E713CE6E
:10BE6C0013D8F8FF12003EAF66EF25E025E0FF1275
:09BE7C00003EE4FF12003ED2F981
:01BE8500229A
:0CBD0A008E3F8F408C418D428A438B4459
:09BD160012007EEF30E7F9C2F9DA
:10BD1F00E4F54AF54B054BE54B7002054A64404587
:03BD2F004A70F265
:10BD3200E5406401453F70047F8480027F871200E2
:10BD42003EE4FF12003EE5435403FF12003EAF44BF
:10BD5200E54412003EE4F548F549C3E5499542E55C
:10BD6200416480F8E548648098501DAB45AA46A915
:10BD720047854982854883122D60FF12003E05499E
:0ABD8200E54970D6054880D2D2F9D9
:01BD8C002294
:08BF62008E418F428C438D4497
:09BF6A0012007EEF30E7F9C2F984
:10BF7300E4F547F5480548E5487002054764404540
:03BF83004770F212
:10BF8600E5426401454170047F8480027F87120088
:10BF96003EE4FF12003EE4FF12003EE4FF12003EC4
:10BFA600E4F545F546C3E5469544E5436480F8E582
:10BFB60045648098500F7FFF12003E0546E54670A7
:07BFC600E4054580E0D2F91B
:01BFCD002251
:02007E00C2F9C5
:10008000E4F573F5740574E5747002057364404516
:030090007370F298
:0C0093007FD712003EE4FF12003ED2F9BD
:01009F00223E
:0ABB5B008E538F548B558A5689577C
:09BB650012007EEF30E7F9C2F98D
:10BB6E00E4F55CF55D055DE55D7002055C644045E0
:03BB7E005C70F206
:10BB81007FD212003EE559AE587806CEA2E713CE19
:10BB910013D8F8FF12003EAF59EF25E025E0FF1260
:10BBA100003EE4FF12003EE4FF12003EE4FF1200FB
:10BBB1003EE4FF12003EE4FF12003EE4F55AF55B5D
:10BBC100C3E55B9554E5536480F8E55A6480985069
:10BBD1001FE4FF12003EAB55AA56A957855B82852B
:10BBE1005A83EF122DD2055BE55B70D4055A80D0E4
:02BBF100D2F987
:01BBF300222F
:08BAC1008E6A8F6B8C6C8D6D99
:0CBAC900756E0112007EEF30E7F9C2F943
:10BAD500E4F571F5720572E5727002057164404511
:03BAE5007170F28B
:10BAE8007FD212003EE56DAE6C7806CEA2E713CE8B
:10BAF80013D8F8FF12003EAF6DEF25E025E0FF12E6
:10BB0800003EE4FF12003EE4FF12003EE4FF120094
:10BB18003EE4FF12003EE4FF12003EE4F56FF570CC
:10BB2800C3E570956BE56A6480F8E56F64809850AA
:10BB38001DE4FF12003EBFFF047F0180027F008FDB
:10BB48006EEF600A0570E57070D6056F80D2D2F985
:02BB5800AF6ECE
:01BB5A0022C8
:04C230008E528F5348
:09C2340012007EEF30E7F9C2F9B7
:10C23D00E4F554F5550555E5557002055464404532
:03C24D005470F238
:10C250007F5012003EE553AE527806CEC313CE1384
:10C26000D8F9FF12003EAF53EF25E025E0FF1200A2
:08C270003EE4FF12003ED2F98A
:01C2780022A3
:04C279008E538F54FD
:09C27D0012007EEF30E7F9C2F96E
:10C28600E4F555F5560556E55670020555644045E4
:03C296005570F2EE
:10C299007F8112003EE554AE537806CEC313CE1308
:10C2A900D8F9FF12003EAF54EF25E025E0FF120058
:08C2B9003EE4FF12003ED2F941
:01C2C100225A
:06BEF5008C4D8D4E8B4FB9
:10BEFB00E54F6002C2B68E508F51D3E551954EE59A
:10BF0B0050954D504BE55154077034C3E54E955148
:10BF1B00FFE54D9550FEC3EF9408EE94004020E5ED
:10BF2B004F6008E551543F7002B2B6AF51AE50129C
:10BF3B00C23074072551F551E43550F5508007AFE9
:10BF4B0051AE5012C2790551E55170AE055080AA21
:06BF5B00E54F6002C2B6D2
:01BF610022BD
:06B58E008B3B8A3C893D65
:06B59400D2F8D2F9C2FA60
:10B59A00E4F541F5420542E5427002054164404541
:03B5AA004170F2FB
:02B5AD00D2FAD0
:10B5AF00E4F541F5420542E542700205416440452C
:03B5BF004170F2E6
:10B5C20012007EEF543C12334CB5E40CB5EE14B5C8
:10B5D200F81CB60224B61D2CB63834B6533C000013
:10B5E200B66FAB3BAA3CA93D7402801CAB3BAA3CA4
:10B5F200A93D74048012AB3BAA3CA93D74088008A3
:10B60200AB3BAA3CA93D741075F000122F58AB3E1B
:10B61200AA3FA940740175F008804FAB3BAA3CA930
:10B622003D741075F000122F58AB3EAA3FA940742A
:10B632000275F0108034AB3BAA3CA93D742075F032
:10B6420000122F58AB3EAA3FA940740275F0108039
:10B6520019AB3BAA3CA93D742075F000122F58ABE0
:0DB662003EAA3FA940740475F020122F5835
:01B66F0022B8
:10FE00008E4E8F4F8E4E8F4FE4F550F551A2AF338B
:10FE1000F552C2AFE4F58443B701758F03C3E550D3
:10FE200094FC50168551828550837488F0E42551E6
:10FE3000F55174043550F55080E3E4F58FF550F535
:10FE400051F555F55675840FE55654037002B2B658
:10FE500012FFB58F57E55730E7F6C2F9E4F558F5CC
:10FE6000590559E559700205586440455870F27FAC
:10FE7000D212FFA4E556AE557806CEC313CE13D8E2
:10FE8000F9FF12FFA412FF9CE4FF12FFA4E4FF128B
:10FE9000FFA4E4FF12FFA4E4FF12FFA4E4FF12FF9B
:10FEA000A4E4F553F554E4FF12FFA474592554F566
:10FEB0008274003553F583EFF00554E55470020564
:10FEC00053C3E553940240DED2F9E4F584758F0103
:10FED000F553F55474592554F58274003553F58360
:10FEE000E0FF0551E551AC507002055014F5828CCD
:10FEF00083EFF00554E55470020553B400D6E55382
:10FF0000B402D1E4F58F0556E55670020555C39449
:07FF10007FE555940050034A
:10FF170002FE45E4F58F53B7FEE55224FF92AFE4A6
:10FF2700F5D075840FF555F556C3E5559420505413
:10FF3700E556543F7002B2B512FFB58F57E55730FB
:10FF4700E7F6C2F9E4F558F5590559E55970020580
:10FF5700586440455870F27F5012FFA4E556AE55DD
:10FF67007806CEC313CE13D8F9FF12FFA412FF9C55
:10FF7700E4FF12FFA4D2F974082556F556E4355567
:10FF8700F55580A512FFB58F57E55730E7F6E4F52D
:05FF97008443EF01228C
:10FF9C00AF56EF25E025E0FFAE84E4F5848F9B306F
:09FFAC00FFFDC2FFAF9B8E842211
:10FFB500C2F9E4F55AF55B055BE55B7002055A6429
:10FFC50040455A70F27FD712FFA4E4FF12FFA4D276
:02FFD500F9220F
:10A41700900C3174E2F09099EFE493FFAB3CAA3DC6
:10A42700A93E900001122D60FDE4F556F5577B0615
:04A437008F538B555F
:10A43B007558FFE4F559F55AED9099EF93F55B7468
:10A44B00312DF582E4340CF5837464F09099EFE4CC
:10A45B0093B55319E55564066013E5556415600D06
:10A46B00742B2DF582E4340CF583E555F0E55B7523
:10A47B00F013A4249BF582E43402F5831232B174F9
:10A48B0016122DC0E55B75F013A4249BF582E43402
:10A49B0002F5831232B1900001E553122DD2E55B28
:10A4AB0075F013A4249BF582E43402F5831232B1C8
:10A4BB00900002ED122DD274022557F557E4355654
:10A4CB00F556FFE55B75F013A4249BF582E434028B
:10A4DB00F5831232B1900003EF122DD2E55B75F0CC
:10A4EB0013A4249BF582E43402F5831232B190005D
:10A4FB0004E557122DD2E55B75F013A4249BF5826E
:10A50B00E43402F5831232B1900005E555122DD2D9
:10A51B00E4FEFFE55B75F013A4249BF582E43402A3
:10A52B00F5831232B18F828E83122D6062580FBF6A
:10A53B0000010EEF64064E70DAE55B75F013A42490
:10A54B009BF582E43402F5831232B1900006E55894
:10A55B00122DD274FE2557F55774FF3556F556E577
:10A56B005B75F013A4249BF582E43402F58312325D
:10A57B00B1E92407F9E43AFAAD57AC5612C0378E5D
:10A58B00598F5AEEFFE55B75F013A4249BF582E41B
:10A59B003402F5831232B10557E557700205562484
:10A5AB0006F582E43556F583EF122DD2E55B75F097
:10A5BB0013A4249BF582E43402F5831232B10557C0
:10A5CB00E557700205562406F582E43556F583E50A
:10A5DB005A122DD2E55B75F013A4248EF974023553
:10A5EB00F0FA7B01E5572407FDE43556FC12C092C7
:09A5FB00E5572407FFE43556FE84
:01A604002233
:084362008F3B8B3C8A3D893E34
:10436A00E4900CEFF0A3F0900003122D60FE900091
:10437A0004122D607C002400FFEC3ECF24FECF34D3
:10438A00FFFE900CF1F0FCA3EFF0FDE92407F9E43D
:10439A003AFA12C1E6900CEFEEF0A3EFF04E603A53
:1043AA00AB3CAA3DA93E900005122D60FF64157032
:1043BA0003024C44EF64067003024C44900001125D
:1043CA002D602431F582E4340CF5837464F0900096
:0A43DA0001122D60FF7D040247CDA3
:1043E400AB3CAA3DA93E900002122D60FF9099EFCC
:1043F400E4936F700302449EEFF4700302449EEF53
:1044040093FF3395E0FE90029B75F013EF12329503
:10441400EE75F013A42583F5831232B1E92407F96C
:10442400E43A8B44F5458946E53E2407F9E4353DF5
:10443400853C41F5428943E4F53FF540D3900CF2C5
:10444400E09540900CF1E0953F40247841E475F00C
:10445400011232A1122D47FF7844E475F0011232A3
:10446400A1EF122DC00540E54070D1053F80CDABD2
:104474003CAA3DA93E900001122D60FF900002125B
:104484002D60FD900005122D60FB900CF1E0F556B7
:10449400A3E0F55712A437024C44AB3CAA3DA93E15
:1044A400900005122D6012334C450206453D10451F
:1044B4002615480230492731494F324977334A6734
:1044C40034499F3549C73649EF374A67384A17395F
:1044D4004A3F3A471740476B41476B424A93504A19
:1044E400E551483755464A7046A7714563904BD00D
:1044F400914A8B9348EF9445EB9800004C10900040
:1045040001122D60242BF582E4340CF583AB3CAA14
:104514003DA93E900001122D60242BF582E4340C59
:104524008010AB3CAA3DA93E122D47242CF582E411
:10453400340CF583E4F0024BFD900C31E0FF64E1B0
:104544006004EFB4E20512C197800312A41D900C1D
:0F455400EFEEF0A3EFF0AB3CAA3DA93E024BFD0A
:10456300900C31E0FF64E16004EFB4E20512C197FF
:104573008065AB3CAA3DA93E900007122D60FE90DA
:104583000008122D607C002400F548EC3EF547E559
:104593003B75F013A4249BF582E43402F5831232B5
:1045A300B1E92407F9E43AFA900955E0FEA3E0FFE4
:1045B30085475885485912BB5B9099EFE493FFAB4D
:1045C3003CAA3DA93E900001122D60FD900955E0E3
:1045D300F556A3E012A433900CEFEEF0A3EFF0AB8B
:0845E3003CAA3DA93E024BFD7C
:1045EB00900C31E0FF64E16004EFB4E20512C19777
:1045FB00803CAB3CAA3DA93E900007122D60FE907B
:10460B000008122D607C002400F548EC3EF5479025
:10461B000955E0FCA3E0FDE92409F9E43AFA8547E2
:10462B005D85485E7F027E0012BC8012A41D900C3B
:0F463B00EFEEF0A3EFF0AB3CAA3DA93E024BFD22
:10464A00900C31E0FF64E16004EFB4E20512C19717
:10465A00803AE53B75F013A4249BF582E43402F515
:10466A00831232B1E92407F9E43AFA12C143909964
:10467A00EFE493FFAB3CAA3DA93E900001122D60E6
:10468A00FD7556007557807B0612A437900CEFEE25
:10469A00F0A3EFF0AB3CAA3DA93E024BFD900C31D2
:1046AA00E0FF64E16004EFB4E20512C197804D12A5
:1046BA00C45EAB3CE53E2407F9E4353DFA900CF1C3
:1046CA00E0FEA3E0FFC39480EE94005006AC06AD72
:1046DA000780047C007D8012BE867B017A0C7935C6
:1046EA0012C143900018E06010900CA5E030E40479
:1046FA007F0080027F0112C4B612A41D900CEFEE57
:0D470A00F0A3EFF0AB3CAA3DA93E024BFD31
:10471700900C31E0FFF547AB3CAA3DA93E90000164
:10472700122D602431F582E4340CF583E4F0EF6454
:10473700E16007900C31E0B4E20C900001122D60AB
:10474700FF7D200247CD12A417900CEFEEF0A3EFE8
:10475700F0AB3CAA3DA93E900007122D60FF12AEB8
:04476700AA0247F962
:10476B00900C31E0FFF547AB3CAA3DA93E9000050C
:10477B00122D60FE7C00B441047D0080027D058C0F
:10478B00488D49EE900C30E024FFFD900C2FE03467
:10479B00FFFC8C4A8D4BAB3CAA3DA93E900001120D
:1047AB002D602431F582E4340CF583E4F0EF64E101
:1047BB006007900C31E0B4E217900001122D60FFFE
:1047CB007D2012C1A6900CEFEEF0A3EFF0024C444B
:1047DB0012A417900CEFEEF0A3EFF0E4FFFE12C261
:1047EB00797B01AD4BAC4AAF49AE4812BEF5900C8C
:0747FB0031E547F0024C44D8
:1048020012A41D900CEFEEF0A3EFF0AB3CAA3DA971
:104812003E900001122D602431F582E4340CF583C0
:10482200E4F012007E8F47E54730E7F6E4F5844373
:05483200EF01024C44FF
:1048370012A41D900CEFEEF0A3EFF07B017A027942
:0C4847008E7F007EE17D007C00129E2A26
:10485300900CE312322600004650E4FFFEFDFC906C
:104863000CE31231DED31230F74017900CE3123110
:10487300D274FFFBFAF9F8122FA4900CE312321A48
:0248830080D8DB
:10488500E4F584C2ACC298D29975840153E7BFC2DE
:0348950098D2991D
:1048980075840F30E815C39002CFE094099002CEDA
:1048A800E094004006E4F58443EF01E4F584309891
:1048B80017758401309911C299F584859947C29872
:1048C800B2B47584018547997584013098C2E4F5BE
:1048D800843099BCC299758401859947C298B2B54C
:0548E800F584854799ED
:1048ED0080A912A41D900CEFEEF0A3EFF0AB3CAA43
:1048FD003DA93E900001122D602431F582E4340C67
:10490D00F583E4F0900018E07003024C449000072A
:10491D00122D60FF12C4B6024C4412A41D900CEF70
:10492D00EEF0A3EFF0AB3CAA3DA93E900001122D95
:10493D00602431F582E4340CF583E4F01235300255
:10494D004C4412A41D900CEFEEF0A3EFF0AB3CAA7B
:10495D003DA93E900001122D602431F582E4340C06
:10496D00F583E4F0125C44024C4412A41D900CEF4C
:10497D00EEF0A3EFF0AB3CAA3DA93E900001122D45
:10498D00602431F582E4340CF583E4F012971002C3
:10499D004C4412A41D900CEFEEF0A3EFF0AB3CAA2B
:1049AD003DA93E900001122D602431F582E4340CB6
:1049BD00F583E4F0126338024C4412A41D900CEF01
:1049CD00EEF0A3EFF0AB3CAA3DA93E900001122DF5
:1049DD00602431F582E4340CF583E4F01268B902F9
:1049ED004C4412A41D900CEFEEF0A3EFF0AB3CAADB
:1049FD003DA93E900001122D602431F582E4340C66
:104A0D00F583E4F0127F2E024C4412A41D900CEF9E
:104A1D00EEF0A3EFF0AB3CAA3DA93E900001122DA4
:104A2D00602431F582E4340CF583E4F0127AE80267
:104A3D004C4412A41D900CEFEEF0A3EFF0AB3CAA8A
:104A4D003DA93E900001122D602431F582E4340C15
:104A5D00F583E4F0128AEC024C44AB3CAA3DA93E2E
:104A6D00900001122D602431F582E4340CF583E4BD
:104A7D00F0900005122D60FF12876C024C449002DD
:104A8D00FB74FF024B68900C31E064F07027754F9A
:104A9D0001755000755105AB3CAA3DA93E12B815E4
:104AAD0012A41D900CEFEEF0A3EFF0057FE57F70E3
:104ABD001E057E801AAB3CAA3DA93E900001122D29
:104ACD0060FF7D0812C1A6900CEFEEF0A3EFF0ABE6
:104ADD003CAA3DA93E024BFD900C31E0B4F114AB64
:104AED003CAA3DA93E900007122D60FF900005E005
:104AFD006F6072AB3CAA3DA93E900001122D60FF84
:104B0D007D0812C1A6900CEFEEF0A3EFF0AB3CAA1E
:104B1D003DA93E900001122D602431F582E4340C44
:044B2D00F583E4F038
:104B3100900CE71232260000AFC8E4FFFEFDFC90A6
:104B41000CE71231DED31230F74017900CE7123127
:104B5100D274FFFBFAF9F8122FA4900CE712321A63
:024B610080D8FA
:104B63009002FB74F2F0900CB77401F0024C441203
:104B7300A41D900CEFEEF0A3EFF0AB3CAA3DA93ED1
:104B8300900001122D602431F582E4340CF583E4A6
:014B9300F031
:104B9400900CEB1232260000AFC8E4FFFEFDFC903F
:104BA4000CEB1231DED31230F74017900CEB1231BC
:104BB400D274FFFBFAF9F8122FA4900CEB12321AFC
:024BC40080D897
:104BC600AF7FAE7E12C395024C44900CB77401F0D1
:104BD600AB3CAA3DA93E900007122D609002FBF067
:104BE6009099EFE493FF12A429900CEFEEF0A3EF57
:104BF600F0AB3CAA3DA93E900001122D602431F590
:104C060082E4340CF583E4F08034AB3CAA3DA93E43
:104C1600900001122D602431F582E4340CF5837482
:104C260064F0900001122D60FF7D0212C1A6900C67
:0E4C3600EFEEF0A3EFF074FF900CEFF0A3F0A0
:084C4400900CEFE0FEA3E0FF7D
:014C4C002245
:0AC1E6008B4C8A4D894E8C4F8D5012
:10C1F00012C0378E518F52AB4CAA4DA94E8550823A
:10C20000854F83122D607F00FEE5502401FDE4354B
:10C210004F8D82F583122D602FFFE43EFEE552B56F
:0FC220000709E551B50604E4FEFF227EFF7FFF0C
:01C22F0022EC
:0FC19700AB3CAA3DA93E900001122D60FF7D2018
:10C1A600AE07EE9099EF93FB3395E0FA90029B75FC
:10C1B600F013EB123295EA75F013A42583F583127A
:10C1C60032B1900007ED122DD29099EFE493FFADB6
:10C1D600067556007557017B1512A437E4FEFF223B
:06B815008B4C8A4D894EA8
:10B81B00E4F552F553900003122D60FE90000412D4
:10B82B002D60FDEEF554EDF555E4F552F553E55568
:10B83B0024FEFFE55434FFFEC364809482500280E3
:10B84B00047E027F00C3E5539FEE6480F8E55264EB
:10B85B0080985048AB4FAA50A951C003C002C001F9
:10B86B00122D47FFAB4CAA4DA94EE5532407FDE41F
:10B87B0035528D82F583122D60FE74592553F58256
:10B88B0074003552F583EEF06FD001D002D0031265
:10B89B002DC00553E5537096055280927E00E57FCF
:10B8AB005401FF900955E0FCA3E0FD7B017A007980
:0AB8BB0059857E5D857F5E02BC802A
:04C395008E4C8F4DEE
:10C3990090FE00E493FE740193FF900CF6EEF0A377
:10C3A900EFF0BE8012BFFE0F7B007AFE7902900C7F
:0EC3B900F31232BA02339FAF7FAE7E12FE0047
:01C3C7002253
:10C3FB00564F4C5453004F4E004F46460044726903
:10C40B0076657241004361724100547261636B4106
:10C41B0000416E616C6F6778004469676974616C89
:02C42B00780097
:06B311008B3B8A3C893DE4
:10B317007B017A007959E4F558F5597F107E0212BE
:10B32700BB5BAB3BAA3CA93DE475F004122F5890D8
:10B337000C2FE0FFA3E0AB3EAA3FA940CF8FF0124E
:10B347002F58E4900CE3F0900CE3E0FFC394154012
:10B357000302B43875F019EF900059123295E0FEE8
:10B36700A3E0F47002EEF4700302B42F900CE3E054
:10B3770075F01990005B123295E0FCA3E0F47002BF
:10B38700ECF4700302B42FAB3BAA3CA93D122EBDCF
:10B39700FDACF075F019EF90005B123295E0FEA35B
:10B3A700E0D39DEE9C4014900CE3E075F0199000FB
:10B3B7005B123295E0FEA3E0FF8004AE04AF05AB5D
:10B3C7003BAA3CA93DEE8FF0122F58900CE3E0FF0B
:10B3D70075F01990006D123295E0FCA3E0F470024D
:10B3E700ECF46044AB3EAA3FA940122EBDFDACF081
:10B3F70075F019EF90006D123295E0FEA3E0C39D42
:10B40700EE9C5014900CE3E075F01990006D123229
:10B4170095E0FEA3E0FF8004AE04AF05AB3EAA3F74
:10B42700A940EE8FF0122F58900CE3E004F002B31E
:10B437004EAB3BAA3CA93DE475F001122F20AB3E71
:0BB44700AA3FA94074FFF5F0022F207F
:069157008B3B8A3C893DC0
:10915D0090003F123226FFFFFFFF90002B123226A8
:10916D00FFFFFFFF74FF900019F0A3F0900016F0C1
:10917D00A3F07B017A0C79E37558007559017F10C6
:10918D007E0212BB5B900CE3E0900EF3F0900CE4CA
:10919D00E0900EF4F0900CE5E0900EF5F0900CE6FA
:1091AD00E0540F900EF6F0E024FC600C24027010D9
:1091BD00900CB57414F0800E900CB57428F08006E8
:1091CD00900CB5740AF09000067402F0A3740FF0C1
:1091DD009002CAE030E7034403F0900955E0FCA388
:1091ED00E0FD7F017E0012BF6212BFCE1200A67B92
:1091FD00017A0C79E3E4F558F5597F107E0212BB24
:10920D005BAB3BAA3CA93DE475F004122F58E490EA
:10921D000EF7F0900C2FE0FFA3E0AB3EAA3FA94064
:10922D00CF8FF0122F58E4900EF8F0900EF8E0FF6B
:10923D00C39415400302933375F019EF900CE312AC
:10924D003295E0FEA3E0FFBEFF16BFFF13900EF7B1
:10925D00E0600302932AA3E004900EF7F002932A34
:10926D00900EF8E0FF75F019900CE5123295E0FCC8
:10927D00A3E0F47002ECF4700302932AAB3BAA3C1A
:10928D00A93D122EBDFDACF075F019EF900CE51255
:10929D003295E0FEA3E0D39DEE9C4014900EF8E0D5
:1092AD0075F019900CE5123295E0FEA3E0FF8004F5
:1092BD00AE04AF05AB3BAA3CA93DEE8FF0122F5883
:1092CD00900EF8E0FF75F019900CF7123295E0FC56
:1092DD00A3E0F47002ECF46044AB3EAA3FA9401247
:1092ED002EBDFDACF075F019EF900CF7123295E034
:1092FD00FEA3E0C39DEE9C5014900EF8E075F0199E
:10930D00900CF7123295E0FEA3E0FF8004AE04AF9F
:10931D0005AB3EAA3FA940EE8FF0122F58900EF8E4
:10932D00E004F0029238900EF7E07002FF22AB3E9F
:10933D00AA3FA940122EBDFFAEF0AB3BAA3CA93D02
:10934D00122EBDC39FE5F09E40037F0022E475F011
:10935D0001122F20AB3EAA3FA94074FFF5F0122F4A
:10936D0020AB3BAA3CA93D122EBDFFAEF0D3940518
:10937D00EE9400400280047E007F05900EF7E0FD24
:10938D0075F019900CCA123295EEF0A3EFF0900221
:10939D00CAE0FF600EAB3EAA3FA940122EBDFBAA4C
:1093AD00F080047AFF7BFF75F019ED900CDC123222
:1093BD0095EAF0A3EBF075F019ED900CDE123295F5
:1093CD0074FFF0A3F075F019ED900CDB123295EFF0
:1093DD00F0900EF3E0FF75F019ED900CE012329560
:1093ED00EFF0900EF5E0FF75F019ED900CE11232F3
:1093FD0095EFF0900EF4E0FF75F019ED900CE21280
:10940D003295EFF0900EF6E0FF75F019ED900CDA55
:10941D00123295EFF07B017A0C79E3E4F55DF55EA0
:0F942D007D107C027F02FE12BC80900EF7E0FFE4
:01943C00220D
:0AB1B3008F3F8C408D418A428B4390
:10B1BD00153F7B017A0E79FBE4F558F5597F107E2A
:10B1CD000212BB5B74FFFFFEFDFC90002B1231DE03
:10B1DD00C312310D705F75F019E53F900F051232F6
:10B1ED0095123226FFFFFFFF75F019E53F900EFF18
:10B1FD00123295123226FFFFFFFF75F019E53F90D1
:10B20D000F0912329574FFF0A3F075F019E53F9018
:10B21D000F0312329574FFF0A3F075F019E53F900E
:10B22D000EFD12329574FFF0A3F075F019E53F9005
:10B23D000EFB02B2F490002B1231D275F019E53FDE
:10B24D00900EFF12329512321A900016E0FEA3E016
:10B25D00FF75F019E53F900F03123295EEF0A3EF55
:10B26D00F090003F1231D275F019E53F900F0512A5
:10B27D00329512321A900019E0FEA3E0FF75F01915
:10B28D00E53F900F09123295EEF0A3EFF075F0192E
:10B29D00E53F900EFD123295E540F0A3E541F090AB
:10B2AD0002CAE0602A75F019E53F900F0D12329534
:10B2BD00E0FEA3E0F47002EEF4601475F019E53FC2
:10B2CD00900F0F123295E542F0A3E543F080207503
:10B2DD00F019E53F900F0F12329574FFF0A3F07542
:10B2ED00F019E53F900F0D12329574FFF0A3F07B2E
:10B2FD00017A0E79FBE4F55DF55E7D107C027F022F
:04B30D00FE02BC8000
:10A22300E4900EF9F0A3F07B017A0C79E7F558F589
:10A23300597F107E0212BB5BE4900EF9F0A3F090FD
:10A243000EF9E0FEA3E0FFC39415EE940040030271
:10A25300A416900CE775F019EF123295EE75F0190C
:10A26300A42583F583E0FEA3E0F47002EEF470030B
:10A2730002A409900EF9E0FEA3E0900CEF75F0192B
:10A28300123295EE75F019A42583F583E0FCA3E063
:0AA29300F47002ECF4600302A3F77C
:10A29D00900EF9E0FCA3E0FD900CE775F019123279
:10A2AD0095EC75F019A42583F583E0FBA3E0900EE2
:10A2BD00F7CBF0A3EBF0900CF975F019ED12329588
:10A2CD00EC75F019A42583F583E0FDA3E0900CE374
:10A2DD00CDF0A3EDF0900CFB75F019EF123295EE69
:10A2ED0075F019A42583F583E0FFA3E0900CE5CF6D
:10A2FD00F0A3EFF07B017A0C79E7900EF7E0F558BB
:10A30D00A3E0F5597F107E0212BB5B900CE7123172
:10A31D00D290002B12321A900CEBE0FFA3E09000CC
:10A32D0016CFF0A3EFF0900C30E024FFFF900C2F30
:10A33D00E034FFFEC3900EF8E09F900EF7E09E40D4
:10A34D000302A3F77B017A0C79E7E0F558A3E0F55A
:10A35D00597F107E0212BB5B74FFFFFEFDFC900C5B
:10A36D00E71231DEC312310D70737B017A0C79E780
:10A37D00900EF8E024FFF559900EF7E034FFF558F4
:10A38D007F107E0212BB5B900CE71231D290003F22
:10A39D0012321A900CEBE0FFA3E0900019CFF0A35E
:10A3AD00EFF0900CE5E0B4FF12A3E0B4FF0D900CBC
:10A3BD00E3E0FFA3E0A3CFF0A3EFF0900EF9A3E04D
:10A3CD0004FF900EF8E024FFFD900EF7E034FFFC43
:10A3DD00900CE5E0FAA3E0FB12B1B3800D900EF7FF
:0AA3ED00E475F001122E9102A33373
:10A3F7007B017A0C79E7E4F558F5597F107E021254
:0FA40700BB5B900EF9E475F001122E9102A24298
:01A416002223
:02AEAA008F4CCB
:10AEAC007B017A0C79F3E4F558F5597F107E021288
:10AEBC00BB5B75F019E54C900CDA123295E0FEA3F1
:10AECC00E0F47002EEF4603B75F019E54C900CDC8C
:10AEDC00123295E0FEA3E0F47002EEF4602575F0FA
:10AEEC0019E54C900CDA123295E0FEA3E0FF75F0F8
:10AEFC0019E54C900CDC123295E0FCA3E0FD7B01D3
:10AF0C0012BEF57B017A0C79F3E4F558F5597F10F4
:10AF1C007E0212BB5B75F019E54C900CEC1232956D
:10AF2C00E0FEA3E0F47002EEF4603B75F019E54C22
:10AF3C00900CEE123295E0FEA3E0F47002EEF46099
:10AF4C002575F019E54C900CEE123295E0FEA3E05D
:10AF5C00FF75F019E54C900CEC123295E0FCA3E077
:10AF6C00FD7B0112BEF57B017A0C79F3E4F558F503
:10AF7C00597F107E0212BB5B75F019E54C900CEEFC
:10AF8C0012329574FFF0A3F075F019E54C900CECAF
:10AF9C0012329574FFF0A3F075F019E54C900CDCAF
:10AFAC0012329574FFF0A3F075F019E54C900CDAA1
:10AFBC0012329574FFF0A3F075F019E54C900CE487
:10AFCC00123295123226FFFFFFFF75F019E54C90F7
:10AFDC000CDE123295123226FFFFFFFF75F019E5D9
:10AFEC004C900CE812329574FFF0A3F075F019E553
:10AFFC004C900CE212329574FFF0A3F075F019E549
:10B00C004C900CEB123295E4F075F019E54C900C69
:10B01C00EA123295E4F07B017A0C79F3F55DF55E7A
:0AB02C007D107C027F02FE02BC8052
:10551C00E4F53C7B017A0D7908F5587559017F103B
:10552C007E0212BB5B74FFFFFEFDFC900D08123176
:10553C00DEC312310D600302561A753C01900D0A40
:10554C00F0900D09F0900D08F0900D0C7480F09017
:08555C000D0B7402F0E4F53BB5
:1055640078E37C0C7D017BFF7AC479087E007F0898
:10557400122D21E53B2441900CE9F0E53B75F01038
:10558400A4240DF9740D35F0A801FC7D017B017A8A
:065594000C79E3123471F2
:0A559A00053BE53BB40CC3E4F53B10
:1055A40078EB7C0C7D017BFF7AC479107E007F054B
:1055B400122D21E53B2441900CEEF0E53B75F016ED
:1055C400A424CDF9740D35F0A801FC7D017B017A8A
:1055D4000C79EB12347175F016E53B900DDD123247
:1055E40095E4F0A37404F075F016E53B900DDF121A
:1055F40032957417F0A37470F075F016E53B900DB6
:0B560400E1123295741BF0A37458F003
:10560F00053BE53B640C708D0256F1900D08E0D31D
:10561F00940C4005E4F0753C01900D09E0D3941013
:10562F004005E4F0753C01900D0AE0D3940C400561
:10563F00E4F0753C01E4F53B75F010E53B900D0D82
:10564F00123295E0FF12005E401E75F010E53B90A0
:10565F000D0D123295E0601075F010E53B900D0DB9
:10566F00123295E4F0753C01053BE53BC3940C40C9
:10567F00C7E4F53B75F016E53B900DCD123295E082
:10568F00FF12005E405375F016E53B900DCD1232C0
:10569F0095E0604575F016E53B900DCD123295E41F
:1056AF00F075F016E53B900DDD123295E4F0A37422
:1056BF0004F075F016E53B900DDF1232957417F07C
:1056CF00A37470F075F016E53B900DE112329574EE
:1056DF001BF0A37458F0753C01053BE53BC3940CDC
:1056EF004092E53C60177B017A0D7908755D007576
:1056FF005E017D107C027F027E0012BC807B017AEE
:10570F000D79087558007559027F107E0212BB5B28
:10571F00E4F53C900D08E0F460030257BBA3E0F4FE
:0A572F0060030257BB753C01F53B17
:1057390078F07C0C7D017BFF7AC479157E007F07A8
:10574900122D21E53B2441900CF5F0E53B75F01C49
:10575900A42408F9740D35F0A801FC7D017B017AB8
:105769000C79F012347175F01CE53B900D1C123266
:10577900951232260000000075F01CE53B900D18CB
:105789001232951232260000000075F01CE53B909C
:105799000D20123295E4F0A3F075F01CE53B900D55
:0857A90022123295E4F0A3F096
:1057B100053BE53B64107080807EE4F53B75F01C91
:1057C100E53B900D08123295E0FF12005E406075D6
:1057D100F01CE53B900D08123295E0605275F01C0B
:1057E100E53B900D08123295E4F075F01CE53B9015
:1057F1000D1C1232951232260000000075F01CE5D6
:105801003B900D181232951232260000000075F0FF
:105811001CE53B900D20123295E4F0A3F075F01CCD
:10582100E53B900D22123295E4F0A3F0753C0105A1
:105831003BE53BC394104085E53C60177B017A0D45
:105841007908755D00755E027D107C027F027E0025
:1058510012BC80E4F53C7B017A0D7908F558755945
:10586100047F107E0212BB5B900D08E0F46003021E
:105871005925A3E0F46003025925753C01F53B75F8
:10588100F00CE53B900D0C1232951232260000000F
:105891000075F00CE53B900D08123295123226008E
:1058A10000000075F00CE53B900D10123295E4F00C
:1058B100A3F075F00CE53B900D12123295E4F0A3C4
:0B58C100F0053BE53BB410B7E4F53BFD
:1058CC0075F014E53B900DCA123295E4F0A3F07517
:1058DC00F014E53B900DC8123295E4F0A3F0F53DC1
:1058EC00F53EE53E25E0FFE53D33FE75F014E53B66
:1058FC00900DCC123295E5822FF582E5833EF5832F
:10590C00E4F0A3F0053EE53E7002053D6408453D1C
:02591C0070D049
:10591E00053BE53BB40CA7E53C60177B017A0D799E
:10592E0008755D00755E047D107C027F027E00129C
:10593E00BC80E4F53C7B017A0D7908F55875590366
:10594E007F107E0212BB5B74FFFFFEFDFC900D0804
:10595E001231DEC312310D6003025B04753C01F59A
:01596E003BFD
:10596F0078F77C0C7D017BFF7AC4791C7E007F0861
:10597F00122D21E53B2430900CFDF0E53B75F0280E
:10598F00A42408F9740D35F0A801FC7D017B017A80
:10599F000C79F7123471E53B75F028A42414F974CF
:1059AF000D35F0A801FC7D017BFF7AC379FB123422
:1059BF007175F028E53B900D201232957414F07537
:1059CF00F028E53B900D211232951232260000008F
:1059DF000075F028E53B900D2512329512322641C5
:1059EF00A0000075F028E53B900D29123295123278
:1059FF002641A0000075F028E53B900D2D12329541
:105A0F007401F075F028E53B900D2E123295E4F0FD
:0E5A1F0075F028E53B900D2F12329574F8F0CB
:0E5A2D00053BE53B6404600302596FE4F53B62
:105A3B0078FF7C0C7D017BFF7AC479247E007F0983
:105A4B00122D21E53B2430900D06F0E53B75F0243B
:105A5B00A424A8F9740D35F0A801FC7D017B017A13
:105A6B000C79FF123471E53B75F024A424B4F9745E
:105A7B000D35F0A801FC7D017BFF7AC4790112344E
:105A8B0071E53B75F024A424C0F9740D35F0A80121
:0C5A9B00FC7D017BFF7AC4790412347199
:105AA700053BE53BB4078DE4F53B75F005E53B9019
:105AB7000EA6123295E4F0A3F075F005E53B900EC3
:105AC700A4123295E4F0A3F075F005E53B900EA81B
:105AD7001232957401F0053BE53BB402CDE4F53B8A
:105AE70074AE253BF582E4340EF583E4F0053BE51F
:105AF7003BB402EC900EAE7403F0025C28E4F53B75
:105B070075F028E53B900D08123295E0FF12005E14
:105B17005003025BAA75F028E53B900D08123295F9
:105B2700E07003025BAA75F028E53B900D0812327E
:105B370095E4F075F028E53B900D2012329574142A
:105B4700F075F028E53B900D2112329512322600B0
:105B570000000075F028E53B900D251232951232B2
:105B67002641A0000075F028E53B900D29123295DB
:105B770012322641A0000075F028E53B900D2D124A
:105B870032957401F075F028E53B900D2E12329591
:105B9700E4F075F028E53B900D2F12329574F8F07C
:105BA700753C01053BE53BC394045003025B07E4E6
:105BB700F53B75F024E53B900DA8123295E0FF12F6
:105BC700005E405475F024E53B900DA8123295E035
:105BD700604675F024E53B900DA8123295E4F0E598
:105BE7003B75F024A424B4F9740D35F0A801FC7DAD
:105BF700017BFF7AC47901123471E53B75F024A467
:105C070024C0F9740D35F0A801FC7D017BFF7AC42F
:105C17007904123471753C01053BE53BC394074099
:105C270091E53C60177B017A0D7908755D00755E1B
:0C5C3700037D107C027F027E0012BC8006
:015C4300223E
:10BFCE008584417B017A0C793512C143900018E0CB
:10BFDE00702EF58475D98075D84075DA4275DB42BE
:10BFEE00900C9AE0A3E0F5FB900C9AE0A3E0F5FC30
:10BFFE00900C9CE0A3E0F5FD900C9CE0A3E0F5FE18
:10C00E00900CB5E0FD7C007E057F00122E068E7B27
:10C01E008F7CE4F58475E8C075D107F5BAF5BB756C
:08C02E00BC7043E70285418468
:01C0360022E7
:03007B0002A9B720
:10A9B700C0E0C0F0C083C082C0D075D000C000C066
:0BA9C70002C003C004C005C006C007AA
:10A9D200758400C2EDE57D25E0242FF582E4340084
:10A9E200F583E5BF85BEF0122E91E57D12334CAAA8
:10A9F2000D00AA1501AA1D02AA3003AA3804AA4012
:10AA020005AA4806AA50070000AA5675BB01757D23
:10AA120001804175BB02757D028039900018E060AB
:10AA22000575BB07800375BB08757D03802675BB62
:10AA320003757D04801E75BB04757D05801675BB8C
:10AA420005757D06800E75BB06757D07800675BB94
:10AA520000757D00E57C157C7002157B14457B60DA
:04AA62000302AB49F7
:10AA6600900CB5E0FF74A08FF0841313543F752249
:10AA760000F523E4FBFAEB64034A7026900018E025
:10AA86007020900CB5E075F00A84FF7E00900035CA
:10AA9600E0FCA3E0FD122DF4900021EEF0A3EFF010
:10AAA6008037EB25E0FFEA33FE742F2FF582740022
:10AAB6003EF583E0FEA3E0FFAC22AD23122E06ACEA
:10AAC60006AD07EB25E0FFEA33FE741B2FF5827413
:10AAD600003EF583ECF0A3EDF0EB25E0FFEA33FE54
:10AAE600742F2FF58274003EF583E4F0A3F00BBBC0
:10AAF60000010AEB64084A600302AA7C900004E0A5
:10AB06007029900C94E0FEA3E0FF900C93E02FFFD9
:10AB1600900C92E03EFE90001BE0FCA3E0FDC3EF2C
:10AB26009DFFEE9C90001BF0A3EFF0900CB5E0FDAE
:10AB36007C007E057F00122E068E7B8F7C9002B5F0
:03AB46007401F0A7
:0CAB4900E57D7003D38001C34002D2EC14
:10AB5500D007D006D005D004D003D002D000D0D085
:09AB6500D082D083D0F0D0E032A0
:03B735000119FFF8
:10AB6E0085843B75840F75E1EF75E20775E34475D7
:10AB7E00A4157580EA75ADFF75A53D759001E4F5D8
:10AB8E00A675A0FFF59E75E8FFE5E854E0FFBFC08F
:10AB9E00047F0180027F00900018EFF0600875A717
:10ABAE00FE75B079800675A7F875B07EE4F5C875A8
:10ABBE009CFFF59D75D8FF900018E0FF600875F8B2
:10ABCE0097759FF78006759FFF75F8F7EF6004C2C3
:10ABDE00FC8002D2FCD2B3C2B6C2B5C2B430D80326
:09ABEE0002AD0E20D90302AD0EE8
:0EABF700E4F53CF53DEF6002D2FBD2B4C2CAD9
:10AC0500900CE312322600001194E4FFFEFDFC9047
:10AC15000CE31231DED31230F74017900CE31231FA
:10AC2500D274FFFBFAF9F8122FA4900CE312321A32
:02AC350080D8C5
:08AC370030DB3730DC34D2CAF7
:10AC3F00900CE712322600001194E4FFFEFDFC9009
:10AC4F000CE71231DED31230F74017900CE71231B8
:10AC5F00D274FFFBFAF9F8122FA4900CE712321AF4
:02AC6F0080D88B
:10AC7100E4F53CF53D20DC10053DE53D7002053C69
:10AC8100B488F2E53CB413ED20DC089002FA7401BB
:03AC9100F0807AD6
:0FAC9400753F11D2B5E4F53EE53F1392C8B2CA41
:10ACA300900CEB123226000008CAE4FFFEFDFC9074
:10ACB3000CEB1231DED31230F74017900CEB12314C
:10ACC300D274FFFBFAF9F8122FA4900CEB12321A8C
:02ACD30080D827
:10ACD500E53FC313F53F053EE53EB408BAE4F53C50
:10ACE500F53D30DC10053DE53D7002053CB488F2CC
:10ACF500E53CB413ED9002FA30DC057401F08005F3
:09AD05007402F0D2B6C2C8C2CA41
:03AD0E00853B84FE
:01AD1100221F
:10C2C200AF84E4F584F5D875D980F5F9F5FAF5E986
:10C2D20075EA0C75DC4675D840900CB9F0A3F09065
:10C2E2000269F0A3F0F584C28C758905438E08F5C6
:10C2F2008AF58CC28DD28C758401758880758930DF
:07C30200D2A943E6308F844D
:01C309002211
:0DC55000AF84E4F584C289D288D2A88F841C
:01C55D0022BB
:03005B0002B036BA
:10B03600C0E0C0F0C083C082C0D075D000C000C0E0
:0DB0460001C002C003C004C005C006C00761
:10B0530053E6CF758400AF8CEFFEAD8A7C00E42D00
:10B06300F525EC3EF524900CB9E0FEA3E0FFC3E523
:10B07300259FFFE5249EFED3EF9464EE94005003D6
:10B0830002B18FC28C758A00758C00C28DD28CE59B
:04B0930019F47041FB
:10B09700F519F526AE24AF25E52625E02443F582EC
:10B0A700E43400F583EEF0A3EFF0E4FCFDE51D2F9B
:10B0B700FFE51C3EFEED351BFDEC351A8F1D8E1C82
:0EB0C7008D1BF51A0526E526B404C990026912
:10B0D50002B1810519E519C394044003751900E50A
:10B0E5001925E02443F582E43400F583E0FEA3E06E
:10B0F500FBC3E51D9BFFE51C9EFEE51B9400FDE5DE
:10B105001A94008F1D8E1C8D1BF51AAE24AF25E5F4
:10B115001925E02443F582E43400F583EEF0A3EF2E
:10B12500F0E4FCFDE51D2FFFE51C3EFEED351BFDA6
:10B13500EC351A8F1D8E1C8D1BF51AE47B04FAF96C
:10B14500F8AC1A12304A8E248F25C390026AE09516
:10B1550025FF900269E09524FEC394004006AC06E5
:10B16500AD078009C3E49FFFE49EFCAD079002692B
:10B17500E0C313FFC3ED9FEC94004007E524F0A363
:10B18500E525F0900CB9E4F0A3F07584015388CF60
:03B1950043E6305E
:10B19800D007D006D005D004D003D002D001D0000B
:0BB1A800D0D0D082D083D0F0D0E032B5
:0300530002C30ADB
:10C30A00C0E0C083C082C0D075D000C004C005C0E0
:10C31A0006C00753E6CF758400AF8CEFFEAD8A7C6A
:10C32A0000E42DFFEC3E900CB9F0A3EFF075840108
:10C33A005388CF43E630D007D006D005D004D0D0FA
:07C34A00D082D083D0E03265
:03000B0002C3C865
:10C3C800C0E0C083C08253E6CF758400C28C758AF2
:10C3D80000758C00D28C900CB9E4F0A3F09002693F
:10C3E800F0A3F07584015388CF43E630D082D08320
:03C3F800D0E03260
:0300030002BD8DAE
:10BD8D00C0E0C0F0C083C082C0D075D000C000C07C
:09BD9D0003C004C005C006C00784
:10BDA600A2AFE433FB900CBC7401F0900CB5E0FD3F
:10BDB6007C007E057F00122E068E7B8F7C757D00B3
:10BDC6007F1090002FE4F0A3DFFCC2AF53E7FE75AF
:10BDD6008400C2ECC2ED75BB0075840175C80074A1
:0EBDE600FFF5CDF5CC43E70143C8042B92AF27
:10BDF400D007D006D005D004D003D000D0D0D08254
:07BE0400D083D0F0D0E03242
:02FDFE0080FE85
:10769F00257300506C61636520756E697420666C8C
:1076AF006174206F6E206C6576656C2073757266E1
:1076BF006163652E00466C6970206F7665722E20AF
:1076CF004661636520646F776E2E00486F6C64208F
:1076DF00766572746963616C2C2047505320616E1C
:1076EF0074656E6E61206A61636B2075702E004841
:1076FF006F6C6420766572746963616C2C204750DF
:10770F005320616E74656E6E61206A61636B2064D5
:10771F006F776E2E005374616E64206F6E207269E6
:10772F0067687420736964652E005374616E6420FA
:10773F006F6E206C65667420736964652E00496EE8
:10774F0076657274696E6720582056616C75657323
:10775F0000496E76657274696E6720592056616CA8
:10776F0075657300496E76657274696E67205A206D
:10777F0056616C7565730020005A65726F20506FEB
:10778F00696E74733A20582025752C205920257561
:10779F002C205A20257500582052616E67653A20BB
:1077AF0025752C20257500592052616E67653A208A
:1077BF0025752C202575005A2052616E67653A2079
:1077CF0025752C2025750053746F72696E672043E1
:1077DF00616C6962726174696F6E204461746120BB
:1077EF00696E20466C6173682E0043616C6962722A
:1077FF006174696F6E20436F6D706C6574652E00D8
:10780F005A65726F696E6720582C20592050574D5A
:10781F000046696E616C2043616C3A2025752C25FA
:10782F00750046696E616C2056616C3A2025752C87
:10783F0025750044617461666C61736820546573CB
:10784F0074002A2A20466C617368204641494C45D2
:10785F0044202A2A2C20706167652025642C206221
:10786F0079746525640050616765202564206F6B0E
:10787F000054657374205061737365642E00496EF4
:10788F00707574205465737400444947494E3A200B
:10789F000031003000583A2025752C20593A202508
:1078AF0075005A3A2025752C2035563A202575003B
:1078BF0035563A2025752C20543A20257500413035
:1078CF003A2025752C2041313A2025750041323A56
:1078DF002025752C2041333A20257500496E70758F
:1078EF00745465737420436F6D706C6574652E00EE
:1078FF004F757470757420546573740062697420C9
:10790F002564004F75747075745465737420436FDC
:10791F006D706C6574652E00412F4420546573742F
:10792F0000426F61726420666C61742E205465731F
:10793F007420666978747572652061747461636808
:10794F0065642E005820205920203556205A2020BB
:10795F00413020413120413220413300312020007D
:10796F003020200041445465737420504153532EEE
:10797F00002A2A20414454657374204641494C2003
:10798F002A2A004469676974616C20494F20546545
:10799F007374004F6E6C792056616C696420666F4A
:1079AF007220535532202D2045786974696E672EE9
:1079BF0000446967494F5465737420506F696E7442
:1079CF00202564002A2A20204641494C202A2A00DB
:1079DF00446967494F5465737420504153532E00C7
:1079EF002A2A20446967494F5465737420464149D8
:1079FF004C202A2A004175746F4F6E2054657374A2
:107A0F0000456E61626C696E67204175746F4F6ED1
:107A1F002E2E2E0044726F7070696E6720355620BF
:107A2F00456E61626C650044697361626C696E6773
:107A3F00204175746F4F6E2E2E2E004175746F4F4F
:107A4F006E5465737420504153532E00534D42753D
:107A5F00732054657374202D204D6173746572000B
:107A6F0025642042797465732C2025642043796343
:107A7F006C657300546F74616C204572726F722065
:107A8F00436F756E742C20257500534D427573200E
:107A9F005465737420506173732E00534D42757388
:107AAF002054657374202D20536C61766500534DFF
:107ABF0042757320536C617665205465737420434F
:107ACF006F6D706C6574652E000102040810204004
:097ADF008001020408102040801F
:1035300085844C9000047401F075840FFB7A0C793B
:103540003512C143E4900C85F09099EF93900C866E
:10355000F0900018E0900C87600574C8F080037448
:1035600064F0900C9EE4F0A374F2F0900CA0E4F0F0
:10357000A37408F074FFFFFEFDFC900C881231DE8E
:10358000C312310D700A900C881232260000000020
:10359000900C8CE0B4FF037401F0900C8DE0B4FF4C
:1035A000037409F0900CA274FFF0A3F0900C8E74D9
:1035B00008F0A3E4F0900C907408F0A3E4F0900CF1
:1035C00035F0900C49F0900C5DF0900C9CF0A374D9
:1035D000A0F0900C9AE4F0A374A0F0E49002CEF076
:0A35E000A3F0D2B3D2B6D2B5D2B434
:1035EA00900CF3123226000107ACE4FFFEFDFC90BA
:1035FA000CF31231DED31230F74017900CF312316C
:10360A00D274FFFBFAF9F8122FA4900CF312321AB3
:02361A0080D856
:10361C009099F0E493FF3395E0FE90029B75F013C4
:10362C00EF123295EE75F013A42583F5831232B1A7
:10363C00E92407F9E43AFA7556FF75577675589FE1
:10364C007559FF755A76755BA2126E389099F0E435
:10365C0093FF3395E0FE90029B75F013EF123295B9
:10366C00EE75F013A42583F5831232B1E92407F922
:10367C00E43AFA12000EEF2401F557E43EF55690A9
:0C368C0099EFE493FF7B737D0112A437DB
:10369800900CF7123226000107ACE4FFFEFDFC9007
:1036A8000CF71231DED31230F74017900CF71231B5
:1036B800D274FFFBFAF9F8122FA4900CF712321A01
:0236C80080D8A8
:1036CA0012A7E4900018E06065901115E0FEA3E0EF
:1036DA00FF901110E02FFF90110FE03EC313FEEF91
:1036EA0013FF900C8EEEF0A3EFF0901117E0FEA3FB
:1036FA00E0FF901112E02FFF901111E03EC313FE7C
:10370A00EF13FF900C90EEF0A3EFF0901119E0FE8A
:10371A00A3E0FF901114E02FFF901113E03EC313B2
:10372A00FEEF13FF900CADEEF0A3EFF080031283CF
:10373A0068900018E0700302381AC2B3C2B59099B3
:10374A00F0E493FF3395E0FE90029B75F013EF12BD
:10375A003295EE75F013A42583F5831232B1E9246C
:10376A0007F9E43AFA7556FF75577675589F7559F1
:10377A00FF755A76755BC4126E389099F0E493FF20
:10378A003395E0FE90029B75F013EF123295EE75B9
:10379A00F013A42583F5831232B1E92407F9E43A38
:1037AA00FA12000EEF2401F557E43EF5569099EF10
:0A37BA00E493FF7B737D0112A43736
:1037C400900CFB123226000107ACE4FFFEFDFC90D6
:1037D4000CFB1231DED31230F74017900CFB123180
:1037E400D274FFFBFAF9F8122FA4900CFB12321AD0
:0237F40080D87B
:1037F60012A7E4901119E0FEA3E0FF901114E02F48
:10380600FF901113E03EC313FEEF13FF900CABEED7
:10381600F0A3EFF0C2B3C2B6C2B5C2B49099F0E459
:1038260093FF3395E0FE90029B75F013EF123295ED
:10383600EE75F013A42583F5831232B1E92407F956
:10384600E43AFA7556FF75577675589F7559FF75A0
:103856005A76755BDA126E389099F0E493FF3395D9
:10386600E0FE90029B75F013EF123295EE75F013A1
:10387600A42583F5831232B1E92407F9E43AFA1252
:10388600000EEF2401F557E43EF5569099EFE493C8
:08389600FF7B737D0112A437D2
:10389E00900CFF123226000107ACE4FFFEFDFC90F7
:1038AE000CFF1231DED31230F74017900CFF12319D
:1038BE00D274FFFBFAF9F8122FA4900CFF12321AF1
:0238CE0080D8A0
:1038D00012A7E4901115E0FEA3E0FF901110E02F75
:1038E000FF90110FE03EC313FEEF13FF900C94EE18
:1038F000F0A3EFF0900018E06021901119E0FEA312
:10390000E0FF901114E02FFF901113E03EC313FE6F
:10391000EF13FF900CA9EEF0A3EFF0D2B39099F063
:10392000E493FF3395E0FE90029B75F013EF1232A3
:1039300095EE75F013A42583F5831232B1E92407BF
:10394000F9E43AFA7556FF75577675589F7559FF21
:10395000755A76755BFE126E389099F0E493FF33DA
:1039600095E0FE90029B75F013EF123295EE75F024
:1039700013A42583F5831232B1E92407F9E43AFA56
:1039800012000EEF2401F557E43EF5569099EFE44E
:0939900093FF7B737D0112A43743
:10399900900D03123226000107ACE4FFFEFDFC90F6
:1039A9000D031231DED31230F74017900D03123197
:1039B900D274FFFBFAF9F8122FA4900D0312321AF0
:0239C90080D8A4
:1039CB0012A7E4901115E0FEA3E0FF901110E02F79
:1039DB00FF90110FE03EC313FEEF13FF900C92EE1E
:1039EB00F0A3EFF0D2B69099F0E493FF3395E0FE9D
:1039FB0090029B75F013EF123295EE75F013A42520
:103A0B0083F5831232B1E92407F9E43AFA7556FFCC
:103A1B0075577675589F7559FF755A77755B2412D4
:103A2B006E389099F0E493FF3395E0FE90029B750E
:103A3B00F013EF123295EE75F013A42583F5831274
:103A4B0032B1E92407F9E43AFA12000EEF2401F53A
:103A5B0057E43EF5569099EFE493FF7B737D01128B
:023A6B00A4377E
:103A6D00900D07123226000107ACE4FFFEFDFC901D
:103A7D000D071231DED31230F74017900D071231BA
:103A8D00D274FFFBFAF9F8122FA4900D0712321A17
:023A9D0080D8CF
:103A9F0012A7E4901117E0FEA3E0FF901112E02FA0
:103AAF00FF901111E03EC313FEEF13FF900C96EE43
:103ABF00F0A3EFF0D2B59099F0E493FF3395E0FEC9
:103ACF0090029B75F013EF123295EE75F013A4254B
:103ADF0083F5831232B1E92407F9E43AFA7556FFF8
:103AEF0075577675589F7559FF755A77755B3912EB
:103AFF006E389099F0E493FF3395E0FE90029B753A
:103B0F00F013EF123295EE75F013A42583F583129F
:103B1F0032B1E92407F9E43AFA12000EEF2401F565
:103B2F0057E43EF5569099EFE493FF7B737D0112B6
:023B3F00A437A9
:103B4100900D0B123226000107ACE4FFFEFDFC9044
:103B51000D0B1231DED31230F74017900D0B1231DD
:103B6100D274FFFBFAF9F8122FA4900D0B12321A3E
:023B710080D8FA
:103B730012A7E4901117E0FEA3E0FF901112E02FCB
:103B8300FF901111E03EC313FEEF13FF900C98EE6C
:103B9300F0A3EFF0D2B4900C92E0FEA3E0FFC39049
:103BA3000C95E09F900C94E09E4003023C82909918
:103BB300F0E493FF3395E0FE90029B75F013EF1250
:103BC3003295EE75F013A42583F5831232B1E924FF
:103BD30007F9E43AFA7556FF75577675589F755984
:103BE300FF755A77755B4D126E389099F0E493FF29
:103BF3003395E0FE90029B75F013EF123295EE754C
:103C0300F013A42583F5831232B1E92407F9E43ACA
:103C1300FA12000EEF2401F557E43EF5569099EFA2
:0A3C2300E493FF7B737D0112A437C8
:103C2D00900D0F123226000107ACE4FFFEFDFC9053
:103C3D000D0F1231DED31230F74017900D0F1231E8
:103C4D00D274FFFBFAF9F8122FA4900D0F12321A4D
:023C5D0080D80D
:103C5F00900C94E0F54DA3E0F54E900C92E0FFA38D
:103C6F00E0900C94CFF0A3EFF0900C92E54DF0A301
:103C7F00E54EF0900C96E0FEA3E0FFC3900C99E0A8
:103C8F009F900C98E09E4003023D6B9099F0E49357
:103C9F00FF3395E0FE90029B75F013EF123295EE15
:103CAF0075F013A42583F5831232B1E92407F9E4E3
:103CBF003AFA7556FF75577675589F7559FF755AAD
:103CCF0077755B60126E389099F0E493FF3395E04F
:103CDF00FE90029B75F013EF123295EE75F013A460
:103CEF002583F5831232B1E92407F9E43AFA120079
:103CFF000EEF2401F557E43EF5569099EFE493FF4C
:073D0F007B737D0112A43754
:103D1600900D13123226000107ACE4FFFEFDFC9065
:103D26000D131231DED31230F74017900D131231F6
:103D3600D274FFFBFAF9F8122FA4900D1312321A5F
:023D460080D823
:103D4800900C98E0F54DA3E0F54E900C96E0FFA39B
:103D5800E0900C98CFF0A3EFF0900C96E54DF0A30F
:103D6800E54EF0900018E07003023E5D900CABE069
:103D7800FEA3E0FFC3900CAEE09F900CADE09E4028
:103D880003023E5D9099F0E493FF3395E0FE9002C4
:103D98009B75F013EF123295EE75F013A42583F599
:103DA800831232B1E92407F9E43AFA7556FF7557D8
:103DB8007675589F7559FF755A77755B73126E380B
:103DC8009099F0E493FF3395E0FE90029B75F01311
:103DD800EF123295EE75F013A42583F5831232B1F4
:103DE800E92407F9E43AFA12000EEF2401F557E442
:103DF8003EF5569099EFE493FF7B737D0112A4374B
:103E0800900D17123226000107ACE4FFFEFDFC906E
:103E18000D171231DED31230F74017900D171231FB
:103E2800D274FFFBFAF9F8122FA4900D1712321A68
:023E380080D830
:103E3A00900CADE0F54DA3E0F54E900CABE0FFA37E
:103E4A00E0900CADCFF0A3EFF0900CABE54DF0A3F2
:103E5A00E54EF09099F0E493FF3395E0FE90029BD3
:103E6A0075F013EF123295EE75F013A42583F583DE
:103E7A001232B1E92407F9E43AFA7556FF75577612
:103E8A0075589F7559FF755A77755B86126E38900B
:103E9A0099F0E493FF3395E0FE90029B75F013EFDF
:103EAA00123295EE75F013A42583F5831232B1E927
:103EBA002407F9E43AFA12000EEF2401F557E43E1A
:0F3ECA00F5569099EFE493FF7B737D0112A437B7
:103ED900900D1B123226000107ACE4FFFEFDFC9099
:103EE9000D1B1231DED31230F74017900D1B123122
:103EF900D274FFFBFAF9F8122FA4900D1B12321A93
:023F090080D85E
:103F0B007556FF755777755888900C8EE0F559A349
:103F1B00E0F55A900C90E0F55BA3E0F55C900CA9F2
:103F2B00E0F55DA3E0F55E7B017A0D7933126E3817
:103F3B009099F0E493FF3395E0FE90029B75F0139C
:103F4B00EF123295EE75F013A42583F5831232B17F
:103F5B00E92407F9E43AFA7556FF75577675589FB9
:103F6B00755901755A0D755B33126E389099F0E4E3
:103F7B0093FF3395E0FE90029B75F013EF12329591
:103F8B00EE75F013A42583F5831232B1E92407F9FA
:103F9B00E43AFA12000EEF2401F557E43EF5569081
:0C3FAB0099EFE493FF7B737D0112A437B3
:103FB700900D1F123226000107ACE4FFFEFDFC90B6
:103FC7000D1F1231DED31230F74017900D1F12313B
:103FD700D274FFFBFAF9F8122FA4900D1F12321AB0
:023FE70080D880
:103FE9009099F0E493FF3395E0FE90029B75F013EE
:103FF900EF123295EE75F013A42583F5831232B1D1
:10400900E92407F9E43AFA7556FF7557777558A602
:10401900900C92E0F559A3E0F55A900C94E0F55B09
:10402900A3E0F55C126E389099F0E493FF3395E0C4
:10403900FE90029B75F013EF123295EE75F013A402
:104049002583F5831232B1E92407F9E43AFA12001B
:104059000EEF2401F557E43EF5569099EFE493FFEE
:074069007B737D0112A437F7
:10407000900D23123226000107ACE4FFFEFDFC90F8
:104080000D231231DED31230F74017900D23123179
:10409000D274FFFBFAF9F8122FA4900D2312321AF2
:0240A00080D8C6
:1040A2009099F0E493FF3395E0FE90029B75F01334
:1040B200EF123295EE75F013A42583F5831232B117
:1040C200E92407F9E43AFA7556FF7557777558B639
:1040D200900C96E0F559A3E0F55A900C98E0F55B48
:1040E200A3E0F55C126E389099F0E493FF3395E00B
:1040F200FE90029B75F013EF123295EE75F013A449
